{
  "contractName": "BasicTokenBridge",
  "abi": [
    {
      "constant": true,
      "inputs": [],
      "name": "isInitialized",
      "outputs": [
        {
          "name": "",
          "type": "bool"
        }
      ],
      "payable": false,
      "stateMutability": "view",
      "type": "function"
    },
    {
      "constant": true,
      "inputs": [],
      "name": "requiredBlockConfirmations",
      "outputs": [
        {
          "name": "",
          "type": "uint256"
        }
      ],
      "payable": false,
      "stateMutability": "view",
      "type": "function"
    },
    {
      "constant": false,
      "inputs": [
        {
          "name": "_token",
          "type": "address"
        },
        {
          "name": "_to",
          "type": "address"
        }
      ],
      "name": "claimTokens",
      "outputs": [],
      "payable": false,
      "stateMutability": "nonpayable",
      "type": "function"
    },
    {
      "constant": true,
      "inputs": [],
      "name": "requiredSignatures",
      "outputs": [
        {
          "name": "",
          "type": "uint256"
        }
      ],
      "payable": false,
      "stateMutability": "view",
      "type": "function"
    },
    {
      "constant": true,
      "inputs": [],
      "name": "owner",
      "outputs": [
        {
          "name": "",
          "type": "address"
        }
      ],
      "payable": false,
      "stateMutability": "view",
      "type": "function"
    },
    {
      "constant": true,
      "inputs": [],
      "name": "validatorContract",
      "outputs": [
        {
          "name": "",
          "type": "address"
        }
      ],
      "payable": false,
      "stateMutability": "view",
      "type": "function"
    },
    {
      "constant": true,
      "inputs": [],
      "name": "deployedAtBlock",
      "outputs": [
        {
          "name": "",
          "type": "uint256"
        }
      ],
      "payable": false,
      "stateMutability": "view",
      "type": "function"
    },
    {
      "constant": true,
      "inputs": [],
      "name": "getBridgeInterfacesVersion",
      "outputs": [
        {
          "name": "major",
          "type": "uint64"
        },
        {
          "name": "minor",
          "type": "uint64"
        },
        {
          "name": "patch",
          "type": "uint64"
        }
      ],
      "payable": false,
      "stateMutability": "pure",
      "type": "function"
    },
    {
      "constant": false,
      "inputs": [
        {
          "name": "_blockConfirmations",
          "type": "uint256"
        }
      ],
      "name": "setRequiredBlockConfirmations",
      "outputs": [],
      "payable": false,
      "stateMutability": "nonpayable",
      "type": "function"
    },
    {
      "constant": false,
      "inputs": [
        {
          "name": "_gasPrice",
          "type": "uint256"
        }
      ],
      "name": "setGasPrice",
      "outputs": [],
      "payable": false,
      "stateMutability": "nonpayable",
      "type": "function"
    },
    {
      "constant": false,
      "inputs": [
        {
          "name": "newOwner",
          "type": "address"
        }
      ],
      "name": "transferOwnership",
      "outputs": [],
      "payable": false,
      "stateMutability": "nonpayable",
      "type": "function"
    },
    {
      "constant": true,
      "inputs": [],
      "name": "gasPrice",
      "outputs": [
        {
          "name": "",
          "type": "uint256"
        }
      ],
      "payable": false,
      "stateMutability": "view",
      "type": "function"
    },
    {
      "anonymous": false,
      "inputs": [
        {
          "indexed": false,
          "name": "newLimit",
          "type": "uint256"
        }
      ],
      "name": "DailyLimitChanged",
      "type": "event"
    },
    {
      "anonymous": false,
      "inputs": [
        {
          "indexed": false,
          "name": "newLimit",
          "type": "uint256"
        }
      ],
      "name": "ExecutionDailyLimitChanged",
      "type": "event"
    },
    {
      "anonymous": false,
      "inputs": [
        {
          "indexed": false,
          "name": "gasPrice",
          "type": "uint256"
        }
      ],
      "name": "GasPriceChanged",
      "type": "event"
    },
    {
      "anonymous": false,
      "inputs": [
        {
          "indexed": false,
          "name": "requiredBlockConfirmations",
          "type": "uint256"
        }
      ],
      "name": "RequiredBlockConfirmationChanged",
      "type": "event"
    },
    {
      "anonymous": false,
      "inputs": [
        {
          "indexed": false,
          "name": "previousOwner",
          "type": "address"
        },
        {
          "indexed": false,
          "name": "newOwner",
          "type": "address"
        }
      ],
      "name": "OwnershipTransferred",
      "type": "event"
    },
    {
      "constant": true,
      "inputs": [
        {
          "name": "_day",
          "type": "uint256"
        }
      ],
      "name": "totalSpentPerDay",
      "outputs": [
        {
          "name": "",
          "type": "uint256"
        }
      ],
      "payable": false,
      "stateMutability": "view",
      "type": "function"
    },
    {
      "constant": true,
      "inputs": [
        {
          "name": "_day",
          "type": "uint256"
        }
      ],
      "name": "totalExecutedPerDay",
      "outputs": [
        {
          "name": "",
          "type": "uint256"
        }
      ],
      "payable": false,
      "stateMutability": "view",
      "type": "function"
    },
    {
      "constant": true,
      "inputs": [],
      "name": "dailyLimit",
      "outputs": [
        {
          "name": "",
          "type": "uint256"
        }
      ],
      "payable": false,
      "stateMutability": "view",
      "type": "function"
    },
    {
      "constant": true,
      "inputs": [],
      "name": "executionDailyLimit",
      "outputs": [
        {
          "name": "",
          "type": "uint256"
        }
      ],
      "payable": false,
      "stateMutability": "view",
      "type": "function"
    },
    {
      "constant": true,
      "inputs": [],
      "name": "maxPerTx",
      "outputs": [
        {
          "name": "",
          "type": "uint256"
        }
      ],
      "payable": false,
      "stateMutability": "view",
      "type": "function"
    },
    {
      "constant": true,
      "inputs": [],
      "name": "executionMaxPerTx",
      "outputs": [
        {
          "name": "",
          "type": "uint256"
        }
      ],
      "payable": false,
      "stateMutability": "view",
      "type": "function"
    },
    {
      "constant": true,
      "inputs": [],
      "name": "minPerTx",
      "outputs": [
        {
          "name": "",
          "type": "uint256"
        }
      ],
      "payable": false,
      "stateMutability": "view",
      "type": "function"
    },
    {
      "constant": true,
      "inputs": [],
      "name": "decimalShift",
      "outputs": [
        {
          "name": "",
          "type": "uint256"
        }
      ],
      "payable": false,
      "stateMutability": "view",
      "type": "function"
    },
    {
      "constant": true,
      "inputs": [
        {
          "name": "_amount",
          "type": "uint256"
        }
      ],
      "name": "withinLimit",
      "outputs": [
        {
          "name": "",
          "type": "bool"
        }
      ],
      "payable": false,
      "stateMutability": "view",
      "type": "function"
    },
    {
      "constant": true,
      "inputs": [
        {
          "name": "_amount",
          "type": "uint256"
        }
      ],
      "name": "withinExecutionLimit",
      "outputs": [
        {
          "name": "",
          "type": "bool"
        }
      ],
      "payable": false,
      "stateMutability": "view",
      "type": "function"
    },
    {
      "constant": true,
      "inputs": [],
      "name": "getCurrentDay",
      "outputs": [
        {
          "name": "",
          "type": "uint256"
        }
      ],
      "payable": false,
      "stateMutability": "view",
      "type": "function"
    },
    {
      "constant": false,
      "inputs": [
        {
          "name": "_dailyLimit",
          "type": "uint256"
        }
      ],
      "name": "setDailyLimit",
      "outputs": [],
      "payable": false,
      "stateMutability": "nonpayable",
      "type": "function"
    },
    {
      "constant": false,
      "inputs": [
        {
          "name": "_dailyLimit",
          "type": "uint256"
        }
      ],
      "name": "setExecutionDailyLimit",
      "outputs": [],
      "payable": false,
      "stateMutability": "nonpayable",
      "type": "function"
    },
    {
      "constant": false,
      "inputs": [
        {
          "name": "_maxPerTx",
          "type": "uint256"
        }
      ],
      "name": "setExecutionMaxPerTx",
      "outputs": [],
      "payable": false,
      "stateMutability": "nonpayable",
      "type": "function"
    },
    {
      "constant": false,
      "inputs": [
        {
          "name": "_maxPerTx",
          "type": "uint256"
        }
      ],
      "name": "setMaxPerTx",
      "outputs": [],
      "payable": false,
      "stateMutability": "nonpayable",
      "type": "function"
    },
    {
      "constant": false,
      "inputs": [
        {
          "name": "_minPerTx",
          "type": "uint256"
        }
      ],
      "name": "setMinPerTx",
      "outputs": [],
      "payable": false,
      "stateMutability": "nonpayable",
      "type": "function"
    }
  ],
  "bytecode": "0x608060405234801561001057600080fd5b506117e4806100206000396000f3006080604052600436106101505763ffffffff60e060020a6000350416632bd0bb058114610155578063392e53cd1461017f5780633dd95d1b146101a85780633e6968b6146101c25780633f0a9f65146101d757806343b37dd3146101ec5780634fb3fef71461020157806367eeba0c1461021957806369ffa08a1461022e578063879ce676146102555780638aa1949a1461026d5780638d068043146102825780638da5cb5b1461029757806399439089146102c85780639a454b99146102dd5780639cb7595a146102f2578063a2a6ca2714610333578063acf5c6891461034b578063b20d30a914610363578063bf1fe4201461037b578063c6f6f21614610393578063dae5f0fd146103ab578063df25f3f0146103c0578063ea9f4968146103d5578063f20151e1146103ed578063f2fde38b14610405578063f968adbe14610426578063fe173b971461043b575b600080fd5b34801561016157600080fd5b5061016d600435610450565b60408051918252519081900360200190f35b34801561018b57600080fd5b5061019461050d565b604080519115158252519081900360200190f35b3480156101b457600080fd5b506101c06004356105c5565b005b3480156101ce57600080fd5b5061016d6106e5565b3480156101e357600080fd5b5061016d6106ee565b3480156101f857600080fd5b5061016d6107a2565b34801561020d57600080fd5b5061016d600435610815565b34801561022557600080fd5b5061016d610890565b34801561023a57600080fd5b506101c0600160a060020a0360043581169060243516610903565b34801561026157600080fd5b506101946004356109a6565b34801561027957600080fd5b5061016d6109f0565b34801561028e57600080fd5b5061016d610a63565b3480156102a357600080fd5b506102ac610adb565b60408051600160a060020a039092168252519081900360200190f35b3480156102d457600080fd5b506102ac610b99565b3480156102e957600080fd5b5061016d610c0d565b3480156102fe57600080fd5b50610307610c80565b6040805167ffffffffffffffff9485168152928416602084015292168183015290519081900360600190f35b34801561033f57600080fd5b506101c0600435610c8b565b34801561035757600080fd5b506101c0600435610d82565b34801561036f57600080fd5b506101c0600435610e91565b34801561038757600080fd5b506101c0600435610fb1565b34801561039f57600080fd5b506101c06004356110c0565b3480156103b757600080fd5b5061016d611161565b3480156103cc57600080fd5b5061016d6111d4565b3480156103e157600080fd5b50610194600435611247565b3480156103f957600080fd5b506101c0600435611297565b34801561041157600080fd5b506101c0600160a060020a0360043516611338565b34801561043257600080fd5b5061016d611375565b34801561044757600080fd5b5061016d6113e8565b60008060008360405160200180807f746f74616c5370656e74506572446179000000000000000000000000000000008152506010018281526020019150506040516020818303038152906040526040518082805190602001908083835b602083106104cc5780518252601f1990920191602091820191016104ad565b51815160209384036101000a600019018019909216911617905260408051929094018290039091208652850195909552929092016000205495945050505050565b60006004600060405160200180807f6973496e697469616c697a656400000000000000000000000000000000000000815250600d0190506040516020818303038152906040526040518082805190602001908083835b602083106105825780518252601f199092019160209182019101610563565b51815160209384036101000a600019018019909216911617905260408051929094018290039091208652850195909552929092016000205460ff16949350505050565b6105cd610adb565b600160a060020a031633146105e157600080fd5b6105e96109f0565b8111806105f4575080155b15156105ff57600080fd5b8060008060405160200180807f657865637574696f6e4461696c794c696d69740000000000000000000000000081525060130190506040516020818303038152906040526040518082805190602001908083835b602083106106725780518252601f199092019160209182019101610653565b51815160001960209485036101000a019081169019919091161790526040805194909201849003909320865285830196909652509284016000209490945550815184815291517f9bebf928b90863f24cc31f726a3a7545efd409f1dcf552301b1ee3710da70d3b9350918290030190a150565b62015180420490565b600080600060405160200180807f7265717569726564426c6f636b436f6e6669726d6174696f6e73000000000000815250601a0190506040516020818303038152906040526040518082805190602001908083835b602083106107625780518252601f199092019160209182019101610743565b51815160209384036101000a6000190180199092169116179052604080519290940182900390912086528501959095529290920160002054949350505050565b600080600060405160200180807f657865637574696f6e4461696c794c696d6974000000000000000000000000008152506013019050604051602081830303815290604052604051808280519060200190808383602083106107625780518252601f199092019160209182019101610743565b60008060008360405160200180807f746f74616c457865637574656450657244617900000000000000000000000000815250601301828152602001915050604051602081830303815290604052604051808280519060200190808383602083106104cc5780518252601f1990920191602091820191016104ad565b600080600060405160200180807f6461696c794c696d697400000000000000000000000000000000000000000000815250600a019050604051602081830303815290604052604051808280519060200190808383602083106107625780518252601f199092019160209182019101610743565b30600160a060020a0316636fde82026040518163ffffffff1660e060020a028152600401602060405180830381600087803b15801561094157600080fd5b505af1158015610955573d6000803e3d6000fd5b505050506040513d602081101561096b57600080fd5b5051600160a060020a0316331461098157600080fd5b80600160a060020a038116151561099757600080fd5b6109a1838361145b565b505050565b6000806109c9836109bd6109b86106e5565b610815565b9063ffffffff61148716565b9050806109d46107a2565b101580156109e957506109e56109f0565b8311155b9392505050565b600080600060405160200180807f657865637574696f6e4d617850657254780000000000000000000000000000008152506011019050604051602081830303815290604052604051808280519060200190808383602083106107625780518252601f199092019160209182019101610743565b6000610a6d610b99565b600160a060020a0316638d0680436040518163ffffffff1660e060020a028152600401602060405180830381600087803b158015610aaa57600080fd5b505af1158015610abe573d6000803e3d6000fd5b505050506040513d6020811015610ad457600080fd5b5051905090565b60006002600060405160200180807f6f776e657200000000000000000000000000000000000000000000000000000081525060050190506040516020818303038152906040526040518082805190602001908083835b60208310610b505780518252601f199092019160209182019101610b31565b51815160209384036101000a6000190180199092169116179052604080519290940182900390912086528501959095529290920160002054600160a060020a0316949350505050565b60006002600060405160200180807f76616c696461746f72436f6e7472616374000000000000000000000000000000815250601101905060405160208183030381529060405260405180828051906020019080838360208310610b505780518252601f199092019160209182019101610b31565b600080600060405160200180807f6465706c6f7965644174426c6f636b0000000000000000000000000000000000815250600f019050604051602081830303815290604052604051808280519060200190808383602083106107625780518252601f199092019160209182019101610743565b600260036000909192565b610c93610adb565b600160a060020a03163314610ca757600080fd5b610caf610890565b81108015610cc35750610cc0611375565b81105b1515610cce57600080fd5b8060008060405160200180807f6d696e506572547800000000000000000000000000000000000000000000000081525060080190506040516020818303038152906040526040518082805190602001908083835b60208310610d415780518252601f199092019160209182019101610d22565b51815160209384036101000a600019018019909216911617905260408051929094018290039091208652850195909552929092016000209390935550505050565b610d8a610adb565b600160a060020a03163314610d9e57600080fd5b60008111610dab57600080fd5b8060008060405160200180807f7265717569726564426c6f636b436f6e6669726d6174696f6e73000000000000815250601a0190506040516020818303038152906040526040518082805190602001908083835b60208310610e1e5780518252601f199092019160209182019101610dff565b51815160001960209485036101000a019081169019919091161790526040805194909201849003909320865285830196909652509284016000209490945550815184815291517f4fb76205cd57c896b21511d2114137d8e901b4ccd659e1a0f97d6306795264fb9350918290030190a150565b610e99610adb565b600160a060020a03163314610ead57600080fd5b610eb5611375565b811180610ec0575080155b1515610ecb57600080fd5b8060008060405160200180807f6461696c794c696d697400000000000000000000000000000000000000000000815250600a0190506040516020818303038152906040526040518082805190602001908083835b60208310610f3e5780518252601f199092019160209182019101610f1f565b51815160001960209485036101000a019081169019919091161790526040805194909201849003909320865285830196909652509284016000209490945550815184815291517fad4123ae17c414d9c6d2fec478b402e6b01856cc250fd01fbfd252fda0089d3c9350918290030190a150565b610fb9610adb565b600160a060020a03163314610fcd57600080fd5b60008111610fda57600080fd5b8060008060405160200180807f676173507269636500000000000000000000000000000000000000000000000081525060080190506040516020818303038152906040526040518082805190602001908083835b6020831061104d5780518252601f19909201916020918201910161102e565b51815160001960209485036101000a019081169019919091161790526040805194909201849003909320865285830196909652509284016000209490945550815184815291517f52264b89e0fceafb26e79fd49ef8a366eb6297483bf4035b027f0c99a7ad512e9350918290030190a150565b6110c8610adb565b600160a060020a031633146110dc57600080fd5b6110e4610890565b81106110ef57600080fd5b8060008060405160200180807f6d61785065725478000000000000000000000000000000000000000000000000815250600801905060405160208183030381529060405260405180828051906020019080838360208310610d415780518252601f199092019160209182019101610d22565b600080600060405160200180807f646563696d616c53686966740000000000000000000000000000000000000000815250600c019050604051602081830303815290604052604051808280519060200190808383602083106107625780518252601f199092019160209182019101610743565b600080600060405160200180807f6d696e50657254780000000000000000000000000000000000000000000000008152506008019050604051602081830303815290604052604051808280519060200190808383602083106107625780518252601f199092019160209182019101610743565b60008061125e836109bd6112596106e5565b610450565b905080611269610890565b1015801561127e575061127a611375565b8311155b80156109e9575061128d6111d4565b9092101592915050565b61129f610adb565b600160a060020a031633146112b357600080fd5b6112bb6107a2565b81106112c657600080fd5b8060008060405160200180807f657865637574696f6e4d61785065725478000000000000000000000000000000815250601101905060405160208183030381529060405260405180828051906020019080838360208310610d415780518252601f199092019160209182019101610d22565b611340610adb565b600160a060020a0316331461135457600080fd5b600160a060020a038116151561136957600080fd5b6113728161149a565b50565b600080600060405160200180807f6d617850657254780000000000000000000000000000000000000000000000008152506008019050604051602081830303815290604052604051808280519060200190808383602083106107625780518252601f199092019160209182019101610743565b600080600060405160200180807f67617350726963650000000000000000000000000000000000000000000000008152506008019050604051602081830303815290604052604051808280519060200190808383602083106107625780518252601f199092019160209182019101610743565b600160a060020a038216151561147957611474816115c2565b611483565b611483828261162d565b5050565b8181018281101561149457fe5b92915050565b7f8be0079c531659141344cd1fd0a4f28419497f9722a3daafe3b4186f6b6457e06114c3610adb565b60408051600160a060020a03928316815291841660208301528051918290030190a1806002600060405160200180807f6f776e657200000000000000000000000000000000000000000000000000000081525060050190506040516020818303038152906040526040518082805190602001908083835b602083106115595780518252601f19909201916020918201910161153a565b51815160209384036101000a60001901801990921691161790526040805192909401829003909120865285019590955292909201600020805473ffffffffffffffffffffffffffffffffffffffff1916600160a060020a03959095169490941790935550505050565b604051303190600160a060020a0383169082156108fc029083906000818181858888f1935050505015156114835780826115fa611788565b600160a060020a039091168152604051908190036020019082f080158015611626573d6000803e3d6000fd5b5050505050565b604080517f70a0823100000000000000000000000000000000000000000000000000000000815230600482015290518391600091600160a060020a038416916370a0823191602480830192602092919082900301818787803b15801561169257600080fd5b505af11580156116a6573d6000803e3d6000fd5b505050506040513d60208110156116bc57600080fd5b505190506116cb8484836116d1565b50505050565b60408051600160a060020a03841660248201526044808201849052825180830390910181526064909101909152602081810180517bffffffffffffffffffffffffffffffffffffffffffffffffffffffff167fa9059cbb000000000000000000000000000000000000000000000000000000001781528251606093600093909290918491828a5af160005193508392508080156101505750506000835111156117805781151561178057600080fd5b505050505050565b604051602180611798833901905600608060405260405160208060218339810160405251600160a060020a038116ff00a165627a7a72305820e8ba52d0bcdfd4940e65650ce1fdbd424f727a34160eb97adb5edd22832109fc0029",
  "source": "pragma solidity 0.4.24;\n\nimport \"./BasicBridge.sol\";\n\ncontract BasicTokenBridge is BasicBridge {\n    event DailyLimitChanged(uint256 newLimit);\n    event ExecutionDailyLimitChanged(uint256 newLimit);\n\n    bytes32 internal constant MIN_PER_TX = keccak256(abi.encodePacked(\"minPerTx\"));\n    bytes32 internal constant MAX_PER_TX = keccak256(abi.encodePacked(\"maxPerTx\"));\n    bytes32 internal constant DAILY_LIMIT = keccak256(abi.encodePacked(\"dailyLimit\"));\n    bytes32 internal constant EXECUTION_MAX_PER_TX = keccak256(abi.encodePacked(\"executionMaxPerTx\"));\n    bytes32 internal constant EXECUTION_DAILY_LIMIT = keccak256(abi.encodePacked(\"executionDailyLimit\"));\n    bytes32 internal constant DECIMAL_SHIFT = keccak256(abi.encodePacked(\"decimalShift\"));\n\n    function totalSpentPerDay(uint256 _day) public view returns (uint256) {\n        return uintStorage[keccak256(abi.encodePacked(\"totalSpentPerDay\", _day))];\n    }\n\n    function totalExecutedPerDay(uint256 _day) public view returns (uint256) {\n        return uintStorage[keccak256(abi.encodePacked(\"totalExecutedPerDay\", _day))];\n    }\n\n    function dailyLimit() public view returns (uint256) {\n        return uintStorage[DAILY_LIMIT];\n    }\n\n    function executionDailyLimit() public view returns (uint256) {\n        return uintStorage[EXECUTION_DAILY_LIMIT];\n    }\n\n    function maxPerTx() public view returns (uint256) {\n        return uintStorage[MAX_PER_TX];\n    }\n\n    function executionMaxPerTx() public view returns (uint256) {\n        return uintStorage[EXECUTION_MAX_PER_TX];\n    }\n\n    function minPerTx() public view returns (uint256) {\n        return uintStorage[MIN_PER_TX];\n    }\n\n    function decimalShift() public view returns (uint256) {\n        return uintStorage[DECIMAL_SHIFT];\n    }\n\n    function withinLimit(uint256 _amount) public view returns (bool) {\n        uint256 nextLimit = totalSpentPerDay(getCurrentDay()).add(_amount);\n        return dailyLimit() >= nextLimit && _amount <= maxPerTx() && _amount >= minPerTx();\n    }\n\n    function withinExecutionLimit(uint256 _amount) public view returns (bool) {\n        uint256 nextLimit = totalExecutedPerDay(getCurrentDay()).add(_amount);\n        return executionDailyLimit() >= nextLimit && _amount <= executionMaxPerTx();\n    }\n\n    function getCurrentDay() public view returns (uint256) {\n        // solhint-disable-next-line not-rely-on-time\n        return now / 1 days;\n    }\n\n    function setTotalSpentPerDay(uint256 _day, uint256 _value) internal {\n        uintStorage[keccak256(abi.encodePacked(\"totalSpentPerDay\", _day))] = _value;\n    }\n\n    function setTotalExecutedPerDay(uint256 _day, uint256 _value) internal {\n        uintStorage[keccak256(abi.encodePacked(\"totalExecutedPerDay\", _day))] = _value;\n    }\n\n    function setDailyLimit(uint256 _dailyLimit) external onlyOwner {\n        require(_dailyLimit > maxPerTx() || _dailyLimit == 0);\n        uintStorage[DAILY_LIMIT] = _dailyLimit;\n        emit DailyLimitChanged(_dailyLimit);\n    }\n\n    function setExecutionDailyLimit(uint256 _dailyLimit) external onlyOwner {\n        require(_dailyLimit > executionMaxPerTx() || _dailyLimit == 0);\n        uintStorage[EXECUTION_DAILY_LIMIT] = _dailyLimit;\n        emit ExecutionDailyLimitChanged(_dailyLimit);\n    }\n\n    function setExecutionMaxPerTx(uint256 _maxPerTx) external onlyOwner {\n        require(_maxPerTx < executionDailyLimit());\n        uintStorage[EXECUTION_MAX_PER_TX] = _maxPerTx;\n    }\n\n    function setMaxPerTx(uint256 _maxPerTx) external onlyOwner {\n        require(_maxPerTx < dailyLimit());\n        uintStorage[MAX_PER_TX] = _maxPerTx;\n    }\n\n    function setMinPerTx(uint256 _minPerTx) external onlyOwner {\n        require(_minPerTx < dailyLimit() && _minPerTx < maxPerTx());\n        uintStorage[MIN_PER_TX] = _minPerTx;\n    }\n}\n",
  "sourcePath": "/contracts/contracts/upgradeable_contracts/BasicTokenBridge.sol",
  "compiler": {
    "name": "solc",
    "version": "0.4.24+commit.e67f0147.Emscripten.clang"
  },
  "schemaVersion": "3.0.9",
  "updatedAt": "2019-09-30T13:18:39.269Z",
  "devdoc": {
    "methods": {
      "owner()": {
        "details": "Tells the address of the owner",
        "return": "the address of the owner"
      },
      "transferOwnership(address)": {
        "details": "Allows the current owner to transfer control of the contract to a newOwner.",
        "params": {
          "newOwner": "the address to transfer ownership to."
        }
      }
    }
  },
  "userdoc": {
    "methods": {}
  }
}