{
  "contractName": "BlockReward",
  "abi": [
    {
      "constant": true,
      "inputs": [],
      "name": "mintedCoins",
      "outputs": [
        {
          "name": "",
          "type": "uint256"
        }
      ],
      "payable": false,
      "stateMutability": "view",
      "type": "function"
    },
    {
      "constant": true,
      "inputs": [],
      "name": "feeAmount",
      "outputs": [
        {
          "name": "",
          "type": "uint256"
        }
      ],
      "payable": false,
      "stateMutability": "view",
      "type": "function"
    },
    {
      "constant": true,
      "inputs": [
        {
          "name": "",
          "type": "uint256"
        }
      ],
      "name": "validatorList",
      "outputs": [
        {
          "name": "",
          "type": "address"
        }
      ],
      "payable": false,
      "stateMutability": "view",
      "type": "function"
    },
    {
      "constant": true,
      "inputs": [],
      "name": "token",
      "outputs": [
        {
          "name": "",
          "type": "address"
        }
      ],
      "payable": false,
      "stateMutability": "view",
      "type": "function"
    },
    {
      "payable": true,
      "stateMutability": "payable",
      "type": "fallback"
    },
    {
      "constant": false,
      "inputs": [
        {
          "name": "_amount",
          "type": "uint256"
        },
        {
          "name": "_receiver",
          "type": "address"
        }
      ],
      "name": "addExtraReceiver",
      "outputs": [],
      "payable": false,
      "stateMutability": "nonpayable",
      "type": "function"
    },
    {
      "constant": true,
      "inputs": [],
      "name": "mintedTotally",
      "outputs": [
        {
          "name": "",
          "type": "uint256"
        }
      ],
      "payable": false,
      "stateMutability": "view",
      "type": "function"
    },
    {
      "constant": true,
      "inputs": [
        {
          "name": "_bridge",
          "type": "address"
        }
      ],
      "name": "mintedTotallyByBridge",
      "outputs": [
        {
          "name": "",
          "type": "uint256"
        }
      ],
      "payable": false,
      "stateMutability": "view",
      "type": "function"
    },
    {
      "constant": false,
      "inputs": [
        {
          "name": "_amount",
          "type": "uint256"
        },
        {
          "name": "_bridge",
          "type": "address"
        }
      ],
      "name": "addMintedTotallyByBridge",
      "outputs": [],
      "payable": false,
      "stateMutability": "nonpayable",
      "type": "function"
    },
    {
      "constant": false,
      "inputs": [
        {
          "name": "_initialValidators",
          "type": "address[]"
        }
      ],
      "name": "setValidatorsRewards",
      "outputs": [],
      "payable": false,
      "stateMutability": "nonpayable",
      "type": "function"
    },
    {
      "constant": false,
      "inputs": [
        {
          "name": "_token",
          "type": "address"
        }
      ],
      "name": "setToken",
      "outputs": [],
      "payable": false,
      "stateMutability": "nonpayable",
      "type": "function"
    },
    {
      "constant": false,
      "inputs": [
        {
          "name": "_amount",
          "type": "uint256"
        }
      ],
      "name": "addBridgeNativeFeeReceivers",
      "outputs": [],
      "payable": false,
      "stateMutability": "nonpayable",
      "type": "function"
    },
    {
      "constant": false,
      "inputs": [
        {
          "name": "_amount",
          "type": "uint256"
        }
      ],
      "name": "addBridgeTokenFeeReceivers",
      "outputs": [],
      "payable": false,
      "stateMutability": "nonpayable",
      "type": "function"
    },
    {
      "constant": true,
      "inputs": [
        {
          "name": "_count",
          "type": "uint256"
        }
      ],
      "name": "random",
      "outputs": [
        {
          "name": "",
          "type": "uint256"
        }
      ],
      "payable": false,
      "stateMutability": "view",
      "type": "function"
    },
    {
      "constant": true,
      "inputs": [],
      "name": "blockRewardContractId",
      "outputs": [
        {
          "name": "",
          "type": "bytes4"
        }
      ],
      "payable": false,
      "stateMutability": "pure",
      "type": "function"
    }
  ],
  "bytecode": "0x60806040526000600155600060025534801561001a57600080fd5b50610b9e8061002a6000396000f3006080604052600436106100cf5763ffffffff7c0100000000000000000000000000000000000000000000000000000000600035041663128b265f81146100d1578063144fa6d7146100e95780631db021c01461010a5780632ee57f8d1461013157806345c651ed1461017b578063532513891461019b578063553a5c85146101b357806369e15404146101c8578063aa9fa274146101dd578063b048e05614610201578063b4a523e814610235578063b863bd3714610256578063d2f240a81461026e578063fc0c546a14610292575b005b3480156100dd57600080fd5b506100cf6004356102a7565b3480156100f557600080fd5b506100cf600160a060020a03600435166105bb565b34801561011657600080fd5b5061011f6105ea565b60408051918252519081900360200190f35b34801561013d57600080fd5b506101466105f0565b604080517fffffffff000000000000000000000000000000000000000000000000000000009092168252519081900360200190f35b34801561018757600080fd5b506100cf6004803560248101910135610626565b3480156101a757600080fd5b506100cf600435610637565b3480156101bf57600080fd5b5061011f610789565b3480156101d457600080fd5b5061011f61078f565b3480156101e957600080fd5b506100cf600435600160a060020a0360243516610795565b34801561020d57600080fd5b50610219600435610879565b60408051600160a060020a039092168252519081900360200190f35b34801561024157600080fd5b5061011f600160a060020a03600435166108a1565b34801561026257600080fd5b5061011f600435610964565b34801561027a57600080fd5b506100cf600435600160a060020a0360243516610989565b34801561029e57600080fd5b50610219610a63565b606080600080600080600080805490506040519080825280602002602001820160405280156102e0578160200160208202803883390190505b50600054604080518281526020808402820101909152919850801561030f578160200160208202803883390190505b50600289905560005490965061032c90899063ffffffff610a7216565b6000549095506103549061034790879063ffffffff610a8916565b899063ffffffff610ab216565b9250600083111561036e5760005461036b90610964565b93505b600091505b60005482101561041657508360008311801561038e57508184145b156103a6576103a3818463ffffffff610ac416565b90505b60008054839081106103b457fe5b6000918252602090912001548751600160a060020a03909116908890849081106103da57fe5b600160a060020a039092166020928302909101909101528551819087908490811061040157fe5b60209081029091010152600190910190610373565b6004546040805160248101918252895160648201528951600160a060020a03909316927fe2f764a300000000000000000000000000000000000000000000000000000000928b928b92829160448101916084909101906020808801910280838360005b83811015610491578181015183820152602001610479565b50505050905001838103825284818151815260200191508051906020019060200280838360005b838110156104d05781810151838201526020016104b8565b50505050905001945050505050604051602081830303815290604052907bffffffffffffffffffffffffffffffffffffffffffffffffffffffff19166020820180517bffffffffffffffffffffffffffffffffffffffffffffffffffffffff838183161783525050505060405180828051906020019080838360005b8381101561056457818101518382015260200161054c565b50505050905090810190601f1680156105915780820380516001836020036101000a031916815260200191505b509150506000604051808303816000865af191505015156105b157600080fd5b5050505050505050565b6004805473ffffffffffffffffffffffffffffffffffffffff1916600160a060020a0392909216919091179055565b60015481565b604080517f626c6f636b5265776172640000000000000000000000000000000000000000008152905190819003600b0190205b90565b61063260008383610ad1565b505050565b600281905560008054819081908190819061065990879063ffffffff610a7216565b6000549095506106819061067490879063ffffffff610a8916565b879063ffffffff610ab216565b9250600083111561069b5760005461069890610964565b93505b600091505b6000548210156107815750836000831180156106bb57508184145b156106d3576106d0818463ffffffff610ac416565b90505b30600160a060020a031663aa9fa274826000858154811015156106f257fe5b6000918252602082200154604080517c010000000000000000000000000000000000000000000000000000000063ffffffff87160281526004810194909452600160a060020a0390911660248401525160448084019382900301818387803b15801561075d57600080fd5b505af1158015610771573d6000803e3d6000fd5b5050600190930192506106a09050565b505050505050565b60015490565b60025481565b600082116107a257600080fd5b600160a060020a03811615156107b757600080fd5b6001546107ca908363ffffffff610ac416565b600155604080517fd2f240a8000000000000000000000000000000000000000000000000000000008152600481018490523360248201529051309163d2f240a891604480830192600092919082900301818387803b15801561082b57600080fd5b505af115801561083f573d6000803e3d6000fd5b5050604051600160a060020a038416925084156108fc02915084906000818181858888f19350505050158015610632573d6000803e3d6000fd5b600080548290811061088757fe5b600091825260209091200154600160a060020a0316905081565b604080517f6d696e746564546f74616c6c7942794272696467650000000000000000000000602080830191909152600160a060020a0384168284015282518083038401815260609092019283905281516000936003938593909282918401908083835b602083106109235780518252601f199092019160209182019101610904565b51815160209384036101000a600019018019909216911617905260408051929094018290039091208652850195909552929092016000205495945050505050565b60008161097843600163ffffffff610ab216565b4081151561098257fe5b0692915050565b604080517f6d696e746564546f74616c6c7942794272696467650000000000000000000000602080830191909152600160a060020a038416828401528251808303840181526060909201928390528151600093918291908401908083835b60208310610a065780518252601f1990920191602091820191016109e7565b51815160209384036101000a600019018019909216911617905260408051929094018290039091206000818152600390925292902054919450610a4f9350909150859050610ac4565b600091825260036020526040909120555050565b600454600160a060020a031681565b60008183811515610a7f57fe5b0490505b92915050565b6000821515610a9a57506000610a83565b50818102818382811515610aaa57fe5b0414610a8357fe5b600082821115610abe57fe5b50900390565b81810182811015610a8357fe5b828054828255906000526020600020908101928215610b31579160200282015b82811115610b3157815473ffffffffffffffffffffffffffffffffffffffff1916600160a060020a03843516178255602090920191600190910190610af1565b50610b3d929150610b41565b5090565b61062391905b80821115610b3d57805473ffffffffffffffffffffffffffffffffffffffff19168155600101610b475600a165627a7a72305820fa610b07ee904eef2e5602ca0dc835afe19b1ff5dc354ea559bc8c7aeaa8f9ea0029",
  "source": "pragma solidity 0.4.24;\n\nimport \"../interfaces/IBlockReward.sol\";\nimport \"openzeppelin-solidity/contracts/math/SafeMath.sol\";\n\ncontract BlockReward {\n    using SafeMath for uint256;\n\n    address[] public validatorList;\n    uint256 public mintedCoins = 0;\n    uint256 public feeAmount = 0;\n    mapping(bytes32 => uint256) internal uintStorage;\n    bytes32 internal constant MINTED_TOTALLY_BY_BRIDGE = \"mintedTotallyByBridge\";\n    bytes4 internal constant MINT_REWARD = 0xe2f764a3; // mintReward(address[],uint256[])\n    address public token;\n\n    function() external payable {\n        // solhint-disable-previous-line no-empty-blocks\n    }\n\n    function addExtraReceiver(uint256 _amount, address _receiver) external {\n        require(_amount > 0);\n        require(_receiver != address(0));\n        mintedCoins = mintedCoins.add(_amount);\n        this.addMintedTotallyByBridge(_amount, msg.sender);\n        _receiver.transfer(_amount);\n    }\n\n    function mintedTotally() public view returns (uint256) {\n        return mintedCoins;\n    }\n\n    function mintedTotallyByBridge(address _bridge) public view returns (uint256) {\n        return uintStorage[keccak256(abi.encode(MINTED_TOTALLY_BY_BRIDGE, _bridge))];\n    }\n\n    function addMintedTotallyByBridge(uint256 _amount, address _bridge) external {\n        bytes32 hash = keccak256(abi.encode(MINTED_TOTALLY_BY_BRIDGE, _bridge));\n        uintStorage[hash] = uintStorage[hash].add(_amount);\n    }\n\n    function setValidatorsRewards(address[] _initialValidators) external {\n        validatorList = _initialValidators;\n    }\n\n    function setToken(address _token) external {\n        token = _token;\n    }\n\n    function addBridgeNativeFeeReceivers(uint256 _amount) external {\n        feeAmount = _amount;\n        uint256 feePerValidator = _amount.div(validatorList.length);\n\n        uint256 randomValidatorIndex;\n        uint256 diff = _amount.sub(feePerValidator.mul(validatorList.length));\n        if (diff > 0) {\n            randomValidatorIndex = random(validatorList.length);\n        }\n\n        for (uint256 i = 0; i < validatorList.length; i++) {\n            uint256 feeToDistribute = feePerValidator;\n            if (diff > 0 && randomValidatorIndex == i) {\n                feeToDistribute = feeToDistribute.add(diff);\n            }\n            this.addExtraReceiver(feeToDistribute, validatorList[i]);\n        }\n    }\n\n    function addBridgeTokenFeeReceivers(uint256 _amount) external {\n        address[] memory receivers = new address[](validatorList.length);\n        uint256[] memory rewards = new uint256[](validatorList.length);\n        feeAmount = _amount;\n        uint256 feePerValidator = _amount.div(validatorList.length);\n\n        uint256 randomValidatorIndex;\n        uint256 diff = _amount.sub(feePerValidator.mul(validatorList.length));\n        if (diff > 0) {\n            randomValidatorIndex = random(validatorList.length);\n        }\n\n        for (uint256 i = 0; i < validatorList.length; i++) {\n            uint256 feeToDistribute = feePerValidator;\n            if (diff > 0 && randomValidatorIndex == i) {\n                feeToDistribute = feeToDistribute.add(diff);\n            }\n            receivers[i] = validatorList[i];\n            rewards[i] = feeToDistribute;\n        }\n\n        require(token.call(abi.encodeWithSelector(MINT_REWARD, receivers, rewards)));\n    }\n\n    function random(uint256 _count) public view returns (uint256) {\n        return uint256(blockhash(block.number.sub(1))) % _count;\n    }\n\n    function blockRewardContractId() public pure returns (bytes4) {\n        return bytes4(keccak256(\"blockReward\"));\n    }\n}\n",
  "sourcePath": "/contracts/contracts/mocks/BlockReward.sol",
  "compiler": {
    "name": "solc",
    "version": "0.4.24+commit.e67f0147.Emscripten.clang"
  },
  "schemaVersion": "3.0.9",
  "updatedAt": "2019-09-30T13:18:39.235Z",
  "devdoc": {
    "methods": {}
  },
  "userdoc": {
    "methods": {}
  }
}