{
  "contractName": "Box",
  "abi": [
    {
      "constant": true,
      "inputs": [],
      "name": "lastSender",
      "outputs": [
        {
          "name": "",
          "type": "address"
        }
      ],
      "payable": false,
      "stateMutability": "view",
      "type": "function"
    },
    {
      "constant": true,
      "inputs": [],
      "name": "value",
      "outputs": [
        {
          "name": "",
          "type": "uint256"
        }
      ],
      "payable": false,
      "stateMutability": "view",
      "type": "function"
    },
    {
      "constant": true,
      "inputs": [],
      "name": "txHash",
      "outputs": [
        {
          "name": "",
          "type": "bytes32"
        }
      ],
      "payable": false,
      "stateMutability": "view",
      "type": "function"
    },
    {
      "constant": false,
      "inputs": [
        {
          "name": "_value",
          "type": "uint256"
        }
      ],
      "name": "setValue",
      "outputs": [],
      "payable": false,
      "stateMutability": "nonpayable",
      "type": "function"
    },
    {
      "constant": false,
      "inputs": [],
      "name": "methodWillFail",
      "outputs": [],
      "payable": false,
      "stateMutability": "nonpayable",
      "type": "function"
    },
    {
      "constant": false,
      "inputs": [],
      "name": "methodOutOfGas",
      "outputs": [],
      "payable": false,
      "stateMutability": "nonpayable",
      "type": "function"
    },
    {
      "constant": false,
      "inputs": [
        {
          "name": "_bridge",
          "type": "address"
        },
        {
          "name": "_executor",
          "type": "address"
        }
      ],
      "name": "methodWillFailOnOtherNetwork",
      "outputs": [],
      "payable": false,
      "stateMutability": "nonpayable",
      "type": "function"
    },
    {
      "constant": false,
      "inputs": [
        {
          "name": "_bridge",
          "type": "address"
        },
        {
          "name": "_executor",
          "type": "address"
        }
      ],
      "name": "methodOutOfGasOnOtherNetwork",
      "outputs": [],
      "payable": false,
      "stateMutability": "nonpayable",
      "type": "function"
    },
    {
      "constant": false,
      "inputs": [
        {
          "name": "_i",
          "type": "uint256"
        },
        {
          "name": "_bridge",
          "type": "address"
        },
        {
          "name": "_executor",
          "type": "address"
        }
      ],
      "name": "setValueOnOtherNetwork",
      "outputs": [],
      "payable": false,
      "stateMutability": "nonpayable",
      "type": "function"
    }
  ],
  "bytecode": "0x608060405234801561001057600080fd5b506106ee806100206000396000f3006080604052600436106100985763ffffffff7c0100000000000000000000000000000000000000000000000000000000600035041663256fec88811461009d5780633b171858146100ce5780633fa4f245146100e5578063552410771461010c5780636b75f02b14610124578063b23332101461014e578063b2d2868814610175578063e6d003191461018a578063eb2c89a3146101b1575b600080fd5b3480156100a957600080fd5b506100b26101c6565b60408051600160a060020a039092168252519081900360200190f35b3480156100da57600080fd5b506100e3610098565b005b3480156100f157600080fd5b506100fa6101d5565b60408051918252519081900360200190f35b34801561011857600080fd5b506100e36004356101db565b34801561013057600080fd5b506100e3600435600160a060020a0360243581169060443516610315565b34801561015a57600080fd5b506100e3600160a060020a036004358116906024351661046c565b34801561018157600080fd5b506100e36105bb565b34801561019657600080fd5b506100e3600160a060020a03600435811690602435166105d9565b3480156101bd57600080fd5b506100fa6106bc565b600154600160a060020a031681565b60005481565b8060008190555033600160a060020a031663d67bdd256040518163ffffffff167c0100000000000000000000000000000000000000000000000000000000028152600401602060405180830381600087803b15801561023957600080fd5b505af115801561024d573d6000803e3d6000fd5b505050506040513d602081101561026357600080fd5b50516001805473ffffffffffffffffffffffffffffffffffffffff1916600160a060020a03909216919091179055604080517f0ac1c31300000000000000000000000000000000000000000000000000000000815290513391630ac1c3139160048083019260209291908290030181600087803b1580156102e357600080fd5b505af11580156102f7573d6000803e3d6000fd5b505050506040513d602081101561030d57600080fd5b505160025550565b604080516024808201869052825180830382018152604492830184526020810180517bffffffffffffffffffffffffffffffffffffffffffffffffffffffff167f5524107700000000000000000000000000000000000000000000000000000000908117825294517fdc8601b3000000000000000000000000000000000000000000000000000000008152600160a060020a03878116600483019081526202294f96830187905260609583019586528451606484015284519496918a169563dc8601b3958a9589956084019180838360005b838110156103ff5781810151838201526020016103e7565b50505050905090810190601f16801561042c5780820380516001836020036101000a031916815260200191505b50945050505050600060405180830381600087803b15801561044d57600080fd5b505af1158015610461573d6000803e3d6000fd5b505050505050505050565b604080516004808252602480830184526020830180517bffffffffffffffffffffffffffffffffffffffffffffffffffffffff167fb2d2868800000000000000000000000000000000000000000000000000000000908117825294517fdc8601b3000000000000000000000000000000000000000000000000000000008152600160a060020a038781169482019485526103e8604483018190526060948301948552865160648401528651918a169563dc8601b3958a95899593949293919260849092019180838360005b8381101561054f578181015183820152602001610537565b50505050905090810190601f16801561057c5780820380516001836020036101000a031916815260200191505b50945050505050600060405180830381600087803b15801561059d57600080fd5b505af11580156105b1573d6000803e3d6000fd5b5050505050505050565b6000805b6103e88110156105d557908101906001016105bf565b5050565b604080516004808252602480830184526020830180517bffffffffffffffffffffffffffffffffffffffffffffffffffffffff167f3b17185800000000000000000000000000000000000000000000000000000000908117825294517fdc8601b3000000000000000000000000000000000000000000000000000000008152600160a060020a038781169482019485526202294f604483018190526060948301948552865160648401528651918a169563dc8601b3958a95899593949293919260849092019180838360008381101561054f578181015183820152602001610537565b600254815600a165627a7a72305820dc9e745b758825c7e4531477d3aee69da1558d4b522d6888746f7d88b3db4c340029",
  "source": "pragma solidity 0.4.24;\n\nimport \"./IAMB.sol\";\n\ncontract Box {\n    uint256 public value;\n    address public lastSender;\n    bytes32 public txHash;\n\n    function setValue(uint256 _value) public {\n        value = _value;\n        lastSender = IAMB(msg.sender).messageSender();\n        txHash = IAMB(msg.sender).transactionHash();\n    }\n\n    function methodWillFail() public {\n        revert();\n    }\n\n    function methodOutOfGas() public {\n        uint256 a = 0;\n        for (uint256 i = 0; i < 1000; i++) {\n            a = a + i;\n        }\n    }\n\n    function methodWillFailOnOtherNetwork(address _bridge, address _executor) public {\n        bytes4 methodSelector = this.methodWillFail.selector;\n        bytes memory encodedData = abi.encodeWithSelector(methodSelector);\n        IAMB(_bridge).requireToPassMessage(_executor, encodedData, 141647);\n    }\n\n    function methodOutOfGasOnOtherNetwork(address _bridge, address _executor) public {\n        bytes4 methodSelector = this.methodOutOfGas.selector;\n        bytes memory encodedData = abi.encodeWithSelector(methodSelector);\n        IAMB(_bridge).requireToPassMessage(_executor, encodedData, 1000);\n    }\n\n    function setValueOnOtherNetwork(uint256 _i, address _bridge, address _executor) public {\n        bytes4 methodSelector = this.setValue.selector;\n        bytes memory encodedData = abi.encodeWithSelector(methodSelector, _i);\n        IAMB(_bridge).requireToPassMessage(_executor, encodedData, 141647);\n    }\n}\n",
  "sourcePath": "/contracts/contracts/mocks/Box.sol",
  "compiler": {
    "name": "solc",
    "version": "0.4.24+commit.e67f0147.Emscripten.clang"
  },
  "schemaVersion": "3.0.9",
  "updatedAt": "2019-09-30T13:18:39.239Z",
  "devdoc": {
    "methods": {}
  },
  "userdoc": {
    "methods": {}
  }
}