{
  "contractName": "ERC20Bridge",
  "abi": [
    {
      "constant": true,
      "inputs": [],
      "name": "erc20token",
      "outputs": [
        {
          "name": "",
          "type": "address"
        }
      ],
      "payable": false,
      "stateMutability": "view",
      "type": "function"
    }
  ],
  "bytecode": "0x608060405234801561001057600080fd5b5061017a806100206000396000f3006080604052600436106100405763ffffffff7c01000000000000000000000000000000000000000000000000000000006000350416631dcea4278114610045575b600080fd5b34801561005157600080fd5b5061005a610083565b6040805173ffffffffffffffffffffffffffffffffffffffff9092168252519081900360200190f35b60006002600060405160200180807f6572633230746f6b656e00000000000000000000000000000000000000000000815250600a0190506040516020818303038152906040526040518082805190602001908083835b602083106100f85780518252601f1990920191602091820191016100d9565b51815160209384036101000a600019018019909216911617905260408051929094018290039091208652850195909552929092016000205473ffffffffffffffffffffffffffffffffffffffff169493505050505600a165627a7a72305820a0687a4dd4d4a77d3b81c7b911a867f5f9869221500b4a45ee20eb708afc69c80029",
  "source": "pragma solidity 0.4.24;\n\nimport \"../upgradeability/EternalStorage.sol\";\nimport \"openzeppelin-solidity/contracts/token/ERC20/ERC20Basic.sol\";\nimport \"openzeppelin-solidity/contracts/AddressUtils.sol\";\n\ncontract ERC20Bridge is EternalStorage {\n    bytes32 internal constant ERC20_TOKEN = keccak256(abi.encodePacked(\"erc20token\"));\n\n    function erc20token() public view returns (ERC20Basic) {\n        return ERC20Basic(addressStorage[ERC20_TOKEN]);\n    }\n\n    function setErc20token(address _token) internal {\n        require(AddressUtils.isContract(_token));\n        addressStorage[ERC20_TOKEN] = _token;\n    }\n}\n",
  "sourcePath": "/contracts/contracts/upgradeable_contracts/ERC20Bridge.sol",
  "compiler": {
    "name": "solc",
    "version": "0.4.24+commit.e67f0147.Emscripten.clang"
  },
  "schemaVersion": "3.0.9",
  "updatedAt": "2019-09-30T13:18:39.277Z",
  "devdoc": {
    "methods": {}
  },
  "userdoc": {
    "methods": {}
  }
}