{
  "contractName": "FeeManagerErcToNative",
  "abi": [
    {
      "constant": false,
      "inputs": [
        {
          "name": "_fee",
          "type": "uint256"
        }
      ],
      "name": "distributeFeeFromAffirmation",
      "outputs": [],
      "payable": false,
      "stateMutability": "nonpayable",
      "type": "function"
    },
    {
      "constant": false,
      "inputs": [
        {
          "name": "_fee",
          "type": "uint256"
        }
      ],
      "name": "setForeignFee",
      "outputs": [],
      "payable": false,
      "stateMutability": "nonpayable",
      "type": "function"
    },
    {
      "constant": false,
      "inputs": [
        {
          "name": "_fee",
          "type": "uint256"
        }
      ],
      "name": "setHomeFee",
      "outputs": [],
      "payable": false,
      "stateMutability": "nonpayable",
      "type": "function"
    },
    {
      "constant": false,
      "inputs": [
        {
          "name": "_fee",
          "type": "uint256"
        }
      ],
      "name": "distributeFeeFromSignatures",
      "outputs": [],
      "payable": false,
      "stateMutability": "nonpayable",
      "type": "function"
    },
    {
      "constant": true,
      "inputs": [],
      "name": "REWARD_FOR_TRANSFERRING_FROM_FOREIGN",
      "outputs": [
        {
          "name": "",
          "type": "bytes32"
        }
      ],
      "payable": false,
      "stateMutability": "view",
      "type": "function"
    },
    {
      "constant": true,
      "inputs": [],
      "name": "REWARD_FOR_TRANSFERRING_FROM_HOME",
      "outputs": [
        {
          "name": "",
          "type": "bytes32"
        }
      ],
      "payable": false,
      "stateMutability": "view",
      "type": "function"
    },
    {
      "constant": true,
      "inputs": [],
      "name": "getHomeFee",
      "outputs": [
        {
          "name": "",
          "type": "uint256"
        }
      ],
      "payable": false,
      "stateMutability": "view",
      "type": "function"
    },
    {
      "constant": true,
      "inputs": [
        {
          "name": "_value",
          "type": "uint256"
        },
        {
          "name": "_recover",
          "type": "bool"
        },
        {
          "name": "_feeType",
          "type": "bytes32"
        }
      ],
      "name": "calculateFee",
      "outputs": [
        {
          "name": "",
          "type": "uint256"
        }
      ],
      "payable": false,
      "stateMutability": "view",
      "type": "function"
    },
    {
      "constant": true,
      "inputs": [],
      "name": "getForeignFee",
      "outputs": [
        {
          "name": "",
          "type": "uint256"
        }
      ],
      "payable": false,
      "stateMutability": "view",
      "type": "function"
    },
    {
      "anonymous": false,
      "inputs": [
        {
          "indexed": false,
          "name": "fee",
          "type": "uint256"
        }
      ],
      "name": "HomeFeeUpdated",
      "type": "event"
    },
    {
      "anonymous": false,
      "inputs": [
        {
          "indexed": false,
          "name": "fee",
          "type": "uint256"
        }
      ],
      "name": "ForeignFeeUpdated",
      "type": "event"
    },
    {
      "constant": true,
      "inputs": [],
      "name": "getFeeManagerMode",
      "outputs": [
        {
          "name": "",
          "type": "bytes4"
        }
      ],
      "payable": false,
      "stateMutability": "pure",
      "type": "function"
    },
    {
      "constant": true,
      "inputs": [
        {
          "name": "_value",
          "type": "uint256"
        }
      ],
      "name": "getAmountToBurn",
      "outputs": [
        {
          "name": "",
          "type": "uint256"
        }
      ],
      "payable": false,
      "stateMutability": "view",
      "type": "function"
    }
  ],
  "bytecode": "0x608060405234801561001057600080fd5b506110a2806100206000396000f3006080604052600436106100955763ffffffff60e060020a600035041663054d46ec811461009a578063286c4066146100b457806334a9e148146100cc57806359d78464146100e45780637587f576146100fc578063767e15c114610123578063916850e91461013857806394da17cd146101505780639862f26f14610165578063f2ba956114610185578063ffd66196146101cf575b600080fd5b3480156100a657600080fd5b506100b26004356101e4565b005b3480156100c057600080fd5b506100b260043561028c565b3480156100d857600080fd5b506100b2600435610388565b3480156100f057600080fd5b506100b2600435610484565b34801561010857600080fd5b506101116104f6565b60408051918252519081900360200190f35b34801561012f57600080fd5b50610111610595565b34801561014457600080fd5b50610111600435610603565b34801561015c57600080fd5b506101116106c6565b34801561017157600080fd5b50610111600435602435151560443561077a565b34801561019157600080fd5b5061019a6108a3565b604080517fffffffff000000000000000000000000000000000000000000000000000000009092168252519081900360200190f35b3480156101db57600080fd5b50610111610946565b6102898160405160200180807f7265776172642d7472616e7366657272696e672d66726f6d2d666f726569676e81525060200190506040516020818303038152906040526040518082805190602001908083835b602083106102575780518252601f199092019160209182019101610238565b6001836020036101000a03801982511681845116808217855250505050505090500191505060405180910390206109b9565b50565b80670de0b6b3a764000081106102a157600080fd5b8160008060405160200180807f666f726569676e46656500000000000000000000000000000000000000000000815250600a0190506040516020818303038152906040526040518082805190602001908083835b602083106103145780518252601f1990920191602091820191016102f5565b51815160001960209485036101000a019081169019919091161790526040805194909201849003909320865285830196909652509284016000209490945550815185815291517fa1bb1f345e2d0374ec182de8bb6e574798f6b4b3e89046d75c479d7d5620c2169350918290030190a15050565b80670de0b6b3a7640000811061039d57600080fd5b8160008060405160200180807f686f6d654665650000000000000000000000000000000000000000000000000081525060070190506040516020818303038152906040526040518082805190602001908083835b602083106104105780518252601f1990920191602091820191016103f1565b51815160001960209485036101000a019081169019919091161790526040805194909201849003909320865285830196909652509284016000209490945550815185815291517f64afb51b44460415972849f8c01723cf624c005cbadf1024a2d8568694b73ac19350918290030190a15050565b6102898160405160200180807f7265776172642d7472616e7366657272696e672d66726f6d2d686f6d65000000815250601d019050604051602081830303815290604052604051808280519060200190808383602083106102575780518252601f199092019160209182019101610238565b60405160200180807f7265776172642d7472616e7366657272696e672d66726f6d2d666f726569676e81525060200190506040516020818303038152906040526040518082805190602001908083835b602083106105655780518252601f199092019160209182019101610546565b6001836020036101000a038019825116818451168082178552505050505050905001915050604051809103902081565b60405160200180807f7265776172642d7472616e7366657272696e672d66726f6d2d686f6d65000000815250601d019050604051602081830303815290604052604051808280519060200190808383602083106105655780518252601f199092019160209182019101610546565b6000806106ad83600060405160200180807f686f6d652d66656500000000000000000000000000000000000000000000000081525060080190506040516020818303038152906040526040518082805190602001908083835b6020831061067b5780518252601f19909201916020918201910161065c565b6001836020036101000a038019825116818451168082178552505050505050905001915050604051809103902061077a565b90506106bf838263ffffffff610cd616565b9392505050565b600080600060405160200180807f686f6d654665650000000000000000000000000000000000000000000000000081525060070190506040516020818303038152906040526040518082805190602001908083835b6020831061073a5780518252601f19909201916020918201910161071b565b51815160209384036101000a6000190180199092169116179052604080519290940182900390912086528501959095529290920160002054949350505050565b60008060405160200180807f686f6d652d66656500000000000000000000000000000000000000000000000081525060080190506040516020818303038152906040526040518082805190602001908083835b602083106107ec5780518252601f1990920191602091820191016107cd565b5181516020939093036101000a600019018019909116921691909117905260405192018290039091208614925061082d91505057610828610946565b610835565b6108356106c6565b905083151561086d57610866670de0b6b3a764000061085a878463ffffffff610ced16565b9063ffffffff610d1616565b915061089b565b610898610888670de0b6b3a76400008363ffffffff610cd616565b61085a878463ffffffff610ced16565b91505b509392505050565b600060405160200180807f6d616e616765732d626f74682d646972656374696f6e7300000000000000000081525060170190506040516020818303038152906040526040518082805190602001908083835b602083106109145780518252601f1990920191602091820191016108f5565b6001836020036101000a0380198251168184511680821785525050505050509050019150506040518091039020905090565b600080600060405160200180807f666f726569676e46656500000000000000000000000000000000000000000000815250600a0190506040516020818303038152906040526040518082805190602001908083836020831061073a5780518252601f19909201916020918201910161071b565b6000806000806000806000806000806109d0610d2b565b9950600160a060020a03985089600160a060020a0316630f43a6776040518163ffffffff1660e060020a028152600401602060405180830381600087803b158015610a1a57600080fd5b505af1158015610a2e573d6000803e3d6000fd5b505050506040513d6020811015610a4457600080fd5b50519750610a588c8963ffffffff610d1616565b9650610a7a610a6d888a63ffffffff610ced16565b8d9063ffffffff610cd616565b94506000851115610a9157610a8e88610de9565b95505b89600160a060020a0316638d37052c8a6040518263ffffffff1660e060020a0281526004018082600160a060020a0316600160a060020a03168152602001915050602060405180830381600087803b158015610aec57600080fd5b505af1158015610b00573d6000803e3d6000fd5b505050506040513d6020811015610b1657600080fd5b50519350600160a060020a03808516908a1614801590610b3e5750600160a060020a03841615155b1515610b4957600080fd5b600092505b600160a060020a03848116908a1614610cc857869150600085118015610b7357508286145b15610b8b57610b88828663ffffffff610e0e16565b91505b89600160a060020a03166381b91174856040518263ffffffff1660e060020a0281526004018082600160a060020a0316600160a060020a03168152602001915050602060405180830381600087803b158015610be657600080fd5b505af1158015610bfa573d6000803e3d6000fd5b505050506040513d6020811015610c1057600080fd5b50519050610c1f81838d610e1b565b89600160a060020a0316638d37052c856040518263ffffffff1660e060020a0281526004018082600160a060020a0316600160a060020a03168152602001915050602060405180830381600087803b158015610c7a57600080fd5b505af1158015610c8e573d6000803e3d6000fd5b505050506040513d6020811015610ca457600080fd5b50519350600160a060020a0384161515610cbd57600080fd5b826001019250610b4e565b505050505050505050505050565b600082821115610ce257fe5b508082035b92915050565b6000821515610cfe57506000610ce7565b50818102818382811515610d0e57fe5b0414610ce757fe5b60008183811515610d2357fe5b049392505050565b60006002600060405160200180807f76616c696461746f72436f6e747261637400000000000000000000000000000081525060110190506040516020818303038152906040526040518082805190602001908083835b60208310610da05780518252601f199092019160209182019101610d81565b51815160209384036101000a6000190180199092169116179052604080519290940182900390912086528501959095529290920160002054600160a060020a0316949350505050565b600081610dfd43600163ffffffff610cd616565b40811515610e0757fe5b0692915050565b81810182811015610ce757fe5b60405160200180807f7265776172642d7472616e7366657272696e672d66726f6d2d666f726569676e81525060200190506040516020818303038152906040526040518082805190602001908083835b60208310610e8a5780518252601f199092019160209182019101610e6b565b5181516020939093036101000a600019018019909116921691909117905260405192018290039091208414159250610ece91505057610ec98383610edd565b610ed8565b610ed88383610f69565b505050565b6000610ee7610fd2565b905080600160a060020a031663aa9fa27483856040518363ffffffff1660e060020a0281526004018083815260200182600160a060020a0316600160a060020a0316815260200192505050600060405180830381600087803b158015610f4c57600080fd5b505af1158015610f60573d6000803e3d6000fd5b50505050505050565b604051600160a060020a0383169082156108fc029083906000818181858888f193505050501515610fce578082610f9e611046565b600160a060020a039091168152604051908190036020019082f080158015610fca573d6000803e3d6000fd5b5050505b5050565b60006002600060405160200180807f626c6f636b526577617264436f6e747261637400000000000000000000000000815250601301905060405160208183030381529060405260405180828051906020019080838360208310610da05780518252601f199092019160209182019101610d81565b604051602180611056833901905600608060405260405160208060218339810160405251600160a060020a038116ff00a165627a7a72305820496a28775d35ddf2e5ebfcb87614cf3b85c78ca152a0b52c01462d93274eac970029",
  "source": "pragma solidity 0.4.24;\n\nimport \"../../interfaces/IBlockReward.sol\";\nimport \"../Sacrifice.sol\";\nimport \"../ValidatorsFeeManager.sol\";\nimport \"../BlockRewardBridge.sol\";\n\ncontract FeeManagerErcToNative is ValidatorsFeeManager, BlockRewardBridge {\n    function getFeeManagerMode() external pure returns (bytes4) {\n        return bytes4(keccak256(abi.encodePacked(\"manages-both-directions\")));\n    }\n\n    function onAffirmationFeeDistribution(address _rewardAddress, uint256 _fee) internal {\n        IBlockReward blockReward = _blockRewardContract();\n        blockReward.addExtraReceiver(_fee, _rewardAddress);\n    }\n\n    function onSignatureFeeDistribution(address _rewardAddress, uint256 _fee) internal {\n        if (!_rewardAddress.send(_fee)) {\n            (new Sacrifice).value(_fee)(_rewardAddress);\n        }\n    }\n\n    function getAmountToBurn(uint256 _value) public view returns (uint256) {\n        uint256 fee = calculateFee(_value, false, HOME_FEE);\n        return _value.sub(fee);\n    }\n}\n",
  "sourcePath": "/contracts/contracts/upgradeable_contracts/erc20_to_native/FeeManagerErcToNative.sol",
  "compiler": {
    "name": "solc",
    "version": "0.4.24+commit.e67f0147.Emscripten.clang"
  },
  "schemaVersion": "3.0.9",
  "updatedAt": "2019-09-30T13:18:39.324Z",
  "devdoc": {
    "methods": {}
  },
  "userdoc": {
    "methods": {}
  }
}