{
  "contractName": "FeeManagerNativeToErcBothDirections",
  "abi": [
    {
      "constant": false,
      "inputs": [
        {
          "name": "_fee",
          "type": "uint256"
        }
      ],
      "name": "distributeFeeFromAffirmation",
      "outputs": [],
      "payable": false,
      "stateMutability": "nonpayable",
      "type": "function"
    },
    {
      "constant": false,
      "inputs": [
        {
          "name": "_fee",
          "type": "uint256"
        }
      ],
      "name": "setForeignFee",
      "outputs": [],
      "payable": false,
      "stateMutability": "nonpayable",
      "type": "function"
    },
    {
      "constant": false,
      "inputs": [
        {
          "name": "_fee",
          "type": "uint256"
        }
      ],
      "name": "setHomeFee",
      "outputs": [],
      "payable": false,
      "stateMutability": "nonpayable",
      "type": "function"
    },
    {
      "constant": false,
      "inputs": [
        {
          "name": "_fee",
          "type": "uint256"
        }
      ],
      "name": "distributeFeeFromSignatures",
      "outputs": [],
      "payable": false,
      "stateMutability": "nonpayable",
      "type": "function"
    },
    {
      "constant": true,
      "inputs": [],
      "name": "REWARD_FOR_TRANSFERRING_FROM_FOREIGN",
      "outputs": [
        {
          "name": "",
          "type": "bytes32"
        }
      ],
      "payable": false,
      "stateMutability": "view",
      "type": "function"
    },
    {
      "constant": true,
      "inputs": [],
      "name": "REWARD_FOR_TRANSFERRING_FROM_HOME",
      "outputs": [
        {
          "name": "",
          "type": "bytes32"
        }
      ],
      "payable": false,
      "stateMutability": "view",
      "type": "function"
    },
    {
      "constant": true,
      "inputs": [],
      "name": "getHomeFee",
      "outputs": [
        {
          "name": "",
          "type": "uint256"
        }
      ],
      "payable": false,
      "stateMutability": "view",
      "type": "function"
    },
    {
      "constant": true,
      "inputs": [
        {
          "name": "_value",
          "type": "uint256"
        },
        {
          "name": "_recover",
          "type": "bool"
        },
        {
          "name": "_feeType",
          "type": "bytes32"
        }
      ],
      "name": "calculateFee",
      "outputs": [
        {
          "name": "",
          "type": "uint256"
        }
      ],
      "payable": false,
      "stateMutability": "view",
      "type": "function"
    },
    {
      "constant": true,
      "inputs": [],
      "name": "getForeignFee",
      "outputs": [
        {
          "name": "",
          "type": "uint256"
        }
      ],
      "payable": false,
      "stateMutability": "view",
      "type": "function"
    },
    {
      "anonymous": false,
      "inputs": [
        {
          "indexed": false,
          "name": "fee",
          "type": "uint256"
        }
      ],
      "name": "HomeFeeUpdated",
      "type": "event"
    },
    {
      "anonymous": false,
      "inputs": [
        {
          "indexed": false,
          "name": "fee",
          "type": "uint256"
        }
      ],
      "name": "ForeignFeeUpdated",
      "type": "event"
    },
    {
      "constant": true,
      "inputs": [],
      "name": "getFeeManagerMode",
      "outputs": [
        {
          "name": "",
          "type": "bytes4"
        }
      ],
      "payable": false,
      "stateMutability": "pure",
      "type": "function"
    }
  ],
  "bytecode": "0x608060405234801561001057600080fd5b50610eca806100206000396000f30060806040526004361061008a5763ffffffff60e060020a600035041663054d46ec811461008f578063286c4066146100a957806334a9e148146100c157806359d78464146100d95780637587f576146100f1578063767e15c11461011857806394da17cd1461012d5780639862f26f14610142578063f2ba956114610162578063ffd66196146101ac575b600080fd5b34801561009b57600080fd5b506100a76004356101c1565b005b3480156100b557600080fd5b506100a7600435610269565b3480156100cd57600080fd5b506100a7600435610365565b3480156100e557600080fd5b506100a7600435610461565b3480156100fd57600080fd5b506101066104d3565b60408051918252519081900360200190f35b34801561012457600080fd5b50610106610572565b34801561013957600080fd5b506101066105e0565b34801561014e57600080fd5b506101066004356024351515604435610694565b34801561016e57600080fd5b506101776107bd565b604080517fffffffff000000000000000000000000000000000000000000000000000000009092168252519081900360200190f35b3480156101b857600080fd5b50610106610860565b6102668160405160200180807f7265776172642d7472616e7366657272696e672d66726f6d2d666f726569676e81525060200190506040516020818303038152906040526040518082805190602001908083835b602083106102345780518252601f199092019160209182019101610215565b6001836020036101000a03801982511681845116808217855250505050505090500191505060405180910390206108d3565b50565b80670de0b6b3a7640000811061027e57600080fd5b8160008060405160200180807f666f726569676e46656500000000000000000000000000000000000000000000815250600a0190506040516020818303038152906040526040518082805190602001908083835b602083106102f15780518252601f1990920191602091820191016102d2565b51815160001960209485036101000a019081169019919091161790526040805194909201849003909320865285830196909652509284016000209490945550815185815291517fa1bb1f345e2d0374ec182de8bb6e574798f6b4b3e89046d75c479d7d5620c2169350918290030190a15050565b80670de0b6b3a7640000811061037a57600080fd5b8160008060405160200180807f686f6d654665650000000000000000000000000000000000000000000000000081525060070190506040516020818303038152906040526040518082805190602001908083835b602083106103ed5780518252601f1990920191602091820191016103ce565b51815160001960209485036101000a019081169019919091161790526040805194909201849003909320865285830196909652509284016000209490945550815185815291517f64afb51b44460415972849f8c01723cf624c005cbadf1024a2d8568694b73ac19350918290030190a15050565b6102668160405160200180807f7265776172642d7472616e7366657272696e672d66726f6d2d686f6d65000000815250601d019050604051602081830303815290604052604051808280519060200190808383602083106102345780518252601f199092019160209182019101610215565b60405160200180807f7265776172642d7472616e7366657272696e672d66726f6d2d666f726569676e81525060200190506040516020818303038152906040526040518082805190602001908083835b602083106105425780518252601f199092019160209182019101610523565b6001836020036101000a038019825116818451168082178552505050505050905001915050604051809103902081565b60405160200180807f7265776172642d7472616e7366657272696e672d66726f6d2d686f6d65000000815250601d019050604051602081830303815290604052604051808280519060200190808383602083106105425780518252601f199092019160209182019101610523565b600080600060405160200180807f686f6d654665650000000000000000000000000000000000000000000000000081525060070190506040516020818303038152906040526040518082805190602001908083835b602083106106545780518252601f199092019160209182019101610635565b51815160209384036101000a6000190180199092169116179052604080519290940182900390912086528501959095529290920160002054949350505050565b60008060405160200180807f686f6d652d66656500000000000000000000000000000000000000000000000081525060080190506040516020818303038152906040526040518082805190602001908083835b602083106107065780518252601f1990920191602091820191016106e7565b5181516020939093036101000a600019018019909116921691909117905260405192018290039091208614925061074791505057610742610860565b61074f565b61074f6105e0565b905083151561078757610780670de0b6b3a7640000610774878463ffffffff610bf016565b9063ffffffff610c1f16565b91506107b5565b6107b26107a2670de0b6b3a76400008363ffffffff610c3416565b610774878463ffffffff610bf016565b91505b509392505050565b600060405160200180807f6d616e616765732d626f74682d646972656374696f6e7300000000000000000081525060170190506040516020818303038152906040526040518082805190602001908083835b6020831061082e5780518252601f19909201916020918201910161080f565b6001836020036101000a0380198251168184511680821785525050505050509050019150506040518091039020905090565b600080600060405160200180807f666f726569676e46656500000000000000000000000000000000000000000000815250600a019050604051602081830303815290604052604051808280519060200190808383602083106106545780518252601f199092019160209182019101610635565b6000806000806000806000806000806108ea610c46565b9950600160a060020a03985089600160a060020a0316630f43a6776040518163ffffffff1660e060020a028152600401602060405180830381600087803b15801561093457600080fd5b505af1158015610948573d6000803e3d6000fd5b505050506040513d602081101561095e57600080fd5b505197506109728c8963ffffffff610c1f16565b9650610994610987888a63ffffffff610bf016565b8d9063ffffffff610c3416565b945060008511156109ab576109a888610d04565b95505b89600160a060020a0316638d37052c8a6040518263ffffffff1660e060020a0281526004018082600160a060020a0316600160a060020a03168152602001915050602060405180830381600087803b158015610a0657600080fd5b505af1158015610a1a573d6000803e3d6000fd5b505050506040513d6020811015610a3057600080fd5b50519350600160a060020a03808516908a1614801590610a585750600160a060020a03841615155b1515610a6357600080fd5b600092505b600160a060020a03848116908a1614610be257869150600085118015610a8d57508286145b15610aa557610aa2828663ffffffff610d2916565b91505b89600160a060020a03166381b91174856040518263ffffffff1660e060020a0281526004018082600160a060020a0316600160a060020a03168152602001915050602060405180830381600087803b158015610b0057600080fd5b505af1158015610b14573d6000803e3d6000fd5b505050506040513d6020811015610b2a57600080fd5b50519050610b3981838d610d36565b89600160a060020a0316638d37052c856040518263ffffffff1660e060020a0281526004018082600160a060020a0316600160a060020a03168152602001915050602060405180830381600087803b158015610b9457600080fd5b505af1158015610ba8573d6000803e3d6000fd5b505050506040513d6020811015610bbe57600080fd5b50519350600160a060020a0384161515610bd757600080fd5b826001019250610a68565b505050505050505050505050565b6000821515610c0157506000610c19565b50818102818382811515610c1157fe5b0414610c1957fe5b92915050565b60008183811515610c2c57fe5b049392505050565b600082821115610c4057fe5b50900390565b60006002600060405160200180807f76616c696461746f72436f6e747261637400000000000000000000000000000081525060110190506040516020818303038152906040526040518082805190602001908083835b60208310610cbb5780518252601f199092019160209182019101610c9c565b51815160209384036101000a6000190180199092169116179052604080519290940182900390912086528501959095529290920160002054600160a060020a0316949350505050565b600081610d1843600163ffffffff610c3416565b40811515610d2257fe5b0692915050565b81810182811015610c1957fe5b60405160200180807f7265776172642d7472616e7366657272696e672d66726f6d2d666f726569676e81525060200190506040516020818303038152906040526040518082805190602001908083835b60208310610da55780518252601f199092019160209182019101610d86565b5181516020939093036101000a600019018019909116921691909117905260405192018290039091208414159250610de991505057610de48383610df8565b610df3565b610df38383610df8565b505050565b610e028282610e06565b5050565b604051600160a060020a0383169082156108fc029083906000818181858888f193505050501515610e02578082610e3b610e6e565b600160a060020a039091168152604051908190036020019082f080158015610e67573d6000803e3d6000fd5b5050505050565b604051602180610e7e833901905600608060405260405160208060218339810160405251600160a060020a038116ff00a165627a7a72305820a9b2da559d26cad3829f9070f4753745214e5955576655b54c910780379fbcac0029",
  "source": "pragma solidity 0.4.24;\n\nimport \"../Sacrifice.sol\";\nimport \"../ValidatorsFeeManager.sol\";\n\ncontract FeeManagerNativeToErcBothDirections is ValidatorsFeeManager {\n    function getFeeManagerMode() external pure returns (bytes4) {\n        return bytes4(keccak256(abi.encodePacked(\"manages-both-directions\")));\n    }\n\n    function onAffirmationFeeDistribution(address _rewardAddress, uint256 _fee) internal {\n        _sendReward(_rewardAddress, _fee);\n    }\n\n    function onSignatureFeeDistribution(address _rewardAddress, uint256 _fee) internal {\n        _sendReward(_rewardAddress, _fee);\n    }\n\n    function _sendReward(address _rewardAddress, uint256 _fee) internal {\n        if (!_rewardAddress.send(_fee)) {\n            (new Sacrifice).value(_fee)(_rewardAddress);\n        }\n    }\n}\n",
  "sourcePath": "/contracts/contracts/upgradeable_contracts/native_to_erc20/FeeManagerNativeToErcBothDirections.sol",
  "compiler": {
    "name": "solc",
    "version": "0.4.24+commit.e67f0147.Emscripten.clang"
  },
  "schemaVersion": "3.0.9",
  "updatedAt": "2019-09-30T13:18:39.347Z",
  "devdoc": {
    "methods": {}
  },
  "userdoc": {
    "methods": {}
  }
}