{
  "contractName": "ForeignBridgeNativeToErc",
  "abi": [
    {
      "constant": true,
      "inputs": [],
      "name": "erc677token",
      "outputs": [
        {
          "name": "",
          "type": "address"
        }
      ],
      "payable": false,
      "stateMutability": "view",
      "type": "function"
    },
    {
      "constant": true,
      "inputs": [
        {
          "name": "_txHash",
          "type": "bytes32"
        }
      ],
      "name": "relayedMessages",
      "outputs": [
        {
          "name": "",
          "type": "bool"
        }
      ],
      "payable": false,
      "stateMutability": "view",
      "type": "function"
    },
    {
      "constant": false,
      "inputs": [
        {
          "name": "vs",
          "type": "uint8[]"
        },
        {
          "name": "rs",
          "type": "bytes32[]"
        },
        {
          "name": "ss",
          "type": "bytes32[]"
        },
        {
          "name": "message",
          "type": "bytes"
        }
      ],
      "name": "executeSignatures",
      "outputs": [],
      "payable": false,
      "stateMutability": "nonpayable",
      "type": "function"
    },
    {
      "constant": true,
      "inputs": [
        {
          "name": "_day",
          "type": "uint256"
        }
      ],
      "name": "totalSpentPerDay",
      "outputs": [
        {
          "name": "",
          "type": "uint256"
        }
      ],
      "payable": false,
      "stateMutability": "view",
      "type": "function"
    },
    {
      "constant": false,
      "inputs": [
        {
          "name": "_fee",
          "type": "uint256"
        }
      ],
      "name": "setHomeFee",
      "outputs": [],
      "payable": false,
      "stateMutability": "nonpayable",
      "type": "function"
    },
    {
      "constant": true,
      "inputs": [],
      "name": "isInitialized",
      "outputs": [
        {
          "name": "",
          "type": "bool"
        }
      ],
      "payable": false,
      "stateMutability": "view",
      "type": "function"
    },
    {
      "constant": false,
      "inputs": [
        {
          "name": "_dailyLimit",
          "type": "uint256"
        }
      ],
      "name": "setExecutionDailyLimit",
      "outputs": [],
      "payable": false,
      "stateMutability": "nonpayable",
      "type": "function"
    },
    {
      "constant": true,
      "inputs": [],
      "name": "getCurrentDay",
      "outputs": [
        {
          "name": "",
          "type": "uint256"
        }
      ],
      "payable": false,
      "stateMutability": "view",
      "type": "function"
    },
    {
      "constant": true,
      "inputs": [],
      "name": "requiredBlockConfirmations",
      "outputs": [
        {
          "name": "",
          "type": "uint256"
        }
      ],
      "payable": false,
      "stateMutability": "view",
      "type": "function"
    },
    {
      "constant": true,
      "inputs": [],
      "name": "executionDailyLimit",
      "outputs": [
        {
          "name": "",
          "type": "uint256"
        }
      ],
      "payable": false,
      "stateMutability": "view",
      "type": "function"
    },
    {
      "constant": true,
      "inputs": [
        {
          "name": "_day",
          "type": "uint256"
        }
      ],
      "name": "totalExecutedPerDay",
      "outputs": [
        {
          "name": "",
          "type": "uint256"
        }
      ],
      "payable": false,
      "stateMutability": "view",
      "type": "function"
    },
    {
      "constant": false,
      "inputs": [
        {
          "name": "_feeManager",
          "type": "address"
        }
      ],
      "name": "setFeeManagerContract",
      "outputs": [],
      "payable": false,
      "stateMutability": "nonpayable",
      "type": "function"
    },
    {
      "constant": true,
      "inputs": [],
      "name": "dailyLimit",
      "outputs": [
        {
          "name": "",
          "type": "uint256"
        }
      ],
      "payable": false,
      "stateMutability": "view",
      "type": "function"
    },
    {
      "constant": false,
      "inputs": [
        {
          "name": "_token",
          "type": "address"
        },
        {
          "name": "_to",
          "type": "address"
        }
      ],
      "name": "claimTokens",
      "outputs": [],
      "payable": false,
      "stateMutability": "nonpayable",
      "type": "function"
    },
    {
      "constant": true,
      "inputs": [
        {
          "name": "_amount",
          "type": "uint256"
        }
      ],
      "name": "withinExecutionLimit",
      "outputs": [
        {
          "name": "",
          "type": "bool"
        }
      ],
      "payable": false,
      "stateMutability": "view",
      "type": "function"
    },
    {
      "constant": true,
      "inputs": [],
      "name": "executionMaxPerTx",
      "outputs": [
        {
          "name": "",
          "type": "uint256"
        }
      ],
      "payable": false,
      "stateMutability": "view",
      "type": "function"
    },
    {
      "constant": true,
      "inputs": [],
      "name": "requiredSignatures",
      "outputs": [
        {
          "name": "",
          "type": "uint256"
        }
      ],
      "payable": false,
      "stateMutability": "view",
      "type": "function"
    },
    {
      "constant": true,
      "inputs": [],
      "name": "owner",
      "outputs": [
        {
          "name": "",
          "type": "address"
        }
      ],
      "payable": false,
      "stateMutability": "view",
      "type": "function"
    },
    {
      "constant": true,
      "inputs": [],
      "name": "getHomeFee",
      "outputs": [
        {
          "name": "",
          "type": "uint256"
        }
      ],
      "payable": false,
      "stateMutability": "view",
      "type": "function"
    },
    {
      "constant": true,
      "inputs": [],
      "name": "validatorContract",
      "outputs": [
        {
          "name": "",
          "type": "address"
        }
      ],
      "payable": false,
      "stateMutability": "view",
      "type": "function"
    },
    {
      "constant": true,
      "inputs": [],
      "name": "deployedAtBlock",
      "outputs": [
        {
          "name": "",
          "type": "uint256"
        }
      ],
      "payable": false,
      "stateMutability": "view",
      "type": "function"
    },
    {
      "constant": true,
      "inputs": [],
      "name": "getBridgeInterfacesVersion",
      "outputs": [
        {
          "name": "major",
          "type": "uint64"
        },
        {
          "name": "minor",
          "type": "uint64"
        },
        {
          "name": "patch",
          "type": "uint64"
        }
      ],
      "payable": false,
      "stateMutability": "pure",
      "type": "function"
    },
    {
      "constant": false,
      "inputs": [
        {
          "name": "_minPerTx",
          "type": "uint256"
        }
      ],
      "name": "setMinPerTx",
      "outputs": [],
      "payable": false,
      "stateMutability": "nonpayable",
      "type": "function"
    },
    {
      "constant": false,
      "inputs": [
        {
          "name": "_from",
          "type": "address"
        },
        {
          "name": "_value",
          "type": "uint256"
        },
        {
          "name": "",
          "type": "bytes"
        }
      ],
      "name": "onTokenTransfer",
      "outputs": [
        {
          "name": "",
          "type": "bool"
        }
      ],
      "payable": false,
      "stateMutability": "nonpayable",
      "type": "function"
    },
    {
      "constant": false,
      "inputs": [
        {
          "name": "_blockConfirmations",
          "type": "uint256"
        }
      ],
      "name": "setRequiredBlockConfirmations",
      "outputs": [],
      "payable": false,
      "stateMutability": "nonpayable",
      "type": "function"
    },
    {
      "constant": false,
      "inputs": [
        {
          "name": "_dailyLimit",
          "type": "uint256"
        }
      ],
      "name": "setDailyLimit",
      "outputs": [],
      "payable": false,
      "stateMutability": "nonpayable",
      "type": "function"
    },
    {
      "constant": false,
      "inputs": [
        {
          "name": "_gasPrice",
          "type": "uint256"
        }
      ],
      "name": "setGasPrice",
      "outputs": [],
      "payable": false,
      "stateMutability": "nonpayable",
      "type": "function"
    },
    {
      "constant": false,
      "inputs": [
        {
          "name": "_maxPerTx",
          "type": "uint256"
        }
      ],
      "name": "setMaxPerTx",
      "outputs": [],
      "payable": false,
      "stateMutability": "nonpayable",
      "type": "function"
    },
    {
      "constant": true,
      "inputs": [],
      "name": "decimalShift",
      "outputs": [
        {
          "name": "",
          "type": "uint256"
        }
      ],
      "payable": false,
      "stateMutability": "view",
      "type": "function"
    },
    {
      "constant": true,
      "inputs": [],
      "name": "feeManagerContract",
      "outputs": [
        {
          "name": "",
          "type": "address"
        }
      ],
      "payable": false,
      "stateMutability": "view",
      "type": "function"
    },
    {
      "constant": true,
      "inputs": [],
      "name": "minPerTx",
      "outputs": [
        {
          "name": "",
          "type": "uint256"
        }
      ],
      "payable": false,
      "stateMutability": "view",
      "type": "function"
    },
    {
      "constant": true,
      "inputs": [
        {
          "name": "_amount",
          "type": "uint256"
        }
      ],
      "name": "withinLimit",
      "outputs": [
        {
          "name": "",
          "type": "bool"
        }
      ],
      "payable": false,
      "stateMutability": "view",
      "type": "function"
    },
    {
      "constant": false,
      "inputs": [
        {
          "name": "_maxPerTx",
          "type": "uint256"
        }
      ],
      "name": "setExecutionMaxPerTx",
      "outputs": [],
      "payable": false,
      "stateMutability": "nonpayable",
      "type": "function"
    },
    {
      "constant": true,
      "inputs": [],
      "name": "getFeeManagerMode",
      "outputs": [
        {
          "name": "",
          "type": "bytes4"
        }
      ],
      "payable": false,
      "stateMutability": "view",
      "type": "function"
    },
    {
      "constant": false,
      "inputs": [
        {
          "name": "newOwner",
          "type": "address"
        }
      ],
      "name": "transferOwnership",
      "outputs": [],
      "payable": false,
      "stateMutability": "nonpayable",
      "type": "function"
    },
    {
      "constant": true,
      "inputs": [],
      "name": "maxPerTx",
      "outputs": [
        {
          "name": "",
          "type": "uint256"
        }
      ],
      "payable": false,
      "stateMutability": "view",
      "type": "function"
    },
    {
      "constant": true,
      "inputs": [],
      "name": "gasPrice",
      "outputs": [
        {
          "name": "",
          "type": "uint256"
        }
      ],
      "payable": false,
      "stateMutability": "view",
      "type": "function"
    },
    {
      "anonymous": false,
      "inputs": [
        {
          "indexed": false,
          "name": "recipient",
          "type": "address"
        },
        {
          "indexed": false,
          "name": "value",
          "type": "uint256"
        }
      ],
      "name": "UserRequestForAffirmation",
      "type": "event"
    },
    {
      "anonymous": false,
      "inputs": [
        {
          "indexed": false,
          "name": "feeAmount",
          "type": "uint256"
        },
        {
          "indexed": true,
          "name": "transactionHash",
          "type": "bytes32"
        }
      ],
      "name": "FeeDistributedFromAffirmation",
      "type": "event"
    },
    {
      "anonymous": false,
      "inputs": [
        {
          "indexed": false,
          "name": "feeAmount",
          "type": "uint256"
        },
        {
          "indexed": true,
          "name": "transactionHash",
          "type": "bytes32"
        }
      ],
      "name": "FeeDistributedFromSignatures",
      "type": "event"
    },
    {
      "anonymous": false,
      "inputs": [
        {
          "indexed": false,
          "name": "recipient",
          "type": "address"
        },
        {
          "indexed": false,
          "name": "value",
          "type": "uint256"
        },
        {
          "indexed": false,
          "name": "transactionHash",
          "type": "bytes32"
        }
      ],
      "name": "RelayedMessage",
      "type": "event"
    },
    {
      "anonymous": false,
      "inputs": [
        {
          "indexed": false,
          "name": "newLimit",
          "type": "uint256"
        }
      ],
      "name": "DailyLimitChanged",
      "type": "event"
    },
    {
      "anonymous": false,
      "inputs": [
        {
          "indexed": false,
          "name": "newLimit",
          "type": "uint256"
        }
      ],
      "name": "ExecutionDailyLimitChanged",
      "type": "event"
    },
    {
      "anonymous": false,
      "inputs": [
        {
          "indexed": false,
          "name": "gasPrice",
          "type": "uint256"
        }
      ],
      "name": "GasPriceChanged",
      "type": "event"
    },
    {
      "anonymous": false,
      "inputs": [
        {
          "indexed": false,
          "name": "requiredBlockConfirmations",
          "type": "uint256"
        }
      ],
      "name": "RequiredBlockConfirmationChanged",
      "type": "event"
    },
    {
      "anonymous": false,
      "inputs": [
        {
          "indexed": false,
          "name": "previousOwner",
          "type": "address"
        },
        {
          "indexed": false,
          "name": "newOwner",
          "type": "address"
        }
      ],
      "name": "OwnershipTransferred",
      "type": "event"
    },
    {
      "constant": false,
      "inputs": [
        {
          "name": "_validatorContract",
          "type": "address"
        },
        {
          "name": "_erc677token",
          "type": "address"
        },
        {
          "name": "_dailyLimitMaxPerTxMinPerTxArray",
          "type": "uint256[]"
        },
        {
          "name": "_foreignGasPrice",
          "type": "uint256"
        },
        {
          "name": "_requiredBlockConfirmations",
          "type": "uint256"
        },
        {
          "name": "_homeDailyLimitHomeMaxPerTxArray",
          "type": "uint256[]"
        },
        {
          "name": "_owner",
          "type": "address"
        },
        {
          "name": "_decimalShift",
          "type": "uint256"
        }
      ],
      "name": "initialize",
      "outputs": [
        {
          "name": "",
          "type": "bool"
        }
      ],
      "payable": false,
      "stateMutability": "nonpayable",
      "type": "function"
    },
    {
      "constant": false,
      "inputs": [
        {
          "name": "_validatorContract",
          "type": "address"
        },
        {
          "name": "_erc677token",
          "type": "address"
        },
        {
          "name": "_dailyLimitMaxPerTxMinPerTxArray",
          "type": "uint256[]"
        },
        {
          "name": "_foreignGasPrice",
          "type": "uint256"
        },
        {
          "name": "_requiredBlockConfirmations",
          "type": "uint256"
        },
        {
          "name": "_homeDailyLimitHomeMaxPerTxArray",
          "type": "uint256[]"
        },
        {
          "name": "_owner",
          "type": "address"
        },
        {
          "name": "_feeManager",
          "type": "address"
        },
        {
          "name": "_homeFee",
          "type": "uint256"
        },
        {
          "name": "_decimalShift",
          "type": "uint256"
        }
      ],
      "name": "rewardableInitialize",
      "outputs": [
        {
          "name": "",
          "type": "bool"
        }
      ],
      "payable": false,
      "stateMutability": "nonpayable",
      "type": "function"
    },
    {
      "constant": true,
      "inputs": [],
      "name": "getBridgeMode",
      "outputs": [
        {
          "name": "_data",
          "type": "bytes4"
        }
      ],
      "payable": false,
      "stateMutability": "pure",
      "type": "function"
    },
    {
      "constant": false,
      "inputs": [
        {
          "name": "_token",
          "type": "address"
        },
        {
          "name": "_to",
          "type": "address"
        }
      ],
      "name": "claimTokensFromErc677",
      "outputs": [],
      "payable": false,
      "stateMutability": "nonpayable",
      "type": "function"
    }
  ],
  "bytecode": "0x608060405234801561001057600080fd5b50613fe6806100206000396000f3006080604052600436106101df5763ffffffff60e060020a60003504166318d8f9c981146101e457806321d800ec14610215578063232a2c1d146102415780632bd0bb051461028757806334a9e148146102b1578063392e53cd146102c95780633dd95d1b146102de5780633e6968b6146102f65780633f0a9f651461030b578063437764df1461032057806343b37dd3146103675780634fb3fef71461037c57806360756f7c1461039457806367eeba0c146103b557806369ffa08a146103ca578063879ce676146103f15780638aa1949a146104095780638d0680431461041e5780638da5cb5b146104335780639313dc431461044857806394da17cd1461046f57806399439089146104845780639a454b99146104995780639cb7595a146104ae578063a2a6ca27146104ef578063a4c0ed3614610507578063acf5c68914610538578063b20d30a914610550578063bf1fe42014610568578063bf740b6914610580578063c6f6f216146105dc578063dae5f0fd146105f4578063dbe03a8b14610609578063df25f3f01461061e578063ea9f496814610633578063f20151e11461064b578063f2ba956114610663578063f2fde38b14610678578063f968adbe14610699578063fc7b6aed146106ae578063fe173b97146106ff575b600080fd5b3480156101f057600080fd5b506101f9610714565b60408051600160a060020a039092168252519081900360200190f35b34801561022157600080fd5b5061022d6004356107d2565b604080519115158252519081900360200190f35b34801561024d57600080fd5b50610285602460048035828101929082013591813580830192908201359160443580830192908201359160643591820191013561089b565b005b34801561029357600080fd5b5061029f600435610a76565b60408051918252519081900360200190f35b3480156102bd57600080fd5b50610285600435610b33565b3480156102d557600080fd5b5061022d610bed565b3480156102ea57600080fd5b50610285600435610ca5565b34801561030257600080fd5b5061029f610dc5565b34801561031757600080fd5b5061029f610dce565b34801561032c57600080fd5b50610335610e82565b604080517bffffffffffffffffffffffffffffffffffffffffffffffffffffffff199092168252519081900360200190f35b34801561037357600080fd5b5061029f610f25565b34801561038857600080fd5b5061029f600435610f98565b3480156103a057600080fd5b50610285600160a060020a0360043516611013565b3480156103c157600080fd5b5061029f611131565b3480156103d657600080fd5b50610285600160a060020a03600435811690602435166111a4565b3480156103fd57600080fd5b5061022d600435611247565b34801561041557600080fd5b5061029f611291565b34801561042a57600080fd5b5061029f611304565b34801561043f57600080fd5b506101f961137c565b34801561045457600080fd5b50610285600160a060020a03600435811690602435166113f0565b34801561047b57600080fd5b5061029f6114ff565b34801561049057600080fd5b506101f9611598565b3480156104a557600080fd5b5061029f61160c565b3480156104ba57600080fd5b506104c361167f565b6040805167ffffffffffffffff9485168152928416602084015292168183015290519081900360600190f35b3480156104fb57600080fd5b5061028560043561168a565b34801561051357600080fd5b5061022d60048035600160a060020a0316906024803591604435918201910135611781565b34801561054457600080fd5b506102856004356117f2565b34801561055c57600080fd5b50610285600435611901565b34801561057457600080fd5b50610285600435611a21565b34801561058c57600080fd5b5061022d60048035600160a060020a039081169160248035831692604435808301939081013592606435926084359260a4359283019201359060c43581169060e435166101043561012435611b30565b3480156105e857600080fd5b50610285600435611d0c565b34801561060057600080fd5b5061029f611dad565b34801561061557600080fd5b506101f9611e20565b34801561062a57600080fd5b5061029f611e94565b34801561063f57600080fd5b5061022d600435611f07565b34801561065757600080fd5b50610285600435611f52565b34801561066f57600080fd5b50610335611ff3565b34801561068457600080fd5b50610285600160a060020a036004351661206a565b3480156106a557600080fd5b5061029f6120a4565b3480156106ba57600080fd5b5061022d60048035600160a060020a039081169160248035831692604435808301939081013592606435926084359260a4359283019201359060c4351660e435612117565b34801561070b57600080fd5b5061029f6121a6565b60006002600060405160200180807f657263363737746f6b656e000000000000000000000000000000000000000000815250600b0190506040516020818303038152906040526040518082805190602001908083835b602083106107895780518252601f19909201916020918201910161076a565b51815160209384036101000a6000190180199092169116179052604080519290940182900390912086528501959095529290920160002054600160a060020a0316949350505050565b6000600460008360405160200180807f72656c617965644d657373616765730000000000000000000000000000000000815250600f0182600019166000191681526020019150506040516020818303038152906040526040518082805190602001908083835b602083106108575780518252601f199092019160209182019101610838565b51815160209384036101000a600019018019909216911617905260408051929094018290039091208652850195909552929092016000205460ff1695945050505050565b60008060008061097586868080601f0160208091040260200160405190810160405280939291908181526020018383808284378201915050505050508d8d808060200260200160405190810160405280939291908181526020018383602002808284378201915050505050508c8c808060200260200160405190810160405280939291908181526020018383602002808284378201915050505050508b8b808060200260200160405190810160405280939291908181526020018383602002808284375061096e94506115989350505050565b6000612219565b6109ae86868080601f01602080910402602001604051908101604052809392919081815260200183838082843750612498945050505050565b929650909450925090506109c183611247565b15610a5d57600160a060020a03811630146109db57600080fd5b6109e4826107d2565b156109ee57600080fd5b6109f98260016124d3565b610a048484846125a5565b1515610a0f57600080fd5b60408051600160a060020a03861681526020810185905280820184905290517f4ab7d581336d92edbea22636a613e8e76c99ac7f91137c1523db38dbfb3bf3299181900360600190a1610a68565b610a688484846101df565b505050505050505050505050565b60008060008360405160200180807f746f74616c5370656e74506572446179000000000000000000000000000000008152506010018281526020019150506040516020818303038152906040526040518082805190602001908083835b60208310610af25780518252601f199092019160209182019101610ad3565b51815160209384036101000a600019018019909216911617905260408051929094018290039091208652850195909552929092016000205495945050505050565b610b3b61137c565b600160a060020a03163314610b4f57600080fd5b610bea610b5a611e20565b826040516020018080600080516020613f9b83398151915281525060080190506040516020818303038152906040526040518082805190602001908083835b60208310610bb85780518252601f199092019160209182019101610b99565b6001836020036101000a038019825116818451168082178552505050505050905001915050604051809103902061275d565b50565b60006004600060405160200180807f6973496e697469616c697a656400000000000000000000000000000000000000815250600d0190506040516020818303038152906040526040518082805190602001908083835b60208310610c625780518252601f199092019160209182019101610c43565b51815160209384036101000a600019018019909216911617905260408051929094018290039091208652850195909552929092016000205460ff16949350505050565b610cad61137c565b600160a060020a03163314610cc157600080fd5b610cc9611291565b811180610cd4575080155b1515610cdf57600080fd5b8060008060405160200180807f657865637574696f6e4461696c794c696d69740000000000000000000000000081525060130190506040516020818303038152906040526040518082805190602001908083835b60208310610d525780518252601f199092019160209182019101610d33565b51815160001960209485036101000a019081169019919091161790526040805194909201849003909320865285830196909652509284016000209490945550815184815291517f9bebf928b90863f24cc31f726a3a7545efd409f1dcf552301b1ee3710da70d3b9350918290030190a150565b62015180420490565b600080600060405160200180807f7265717569726564426c6f636b436f6e6669726d6174696f6e73000000000000815250601a0190506040516020818303038152906040526040518082805190602001908083835b60208310610e425780518252601f199092019160209182019101610e23565b51815160209384036101000a6000190180199092169116179052604080519290940182900390912086528501959095529290920160002054949350505050565b600060405160200180807f6e61746976652d746f2d6572632d636f7265000000000000000000000000000081525060120190506040516020818303038152906040526040518082805190602001908083835b60208310610ef35780518252601f199092019160209182019101610ed4565b6001836020036101000a0380198251168184511680821785525050505050509050019150506040518091039020905090565b600080600060405160200180807f657865637574696f6e4461696c794c696d697400000000000000000000000000815250601301905060405160208183030381529060405260405180828051906020019080838360208310610e425780518252601f199092019160209182019101610e23565b60008060008360405160200180807f746f74616c45786563757465645065724461790000000000000000000000000081525060130182815260200191505060405160208183030381529060405260405180828051906020019080838360208310610af25780518252601f199092019160209182019101610ad3565b61101b61137c565b600160a060020a0316331461102f57600080fd5b600160a060020a038116158061104957506110498161290f565b151561105457600080fd5b806002600060405160200180807f6665654d616e61676572436f6e7472616374000000000000000000000000000081525060120190506040516020818303038152906040526040518082805190602001908083835b602083106110c85780518252601f1990920191602091820191016110a9565b51815160209384036101000a60001901801990921691161790526040805192909401829003909120865285019590955292909201600020805473ffffffffffffffffffffffffffffffffffffffff1916600160a060020a03959095169490941790935550505050565b600080600060405160200180807f6461696c794c696d697400000000000000000000000000000000000000000000815250600a01905060405160208183030381529060405260405180828051906020019080838360208310610e425780518252601f199092019160209182019101610e23565b30600160a060020a0316636fde82026040518163ffffffff1660e060020a028152600401602060405180830381600087803b1580156111e257600080fd5b505af11580156111f6573d6000803e3d6000fd5b505050506040513d602081101561120c57600080fd5b5051600160a060020a0316331461122257600080fd5b80600160a060020a038116151561123857600080fd5b6112428383612917565b505050565b60008061126a8361125e611259610dc5565b610f98565b9063ffffffff61294316565b905080611275610f25565b1015801561128a5750611286611291565b8311155b9392505050565b600080600060405160200180807f657865637574696f6e4d61785065725478000000000000000000000000000000815250601101905060405160208183030381529060405260405180828051906020019080838360208310610e425780518252601f199092019160209182019101610e23565b600061130e611598565b600160a060020a0316638d0680436040518163ffffffff1660e060020a028152600401602060405180830381600087803b15801561134b57600080fd5b505af115801561135f573d6000803e3d6000fd5b505050506040513d602081101561137557600080fd5b5051905090565b60006002600060405160200180807f6f776e65720000000000000000000000000000000000000000000000000000008152506005019050604051602081830303815290604052604051808280519060200190808383602083106107895780518252601f19909201916020918201910161076a565b30600160a060020a0316636fde82026040518163ffffffff1660e060020a028152600401602060405180830381600087803b15801561142e57600080fd5b505af1158015611442573d6000803e3d6000fd5b505050506040513d602081101561145857600080fd5b5051600160a060020a0316331461146e57600080fd5b611476610714565b604080517f69ffa08a000000000000000000000000000000000000000000000000000000008152600160a060020a0385811660048301528481166024830152915192909116916369ffa08a9160448082019260009290919082900301818387803b1580156114e357600080fd5b505af11580156114f7573d6000803e3d6000fd5b505050505050565b60006115936040516020018080600080516020613f9b83398151915281525060080190506040516020818303038152906040526040518082805190602001908083835b602083106115615780518252601f199092019160209182019101611542565b6001836020036101000a0380198251168184511680821785525050505050509050019150506040518091039020612956565b905090565b60006002600060405160200180807f76616c696461746f72436f6e74726163740000000000000000000000000000008152506011019050604051602081830303815290604052604051808280519060200190808383602083106107895780518252601f19909201916020918201910161076a565b600080600060405160200180807f6465706c6f7965644174426c6f636b0000000000000000000000000000000000815250600f01905060405160208183030381529060405260405180828051906020019080838360208310610e425780518252601f199092019160209182019101610e23565b600260036000909192565b61169261137c565b600160a060020a031633146116a657600080fd5b6116ae611131565b811080156116c257506116bf6120a4565b81105b15156116cd57600080fd5b8060008060405160200180807f6d696e506572547800000000000000000000000000000000000000000000000081525060080190506040516020818303038152906040526040518082805190602001908083835b602083106117405780518252601f199092019160209182019101611721565b51815160209384036101000a600019018019909216911617905260408051929094018290039091208652850195909552929092016000209390935550505050565b60008061178c610714565b905033600160a060020a038216146117a357600080fd5b6117ac85611f07565b15156117b757600080fd5b6117db6117c2610dc5565b6117d68761125e6117d1610dc5565b610a76565b612aae565b6117e6818787612b6b565b50600195945050505050565b6117fa61137c565b600160a060020a0316331461180e57600080fd5b6000811161181b57600080fd5b8060008060405160200180807f7265717569726564426c6f636b436f6e6669726d6174696f6e73000000000000815250601a0190506040516020818303038152906040526040518082805190602001908083835b6020831061188e5780518252601f19909201916020918201910161186f565b51815160001960209485036101000a019081169019919091161790526040805194909201849003909320865285830196909652509284016000209490945550815184815291517f4fb76205cd57c896b21511d2114137d8e901b4ccd659e1a0f97d6306795264fb9350918290030190a150565b61190961137c565b600160a060020a0316331461191d57600080fd5b6119256120a4565b811180611930575080155b151561193b57600080fd5b8060008060405160200180807f6461696c794c696d697400000000000000000000000000000000000000000000815250600a0190506040516020818303038152906040526040518082805190602001908083835b602083106119ae5780518252601f19909201916020918201910161198f565b51815160001960209485036101000a019081169019919091161790526040805194909201849003909320865285830196909652509284016000209490945550815184815291517fad4123ae17c414d9c6d2fec478b402e6b01856cc250fd01fbfd252fda0089d3c9350918290030190a150565b611a2961137c565b600160a060020a03163314611a3d57600080fd5b60008111611a4a57600080fd5b8060008060405160200180807f676173507269636500000000000000000000000000000000000000000000000081525060080190506040516020818303038152906040526040518082805190602001908083835b60208310611abd5780518252601f199092019160209182019101611a9e565b51815160001960209485036101000a019081169019919091161790526040805194909201849003909320865285830196909652509284016000209490945550815184815291517f52264b89e0fceafb26e79fd49ef8a366eb6297483bf4035b027f0c99a7ad512e9350918290030190a150565b6000611ba08d8d8d8d808060200260200160405190810160405280939291908181526020018383602002808284378201915050505050508c8c8c8c808060200260200160405190810160405280939291908181526020018383602002808284378201915050505050508b89612bd6565b611ba98461290f565b1515611bb457600080fd5b836002600060405160200180807f6665654d616e61676572436f6e7472616374000000000000000000000000000081525060120190506040516020818303038152906040526040518082805190602001908083835b60208310611c285780518252601f199092019160209182019101611c09565b51815160209384036101000a6000190180199092169116179052604080519290940182900390912086528581019690965250928301600020805473ffffffffffffffffffffffffffffffffffffffff1916600160a060020a039690961695909517909455508051600080516020613f9b83398151915281840152815160088183030181526028909101918290528051611ceb94508893889391829184810191908190849084908310610bb85780518252601f199092019160209182019101610b99565b611cf3613597565b611cfb610bed565b9d9c50505050505050505050505050565b611d1461137c565b600160a060020a03163314611d2857600080fd5b611d30611131565b8110611d3b57600080fd5b8060008060405160200180807f6d617850657254780000000000000000000000000000000000000000000000008152506008019050604051602081830303815290604052604051808280519060200190808383602083106117405780518252601f199092019160209182019101611721565b600080600060405160200180807f646563696d616c53686966740000000000000000000000000000000000000000815250600c01905060405160208183030381529060405260405180828051906020019080838360208310610e425780518252601f199092019160209182019101610e23565b60006002600060405160200180807f6665654d616e61676572436f6e747261637400000000000000000000000000008152506012019050604051602081830303815290604052604051808280519060200190808383602083106107895780518252601f19909201916020918201910161076a565b600080600060405160200180807f6d696e5065725478000000000000000000000000000000000000000000000000815250600801905060405160208183030381529060405260405180828051906020019080838360208310610e425780518252601f199092019160209182019101610e23565b600080611f198361125e6117d1610dc5565b905080611f24611131565b10158015611f395750611f356120a4565b8311155b801561128a5750611f48611e94565b9092101592915050565b611f5a61137c565b600160a060020a03163314611f6e57600080fd5b611f76610f25565b8110611f8157600080fd5b8060008060405160200180807f657865637574696f6e4d617850657254780000000000000000000000000000008152506011019050604051602081830303815290604052604051808280519060200190808383602083106117405780518252601f199092019160209182019101611721565b604080516004815260248101909152602081018051600160e060020a03167ff2ba956100000000000000000000000000000000000000000000000000000000179052600090819081612043611e20565b9050600460008351602085016000855af260005193508080156101df575092949350505050565b61207261137c565b600160a060020a0316331461208657600080fd5b600160a060020a038116151561209b57600080fd5b610bea81613658565b600080600060405160200180807f6d61785065725478000000000000000000000000000000000000000000000000815250600801905060405160208183030381529060405260405180828051906020019080838360208310610e425780518252601f199092019160209182019101610e23565b60006121878b8b8b8b808060200260200160405190810160405280939291908181526020018383602002808284378201915050505050508a8a8a8a808060200260200160405190810160405280939291908181526020018383602002808284378201915050505050508989612bd6565b61218f613597565b612197610bed565b9b9a5050505050505050505050565b600080600060405160200180807f6761735072696365000000000000000000000000000000000000000000000000815250600801905060405160208183030381529060405260405180828051906020019080838360208310610e425780518252601f199092019160209182019101610e23565b6000806060600080858061223a57508515801561223a575061223a8b613716565b151561224557600080fd5b86600160a060020a0316638d0680436040518163ffffffff1660e060020a028152600401602060405180830381600087803b15801561228357600080fd5b505af1158015612297573d6000803e3d6000fd5b505050506040513d60208110156122ad57600080fd5b50518a519095508511156122c057600080fd5b6122ca8b8761372a565b9350846040519080825280602002602001820160405280156122f6578160200160208202803883390190505b509250600091505b8482101561248b576001848b8481518110151561231757fe5b906020019060200201518b8581518110151561232f57fe5b906020019060200201518b8681518110151561234757fe5b60209081029091018101516040805160008082528185018084529790975260ff9095168582015260608501939093526080840152905160a0808401949293601f19830193908390039091019190865af11580156123a8573d6000803e3d6000fd5b50505060206040510351905086600160a060020a031663facd743b826040518263ffffffff1660e060020a0281526004018082600160a060020a0316600160a060020a03168152602001915050602060405180830381600087803b15801561240f57600080fd5b505af1158015612423573d6000803e3d6000fd5b505050506040513d602081101561243957600080fd5b5051151561244657600080fd5b6124508382613944565b1561245a57600080fd5b80838381518110151561246957fe5b600160a060020a039092166020928302909101909101526001909101906122fe565b5050505050505050505050565b6000806000806124a785613716565b15156124b257600080fd5b50505050601481015160348201516054830151606890930151919390929190565b80600460008460405160200180807f72656c617965644d657373616765730000000000000000000000000000000000815250600f0182600019166000191681526020019150506040516020818303038152906040526040518082805190602001908083835b602083106125575780518252601f199092019160209182019101612538565b51815160209384036101000a60001901801990921691161790526040805192909401829003909120865285019590955292909201600020805460ff1916941515949094179093555050505050565b6000806000806125ca6125b6610dc5565b6125c58861125e611259610dc5565b61399f565b6125e56125d5611dad565b8790600a0a63ffffffff613a1916565b92506125ef611e20565b9150600160a060020a038216156126bc57612696836000846040516020018080600080516020613f9b83398151915281525060080190506040516020818303038152906040526040518082805190602001908083835b602083106126645780518252601f199092019160209182019101612645565b6001836020036101000a0380198251168184511680821785525050505050509050019150506040518091039020613a2e565b905080156126bc576126a9818387613ab9565b6126b9838263ffffffff613bbe16565b92505b6126c4610714565b600160a060020a03166340c10f1988856040518363ffffffff1660e060020a0281526004018083600160a060020a0316600160a060020a0316815260200182815260200192505050602060405180830381600087803b15801561272657600080fd5b505af115801561273a573d6000803e3d6000fd5b505050506040513d602081101561275057600080fd5b5051979650505050505050565b60006040516020018080600080516020613f9b83398151915281525060080190506040516020818303038152906040526040518082805190602001908083835b602083106127bc5780518252601f19909201916020918201910161279d565b5181516020939093036101000a6000190180199091169216919091179052604051920182900390912085149250612816915050577f286c406600000000000000000000000000000000000000000000000000000000612838565b7f34a9e148000000000000000000000000000000000000000000000000000000005b6040805160248082018790528251808303909101815260449091018252602081018051600160e060020a03167bffffffffffffffffffffffffffffffffffffffffffffffffffffffff19851617815291518151939450600160a060020a038816939192909182919080838360005b838110156128be5781810151838201526020016128a6565b50505050905090810190601f1680156128eb5780820380516001836020036101000a031916815260200191505b50915050600060405180830381855af4915050151561290957600080fd5b50505050565b6000903b1190565b600160a060020a03821615156129355761293081613bd0565b61293f565b61293f8282613c3b565b5050565b8181018281101561295057fe5b92915050565b6000806000806060612966611e20565b92506040516020018080600080516020613f9b83398151915281525060080190506040516020818303038152906040526040518082805190602001908083835b602083106129c55780518252601f1990920191602091820191016129a6565b5181516020939093036101000a6000190180199091169216919091179052604051920182900390912089149250612a1f915050577fffd6619600000000000000000000000000000000000000000000000000000000612a41565b7f94da17cd000000000000000000000000000000000000000000000000000000005b60408051600481526024810190915260208082018051600160e060020a03167bffffffffffffffffffffffffffffffffffffffffffffffffffffffff19851617815282519395509193509160009182875af260005194508080156101df5750508394505b50505050919050565b806000808460405160200180807f746f74616c5370656e74506572446179000000000000000000000000000000008152506010018281526020019150506040516020818303038152906040526040518082805190602001908083835b60208310612b295780518252601f199092019160209182019101612b0a565b51815160209384036101000a60001901801990921691161790526040805192909401829003909120865285019590955292909201600020939093555050505050565b82600160a060020a03166342966c68826040518263ffffffff1660e060020a02815260040180828152602001915050600060405180830381600087803b158015612bb457600080fd5b505af1158015612bc8573d6000803e3d6000fd5b505050506112428282613cd9565b612bde610bed565b15612be857600080fd5b612bf18861290f565b1515612bfc57600080fd5b6000866002815181101515612c0d57fe5b90602001906020020151118015612c535750856002815181101515612c2e57fe5b90602001906020020151866001815181101515612c4757fe5b90602001906020020151115b8015612c8e5750856001815181101515612c6957fe5b90602001906020020151866000815181101515612c8257fe5b90602001906020020151115b1515612c9957600080fd5b60008411612ca657600080fd5b60008511612cb357600080fd5b826000815181101515612cc257fe5b90602001906020020151836001815181101515612cdb57fe5b6020908102909101015110612cef57600080fd5b600160a060020a0382161515612d0457600080fd5b876002600060405160200180807f76616c696461746f72436f6e747261637400000000000000000000000000000081525060110190506040516020818303038152906040526040518082805190602001908083835b60208310612d785780518252601f199092019160209182019101612d59565b51815160209384036101000a60001901801990921691161790526040805192909401829003909120865285019590955292909201600020805473ffffffffffffffffffffffffffffffffffffffff1916600160a060020a03959095169490941790935550612de99150889050613d21565b856000815181101515612df857fe5b9060200190602002015160008060405160200180807f6461696c794c696d697400000000000000000000000000000000000000000000815250600a0190506040516020818303038152906040526040518082805190602001908083835b60208310612e745780518252601f199092019160209182019101612e55565b51815160209384036101000a6000190180199092169116179052604080519290940182900390912086528581019690965250928301600090812095909555505080517f6465706c6f7965644174426c6f636b0000000000000000000000000000000000818401528151600f818303018152602f90910191829052805143949384939182918401908083835b60208310612f1e5780518252601f199092019160209182019101612eff565b51815160209384036101000a6000190180199092169116179052604080519290940182900390912086528501959095529290920160002093909355505086518791506001908110612f6b57fe5b9060200190602002015160008060405160200180807f6d6178506572547800000000000000000000000000000000000000000000000081525060080190506040516020818303038152906040526040518082805190602001908083835b60208310612fe75780518252601f199092019160209182019101612fc8565b51815160209384036101000a600019018019909216911617905260408051929094018290039091208652850195909552929092016000209390935550508651879150600290811061303457fe5b9060200190602002015160008060405160200180807f6d696e506572547800000000000000000000000000000000000000000000000081525060080190506040516020818303038152906040526040518082805190602001908083835b602083106130b05780518252601f199092019160209182019101613091565b51815160209384036101000a6000190180199092169116179052604080519290940182900390912086528581019690965250928301600090812095909555505080517f67617350726963650000000000000000000000000000000000000000000000008184015281516008818303018152602890910191829052805189949384939182918401908083835b6020831061315a5780518252601f19909201916020918201910161313b565b51815160209384036101000a6000190180199092169116179052604080519290940182900390912086528581019690965250928301600090812095909555505080517f7265717569726564426c6f636b436f6e6669726d6174696f6e73000000000000818401528151601a818303018152603a90910191829052805188949384939182918401908083835b602083106132045780518252601f1990920191602091820191016131e5565b51815160209384036101000a600019018019909216911617905260408051929094018290039091208652850195909552929092016000908120949094555050845185929150811061325157fe5b9060200190602002015160008060405160200180807f657865637574696f6e4461696c794c696d69740000000000000000000000000081525060130190506040516020818303038152906040526040518082805190602001908083835b602083106132cd5780518252601f1990920191602091820191016132ae565b51815160209384036101000a600019018019909216911617905260408051929094018290039091208652850195909552929092016000209390935550508351849150600190811061331a57fe5b9060200190602002015160008060405160200180807f657865637574696f6e4d6178506572547800000000000000000000000000000081525060110190506040516020818303038152906040526040518082805190602001908083835b602083106133965780518252601f199092019160209182019101613377565b51815160209384036101000a6000190180199092169116179052604080519290940182900390912086528581019690965250928301600090812095909555505080517f646563696d616c53686966740000000000000000000000000000000000000000818401528151600c818303018152602c90910191829052805185949384939182918401908083835b602083106134405780518252601f199092019160209182019101613421565b51815160209384036101000a6000190180199092169116179052604080519290940182900390912086528501959095529290920160002093909355506134899150839050613658565b6040805185815290517f4fb76205cd57c896b21511d2114137d8e901b4ccd659e1a0f97d6306795264fb9181900360200190a16040805186815290517f52264b89e0fceafb26e79fd49ef8a366eb6297483bf4035b027f0c99a7ad512e9181900360200190a17fad4123ae17c414d9c6d2fec478b402e6b01856cc250fd01fbfd252fda0089d3c86600081518110151561351f57fe5b906020019060200201516040518082815260200191505060405180910390a17f9bebf928b90863f24cc31f726a3a7545efd409f1dcf552301b1ee3710da70d3b83600081518110151561356e57fe5b906020019060200201516040518082815260200191505060405180910390a15050505050505050565b60016004600060405160200180807f6973496e697469616c697a656400000000000000000000000000000000000000815250600d0190506040516020818303038152906040526040518082805190602001908083835b6020831061360c5780518252601f1990920191602091820191016135ed565b51815160209384036101000a60001901801990921691161790526040805192909401829003909120865285019590955292909201600020805460ff191694151594909417909355505050565b7f8be0079c531659141344cd1fd0a4f28419497f9722a3daafe3b4186f6b6457e061368161137c565b60408051600160a060020a03928316815291841660208301528051918290030190a1806002600060405160200180807f6f776e65720000000000000000000000000000000000000000000000000000008152506005019050604051602081830303815290604052604051808280519060200190808383602083106110c85780518252601f1990920191602091820191016110a9565b6000613720613da8565b8251149050919050565b60408051808201909152601a81527f19457468657265756d205369676e6564204d6573736167653a0a0000000000006020820152600090606083156138d057816137748651613dad565b866040516020018084805190602001908083835b602083106137a75780518252601f199092019160209182019101613788565b51815160209384036101000a600019018019909216911617905286519190930192860191508083835b602083106137ef5780518252601f1990920191602091820191016137d0565b51815160209384036101000a600019018019909216911617905285519190930192850191508083835b602083106138375780518252601f199092019160209182019101613818565b6001836020036101000a03801982511681845116808217855250505050505090500193505050506040516020818303038152906040526040518082805190602001908083835b6020831061389c5780518252601f19909201916020918201910161387d565b6001836020036101000a0380198251168184511680821785525050505050509050019150506040518091039020925061393c565b6040805190810160405280600381526020017f31303400000000000000000000000000000000000000000000000000000000008152509050818186604051602001808480519060200190808383602083106137a75780518252601f199092019160209182019101613788565b505092915050565b6000805b83518110156139935782600160a060020a0316848281518110151561396957fe5b90602001906020020151600160a060020a0316141561398b5760019150613998565b600101613948565b600091505b5092915050565b806000808460405160200180807f746f74616c45786563757465645065724461790000000000000000000000000081525060130182815260200191505060405160208183030381529060405260405180828051906020019080838360208310612b295780518252601f199092019160209182019101612b0a565b60008183811515613a2657fe5b049392505050565b60408051602481018690528415156044820152606480820184905282518083039091018152608490910190915260208181018051600160e060020a03167f9862f26f000000000000000000000000000000000000000000000000000000001781528251600093849390929091849182895af260005192508080156101df575091979650505050505050565b6040805160248082018690528251808303909101815260449091018252602081018051600160e060020a03167f59d784640000000000000000000000000000000000000000000000000000000017815291518151600160a060020a03861693829180838360005b83811015613b38578181015183820152602001613b20565b50505050905090810190601f168015613b655780820380516001836020036101000a031916815260200191505b50915050600060405180830381855af49150501515613b8357600080fd5b60408051848152905182917f858abdcd5efcaebb936e8e8516f0cfe9a0ef5157ff99d16cdabb6db625be90d0919081900360200190a2505050565b600082821115613bca57fe5b50900390565b604051303190600160a060020a0383169082156108fc029083906000818181858888f19350505050151561293f578082613c08613f6a565b600160a060020a039091168152604051908190036020019082f080158015613c34573d6000803e3d6000fd5b5050505050565b604080517f70a0823100000000000000000000000000000000000000000000000000000000815230600482015290518391600091600160a060020a038416916370a0823191602480830192602092919082900301818787803b158015613ca057600080fd5b505af1158015613cb4573d6000803e3d6000fd5b505050506040513d6020811015613cca57600080fd5b50519050612909848483613ed0565b60408051600160a060020a03841681526020810183905281517f1d491a427d1f8cc0d447496f300fac39f7306122481d8e663451eb268274146b929181900390910190a15050565b613d2a8161290f565b1515613d3557600080fd5b806002600060405160200180807f657263363737746f6b656e000000000000000000000000000000000000000000815250600b019050604051602081830303815290604052604051808280519060200190808383602083106110c85780518252601f1990920191602091820191016110a9565b606890565b60606000808281851515613df65760408051808201909152600181527f300000000000000000000000000000000000000000000000000000000000000060208201529450612aa5565b8593505b8315613e1157600190920191600a84049350613dfa565b826040519080825280601f01601f191660200182016040528015613e3f578160200160208202803883390190505b5091505060001982015b8515613ec75781516000198201917f01000000000000000000000000000000000000000000000000000000000000006030600a8a060102918491908110613e8c57fe5b9060200101907effffffffffffffffffffffffffffffffffffffffffffffffffffffffffffff1916908160001a905350600a86049550613e49565b50949350505050565b60408051600160a060020a0384166024820152604480820184905282518083039091018152606490910190915260208181018051600160e060020a03167fa9059cbb000000000000000000000000000000000000000000000000000000001781528251606093600093909290918491828a5af160005193508392508080156101df5750506000835111156114f7578115156114f757600080fd5b604051602180613f7a833901905600608060405260405160208060218339810160405251600160a060020a038116ff00686f6d652d666565000000000000000000000000000000000000000000000000a165627a7a7230582029a30ae027c7b5cbbabd9618e6013c6fae9222ff041dbcbcf36b10c8736f65d60029",
  "source": "pragma solidity 0.4.24;\n\nimport \"../../interfaces/IBurnableMintableERC677Token.sol\";\nimport \"../BasicForeignBridge.sol\";\nimport \"openzeppelin-solidity/contracts/token/ERC20/ERC20Basic.sol\";\nimport \"../ERC677BridgeForBurnableMintableToken.sol\";\nimport \"./RewardableForeignBridgeNativeToErc.sol\";\n\ncontract ForeignBridgeNativeToErc is\n    BasicForeignBridge,\n    ERC677BridgeForBurnableMintableToken,\n    RewardableForeignBridgeNativeToErc\n{\n    /// Event created on money withdraw.\n    event UserRequestForAffirmation(address recipient, uint256 value);\n\n    function initialize(\n        address _validatorContract,\n        address _erc677token,\n        uint256[] _dailyLimitMaxPerTxMinPerTxArray, // [ 0 = _dailyLimit, 1 = _maxPerTx, 2 = _minPerTx ]\n        uint256 _foreignGasPrice,\n        uint256 _requiredBlockConfirmations,\n        uint256[] _homeDailyLimitHomeMaxPerTxArray, // [ 0 = _homeDailyLimit, 1 = _homeMaxPerTx ]\n        address _owner,\n        uint256 _decimalShift\n    ) external returns (bool) {\n        _initialize(\n            _validatorContract,\n            _erc677token,\n            _dailyLimitMaxPerTxMinPerTxArray,\n            _foreignGasPrice,\n            _requiredBlockConfirmations,\n            _homeDailyLimitHomeMaxPerTxArray,\n            _owner,\n            _decimalShift\n        );\n        setInitialize();\n        return isInitialized();\n    }\n\n    function rewardableInitialize(\n        address _validatorContract,\n        address _erc677token,\n        uint256[] _dailyLimitMaxPerTxMinPerTxArray, // [ 0 = _dailyLimit, 1 = _maxPerTx, 2 = _minPerTx ]\n        uint256 _foreignGasPrice,\n        uint256 _requiredBlockConfirmations,\n        uint256[] _homeDailyLimitHomeMaxPerTxArray, // [ 0 = _homeDailyLimit, 1 = _homeMaxPerTx ]\n        address _owner,\n        address _feeManager,\n        uint256 _homeFee,\n        uint256 _decimalShift\n    ) external returns (bool) {\n        _initialize(\n            _validatorContract,\n            _erc677token,\n            _dailyLimitMaxPerTxMinPerTxArray,\n            _foreignGasPrice,\n            _requiredBlockConfirmations,\n            _homeDailyLimitHomeMaxPerTxArray,\n            _owner,\n            _decimalShift\n        );\n        require(AddressUtils.isContract(_feeManager));\n        addressStorage[FEE_MANAGER_CONTRACT] = _feeManager;\n        _setFee(_feeManager, _homeFee, HOME_FEE);\n        setInitialize();\n        return isInitialized();\n    }\n\n    function getBridgeMode() external pure returns (bytes4 _data) {\n        return bytes4(keccak256(abi.encodePacked(\"native-to-erc-core\")));\n    }\n\n    function claimTokensFromErc677(address _token, address _to) external onlyIfUpgradeabilityOwner {\n        IBurnableMintableERC677Token(erc677token()).claimTokens(_token, _to);\n    }\n\n    function _initialize(\n        address _validatorContract,\n        address _erc677token,\n        uint256[] _dailyLimitMaxPerTxMinPerTxArray, // [ 0 = _dailyLimit, 1 = _maxPerTx, 2 = _minPerTx ]\n        uint256 _foreignGasPrice,\n        uint256 _requiredBlockConfirmations,\n        uint256[] _homeDailyLimitHomeMaxPerTxArray, // [ 0 = _homeDailyLimit, 1 = _homeMaxPerTx ]\n        address _owner,\n        uint256 _decimalShift\n    ) internal {\n        require(!isInitialized());\n        require(AddressUtils.isContract(_validatorContract));\n        require(\n            _dailyLimitMaxPerTxMinPerTxArray[2] > 0 && // _minPerTx > 0\n                _dailyLimitMaxPerTxMinPerTxArray[1] > _dailyLimitMaxPerTxMinPerTxArray[2] && // _maxPerTx > _minPerTx\n                _dailyLimitMaxPerTxMinPerTxArray[0] > _dailyLimitMaxPerTxMinPerTxArray[1] // _dailyLimit > _maxPerTx\n        );\n        require(_requiredBlockConfirmations > 0);\n        require(_foreignGasPrice > 0);\n        require(_homeDailyLimitHomeMaxPerTxArray[1] < _homeDailyLimitHomeMaxPerTxArray[0]); // _homeMaxPerTx < _homeDailyLimit\n        require(_owner != address(0));\n\n        addressStorage[VALIDATOR_CONTRACT] = _validatorContract;\n        setErc677token(_erc677token);\n        uintStorage[DAILY_LIMIT] = _dailyLimitMaxPerTxMinPerTxArray[0];\n        uintStorage[DEPLOYED_AT_BLOCK] = block.number;\n        uintStorage[MAX_PER_TX] = _dailyLimitMaxPerTxMinPerTxArray[1];\n        uintStorage[MIN_PER_TX] = _dailyLimitMaxPerTxMinPerTxArray[2];\n        uintStorage[GAS_PRICE] = _foreignGasPrice;\n        uintStorage[REQUIRED_BLOCK_CONFIRMATIONS] = _requiredBlockConfirmations;\n        uintStorage[EXECUTION_DAILY_LIMIT] = _homeDailyLimitHomeMaxPerTxArray[0];\n        uintStorage[EXECUTION_MAX_PER_TX] = _homeDailyLimitHomeMaxPerTxArray[1];\n        uintStorage[DECIMAL_SHIFT] = _decimalShift;\n        setOwner(_owner);\n\n        emit RequiredBlockConfirmationChanged(_requiredBlockConfirmations);\n        emit GasPriceChanged(_foreignGasPrice);\n        emit DailyLimitChanged(_dailyLimitMaxPerTxMinPerTxArray[0]);\n        emit ExecutionDailyLimitChanged(_homeDailyLimitHomeMaxPerTxArray[0]);\n    }\n\n    function onExecuteMessage(address _recipient, uint256 _amount, bytes32 _txHash) internal returns (bool) {\n        setTotalExecutedPerDay(getCurrentDay(), totalExecutedPerDay(getCurrentDay()).add(_amount));\n        uint256 valueToMint = _amount.div(10 ** decimalShift());\n        address feeManager = feeManagerContract();\n        if (feeManager != address(0)) {\n            uint256 fee = calculateFee(valueToMint, false, feeManager, HOME_FEE);\n            if (fee != 0) {\n                distributeFeeFromSignatures(fee, feeManager, _txHash);\n                valueToMint = valueToMint.sub(fee);\n            }\n        }\n        return IBurnableMintableERC677Token(erc677token()).mint(_recipient, valueToMint);\n    }\n\n    function fireEventOnTokenTransfer(address _from, uint256 _value) internal {\n        emit UserRequestForAffirmation(_from, _value);\n    }\n\n    function onFailedMessage(address, uint256, bytes32) internal {\n        revert();\n    }\n}\n",
  "sourcePath": "/contracts/contracts/upgradeable_contracts/native_to_erc20/ForeignBridgeNativeToErc.sol",
  "compiler": {
    "name": "solc",
    "version": "0.4.24+commit.e67f0147.Emscripten.clang"
  },
  "schemaVersion": "3.0.9",
  "updatedAt": "2019-09-30T13:18:39.349Z",
  "devdoc": {
    "methods": {
      "owner()": {
        "details": "Tells the address of the owner",
        "return": "the address of the owner"
      },
      "transferOwnership(address)": {
        "details": "Allows the current owner to transfer control of the contract to a newOwner.",
        "params": {
          "newOwner": "the address to transfer ownership to."
        }
      }
    }
  },
  "userdoc": {
    "methods": {}
  }
}