{
  "contractName": "ForeignBridgeV2",
  "abi": [
    {
      "constant": true,
      "inputs": [],
      "name": "erc677token",
      "outputs": [
        {
          "name": "",
          "type": "address"
        }
      ],
      "payable": false,
      "stateMutability": "view",
      "type": "function"
    },
    {
      "constant": true,
      "inputs": [
        {
          "name": "_txHash",
          "type": "bytes32"
        }
      ],
      "name": "relayedMessages",
      "outputs": [
        {
          "name": "",
          "type": "bool"
        }
      ],
      "payable": false,
      "stateMutability": "view",
      "type": "function"
    },
    {
      "constant": false,
      "inputs": [
        {
          "name": "vs",
          "type": "uint8[]"
        },
        {
          "name": "rs",
          "type": "bytes32[]"
        },
        {
          "name": "ss",
          "type": "bytes32[]"
        },
        {
          "name": "message",
          "type": "bytes"
        }
      ],
      "name": "executeSignatures",
      "outputs": [],
      "payable": false,
      "stateMutability": "nonpayable",
      "type": "function"
    },
    {
      "constant": true,
      "inputs": [
        {
          "name": "_day",
          "type": "uint256"
        }
      ],
      "name": "totalSpentPerDay",
      "outputs": [
        {
          "name": "",
          "type": "uint256"
        }
      ],
      "payable": false,
      "stateMutability": "view",
      "type": "function"
    },
    {
      "constant": false,
      "inputs": [
        {
          "name": "_fee",
          "type": "uint256"
        }
      ],
      "name": "setHomeFee",
      "outputs": [],
      "payable": false,
      "stateMutability": "nonpayable",
      "type": "function"
    },
    {
      "constant": true,
      "inputs": [],
      "name": "isInitialized",
      "outputs": [
        {
          "name": "",
          "type": "bool"
        }
      ],
      "payable": false,
      "stateMutability": "view",
      "type": "function"
    },
    {
      "constant": false,
      "inputs": [
        {
          "name": "_dailyLimit",
          "type": "uint256"
        }
      ],
      "name": "setExecutionDailyLimit",
      "outputs": [],
      "payable": false,
      "stateMutability": "nonpayable",
      "type": "function"
    },
    {
      "constant": true,
      "inputs": [],
      "name": "getCurrentDay",
      "outputs": [
        {
          "name": "",
          "type": "uint256"
        }
      ],
      "payable": false,
      "stateMutability": "view",
      "type": "function"
    },
    {
      "constant": true,
      "inputs": [],
      "name": "requiredBlockConfirmations",
      "outputs": [
        {
          "name": "",
          "type": "uint256"
        }
      ],
      "payable": false,
      "stateMutability": "view",
      "type": "function"
    },
    {
      "constant": true,
      "inputs": [],
      "name": "getBridgeMode",
      "outputs": [
        {
          "name": "_data",
          "type": "bytes4"
        }
      ],
      "payable": false,
      "stateMutability": "pure",
      "type": "function"
    },
    {
      "constant": true,
      "inputs": [],
      "name": "executionDailyLimit",
      "outputs": [
        {
          "name": "",
          "type": "uint256"
        }
      ],
      "payable": false,
      "stateMutability": "view",
      "type": "function"
    },
    {
      "constant": true,
      "inputs": [
        {
          "name": "_day",
          "type": "uint256"
        }
      ],
      "name": "totalExecutedPerDay",
      "outputs": [
        {
          "name": "",
          "type": "uint256"
        }
      ],
      "payable": false,
      "stateMutability": "view",
      "type": "function"
    },
    {
      "constant": false,
      "inputs": [
        {
          "name": "_feeManager",
          "type": "address"
        }
      ],
      "name": "setFeeManagerContract",
      "outputs": [],
      "payable": false,
      "stateMutability": "nonpayable",
      "type": "function"
    },
    {
      "constant": true,
      "inputs": [],
      "name": "dailyLimit",
      "outputs": [
        {
          "name": "",
          "type": "uint256"
        }
      ],
      "payable": false,
      "stateMutability": "view",
      "type": "function"
    },
    {
      "constant": false,
      "inputs": [
        {
          "name": "_token",
          "type": "address"
        },
        {
          "name": "_to",
          "type": "address"
        }
      ],
      "name": "claimTokens",
      "outputs": [],
      "payable": false,
      "stateMutability": "nonpayable",
      "type": "function"
    },
    {
      "constant": true,
      "inputs": [
        {
          "name": "_amount",
          "type": "uint256"
        }
      ],
      "name": "withinExecutionLimit",
      "outputs": [
        {
          "name": "",
          "type": "bool"
        }
      ],
      "payable": false,
      "stateMutability": "view",
      "type": "function"
    },
    {
      "constant": true,
      "inputs": [],
      "name": "executionMaxPerTx",
      "outputs": [
        {
          "name": "",
          "type": "uint256"
        }
      ],
      "payable": false,
      "stateMutability": "view",
      "type": "function"
    },
    {
      "constant": true,
      "inputs": [],
      "name": "requiredSignatures",
      "outputs": [
        {
          "name": "",
          "type": "uint256"
        }
      ],
      "payable": false,
      "stateMutability": "view",
      "type": "function"
    },
    {
      "constant": true,
      "inputs": [],
      "name": "owner",
      "outputs": [
        {
          "name": "",
          "type": "address"
        }
      ],
      "payable": false,
      "stateMutability": "view",
      "type": "function"
    },
    {
      "constant": false,
      "inputs": [
        {
          "name": "_token",
          "type": "address"
        },
        {
          "name": "_to",
          "type": "address"
        }
      ],
      "name": "claimTokensFromErc677",
      "outputs": [],
      "payable": false,
      "stateMutability": "nonpayable",
      "type": "function"
    },
    {
      "constant": true,
      "inputs": [],
      "name": "getHomeFee",
      "outputs": [
        {
          "name": "",
          "type": "uint256"
        }
      ],
      "payable": false,
      "stateMutability": "view",
      "type": "function"
    },
    {
      "constant": true,
      "inputs": [],
      "name": "validatorContract",
      "outputs": [
        {
          "name": "",
          "type": "address"
        }
      ],
      "payable": false,
      "stateMutability": "view",
      "type": "function"
    },
    {
      "constant": true,
      "inputs": [],
      "name": "deployedAtBlock",
      "outputs": [
        {
          "name": "",
          "type": "uint256"
        }
      ],
      "payable": false,
      "stateMutability": "view",
      "type": "function"
    },
    {
      "constant": true,
      "inputs": [],
      "name": "getBridgeInterfacesVersion",
      "outputs": [
        {
          "name": "major",
          "type": "uint64"
        },
        {
          "name": "minor",
          "type": "uint64"
        },
        {
          "name": "patch",
          "type": "uint64"
        }
      ],
      "payable": false,
      "stateMutability": "pure",
      "type": "function"
    },
    {
      "constant": false,
      "inputs": [
        {
          "name": "_minPerTx",
          "type": "uint256"
        }
      ],
      "name": "setMinPerTx",
      "outputs": [],
      "payable": false,
      "stateMutability": "nonpayable",
      "type": "function"
    },
    {
      "constant": false,
      "inputs": [
        {
          "name": "_from",
          "type": "address"
        },
        {
          "name": "_value",
          "type": "uint256"
        },
        {
          "name": "",
          "type": "bytes"
        }
      ],
      "name": "onTokenTransfer",
      "outputs": [
        {
          "name": "",
          "type": "bool"
        }
      ],
      "payable": false,
      "stateMutability": "nonpayable",
      "type": "function"
    },
    {
      "constant": true,
      "inputs": [],
      "name": "something",
      "outputs": [
        {
          "name": "",
          "type": "address"
        }
      ],
      "payable": false,
      "stateMutability": "view",
      "type": "function"
    },
    {
      "constant": false,
      "inputs": [
        {
          "name": "_blockConfirmations",
          "type": "uint256"
        }
      ],
      "name": "setRequiredBlockConfirmations",
      "outputs": [],
      "payable": false,
      "stateMutability": "nonpayable",
      "type": "function"
    },
    {
      "constant": false,
      "inputs": [
        {
          "name": "_dailyLimit",
          "type": "uint256"
        }
      ],
      "name": "setDailyLimit",
      "outputs": [],
      "payable": false,
      "stateMutability": "nonpayable",
      "type": "function"
    },
    {
      "constant": false,
      "inputs": [
        {
          "name": "_gasPrice",
          "type": "uint256"
        }
      ],
      "name": "setGasPrice",
      "outputs": [],
      "payable": false,
      "stateMutability": "nonpayable",
      "type": "function"
    },
    {
      "constant": false,
      "inputs": [
        {
          "name": "_validatorContract",
          "type": "address"
        },
        {
          "name": "_erc677token",
          "type": "address"
        },
        {
          "name": "_dailyLimitMaxPerTxMinPerTxArray",
          "type": "uint256[]"
        },
        {
          "name": "_foreignGasPrice",
          "type": "uint256"
        },
        {
          "name": "_requiredBlockConfirmations",
          "type": "uint256"
        },
        {
          "name": "_homeDailyLimitHomeMaxPerTxArray",
          "type": "uint256[]"
        },
        {
          "name": "_owner",
          "type": "address"
        },
        {
          "name": "_feeManager",
          "type": "address"
        },
        {
          "name": "_homeFee",
          "type": "uint256"
        },
        {
          "name": "_decimalShift",
          "type": "uint256"
        }
      ],
      "name": "rewardableInitialize",
      "outputs": [
        {
          "name": "",
          "type": "bool"
        }
      ],
      "payable": false,
      "stateMutability": "nonpayable",
      "type": "function"
    },
    {
      "constant": false,
      "inputs": [
        {
          "name": "_maxPerTx",
          "type": "uint256"
        }
      ],
      "name": "setMaxPerTx",
      "outputs": [],
      "payable": false,
      "stateMutability": "nonpayable",
      "type": "function"
    },
    {
      "constant": true,
      "inputs": [],
      "name": "decimalShift",
      "outputs": [
        {
          "name": "",
          "type": "uint256"
        }
      ],
      "payable": false,
      "stateMutability": "view",
      "type": "function"
    },
    {
      "constant": true,
      "inputs": [],
      "name": "feeManagerContract",
      "outputs": [
        {
          "name": "",
          "type": "address"
        }
      ],
      "payable": false,
      "stateMutability": "view",
      "type": "function"
    },
    {
      "constant": true,
      "inputs": [],
      "name": "minPerTx",
      "outputs": [
        {
          "name": "",
          "type": "uint256"
        }
      ],
      "payable": false,
      "stateMutability": "view",
      "type": "function"
    },
    {
      "constant": true,
      "inputs": [
        {
          "name": "_amount",
          "type": "uint256"
        }
      ],
      "name": "withinLimit",
      "outputs": [
        {
          "name": "",
          "type": "bool"
        }
      ],
      "payable": false,
      "stateMutability": "view",
      "type": "function"
    },
    {
      "constant": false,
      "inputs": [
        {
          "name": "_maxPerTx",
          "type": "uint256"
        }
      ],
      "name": "setExecutionMaxPerTx",
      "outputs": [],
      "payable": false,
      "stateMutability": "nonpayable",
      "type": "function"
    },
    {
      "constant": true,
      "inputs": [],
      "name": "getFeeManagerMode",
      "outputs": [
        {
          "name": "",
          "type": "bytes4"
        }
      ],
      "payable": false,
      "stateMutability": "view",
      "type": "function"
    },
    {
      "constant": false,
      "inputs": [
        {
          "name": "newOwner",
          "type": "address"
        }
      ],
      "name": "transferOwnership",
      "outputs": [],
      "payable": false,
      "stateMutability": "nonpayable",
      "type": "function"
    },
    {
      "constant": true,
      "inputs": [],
      "name": "maxPerTx",
      "outputs": [
        {
          "name": "",
          "type": "uint256"
        }
      ],
      "payable": false,
      "stateMutability": "view",
      "type": "function"
    },
    {
      "constant": false,
      "inputs": [
        {
          "name": "_validatorContract",
          "type": "address"
        },
        {
          "name": "_erc677token",
          "type": "address"
        },
        {
          "name": "_dailyLimitMaxPerTxMinPerTxArray",
          "type": "uint256[]"
        },
        {
          "name": "_foreignGasPrice",
          "type": "uint256"
        },
        {
          "name": "_requiredBlockConfirmations",
          "type": "uint256"
        },
        {
          "name": "_homeDailyLimitHomeMaxPerTxArray",
          "type": "uint256[]"
        },
        {
          "name": "_owner",
          "type": "address"
        },
        {
          "name": "_decimalShift",
          "type": "uint256"
        }
      ],
      "name": "initialize",
      "outputs": [
        {
          "name": "",
          "type": "bool"
        }
      ],
      "payable": false,
      "stateMutability": "nonpayable",
      "type": "function"
    },
    {
      "constant": true,
      "inputs": [],
      "name": "gasPrice",
      "outputs": [
        {
          "name": "",
          "type": "uint256"
        }
      ],
      "payable": false,
      "stateMutability": "view",
      "type": "function"
    },
    {
      "anonymous": false,
      "inputs": [
        {
          "indexed": false,
          "name": "recipient",
          "type": "address"
        },
        {
          "indexed": false,
          "name": "value",
          "type": "uint256"
        }
      ],
      "name": "UserRequestForAffirmation",
      "type": "event"
    },
    {
      "anonymous": false,
      "inputs": [
        {
          "indexed": false,
          "name": "feeAmount",
          "type": "uint256"
        },
        {
          "indexed": true,
          "name": "transactionHash",
          "type": "bytes32"
        }
      ],
      "name": "FeeDistributedFromAffirmation",
      "type": "event"
    },
    {
      "anonymous": false,
      "inputs": [
        {
          "indexed": false,
          "name": "feeAmount",
          "type": "uint256"
        },
        {
          "indexed": true,
          "name": "transactionHash",
          "type": "bytes32"
        }
      ],
      "name": "FeeDistributedFromSignatures",
      "type": "event"
    },
    {
      "anonymous": false,
      "inputs": [
        {
          "indexed": false,
          "name": "recipient",
          "type": "address"
        },
        {
          "indexed": false,
          "name": "value",
          "type": "uint256"
        },
        {
          "indexed": false,
          "name": "transactionHash",
          "type": "bytes32"
        }
      ],
      "name": "RelayedMessage",
      "type": "event"
    },
    {
      "anonymous": false,
      "inputs": [
        {
          "indexed": false,
          "name": "newLimit",
          "type": "uint256"
        }
      ],
      "name": "DailyLimitChanged",
      "type": "event"
    },
    {
      "anonymous": false,
      "inputs": [
        {
          "indexed": false,
          "name": "newLimit",
          "type": "uint256"
        }
      ],
      "name": "ExecutionDailyLimitChanged",
      "type": "event"
    },
    {
      "anonymous": false,
      "inputs": [
        {
          "indexed": false,
          "name": "gasPrice",
          "type": "uint256"
        }
      ],
      "name": "GasPriceChanged",
      "type": "event"
    },
    {
      "anonymous": false,
      "inputs": [
        {
          "indexed": false,
          "name": "requiredBlockConfirmations",
          "type": "uint256"
        }
      ],
      "name": "RequiredBlockConfirmationChanged",
      "type": "event"
    },
    {
      "anonymous": false,
      "inputs": [
        {
          "indexed": false,
          "name": "previousOwner",
          "type": "address"
        },
        {
          "indexed": false,
          "name": "newOwner",
          "type": "address"
        }
      ],
      "name": "OwnershipTransferred",
      "type": "event"
    },
    {
      "constant": false,
      "inputs": [
        {
          "name": "_newTokenOwner",
          "type": "address"
        }
      ],
      "name": "changeTokenOwnership",
      "outputs": [],
      "payable": false,
      "stateMutability": "nonpayable",
      "type": "function"
    },
    {
      "constant": false,
      "inputs": [
        {
          "name": "_newTokenOwner",
          "type": "address"
        }
      ],
      "name": "doSomething",
      "outputs": [],
      "payable": false,
      "stateMutability": "nonpayable",
      "type": "function"
    }
  ],
  "bytecode": "0x608060405234801561001057600080fd5b5061415c806100206000396000f3006080604052600436106102005763ffffffff60e060020a60003504166318d8f9c9811461020557806321d800ec14610236578063232a2c1d146102625780632bd0bb05146102a857806334a9e148146102d2578063392e53cd146102ea5780633dd95d1b146102ff5780633e6968b6146103175780633f0a9f651461032c578063437764df1461034157806343b37dd3146103885780634fb3fef71461039d57806360756f7c146103b557806367eeba0c146103d657806369ffa08a146103eb578063879ce676146104125780638aa1949a1461042a5780638d0680431461043f5780638da5cb5b146104545780639313dc431461046957806394da17cd1461049057806399439089146104a55780639a454b99146104ba5780639cb7595a146104cf5780639e629f6c14610510578063a2a6ca2714610531578063a4c0ed3614610549578063a7a0d5371461057a578063acf5c6891461058f578063b20d30a9146105a7578063bf1fe420146105bf578063bf740b69146105d7578063c6f6f21614610633578063dae5f0fd1461064b578063dbe03a8b14610660578063df25f3f014610675578063e60c2d441461068a578063ea9f4968146106ab578063f20151e1146106c3578063f2ba9561146106db578063f2fde38b146106f0578063f968adbe14610711578063fc7b6aed14610726578063fe173b9714610777575b600080fd5b34801561021157600080fd5b5061021a61078c565b60408051600160a060020a039092168252519081900360200190f35b34801561024257600080fd5b5061024e60043561084a565b604080519115158252519081900360200190f35b34801561026e57600080fd5b506102a66024600480358281019290820135918135808301929082013591604435808301929082013591606435918201910135610913565b005b3480156102b457600080fd5b506102c0600435610aee565b60408051918252519081900360200190f35b3480156102de57600080fd5b506102a6600435610bab565b3480156102f657600080fd5b5061024e610c65565b34801561030b57600080fd5b506102a6600435610d1d565b34801561032357600080fd5b506102c0610e3d565b34801561033857600080fd5b506102c0610e46565b34801561034d57600080fd5b50610356610efa565b604080517bffffffffffffffffffffffffffffffffffffffffffffffffffffffff199092168252519081900360200190f35b34801561039457600080fd5b506102c0610f9d565b3480156103a957600080fd5b506102c0600435611010565b3480156103c157600080fd5b506102a6600160a060020a036004351661108b565b3480156103e257600080fd5b506102c06111a9565b3480156103f757600080fd5b506102a6600160a060020a036004358116906024351661121c565b34801561041e57600080fd5b5061024e6004356112bf565b34801561043657600080fd5b506102c0611309565b34801561044b57600080fd5b506102c061137c565b34801561046057600080fd5b5061021a6113f4565b34801561047557600080fd5b506102a6600160a060020a0360043581169060243516611468565b34801561049c57600080fd5b506102c0611577565b3480156104b157600080fd5b5061021a611610565b3480156104c657600080fd5b506102c0611684565b3480156104db57600080fd5b506104e46116f7565b6040805167ffffffffffffffff9485168152928416602084015292168183015290519081900360600190f35b34801561051c57600080fd5b506102a6600160a060020a0360043516611702565b34801561053d57600080fd5b506102a66004356117a6565b34801561055557600080fd5b5061024e60048035600160a060020a031690602480359160443591820191013561189d565b34801561058657600080fd5b5061021a61190e565b34801561059b57600080fd5b506102a660043561191d565b3480156105b357600080fd5b506102a6600435611a2c565b3480156105cb57600080fd5b506102a6600435611b4c565b3480156105e357600080fd5b5061024e60048035600160a060020a039081169160248035831692604435808301939081013592606435926084359260a4359283019201359060c43581169060e435166101043561012435611c5b565b34801561063f57600080fd5b506102a6600435611e37565b34801561065757600080fd5b506102c0611ed8565b34801561066c57600080fd5b5061021a611f4b565b34801561068157600080fd5b506102c0611fbf565b34801561069657600080fd5b506102a6600160a060020a0360043516612032565b3480156106b757600080fd5b5061024e60043561207d565b3480156106cf57600080fd5b506102a66004356120c8565b3480156106e757600080fd5b50610356612169565b3480156106fc57600080fd5b506102a6600160a060020a03600435166121e0565b34801561071d57600080fd5b506102c061221a565b34801561073257600080fd5b5061024e60048035600160a060020a039081169160248035831692604435808301939081013592606435926084359260a4359283019201359060c4351660e43561228d565b34801561078357600080fd5b506102c061231c565b60006002600060405160200180807f657263363737746f6b656e000000000000000000000000000000000000000000815250600b0190506040516020818303038152906040526040518082805190602001908083835b602083106108015780518252601f1990920191602091820191016107e2565b51815160209384036101000a6000190180199092169116179052604080519290940182900390912086528501959095529290920160002054600160a060020a0316949350505050565b6000600460008360405160200180807f72656c617965644d657373616765730000000000000000000000000000000000815250600f0182600019166000191681526020019150506040516020818303038152906040526040518082805190602001908083835b602083106108cf5780518252601f1990920191602091820191016108b0565b51815160209384036101000a600019018019909216911617905260408051929094018290039091208652850195909552929092016000205460ff1695945050505050565b6000806000806109ed86868080601f0160208091040260200160405190810160405280939291908181526020018383808284378201915050505050508d8d808060200260200160405190810160405280939291908181526020018383602002808284378201915050505050508c8c808060200260200160405190810160405280939291908181526020018383602002808284378201915050505050508b8b80806020026020016040519081016040528093929190818152602001838360200280828437506109e694506116109350505050565b600061238f565b610a2686868080601f0160208091040260200160405190810160405280939291908181526020018383808284375061260e945050505050565b92965090945092509050610a39836112bf565b15610ad557600160a060020a0381163014610a5357600080fd5b610a5c8261084a565b15610a6657600080fd5b610a71826001612649565b610a7c84848461271b565b1515610a8757600080fd5b60408051600160a060020a03861681526020810185905280820184905290517f4ab7d581336d92edbea22636a613e8e76c99ac7f91137c1523db38dbfb3bf3299181900360600190a1610ae0565b610ae0848484610200565b505050505050505050505050565b60008060008360405160200180807f746f74616c5370656e74506572446179000000000000000000000000000000008152506010018281526020019150506040516020818303038152906040526040518082805190602001908083835b60208310610b6a5780518252601f199092019160209182019101610b4b565b51815160209384036101000a600019018019909216911617905260408051929094018290039091208652850195909552929092016000205495945050505050565b610bb36113f4565b600160a060020a03163314610bc757600080fd5b610c62610bd2611f4b565b82604051602001808060008051602061411183398151915281525060080190506040516020818303038152906040526040518082805190602001908083835b60208310610c305780518252601f199092019160209182019101610c11565b6001836020036101000a03801982511681845116808217855250505050505090500191505060405180910390206128d3565b50565b60006004600060405160200180807f6973496e697469616c697a656400000000000000000000000000000000000000815250600d0190506040516020818303038152906040526040518082805190602001908083835b60208310610cda5780518252601f199092019160209182019101610cbb565b51815160209384036101000a600019018019909216911617905260408051929094018290039091208652850195909552929092016000205460ff16949350505050565b610d256113f4565b600160a060020a03163314610d3957600080fd5b610d41611309565b811180610d4c575080155b1515610d5757600080fd5b8060008060405160200180807f657865637574696f6e4461696c794c696d69740000000000000000000000000081525060130190506040516020818303038152906040526040518082805190602001908083835b60208310610dca5780518252601f199092019160209182019101610dab565b51815160001960209485036101000a019081169019919091161790526040805194909201849003909320865285830196909652509284016000209490945550815184815291517f9bebf928b90863f24cc31f726a3a7545efd409f1dcf552301b1ee3710da70d3b9350918290030190a150565b62015180420490565b600080600060405160200180807f7265717569726564426c6f636b436f6e6669726d6174696f6e73000000000000815250601a0190506040516020818303038152906040526040518082805190602001908083835b60208310610eba5780518252601f199092019160209182019101610e9b565b51815160209384036101000a6000190180199092169116179052604080519290940182900390912086528501959095529290920160002054949350505050565b600060405160200180807f6e61746976652d746f2d6572632d636f7265000000000000000000000000000081525060120190506040516020818303038152906040526040518082805190602001908083835b60208310610f6b5780518252601f199092019160209182019101610f4c565b6001836020036101000a0380198251168184511680821785525050505050509050019150506040518091039020905090565b600080600060405160200180807f657865637574696f6e4461696c794c696d697400000000000000000000000000815250601301905060405160208183030381529060405260405180828051906020019080838360208310610eba5780518252601f199092019160209182019101610e9b565b60008060008360405160200180807f746f74616c45786563757465645065724461790000000000000000000000000081525060130182815260200191505060405160208183030381529060405260405180828051906020019080838360208310610b6a5780518252601f199092019160209182019101610b4b565b6110936113f4565b600160a060020a031633146110a757600080fd5b600160a060020a03811615806110c157506110c181612a85565b15156110cc57600080fd5b806002600060405160200180807f6665654d616e61676572436f6e7472616374000000000000000000000000000081525060120190506040516020818303038152906040526040518082805190602001908083835b602083106111405780518252601f199092019160209182019101611121565b51815160209384036101000a60001901801990921691161790526040805192909401829003909120865285019590955292909201600020805473ffffffffffffffffffffffffffffffffffffffff1916600160a060020a03959095169490941790935550505050565b600080600060405160200180807f6461696c794c696d697400000000000000000000000000000000000000000000815250600a01905060405160208183030381529060405260405180828051906020019080838360208310610eba5780518252601f199092019160209182019101610e9b565b30600160a060020a0316636fde82026040518163ffffffff1660e060020a028152600401602060405180830381600087803b15801561125a57600080fd5b505af115801561126e573d6000803e3d6000fd5b505050506040513d602081101561128457600080fd5b5051600160a060020a0316331461129a57600080fd5b80600160a060020a03811615156112b057600080fd5b6112ba8383612a8d565b505050565b6000806112e2836112d66112d1610e3d565b611010565b9063ffffffff612ab916565b9050806112ed610f9d565b1015801561130257506112fe611309565b8311155b9392505050565b600080600060405160200180807f657865637574696f6e4d61785065725478000000000000000000000000000000815250601101905060405160208183030381529060405260405180828051906020019080838360208310610eba5780518252601f199092019160209182019101610e9b565b6000611386611610565b600160a060020a0316638d0680436040518163ffffffff1660e060020a028152600401602060405180830381600087803b1580156113c357600080fd5b505af11580156113d7573d6000803e3d6000fd5b505050506040513d60208110156113ed57600080fd5b5051905090565b60006002600060405160200180807f6f776e65720000000000000000000000000000000000000000000000000000008152506005019050604051602081830303815290604052604051808280519060200190808383602083106108015780518252601f1990920191602091820191016107e2565b30600160a060020a0316636fde82026040518163ffffffff1660e060020a028152600401602060405180830381600087803b1580156114a657600080fd5b505af11580156114ba573d6000803e3d6000fd5b505050506040513d60208110156114d057600080fd5b5051600160a060020a031633146114e657600080fd5b6114ee61078c565b604080517f69ffa08a000000000000000000000000000000000000000000000000000000008152600160a060020a0385811660048301528481166024830152915192909116916369ffa08a9160448082019260009290919082900301818387803b15801561155b57600080fd5b505af115801561156f573d6000803e3d6000fd5b505050505050565b600061160b604051602001808060008051602061411183398151915281525060080190506040516020818303038152906040526040518082805190602001908083835b602083106115d95780518252601f1990920191602091820191016115ba565b6001836020036101000a0380198251168184511680821785525050505050509050019150506040518091039020612acc565b905090565b60006002600060405160200180807f76616c696461746f72436f6e74726163740000000000000000000000000000008152506011019050604051602081830303815290604052604051808280519060200190808383602083106108015780518252601f1990920191602091820191016107e2565b600080600060405160200180807f6465706c6f7965644174426c6f636b0000000000000000000000000000000000815250600f01905060405160208183030381529060405260405180828051906020019080838360208310610eba5780518252601f199092019160209182019101610e9b565b600260036000909192565b60008061170d6113f4565b600160a060020a0316331461172157600080fd5b61172961078c565b915081905080600160a060020a031663f2fde38b846040518263ffffffff1660e060020a0281526004018082600160a060020a0316600160a060020a03168152602001915050600060405180830381600087803b15801561178957600080fd5b505af115801561179d573d6000803e3d6000fd5b50505050505050565b6117ae6113f4565b600160a060020a031633146117c257600080fd5b6117ca6111a9565b811080156117de57506117db61221a565b81105b15156117e957600080fd5b8060008060405160200180807f6d696e506572547800000000000000000000000000000000000000000000000081525060080190506040516020818303038152906040526040518082805190602001908083835b6020831061185c5780518252601f19909201916020918201910161183d565b51815160209384036101000a600019018019909216911617905260408051929094018290039091208652850195909552929092016000209390935550505050565b6000806118a861078c565b905033600160a060020a038216146118bf57600080fd5b6118c88561207d565b15156118d357600080fd5b6118f76118de610e3d565b6118f2876112d66118ed610e3d565b610aee565b612c24565b611902818787612ce1565b50600195945050505050565b600654600160a060020a031681565b6119256113f4565b600160a060020a0316331461193957600080fd5b6000811161194657600080fd5b8060008060405160200180807f7265717569726564426c6f636b436f6e6669726d6174696f6e73000000000000815250601a0190506040516020818303038152906040526040518082805190602001908083835b602083106119b95780518252601f19909201916020918201910161199a565b51815160001960209485036101000a019081169019919091161790526040805194909201849003909320865285830196909652509284016000209490945550815184815291517f4fb76205cd57c896b21511d2114137d8e901b4ccd659e1a0f97d6306795264fb9350918290030190a150565b611a346113f4565b600160a060020a03163314611a4857600080fd5b611a5061221a565b811180611a5b575080155b1515611a6657600080fd5b8060008060405160200180807f6461696c794c696d697400000000000000000000000000000000000000000000815250600a0190506040516020818303038152906040526040518082805190602001908083835b60208310611ad95780518252601f199092019160209182019101611aba565b51815160001960209485036101000a019081169019919091161790526040805194909201849003909320865285830196909652509284016000209490945550815184815291517fad4123ae17c414d9c6d2fec478b402e6b01856cc250fd01fbfd252fda0089d3c9350918290030190a150565b611b546113f4565b600160a060020a03163314611b6857600080fd5b60008111611b7557600080fd5b8060008060405160200180807f676173507269636500000000000000000000000000000000000000000000000081525060080190506040516020818303038152906040526040518082805190602001908083835b60208310611be85780518252601f199092019160209182019101611bc9565b51815160001960209485036101000a019081169019919091161790526040805194909201849003909320865285830196909652509284016000209490945550815184815291517f52264b89e0fceafb26e79fd49ef8a366eb6297483bf4035b027f0c99a7ad512e9350918290030190a150565b6000611ccb8d8d8d8d808060200260200160405190810160405280939291908181526020018383602002808284378201915050505050508c8c8c8c808060200260200160405190810160405280939291908181526020018383602002808284378201915050505050508b89612d4c565b611cd484612a85565b1515611cdf57600080fd5b836002600060405160200180807f6665654d616e61676572436f6e7472616374000000000000000000000000000081525060120190506040516020818303038152906040526040518082805190602001908083835b60208310611d535780518252601f199092019160209182019101611d34565b51815160209384036101000a6000190180199092169116179052604080519290940182900390912086528581019690965250928301600020805473ffffffffffffffffffffffffffffffffffffffff1916600160a060020a03969096169590951790945550805160008051602061411183398151915281840152815160088183030181526028909101918290528051611e1694508893889391829184810191908190849084908310610c305780518252601f199092019160209182019101610c11565b611e1e61370d565b611e26610c65565b9d9c50505050505050505050505050565b611e3f6113f4565b600160a060020a03163314611e5357600080fd5b611e5b6111a9565b8110611e6657600080fd5b8060008060405160200180807f6d6178506572547800000000000000000000000000000000000000000000000081525060080190506040516020818303038152906040526040518082805190602001908083836020831061185c5780518252601f19909201916020918201910161183d565b600080600060405160200180807f646563696d616c53686966740000000000000000000000000000000000000000815250600c01905060405160208183030381529060405260405180828051906020019080838360208310610eba5780518252601f199092019160209182019101610e9b565b60006002600060405160200180807f6665654d616e61676572436f6e747261637400000000000000000000000000008152506012019050604051602081830303815290604052604051808280519060200190808383602083106108015780518252601f1990920191602091820191016107e2565b600080600060405160200180807f6d696e5065725478000000000000000000000000000000000000000000000000815250600801905060405160208183030381529060405260405180828051906020019080838360208310610eba5780518252601f199092019160209182019101610e9b565b61203a6113f4565b600160a060020a0316331461204e57600080fd5b6006805473ffffffffffffffffffffffffffffffffffffffff1916600160a060020a0392909216919091179055565b60008061208f836112d66118ed610e3d565b90508061209a6111a9565b101580156120af57506120ab61221a565b8311155b801561130257506120be611fbf565b9092101592915050565b6120d06113f4565b600160a060020a031633146120e457600080fd5b6120ec610f9d565b81106120f757600080fd5b8060008060405160200180807f657865637574696f6e4d6178506572547800000000000000000000000000000081525060110190506040516020818303038152906040526040518082805190602001908083836020831061185c5780518252601f19909201916020918201910161183d565b604080516004815260248101909152602081018051600160e060020a03167ff2ba9561000000000000000000000000000000000000000000000000000000001790526000908190816121b9611f4b565b9050600460008351602085016000855af26000519350808015610200575092949350505050565b6121e86113f4565b600160a060020a031633146121fc57600080fd5b600160a060020a038116151561221157600080fd5b610c62816137ce565b600080600060405160200180807f6d61785065725478000000000000000000000000000000000000000000000000815250600801905060405160208183030381529060405260405180828051906020019080838360208310610eba5780518252601f199092019160209182019101610e9b565b60006122fd8b8b8b8b808060200260200160405190810160405280939291908181526020018383602002808284378201915050505050508a8a8a8a808060200260200160405190810160405280939291908181526020018383602002808284378201915050505050508989612d4c565b61230561370d565b61230d610c65565b9b9a5050505050505050505050565b600080600060405160200180807f6761735072696365000000000000000000000000000000000000000000000000815250600801905060405160208183030381529060405260405180828051906020019080838360208310610eba5780518252601f199092019160209182019101610e9b565b600080606060008085806123b05750851580156123b057506123b08b61388c565b15156123bb57600080fd5b86600160a060020a0316638d0680436040518163ffffffff1660e060020a028152600401602060405180830381600087803b1580156123f957600080fd5b505af115801561240d573d6000803e3d6000fd5b505050506040513d602081101561242357600080fd5b50518a5190955085111561243657600080fd5b6124408b876138a0565b93508460405190808252806020026020018201604052801561246c578160200160208202803883390190505b509250600091505b84821015612601576001848b8481518110151561248d57fe5b906020019060200201518b858151811015156124a557fe5b906020019060200201518b868151811015156124bd57fe5b60209081029091018101516040805160008082528185018084529790975260ff9095168582015260608501939093526080840152905160a0808401949293601f19830193908390039091019190865af115801561251e573d6000803e3d6000fd5b50505060206040510351905086600160a060020a031663facd743b826040518263ffffffff1660e060020a0281526004018082600160a060020a0316600160a060020a03168152602001915050602060405180830381600087803b15801561258557600080fd5b505af1158015612599573d6000803e3d6000fd5b505050506040513d60208110156125af57600080fd5b505115156125bc57600080fd5b6125c68382613aba565b156125d057600080fd5b8083838151811015156125df57fe5b600160a060020a03909216602092830290910190910152600190910190612474565b5050505050505050505050565b60008060008061261d8561388c565b151561262857600080fd5b50505050601481015160348201516054830151606890930151919390929190565b80600460008460405160200180807f72656c617965644d657373616765730000000000000000000000000000000000815250600f0182600019166000191681526020019150506040516020818303038152906040526040518082805190602001908083835b602083106126cd5780518252601f1990920191602091820191016126ae565b51815160209384036101000a60001901801990921691161790526040805192909401829003909120865285019590955292909201600020805460ff1916941515949094179093555050505050565b60008060008061274061272c610e3d565b61273b886112d66112d1610e3d565b613b15565b61275b61274b611ed8565b8790600a0a63ffffffff613b8f16565b9250612765611f4b565b9150600160a060020a038216156128325761280c83600084604051602001808060008051602061411183398151915281525060080190506040516020818303038152906040526040518082805190602001908083835b602083106127da5780518252601f1990920191602091820191016127bb565b6001836020036101000a0380198251168184511680821785525050505050509050019150506040518091039020613ba4565b905080156128325761281f818387613c2f565b61282f838263ffffffff613d3416565b92505b61283a61078c565b600160a060020a03166340c10f1988856040518363ffffffff1660e060020a0281526004018083600160a060020a0316600160a060020a0316815260200182815260200192505050602060405180830381600087803b15801561289c57600080fd5b505af11580156128b0573d6000803e3d6000fd5b505050506040513d60208110156128c657600080fd5b5051979650505050505050565b6000604051602001808060008051602061411183398151915281525060080190506040516020818303038152906040526040518082805190602001908083835b602083106129325780518252601f199092019160209182019101612913565b5181516020939093036101000a600019018019909116921691909117905260405192018290039091208514925061298c915050577f286c4066000000000000000000000000000000000000000000000000000000006129ae565b7f34a9e148000000000000000000000000000000000000000000000000000000005b6040805160248082018790528251808303909101815260449091018252602081018051600160e060020a03167bffffffffffffffffffffffffffffffffffffffffffffffffffffffff19851617815291518151939450600160a060020a038816939192909182919080838360005b83811015612a34578181015183820152602001612a1c565b50505050905090810190601f168015612a615780820380516001836020036101000a031916815260200191505b50915050600060405180830381855af49150501515612a7f57600080fd5b50505050565b6000903b1190565b600160a060020a0382161515612aab57612aa681613d46565b612ab5565b612ab58282613db1565b5050565b81810182811015612ac657fe5b92915050565b6000806000806060612adc611f4b565b9250604051602001808060008051602061411183398151915281525060080190506040516020818303038152906040526040518082805190602001908083835b60208310612b3b5780518252601f199092019160209182019101612b1c565b5181516020939093036101000a6000190180199091169216919091179052604051920182900390912089149250612b95915050577fffd6619600000000000000000000000000000000000000000000000000000000612bb7565b7f94da17cd000000000000000000000000000000000000000000000000000000005b60408051600481526024810190915260208082018051600160e060020a03167bffffffffffffffffffffffffffffffffffffffffffffffffffffffff19851617815282519395509193509160009182875af260005194508080156102005750508394505b50505050919050565b806000808460405160200180807f746f74616c5370656e74506572446179000000000000000000000000000000008152506010018281526020019150506040516020818303038152906040526040518082805190602001908083835b60208310612c9f5780518252601f199092019160209182019101612c80565b51815160209384036101000a60001901801990921691161790526040805192909401829003909120865285019590955292909201600020939093555050505050565b82600160a060020a03166342966c68826040518263ffffffff1660e060020a02815260040180828152602001915050600060405180830381600087803b158015612d2a57600080fd5b505af1158015612d3e573d6000803e3d6000fd5b505050506112ba8282613e4f565b612d54610c65565b15612d5e57600080fd5b612d6788612a85565b1515612d7257600080fd5b6000866002815181101515612d8357fe5b90602001906020020151118015612dc95750856002815181101515612da457fe5b90602001906020020151866001815181101515612dbd57fe5b90602001906020020151115b8015612e045750856001815181101515612ddf57fe5b90602001906020020151866000815181101515612df857fe5b90602001906020020151115b1515612e0f57600080fd5b60008411612e1c57600080fd5b60008511612e2957600080fd5b826000815181101515612e3857fe5b90602001906020020151836001815181101515612e5157fe5b6020908102909101015110612e6557600080fd5b600160a060020a0382161515612e7a57600080fd5b876002600060405160200180807f76616c696461746f72436f6e747261637400000000000000000000000000000081525060110190506040516020818303038152906040526040518082805190602001908083835b60208310612eee5780518252601f199092019160209182019101612ecf565b51815160209384036101000a60001901801990921691161790526040805192909401829003909120865285019590955292909201600020805473ffffffffffffffffffffffffffffffffffffffff1916600160a060020a03959095169490941790935550612f5f9150889050613e97565b856000815181101515612f6e57fe5b9060200190602002015160008060405160200180807f6461696c794c696d697400000000000000000000000000000000000000000000815250600a0190506040516020818303038152906040526040518082805190602001908083835b60208310612fea5780518252601f199092019160209182019101612fcb565b51815160209384036101000a6000190180199092169116179052604080519290940182900390912086528581019690965250928301600090812095909555505080517f6465706c6f7965644174426c6f636b0000000000000000000000000000000000818401528151600f818303018152602f90910191829052805143949384939182918401908083835b602083106130945780518252601f199092019160209182019101613075565b51815160209384036101000a60001901801990921691161790526040805192909401829003909120865285019590955292909201600020939093555050865187915060019081106130e157fe5b9060200190602002015160008060405160200180807f6d6178506572547800000000000000000000000000000000000000000000000081525060080190506040516020818303038152906040526040518082805190602001908083835b6020831061315d5780518252601f19909201916020918201910161313e565b51815160209384036101000a60001901801990921691161790526040805192909401829003909120865285019590955292909201600020939093555050865187915060029081106131aa57fe5b9060200190602002015160008060405160200180807f6d696e506572547800000000000000000000000000000000000000000000000081525060080190506040516020818303038152906040526040518082805190602001908083835b602083106132265780518252601f199092019160209182019101613207565b51815160209384036101000a6000190180199092169116179052604080519290940182900390912086528581019690965250928301600090812095909555505080517f67617350726963650000000000000000000000000000000000000000000000008184015281516008818303018152602890910191829052805189949384939182918401908083835b602083106132d05780518252601f1990920191602091820191016132b1565b51815160209384036101000a6000190180199092169116179052604080519290940182900390912086528581019690965250928301600090812095909555505080517f7265717569726564426c6f636b436f6e6669726d6174696f6e73000000000000818401528151601a818303018152603a90910191829052805188949384939182918401908083835b6020831061337a5780518252601f19909201916020918201910161335b565b51815160209384036101000a60001901801990921691161790526040805192909401829003909120865285019590955292909201600090812094909455505084518592915081106133c757fe5b9060200190602002015160008060405160200180807f657865637574696f6e4461696c794c696d69740000000000000000000000000081525060130190506040516020818303038152906040526040518082805190602001908083835b602083106134435780518252601f199092019160209182019101613424565b51815160209384036101000a600019018019909216911617905260408051929094018290039091208652850195909552929092016000209390935550508351849150600190811061349057fe5b9060200190602002015160008060405160200180807f657865637574696f6e4d6178506572547800000000000000000000000000000081525060110190506040516020818303038152906040526040518082805190602001908083835b6020831061350c5780518252601f1990920191602091820191016134ed565b51815160209384036101000a6000190180199092169116179052604080519290940182900390912086528581019690965250928301600090812095909555505080517f646563696d616c53686966740000000000000000000000000000000000000000818401528151600c818303018152602c90910191829052805185949384939182918401908083835b602083106135b65780518252601f199092019160209182019101613597565b51815160209384036101000a6000190180199092169116179052604080519290940182900390912086528501959095529290920160002093909355506135ff91508390506137ce565b6040805185815290517f4fb76205cd57c896b21511d2114137d8e901b4ccd659e1a0f97d6306795264fb9181900360200190a16040805186815290517f52264b89e0fceafb26e79fd49ef8a366eb6297483bf4035b027f0c99a7ad512e9181900360200190a17fad4123ae17c414d9c6d2fec478b402e6b01856cc250fd01fbfd252fda0089d3c86600081518110151561369557fe5b906020019060200201516040518082815260200191505060405180910390a17f9bebf928b90863f24cc31f726a3a7545efd409f1dcf552301b1ee3710da70d3b8360008151811015156136e457fe5b906020019060200201516040518082815260200191505060405180910390a15050505050505050565b60016004600060405160200180807f6973496e697469616c697a656400000000000000000000000000000000000000815250600d0190506040516020818303038152906040526040518082805190602001908083835b602083106137825780518252601f199092019160209182019101613763565b51815160209384036101000a60001901801990921691161790526040805192909401829003909120865285019590955292909201600020805460ff191694151594909417909355505050565b7f8be0079c531659141344cd1fd0a4f28419497f9722a3daafe3b4186f6b6457e06137f76113f4565b60408051600160a060020a03928316815291841660208301528051918290030190a1806002600060405160200180807f6f776e65720000000000000000000000000000000000000000000000000000008152506005019050604051602081830303815290604052604051808280519060200190808383602083106111405780518252601f199092019160209182019101611121565b6000613896613f1e565b8251149050919050565b60408051808201909152601a81527f19457468657265756d205369676e6564204d6573736167653a0a000000000000602082015260009060608315613a4657816138ea8651613f23565b866040516020018084805190602001908083835b6020831061391d5780518252601f1990920191602091820191016138fe565b51815160209384036101000a600019018019909216911617905286519190930192860191508083835b602083106139655780518252601f199092019160209182019101613946565b51815160209384036101000a600019018019909216911617905285519190930192850191508083835b602083106139ad5780518252601f19909201916020918201910161398e565b6001836020036101000a03801982511681845116808217855250505050505090500193505050506040516020818303038152906040526040518082805190602001908083835b60208310613a125780518252601f1990920191602091820191016139f3565b6001836020036101000a03801982511681845116808217855250505050505090500191505060405180910390209250613ab2565b6040805190810160405280600381526020017f313034000000000000000000000000000000000000000000000000000000000081525090508181866040516020018084805190602001908083836020831061391d5780518252601f1990920191602091820191016138fe565b505092915050565b6000805b8351811015613b095782600160a060020a03168482815181101515613adf57fe5b90602001906020020151600160a060020a03161415613b015760019150613b0e565b600101613abe565b600091505b5092915050565b806000808460405160200180807f746f74616c45786563757465645065724461790000000000000000000000000081525060130182815260200191505060405160208183030381529060405260405180828051906020019080838360208310612c9f5780518252601f199092019160209182019101612c80565b60008183811515613b9c57fe5b049392505050565b60408051602481018690528415156044820152606480820184905282518083039091018152608490910190915260208181018051600160e060020a03167f9862f26f000000000000000000000000000000000000000000000000000000001781528251600093849390929091849182895af26000519250808015610200575091979650505050505050565b6040805160248082018690528251808303909101815260449091018252602081018051600160e060020a03167f59d784640000000000000000000000000000000000000000000000000000000017815291518151600160a060020a03861693829180838360005b83811015613cae578181015183820152602001613c96565b50505050905090810190601f168015613cdb5780820380516001836020036101000a031916815260200191505b50915050600060405180830381855af49150501515613cf957600080fd5b60408051848152905182917f858abdcd5efcaebb936e8e8516f0cfe9a0ef5157ff99d16cdabb6db625be90d0919081900360200190a2505050565b600082821115613d4057fe5b50900390565b604051303190600160a060020a0383169082156108fc029083906000818181858888f193505050501515612ab5578082613d7e6140e0565b600160a060020a039091168152604051908190036020019082f080158015613daa573d6000803e3d6000fd5b5050505050565b604080517f70a0823100000000000000000000000000000000000000000000000000000000815230600482015290518391600091600160a060020a038416916370a0823191602480830192602092919082900301818787803b158015613e1657600080fd5b505af1158015613e2a573d6000803e3d6000fd5b505050506040513d6020811015613e4057600080fd5b50519050612a7f848483614046565b60408051600160a060020a03841681526020810183905281517f1d491a427d1f8cc0d447496f300fac39f7306122481d8e663451eb268274146b929181900390910190a15050565b613ea081612a85565b1515613eab57600080fd5b806002600060405160200180807f657263363737746f6b656e000000000000000000000000000000000000000000815250600b019050604051602081830303815290604052604051808280519060200190808383602083106111405780518252601f199092019160209182019101611121565b606890565b60606000808281851515613f6c5760408051808201909152600181527f300000000000000000000000000000000000000000000000000000000000000060208201529450612c1b565b8593505b8315613f8757600190920191600a84049350613f70565b826040519080825280601f01601f191660200182016040528015613fb5578160200160208202803883390190505b5091505060001982015b851561403d5781516000198201917f01000000000000000000000000000000000000000000000000000000000000006030600a8a06010291849190811061400257fe5b9060200101907effffffffffffffffffffffffffffffffffffffffffffffffffffffffffffff1916908160001a905350600a86049550613fbf565b50949350505050565b60408051600160a060020a0384166024820152604480820184905282518083039091018152606490910190915260208181018051600160e060020a03167fa9059cbb000000000000000000000000000000000000000000000000000000001781528251606093600093909290918491828a5af1600051935083925080801561020057505060008351111561156f5781151561156f57600080fd5b6040516021806140f0833901905600608060405260405160208060218339810160405251600160a060020a038116ff00686f6d652d666565000000000000000000000000000000000000000000000000a165627a7a723058203a03e813a871fde9f40e4e74b7b873e5eac4c0954394d0d4a76ef04723177dc40029",
  "source": "pragma solidity 0.4.24;\n\nimport \"../upgradeable_contracts/native_to_erc20/ForeignBridgeNativeToErc.sol\";\n\ninterface OwnableToken {\n    function transferOwnership(address) external;\n}\n\ncontract ForeignBridgeV2 is ForeignBridgeNativeToErc {\n    function changeTokenOwnership(address _newTokenOwner) public onlyOwner {\n        address token = address(erc677token());\n        OwnableToken poa = OwnableToken(token);\n        poa.transferOwnership(_newTokenOwner);\n    }\n    // used for testing\n    address public something;\n    function doSomething(address _newTokenOwner) public onlyOwner {\n        something = _newTokenOwner;\n    }\n}\n",
  "sourcePath": "/contracts/contracts/mocks/ForeignBridgeV2.sol",
  "compiler": {
    "name": "solc",
    "version": "0.4.24+commit.e67f0147.Emscripten.clang"
  },
  "schemaVersion": "3.0.9",
  "updatedAt": "2019-09-30T13:18:39.243Z",
  "devdoc": {
    "methods": {
      "owner()": {
        "details": "Tells the address of the owner",
        "return": "the address of the owner"
      },
      "transferOwnership(address)": {
        "details": "Allows the current owner to transfer control of the contract to a newOwner.",
        "params": {
          "newOwner": "the address to transfer ownership to."
        }
      }
    }
  },
  "userdoc": {
    "methods": {}
  }
}