{
  "contractName": "ForeignBridgeErc677ToErc677",
  "abi": [
    {
      "constant": true,
      "inputs": [],
      "name": "erc677token",
      "outputs": [
        {
          "name": "",
          "type": "address"
        }
      ],
      "payable": false,
      "stateMutability": "view",
      "type": "function"
    },
    {
      "constant": true,
      "inputs": [
        {
          "name": "_txHash",
          "type": "bytes32"
        }
      ],
      "name": "relayedMessages",
      "outputs": [
        {
          "name": "",
          "type": "bool"
        }
      ],
      "payable": false,
      "stateMutability": "view",
      "type": "function"
    },
    {
      "constant": false,
      "inputs": [
        {
          "name": "vs",
          "type": "uint8[]"
        },
        {
          "name": "rs",
          "type": "bytes32[]"
        },
        {
          "name": "ss",
          "type": "bytes32[]"
        },
        {
          "name": "message",
          "type": "bytes"
        }
      ],
      "name": "executeSignatures",
      "outputs": [],
      "payable": false,
      "stateMutability": "nonpayable",
      "type": "function"
    },
    {
      "constant": true,
      "inputs": [
        {
          "name": "_day",
          "type": "uint256"
        }
      ],
      "name": "totalSpentPerDay",
      "outputs": [
        {
          "name": "",
          "type": "uint256"
        }
      ],
      "payable": false,
      "stateMutability": "view",
      "type": "function"
    },
    {
      "constant": true,
      "inputs": [],
      "name": "isInitialized",
      "outputs": [
        {
          "name": "",
          "type": "bool"
        }
      ],
      "payable": false,
      "stateMutability": "view",
      "type": "function"
    },
    {
      "constant": false,
      "inputs": [
        {
          "name": "_dailyLimit",
          "type": "uint256"
        }
      ],
      "name": "setExecutionDailyLimit",
      "outputs": [],
      "payable": false,
      "stateMutability": "nonpayable",
      "type": "function"
    },
    {
      "constant": true,
      "inputs": [],
      "name": "getCurrentDay",
      "outputs": [
        {
          "name": "",
          "type": "uint256"
        }
      ],
      "payable": false,
      "stateMutability": "view",
      "type": "function"
    },
    {
      "constant": true,
      "inputs": [],
      "name": "requiredBlockConfirmations",
      "outputs": [
        {
          "name": "",
          "type": "uint256"
        }
      ],
      "payable": false,
      "stateMutability": "view",
      "type": "function"
    },
    {
      "constant": true,
      "inputs": [],
      "name": "getBridgeMode",
      "outputs": [
        {
          "name": "_data",
          "type": "bytes4"
        }
      ],
      "payable": false,
      "stateMutability": "pure",
      "type": "function"
    },
    {
      "constant": true,
      "inputs": [],
      "name": "executionDailyLimit",
      "outputs": [
        {
          "name": "",
          "type": "uint256"
        }
      ],
      "payable": false,
      "stateMutability": "view",
      "type": "function"
    },
    {
      "constant": true,
      "inputs": [
        {
          "name": "_day",
          "type": "uint256"
        }
      ],
      "name": "totalExecutedPerDay",
      "outputs": [
        {
          "name": "",
          "type": "uint256"
        }
      ],
      "payable": false,
      "stateMutability": "view",
      "type": "function"
    },
    {
      "constant": true,
      "inputs": [],
      "name": "dailyLimit",
      "outputs": [
        {
          "name": "",
          "type": "uint256"
        }
      ],
      "payable": false,
      "stateMutability": "view",
      "type": "function"
    },
    {
      "constant": false,
      "inputs": [
        {
          "name": "_token",
          "type": "address"
        },
        {
          "name": "_to",
          "type": "address"
        }
      ],
      "name": "claimTokens",
      "outputs": [],
      "payable": false,
      "stateMutability": "nonpayable",
      "type": "function"
    },
    {
      "constant": true,
      "inputs": [
        {
          "name": "_amount",
          "type": "uint256"
        }
      ],
      "name": "withinExecutionLimit",
      "outputs": [
        {
          "name": "",
          "type": "bool"
        }
      ],
      "payable": false,
      "stateMutability": "view",
      "type": "function"
    },
    {
      "constant": true,
      "inputs": [],
      "name": "executionMaxPerTx",
      "outputs": [
        {
          "name": "",
          "type": "uint256"
        }
      ],
      "payable": false,
      "stateMutability": "view",
      "type": "function"
    },
    {
      "constant": true,
      "inputs": [],
      "name": "requiredSignatures",
      "outputs": [
        {
          "name": "",
          "type": "uint256"
        }
      ],
      "payable": false,
      "stateMutability": "view",
      "type": "function"
    },
    {
      "constant": true,
      "inputs": [],
      "name": "owner",
      "outputs": [
        {
          "name": "",
          "type": "address"
        }
      ],
      "payable": false,
      "stateMutability": "view",
      "type": "function"
    },
    {
      "constant": true,
      "inputs": [],
      "name": "validatorContract",
      "outputs": [
        {
          "name": "",
          "type": "address"
        }
      ],
      "payable": false,
      "stateMutability": "view",
      "type": "function"
    },
    {
      "constant": true,
      "inputs": [],
      "name": "deployedAtBlock",
      "outputs": [
        {
          "name": "",
          "type": "uint256"
        }
      ],
      "payable": false,
      "stateMutability": "view",
      "type": "function"
    },
    {
      "constant": true,
      "inputs": [],
      "name": "getBridgeInterfacesVersion",
      "outputs": [
        {
          "name": "major",
          "type": "uint64"
        },
        {
          "name": "minor",
          "type": "uint64"
        },
        {
          "name": "patch",
          "type": "uint64"
        }
      ],
      "payable": false,
      "stateMutability": "pure",
      "type": "function"
    },
    {
      "constant": false,
      "inputs": [
        {
          "name": "_minPerTx",
          "type": "uint256"
        }
      ],
      "name": "setMinPerTx",
      "outputs": [],
      "payable": false,
      "stateMutability": "nonpayable",
      "type": "function"
    },
    {
      "constant": false,
      "inputs": [
        {
          "name": "_from",
          "type": "address"
        },
        {
          "name": "_value",
          "type": "uint256"
        },
        {
          "name": "",
          "type": "bytes"
        }
      ],
      "name": "onTokenTransfer",
      "outputs": [
        {
          "name": "",
          "type": "bool"
        }
      ],
      "payable": false,
      "stateMutability": "nonpayable",
      "type": "function"
    },
    {
      "constant": false,
      "inputs": [
        {
          "name": "_blockConfirmations",
          "type": "uint256"
        }
      ],
      "name": "setRequiredBlockConfirmations",
      "outputs": [],
      "payable": false,
      "stateMutability": "nonpayable",
      "type": "function"
    },
    {
      "constant": false,
      "inputs": [
        {
          "name": "_dailyLimit",
          "type": "uint256"
        }
      ],
      "name": "setDailyLimit",
      "outputs": [],
      "payable": false,
      "stateMutability": "nonpayable",
      "type": "function"
    },
    {
      "constant": false,
      "inputs": [
        {
          "name": "_gasPrice",
          "type": "uint256"
        }
      ],
      "name": "setGasPrice",
      "outputs": [],
      "payable": false,
      "stateMutability": "nonpayable",
      "type": "function"
    },
    {
      "constant": false,
      "inputs": [
        {
          "name": "_maxPerTx",
          "type": "uint256"
        }
      ],
      "name": "setMaxPerTx",
      "outputs": [],
      "payable": false,
      "stateMutability": "nonpayable",
      "type": "function"
    },
    {
      "constant": true,
      "inputs": [],
      "name": "decimalShift",
      "outputs": [
        {
          "name": "",
          "type": "uint256"
        }
      ],
      "payable": false,
      "stateMutability": "view",
      "type": "function"
    },
    {
      "constant": true,
      "inputs": [],
      "name": "minPerTx",
      "outputs": [
        {
          "name": "",
          "type": "uint256"
        }
      ],
      "payable": false,
      "stateMutability": "view",
      "type": "function"
    },
    {
      "constant": true,
      "inputs": [
        {
          "name": "_amount",
          "type": "uint256"
        }
      ],
      "name": "withinLimit",
      "outputs": [
        {
          "name": "",
          "type": "bool"
        }
      ],
      "payable": false,
      "stateMutability": "view",
      "type": "function"
    },
    {
      "constant": false,
      "inputs": [
        {
          "name": "_maxPerTx",
          "type": "uint256"
        }
      ],
      "name": "setExecutionMaxPerTx",
      "outputs": [],
      "payable": false,
      "stateMutability": "nonpayable",
      "type": "function"
    },
    {
      "constant": false,
      "inputs": [
        {
          "name": "newOwner",
          "type": "address"
        }
      ],
      "name": "transferOwnership",
      "outputs": [],
      "payable": false,
      "stateMutability": "nonpayable",
      "type": "function"
    },
    {
      "constant": true,
      "inputs": [],
      "name": "maxPerTx",
      "outputs": [
        {
          "name": "",
          "type": "uint256"
        }
      ],
      "payable": false,
      "stateMutability": "view",
      "type": "function"
    },
    {
      "constant": true,
      "inputs": [],
      "name": "gasPrice",
      "outputs": [
        {
          "name": "",
          "type": "uint256"
        }
      ],
      "payable": false,
      "stateMutability": "view",
      "type": "function"
    },
    {
      "anonymous": false,
      "inputs": [
        {
          "indexed": false,
          "name": "recipient",
          "type": "address"
        },
        {
          "indexed": false,
          "name": "value",
          "type": "uint256"
        }
      ],
      "name": "UserRequestForAffirmation",
      "type": "event"
    },
    {
      "anonymous": false,
      "inputs": [
        {
          "indexed": false,
          "name": "recipient",
          "type": "address"
        },
        {
          "indexed": false,
          "name": "value",
          "type": "uint256"
        },
        {
          "indexed": false,
          "name": "transactionHash",
          "type": "bytes32"
        }
      ],
      "name": "RelayedMessage",
      "type": "event"
    },
    {
      "anonymous": false,
      "inputs": [
        {
          "indexed": false,
          "name": "newLimit",
          "type": "uint256"
        }
      ],
      "name": "DailyLimitChanged",
      "type": "event"
    },
    {
      "anonymous": false,
      "inputs": [
        {
          "indexed": false,
          "name": "newLimit",
          "type": "uint256"
        }
      ],
      "name": "ExecutionDailyLimitChanged",
      "type": "event"
    },
    {
      "anonymous": false,
      "inputs": [
        {
          "indexed": false,
          "name": "gasPrice",
          "type": "uint256"
        }
      ],
      "name": "GasPriceChanged",
      "type": "event"
    },
    {
      "anonymous": false,
      "inputs": [
        {
          "indexed": false,
          "name": "requiredBlockConfirmations",
          "type": "uint256"
        }
      ],
      "name": "RequiredBlockConfirmationChanged",
      "type": "event"
    },
    {
      "anonymous": false,
      "inputs": [
        {
          "indexed": false,
          "name": "previousOwner",
          "type": "address"
        },
        {
          "indexed": false,
          "name": "newOwner",
          "type": "address"
        }
      ],
      "name": "OwnershipTransferred",
      "type": "event"
    },
    {
      "constant": false,
      "inputs": [
        {
          "name": "_validatorContract",
          "type": "address"
        },
        {
          "name": "_erc20token",
          "type": "address"
        },
        {
          "name": "_requiredBlockConfirmations",
          "type": "uint256"
        },
        {
          "name": "_gasPrice",
          "type": "uint256"
        },
        {
          "name": "_dailyLimitMaxPerTxMinPerTxArray",
          "type": "uint256[]"
        },
        {
          "name": "_homeDailyLimitHomeMaxPerTxArray",
          "type": "uint256[]"
        },
        {
          "name": "_owner",
          "type": "address"
        },
        {
          "name": "_decimalShift",
          "type": "uint256"
        }
      ],
      "name": "initialize",
      "outputs": [
        {
          "name": "",
          "type": "bool"
        }
      ],
      "payable": false,
      "stateMutability": "nonpayable",
      "type": "function"
    },
    {
      "constant": true,
      "inputs": [],
      "name": "erc20token",
      "outputs": [
        {
          "name": "",
          "type": "address"
        }
      ],
      "payable": false,
      "stateMutability": "view",
      "type": "function"
    }
  ],
  "bytecode": "0x608060405234801561001057600080fd5b5061337a806100206000396000f30060806040526004361061019d5763ffffffff60e060020a60003504166318d8f9c981146101a25780631dcea427146101d357806321d800ec146101e8578063232a2c1d146102145780632bd0bb051461025a578063392e53cd146102845780633dd95d1b146102995780633e6968b6146102b15780633f0a9f65146102c6578063437764df146102db57806343b37dd3146103255780634fb3fef71461033a57806367eeba0c1461035257806369ffa08a14610367578063879ce6761461038e5780638aa1949a146103a65780638d068043146103bb5780638da5cb5b146103d057806399439089146103e55780639a454b99146103fa5780639cb7595a1461040f578063a2a6ca2714610450578063a4c0ed3614610468578063acf5c68914610499578063b20d30a9146104b1578063bf1fe420146104c9578063c6f6f216146104e1578063dae5f0fd146104f9578063df25f3f01461050e578063ea9f496814610523578063ed2cec2c1461053b578063f20151e11461058c578063f2fde38b146105a4578063f968adbe146105c5578063fe173b97146105da575b600080fd5b3480156101ae57600080fd5b506101b76105ef565b60408051600160a060020a039092168252519081900360200190f35b3480156101df57600080fd5b506101b76106ad565b3480156101f457600080fd5b506102006004356106bc565b604080519115158252519081900360200190f35b34801561022057600080fd5b506102586024600480358281019290820135918135808301929082013591604435808301929082013591606435918201910135610785565b005b34801561026657600080fd5b50610272600435610960565b60408051918252519081900360200190f35b34801561029057600080fd5b50610200610a1d565b3480156102a557600080fd5b50610258600435610ad5565b3480156102bd57600080fd5b50610272610bf5565b3480156102d257600080fd5b50610272610bfe565b3480156102e757600080fd5b506102f0610cb2565b604080517fffffffff000000000000000000000000000000000000000000000000000000009092168252519081900360200190f35b34801561033157600080fd5b50610272610d55565b34801561034657600080fd5b50610272600435610dc8565b34801561035e57600080fd5b50610272610e43565b34801561037357600080fd5b50610258600160a060020a0360043581169060243516610eb6565b34801561039a57600080fd5b50610200600435610ee4565b3480156103b257600080fd5b50610272610f2e565b3480156103c757600080fd5b50610272610fa1565b3480156103dc57600080fd5b506101b7611019565b3480156103f157600080fd5b506101b761108d565b34801561040657600080fd5b50610272611101565b34801561041b57600080fd5b50610424611174565b6040805167ffffffffffffffff9485168152928416602084015292168183015290519081900360600190f35b34801561045c57600080fd5b5061025860043561117f565b34801561047457600080fd5b5061020060048035600160a060020a0316906024803591604435918201910135611276565b3480156104a557600080fd5b506102586004356112e7565b3480156104bd57600080fd5b506102586004356113f6565b3480156104d557600080fd5b50610258600435611516565b3480156104ed57600080fd5b50610258600435611625565b34801561050557600080fd5b506102726116c6565b34801561051a57600080fd5b50610272611739565b34801561052f57600080fd5b506102006004356117ac565b34801561054757600080fd5b5061020060048035600160a060020a039081169160248035831692604435926064359260843580820193908301359260a4359283019201359060c4351660e4356117f7565b34801561059857600080fd5b50610258600435611b28565b3480156105b057600080fd5b50610258600160a060020a0360043516611bc9565b3480156105d157600080fd5b50610272611c06565b3480156105e657600080fd5b50610272611c79565b60006002600060405160200180807f657263363737746f6b656e000000000000000000000000000000000000000000815250600b0190506040516020818303038152906040526040518082805190602001908083835b602083106106645780518252601f199092019160209182019101610645565b51815160209384036101000a6000190180199092169116179052604080519290940182900390912086528501959095529290920160002054600160a060020a0316949350505050565b60006106b76105ef565b905090565b6000600460008360405160200180807f72656c617965644d657373616765730000000000000000000000000000000000815250600f0182600019166000191681526020019150506040516020818303038152906040526040518082805190602001908083835b602083106107415780518252601f199092019160209182019101610722565b51815160209384036101000a600019018019909216911617905260408051929094018290039091208652850195909552929092016000205460ff1695945050505050565b60008060008061085f86868080601f0160208091040260200160405190810160405280939291908181526020018383808284378201915050505050508d8d808060200260200160405190810160405280939291908181526020018383602002808284378201915050505050508c8c808060200260200160405190810160405280939291908181526020018383602002808284378201915050505050508b8b8080602002602001604051908101604052809392919081815260200183836020028082843750610858945061108d9350505050565b6000611cec565b61089886868080601f01602080910402602001604051908101604052809392919081815260200183838082843750611f6b945050505050565b929650909450925090506108ab83610ee4565b1561094757600160a060020a03811630146108c557600080fd5b6108ce826106bc565b156108d857600080fd5b6108e3826001611fa6565b6108ee848484612078565b15156108f957600080fd5b60408051600160a060020a03861681526020810185905280820184905290517f4ab7d581336d92edbea22636a613e8e76c99ac7f91137c1523db38dbfb3bf3299181900360600190a1610952565b61095284848461019d565b505050505050505050505050565b60008060008360405160200180807f746f74616c5370656e74506572446179000000000000000000000000000000008152506010018281526020019150506040516020818303038152906040526040518082805190602001908083835b602083106109dc5780518252601f1990920191602091820191016109bd565b51815160209384036101000a600019018019909216911617905260408051929094018290039091208652850195909552929092016000205495945050505050565b60006004600060405160200180807f6973496e697469616c697a656400000000000000000000000000000000000000815250600d0190506040516020818303038152906040526040518082805190602001908083835b60208310610a925780518252601f199092019160209182019101610a73565b51815160209384036101000a600019018019909216911617905260408051929094018290039091208652850195909552929092016000205460ff16949350505050565b610add611019565b600160a060020a03163314610af157600080fd5b610af9610f2e565b811180610b04575080155b1515610b0f57600080fd5b8060008060405160200180807f657865637574696f6e4461696c794c696d69740000000000000000000000000081525060130190506040516020818303038152906040526040518082805190602001908083835b60208310610b825780518252601f199092019160209182019101610b63565b51815160001960209485036101000a019081169019919091161790526040805194909201849003909320865285830196909652509284016000209490945550815184815291517f9bebf928b90863f24cc31f726a3a7545efd409f1dcf552301b1ee3710da70d3b9350918290030190a150565b62015180420490565b600080600060405160200180807f7265717569726564426c6f636b436f6e6669726d6174696f6e73000000000000815250601a0190506040516020818303038152906040526040518082805190602001908083835b60208310610c725780518252601f199092019160209182019101610c53565b51815160209384036101000a6000190180199092169116179052604080519290940182900390912086528501959095529290920160002054949350505050565b600060405160200180807f6572632d746f2d6572632d636f72650000000000000000000000000000000000815250600f0190506040516020818303038152906040526040518082805190602001908083835b60208310610d235780518252601f199092019160209182019101610d04565b6001836020036101000a0380198251168184511680821785525050505050509050019150506040518091039020905090565b600080600060405160200180807f657865637574696f6e4461696c794c696d697400000000000000000000000000815250601301905060405160208183030381529060405260405180828051906020019080838360208310610c725780518252601f199092019160209182019101610c53565b60008060008360405160200180807f746f74616c457865637574656450657244617900000000000000000000000000815250601301828152602001915050604051602081830303815290604052604051808280519060200190808383602083106109dc5780518252601f1990920191602091820191016109bd565b600080600060405160200180807f6461696c794c696d697400000000000000000000000000000000000000000000815250600a01905060405160208183030381529060405260405180828051906020019080838360208310610c725780518252601f199092019160209182019101610c53565b610ebe6106ad565b600160a060020a0383811691161415610ed657600080fd5b610ee08282612156565b5050565b600080610f0783610efb610ef6610bf5565b610dc8565b9063ffffffff6121f916565b905080610f12610d55565b10158015610f275750610f23610f2e565b8311155b9392505050565b600080600060405160200180807f657865637574696f6e4d61785065725478000000000000000000000000000000815250601101905060405160208183030381529060405260405180828051906020019080838360208310610c725780518252601f199092019160209182019101610c53565b6000610fab61108d565b600160a060020a0316638d0680436040518163ffffffff1660e060020a028152600401602060405180830381600087803b158015610fe857600080fd5b505af1158015610ffc573d6000803e3d6000fd5b505050506040513d602081101561101257600080fd5b5051905090565b60006002600060405160200180807f6f776e65720000000000000000000000000000000000000000000000000000008152506005019050604051602081830303815290604052604051808280519060200190808383602083106106645780518252601f199092019160209182019101610645565b60006002600060405160200180807f76616c696461746f72436f6e74726163740000000000000000000000000000008152506011019050604051602081830303815290604052604051808280519060200190808383602083106106645780518252601f199092019160209182019101610645565b600080600060405160200180807f6465706c6f7965644174426c6f636b0000000000000000000000000000000000815250600f01905060405160208183030381529060405260405180828051906020019080838360208310610c725780518252601f199092019160209182019101610c53565b600260036000909192565b611187611019565b600160a060020a0316331461119b57600080fd5b6111a3610e43565b811080156111b757506111b4611c06565b81105b15156111c257600080fd5b8060008060405160200180807f6d696e506572547800000000000000000000000000000000000000000000000081525060080190506040516020818303038152906040526040518082805190602001908083835b602083106112355780518252601f199092019160209182019101611216565b51815160209384036101000a600019018019909216911617905260408051929094018290039091208652850195909552929092016000209390935550505050565b6000806112816105ef565b905033600160a060020a0382161461129857600080fd5b6112a1856117ac565b15156112ac57600080fd5b6112d06112b7610bf5565b6112cb87610efb6112c6610bf5565b610960565b61220c565b6112db8187876122c9565b50600195945050505050565b6112ef611019565b600160a060020a0316331461130357600080fd5b6000811161131057600080fd5b8060008060405160200180807f7265717569726564426c6f636b436f6e6669726d6174696f6e73000000000000815250601a0190506040516020818303038152906040526040518082805190602001908083835b602083106113835780518252601f199092019160209182019101611364565b51815160001960209485036101000a019081169019919091161790526040805194909201849003909320865285830196909652509284016000209490945550815184815291517f4fb76205cd57c896b21511d2114137d8e901b4ccd659e1a0f97d6306795264fb9350918290030190a150565b6113fe611019565b600160a060020a0316331461141257600080fd5b61141a611c06565b811180611425575080155b151561143057600080fd5b8060008060405160200180807f6461696c794c696d697400000000000000000000000000000000000000000000815250600a0190506040516020818303038152906040526040518082805190602001908083835b602083106114a35780518252601f199092019160209182019101611484565b51815160001960209485036101000a019081169019919091161790526040805194909201849003909320865285830196909652509284016000209490945550815184815291517fad4123ae17c414d9c6d2fec478b402e6b01856cc250fd01fbfd252fda0089d3c9350918290030190a150565b61151e611019565b600160a060020a0316331461153257600080fd5b6000811161153f57600080fd5b8060008060405160200180807f676173507269636500000000000000000000000000000000000000000000000081525060080190506040516020818303038152906040526040518082805190602001908083835b602083106115b25780518252601f199092019160209182019101611593565b51815160001960209485036101000a019081169019919091161790526040805194909201849003909320865285830196909652509284016000209490945550815184815291517f52264b89e0fceafb26e79fd49ef8a366eb6297483bf4035b027f0c99a7ad512e9350918290030190a150565b61162d611019565b600160a060020a0316331461164157600080fd5b611649610e43565b811061165457600080fd5b8060008060405160200180807f6d617850657254780000000000000000000000000000000000000000000000008152506008019050604051602081830303815290604052604051808280519060200190808383602083106112355780518252601f199092019160209182019101611216565b600080600060405160200180807f646563696d616c53686966740000000000000000000000000000000000000000815250600c01905060405160208183030381529060405260405180828051906020019080838360208310610c725780518252601f199092019160209182019101610c53565b600080600060405160200180807f6d696e5065725478000000000000000000000000000000000000000000000000815250600801905060405160208183030381529060405260405180828051906020019080838360208310610c725780518252601f199092019160209182019101610c53565b6000806117be83610efb6112c6610bf5565b9050806117c9610e43565b101580156117de57506117da611c06565b8311155b8015610f2757506117ed611739565b9092101592915050565b60006060818888600281811061180957fe5b9050602002013511801561184457508787600281811061182557fe5b9050602002013588886001818110151561183b57fe5b90506020020135115b801561187757508787600181811061185857fe5b9050602002013588886000818110151561186e57fe5b90506020020135115b151561188257600080fd5b604080516003808252608082019092529060208201606080388339019050509050878760018181106118b057fe5b905060200201358160008151811015156118c657fe5b60209081029091010152858560008181106118dd57fe5b905060200201358160018151811015156118f357fe5b602090810290910101528585600181811061190a57fe5b9050602002013581600281518110151561192057fe5b602090810290910101526119398c8c8c8c8589896122d3565b8787600081811061194657fe5b9050602002013560008060405160200180807f6461696c794c696d697400000000000000000000000000000000000000000000815250600a0190506040516020818303038152906040526040518082805190602001908083835b602083106119bf5780518252601f1990920191602091820191016119a0565b51815160209384036101000a6000190180199092169116179052604080519290940182900390912086528501959095529290920160002093909355508991508890506002818110611a0c57fe5b9050602002013560008060405160200180807f6d696e506572547800000000000000000000000000000000000000000000000081525060080190506040516020818303038152906040526040518082805190602001908083835b60208310611a855780518252601f199092019160209182019101611a66565b51815160209384036101000a60001901801990921691161790526040805192909401829003909120865285019590955292909201600090812094909455507fad4123ae17c414d9c6d2fec478b402e6b01856cc250fd01fbfd252fda0089d3c928b92508a9150818110611af457fe5b905060200201356040518082815260200191505060405180910390a1611b18610a1d565b9c9b505050505050505050505050565b611b30611019565b600160a060020a03163314611b4457600080fd5b611b4c610d55565b8110611b5757600080fd5b8060008060405160200180807f657865637574696f6e4d617850657254780000000000000000000000000000008152506011019050604051602081830303815290604052604051808280519060200190808383602083106112355780518252601f199092019160209182019101611216565b611bd1611019565b600160a060020a03163314611be557600080fd5b600160a060020a0381161515611bfa57600080fd5b611c0381612a23565b50565b600080600060405160200180807f6d61785065725478000000000000000000000000000000000000000000000000815250600801905060405160208183030381529060405260405180828051906020019080838360208310610c725780518252601f199092019160209182019101610c53565b600080600060405160200180807f6761735072696365000000000000000000000000000000000000000000000000815250600801905060405160208183030381529060405260405180828051906020019080838360208310610c725780518252601f199092019160209182019101610c53565b60008060606000808580611d0d575085158015611d0d5750611d0d8b612b4b565b1515611d1857600080fd5b86600160a060020a0316638d0680436040518163ffffffff1660e060020a028152600401602060405180830381600087803b158015611d5657600080fd5b505af1158015611d6a573d6000803e3d6000fd5b505050506040513d6020811015611d8057600080fd5b50518a51909550851115611d9357600080fd5b611d9d8b87612b5f565b935084604051908082528060200260200182016040528015611dc9578160200160208202803883390190505b509250600091505b84821015611f5e576001848b84815181101515611dea57fe5b906020019060200201518b85815181101515611e0257fe5b906020019060200201518b86815181101515611e1a57fe5b60209081029091018101516040805160008082528185018084529790975260ff9095168582015260608501939093526080840152905160a0808401949293601f19830193908390039091019190865af1158015611e7b573d6000803e3d6000fd5b50505060206040510351905086600160a060020a031663facd743b826040518263ffffffff1660e060020a0281526004018082600160a060020a0316600160a060020a03168152602001915050602060405180830381600087803b158015611ee257600080fd5b505af1158015611ef6573d6000803e3d6000fd5b505050506040513d6020811015611f0c57600080fd5b50511515611f1957600080fd5b611f238382612d79565b15611f2d57600080fd5b808383815181101515611f3c57fe5b600160a060020a03909216602092830290910190910152600190910190611dd1565b5050505050505050505050565b600080600080611f7a85612b4b565b1515611f8557600080fd5b50505050601481015160348201516054830151606890930151919390929190565b80600460008460405160200180807f72656c617965644d657373616765730000000000000000000000000000000000815250600f0182600019166000191681526020019150506040516020818303038152906040526040518082805190602001908083835b6020831061202a5780518252601f19909201916020918201910161200b565b51815160209384036101000a60001901801990921691161790526040805192909401829003909120865285019590955292909201600020805460ff1916941515949094179093555050505050565b60008061209a612086610bf5565b61209586610efb610ef6610bf5565b612dd4565b6120b56120a56116c6565b8590600a0a63ffffffff612e4e16565b90506120bf6106ad565b600160a060020a031663a9059cbb86836040518363ffffffff1660e060020a0281526004018083600160a060020a0316600160a060020a0316815260200182815260200192505050602060405180830381600087803b15801561212157600080fd5b505af1158015612135573d6000803e3d6000fd5b505050506040513d602081101561214b57600080fd5b505195945050505050565b30600160a060020a0316636fde82026040518163ffffffff1660e060020a028152600401602060405180830381600087803b15801561219457600080fd5b505af11580156121a8573d6000803e3d6000fd5b505050506040513d60208110156121be57600080fd5b5051600160a060020a031633146121d457600080fd5b80600160a060020a03811615156121ea57600080fd5b6121f48383612e63565b505050565b8181018281101561220657fe5b92915050565b806000808460405160200180807f746f74616c5370656e74506572446179000000000000000000000000000000008152506010018281526020019150506040516020818303038152906040526040518082805190602001908083835b602083106122875780518252601f199092019160209182019101612268565b51815160209384036101000a60001901801990921691161790526040805192909401829003909120865285019590955292909201600020939093555050505050565b6121f48282612e8b565b6122db610a1d565b156122e557600080fd5b6122ee87612ed3565b15156122f957600080fd5b84151561230557600080fd5b6000841161231257600080fd5b82600181518110151561232157fe5b9060200190602002015183600281518110151561233a57fe5b602090810290910101511061234e57600080fd5b600160a060020a038216151561236357600080fd5b866002600060405160200180807f76616c696461746f72436f6e747261637400000000000000000000000000000081525060110190506040516020818303038152906040526040518082805190602001908083835b602083106123d75780518252601f1990920191602091820191016123b8565b51815160209384036101000a60001901801990921691161790526040805192909401829003909120865285019590955292909201600020805473ffffffffffffffffffffffffffffffffffffffff1916600160a060020a039590951694909417909355506124489150879050612edb565b4360008060405160200180807f6465706c6f7965644174426c6f636b0000000000000000000000000000000000815250600f0190506040516020818303038152906040526040518082805190602001908083835b602083106124bb5780518252601f19909201916020918201910161249c565b51815160209384036101000a6000190180199092169116179052604080519290940182900390912086528581019690965250928301600090812095909555505080517f7265717569726564426c6f636b436f6e6669726d6174696f6e73000000000000818401528151601a818303018152603a90910191829052805189949384939182918401908083835b602083106125655780518252601f199092019160209182019101612546565b51815160209384036101000a6000190180199092169116179052604080519290940182900390912086528581019690965250928301600090812095909555505080517f67617350726963650000000000000000000000000000000000000000000000008184015281516008818303018152602890910191829052805188949384939182918401908083835b6020831061260f5780518252601f1990920191602091820191016125f0565b51815160209384036101000a600019018019909216911617905260408051929094018290039091208652850195909552929092016000908120949094555050845185929150811061265c57fe5b9060200190602002015160008060405160200180807f6d6178506572547800000000000000000000000000000000000000000000000081525060080190506040516020818303038152906040526040518082805190602001908083835b602083106126d85780518252601f1990920191602091820191016126b9565b51815160209384036101000a600019018019909216911617905260408051929094018290039091208652850195909552929092016000209390935550508351849150600190811061272557fe5b9060200190602002015160008060405160200180807f657865637574696f6e4461696c794c696d69740000000000000000000000000081525060130190506040516020818303038152906040526040518082805190602001908083835b602083106127a15780518252601f199092019160209182019101612782565b51815160209384036101000a60001901801990921691161790526040805192909401829003909120865285019590955292909201600020939093555050835184915060029081106127ee57fe5b9060200190602002015160008060405160200180807f657865637574696f6e4d6178506572547800000000000000000000000000000081525060110190506040516020818303038152906040526040518082805190602001908083835b6020831061286a5780518252601f19909201916020918201910161284b565b51815160209384036101000a6000190180199092169116179052604080519290940182900390912086528581019690965250928301600090812095909555505080517f646563696d616c53686966740000000000000000000000000000000000000000818401528151600c818303018152602c90910191829052805185949384939182918401908083835b602083106129145780518252601f1990920191602091820191016128f5565b51815160209384036101000a60001901801990921691161790526040805192909401829003909120865285019590955292909201600020939093555061295d9150839050612a23565b612965612ee4565b6040805186815290517f4fb76205cd57c896b21511d2114137d8e901b4ccd659e1a0f97d6306795264fb9181900360200190a16040805185815290517f52264b89e0fceafb26e79fd49ef8a366eb6297483bf4035b027f0c99a7ad512e9181900360200190a17f9bebf928b90863f24cc31f726a3a7545efd409f1dcf552301b1ee3710da70d3b8360018151811015156129fb57fe5b906020019060200201516040518082815260200191505060405180910390a150505050505050565b7f8be0079c531659141344cd1fd0a4f28419497f9722a3daafe3b4186f6b6457e0612a4c611019565b60408051600160a060020a03928316815291841660208301528051918290030190a1806002600060405160200180807f6f776e657200000000000000000000000000000000000000000000000000000081525060050190506040516020818303038152906040526040518082805190602001908083835b60208310612ae25780518252601f199092019160209182019101612ac3565b51815160209384036101000a60001901801990921691161790526040805192909401829003909120865285019590955292909201600020805473ffffffffffffffffffffffffffffffffffffffff1916600160a060020a03959095169490941790935550505050565b6000612b55612fa5565b8251149050919050565b60408051808201909152601a81527f19457468657265756d205369676e6564204d6573736167653a0a000000000000602082015260009060608315612d055781612ba98651612faa565b866040516020018084805190602001908083835b60208310612bdc5780518252601f199092019160209182019101612bbd565b51815160209384036101000a600019018019909216911617905286519190930192860191508083835b60208310612c245780518252601f199092019160209182019101612c05565b51815160209384036101000a600019018019909216911617905285519190930192850191508083835b60208310612c6c5780518252601f199092019160209182019101612c4d565b6001836020036101000a03801982511681845116808217855250505050505090500193505050506040516020818303038152906040526040518082805190602001908083835b60208310612cd15780518252601f199092019160209182019101612cb2565b6001836020036101000a03801982511681845116808217855250505050505090500191505060405180910390209250612d71565b6040805190810160405280600381526020017f3130340000000000000000000000000000000000000000000000000000000000815250905081818660405160200180848051906020019080838360208310612bdc5780518252601f199092019160209182019101612bbd565b505092915050565b6000805b8351811015612dc85782600160a060020a03168482815181101515612d9e57fe5b90602001906020020151600160a060020a03161415612dc05760019150612dcd565b600101612d7d565b600091505b5092915050565b806000808460405160200180807f746f74616c457865637574656450657244617900000000000000000000000000815250601301828152602001915050604051602081830303815290604052604051808280519060200190808383602083106122875780518252601f199092019160209182019101612268565b60008183811515612e5b57fe5b049392505050565b600160a060020a0382161515612e8157612e7c816130d1565b610ee0565b610ee0828261313c565b60408051600160a060020a03841681526020810183905281517f1d491a427d1f8cc0d447496f300fac39f7306122481d8e663451eb268274146b929181900390910190a15050565b6000903b1190565b611c03816131e0565b60016004600060405160200180807f6973496e697469616c697a656400000000000000000000000000000000000000815250600d0190506040516020818303038152906040526040518082805190602001908083835b60208310612f595780518252601f199092019160209182019101612f3a565b51815160209384036101000a60001901801990921691161790526040805192909401829003909120865285019590955292909201600020805460ff191694151594909417909355505050565b606890565b60606000808281851515612ff35760408051808201909152600181527f3000000000000000000000000000000000000000000000000000000000000000602082015294506130c8565b8593505b831561300e57600190920191600a84049350612ff7565b826040519080825280601f01601f19166020018201604052801561303c578160200160208202803883390190505b5091505060001982015b85156130c45781516000198201917f01000000000000000000000000000000000000000000000000000000000000006030600a8a06010291849190811061308957fe5b9060200101907effffffffffffffffffffffffffffffffffffffffffffffffffffffffffffff1916908160001a905350600a86049550613046565b8194505b50505050919050565b604051303190600160a060020a0383169082156108fc029083906000818181858888f193505050501515610ee057808261310961331e565b600160a060020a039091168152604051908190036020019082f080158015613135573d6000803e3d6000fd5b5050505050565b604080517f70a0823100000000000000000000000000000000000000000000000000000000815230600482015290518391600091600160a060020a038416916370a0823191602480830192602092919082900301818787803b1580156131a157600080fd5b505af11580156131b5573d6000803e3d6000fd5b505050506040513d60208110156131cb57600080fd5b505190506131da848483613267565b50505050565b6131e981612ed3565b15156131f457600080fd5b806002600060405160200180807f657263363737746f6b656e000000000000000000000000000000000000000000815250600b01905060405160208183030381529060405260405180828051906020019080838360208310612ae25780518252601f199092019160209182019101612ac3565b60408051600160a060020a03841660248201526044808201849052825180830390910181526064909101909152602081810180517bffffffffffffffffffffffffffffffffffffffffffffffffffffffff167fa9059cbb000000000000000000000000000000000000000000000000000000001781528251606093600093909290918491828a5af1600051935083925080801561019d5750506000835111156133165781151561331657600080fd5b505050505050565b60405160218061332e833901905600608060405260405160208060218339810160405251600160a060020a038116ff00a165627a7a723058208d05d294eaa2ebc04f6b7b31f9adaf568e8924d52dfa77a320c587964fa5646f0029",
  "source": "pragma solidity 0.4.24;\n\nimport \"./BasicForeignBridgeErcToErc.sol\";\nimport \"../ERC677Bridge.sol\";\n\ncontract ForeignBridgeErc677ToErc677 is ERC677Bridge, BasicForeignBridgeErcToErc {\n    event UserRequestForAffirmation(address recipient, uint256 value);\n\n    function initialize(\n        address _validatorContract,\n        address _erc20token,\n        uint256 _requiredBlockConfirmations,\n        uint256 _gasPrice,\n        uint256[] _dailyLimitMaxPerTxMinPerTxArray, // [ 0 = _dailyLimit, 1 = _maxPerTx, 2 = _minPerTx ]\n        uint256[] _homeDailyLimitHomeMaxPerTxArray, // [ 0 = _homeDailyLimit, 1 = _homeMaxPerTx ]\n        address _owner,\n        uint256 _decimalShift\n    ) external returns (bool) {\n        require(\n            _dailyLimitMaxPerTxMinPerTxArray[2] > 0 && // _minPerTx > 0\n                _dailyLimitMaxPerTxMinPerTxArray[1] > _dailyLimitMaxPerTxMinPerTxArray[2] && // _maxPerTx > _minPerTx\n                _dailyLimitMaxPerTxMinPerTxArray[0] > _dailyLimitMaxPerTxMinPerTxArray[1] // _dailyLimit > _maxPerTx\n        );\n        uint256[] memory _maxPerTxHomeDailyLimitHomeMaxPerTxArray = new uint256[](3);\n        _maxPerTxHomeDailyLimitHomeMaxPerTxArray[0] = _dailyLimitMaxPerTxMinPerTxArray[1]; // _maxPerTx\n        _maxPerTxHomeDailyLimitHomeMaxPerTxArray[1] = _homeDailyLimitHomeMaxPerTxArray[0]; // _homeDailyLimit\n        _maxPerTxHomeDailyLimitHomeMaxPerTxArray[2] = _homeDailyLimitHomeMaxPerTxArray[1]; // _homeMaxPerTx\n        _initialize(\n            _validatorContract,\n            _erc20token,\n            _requiredBlockConfirmations,\n            _gasPrice,\n            _maxPerTxHomeDailyLimitHomeMaxPerTxArray, // [ 0 = _maxPerTx, 1 = _homeDailyLimit, 2 = _homeMaxPerTx ]\n            _owner,\n            _decimalShift\n        );\n\n        uintStorage[DAILY_LIMIT] = _dailyLimitMaxPerTxMinPerTxArray[0];\n        uintStorage[MIN_PER_TX] = _dailyLimitMaxPerTxMinPerTxArray[2];\n\n        emit DailyLimitChanged(_dailyLimitMaxPerTxMinPerTxArray[0]);\n\n        return isInitialized();\n    }\n\n    function erc20token() public view returns (ERC20Basic) {\n        return erc677token();\n    }\n\n    function setErc20token(address _token) internal {\n        setErc677token(_token);\n    }\n\n    function fireEventOnTokenTransfer(address _from, uint256 _value) internal {\n        emit UserRequestForAffirmation(_from, _value);\n    }\n}\n",
  "sourcePath": "/contracts/contracts/upgradeable_contracts/erc20_to_erc20/ForeignBridgeErc677ToErc677.sol",
  "compiler": {
    "name": "solc",
    "version": "0.4.24+commit.e67f0147.Emscripten.clang"
  },
  "schemaVersion": "3.0.9",
  "updatedAt": "2019-09-30T13:18:39.311Z",
  "devdoc": {
    "methods": {
      "owner()": {
        "details": "Tells the address of the owner",
        "return": "the address of the owner"
      },
      "transferOwnership(address)": {
        "details": "Allows the current owner to transfer control of the contract to a newOwner.",
        "params": {
          "newOwner": "the address to transfer ownership to."
        }
      }
    }
  },
  "userdoc": {
    "methods": {}
  }
}