{
  "contractName": "ForeignAMB",
  "abi": [
    {
      "constant": true,
      "inputs": [],
      "name": "transactionHash",
      "outputs": [
        {
          "name": "",
          "type": "bytes32"
        }
      ],
      "payable": false,
      "stateMutability": "view",
      "type": "function"
    },
    {
      "constant": true,
      "inputs": [
        {
          "name": "_txHash",
          "type": "bytes32"
        }
      ],
      "name": "relayedMessages",
      "outputs": [
        {
          "name": "",
          "type": "bool"
        }
      ],
      "payable": false,
      "stateMutability": "view",
      "type": "function"
    },
    {
      "constant": true,
      "inputs": [],
      "name": "isInitialized",
      "outputs": [
        {
          "name": "",
          "type": "bool"
        }
      ],
      "payable": false,
      "stateMutability": "view",
      "type": "function"
    },
    {
      "constant": true,
      "inputs": [],
      "name": "requiredBlockConfirmations",
      "outputs": [
        {
          "name": "",
          "type": "uint256"
        }
      ],
      "payable": false,
      "stateMutability": "view",
      "type": "function"
    },
    {
      "constant": false,
      "inputs": [
        {
          "name": "_data",
          "type": "bytes"
        },
        {
          "name": "_signatures",
          "type": "bytes"
        }
      ],
      "name": "executeSignatures",
      "outputs": [],
      "payable": false,
      "stateMutability": "nonpayable",
      "type": "function"
    },
    {
      "constant": true,
      "inputs": [
        {
          "name": "_data",
          "type": "bytes"
        }
      ],
      "name": "getMinimumGasUsage",
      "outputs": [
        {
          "name": "gas",
          "type": "uint256"
        }
      ],
      "payable": false,
      "stateMutability": "pure",
      "type": "function"
    },
    {
      "constant": true,
      "inputs": [],
      "name": "getBridgeMode",
      "outputs": [
        {
          "name": "_data",
          "type": "bytes4"
        }
      ],
      "payable": false,
      "stateMutability": "pure",
      "type": "function"
    },
    {
      "constant": false,
      "inputs": [
        {
          "name": "_token",
          "type": "address"
        },
        {
          "name": "_to",
          "type": "address"
        }
      ],
      "name": "claimTokens",
      "outputs": [],
      "payable": false,
      "stateMutability": "nonpayable",
      "type": "function"
    },
    {
      "constant": false,
      "inputs": [
        {
          "name": "_validatorContract",
          "type": "address"
        },
        {
          "name": "_maxGasPerTx",
          "type": "uint256"
        },
        {
          "name": "_gasPrice",
          "type": "uint256"
        },
        {
          "name": "_requiredBlockConfirmations",
          "type": "uint256"
        },
        {
          "name": "_owner",
          "type": "address"
        }
      ],
      "name": "initialize",
      "outputs": [
        {
          "name": "",
          "type": "bool"
        }
      ],
      "payable": false,
      "stateMutability": "nonpayable",
      "type": "function"
    },
    {
      "constant": false,
      "inputs": [
        {
          "name": "_maxGasPerTx",
          "type": "uint256"
        }
      ],
      "name": "setMaxGasPerTx",
      "outputs": [],
      "payable": false,
      "stateMutability": "nonpayable",
      "type": "function"
    },
    {
      "constant": true,
      "inputs": [],
      "name": "requiredSignatures",
      "outputs": [
        {
          "name": "",
          "type": "uint256"
        }
      ],
      "payable": false,
      "stateMutability": "view",
      "type": "function"
    },
    {
      "constant": true,
      "inputs": [],
      "name": "owner",
      "outputs": [
        {
          "name": "",
          "type": "address"
        }
      ],
      "payable": false,
      "stateMutability": "view",
      "type": "function"
    },
    {
      "constant": true,
      "inputs": [],
      "name": "validatorContract",
      "outputs": [
        {
          "name": "",
          "type": "address"
        }
      ],
      "payable": false,
      "stateMutability": "view",
      "type": "function"
    },
    {
      "constant": true,
      "inputs": [],
      "name": "deployedAtBlock",
      "outputs": [
        {
          "name": "",
          "type": "uint256"
        }
      ],
      "payable": false,
      "stateMutability": "view",
      "type": "function"
    },
    {
      "constant": true,
      "inputs": [],
      "name": "getBridgeInterfacesVersion",
      "outputs": [
        {
          "name": "major",
          "type": "uint64"
        },
        {
          "name": "minor",
          "type": "uint64"
        },
        {
          "name": "patch",
          "type": "uint64"
        }
      ],
      "payable": false,
      "stateMutability": "pure",
      "type": "function"
    },
    {
      "constant": false,
      "inputs": [
        {
          "name": "_blockConfirmations",
          "type": "uint256"
        }
      ],
      "name": "setRequiredBlockConfirmations",
      "outputs": [],
      "payable": false,
      "stateMutability": "nonpayable",
      "type": "function"
    },
    {
      "constant": false,
      "inputs": [
        {
          "name": "_gasPrice",
          "type": "uint256"
        }
      ],
      "name": "setGasPrice",
      "outputs": [],
      "payable": false,
      "stateMutability": "nonpayable",
      "type": "function"
    },
    {
      "constant": true,
      "inputs": [],
      "name": "messageSender",
      "outputs": [
        {
          "name": "",
          "type": "address"
        }
      ],
      "payable": false,
      "stateMutability": "view",
      "type": "function"
    },
    {
      "constant": false,
      "inputs": [
        {
          "name": "_contract",
          "type": "address"
        },
        {
          "name": "_data",
          "type": "bytes"
        },
        {
          "name": "_gas",
          "type": "uint256"
        }
      ],
      "name": "requireToPassMessage",
      "outputs": [],
      "payable": false,
      "stateMutability": "nonpayable",
      "type": "function"
    },
    {
      "constant": true,
      "inputs": [],
      "name": "maxGasPerTx",
      "outputs": [
        {
          "name": "",
          "type": "uint256"
        }
      ],
      "payable": false,
      "stateMutability": "view",
      "type": "function"
    },
    {
      "constant": false,
      "inputs": [
        {
          "name": "newOwner",
          "type": "address"
        }
      ],
      "name": "transferOwnership",
      "outputs": [],
      "payable": false,
      "stateMutability": "nonpayable",
      "type": "function"
    },
    {
      "constant": true,
      "inputs": [],
      "name": "gasPrice",
      "outputs": [
        {
          "name": "",
          "type": "uint256"
        }
      ],
      "payable": false,
      "stateMutability": "view",
      "type": "function"
    },
    {
      "anonymous": false,
      "inputs": [
        {
          "indexed": false,
          "name": "encodedData",
          "type": "bytes"
        }
      ],
      "name": "UserRequestForAffirmation",
      "type": "event"
    },
    {
      "anonymous": false,
      "inputs": [
        {
          "indexed": false,
          "name": "sender",
          "type": "address"
        },
        {
          "indexed": false,
          "name": "executor",
          "type": "address"
        },
        {
          "indexed": false,
          "name": "transactionHash",
          "type": "bytes32"
        },
        {
          "indexed": false,
          "name": "status",
          "type": "bool"
        }
      ],
      "name": "RelayedMessage",
      "type": "event"
    },
    {
      "anonymous": false,
      "inputs": [
        {
          "indexed": false,
          "name": "gasPrice",
          "type": "uint256"
        }
      ],
      "name": "GasPriceChanged",
      "type": "event"
    },
    {
      "anonymous": false,
      "inputs": [
        {
          "indexed": false,
          "name": "requiredBlockConfirmations",
          "type": "uint256"
        }
      ],
      "name": "RequiredBlockConfirmationChanged",
      "type": "event"
    },
    {
      "anonymous": false,
      "inputs": [
        {
          "indexed": false,
          "name": "previousOwner",
          "type": "address"
        },
        {
          "indexed": false,
          "name": "newOwner",
          "type": "address"
        }
      ],
      "name": "OwnershipTransferred",
      "type": "event"
    }
  ],
  "bytecode": "0x608060405234801561001057600080fd5b506126b3806100206000396000f30060806040526004361061010e5763ffffffff60e060020a6000350416630ac1c313811461011357806321d800ec1461013a578063392e53cd146101665780633f0a9f651461017b5780633f7658fd146101905780633f768c06146101be578063437764df1461021757806369ffa08a146102615780636c28e349146102885780637bac29c7146102bb5780638d068043146102d35780638da5cb5b146102e857806399439089146103195780639a454b991461032e5780639cb7595a14610343578063acf5c68914610384578063bf1fe4201461039c578063d67bdd25146103b4578063dc8601b3146103c9578063e5789d0314610432578063f2fde38b14610447578063fe173b9714610468575b600080fd5b34801561011f57600080fd5b5061012861047d565b60408051918252519081900360200190f35b34801561014657600080fd5b506101526004356105dc565b604080519115158252519081900360200190f35b34801561017257600080fd5b506101526106a5565b34801561018757600080fd5b5061012861075d565b34801561019c57600080fd5b506101bc6024600480358281019290820135918135918201910135610811565b005b3480156101ca57600080fd5b506040805160206004803580820135601f810184900484028501840190955284845261012894369492936024939284019190819084018382808284375094975061091a9650505050505050565b34801561022357600080fd5b5061022c610936565b604080517fffffffff000000000000000000000000000000000000000000000000000000009092168252519081900360200190f35b34801561026d57600080fd5b506101bc600160a060020a03600435811690602435166109d9565b34801561029457600080fd5b50610152600160a060020a0360043581169060243590604435906064359060843516610a7c565b3480156102c757600080fd5b506101bc600435610ede565b3480156102df57600080fd5b50610128610fae565b3480156102f457600080fd5b506102fd611026565b60408051600160a060020a039092168252519081900360200190f35b34801561032557600080fd5b506102fd6110e4565b34801561033a57600080fd5b50610128611158565b34801561034f57600080fd5b506103586111cb565b6040805167ffffffffffffffff9485168152928416602084015292168183015290519081900360600190f35b34801561039057600080fd5b506101bc6004356111d6565b3480156103a857600080fd5b506101bc6004356112e5565b3480156103c057600080fd5b506102fd6113f4565b3480156103d557600080fd5b5060408051602060046024803582810135601f81018590048502860185019096528585526101bc958335600160a060020a031695369560449491939091019190819084018382808284375094975050933594506114689350505050565b34801561043e57600080fd5b50610128611570565b34801561045357600080fd5b506101bc600160a060020a03600435166115e3565b34801561047457600080fd5b50610128611620565b60006105d66003600060405160200180807f7472616e73616374696f6e486173680000000000000000000000000000000000815250600f0190506040516020818303038152906040526040518082805190602001908083835b602083106104f55780518252601f1990920191602091820191016104d6565b6001836020036101000a0380198251168184511680821785525050505050509050019150506040518091039020600019166000191681526020019081526020016000208054600181600116156101000203166002900480601f0160208091040260200160405190810160405280929190818152602001828054600181600116156101000203166002900480156105cc5780601f106105a1576101008083540402835291602001916105cc565b820191906000526020600020905b8154815290600101906020018083116105af57829003601f168201915b5050505050611693565b90505b90565b6000600460008360405160200180807f72656c617965644d657373616765730000000000000000000000000000000000815250600f0182600019166000191681526020019150506040516020818303038152906040526040518082805190602001908083835b602083106106615780518252601f199092019160209182019101610642565b51815160209384036101000a600019018019909216911617905260408051929094018290039091208652850195909552929092016000205460ff1695945050505050565b60006004600060405160200180807f6973496e697469616c697a656400000000000000000000000000000000000000815250600d0190506040516020818303038152906040526040518082805190602001908083835b6020831061071a5780518252601f1990920191602091820191016106fb565b51815160209384036101000a600019018019909216911617905260408051929094018290039091208652850195909552929092016000205460ff16949350505050565b600080600060405160200180807f7265717569726564426c6f636b436f6e6669726d6174696f6e73000000000000815250601a0190506040516020818303038152906040526040518082805190602001908083835b602083106107d15780518252601f1990920191602091820191016107b2565b51815160209384036101000a6000190180199092169116179052604080519290940182900390912086528501959095529290920160002054949350505050565b60008060008060008060606108938b8b8080601f0160208091040260200160405190810160405280939291908181526020018383808284378201915050505050508a8a8080601f0160208091040260200160405190810160405280939291908181526020018383808284375061088c94506110e49350505050565b600161169a565b6108cf8b8b8080601f01602080910402602001604051908101604052809392919081815260200183838082843750600194506119339350505050565b959c50939a5091985096509450925090506108e9856105dc565b156108f357600080fd5b6108fe856001611a41565b61090d87878787878787611b13565b5050505050505050505050565b805160009061093090604463ffffffff611b3a16565b92915050565b600060405160200180807f6172626974726172792d6d6573736167652d6272696467652d636f7265000000815250601d0190506040516020818303038152906040526040518082805190602001908083835b602083106109a75780518252601f199092019160209182019101610988565b6001836020036101000a0380198251168184511680821785525050505050509050019150506040518091039020905090565b30600160a060020a0316636fde82026040518163ffffffff1660e060020a028152600401602060405180830381600087803b158015610a1757600080fd5b505af1158015610a2b573d6000803e3d6000fd5b505050506040513d6020811015610a4157600080fd5b5051600160a060020a03163314610a5757600080fd5b80600160a060020a0381161515610a6d57600080fd5b610a778383611b63565b505050565b6000610a866106a5565b15610a9057600080fd5b600160a060020a03861615801590610aac5750610aac86611b8f565b1515610ab757600080fd5b60008411610ac457600080fd5b60008311610ad157600080fd5b856002600060405160200180807f76616c696461746f72436f6e747261637400000000000000000000000000000081525060110190506040516020818303038152906040526040518082805190602001908083835b60208310610b455780518252601f199092019160209182019101610b26565b51815160209384036101000a60001901801990921691161790526040805192909401829003909120865285810196909652509283016000908120805473ffffffffffffffffffffffffffffffffffffffff1916600160a060020a039790971696909617909555505080517f6465706c6f7965644174426c6f636b0000000000000000000000000000000000818401528151600f818303018152602f90910191829052805143949384939182918401908083835b60208310610c175780518252601f199092019160209182019101610bf8565b51815160209384036101000a6000190180199092169116179052604080519290940182900390912086528581019690965250928301600090812095909555505080517f6d61784761735065725478000000000000000000000000000000000000000000818401528151600b818303018152602b90910191829052805189949384939182918401908083835b60208310610cc15780518252601f199092019160209182019101610ca2565b51815160209384036101000a6000190180199092169116179052604080519290940182900390912086528581019690965250928301600090812095909555505080517f67617350726963650000000000000000000000000000000000000000000000008184015281516008818303018152602890910191829052805188949384939182918401908083835b60208310610d6b5780518252601f199092019160209182019101610d4c565b51815160209384036101000a6000190180199092169116179052604080519290940182900390912086528581019690965250928301600090812095909555505080517f7265717569726564426c6f636b436f6e6669726d6174696f6e73000000000000818401528151601a818303018152603a90910191829052805187949384939182918401908083835b60208310610e155780518252601f199092019160209182019101610df6565b51815160209384036101000a600019018019909216911617905260408051929094018290039091208652850195909552929092016000209390935550610e5e9150839050611b97565b610e66611cbf565b6040805184815290517f4fb76205cd57c896b21511d2114137d8e901b4ccd659e1a0f97d6306795264fb9181900360200190a16040805185815290517f52264b89e0fceafb26e79fd49ef8a366eb6297483bf4035b027f0c99a7ad512e9181900360200190a1610ed46106a5565b9695505050505050565b610ee6611026565b600160a060020a03163314610efa57600080fd5b8060008060405160200180807f6d61784761735065725478000000000000000000000000000000000000000000815250600b0190506040516020818303038152906040526040518082805190602001908083835b60208310610f6d5780518252601f199092019160209182019101610f4e565b51815160209384036101000a600019018019909216911617905260408051929094018290039091208652850195909552929092016000209390935550505050565b6000610fb86110e4565b600160a060020a0316638d0680436040518163ffffffff1660e060020a028152600401602060405180830381600087803b158015610ff557600080fd5b505af1158015611009573d6000803e3d6000fd5b505050506040513d602081101561101f57600080fd5b5051905090565b60006002600060405160200180807f6f776e657200000000000000000000000000000000000000000000000000000081525060050190506040516020818303038152906040526040518082805190602001908083835b6020831061109b5780518252601f19909201916020918201910161107c565b51815160209384036101000a6000190180199092169116179052604080519290940182900390912086528501959095529290920160002054600160a060020a0316949350505050565b60006002600060405160200180807f76616c696461746f72436f6e747261637400000000000000000000000000000081525060110190506040516020818303038152906040526040518082805190602001908083836020831061109b5780518252601f19909201916020918201910161107c565b600080600060405160200180807f6465706c6f7965644174426c6f636b0000000000000000000000000000000000815250600f019050604051602081830303815290604052604051808280519060200190808383602083106107d15780518252601f1990920191602091820191016107b2565b600260036000909192565b6111de611026565b600160a060020a031633146111f257600080fd5b600081116111ff57600080fd5b8060008060405160200180807f7265717569726564426c6f636b436f6e6669726d6174696f6e73000000000000815250601a0190506040516020818303038152906040526040518082805190602001908083835b602083106112725780518252601f199092019160209182019101611253565b51815160001960209485036101000a019081169019919091161790526040805194909201849003909320865285830196909652509284016000209490945550815184815291517f4fb76205cd57c896b21511d2114137d8e901b4ccd659e1a0f97d6306795264fb9350918290030190a150565b6112ed611026565b600160a060020a0316331461130157600080fd5b6000811161130e57600080fd5b8060008060405160200180807f676173507269636500000000000000000000000000000000000000000000000081525060080190506040516020818303038152906040526040518082805190602001908083835b602083106113815780518252601f199092019160209182019101611362565b51815160001960209485036101000a019081169019919091161790526040805194909201849003909320865285830196909652509284016000209490945550815184815291517f52264b89e0fceafb26e79fd49ef8a366eb6297483bf4035b027f0c99a7ad512e9350918290030190a150565b60006002600060405160200180807f6d65737361676553656e64657200000000000000000000000000000000000000815250600d0190506040516020818303038152906040526040518082805190602001908083836020831061109b5780518252601f19909201916020918201910161107c565b6114718261091a565b81101580156114875750611483611570565b8111155b151561149257600080fd5b610a773384836000866040516020018086600160a060020a0316600160a060020a03166c0100000000000000000000000002815260140185600160a060020a0316600160a060020a03166c010000000000000000000000000281526014018481526020018360ff1660ff1660f860020a02815260010182805190602001908083835b602083106115335780518252601f199092019160209182019101611514565b6001836020036101000a03801982511681845116808217855250505050505090500195505050505050604051602081830303815290604052611d80565b600080600060405160200180807f6d61784761735065725478000000000000000000000000000000000000000000815250600b019050604051602081830303815290604052604051808280519060200190808383602083106107d15780518252601f1990920191602091820191016107b2565b6115eb611026565b600160a060020a031633146115ff57600080fd5b600160a060020a038116151561161457600080fd5b61161d81611b97565b50565b600080600060405160200180807f67617350726963650000000000000000000000000000000000000000000000008152506008019050604051602081830303815290604052604051808280519060200190808383602083106107d15780518252601f1990920191602091820191016107b2565b6020015190565b6000806000606060008060008060008060008b806116c557508b1580156116c557506116c58f611e1c565b15156116d057600080fd5b8c600160a060020a0316638d0680436040518163ffffffff1660e060020a028152600401602060405180830381600087803b15801561170e57600080fd5b505af1158015611722573d6000803e3d6000fd5b505050506040513d602081101561173857600080fd5b505160018f0151909b50995060ff8a168b111561175457600080fd5b61175e8f8d611e30565b98508a60405190808252806020026020018201604052801561178a578160200160208202803883390190505b509750600096505b8a87101561192257866020028a60210160ff160192508960200260ff1683019150866002018e01519550828e01519450818e01519350600189878787604051600081526020016040526040518085600019166000191681526020018460ff1660ff1681526020018360001916600019168152602001826000191660001916815260200194505050505060206040516020810390808403906000865af115801561183f573d6000803e3d6000fd5b5050506020604051035190508c600160a060020a031663facd743b826040518263ffffffff1660e060020a0281526004018082600160a060020a0316600160a060020a03168152602001915050602060405180830381600087803b1580156118a657600080fd5b505af11580156118ba573d6000803e3d6000fd5b505050506040513d60208110156118d057600080fd5b505115156118dd57600080fd5b6118e7888261204a565b156118f157600080fd5b80888881518110151561190057fe5b600160a060020a03909216602092830290910190910152600190960195611792565b505050505050505050505050505050565b60208201516034830151604884015160688501516088860151929391927fff000000000000000000000000000000000000000000000000000000000000001660006060818060698580156119b85760f860020a81146119c1577f020000000000000000000000000000000000000000000000000000000000000081146119d3576119de565b600095506119de565b60898d015195506020820191506119de565b600095506001820191505b50808c51039150816040519080825280601f01601f191660200182016040528015611a13578160200160208202803883390190505b5093506020840160018c1415611a2857602093505b8284836044010182375050505092959891949750929550565b80600460008460405160200180807f72656c617965644d657373616765730000000000000000000000000000000000815250600f0182600019166000191681526020019150506040516020818303038152906040526040518082805190602001908083835b60208310611ac55780518252601f199092019160209182019101611aa6565b51815160209384036101000a60001901801990921691161790526040805192909401829003909120865285019590955292909201600020805460ff1916941515949094179093555050505050565b6000611b22888884888a6120a5565b9050611b3088888884612149565b5050505050505050565b6000821515611b4b57506000610930565b50818102818382811515611b5b57fe5b041461093057fe5b600160a060020a0382161515611b8157611b7c816121a1565b611b8b565b611b8b828261220c565b5050565b6000903b1190565b7f8be0079c531659141344cd1fd0a4f28419497f9722a3daafe3b4186f6b6457e0611bc0611026565b60408051600160a060020a03928316815291841660208301528051918290030190a1806002600060405160200180807f6f776e657200000000000000000000000000000000000000000000000000000081525060050190506040516020818303038152906040526040518082805190602001908083835b60208310611c565780518252601f199092019160209182019101611c37565b51815160209384036101000a60001901801990921691161790526040805192909401829003909120865285019590955292909201600020805473ffffffffffffffffffffffffffffffffffffffff1916600160a060020a03959095169490941790935550505050565b60016004600060405160200180807f6973496e697469616c697a656400000000000000000000000000000000000000815250600d0190506040516020818303038152906040526040518082805190602001908083835b60208310611d345780518252601f199092019160209182019101611d15565b51815160209384036101000a60001901801990921691161790526040805192909401829003909120865285019590955292909201600020805460ff191694151594909417909355505050565b7f733b62005ae93e850dd2b37234e1c7eb634d3b7de068bc0f7f32b7233191a48c816040518080602001828103825283818151815260200191508051906020019080838360005b83811015611ddf578181015183820152602001611dc7565b50505050905090810190601f168015611e0c5780820380516001836020036101000a031916815260200191505b509250505060405180910390a150565b6000611e266122b0565b8251149050919050565b60408051808201909152601a81527f19457468657265756d205369676e6564204d6573736167653a0a000000000000602082015260009060608315611fd65781611e7a86516122b5565b866040516020018084805190602001908083835b60208310611ead5780518252601f199092019160209182019101611e8e565b51815160209384036101000a600019018019909216911617905286519190930192860191508083835b60208310611ef55780518252601f199092019160209182019101611ed6565b51815160209384036101000a600019018019909216911617905285519190930192850191508083835b60208310611f3d5780518252601f199092019160209182019101611f1e565b6001836020036101000a03801982511681845116808217855250505050505090500193505050506040516020818303038152906040526040518082805190602001908083835b60208310611fa25780518252601f199092019160209182019101611f83565b6001836020036101000a03801982511681845116808217855250505050505090500191505060405180910390209250612042565b6040805190810160405280600381526020017f3130340000000000000000000000000000000000000000000000000000000000815250905081818660405160200180848051906020019080838360208310611ead5780518252601f199092019160209182019101611e8e565b505092915050565b6000805b83518110156120995782600160a060020a0316848281518110151561206f57fe5b90602001906020020151600160a060020a03161415612091576001915061209e565b60010161204e565b600091505b5092915050565b6000806120b1876123c0565b6120ba83612433565b85600160a060020a0316848660405180828051906020019080838360005b838110156120f05781810151838201526020016120d8565b50505050905090810190601f16801561211d5780820380516001836020036101000a031916815260200191505b5091505060006040518083038160008787f192505050905061213f60006123c0565b610ed46000612433565b60408051600160a060020a03808716825285166020820152808201849052821515606082015290517f27333edb8bdcd40a0ae944fb121b5e2d62ea782683946654a0f5e607a908d5789181900360800190a150505050565b604051303190600160a060020a0383169082156108fc029083906000818181858888f193505050501515611b8b5780826121d96125bf565b600160a060020a039091168152604051908190036020019082f080158015612205573d6000803e3d6000fd5b5050505050565b604080517f70a0823100000000000000000000000000000000000000000000000000000000815230600482015290518391600091600160a060020a038416916370a0823191602480830192602092919082900301818787803b15801561227157600080fd5b505af1158015612285573d6000803e3d6000fd5b505050506040513d602081101561229b57600080fd5b505190506122aa848483612508565b50505050565b606890565b606060008082818515156122fe5760408051808201909152600181527f3000000000000000000000000000000000000000000000000000000000000000602082015294506123b7565b8593505b831561231957600190920191600a84049350612302565b826040519080825280601f01601f191660200182016040528015612347578160200160208202803883390190505b5091505060001982015b85156123b357815160001982019160f860020a6030600a8a06010291849190811061237857fe5b9060200101907effffffffffffffffffffffffffffffffffffffffffffffffffffffffffffff1916908160001a905350600a86049550612351565b8194505b50505050919050565b806002600060405160200180807f6d65737361676553656e64657200000000000000000000000000000000000000815250600d01905060405160208183030381529060405260405180828051906020019080838360208310611c565780518252601f199092019160209182019101611c37565b60408051602080820184905282518083038201815282840184527f7472616e73616374696f6e48617368000000000000000000000000000000000060608401528351604f818503018152606f9093019384905282519093600393600093909282918401908083835b602083106124ba5780518252601f19909201916020918201910161249b565b51815160001960209485036101000a01908116901991909116179052604080519490920184900390932086528583019690965250929093016000208451611b8b9591945092019190506125ce565b60408051600160a060020a03841660248201526044808201849052825180830390910181526064909101909152602081810180517bffffffffffffffffffffffffffffffffffffffffffffffffffffffff167fa9059cbb000000000000000000000000000000000000000000000000000000001781528251606093600093909290918491828a5af1600051935083925080801561010e5750506000835111156125b7578115156125b757600080fd5b505050505050565b60405160218061266783390190565b828054600181600116156101000203166002900490600052602060002090601f016020900481019282601f1061260f57805160ff191683800117855561263c565b8280016001018555821561263c579182015b8281111561263c578251825591602001919060010190612621565b5061264892915061264c565b5090565b6105d991905b8082111561264857600081556001016126525600608060405260405160208060218339810160405251600160a060020a038116ff00a165627a7a723058200253ee9afcb72feb5614b85a28ccd4f9b9ad6f5f406ac1a941100f5e93e8c7a50029",
  "source": "pragma solidity 0.4.24;\n\nimport \"./BasicForeignAMB.sol\";\n\ncontract ForeignAMB is BasicForeignAMB {\n    event UserRequestForAffirmation(bytes encodedData);\n    event RelayedMessage(address sender, address executor, bytes32 transactionHash, bool status);\n\n    function emitEventOnMessageRequest(bytes encodedData) internal {\n        emit UserRequestForAffirmation(encodedData);\n    }\n\n    function emitEventOnMessageProcessed(address sender, address executor, bytes32 txHash, bool status) internal {\n        emit RelayedMessage(sender, executor, txHash, status);\n    }\n}\n",
  "sourcePath": "/contracts/contracts/upgradeable_contracts/arbitrary_message/ForeignAMB.sol",
  "compiler": {
    "name": "solc",
    "version": "0.4.24+commit.e67f0147.Emscripten.clang"
  },
  "schemaVersion": "3.0.9",
  "updatedAt": "2019-09-30T13:18:39.302Z",
  "devdoc": {
    "methods": {
      "owner()": {
        "details": "Tells the address of the owner",
        "return": "the address of the owner"
      },
      "transferOwnership(address)": {
        "details": "Allows the current owner to transfer control of the contract to a newOwner.",
        "params": {
          "newOwner": "the address to transfer ownership to."
        }
      }
    }
  },
  "userdoc": {
    "methods": {}
  }
}