{
  "contractName": "HomeBridgeNativeToErc",
  "abi": [
    {
      "constant": true,
      "inputs": [
        {
          "name": "_message",
          "type": "bytes32"
        }
      ],
      "name": "numMessagesSigned",
      "outputs": [
        {
          "name": "",
          "type": "uint256"
        }
      ],
      "payable": false,
      "stateMutability": "view",
      "type": "function"
    },
    {
      "constant": true,
      "inputs": [
        {
          "name": "_hash",
          "type": "bytes32"
        },
        {
          "name": "_index",
          "type": "uint256"
        }
      ],
      "name": "signature",
      "outputs": [
        {
          "name": "",
          "type": "bytes"
        }
      ],
      "payable": false,
      "stateMutability": "view",
      "type": "function"
    },
    {
      "constant": false,
      "inputs": [
        {
          "name": "_fee",
          "type": "uint256"
        }
      ],
      "name": "setForeignFee",
      "outputs": [],
      "payable": false,
      "stateMutability": "nonpayable",
      "type": "function"
    },
    {
      "constant": true,
      "inputs": [
        {
          "name": "_day",
          "type": "uint256"
        }
      ],
      "name": "totalSpentPerDay",
      "outputs": [
        {
          "name": "",
          "type": "uint256"
        }
      ],
      "payable": false,
      "stateMutability": "view",
      "type": "function"
    },
    {
      "constant": false,
      "inputs": [
        {
          "name": "_fee",
          "type": "uint256"
        }
      ],
      "name": "setHomeFee",
      "outputs": [],
      "payable": false,
      "stateMutability": "nonpayable",
      "type": "function"
    },
    {
      "constant": true,
      "inputs": [],
      "name": "isInitialized",
      "outputs": [
        {
          "name": "",
          "type": "bool"
        }
      ],
      "payable": false,
      "stateMutability": "view",
      "type": "function"
    },
    {
      "constant": false,
      "inputs": [
        {
          "name": "_dailyLimit",
          "type": "uint256"
        }
      ],
      "name": "setExecutionDailyLimit",
      "outputs": [],
      "payable": false,
      "stateMutability": "nonpayable",
      "type": "function"
    },
    {
      "constant": true,
      "inputs": [],
      "name": "getCurrentDay",
      "outputs": [
        {
          "name": "",
          "type": "uint256"
        }
      ],
      "payable": false,
      "stateMutability": "view",
      "type": "function"
    },
    {
      "constant": true,
      "inputs": [],
      "name": "requiredBlockConfirmations",
      "outputs": [
        {
          "name": "",
          "type": "uint256"
        }
      ],
      "payable": false,
      "stateMutability": "view",
      "type": "function"
    },
    {
      "constant": true,
      "inputs": [],
      "name": "requiredMessageLength",
      "outputs": [
        {
          "name": "",
          "type": "uint256"
        }
      ],
      "payable": false,
      "stateMutability": "pure",
      "type": "function"
    },
    {
      "constant": true,
      "inputs": [],
      "name": "executionDailyLimit",
      "outputs": [
        {
          "name": "",
          "type": "uint256"
        }
      ],
      "payable": false,
      "stateMutability": "view",
      "type": "function"
    },
    {
      "constant": true,
      "inputs": [
        {
          "name": "_hash",
          "type": "bytes32"
        }
      ],
      "name": "message",
      "outputs": [
        {
          "name": "",
          "type": "bytes"
        }
      ],
      "payable": false,
      "stateMutability": "view",
      "type": "function"
    },
    {
      "constant": true,
      "inputs": [
        {
          "name": "_day",
          "type": "uint256"
        }
      ],
      "name": "totalExecutedPerDay",
      "outputs": [
        {
          "name": "",
          "type": "uint256"
        }
      ],
      "payable": false,
      "stateMutability": "view",
      "type": "function"
    },
    {
      "constant": false,
      "inputs": [
        {
          "name": "_feeManager",
          "type": "address"
        }
      ],
      "name": "setFeeManagerContract",
      "outputs": [],
      "payable": false,
      "stateMutability": "nonpayable",
      "type": "function"
    },
    {
      "constant": false,
      "inputs": [
        {
          "name": "signature",
          "type": "bytes"
        },
        {
          "name": "message",
          "type": "bytes"
        }
      ],
      "name": "submitSignature",
      "outputs": [],
      "payable": false,
      "stateMutability": "nonpayable",
      "type": "function"
    },
    {
      "constant": true,
      "inputs": [],
      "name": "dailyLimit",
      "outputs": [
        {
          "name": "",
          "type": "uint256"
        }
      ],
      "payable": false,
      "stateMutability": "view",
      "type": "function"
    },
    {
      "constant": false,
      "inputs": [
        {
          "name": "_token",
          "type": "address"
        },
        {
          "name": "_to",
          "type": "address"
        }
      ],
      "name": "claimTokens",
      "outputs": [],
      "payable": false,
      "stateMutability": "nonpayable",
      "type": "function"
    },
    {
      "constant": true,
      "inputs": [
        {
          "name": "_withdrawal",
          "type": "bytes32"
        }
      ],
      "name": "numAffirmationsSigned",
      "outputs": [
        {
          "name": "",
          "type": "uint256"
        }
      ],
      "payable": false,
      "stateMutability": "view",
      "type": "function"
    },
    {
      "constant": true,
      "inputs": [
        {
          "name": "_withdrawal",
          "type": "bytes32"
        }
      ],
      "name": "affirmationsSigned",
      "outputs": [
        {
          "name": "",
          "type": "bool"
        }
      ],
      "payable": false,
      "stateMutability": "view",
      "type": "function"
    },
    {
      "constant": true,
      "inputs": [
        {
          "name": "_amount",
          "type": "uint256"
        }
      ],
      "name": "withinExecutionLimit",
      "outputs": [
        {
          "name": "",
          "type": "bool"
        }
      ],
      "payable": false,
      "stateMutability": "view",
      "type": "function"
    },
    {
      "constant": true,
      "inputs": [],
      "name": "executionMaxPerTx",
      "outputs": [
        {
          "name": "",
          "type": "uint256"
        }
      ],
      "payable": false,
      "stateMutability": "view",
      "type": "function"
    },
    {
      "constant": true,
      "inputs": [],
      "name": "requiredSignatures",
      "outputs": [
        {
          "name": "",
          "type": "uint256"
        }
      ],
      "payable": false,
      "stateMutability": "view",
      "type": "function"
    },
    {
      "constant": true,
      "inputs": [],
      "name": "owner",
      "outputs": [
        {
          "name": "",
          "type": "address"
        }
      ],
      "payable": false,
      "stateMutability": "view",
      "type": "function"
    },
    {
      "constant": true,
      "inputs": [
        {
          "name": "_message",
          "type": "bytes32"
        }
      ],
      "name": "messagesSigned",
      "outputs": [
        {
          "name": "",
          "type": "bool"
        }
      ],
      "payable": false,
      "stateMutability": "view",
      "type": "function"
    },
    {
      "constant": true,
      "inputs": [],
      "name": "getHomeFee",
      "outputs": [
        {
          "name": "",
          "type": "uint256"
        }
      ],
      "payable": false,
      "stateMutability": "view",
      "type": "function"
    },
    {
      "constant": true,
      "inputs": [],
      "name": "validatorContract",
      "outputs": [
        {
          "name": "",
          "type": "address"
        }
      ],
      "payable": false,
      "stateMutability": "view",
      "type": "function"
    },
    {
      "constant": false,
      "inputs": [
        {
          "name": "recipient",
          "type": "address"
        },
        {
          "name": "value",
          "type": "uint256"
        },
        {
          "name": "transactionHash",
          "type": "bytes32"
        }
      ],
      "name": "executeAffirmation",
      "outputs": [],
      "payable": false,
      "stateMutability": "nonpayable",
      "type": "function"
    },
    {
      "constant": true,
      "inputs": [],
      "name": "deployedAtBlock",
      "outputs": [
        {
          "name": "",
          "type": "uint256"
        }
      ],
      "payable": false,
      "stateMutability": "view",
      "type": "function"
    },
    {
      "constant": true,
      "inputs": [],
      "name": "getBridgeInterfacesVersion",
      "outputs": [
        {
          "name": "major",
          "type": "uint64"
        },
        {
          "name": "minor",
          "type": "uint64"
        },
        {
          "name": "patch",
          "type": "uint64"
        }
      ],
      "payable": false,
      "stateMutability": "pure",
      "type": "function"
    },
    {
      "constant": false,
      "inputs": [
        {
          "name": "_minPerTx",
          "type": "uint256"
        }
      ],
      "name": "setMinPerTx",
      "outputs": [],
      "payable": false,
      "stateMutability": "nonpayable",
      "type": "function"
    },
    {
      "constant": false,
      "inputs": [
        {
          "name": "_blockConfirmations",
          "type": "uint256"
        }
      ],
      "name": "setRequiredBlockConfirmations",
      "outputs": [],
      "payable": false,
      "stateMutability": "nonpayable",
      "type": "function"
    },
    {
      "constant": false,
      "inputs": [
        {
          "name": "_dailyLimit",
          "type": "uint256"
        }
      ],
      "name": "setDailyLimit",
      "outputs": [],
      "payable": false,
      "stateMutability": "nonpayable",
      "type": "function"
    },
    {
      "constant": false,
      "inputs": [
        {
          "name": "_gasPrice",
          "type": "uint256"
        }
      ],
      "name": "setGasPrice",
      "outputs": [],
      "payable": false,
      "stateMutability": "nonpayable",
      "type": "function"
    },
    {
      "constant": false,
      "inputs": [
        {
          "name": "_maxPerTx",
          "type": "uint256"
        }
      ],
      "name": "setMaxPerTx",
      "outputs": [],
      "payable": false,
      "stateMutability": "nonpayable",
      "type": "function"
    },
    {
      "constant": true,
      "inputs": [],
      "name": "decimalShift",
      "outputs": [
        {
          "name": "",
          "type": "uint256"
        }
      ],
      "payable": false,
      "stateMutability": "view",
      "type": "function"
    },
    {
      "constant": true,
      "inputs": [],
      "name": "feeManagerContract",
      "outputs": [
        {
          "name": "",
          "type": "address"
        }
      ],
      "payable": false,
      "stateMutability": "view",
      "type": "function"
    },
    {
      "constant": true,
      "inputs": [],
      "name": "minPerTx",
      "outputs": [
        {
          "name": "",
          "type": "uint256"
        }
      ],
      "payable": false,
      "stateMutability": "view",
      "type": "function"
    },
    {
      "constant": true,
      "inputs": [
        {
          "name": "_amount",
          "type": "uint256"
        }
      ],
      "name": "withinLimit",
      "outputs": [
        {
          "name": "",
          "type": "bool"
        }
      ],
      "payable": false,
      "stateMutability": "view",
      "type": "function"
    },
    {
      "constant": false,
      "inputs": [
        {
          "name": "_maxPerTx",
          "type": "uint256"
        }
      ],
      "name": "setExecutionMaxPerTx",
      "outputs": [],
      "payable": false,
      "stateMutability": "nonpayable",
      "type": "function"
    },
    {
      "constant": true,
      "inputs": [],
      "name": "getFeeManagerMode",
      "outputs": [
        {
          "name": "",
          "type": "bytes4"
        }
      ],
      "payable": false,
      "stateMutability": "view",
      "type": "function"
    },
    {
      "constant": false,
      "inputs": [
        {
          "name": "newOwner",
          "type": "address"
        }
      ],
      "name": "transferOwnership",
      "outputs": [],
      "payable": false,
      "stateMutability": "nonpayable",
      "type": "function"
    },
    {
      "constant": true,
      "inputs": [],
      "name": "maxPerTx",
      "outputs": [
        {
          "name": "",
          "type": "uint256"
        }
      ],
      "payable": false,
      "stateMutability": "view",
      "type": "function"
    },
    {
      "constant": true,
      "inputs": [],
      "name": "gasPrice",
      "outputs": [
        {
          "name": "",
          "type": "uint256"
        }
      ],
      "payable": false,
      "stateMutability": "view",
      "type": "function"
    },
    {
      "constant": true,
      "inputs": [
        {
          "name": "_number",
          "type": "uint256"
        }
      ],
      "name": "isAlreadyProcessed",
      "outputs": [
        {
          "name": "",
          "type": "bool"
        }
      ],
      "payable": false,
      "stateMutability": "pure",
      "type": "function"
    },
    {
      "constant": true,
      "inputs": [],
      "name": "getForeignFee",
      "outputs": [
        {
          "name": "",
          "type": "uint256"
        }
      ],
      "payable": false,
      "stateMutability": "view",
      "type": "function"
    },
    {
      "payable": true,
      "stateMutability": "payable",
      "type": "fallback"
    },
    {
      "anonymous": false,
      "inputs": [
        {
          "indexed": false,
          "name": "feeAmount",
          "type": "uint256"
        },
        {
          "indexed": true,
          "name": "transactionHash",
          "type": "bytes32"
        }
      ],
      "name": "FeeDistributedFromAffirmation",
      "type": "event"
    },
    {
      "anonymous": false,
      "inputs": [
        {
          "indexed": false,
          "name": "feeAmount",
          "type": "uint256"
        },
        {
          "indexed": true,
          "name": "transactionHash",
          "type": "bytes32"
        }
      ],
      "name": "FeeDistributedFromSignatures",
      "type": "event"
    },
    {
      "anonymous": false,
      "inputs": [
        {
          "indexed": false,
          "name": "recipient",
          "type": "address"
        },
        {
          "indexed": false,
          "name": "value",
          "type": "uint256"
        }
      ],
      "name": "UserRequestForSignature",
      "type": "event"
    },
    {
      "anonymous": false,
      "inputs": [
        {
          "indexed": false,
          "name": "recipient",
          "type": "address"
        },
        {
          "indexed": false,
          "name": "value",
          "type": "uint256"
        },
        {
          "indexed": false,
          "name": "transactionHash",
          "type": "bytes32"
        }
      ],
      "name": "AffirmationCompleted",
      "type": "event"
    },
    {
      "anonymous": false,
      "inputs": [
        {
          "indexed": true,
          "name": "signer",
          "type": "address"
        },
        {
          "indexed": false,
          "name": "messageHash",
          "type": "bytes32"
        }
      ],
      "name": "SignedForUserRequest",
      "type": "event"
    },
    {
      "anonymous": false,
      "inputs": [
        {
          "indexed": true,
          "name": "signer",
          "type": "address"
        },
        {
          "indexed": false,
          "name": "transactionHash",
          "type": "bytes32"
        }
      ],
      "name": "SignedForAffirmation",
      "type": "event"
    },
    {
      "anonymous": false,
      "inputs": [
        {
          "indexed": false,
          "name": "authorityResponsibleForRelay",
          "type": "address"
        },
        {
          "indexed": false,
          "name": "messageHash",
          "type": "bytes32"
        },
        {
          "indexed": false,
          "name": "NumberOfCollectedSignatures",
          "type": "uint256"
        }
      ],
      "name": "CollectedSignatures",
      "type": "event"
    },
    {
      "anonymous": false,
      "inputs": [
        {
          "indexed": false,
          "name": "newLimit",
          "type": "uint256"
        }
      ],
      "name": "DailyLimitChanged",
      "type": "event"
    },
    {
      "anonymous": false,
      "inputs": [
        {
          "indexed": false,
          "name": "newLimit",
          "type": "uint256"
        }
      ],
      "name": "ExecutionDailyLimitChanged",
      "type": "event"
    },
    {
      "anonymous": false,
      "inputs": [
        {
          "indexed": false,
          "name": "gasPrice",
          "type": "uint256"
        }
      ],
      "name": "GasPriceChanged",
      "type": "event"
    },
    {
      "anonymous": false,
      "inputs": [
        {
          "indexed": false,
          "name": "requiredBlockConfirmations",
          "type": "uint256"
        }
      ],
      "name": "RequiredBlockConfirmationChanged",
      "type": "event"
    },
    {
      "anonymous": false,
      "inputs": [
        {
          "indexed": false,
          "name": "previousOwner",
          "type": "address"
        },
        {
          "indexed": false,
          "name": "newOwner",
          "type": "address"
        }
      ],
      "name": "OwnershipTransferred",
      "type": "event"
    },
    {
      "constant": false,
      "inputs": [
        {
          "name": "_validatorContract",
          "type": "address"
        },
        {
          "name": "_dailyLimitMaxPerTxMinPerTxArray",
          "type": "uint256[]"
        },
        {
          "name": "_homeGasPrice",
          "type": "uint256"
        },
        {
          "name": "_requiredBlockConfirmations",
          "type": "uint256"
        },
        {
          "name": "_foreignDailyLimitForeignMaxPerTxArray",
          "type": "uint256[]"
        },
        {
          "name": "_owner",
          "type": "address"
        },
        {
          "name": "_decimalShift",
          "type": "uint256"
        }
      ],
      "name": "initialize",
      "outputs": [
        {
          "name": "",
          "type": "bool"
        }
      ],
      "payable": false,
      "stateMutability": "nonpayable",
      "type": "function"
    },
    {
      "constant": false,
      "inputs": [
        {
          "name": "_validatorContract",
          "type": "address"
        },
        {
          "name": "_dailyLimitMaxPerTxMinPerTxArray",
          "type": "uint256[]"
        },
        {
          "name": "_homeGasPrice",
          "type": "uint256"
        },
        {
          "name": "_requiredBlockConfirmations",
          "type": "uint256"
        },
        {
          "name": "_foreignDailyLimitForeignMaxPerTxArray",
          "type": "uint256[]"
        },
        {
          "name": "_owner",
          "type": "address"
        },
        {
          "name": "_feeManager",
          "type": "address"
        },
        {
          "name": "_homeFeeForeignFeeArray",
          "type": "uint256[]"
        },
        {
          "name": "_decimalShift",
          "type": "uint256"
        }
      ],
      "name": "rewardableInitialize",
      "outputs": [
        {
          "name": "",
          "type": "bool"
        }
      ],
      "payable": false,
      "stateMutability": "nonpayable",
      "type": "function"
    },
    {
      "constant": true,
      "inputs": [],
      "name": "getBridgeMode",
      "outputs": [
        {
          "name": "_data",
          "type": "bytes4"
        }
      ],
      "payable": false,
      "stateMutability": "pure",
      "type": "function"
    }
  ],
  "bytecode": "0x608060405234801561001057600080fd5b50614e7c806100206000396000f30060806040526004361061022c5763ffffffff60e060020a6000350416630cbf060181146102365780631812d99614610260578063286c4066146102f05780632bd0bb051461030857806334a9e14814610320578063392e53cd146103385780633b459a45146103615780633dd95d1b146103bf5780633e6968b6146103d75780633f0a9f65146103ec578063408fef2e14610401578063437764df1461041657806343b37dd31461045d578063490a32c6146104725780634fb3fef71461048a57806360756f7c146104a2578063630cea8e146104c357806367eeba0c146104ef57806369ffa08a146105045780636ae1a9761461052b5780637698da2414610543578063879ce6761461055b5780638aa1949a146105735780638d068043146105885780638d4116ce1461059d5780638da5cb5b146105e85780638f4b4b981461061957806394da17cd146106315780639943908914610646578063995b2cff1461065b5780639a454b99146106825780639cb7595a14610697578063a2a6ca27146106d8578063acf5c689146106f0578063b20d30a914610708578063bf1fe42014610720578063c6f6f21614610738578063dae5f0fd14610750578063dbe03a8b14610765578063df25f3f01461077a578063ea9f49681461078f578063f20151e1146107a7578063f2ba9561146107bf578063f2fde38b146107d4578063f968adbe146107f5578063fe173b971461080a578063ffd19e8c1461081f578063ffd6619614610837575b61023461084c565b005b34801561024257600080fd5b5061024e6004356109b2565b60408051918252519081900360200190f35b34801561026c57600080fd5b5061027b600435602435610a77565b6040805160208082528351818301528351919283929083019185019080838360005b838110156102b557818101518382015260200161029d565b50505050905090810190601f1680156102e25780820380516001836020036101000a031916815260200191505b509250505060405180910390f35b3480156102fc57600080fd5b50610234600435610c54565b34801561031457600080fd5b5061024e600435610d0e565b34801561032c57600080fd5b50610234600435610d89565b34801561034457600080fd5b5061034d610e0d565b604080519115158252519081900360200190f35b34801561036d57600080fd5b5061034d60048035600160a060020a039081169160248035808201939083013592604435926064359260843580830193908101359260a43583169260c435169160e43591820191013561010435610ec6565b3480156103cb57600080fd5b50610234600435611130565b3480156103e357600080fd5b5061024e611250565b3480156103f857600080fd5b5061024e611259565b34801561040d57600080fd5b5061024e61130d565b34801561042257600080fd5b5061042b61131c565b604080517bffffffffffffffffffffffffffffffffffffffffffffffffffffffff199092168252519081900360200190f35b34801561046957600080fd5b5061024e6113bf565b34801561047e57600080fd5b5061027b600435611432565b34801561049657600080fd5b5061024e60043561159a565b3480156104ae57600080fd5b50610234600160a060020a0360043516611615565b3480156104cf57600080fd5b506102346024600480358281019290820135918135918201910135611733565b3480156104fb57600080fd5b5061024e611bc9565b34801561051057600080fd5b50610234600160a060020a0360043581169060243516611c3c565b34801561053757600080fd5b5061024e600435611cdf565b34801561054f57600080fd5b5061034d600435611d62565b34801561056757600080fd5b5061034d600435611e2b565b34801561057f57600080fd5b5061024e611e69565b34801561059457600080fd5b5061024e611edc565b3480156105a957600080fd5b5061034d600160a060020a0360048035821691602480358082019390810135926044359260643592608435918201929101359060a4351660c435611f54565b3480156105f457600080fd5b506105fd611fe1565b60408051600160a060020a039092168252519081900360200190f35b34801561062557600080fd5b5061034d60043561209f565b34801561063d57600080fd5b5061024e612123565b34801561065257600080fd5b506105fd6121b7565b34801561066757600080fd5b50610234600160a060020a036004351660243560443561222b565b34801561068e57600080fd5b5061024e612525565b3480156106a357600080fd5b506106ac612598565b6040805167ffffffffffffffff9485168152928416602084015292168183015290519081900360600190f35b3480156106e457600080fd5b506102346004356125a3565b3480156106fc57600080fd5b5061023460043561269a565b34801561071457600080fd5b506102346004356127a9565b34801561072c57600080fd5b506102346004356128c9565b34801561074457600080fd5b506102346004356129d8565b34801561075c57600080fd5b5061024e612a79565b34801561077157600080fd5b506105fd612aec565b34801561078657600080fd5b5061024e612b60565b34801561079b57600080fd5b5061034d600435612bd3565b3480156107b357600080fd5b50610234600435612c1e565b3480156107cb57600080fd5b5061042b612cbf565b3480156107e057600080fd5b50610234600160a060020a0360043516612d40565b34801561080157600080fd5b5061024e612d7a565b34801561081657600080fd5b5061024e612ded565b34801561082b57600080fd5b5061034d600435612e60565b34801561084357600080fd5b5061024e612e88565b6000808034811061085c57600080fd5b361561086757600080fd5b61087034612bd3565b151561087b57600080fd5b6108ab610886611250565b6108a63461089a610895611250565b610d0e565b9063ffffffff612ee916565b612efc565b3492506108b6612aec565b9150600160a060020a038216156109725761095d836000846040516020018080600080516020614e3183398151915281525060080190506040516020818303038152906040526040518082805190602001908083835b6020831061092b5780518252601f19909201916020918201910161090c565b6001836020036101000a0380198251168184511680821785525050505050509050019150506040518091039020612fb9565b905061096f838263ffffffff61304416565b92505b604080513381526020810185905281517f127650bcfb0ba017401abe4931453a405140a8fd36fece67bae2db174d3fdd63929181900390910190a1505050565b60008060008360405160200180807f6e756d4d657373616765735369676e656400000000000000000000000000000081525060110182600019166000191681526020019150506040516020818303038152906040526040518082805190602001908083835b60208310610a365780518252601f199092019160209182019101610a17565b51815160209384036101000a600019018019909216911617905260408051929094018290039091208652850195909552929092016000205495945050505050565b604080516020808201859052818301849052825180830384018152606092830193849052805192936000939192909182918401908083835b60208310610ace5780518252601f199092019160209182019101610aaf565b51815160209384036101000a6000190180199092169116179052604080519290940182900382207f7369676e6174757265730000000000000000000000000000000000000000000083830152602a80840182905285518085039091018152604a9093019485905282519097506003965060009550919392508291908401908083835b60208310610b6f5780518252601f199092019160209182019101610b50565b6001836020036101000a0380198251168184511680821785525050505050509050019150506040518091039020600019166000191681526020019081526020016000208054600181600116156101000203166002900480601f016020809104026020016040519081016040528092919081815260200182805460018160011615610100020316600290048015610c465780601f10610c1b57610100808354040283529160200191610c46565b820191906000526020600020905b815481529060010190602001808311610c2957829003601f168201915b505050505091505092915050565b610c5c611fe1565b600160a060020a03163314610c7057600080fd5b610d0b610c7b612aec565b826040516020018080600080516020614e11833981519152815250600b0190506040516020818303038152906040526040518082805190602001908083835b60208310610cd95780518252601f199092019160209182019101610cba565b6001836020036101000a0380198251168184511680821785525050505050509050019150506040518091039020613056565b50565b60008060008360405160200180807f746f74616c5370656e745065724461790000000000000000000000000000000081525060100182815260200191505060405160208183030381529060405260405180828051906020019080838360208310610a365780518252601f199092019160209182019101610a17565b610d91611fe1565b600160a060020a03163314610da557600080fd5b610d0b610db0612aec565b826040516020018080600080516020614e31833981519152815250600801905060405160208183030381529060405260405180828051906020019080838360208310610cd95780518252601f199092019160209182019101610cba565b60006004600060405160200180807f6973496e697469616c697a656400000000000000000000000000000000000000815250600d0190506040516020818303038152906040526040518082805190602001908083835b60208310610e825780518252601f199092019160209182019101610e63565b51815160209384036101000a600019018019909216911617905260408051929094018290039091208652850195909552929092016000205460ff1693505050505b90565b6000610f358d8d8d808060200260200160405190810160405280939291908181526020018383602002808284378201915050505050508c8c8c8c808060200260200160405190810160405280939291908181526020018383602002808284378201915050505050508b88613208565b610f3e85613bbd565b1515610f4957600080fd5b846002600060405160200180807f6665654d616e61676572436f6e7472616374000000000000000000000000000081525060120190506040516020818303038152906040526040518082805190602001908083835b60208310610fbd5780518252601f199092019160209182019101610f9e565b51815160209384036101000a600019018019909216911617905260408051929094018290039091208652850195909552929092016000908120805473ffffffffffffffffffffffffffffffffffffffff1916600160a060020a0396909616959095179094555061109b92889250879150869081811061103857fe5b905060200201356040516020018080600080516020614e31833981519152815250600801905060405160208183030381529060405260405180828051906020019080838360208310610cd95780518252601f199092019160209182019101610cba565b61110f85858560018181106110ac57fe5b905060200201356040516020018080600080516020614e11833981519152815250600b01905060405160208183030381529060405260405180828051906020019080838360208310610cd95780518252601f199092019160209182019101610cba565b611117613bc5565b61111f610e0d565b9d9c50505050505050505050505050565b611138611fe1565b600160a060020a0316331461114c57600080fd5b611154611e69565b81118061115f575080155b151561116a57600080fd5b8060008060405160200180807f657865637574696f6e4461696c794c696d69740000000000000000000000000081525060130190506040516020818303038152906040526040518082805190602001908083835b602083106111dd5780518252601f1990920191602091820191016111be565b51815160001960209485036101000a019081169019919091161790526040805194909201849003909320865285830196909652509284016000209490945550815184815291517f9bebf928b90863f24cc31f726a3a7545efd409f1dcf552301b1ee3710da70d3b9350918290030190a150565b62015180420490565b600080600060405160200180807f7265717569726564426c6f636b436f6e6669726d6174696f6e73000000000000815250601a0190506040516020818303038152906040526040518082805190602001908083835b602083106112cd5780518252601f1990920191602091820191016112ae565b51815160209384036101000a6000190180199092169116179052604080519290940182900390912086528501959095529290920160002054949350505050565b6000611317613c86565b905090565b600060405160200180807f6e61746976652d746f2d6572632d636f7265000000000000000000000000000081525060120190506040516020818303038152906040526040518082805190602001908083835b6020831061138d5780518252601f19909201916020918201910161136e565b6001836020036101000a0380198251168184511680821785525050505050509050019150506040518091039020905090565b600080600060405160200180807f657865637574696f6e4461696c794c696d6974000000000000000000000000008152506013019050604051602081830303815290604052604051808280519060200190808383602083106112cd5780518252601f1990920191602091820191016112ae565b6060600360008360405160200180807f6d6573736167657300000000000000000000000000000000000000000000000081525060080182600019166000191681526020019150506040516020818303038152906040526040518082805190602001908083835b602083106114b75780518252601f199092019160209182019101611498565b6001836020036101000a0380198251168184511680821785525050505050509050019150506040518091039020600019166000191681526020019081526020016000208054600181600116156101000203166002900480601f01602080910402602001604051908101604052809291908181526020018280546001816001161561010002031660029004801561158e5780601f106115635761010080835404028352916020019161158e565b820191906000526020600020905b81548152906001019060200180831161157157829003601f168201915b50505050509050919050565b60008060008360405160200180807f746f74616c45786563757465645065724461790000000000000000000000000081525060130182815260200191505060405160208183030381529060405260405180828051906020019080838360208310610a365780518252601f199092019160209182019101610a17565b61161d611fe1565b600160a060020a0316331461163157600080fd5b600160a060020a038116158061164b575061164b81613bbd565b151561165657600080fd5b806002600060405160200180807f6665654d616e61676572436f6e7472616374000000000000000000000000000081525060120190506040516020818303038152906040526040518082805190602001908083835b602083106116ca5780518252601f1990920191602091820191016116ab565b51815160209384036101000a60001901801990921691161790526040805192909401829003909120865285019590955292909201600020805473ffffffffffffffffffffffffffffffffffffffff1916600160a060020a03959095169490941790935550505050565b60008060008060006117436121b7565b600160a060020a031663facd743b336040518263ffffffff1660e060020a0281526004018082600160a060020a0316600160a060020a03168152602001915050602060405180830381600087803b15801561179d57600080fd5b505af11580156117b1573d6000803e3d6000fd5b505050506040513d60208110156117c757600080fd5b505115156117d457600080fd5b61180d87878080601f01602080910402602001604051908101604052809392919081815260200183838082843750613c8b945050505050565b151561181857600080fd5b61188289898080601f0160208091040260200160405190810160405280939291908181526020018383808284375050604080516020601f8f018190048102820181019092528d815294508d93508c925082915084018382808284375060009450613c9f9350505050565b600160a060020a0316331461189657600080fd5b8686604051602001808383808284378201915050925050506040516020818303038152906040526040518082805190602001908083835b602083106118ec5780518252601f1990920191602091820191016118cd565b51815160209384036101000a600019018019909216911617905260408051929094018290038220336c0100000000000000000000000002838301526034808401829052855180850390910181526054909301948590528251909b509195509293508392850191508083835b602083106119765780518252601f199092019160209182019101611957565b6001836020036101000a038019825116818451168082178552505050505050905001915050604051809103902093506119ae856109b2565b92506119b983612e60565b156119c357600080fd5b6001928301928311156119e8576119d98461209f565b156119e357600080fd5b611a22565b611a228588888080601f01602080910402602001604051908101604052809392919081815260200183838082843750613d61945050505050565b611a2d846001613e33565b604080516020808201889052600019860182840152825180830384018152606090920192839052815191929182918401908083835b60208310611a815780518252601f199092019160209182019101611a62565b51815160209384036101000a600019018019909216911617905260408051929094018290038220601f8f018290048202830182019094528d8252929650611ae29450869350918d91508c908190840183828082843750613f05945050505050565b611aec8584613f88565b60408051868152905133917fbf06885f40778f5ccfb64497d3f92ce568ddaedb7e2fb4487f72690418cf8e4c919081900360200190a2611b2a611edc565b9050808310611bbe57611b4585611b408561400a565b613f88565b604080513381526020810187905280820183905290517f415557404d88a0c0b8e3b16967cafffc511213fd9c465c16832ee17ed57d72379181900360600190a1611bbe87878080601f0160208091040260200160405190810160405280939291908181526020018383808284375061402f945050505050565b505050505050505050565b600080600060405160200180807f6461696c794c696d697400000000000000000000000000000000000000000000815250600a019050604051602081830303815290604052604051808280519060200190808383602083106112cd5780518252601f1990920191602091820191016112ae565b30600160a060020a0316636fde82026040518163ffffffff1660e060020a028152600401602060405180830381600087803b158015611c7a57600080fd5b505af1158015611c8e573d6000803e3d6000fd5b505050506040513d6020811015611ca457600080fd5b5051600160a060020a03163314611cba57600080fd5b80600160a060020a0381161515611cd057600080fd5b611cda83836140e9565b505050565b60008060008360405160200180807f6e756d41666669726d6174696f6e735369676e65640000000000000000000000815250601501826000191660001916815260200191505060405160208183030381529060405260405180828051906020019080838360208310610a365780518252601f199092019160209182019101610a17565b6000600460008360405160200180807f61666669726d6174696f6e735369676e6564000000000000000000000000000081525060120182600019166000191681526020019150506040516020818303038152906040526040518082805190602001908083835b60208310611de75780518252601f199092019160209182019101611dc8565b51815160209384036101000a600019018019909216911617905260408051929094018290039091208652850195909552929092016000205460ff1695945050505050565b600080611e428361089a611e3d611250565b61159a565b905080611e4d6113bf565b10158015611e625750611e5e611e69565b8311155b9392505050565b600080600060405160200180807f657865637574696f6e4d617850657254780000000000000000000000000000008152506011019050604051602081830303815290604052604051808280519060200190808383602083106112cd5780518252601f1990920191602091820191016112ae565b6000611ee66121b7565b600160a060020a0316638d0680436040518163ffffffff1660e060020a028152600401602060405180830381600087803b158015611f2357600080fd5b505af1158015611f37573d6000803e3d6000fd5b505050506040513d6020811015611f4d57600080fd5b5051905090565b6000611fc38a8a8a8080602002602001604051908101604052809392919081815260200183836020028082843782019150505050505089898989808060200260200160405190810160405280939291908181526020018383602002808284378201915050505050508888613208565b611fcb613bc5565b611fd3610e0d565b9a9950505050505050505050565b60006002600060405160200180807f6f776e657200000000000000000000000000000000000000000000000000000081525060050190506040516020818303038152906040526040518082805190602001908083835b602083106120565780518252601f199092019160209182019101612037565b51815160209384036101000a6000190180199092169116179052604080519290940182900390912086528501959095529290920160002054600160a060020a0316949350505050565b6000600460008360405160200180807f6d657373616765735369676e6564000000000000000000000000000000000000815250600e01826000191660001916815260200191505060405160208183030381529060405260405180828051906020019080838360208310611de75780518252601f199092019160209182019101611dc8565b60006113176040516020018080600080516020614e3183398151915281525060080190506040516020818303038152906040526040518082805190602001908083835b602083106121855780518252601f199092019160209182019101612166565b6001836020036101000a0380198251168184511680821785525050505050509050019150506040518091039020614115565b60006002600060405160200180807f76616c696461746f72436f6e74726163740000000000000000000000000000008152506011019050604051602081830303815290604052604051808280519060200190808383602083106120565780518252601f199092019160209182019101612037565b60008060006122386121b7565b600160a060020a031663facd743b336040518263ffffffff1660e060020a0281526004018082600160a060020a0316600160a060020a03168152602001915050602060405180830381600087803b15801561229257600080fd5b505af11580156122a6573d6000803e3d6000fd5b505050506040513d60208110156122bc57600080fd5b505115156122c957600080fd5b6122d285611e2b565b1561251257604080516c01000000000000000000000000600160a060020a0389160260208083019190915260348201889052605480830188905283518084039091018152607490920192839052815191929182918401908083835b6020831061234c5780518252601f19909201916020918201910161232d565b51815160209384036101000a600019018019909216911617905260408051929094018290038220336c01000000000000000000000000028383015260348084018290528551808503909101815260549093019485905282519099509195509293508392850191508083835b602083106123d65780518252601f1990920191602091820191016123b7565b6001836020036101000a0380198251168184511680821785525050505050509050019150506040518091039020915061240e82611d62565b1561241857600080fd5b61242382600161426d565b61242c83611cdf565b905061243781612e60565b1561244157600080fd5b60010161244e83826142f0565b60408051858152905133917f5df9cc3eb93d8a9a481857a3b70a8ca966e6b80b25cf0ee2cce180ec5afa80a1919081900360200190a261248c611edc565b811061250d576124a48361249f8361400a565b6142f0565b60008511156124c3576124b8868686614372565b15156124c357600080fd5b60408051600160a060020a03881681526020810187905280820186905290517f6fc115a803b8703117d9a3956c5a15401cb42401f91630f015eb6b043fa762539181900360600190a15b61251d565b61251d868686612d31565b505050505050565b600080600060405160200180807f6465706c6f7965644174426c6f636b0000000000000000000000000000000000815250600f019050604051602081830303815290604052604051808280519060200190808383602083106112cd5780518252601f1990920191602091820191016112ae565b600260036000909192565b6125ab611fe1565b600160a060020a031633146125bf57600080fd5b6125c7611bc9565b811080156125db57506125d8612d7a565b81105b15156125e657600080fd5b8060008060405160200180807f6d696e506572547800000000000000000000000000000000000000000000000081525060080190506040516020818303038152906040526040518082805190602001908083835b602083106126595780518252601f19909201916020918201910161263a565b51815160209384036101000a600019018019909216911617905260408051929094018290039091208652850195909552929092016000209390935550505050565b6126a2611fe1565b600160a060020a031633146126b657600080fd5b600081116126c357600080fd5b8060008060405160200180807f7265717569726564426c6f636b436f6e6669726d6174696f6e73000000000000815250601a0190506040516020818303038152906040526040518082805190602001908083835b602083106127365780518252601f199092019160209182019101612717565b51815160001960209485036101000a019081169019919091161790526040805194909201849003909320865285830196909652509284016000209490945550815184815291517f4fb76205cd57c896b21511d2114137d8e901b4ccd659e1a0f97d6306795264fb9350918290030190a150565b6127b1611fe1565b600160a060020a031633146127c557600080fd5b6127cd612d7a565b8111806127d8575080155b15156127e357600080fd5b8060008060405160200180807f6461696c794c696d697400000000000000000000000000000000000000000000815250600a0190506040516020818303038152906040526040518082805190602001908083835b602083106128565780518252601f199092019160209182019101612837565b51815160001960209485036101000a019081169019919091161790526040805194909201849003909320865285830196909652509284016000209490945550815184815291517fad4123ae17c414d9c6d2fec478b402e6b01856cc250fd01fbfd252fda0089d3c9350918290030190a150565b6128d1611fe1565b600160a060020a031633146128e557600080fd5b600081116128f257600080fd5b8060008060405160200180807f676173507269636500000000000000000000000000000000000000000000000081525060080190506040516020818303038152906040526040518082805190602001908083835b602083106129655780518252601f199092019160209182019101612946565b51815160001960209485036101000a019081169019919091161790526040805194909201849003909320865285830196909652509284016000209490945550815184815291517f52264b89e0fceafb26e79fd49ef8a366eb6297483bf4035b027f0c99a7ad512e9350918290030190a150565b6129e0611fe1565b600160a060020a031633146129f457600080fd5b6129fc611bc9565b8110612a0757600080fd5b8060008060405160200180807f6d617850657254780000000000000000000000000000000000000000000000008152506008019050604051602081830303815290604052604051808280519060200190808383602083106126595780518252601f19909201916020918201910161263a565b600080600060405160200180807f646563696d616c53686966740000000000000000000000000000000000000000815250600c019050604051602081830303815290604052604051808280519060200190808383602083106112cd5780518252601f1990920191602091820191016112ae565b60006002600060405160200180807f6665654d616e61676572436f6e747261637400000000000000000000000000008152506012019050604051602081830303815290604052604051808280519060200190808383602083106120565780518252601f199092019160209182019101612037565b600080600060405160200180807f6d696e50657254780000000000000000000000000000000000000000000000008152506008019050604051602081830303815290604052604051808280519060200190808383602083106112cd5780518252601f1990920191602091820191016112ae565b600080612be58361089a610895611250565b905080612bf0611bc9565b10158015612c055750612c01612d7a565b8311155b8015611e625750612c14612b60565b9092101592915050565b612c26611fe1565b600160a060020a03163314612c3a57600080fd5b612c426113bf565b8110612c4d57600080fd5b8060008060405160200180807f657865637574696f6e4d617850657254780000000000000000000000000000008152506011019050604051602081830303815290604052604051808280519060200190808383602083106126595780518252601f19909201916020918201910161263a565b604080516004815260248101909152602081018051600160e060020a03167ff2ba956100000000000000000000000000000000000000000000000000000000179052600090819081612d0f612aec565b9050600460008351602085016000855af26000519350808015612d3157612d36565b600080fd5b5092949350505050565b612d48611fe1565b600160a060020a03163314612d5c57600080fd5b600160a060020a0381161515612d7157600080fd5b610d0b816144c2565b600080600060405160200180807f6d617850657254780000000000000000000000000000000000000000000000008152506008019050604051602081830303815290604052604051808280519060200190808383602083106112cd5780518252601f1990920191602091820191016112ae565b600080600060405160200180807f67617350726963650000000000000000000000000000000000000000000000008152506008019050604051602081830303815290604052604051808280519060200190808383602083106112cd5780518252601f1990920191602091820191016112ae565b7f80000000000000000000000000000000000000000000000000000000000000009081161490565b60006113176040516020018080600080516020614e11833981519152815250600b019050604051602081830303815290604052604051808280519060200190808383602083106121855780518252601f199092019160209182019101612166565b81810182811015612ef657fe5b92915050565b806000808460405160200180807f746f74616c5370656e74506572446179000000000000000000000000000000008152506010018281526020019150506040516020818303038152906040526040518082805190602001908083835b60208310612f775780518252601f199092019160209182019101612f58565b51815160209384036101000a60001901801990921691161790526040805192909401829003909120865285019590955292909201600020939093555050505050565b60408051602481018690528415156044820152606480820184905282518083039091018152608490910190915260208181018051600160e060020a03167f9862f26f000000000000000000000000000000000000000000000000000000001781528251600093849390929091849182895af26000519250808015612d31575091979650505050505050565b60008282111561305057fe5b50900390565b60006040516020018080600080516020614e3183398151915281525060080190506040516020818303038152906040526040518082805190602001908083835b602083106130b55780518252601f199092019160209182019101613096565b5181516020939093036101000a600019018019909116921691909117905260405192018290039091208514925061310f915050577f286c406600000000000000000000000000000000000000000000000000000000613131565b7f34a9e148000000000000000000000000000000000000000000000000000000005b6040805160248082018790528251808303909101815260449091018252602081018051600160e060020a03167bffffffffffffffffffffffffffffffffffffffffffffffffffffffff19851617815291518151939450600160a060020a038816939192909182919080838360005b838110156131b757818101518382015260200161319f565b50505050905090810190601f1680156131e45780820380516001836020036101000a031916815260200191505b50915050600060405180830381855af4915050151561320257600080fd5b50505050565b613210610e0d565b1561321a57600080fd5b61322387613bbd565b151561322e57600080fd5b6000851161323b57600080fd5b6000841161324857600080fd5b600086600281518110151561325957fe5b9060200190602002015111801561329f575085600281518110151561327a57fe5b9060200190602002015186600181518110151561329357fe5b90602001906020020151115b80156132da57508560018151811015156132b557fe5b906020019060200201518660008151811015156132ce57fe5b90602001906020020151115b15156132e557600080fd5b8260008151811015156132f457fe5b9060200190602002015183600181518110151561330d57fe5b602090810290910101511061332157600080fd5b600160a060020a038216151561333657600080fd5b866002600060405160200180807f76616c696461746f72436f6e747261637400000000000000000000000000000081525060110190506040516020818303038152906040526040518082805190602001908083835b602083106133aa5780518252601f19909201916020918201910161338b565b51815160209384036101000a60001901801990921691161790526040805192909401829003909120865285810196909652509283016000908120805473ffffffffffffffffffffffffffffffffffffffff1916600160a060020a039790971696909617909555505080517f6465706c6f7965644174426c6f636b0000000000000000000000000000000000818401528151600f818303018152602f90910191829052805143949384939182918401908083835b6020831061347c5780518252601f19909201916020918201910161345d565b51815160209384036101000a60001901801990921691161790526040805192909401829003909120865285019590955292909201600090812094909455505087518892915081106134c957fe5b9060200190602002015160008060405160200180807f6461696c794c696d697400000000000000000000000000000000000000000000815250600a0190506040516020818303038152906040526040518082805190602001908083835b602083106135455780518252601f199092019160209182019101613526565b51815160209384036101000a600019018019909216911617905260408051929094018290039091208652850195909552929092016000209390935550508651879150600190811061359257fe5b9060200190602002015160008060405160200180807f6d6178506572547800000000000000000000000000000000000000000000000081525060080190506040516020818303038152906040526040518082805190602001908083835b6020831061360e5780518252601f1990920191602091820191016135ef565b51815160209384036101000a600019018019909216911617905260408051929094018290039091208652850195909552929092016000209390935550508651879150600290811061365b57fe5b9060200190602002015160008060405160200180807f6d696e506572547800000000000000000000000000000000000000000000000081525060080190506040516020818303038152906040526040518082805190602001908083835b602083106136d75780518252601f1990920191602091820191016136b8565b51815160209384036101000a6000190180199092169116179052604080519290940182900390912086528581019690965250928301600090812095909555505080517f67617350726963650000000000000000000000000000000000000000000000008184015281516008818303018152602890910191829052805189949384939182918401908083835b602083106137815780518252601f199092019160209182019101613762565b51815160209384036101000a6000190180199092169116179052604080519290940182900390912086528581019690965250928301600090812095909555505080517f7265717569726564426c6f636b436f6e6669726d6174696f6e73000000000000818401528151601a818303018152603a90910191829052805188949384939182918401908083835b6020831061382b5780518252601f19909201916020918201910161380c565b51815160209384036101000a600019018019909216911617905260408051929094018290039091208652850195909552929092016000908120949094555050845185929150811061387857fe5b9060200190602002015160008060405160200180807f657865637574696f6e4461696c794c696d69740000000000000000000000000081525060130190506040516020818303038152906040526040518082805190602001908083835b602083106138f45780518252601f1990920191602091820191016138d5565b51815160209384036101000a600019018019909216911617905260408051929094018290039091208652850195909552929092016000209390935550508351849150600190811061394157fe5b9060200190602002015160008060405160200180807f657865637574696f6e4d6178506572547800000000000000000000000000000081525060110190506040516020818303038152906040526040518082805190602001908083835b602083106139bd5780518252601f19909201916020918201910161399e565b51815160209384036101000a6000190180199092169116179052604080519290940182900390912086528581019690965250928301600090812095909555505080517f646563696d616c53686966740000000000000000000000000000000000000000818401528151600c818303018152602c90910191829052805185949384939182918401908083835b60208310613a675780518252601f199092019160209182019101613a48565b51815160209384036101000a600019018019909216911617905260408051929094018290039091208652850195909552929092016000209390935550613ab091508390506144c2565b6040805185815290517f4fb76205cd57c896b21511d2114137d8e901b4ccd659e1a0f97d6306795264fb9181900360200190a16040805186815290517f52264b89e0fceafb26e79fd49ef8a366eb6297483bf4035b027f0c99a7ad512e9181900360200190a17fad4123ae17c414d9c6d2fec478b402e6b01856cc250fd01fbfd252fda0089d3c866000815181101515613b4657fe5b906020019060200201516040518082815260200191505060405180910390a17f9bebf928b90863f24cc31f726a3a7545efd409f1dcf552301b1ee3710da70d3b836000815181101515613b9557fe5b906020019060200201516040518082815260200191505060405180910390a150505050505050565b6000903b1190565b60016004600060405160200180807f6973496e697469616c697a656400000000000000000000000000000000000000815250600d0190506040516020818303038152906040526040518082805190602001908083835b60208310613c3a5780518252601f199092019160209182019101613c1b565b51815160209384036101000a60001901801990921691161790526040805192909401829003909120865285019590955292909201600020805460ff191694151594909417909355505050565b606890565b6000613c95613c86565b8251149050919050565b60008060008086516041141515613cb557600080fd5b5050506020840151604085015160608601516001613cd38787614580565b60408051600080825260208083018085529490945260ff7f0100000000000000000000000000000000000000000000000000000000000000870416828401526060820188905260808201879052915160a08083019493601f198301938390039091019190865af1158015613d4b573d6000803e3d6000fd5b5050604051601f19015198975050505050505050565b80600360008460405160200180807f6d6573736167657300000000000000000000000000000000000000000000000081525060080182600019166000191681526020019150506040516020818303038152906040526040518082805190602001908083835b60208310613de55780518252601f199092019160209182019101613dc6565b51815160001960209485036101000a01908116901991909116179052604080519490920184900390932086528583019690965250929093016000208451611cda959194509201919050614d48565b80600460008460405160200180807f6d657373616765735369676e6564000000000000000000000000000000000000815250600e0182600019166000191681526020019150506040516020818303038152906040526040518082805190602001908083835b60208310613eb75780518252601f199092019160209182019101613e98565b51815160209384036101000a60001901801990921691161790526040805192909401829003909120865285019590955292909201600020805460ff1916941515949094179093555050505050565b80600360008460405160200180807f7369676e61747572657300000000000000000000000000000000000000000000815250600a01826000191660001916815260200191505060405160208183030381529060405260405180828051906020019080838360208310613de55780518252601f199092019160209182019101613dc6565b806000808460405160200180807f6e756d4d657373616765735369676e6564000000000000000000000000000000815250601101826000191660001916815260200191505060405160208183030381529060405260405180828051906020019080838360208310612f775780518252601f199092019160209182019101612f58565b7f80000000000000000000000000000000000000000000000000000000000000001790565b600080600080600080614040612aec565b9550600160a060020a038616156140e05761405a8761479a565b809550819650829750839850505050506140cd846001886040516020018080600080516020614e3183398151915281525060080190506040516020818303038152906040526040518082805190602001908083836020831061092b5780518252601f19909201916020918201910161090c565b905080156140e0576140e08187856147d5565b50505050505050565b600160a060020a038216151561410757614102816148da565b614111565b6141118282614945565b5050565b6000806000806060614125612aec565b92506040516020018080600080516020614e3183398151915281525060080190506040516020818303038152906040526040518082805190602001908083835b602083106141845780518252601f199092019160209182019101614165565b5181516020939093036101000a60001901801990911692169190911790526040519201829003909120891492506141de915050577fffd6619600000000000000000000000000000000000000000000000000000000614200565b7f94da17cd000000000000000000000000000000000000000000000000000000005b60408051600481526024810190915260208082018051600160e060020a03167bffffffffffffffffffffffffffffffffffffffffffffffffffffffff19851617815282519395509193509160009182875af26000519450808015612d315750508394505b50505050919050565b80600460008460405160200180807f61666669726d6174696f6e735369676e65640000000000000000000000000000815250601201826000191660001916815260200191505060405160208183030381529060405260405180828051906020019080838360208310613eb75780518252601f199092019160209182019101613e98565b806000808460405160200180807f6e756d41666669726d6174696f6e735369676e65640000000000000000000000815250601501826000191660001916815260200191505060405160208183030381529060405260405180828051906020019080838360208310612f775780518252601f199092019160209182019101612f58565b600080600080614397614383611250565b6143928861089a611e3d611250565b6149e3565b6143b26143a2612a79565b8790600a0a63ffffffff614a5d16565b92506143bc612aec565b9150600160a060020a0382161561445057614430836000846040516020018080600080516020614e11833981519152815250600b0190506040516020818303038152906040526040518082805190602001908083836020831061092b5780518252601f19909201916020918201910161090c565b905061443d818387614a86565b61444d838263ffffffff61304416565b92505b604051600160a060020a0388169084156108fc029085906000818181858888f1935050505015156144b5578287614485614dc6565b600160a060020a039091168152604051908190036020019082f0801580156144b1573d6000803e3d6000fd5b5050505b5060019695505050505050565b7f8be0079c531659141344cd1fd0a4f28419497f9722a3daafe3b4186f6b6457e06144eb611fe1565b60408051600160a060020a03928316815291841660208301528051918290030190a1806002600060405160200180807f6f776e65720000000000000000000000000000000000000000000000000000008152506005019050604051602081830303815290604052604051808280519060200190808383602083106116ca5780518252601f1990920191602091820191016116ab565b60408051808201909152601a81527f19457468657265756d205369676e6564204d6573736167653a0a00000000000060208201526000906060831561472657816145ca8651614b8b565b866040516020018084805190602001908083835b602083106145fd5780518252601f1990920191602091820191016145de565b51815160209384036101000a600019018019909216911617905286519190930192860191508083835b602083106146455780518252601f199092019160209182019101614626565b51815160209384036101000a600019018019909216911617905285519190930192850191508083835b6020831061468d5780518252601f19909201916020918201910161466e565b6001836020036101000a03801982511681845116808217855250505050505090500193505050506040516020818303038152906040526040518082805190602001908083835b602083106146f25780518252601f1990920191602091820191016146d3565b6001836020036101000a03801982511681845116808217855250505050505090500191505060405180910390209250614792565b6040805190810160405280600381526020017f31303400000000000000000000000000000000000000000000000000000000008152509050818186604051602001808480519060200190808383602083106145fd5780518252601f1990920191602091820191016145de565b505092915050565b6000806000806147a985613c8b565b15156147b457600080fd5b50505050601481015160348201516054830151606890930151919390929190565b6040805160248082018690528251808303909101815260449091018252602081018051600160e060020a03167f59d784640000000000000000000000000000000000000000000000000000000017815291518151600160a060020a03861693829180838360005b8381101561485457818101518382015260200161483c565b50505050905090810190601f1680156148815780820380516001836020036101000a031916815260200191505b50915050600060405180830381855af4915050151561489f57600080fd5b60408051848152905182917f858abdcd5efcaebb936e8e8516f0cfe9a0ef5157ff99d16cdabb6db625be90d0919081900360200190a2505050565b604051303190600160a060020a0383169082156108fc029083906000818181858888f193505050501515614111578082614912614dc6565b600160a060020a039091168152604051908190036020019082f08015801561493e573d6000803e3d6000fd5b5050505050565b604080517f70a0823100000000000000000000000000000000000000000000000000000000815230600482015290518391600091600160a060020a038416916370a0823191602480830192602092919082900301818787803b1580156149aa57600080fd5b505af11580156149be573d6000803e3d6000fd5b505050506040513d60208110156149d457600080fd5b50519050613202848483614cae565b806000808460405160200180807f746f74616c45786563757465645065724461790000000000000000000000000081525060130182815260200191505060405160208183030381529060405260405180828051906020019080838360208310612f775780518252601f199092019160209182019101612f58565b6000821515614a6e57506000612ef6565b50818102818382811515614a7e57fe5b0414612ef657fe5b6040805160248082018690528251808303909101815260449091018252602081018051600160e060020a03167f054d46ec0000000000000000000000000000000000000000000000000000000017815291518151600160a060020a03861693829180838360005b83811015614b05578181015183820152602001614aed565b50505050905090810190601f168015614b325780820380516001836020036101000a031916815260200191505b50915050600060405180830381855af49150501515614b5057600080fd5b60408051848152905182917fa52d3c9cbc541772e4edd92e2e4e2a3865ab73630f25deed8a6c8de41ff0f65c919081900360200190a2505050565b60606000808281851515614bd45760408051808201909152600181527f300000000000000000000000000000000000000000000000000000000000000060208201529450614264565b8593505b8315614bef57600190920191600a84049350614bd8565b826040519080825280601f01601f191660200182016040528015614c1d578160200160208202803883390190505b5091505060001982015b8515614ca55781516000198201917f01000000000000000000000000000000000000000000000000000000000000006030600a8a060102918491908110614c6a57fe5b9060200101907effffffffffffffffffffffffffffffffffffffffffffffffffffffffffffff1916908160001a905350600a86049550614c27565b50949350505050565b60408051600160a060020a0384166024820152604480820184905282518083039091018152606490910190915260208181018051600160e060020a03167fa9059cbb000000000000000000000000000000000000000000000000000000001781528251606093600093909290918491828a5af16000519350839250808015612d3157505060008351111561251d5781151561251d57600080fd5b828054600181600116156101000203166002900490600052602060002090601f016020900481019282601f10614d8957805160ff1916838001178555614db6565b82800160010185558215614db6579182015b82811115614db6578251825591602001919060010190614d9b565b50614dc2929150614dd5565b5090565b604051602180614df083390190565b610ec391905b80821115614dc25760008155600101614ddb5600608060405260405160208060218339810160405251600160a060020a038116ff00666f726569676e2d666565000000000000000000000000000000000000000000686f6d652d666565000000000000000000000000000000000000000000000000a165627a7a72305820a1fb35bfbc947d838283f0beb80fbb8689bbd67d54a084e4603c5c7fd781b4470029",
  "source": "pragma solidity 0.4.24;\n\nimport \"../../libraries/Message.sol\";\nimport \"../../upgradeability/EternalStorage.sol\";\nimport \"../BasicHomeBridge.sol\";\nimport \"./RewardableHomeBridgeNativeToErc.sol\";\nimport \"../Sacrifice.sol\";\n\ncontract HomeBridgeNativeToErc is EternalStorage, BasicHomeBridge, RewardableHomeBridgeNativeToErc {\n    function() public payable {\n        nativeTransfer();\n    }\n\n    function nativeTransfer() internal {\n        require(msg.value > 0);\n        require(msg.data.length == 0);\n        require(withinLimit(msg.value));\n        setTotalSpentPerDay(getCurrentDay(), totalSpentPerDay(getCurrentDay()).add(msg.value));\n        uint256 valueToTransfer = msg.value;\n        address feeManager = feeManagerContract();\n        if (feeManager != address(0)) {\n            uint256 fee = calculateFee(valueToTransfer, false, feeManager, HOME_FEE);\n            valueToTransfer = valueToTransfer.sub(fee);\n        }\n        emit UserRequestForSignature(msg.sender, valueToTransfer);\n    }\n\n    function initialize(\n        address _validatorContract,\n        uint256[] _dailyLimitMaxPerTxMinPerTxArray, // [ 0 = _dailyLimit, 1 = _maxPerTx, 2 = _minPerTx ]\n        uint256 _homeGasPrice,\n        uint256 _requiredBlockConfirmations,\n        uint256[] _foreignDailyLimitForeignMaxPerTxArray, // [ 0 = _foreignDailyLimit, 1 = _foreignMaxPerTx ]\n        address _owner,\n        uint256 _decimalShift\n    ) external returns (bool) {\n        _initialize(\n            _validatorContract,\n            _dailyLimitMaxPerTxMinPerTxArray,\n            _homeGasPrice,\n            _requiredBlockConfirmations,\n            _foreignDailyLimitForeignMaxPerTxArray,\n            _owner,\n            _decimalShift\n        );\n        setInitialize();\n        return isInitialized();\n    }\n\n    function rewardableInitialize(\n        address _validatorContract,\n        uint256[] _dailyLimitMaxPerTxMinPerTxArray, // [ 0 = _dailyLimit, 1 = _maxPerTx, 2 = _minPerTx ]\n        uint256 _homeGasPrice,\n        uint256 _requiredBlockConfirmations,\n        uint256[] _foreignDailyLimitForeignMaxPerTxArray, // [ 0 = _foreignDailyLimit, 1 = _foreignMaxPerTx ]\n        address _owner,\n        address _feeManager,\n        uint256[] _homeFeeForeignFeeArray, // [ 0 = _homeFee, 1 = _foreignFee ]\n        uint256 _decimalShift\n    ) external returns (bool) {\n        _initialize(\n            _validatorContract,\n            _dailyLimitMaxPerTxMinPerTxArray,\n            _homeGasPrice,\n            _requiredBlockConfirmations,\n            _foreignDailyLimitForeignMaxPerTxArray,\n            _owner,\n            _decimalShift\n        );\n        require(AddressUtils.isContract(_feeManager));\n        addressStorage[FEE_MANAGER_CONTRACT] = _feeManager;\n        _setFee(_feeManager, _homeFeeForeignFeeArray[0], HOME_FEE);\n        _setFee(_feeManager, _homeFeeForeignFeeArray[1], FOREIGN_FEE);\n        setInitialize();\n        return isInitialized();\n    }\n\n    function getBridgeMode() external pure returns (bytes4 _data) {\n        return bytes4(keccak256(abi.encodePacked(\"native-to-erc-core\")));\n    }\n\n    function _initialize(\n        address _validatorContract,\n        uint256[] _dailyLimitMaxPerTxMinPerTxArray, // [ 0 = _dailyLimit, 1 = _maxPerTx, 2 = _minPerTx ]\n        uint256 _homeGasPrice,\n        uint256 _requiredBlockConfirmations,\n        uint256[] _foreignDailyLimitForeignMaxPerTxArray, // [ 0 = _foreignDailyLimit, 1 = _foreignMaxPerTx ]\n        address _owner,\n        uint256 _decimalShift\n    ) internal {\n        require(!isInitialized());\n        require(AddressUtils.isContract(_validatorContract));\n        require(_homeGasPrice > 0);\n        require(_requiredBlockConfirmations > 0);\n        require(\n            _dailyLimitMaxPerTxMinPerTxArray[2] > 0 && // _minPerTx > 0\n                _dailyLimitMaxPerTxMinPerTxArray[1] > _dailyLimitMaxPerTxMinPerTxArray[2] && // _maxPerTx > _minPerTx\n                _dailyLimitMaxPerTxMinPerTxArray[0] > _dailyLimitMaxPerTxMinPerTxArray[1] // _dailyLimit > _maxPerTx\n        );\n        require(_foreignDailyLimitForeignMaxPerTxArray[1] < _foreignDailyLimitForeignMaxPerTxArray[0]); // _foreignMaxPerTx < _foreignDailyLimit\n        require(_owner != address(0));\n\n        addressStorage[VALIDATOR_CONTRACT] = _validatorContract;\n        uintStorage[DEPLOYED_AT_BLOCK] = block.number;\n        uintStorage[DAILY_LIMIT] = _dailyLimitMaxPerTxMinPerTxArray[0];\n        uintStorage[MAX_PER_TX] = _dailyLimitMaxPerTxMinPerTxArray[1];\n        uintStorage[MIN_PER_TX] = _dailyLimitMaxPerTxMinPerTxArray[2];\n        uintStorage[GAS_PRICE] = _homeGasPrice;\n        uintStorage[REQUIRED_BLOCK_CONFIRMATIONS] = _requiredBlockConfirmations;\n        uintStorage[EXECUTION_DAILY_LIMIT] = _foreignDailyLimitForeignMaxPerTxArray[0];\n        uintStorage[EXECUTION_MAX_PER_TX] = _foreignDailyLimitForeignMaxPerTxArray[1];\n        uintStorage[DECIMAL_SHIFT] = _decimalShift;\n        setOwner(_owner);\n\n        emit RequiredBlockConfirmationChanged(_requiredBlockConfirmations);\n        emit GasPriceChanged(_homeGasPrice);\n        emit DailyLimitChanged(_dailyLimitMaxPerTxMinPerTxArray[0]);\n        emit ExecutionDailyLimitChanged(_foreignDailyLimitForeignMaxPerTxArray[0]);\n    }\n\n    function onSignaturesCollected(bytes _message) internal {\n        address feeManager = feeManagerContract();\n        if (feeManager != address(0)) {\n            address recipient;\n            uint256 amount;\n            bytes32 txHash;\n            address contractAddress;\n            (recipient, amount, txHash, contractAddress) = Message.parseMessage(_message);\n            uint256 fee = calculateFee(amount, true, feeManager, HOME_FEE);\n            if (fee != 0) {\n                distributeFeeFromSignatures(fee, feeManager, txHash);\n            }\n        }\n    }\n\n    function onExecuteAffirmation(address _recipient, uint256 _value, bytes32 txHash) internal returns (bool) {\n        setTotalExecutedPerDay(getCurrentDay(), totalExecutedPerDay(getCurrentDay()).add(_value));\n        uint256 valueToTransfer = _value.mul(10 ** decimalShift());\n\n        address feeManager = feeManagerContract();\n        if (feeManager != address(0)) {\n            uint256 fee = calculateFee(valueToTransfer, false, feeManager, FOREIGN_FEE);\n            distributeFeeFromAffirmation(fee, feeManager, txHash);\n            valueToTransfer = valueToTransfer.sub(fee);\n        }\n\n        if (!_recipient.send(valueToTransfer)) {\n            (new Sacrifice).value(valueToTransfer)(_recipient);\n        }\n        return true;\n    }\n\n    function onFailedAffirmation(\n        address, /*_recipient*/\n        uint256, /*_value*/\n        bytes32 /*_txHash*/\n    ) internal {\n        revert();\n    }\n}\n",
  "sourcePath": "/contracts/contracts/upgradeable_contracts/native_to_erc20/HomeBridgeNativeToErc.sol",
  "compiler": {
    "name": "solc",
    "version": "0.4.24+commit.e67f0147.Emscripten.clang"
  },
  "schemaVersion": "3.0.9",
  "updatedAt": "2019-09-30T13:18:39.358Z",
  "devdoc": {
    "methods": {
      "owner()": {
        "details": "Tells the address of the owner",
        "return": "the address of the owner"
      },
      "transferOwnership(address)": {
        "details": "Allows the current owner to transfer control of the contract to a newOwner.",
        "params": {
          "newOwner": "the address to transfer ownership to."
        }
      }
    }
  },
  "userdoc": {
    "methods": {}
  }
}