{
  "contractName": "HomeBridgeErcToNative",
  "abi": [
    {
      "constant": true,
      "inputs": [
        {
          "name": "_message",
          "type": "bytes32"
        }
      ],
      "name": "numMessagesSigned",
      "outputs": [
        {
          "name": "",
          "type": "uint256"
        }
      ],
      "payable": false,
      "stateMutability": "view",
      "type": "function"
    },
    {
      "constant": true,
      "inputs": [
        {
          "name": "_hash",
          "type": "bytes32"
        },
        {
          "name": "_index",
          "type": "uint256"
        }
      ],
      "name": "signature",
      "outputs": [
        {
          "name": "",
          "type": "bytes"
        }
      ],
      "payable": false,
      "stateMutability": "view",
      "type": "function"
    },
    {
      "constant": false,
      "inputs": [
        {
          "name": "_fee",
          "type": "uint256"
        }
      ],
      "name": "setForeignFee",
      "outputs": [],
      "payable": false,
      "stateMutability": "nonpayable",
      "type": "function"
    },
    {
      "constant": true,
      "inputs": [
        {
          "name": "_txHash",
          "type": "bytes32"
        }
      ],
      "name": "fixedAssets",
      "outputs": [
        {
          "name": "",
          "type": "bool"
        }
      ],
      "payable": false,
      "stateMutability": "view",
      "type": "function"
    },
    {
      "constant": true,
      "inputs": [
        {
          "name": "_day",
          "type": "uint256"
        }
      ],
      "name": "totalSpentPerDay",
      "outputs": [
        {
          "name": "",
          "type": "uint256"
        }
      ],
      "payable": false,
      "stateMutability": "view",
      "type": "function"
    },
    {
      "constant": false,
      "inputs": [
        {
          "name": "_fee",
          "type": "uint256"
        }
      ],
      "name": "setHomeFee",
      "outputs": [],
      "payable": false,
      "stateMutability": "nonpayable",
      "type": "function"
    },
    {
      "constant": true,
      "inputs": [],
      "name": "isInitialized",
      "outputs": [
        {
          "name": "",
          "type": "bool"
        }
      ],
      "payable": false,
      "stateMutability": "view",
      "type": "function"
    },
    {
      "constant": false,
      "inputs": [
        {
          "name": "_dailyLimit",
          "type": "uint256"
        }
      ],
      "name": "setExecutionDailyLimit",
      "outputs": [],
      "payable": false,
      "stateMutability": "nonpayable",
      "type": "function"
    },
    {
      "constant": true,
      "inputs": [],
      "name": "getCurrentDay",
      "outputs": [
        {
          "name": "",
          "type": "uint256"
        }
      ],
      "payable": false,
      "stateMutability": "view",
      "type": "function"
    },
    {
      "constant": true,
      "inputs": [],
      "name": "requiredBlockConfirmations",
      "outputs": [
        {
          "name": "",
          "type": "uint256"
        }
      ],
      "payable": false,
      "stateMutability": "view",
      "type": "function"
    },
    {
      "constant": true,
      "inputs": [],
      "name": "requiredMessageLength",
      "outputs": [
        {
          "name": "",
          "type": "uint256"
        }
      ],
      "payable": false,
      "stateMutability": "pure",
      "type": "function"
    },
    {
      "constant": true,
      "inputs": [],
      "name": "executionDailyLimit",
      "outputs": [
        {
          "name": "",
          "type": "uint256"
        }
      ],
      "payable": false,
      "stateMutability": "view",
      "type": "function"
    },
    {
      "constant": true,
      "inputs": [
        {
          "name": "_hash",
          "type": "bytes32"
        }
      ],
      "name": "message",
      "outputs": [
        {
          "name": "",
          "type": "bytes"
        }
      ],
      "payable": false,
      "stateMutability": "view",
      "type": "function"
    },
    {
      "constant": true,
      "inputs": [
        {
          "name": "_day",
          "type": "uint256"
        }
      ],
      "name": "totalExecutedPerDay",
      "outputs": [
        {
          "name": "",
          "type": "uint256"
        }
      ],
      "payable": false,
      "stateMutability": "view",
      "type": "function"
    },
    {
      "constant": false,
      "inputs": [
        {
          "name": "_feeManager",
          "type": "address"
        }
      ],
      "name": "setFeeManagerContract",
      "outputs": [],
      "payable": false,
      "stateMutability": "nonpayable",
      "type": "function"
    },
    {
      "constant": false,
      "inputs": [
        {
          "name": "signature",
          "type": "bytes"
        },
        {
          "name": "message",
          "type": "bytes"
        }
      ],
      "name": "submitSignature",
      "outputs": [],
      "payable": false,
      "stateMutability": "nonpayable",
      "type": "function"
    },
    {
      "constant": true,
      "inputs": [],
      "name": "dailyLimit",
      "outputs": [
        {
          "name": "",
          "type": "uint256"
        }
      ],
      "payable": false,
      "stateMutability": "view",
      "type": "function"
    },
    {
      "constant": false,
      "inputs": [
        {
          "name": "_token",
          "type": "address"
        },
        {
          "name": "_to",
          "type": "address"
        }
      ],
      "name": "claimTokens",
      "outputs": [],
      "payable": false,
      "stateMutability": "nonpayable",
      "type": "function"
    },
    {
      "constant": true,
      "inputs": [
        {
          "name": "_withdrawal",
          "type": "bytes32"
        }
      ],
      "name": "numAffirmationsSigned",
      "outputs": [
        {
          "name": "",
          "type": "uint256"
        }
      ],
      "payable": false,
      "stateMutability": "view",
      "type": "function"
    },
    {
      "constant": true,
      "inputs": [
        {
          "name": "_withdrawal",
          "type": "bytes32"
        }
      ],
      "name": "affirmationsSigned",
      "outputs": [
        {
          "name": "",
          "type": "bool"
        }
      ],
      "payable": false,
      "stateMutability": "view",
      "type": "function"
    },
    {
      "constant": true,
      "inputs": [
        {
          "name": "_amount",
          "type": "uint256"
        }
      ],
      "name": "withinExecutionLimit",
      "outputs": [
        {
          "name": "",
          "type": "bool"
        }
      ],
      "payable": false,
      "stateMutability": "view",
      "type": "function"
    },
    {
      "constant": true,
      "inputs": [],
      "name": "executionMaxPerTx",
      "outputs": [
        {
          "name": "",
          "type": "uint256"
        }
      ],
      "payable": false,
      "stateMutability": "view",
      "type": "function"
    },
    {
      "constant": true,
      "inputs": [],
      "name": "requiredSignatures",
      "outputs": [
        {
          "name": "",
          "type": "uint256"
        }
      ],
      "payable": false,
      "stateMutability": "view",
      "type": "function"
    },
    {
      "constant": true,
      "inputs": [],
      "name": "owner",
      "outputs": [
        {
          "name": "",
          "type": "address"
        }
      ],
      "payable": false,
      "stateMutability": "view",
      "type": "function"
    },
    {
      "constant": true,
      "inputs": [
        {
          "name": "_message",
          "type": "bytes32"
        }
      ],
      "name": "messagesSigned",
      "outputs": [
        {
          "name": "",
          "type": "bool"
        }
      ],
      "payable": false,
      "stateMutability": "view",
      "type": "function"
    },
    {
      "constant": true,
      "inputs": [
        {
          "name": "_value",
          "type": "uint256"
        }
      ],
      "name": "getAmountToBurn",
      "outputs": [
        {
          "name": "",
          "type": "uint256"
        }
      ],
      "payable": false,
      "stateMutability": "view",
      "type": "function"
    },
    {
      "constant": true,
      "inputs": [],
      "name": "getHomeFee",
      "outputs": [
        {
          "name": "",
          "type": "uint256"
        }
      ],
      "payable": false,
      "stateMutability": "view",
      "type": "function"
    },
    {
      "constant": true,
      "inputs": [],
      "name": "validatorContract",
      "outputs": [
        {
          "name": "",
          "type": "address"
        }
      ],
      "payable": false,
      "stateMutability": "view",
      "type": "function"
    },
    {
      "constant": false,
      "inputs": [
        {
          "name": "recipient",
          "type": "address"
        },
        {
          "name": "value",
          "type": "uint256"
        },
        {
          "name": "transactionHash",
          "type": "bytes32"
        }
      ],
      "name": "executeAffirmation",
      "outputs": [],
      "payable": false,
      "stateMutability": "nonpayable",
      "type": "function"
    },
    {
      "constant": true,
      "inputs": [],
      "name": "deployedAtBlock",
      "outputs": [
        {
          "name": "",
          "type": "uint256"
        }
      ],
      "payable": false,
      "stateMutability": "view",
      "type": "function"
    },
    {
      "constant": true,
      "inputs": [],
      "name": "getBridgeInterfacesVersion",
      "outputs": [
        {
          "name": "major",
          "type": "uint64"
        },
        {
          "name": "minor",
          "type": "uint64"
        },
        {
          "name": "patch",
          "type": "uint64"
        }
      ],
      "payable": false,
      "stateMutability": "pure",
      "type": "function"
    },
    {
      "constant": true,
      "inputs": [],
      "name": "outOfLimitAmount",
      "outputs": [
        {
          "name": "",
          "type": "uint256"
        }
      ],
      "payable": false,
      "stateMutability": "view",
      "type": "function"
    },
    {
      "constant": false,
      "inputs": [
        {
          "name": "_minPerTx",
          "type": "uint256"
        }
      ],
      "name": "setMinPerTx",
      "outputs": [],
      "payable": false,
      "stateMutability": "nonpayable",
      "type": "function"
    },
    {
      "constant": false,
      "inputs": [
        {
          "name": "txHash",
          "type": "bytes32"
        },
        {
          "name": "unlockOnForeign",
          "type": "bool"
        },
        {
          "name": "valueToUnlock",
          "type": "uint256"
        }
      ],
      "name": "fixAssetsAboveLimits",
      "outputs": [],
      "payable": false,
      "stateMutability": "nonpayable",
      "type": "function"
    },
    {
      "constant": false,
      "inputs": [
        {
          "name": "_blockConfirmations",
          "type": "uint256"
        }
      ],
      "name": "setRequiredBlockConfirmations",
      "outputs": [],
      "payable": false,
      "stateMutability": "nonpayable",
      "type": "function"
    },
    {
      "constant": false,
      "inputs": [
        {
          "name": "_dailyLimit",
          "type": "uint256"
        }
      ],
      "name": "setDailyLimit",
      "outputs": [],
      "payable": false,
      "stateMutability": "nonpayable",
      "type": "function"
    },
    {
      "constant": false,
      "inputs": [
        {
          "name": "_gasPrice",
          "type": "uint256"
        }
      ],
      "name": "setGasPrice",
      "outputs": [],
      "payable": false,
      "stateMutability": "nonpayable",
      "type": "function"
    },
    {
      "constant": false,
      "inputs": [
        {
          "name": "_maxPerTx",
          "type": "uint256"
        }
      ],
      "name": "setMaxPerTx",
      "outputs": [],
      "payable": false,
      "stateMutability": "nonpayable",
      "type": "function"
    },
    {
      "constant": true,
      "inputs": [],
      "name": "decimalShift",
      "outputs": [
        {
          "name": "",
          "type": "uint256"
        }
      ],
      "payable": false,
      "stateMutability": "view",
      "type": "function"
    },
    {
      "constant": true,
      "inputs": [],
      "name": "feeManagerContract",
      "outputs": [
        {
          "name": "",
          "type": "address"
        }
      ],
      "payable": false,
      "stateMutability": "view",
      "type": "function"
    },
    {
      "constant": true,
      "inputs": [],
      "name": "minPerTx",
      "outputs": [
        {
          "name": "",
          "type": "uint256"
        }
      ],
      "payable": false,
      "stateMutability": "view",
      "type": "function"
    },
    {
      "constant": true,
      "inputs": [
        {
          "name": "_amount",
          "type": "uint256"
        }
      ],
      "name": "withinLimit",
      "outputs": [
        {
          "name": "",
          "type": "bool"
        }
      ],
      "payable": false,
      "stateMutability": "view",
      "type": "function"
    },
    {
      "constant": false,
      "inputs": [
        {
          "name": "_maxPerTx",
          "type": "uint256"
        }
      ],
      "name": "setExecutionMaxPerTx",
      "outputs": [],
      "payable": false,
      "stateMutability": "nonpayable",
      "type": "function"
    },
    {
      "constant": true,
      "inputs": [],
      "name": "getFeeManagerMode",
      "outputs": [
        {
          "name": "",
          "type": "bytes4"
        }
      ],
      "payable": false,
      "stateMutability": "view",
      "type": "function"
    },
    {
      "constant": false,
      "inputs": [
        {
          "name": "newOwner",
          "type": "address"
        }
      ],
      "name": "transferOwnership",
      "outputs": [],
      "payable": false,
      "stateMutability": "nonpayable",
      "type": "function"
    },
    {
      "constant": true,
      "inputs": [],
      "name": "maxPerTx",
      "outputs": [
        {
          "name": "",
          "type": "uint256"
        }
      ],
      "payable": false,
      "stateMutability": "view",
      "type": "function"
    },
    {
      "constant": true,
      "inputs": [],
      "name": "gasPrice",
      "outputs": [
        {
          "name": "",
          "type": "uint256"
        }
      ],
      "payable": false,
      "stateMutability": "view",
      "type": "function"
    },
    {
      "constant": true,
      "inputs": [
        {
          "name": "_number",
          "type": "uint256"
        }
      ],
      "name": "isAlreadyProcessed",
      "outputs": [
        {
          "name": "",
          "type": "bool"
        }
      ],
      "payable": false,
      "stateMutability": "pure",
      "type": "function"
    },
    {
      "constant": true,
      "inputs": [],
      "name": "getForeignFee",
      "outputs": [
        {
          "name": "",
          "type": "uint256"
        }
      ],
      "payable": false,
      "stateMutability": "view",
      "type": "function"
    },
    {
      "payable": true,
      "stateMutability": "payable",
      "type": "fallback"
    },
    {
      "anonymous": false,
      "inputs": [
        {
          "indexed": false,
          "name": "recipient",
          "type": "address"
        },
        {
          "indexed": false,
          "name": "value",
          "type": "uint256"
        },
        {
          "indexed": false,
          "name": "transactionHash",
          "type": "bytes32"
        }
      ],
      "name": "AmountLimitExceeded",
      "type": "event"
    },
    {
      "anonymous": false,
      "inputs": [
        {
          "indexed": false,
          "name": "recipient",
          "type": "address"
        },
        {
          "indexed": false,
          "name": "value",
          "type": "uint256"
        }
      ],
      "name": "UserRequestForSignature",
      "type": "event"
    },
    {
      "anonymous": false,
      "inputs": [
        {
          "indexed": true,
          "name": "transactionHash",
          "type": "bytes32"
        },
        {
          "indexed": false,
          "name": "value",
          "type": "uint256"
        },
        {
          "indexed": false,
          "name": "remaining",
          "type": "uint256"
        }
      ],
      "name": "AssetAboveLimitsFixed",
      "type": "event"
    },
    {
      "anonymous": false,
      "inputs": [
        {
          "indexed": false,
          "name": "recipient",
          "type": "address"
        },
        {
          "indexed": false,
          "name": "value",
          "type": "uint256"
        },
        {
          "indexed": false,
          "name": "transactionHash",
          "type": "bytes32"
        }
      ],
      "name": "AffirmationCompleted",
      "type": "event"
    },
    {
      "anonymous": false,
      "inputs": [
        {
          "indexed": true,
          "name": "signer",
          "type": "address"
        },
        {
          "indexed": false,
          "name": "messageHash",
          "type": "bytes32"
        }
      ],
      "name": "SignedForUserRequest",
      "type": "event"
    },
    {
      "anonymous": false,
      "inputs": [
        {
          "indexed": true,
          "name": "signer",
          "type": "address"
        },
        {
          "indexed": false,
          "name": "transactionHash",
          "type": "bytes32"
        }
      ],
      "name": "SignedForAffirmation",
      "type": "event"
    },
    {
      "anonymous": false,
      "inputs": [
        {
          "indexed": false,
          "name": "authorityResponsibleForRelay",
          "type": "address"
        },
        {
          "indexed": false,
          "name": "messageHash",
          "type": "bytes32"
        },
        {
          "indexed": false,
          "name": "NumberOfCollectedSignatures",
          "type": "uint256"
        }
      ],
      "name": "CollectedSignatures",
      "type": "event"
    },
    {
      "anonymous": false,
      "inputs": [
        {
          "indexed": false,
          "name": "newLimit",
          "type": "uint256"
        }
      ],
      "name": "DailyLimitChanged",
      "type": "event"
    },
    {
      "anonymous": false,
      "inputs": [
        {
          "indexed": false,
          "name": "newLimit",
          "type": "uint256"
        }
      ],
      "name": "ExecutionDailyLimitChanged",
      "type": "event"
    },
    {
      "anonymous": false,
      "inputs": [
        {
          "indexed": false,
          "name": "gasPrice",
          "type": "uint256"
        }
      ],
      "name": "GasPriceChanged",
      "type": "event"
    },
    {
      "anonymous": false,
      "inputs": [
        {
          "indexed": false,
          "name": "requiredBlockConfirmations",
          "type": "uint256"
        }
      ],
      "name": "RequiredBlockConfirmationChanged",
      "type": "event"
    },
    {
      "anonymous": false,
      "inputs": [
        {
          "indexed": false,
          "name": "feeAmount",
          "type": "uint256"
        },
        {
          "indexed": true,
          "name": "transactionHash",
          "type": "bytes32"
        }
      ],
      "name": "FeeDistributedFromAffirmation",
      "type": "event"
    },
    {
      "anonymous": false,
      "inputs": [
        {
          "indexed": false,
          "name": "feeAmount",
          "type": "uint256"
        },
        {
          "indexed": true,
          "name": "transactionHash",
          "type": "bytes32"
        }
      ],
      "name": "FeeDistributedFromSignatures",
      "type": "event"
    },
    {
      "anonymous": false,
      "inputs": [
        {
          "indexed": false,
          "name": "previousOwner",
          "type": "address"
        },
        {
          "indexed": false,
          "name": "newOwner",
          "type": "address"
        }
      ],
      "name": "OwnershipTransferred",
      "type": "event"
    },
    {
      "constant": false,
      "inputs": [
        {
          "name": "_validatorContract",
          "type": "address"
        },
        {
          "name": "_dailyLimitMaxPerTxMinPerTxArray",
          "type": "uint256[]"
        },
        {
          "name": "_homeGasPrice",
          "type": "uint256"
        },
        {
          "name": "_requiredBlockConfirmations",
          "type": "uint256"
        },
        {
          "name": "_blockReward",
          "type": "address"
        },
        {
          "name": "_foreignDailyLimitForeignMaxPerTxArray",
          "type": "uint256[]"
        },
        {
          "name": "_owner",
          "type": "address"
        },
        {
          "name": "_decimalShift",
          "type": "uint256"
        }
      ],
      "name": "initialize",
      "outputs": [
        {
          "name": "",
          "type": "bool"
        }
      ],
      "payable": false,
      "stateMutability": "nonpayable",
      "type": "function"
    },
    {
      "constant": false,
      "inputs": [
        {
          "name": "_validatorContract",
          "type": "address"
        },
        {
          "name": "_dailyLimitMaxPerTxMinPerTxArray",
          "type": "uint256[]"
        },
        {
          "name": "_homeGasPrice",
          "type": "uint256"
        },
        {
          "name": "_requiredBlockConfirmations",
          "type": "uint256"
        },
        {
          "name": "_blockReward",
          "type": "address"
        },
        {
          "name": "_foreignDailyLimitForeignMaxPerTxArray",
          "type": "uint256[]"
        },
        {
          "name": "_owner",
          "type": "address"
        },
        {
          "name": "_feeManager",
          "type": "address"
        },
        {
          "name": "_homeFeeForeignFeeArray",
          "type": "uint256[]"
        },
        {
          "name": "_decimalShift",
          "type": "uint256"
        }
      ],
      "name": "rewardableInitialize",
      "outputs": [
        {
          "name": "",
          "type": "bool"
        }
      ],
      "payable": false,
      "stateMutability": "nonpayable",
      "type": "function"
    },
    {
      "constant": true,
      "inputs": [],
      "name": "getBridgeMode",
      "outputs": [
        {
          "name": "_data",
          "type": "bytes4"
        }
      ],
      "payable": false,
      "stateMutability": "pure",
      "type": "function"
    },
    {
      "constant": true,
      "inputs": [],
      "name": "blockRewardContract",
      "outputs": [
        {
          "name": "",
          "type": "address"
        }
      ],
      "payable": false,
      "stateMutability": "view",
      "type": "function"
    },
    {
      "constant": true,
      "inputs": [],
      "name": "totalBurntCoins",
      "outputs": [
        {
          "name": "",
          "type": "uint256"
        }
      ],
      "payable": false,
      "stateMutability": "view",
      "type": "function"
    },
    {
      "constant": false,
      "inputs": [
        {
          "name": "_blockReward",
          "type": "address"
        }
      ],
      "name": "setBlockRewardContract",
      "outputs": [],
      "payable": false,
      "stateMutability": "nonpayable",
      "type": "function"
    }
  ],
  "bytecode": "0x608060405234801561001057600080fd5b50615e8280620000216000396000f3006080604052600436106102795763ffffffff60e060020a6000350416630cbf060181146102835780630e8162ba146102ad5780631812d996146102c257806327a3e16b14610352578063286c4066146103735780632888bb9c1461038b5780632bd0bb05146103b757806334a9e148146103cf578063392e53cd146103e75780633dd95d1b146103fc5780633e6968b6146104145780633f0a9f6514610429578063408fef2e1461043e578063437764df1461045357806343b37dd314610485578063490a32c61461049a5780634fb3fef7146104b257806356b54bae146104ca57806360756f7c146104fb578063630cea8e1461051c57806366124e411461054857806367eeba0c1461059957806369ffa08a146105ae5780636ae1a976146105d55780637698da24146105ed578063879ce676146106055780638aa1949a1461061d5780638d068043146106325780638da5cb5b146106475780638f4b4b981461065c578063916850e91461067457806394da17cd1461068c57806399439089146106a1578063995b2cff146106b65780639a454b99146106dd5780639cb7595a146106f2578063a018934514610733578063a2a6ca2714610748578063a7444c0d14610760578063acf5c68914610780578063b20d30a914610798578063bf1fe420146107b0578063c6f6f216146107c8578063dae5f0fd146107e0578063dbe03a8b146107f5578063df25f3f01461080a578063e46c0df01461081f578063ea9f496814610883578063f20151e11461089b578063f2ba9561146108b3578063f2fde38b146108c8578063f968adbe146108e9578063fe173b97146108fe578063ffd19e8c14610913578063ffd661961461092b575b610281610940565b005b34801561028f57600080fd5b5061029b600435610bc3565b60408051918252519081900360200190f35b3480156102b957600080fd5b5061029b610c88565b3480156102ce57600080fd5b506102dd600435602435610d3d565b6040805160208082528351818301528351919283929083019185019080838360005b838110156103175781810151838201526020016102ff565b50505050905090810190601f1680156103445780820380516001836020036101000a031916815260200191505b509250505060405180910390f35b34801561035e57600080fd5b50610281600160a060020a0360043516610f1a565b34801561037f57600080fd5b50610281600435610f42565b34801561039757600080fd5b506103a3600435610ff9565b604080519115158252519081900360200190f35b3480156103c357600080fd5b5061029b6004356110c2565b3480156103db57600080fd5b5061028160043561113d565b3480156103f357600080fd5b506103a36111c1565b34801561040857600080fd5b50610281600435611279565b34801561042057600080fd5b5061029b611399565b34801561043557600080fd5b5061029b6113a2565b34801561044a57600080fd5b5061029b611415565b34801561045f57600080fd5b50610468611424565b60408051600160e060020a03199092168252519081900360200190f35b34801561049157600080fd5b5061029b6114c7565b3480156104a657600080fd5b506102dd60043561153a565b3480156104be57600080fd5b5061029b6004356116a2565b3480156104d657600080fd5b506104df61171d565b60408051600160a060020a039092168252519081900360200190f35b34801561050757600080fd5b50610281600160a060020a0360043516611727565b34801561052857600080fd5b506102816024600480358281019290820135918135918201910135611845565b34801561055457600080fd5b506103a360048035600160a060020a039081169160248035808201939083013592604435926064359260843581169260a4359283019201359060c4351660e435611cdb565b3480156105a557600080fd5b5061029b611d6a565b3480156105ba57600080fd5b50610281600160a060020a0360043581169060243516611ddd565b3480156105e157600080fd5b5061029b600435611e80565b3480156105f957600080fd5b506103a3600435611f03565b34801561061157600080fd5b506103a3600435611f87565b34801561062957600080fd5b5061029b611fc5565b34801561063e57600080fd5b5061029b612038565b34801561065357600080fd5b506104df6120b0565b34801561066857600080fd5b506103a360043561216e565b34801561068057600080fd5b5061029b6004356121f2565b34801561069857600080fd5b5061029b612283565b3480156106ad57600080fd5b506104df612317565b3480156106c257600080fd5b50610281600160a060020a036004351660243560443561238b565b3480156106e957600080fd5b5061029b612685565b3480156106fe57600080fd5b506107076126f8565b6040805167ffffffffffffffff9485168152928416602084015292168183015290519081900360600190f35b34801561073f57600080fd5b5061029b612703565b34801561075457600080fd5b50610281600435612776565b34801561076c57600080fd5b50610281600435602435151560443561286d565b34801561078c57600080fd5b50610281600435612ac7565b3480156107a457600080fd5b50610281600435612bd6565b3480156107bc57600080fd5b50610281600435612cf6565b3480156107d457600080fd5b50610281600435612e05565b3480156107ec57600080fd5b5061029b612ea6565b34801561080157600080fd5b506104df612f19565b34801561081657600080fd5b5061029b612f8d565b34801561082b57600080fd5b506103a3600160a060020a036004803582169160248035808201939081013592604435926064359260843583169260a43580840193908301359260c43583169260e43516916101043590810191013561012435613000565b34801561088f57600080fd5b506103a360043561326c565b3480156108a757600080fd5b506102816004356132b7565b3480156108bf57600080fd5b50610468613358565b3480156108d457600080fd5b50610281600160a060020a03600435166133cf565b3480156108f557600080fd5b5061029b613409565b34801561090a57600080fd5b5061029b61347c565b34801561091f57600080fd5b506103a36004356134ef565b34801561093757600080fd5b5061029b613517565b600080808080808034811061095457600080fd5b361561095f57600080fd5b6109683461326c565b151561097357600080fd5b61097b61171d565b604080517fb4a523e80000000000000000000000000000000000000000000000000000000081523060048201529051919850600160a060020a0389169163b4a523e8916024808201926020929091908290030181600087803b1580156109e057600080fd5b505af11580156109f4573d6000803e3d6000fd5b505050506040513d6020811015610a0a57600080fd5b50519550610a16610c88565b9450610a28868663ffffffff61357816565b341115610a3457600080fd5b610a64610a3f611399565b610a5f34610a53610a4e611399565b6110c2565b9063ffffffff61358f16565b61359c565b349350610a6f612f19565b9250349150600160a060020a03831615610b3957610b19846000856040516020018080600080516020615e3783398151915281525060080190506040516020818303038152906040526040518082805190602001908083835b60208310610ae75780518252601f199092019160209182019101610ac8565b6001836020036101000a0380198251168184511680821785525050505050509050019150506040518091039020613659565b9050610b2b848263ffffffff61357816565b9350610b36826121f2565b91505b610b51610b4c868463ffffffff61358f16565b6136e4565b60405160009083156108fc0290849083818181858288f19350505050158015610b7e573d6000803e3d6000fd5b50604080513381526020810186905281517f127650bcfb0ba017401abe4931453a405140a8fd36fece67bae2db174d3fdd63929181900390910190a150505050505050565b60008060008360405160200180807f6e756d4d657373616765735369676e656400000000000000000000000000000081525060110182600019166000191681526020019150506040516020818303038152906040526040518082805190602001908083835b60208310610c475780518252601f199092019160209182019101610c28565b51815160209384036101000a600019018019909216911617905260408051929094018290039091208652850195909552929092016000205495945050505050565b600080600060405160200180807f746f74616c4275726e74436f696e730000000000000000000000000000000000815250600f0190506040516020818303038152906040526040518082805190602001908083835b60208310610cfc5780518252601f199092019160209182019101610cdd565b51815160209384036101000a600019018019909216911617905260408051929094018290039091208652850195909552929092016000205493505050505b90565b604080516020808201859052818301849052825180830384018152606092830193849052805192936000939192909182918401908083835b60208310610d945780518252601f199092019160209182019101610d75565b51815160209384036101000a6000190180199092169116179052604080519290940182900382207f7369676e6174757265730000000000000000000000000000000000000000000083830152602a80840182905285518085039091018152604a9093019485905282519097506003965060009550919392508291908401908083835b60208310610e355780518252601f199092019160209182019101610e16565b6001836020036101000a0380198251168184511680821785525050505050509050019150506040518091039020600019166000191681526020019081526020016000208054600181600116156101000203166002900480601f016020809104026020016040519081016040528092919081815260200182805460018160011615610100020316600290048015610f0c5780601f10610ee157610100808354040283529160200191610f0c565b820191906000526020600020905b815481529060010190602001808311610eef57829003601f168201915b505050505091505092915050565b610f226120b0565b600160a060020a03163314610f3657600080fd5b610f3f81613756565b50565b610f4a6120b0565b600160a060020a03163314610f5e57600080fd5b610f3f610f69612f19565b826040516020018080600080516020615e17833981519152815250600b0190506040516020818303038152906040526040518082805190602001908083835b60208310610fc75780518252601f199092019160209182019101610fa8565b6001836020036101000a0380198251168184511680821785525050505050509050019150506040518091039020613a15565b6000600460008360405160200180807f6669786564417373657473000000000000000000000000000000000000000000815250600b0182600019166000191681526020019150506040516020818303038152906040526040518082805190602001908083835b6020831061107e5780518252601f19909201916020918201910161105f565b51815160209384036101000a600019018019909216911617905260408051929094018290039091208652850195909552929092016000205460ff1695945050505050565b60008060008360405160200180807f746f74616c5370656e745065724461790000000000000000000000000000000081525060100182815260200191505060405160208183030381529060405260405180828051906020019080838360208310610c475780518252601f199092019160209182019101610c28565b6111456120b0565b600160a060020a0316331461115957600080fd5b610f3f611164612f19565b826040516020018080600080516020615e37833981519152815250600801905060405160208183030381529060405260405180828051906020019080838360208310610fc75780518252601f199092019160209182019101610fa8565b60006004600060405160200180807f6973496e697469616c697a656400000000000000000000000000000000000000815250600d0190506040516020818303038152906040526040518082805190602001908083835b602083106112365780518252601f199092019160209182019101611217565b51815160209384036101000a600019018019909216911617905260408051929094018290039091208652850195909552929092016000205460ff16949350505050565b6112816120b0565b600160a060020a0316331461129557600080fd5b61129d611fc5565b8111806112a8575080155b15156112b357600080fd5b8060008060405160200180807f657865637574696f6e4461696c794c696d69740000000000000000000000000081525060130190506040516020818303038152906040526040518082805190602001908083835b602083106113265780518252601f199092019160209182019101611307565b51815160001960209485036101000a019081169019919091161790526040805194909201849003909320865285830196909652509284016000209490945550815184815291517f9bebf928b90863f24cc31f726a3a7545efd409f1dcf552301b1ee3710da70d3b9350918290030190a150565b62015180420490565b600080600060405160200180807f7265717569726564426c6f636b436f6e6669726d6174696f6e73000000000000815250601a01905060405160208183030381529060405260405180828051906020019080838360208310610cfc5780518252601f199092019160209182019101610cdd565b600061141f613bb2565b905090565b600060405160200180807f6572632d746f2d6e61746976652d636f7265000000000000000000000000000081525060120190506040516020818303038152906040526040518082805190602001908083835b602083106114955780518252601f199092019160209182019101611476565b6001836020036101000a0380198251168184511680821785525050505050509050019150506040518091039020905090565b600080600060405160200180807f657865637574696f6e4461696c794c696d697400000000000000000000000000815250601301905060405160208183030381529060405260405180828051906020019080838360208310610cfc5780518252601f199092019160209182019101610cdd565b6060600360008360405160200180807f6d6573736167657300000000000000000000000000000000000000000000000081525060080182600019166000191681526020019150506040516020818303038152906040526040518082805190602001908083835b602083106115bf5780518252601f1990920191602091820191016115a0565b6001836020036101000a0380198251168184511680821785525050505050509050019150506040518091039020600019166000191681526020019081526020016000208054600181600116156101000203166002900480601f0160208091040260200160405190810160405280929190818152602001828054600181600116156101000203166002900480156116965780601f1061166b57610100808354040283529160200191611696565b820191906000526020600020905b81548152906001019060200180831161167957829003601f168201915b50505050509050919050565b60008060008360405160200180807f746f74616c45786563757465645065724461790000000000000000000000000081525060130182815260200191505060405160208183030381529060405260405180828051906020019080838360208310610c475780518252601f199092019160209182019101610c28565b600061141f613bb7565b61172f6120b0565b600160a060020a0316331461174357600080fd5b600160a060020a038116158061175d575061175d81613c2b565b151561176857600080fd5b806002600060405160200180807f6665654d616e61676572436f6e7472616374000000000000000000000000000081525060120190506040516020818303038152906040526040518082805190602001908083835b602083106117dc5780518252601f1990920191602091820191016117bd565b51815160209384036101000a60001901801990921691161790526040805192909401829003909120865285019590955292909201600020805473ffffffffffffffffffffffffffffffffffffffff1916600160a060020a03959095169490941790935550505050565b6000806000806000611855612317565b600160a060020a031663facd743b336040518263ffffffff1660e060020a0281526004018082600160a060020a0316600160a060020a03168152602001915050602060405180830381600087803b1580156118af57600080fd5b505af11580156118c3573d6000803e3d6000fd5b505050506040513d60208110156118d957600080fd5b505115156118e657600080fd5b61191f87878080601f01602080910402602001604051908101604052809392919081815260200183838082843750613c33945050505050565b151561192a57600080fd5b61199489898080601f0160208091040260200160405190810160405280939291908181526020018383808284375050604080516020601f8f018190048102820181019092528d815294508d93508c925082915084018382808284375060009450613c479350505050565b600160a060020a031633146119a857600080fd5b8686604051602001808383808284378201915050925050506040516020818303038152906040526040518082805190602001908083835b602083106119fe5780518252601f1990920191602091820191016119df565b51815160209384036101000a600019018019909216911617905260408051929094018290038220336c0100000000000000000000000002838301526034808401829052855180850390910181526054909301948590528251909b509195509293508392850191508083835b60208310611a885780518252601f199092019160209182019101611a69565b6001836020036101000a03801982511681845116808217855250505050505090500191505060405180910390209350611ac085610bc3565b9250611acb836134ef565b15611ad557600080fd5b600192830192831115611afa57611aeb8461216e565b15611af557600080fd5b611b34565b611b348588888080601f01602080910402602001604051908101604052809392919081815260200183838082843750613d09945050505050565b611b3f846001613ddb565b604080516020808201889052600019860182840152825180830384018152606090920192839052815191929182918401908083835b60208310611b935780518252601f199092019160209182019101611b74565b51815160209384036101000a600019018019909216911617905260408051929094018290038220601f8f018290048202830182019094528d8252929650611bf49450869350918d91508c908190840183828082843750613ead945050505050565b611bfe8584613f30565b60408051868152905133917fbf06885f40778f5ccfb64497d3f92ce568ddaedb7e2fb4487f72690418cf8e4c919081900360200190a2611c3c612038565b9050808310611cd057611c5785611c5285613fb2565b613f30565b604080513381526020810187905280820183905290517f415557404d88a0c0b8e3b16967cafffc511213fd9c465c16832ee17ed57d72379181900360600190a1611cd087878080601f01602080910402602001604051908101604052809392919081815260200183838082843750613fd7945050505050565b505050505050505050565b6000611d4b8b8b8b808060200260200160405190810160405280939291908181526020018383602002808284378201915050505050508a8a8a8a8a80806020026020016040519081016040528093929190818152602001838360200280828437820191505050505050898961408b565b611d53614b2d565b611d5b6111c1565b9b9a5050505050505050505050565b600080600060405160200180807f6461696c794c696d697400000000000000000000000000000000000000000000815250600a01905060405160208183030381529060405260405180828051906020019080838360208310610cfc5780518252601f199092019160209182019101610cdd565b30600160a060020a0316636fde82026040518163ffffffff1660e060020a028152600401602060405180830381600087803b158015611e1b57600080fd5b505af1158015611e2f573d6000803e3d6000fd5b505050506040513d6020811015611e4557600080fd5b5051600160a060020a03163314611e5b57600080fd5b80600160a060020a0381161515611e7157600080fd5b611e7b8383614bee565b505050565b60008060008360405160200180807f6e756d41666669726d6174696f6e735369676e65640000000000000000000000815250601501826000191660001916815260200191505060405160208183030381529060405260405180828051906020019080838360208310610c475780518252601f199092019160209182019101610c28565b6000600460008360405160200180807f61666669726d6174696f6e735369676e6564000000000000000000000000000081525060120182600019166000191681526020019150506040516020818303038152906040526040518082805190602001908083836020831061107e5780518252601f19909201916020918201910161105f565b600080611f9e83610a53611f99611399565b6116a2565b905080611fa96114c7565b10158015611fbe5750611fba611fc5565b8311155b9392505050565b600080600060405160200180807f657865637574696f6e4d61785065725478000000000000000000000000000000815250601101905060405160208183030381529060405260405180828051906020019080838360208310610cfc5780518252601f199092019160209182019101610cdd565b6000612042612317565b600160a060020a0316638d0680436040518163ffffffff1660e060020a028152600401602060405180830381600087803b15801561207f57600080fd5b505af1158015612093573d6000803e3d6000fd5b505050506040513d60208110156120a957600080fd5b5051905090565b60006002600060405160200180807f6f776e657200000000000000000000000000000000000000000000000000000081525060050190506040516020818303038152906040526040518082805190602001908083835b602083106121255780518252601f199092019160209182019101612106565b51815160209384036101000a6000190180199092169116179052604080519290940182900390912086528501959095529290920160002054600160a060020a0316949350505050565b6000600460008360405160200180807f6d657373616765735369676e6564000000000000000000000000000000000000815250600e0182600019166000191681526020019150506040516020818303038152906040526040518082805190602001908083836020831061107e5780518252601f19909201916020918201910161105f565b604080516024808201849052825180830390910181526044909101909152602081018051600160e060020a03167f916850e900000000000000000000000000000000000000000000000000000000179052600090819081612251612f19565b9050602060008351602085016000855af2600051935080801561227357612278565b600080fd5b509295945050505050565b600061141f6040516020018080600080516020615e3783398151915281525060080190506040516020818303038152906040526040518082805190602001908083835b602083106122e55780518252601f1990920191602091820191016122c6565b6001836020036101000a0380198251168184511680821785525050505050509050019150506040518091039020614c1a565b60006002600060405160200180807f76616c696461746f72436f6e74726163740000000000000000000000000000008152506011019050604051602081830303815290604052604051808280519060200190808383602083106121255780518252601f199092019160209182019101612106565b6000806000612398612317565b600160a060020a031663facd743b336040518263ffffffff1660e060020a0281526004018082600160a060020a0316600160a060020a03168152602001915050602060405180830381600087803b1580156123f257600080fd5b505af1158015612406573d6000803e3d6000fd5b505050506040513d602081101561241c57600080fd5b5051151561242957600080fd5b61243285611f87565b1561267257604080516c01000000000000000000000000600160a060020a0389160260208083019190915260348201889052605480830188905283518084039091018152607490920192839052815191929182918401908083835b602083106124ac5780518252601f19909201916020918201910161248d565b51815160209384036101000a600019018019909216911617905260408051929094018290038220336c01000000000000000000000000028383015260348084018290528551808503909101815260549093019485905282519099509195509293508392850191508083835b602083106125365780518252601f199092019160209182019101612517565b6001836020036101000a0380198251168184511680821785525050505050509050019150506040518091039020915061256e82611f03565b1561257857600080fd5b612583826001614d5d565b61258c83611e80565b9050612597816134ef565b156125a157600080fd5b6001016125ae8382614de0565b60408051858152905133917f5df9cc3eb93d8a9a481857a3b70a8ca966e6b80b25cf0ee2cce180ec5afa80a1919081900360200190a26125ec612038565b811061266d57612604836125ff83613fb2565b614de0565b600085111561262357612618868686614e62565b151561262357600080fd5b60408051600160a060020a03881681526020810187905280820186905290517f6fc115a803b8703117d9a3956c5a15401cb42401f91630f015eb6b043fa762539181900360600190a15b61267d565b61267d868686614fea565b505050505050565b600080600060405160200180807f6465706c6f7965644174426c6f636b0000000000000000000000000000000000815250600f01905060405160208183030381529060405260405180828051906020019080838360208310610cfc5780518252601f199092019160209182019101610cdd565b600260036000909192565b600080600060405160200180807f6f75744f664c696d6974416d6f756e7400000000000000000000000000000000815250601001905060405160208183030381529060405260405180828051906020019080838360208310610cfc5780518252601f199092019160209182019101610cdd565b61277e6120b0565b600160a060020a0316331461279257600080fd5b61279a611d6a565b811080156127ae57506127ab613409565b81105b15156127b957600080fd5b8060008060405160200180807f6d696e506572547800000000000000000000000000000000000000000000000081525060080190506040516020818303038152906040526040518082805190602001908083835b6020831061282c5780518252601f19909201916020918201910161280d565b51815160209384036101000a600019018019909216911617905260408051929094018290039091208652850195909552929092016000209390935550505050565b60008060008060008030600160a060020a0316636fde82026040518163ffffffff1660e060020a028152600401602060405180830381600087803b1580156128b457600080fd5b505af11580156128c8573d6000803e3d6000fd5b505050506040513d60208110156128de57600080fd5b5051600160a060020a031633146128f457600080fd5b6128fd89610ff9565b1561290757600080fd5b61290f613409565b87111561291b57600080fd5b61292489615085565b9096509450600160a060020a038616158015906129415750600085115b801561294d5750868510155b151561295857600080fd5b61297861297388612967612703565b9063ffffffff61357816565b61520c565b612988858863ffffffff61357816565b9350612994848a61527e565b604080518881526020810186905281518b927f5bcec6564fe8d2cbb4e4eb8237510ceb6b291a5c2ee2e429948d25e9c924c1fa928290030190a28315156129de576129de89615300565b8715611cd0576129ec612f19565b9250869150600160a060020a03831615612a7857612a63876000856040516020018080600080516020615e37833981519152815250600801905060405160208183030381529060405260405180828051906020019080838360208310610ae75780518252601f199092019160209182019101610ac8565b9050612a75878263ffffffff61357816565b91505b60408051600160a060020a03881681526020810184905281517f127650bcfb0ba017401abe4931453a405140a8fd36fece67bae2db174d3fdd63929181900390910190a1505050505050505050565b612acf6120b0565b600160a060020a03163314612ae357600080fd5b60008111612af057600080fd5b8060008060405160200180807f7265717569726564426c6f636b436f6e6669726d6174696f6e73000000000000815250601a0190506040516020818303038152906040526040518082805190602001908083835b60208310612b635780518252601f199092019160209182019101612b44565b51815160001960209485036101000a019081169019919091161790526040805194909201849003909320865285830196909652509284016000209490945550815184815291517f4fb76205cd57c896b21511d2114137d8e901b4ccd659e1a0f97d6306795264fb9350918290030190a150565b612bde6120b0565b600160a060020a03163314612bf257600080fd5b612bfa613409565b811180612c05575080155b1515612c1057600080fd5b8060008060405160200180807f6461696c794c696d697400000000000000000000000000000000000000000000815250600a0190506040516020818303038152906040526040518082805190602001908083835b60208310612c835780518252601f199092019160209182019101612c64565b51815160001960209485036101000a019081169019919091161790526040805194909201849003909320865285830196909652509284016000209490945550815184815291517fad4123ae17c414d9c6d2fec478b402e6b01856cc250fd01fbfd252fda0089d3c9350918290030190a150565b612cfe6120b0565b600160a060020a03163314612d1257600080fd5b60008111612d1f57600080fd5b8060008060405160200180807f676173507269636500000000000000000000000000000000000000000000000081525060080190506040516020818303038152906040526040518082805190602001908083835b60208310612d925780518252601f199092019160209182019101612d73565b51815160001960209485036101000a019081169019919091161790526040805194909201849003909320865285830196909652509284016000209490945550815184815291517f52264b89e0fceafb26e79fd49ef8a366eb6297483bf4035b027f0c99a7ad512e9350918290030190a150565b612e0d6120b0565b600160a060020a03163314612e2157600080fd5b612e29611d6a565b8110612e3457600080fd5b8060008060405160200180807f6d6178506572547800000000000000000000000000000000000000000000000081525060080190506040516020818303038152906040526040518082805190602001908083836020831061282c5780518252601f19909201916020918201910161280d565b600080600060405160200180807f646563696d616c53686966740000000000000000000000000000000000000000815250600c01905060405160208183030381529060405260405180828051906020019080838360208310610cfc5780518252601f199092019160209182019101610cdd565b60006002600060405160200180807f6665654d616e61676572436f6e747261637400000000000000000000000000008152506012019050604051602081830303815290604052604051808280519060200190808383602083106121255780518252601f199092019160209182019101612106565b600080600060405160200180807f6d696e5065725478000000000000000000000000000000000000000000000000815250600801905060405160208183030381529060405260405180828051906020019080838360208310610cfc5780518252601f199092019160209182019101610cdd565b60006130708e8e8e808060200260200160405190810160405280939291908181526020018383602002808284378201915050505050508d8d8d8d8d808060200260200160405190810160405280939291908181526020018383602002808284378201915050505050508c8961408b565b61307985613c2b565b151561308457600080fd5b846002600060405160200180807f6665654d616e61676572436f6e7472616374000000000000000000000000000081525060120190506040516020818303038152906040526040518082805190602001908083835b602083106130f85780518252601f1990920191602091820191016130d9565b51815160209384036101000a600019018019909216911617905260408051929094018290039091208652850195909552929092016000908120805473ffffffffffffffffffffffffffffffffffffffff1916600160a060020a039690961695909517909455506131d692889250879150869081811061317357fe5b905060200201356040516020018080600080516020615e37833981519152815250600801905060405160208183030381529060405260405180828051906020019080838360208310610fc75780518252601f199092019160209182019101610fa8565b61324a85858560018181106131e757fe5b905060200201356040516020018080600080516020615e17833981519152815250600b01905060405160208183030381529060405260405180828051906020019080838360208310610fc75780518252601f199092019160209182019101610fa8565b613252614b2d565b61325a6111c1565b9e9d5050505050505050505050505050565b60008061327e83610a53610a4e611399565b905080613289611d6a565b1015801561329e575061329a613409565b8311155b8015611fbe57506132ad612f8d565b9092101592915050565b6132bf6120b0565b600160a060020a031633146132d357600080fd5b6132db6114c7565b81106132e657600080fd5b8060008060405160200180807f657865637574696f6e4d6178506572547800000000000000000000000000000081525060110190506040516020818303038152906040526040518082805190602001908083836020831061282c5780518252601f19909201916020918201910161280d565b604080516004815260248101909152602081018051600160e060020a03167ff2ba9561000000000000000000000000000000000000000000000000000000001790526000908190816133a8612f19565b9050600460008351602085016000855af26000519350808015612273575092949350505050565b6133d76120b0565b600160a060020a031633146133eb57600080fd5b600160a060020a038116151561340057600080fd5b610f3f816153d2565b600080600060405160200180807f6d61785065725478000000000000000000000000000000000000000000000000815250600801905060405160208183030381529060405260405180828051906020019080838360208310610cfc5780518252601f199092019160209182019101610cdd565b600080600060405160200180807f6761735072696365000000000000000000000000000000000000000000000000815250600801905060405160208183030381529060405260405180828051906020019080838360208310610cfc5780518252601f199092019160209182019101610cdd565b7f80000000000000000000000000000000000000000000000000000000000000009081161490565b600061141f6040516020018080600080516020615e17833981519152815250600b019050604051602081830303815290604052604051808280519060200190808383602083106122e55780518252601f1990920191602091820191016122c6565b60008282111561358457fe5b508082035b92915050565b8181018281101561358957fe5b806000808460405160200180807f746f74616c5370656e74506572446179000000000000000000000000000000008152506010018281526020019150506040516020818303038152906040526040518082805190602001908083835b602083106136175780518252601f1990920191602091820191016135f8565b51815160209384036101000a60001901801990921691161790526040805192909401829003909120865285019590955292909201600020939093555050505050565b60408051602481018690528415156044820152606480820184905282518083039091018152608490910190915260208181018051600160e060020a03167f9862f26f000000000000000000000000000000000000000000000000000000001781528251600093849390929091849182895af26000519250808015612273575091979650505050505050565b8060008060405160200180807f746f74616c4275726e74436f696e730000000000000000000000000000000000815250600f0190506040516020818303038152906040526040518082805190602001908083836020831061282c5780518252601f19909201916020918201910161280d565b600061376182613c2b565b151561376c57600080fd5b6000905081600160a060020a0316632ee57f8d60e060020a0260e060020a90046040518163ffffffff1660e060020a0281526004016000604051808303816000875af192505050156138745760405180807f626c6f636b526577617264000000000000000000000000000000000000000000815250600b0190506040518091039020600160e060020a03191682600160a060020a0316632ee57f8d6040518163ffffffff1660e060020a028152600401602060405180830381600087803b15801561383657600080fd5b505af115801561384a573d6000803e3d6000fd5b505050506040513d602081101561386057600080fd5b5051600160e060020a03191614905061392b565b81600160a060020a03166310f2ee7c60e060020a0260e060020a90046040518163ffffffff1660e060020a0281526004016000604051808303816000875af1925050501561392b5781600160a060020a03166310f2ee7c6040518163ffffffff1660e060020a028152600401602060405180830381600087803b1580156138fa57600080fd5b505af115801561390e573d6000803e3d6000fd5b505050506040513d602081101561392457600080fd5b5051151590505b80151561393757600080fd5b816002600060405160200180807f626c6f636b526577617264436f6e74726163740000000000000000000000000081525060130190506040516020818303038152906040526040518082805190602001908083835b602083106139ab5780518252601f19909201916020918201910161398c565b51815160209384036101000a60001901801990921691161790526040805192909401829003909120865285019590955292909201600020805473ffffffffffffffffffffffffffffffffffffffff1916600160a060020a0395909516949094179093555050505050565b60006040516020018080600080516020615e3783398151915281525060080190506040516020818303038152906040526040518082805190602001908083835b60208310613a745780518252601f199092019160209182019101613a55565b5181516020939093036101000a6000190180199091169216919091179052604051920182900390912085149250613ace915050577f286c406600000000000000000000000000000000000000000000000000000000613af0565b7f34a9e148000000000000000000000000000000000000000000000000000000005b6040805160248082018790528251808303909101815260449091018252602081018051600160e060020a0316600160e060020a0319851617815291518151939450600160a060020a038816939192909182919080838360005b83811015613b61578181015183820152602001613b49565b50505050905090810190601f168015613b8e5780820380516001836020036101000a031916815260200191505b50915050600060405180830381855af49150501515613bac57600080fd5b50505050565b606890565b60006002600060405160200180807f626c6f636b526577617264436f6e7472616374000000000000000000000000008152506013019050604051602081830303815290604052604051808280519060200190808383602083106121255780518252601f199092019160209182019101612106565b6000903b1190565b6000613c3d613bb2565b8251149050919050565b60008060008086516041141515613c5d57600080fd5b5050506020840151604085015160608601516001613c7b8787615490565b60408051600080825260208083018085529490945260ff7f0100000000000000000000000000000000000000000000000000000000000000870416828401526060820188905260808201879052915160a08083019493601f198301938390039091019190865af1158015613cf3573d6000803e3d6000fd5b5050604051601f19015198975050505050505050565b80600360008460405160200180807f6d6573736167657300000000000000000000000000000000000000000000000081525060080182600019166000191681526020019150506040516020818303038152906040526040518082805190602001908083835b60208310613d8d5780518252601f199092019160209182019101613d6e565b51815160001960209485036101000a01908116901991909116179052604080519490920184900390932086528583019690965250929093016000208451611e7b959194509201919050615d4e565b80600460008460405160200180807f6d657373616765735369676e6564000000000000000000000000000000000000815250600e0182600019166000191681526020019150506040516020818303038152906040526040518082805190602001908083835b60208310613e5f5780518252601f199092019160209182019101613e40565b51815160209384036101000a60001901801990921691161790526040805192909401829003909120865285019590955292909201600020805460ff1916941515949094179093555050505050565b80600360008460405160200180807f7369676e61747572657300000000000000000000000000000000000000000000815250600a01826000191660001916815260200191505060405160208183030381529060405260405180828051906020019080838360208310613d8d5780518252601f199092019160209182019101613d6e565b806000808460405160200180807f6e756d4d657373616765735369676e65640000000000000000000000000000008152506011018260001916600019168152602001915050604051602081830303815290604052604051808280519060200190808383602083106136175780518252601f1990920191602091820191016135f8565b7f80000000000000000000000000000000000000000000000000000000000000001790565b600080600080600080613fe8612f19565b9550600160a060020a0386161561408257614002876156aa565b80955081965082975083985050505050614075846001886040516020018080600080516020615e37833981519152815250600801905060405160208183030381529060405260405180828051906020019080838360208310610ae75780518252601f199092019160209182019101610ac8565b90506140828187856156e5565b50505050505050565b6140936111c1565b1561409d57600080fd5b6140a688613c2b565b15156140b157600080fd5b600085116140be57600080fd5b60008760028151811015156140cf57fe5b9060200190602002015111801561411557508660028151811015156140f057fe5b9060200190602002015187600181518110151561410957fe5b90602001906020020151115b8015614150575086600181518110151561412b57fe5b9060200190602002015187600081518110151561414457fe5b90602001906020020151115b151561415b57600080fd5b600160a060020a0384161580614175575061417584613c2b565b151561418057600080fd5b82600081518110151561418f57fe5b906020019060200201518360018151811015156141a857fe5b60209081029091010151106141bc57600080fd5b600160a060020a03821615156141d157600080fd5b876002600060405160200180807f76616c696461746f72436f6e747261637400000000000000000000000000000081525060110190506040516020818303038152906040526040518082805190602001908083835b602083106142455780518252601f199092019160209182019101614226565b51815160209384036101000a60001901801990921691161790526040805192909401829003909120865285810196909652509283016000908120805473ffffffffffffffffffffffffffffffffffffffff1916600160a060020a039790971696909617909555505080517f6465706c6f7965644174426c6f636b0000000000000000000000000000000000818401528151600f818303018152602f90910191829052805143949384939182918401908083835b602083106143175780518252601f1990920191602091820191016142f8565b51815160209384036101000a600019018019909216911617905260408051929094018290039091208652850195909552929092016000908120949094555050885189929150811061436457fe5b9060200190602002015160008060405160200180807f6461696c794c696d697400000000000000000000000000000000000000000000815250600a0190506040516020818303038152906040526040518082805190602001908083835b602083106143e05780518252601f1990920191602091820191016143c1565b51815160209384036101000a600019018019909216911617905260408051929094018290039091208652850195909552929092016000209390935550508751889150600190811061442d57fe5b9060200190602002015160008060405160200180807f6d6178506572547800000000000000000000000000000000000000000000000081525060080190506040516020818303038152906040526040518082805190602001908083835b602083106144a95780518252601f19909201916020918201910161448a565b51815160209384036101000a60001901801990921691161790526040805192909401829003909120865285019590955292909201600020939093555050875188915060029081106144f657fe5b9060200190602002015160008060405160200180807f6d696e506572547800000000000000000000000000000000000000000000000081525060080190506040516020818303038152906040526040518082805190602001908083835b602083106145725780518252601f199092019160209182019101614553565b51815160209384036101000a6000190180199092169116179052604080519290940182900390912086528581019690965250928301600090812095909555505080517f6761735072696365000000000000000000000000000000000000000000000000818401528151600881830301815260289091019182905280518a949384939182918401908083835b6020831061461c5780518252601f1990920191602091820191016145fd565b51815160209384036101000a6000190180199092169116179052604080519290940182900390912086528581019690965250928301600090812095909555505080517f7265717569726564426c6f636b436f6e6669726d6174696f6e73000000000000818401528151601a818303018152603a90910191829052805189949384939182918401908083835b602083106146c65780518252601f1990920191602091820191016146a7565b51815160209384036101000a6000190180199092169116179052604080519290940182900390912086528581019690965250928301600090812095909555505080517f626c6f636b526577617264436f6e74726163740000000000000000000000000081840152815160138183030181526033909101918290528051889460029490939182918401908083835b602083106147725780518252601f199092019160209182019101614753565b51815160209384036101000a600019018019909216911617905260408051929094018290039091208652850195909552929092016000908120805473ffffffffffffffffffffffffffffffffffffffff1916600160a060020a039690961695909517909455505084518592915081106147e757fe5b9060200190602002015160008060405160200180807f657865637574696f6e4461696c794c696d69740000000000000000000000000081525060130190506040516020818303038152906040526040518082805190602001908083835b602083106148635780518252601f199092019160209182019101614844565b51815160209384036101000a60001901801990921691161790526040805192909401829003909120865285019590955292909201600020939093555050835184915060019081106148b057fe5b9060200190602002015160008060405160200180807f657865637574696f6e4d6178506572547800000000000000000000000000000081525060110190506040516020818303038152906040526040518082805190602001908083835b6020831061492c5780518252601f19909201916020918201910161490d565b51815160209384036101000a6000190180199092169116179052604080519290940182900390912086528581019690965250928301600090812095909555505080517f646563696d616c53686966740000000000000000000000000000000000000000818401528151600c818303018152602c90910191829052805185949384939182918401908083835b602083106149d65780518252601f1990920191602091820191016149b7565b51815160209384036101000a600019018019909216911617905260408051929094018290039091208652850195909552929092016000209390935550614a1f91508390506153d2565b6040805186815290517f4fb76205cd57c896b21511d2114137d8e901b4ccd659e1a0f97d6306795264fb9181900360200190a16040805187815290517f52264b89e0fceafb26e79fd49ef8a366eb6297483bf4035b027f0c99a7ad512e9181900360200190a17fad4123ae17c414d9c6d2fec478b402e6b01856cc250fd01fbfd252fda0089d3c876000815181101515614ab557fe5b906020019060200201516040518082815260200191505060405180910390a17f9bebf928b90863f24cc31f726a3a7545efd409f1dcf552301b1ee3710da70d3b836000815181101515614b0457fe5b906020019060200201516040518082815260200191505060405180910390a15050505050505050565b60016004600060405160200180807f6973496e697469616c697a656400000000000000000000000000000000000000815250600d0190506040516020818303038152906040526040518082805190602001908083835b60208310614ba25780518252601f199092019160209182019101614b83565b51815160209384036101000a60001901801990921691161790526040805192909401829003909120865285019590955292909201600020805460ff191694151594909417909355505050565b600160a060020a0382161515614c0c57614c07816157ea565b614c16565b614c168282615855565b5050565b6000806000806060614c2a612f19565b92506040516020018080600080516020615e3783398151915281525060080190506040516020818303038152906040526040518082805190602001908083835b60208310614c895780518252601f199092019160209182019101614c6a565b5181516020939093036101000a6000190180199091169216919091179052604051920182900390912089149250614ce3915050577fffd6619600000000000000000000000000000000000000000000000000000000614d05565b7f94da17cd000000000000000000000000000000000000000000000000000000005b60408051600481526024810190915260208082018051600160e060020a0316600160e060020a0319851617815282519395509193509160009182875af260005194508080156122735750508394505b50505050919050565b80600460008460405160200180807f61666669726d6174696f6e735369676e65640000000000000000000000000000815250601201826000191660001916815260200191505060405160208183030381529060405260405180828051906020019080838360208310613e5f5780518252601f199092019160209182019101613e40565b806000808460405160200180807f6e756d41666669726d6174696f6e735369676e656400000000000000000000008152506015018260001916600019168152602001915050604051602081830303815290604052604051808280519060200190808383602083106136175780518252601f1990920191602091820191016135f8565b6000806000806000614e89614e75611399565b614e8489610a53611f99611399565b6158f3565b614e9161171d565b9350600160a060020a0384161515614ea857600080fd5b614ec3614eb3612ea6565b8890600a0a63ffffffff61596d16565b9250614ecd612f19565b9150600160a060020a03821615614f6157614f41836000846040516020018080600080516020615e17833981519152815250600b01905060405160208183030381529060405260405180828051906020019080838360208310610ae75780518252601f199092019160209182019101610ac8565b9050614f4e818388615996565b614f5e838263ffffffff61357816565b92505b83600160a060020a031663aa9fa274848a6040518363ffffffff1660e060020a0281526004018083815260200182600160a060020a0316600160a060020a0316815260200192505050600060405180830381600087803b158015614fc457600080fd5b505af1158015614fd8573d6000803e3d6000fd5b5060019b9a5050505050505050505050565b600080614ff683615085565b9092509050600160a060020a038216158015615010575080155b151561501b57600080fd5b61502a61297385610a53612703565b615035858585615a9b565b60408051600160a060020a03871681526020810186905280820185905290517f159c0773f543f1e17d5e78327702770947055eb4e871b529bbc78bc9fde456929181900360600190a15050505050565b600080600260008460405160200180807f74784f75744f664c696d6974526563697069656e74000000000000000000000081525060150182600019166000191681526020019150506040516020818303038152906040526040518082805190602001908083835b6020831061510b5780518252601f1990920191602091820191016150ec565b51815160209384036101000a600019018019909216911617905260408051929094018290039091208652858101969096525092830160009081205484517f74784f75744f664c696d697456616c75650000000000000000000000000000008188015260318082018b9052865180830390910181526051909101958690528051600160a060020a0390921698509195869592945091925082918401908083835b602083106151c95780518252601f1990920191602091820191016151aa565b51815160209384036101000a6000190180199092169116179052604080519290940182900390912086528501959095529290920160002054949694955050505050565b8060008060405160200180807f6f75744f664c696d6974416d6f756e740000000000000000000000000000000081525060100190506040516020818303038152906040526040518082805190602001908083836020831061282c5780518252601f19909201916020918201910161280d565b816000808360405160200180807f74784f75744f664c696d697456616c75650000000000000000000000000000008152506011018260001916600019168152602001915050604051602081830303815290604052604051808280519060200190808383602083106136175780518252601f1990920191602091820191016135f8565b6001600460008360405160200180807f6669786564417373657473000000000000000000000000000000000000000000815250600b0182600019166000191681526020019150506040516020818303038152906040526040518082805190602001908083835b602083106153855780518252601f199092019160209182019101615366565b51815160209384036101000a60001901801990921691161790526040805192909401829003909120865285019590955292909201600020805460ff19169415159490941790935550505050565b7f8be0079c531659141344cd1fd0a4f28419497f9722a3daafe3b4186f6b6457e06153fb6120b0565b60408051600160a060020a03928316815291841660208301528051918290030190a1806002600060405160200180807f6f776e65720000000000000000000000000000000000000000000000000000008152506005019050604051602081830303815290604052604051808280519060200190808383602083106117dc5780518252601f1990920191602091820191016117bd565b60408051808201909152601a81527f19457468657265756d205369676e6564204d6573736167653a0a00000000000060208201526000906060831561563657816154da8651615b91565b866040516020018084805190602001908083835b6020831061550d5780518252601f1990920191602091820191016154ee565b51815160209384036101000a600019018019909216911617905286519190930192860191508083835b602083106155555780518252601f199092019160209182019101615536565b51815160209384036101000a600019018019909216911617905285519190930192850191508083835b6020831061559d5780518252601f19909201916020918201910161557e565b6001836020036101000a03801982511681845116808217855250505050505090500193505050506040516020818303038152906040526040518082805190602001908083835b602083106156025780518252601f1990920191602091820191016155e3565b6001836020036101000a038019825116818451168082178552505050505050905001915050604051809103902092506156a2565b6040805190810160405280600381526020017f313034000000000000000000000000000000000000000000000000000000000081525090508181866040516020018084805190602001908083836020831061550d5780518252601f1990920191602091820191016154ee565b505092915050565b6000806000806156b985613c33565b15156156c457600080fd5b50505050601481015160348201516054830151606890930151919390929190565b6040805160248082018690528251808303909101815260449091018252602081018051600160e060020a03167f59d784640000000000000000000000000000000000000000000000000000000017815291518151600160a060020a03861693829180838360005b8381101561576457818101518382015260200161574c565b50505050905090810190601f1680156157915780820380516001836020036101000a031916815260200191505b50915050600060405180830381855af491505015156157af57600080fd5b60408051848152905182917f858abdcd5efcaebb936e8e8516f0cfe9a0ef5157ff99d16cdabb6db625be90d0919081900360200190a2505050565b604051303190600160a060020a0383169082156108fc029083906000818181858888f193505050501515614c16578082615822615dcc565b600160a060020a039091168152604051908190036020019082f08015801561584e573d6000803e3d6000fd5b5050505050565b604080517f70a0823100000000000000000000000000000000000000000000000000000000815230600482015290518391600091600160a060020a038416916370a0823191602480830192602092919082900301818787803b1580156158ba57600080fd5b505af11580156158ce573d6000803e3d6000fd5b505050506040513d60208110156158e457600080fd5b50519050613bac848483615cb4565b806000808460405160200180807f746f74616c457865637574656450657244617900000000000000000000000000815250601301828152602001915050604051602081830303815290604052604051808280519060200190808383602083106136175780518252601f1990920191602091820191016135f8565b600082151561597e57506000613589565b5081810281838281151561598e57fe5b041461358957fe5b6040805160248082018690528251808303909101815260449091018252602081018051600160e060020a03167f054d46ec0000000000000000000000000000000000000000000000000000000017815291518151600160a060020a03861693829180838360005b83811015615a155781810151838201526020016159fd565b50505050905090810190601f168015615a425780820380516001836020036101000a031916815260200191505b50915050600060405180830381855af49150501515615a6057600080fd5b60408051848152905182917fa52d3c9cbc541772e4edd92e2e4e2a3865ab73630f25deed8a6c8de41ff0f65c919081900360200190a2505050565b82600260008360405160200180807f74784f75744f664c696d6974526563697069656e74000000000000000000000081525060150182600019166000191681526020019150506040516020818303038152906040526040518082805190602001908083835b60208310615b1f5780518252601f199092019160209182019101615b00565b51815160209384036101000a60001901801990921691161790526040805192909401829003909120865285019590955292909201600020805473ffffffffffffffffffffffffffffffffffffffff1916600160a060020a03959095169490941790935550611e7b91508390508261527e565b60606000808281851515615bda5760408051808201909152600181527f300000000000000000000000000000000000000000000000000000000000000060208201529450614d54565b8593505b8315615bf557600190920191600a84049350615bde565b826040519080825280601f01601f191660200182016040528015615c23578160200160208202803883390190505b5091505060001982015b8515615cab5781516000198201917f01000000000000000000000000000000000000000000000000000000000000006030600a8a060102918491908110615c7057fe5b9060200101907effffffffffffffffffffffffffffffffffffffffffffffffffffffffffffff1916908160001a905350600a86049550615c2d565b50949350505050565b60408051600160a060020a0384166024820152604480820184905282518083039091018152606490910190915260208181018051600160e060020a03167fa9059cbb000000000000000000000000000000000000000000000000000000001781528251606093600093909290918491828a5af1600051935083925080801561227357505060008351111561267d5781151561267d57600080fd5b828054600181600116156101000203166002900490600052602060002090601f016020900481019282601f10615d8f57805160ff1916838001178555615dbc565b82800160010185558215615dbc579182015b82811115615dbc578251825591602001919060010190615da1565b50615dc8929150615ddb565b5090565b604051602180615df683390190565b610d3a91905b80821115615dc85760008155600101615de15600608060405260405160208060218339810160405251600160a060020a038116ff00666f726569676e2d666565000000000000000000000000000000000000000000686f6d652d666565000000000000000000000000000000000000000000000000a165627a7a72305820397ef7cc4619c11741ac2e2d55235c5c26d86c6b12d3a64299ea0bd4c4b041c40029",
  "source": "pragma solidity 0.4.24;\n\nimport \"../../libraries/Message.sol\";\nimport \"../../upgradeability/EternalStorage.sol\";\nimport \"../../interfaces/IBlockReward.sol\";\nimport \"../BasicHomeBridge.sol\";\nimport \"../ERC677Bridge.sol\";\nimport \"../OverdrawManagement.sol\";\nimport \"./RewardableHomeBridgeErcToNative.sol\";\nimport \"../BlockRewardBridge.sol\";\n\ncontract HomeBridgeErcToNative is\n    EternalStorage,\n    BasicHomeBridge,\n    OverdrawManagement,\n    RewardableHomeBridgeErcToNative,\n    BlockRewardBridge\n{\n    event AmountLimitExceeded(address recipient, uint256 value, bytes32 transactionHash);\n\n    bytes32 internal constant TOTAL_BURNT_COINS = keccak256(abi.encodePacked(\"totalBurntCoins\"));\n\n    function() public payable {\n        nativeTransfer();\n    }\n\n    function nativeTransfer() internal {\n        require(msg.value > 0);\n        require(msg.data.length == 0);\n        require(withinLimit(msg.value));\n        IBlockReward blockReward = blockRewardContract();\n        uint256 totalMinted = blockReward.mintedTotallyByBridge(address(this));\n        uint256 totalBurnt = totalBurntCoins();\n        require(msg.value <= totalMinted.sub(totalBurnt));\n        setTotalSpentPerDay(getCurrentDay(), totalSpentPerDay(getCurrentDay()).add(msg.value));\n        uint256 valueToTransfer = msg.value;\n        address feeManager = feeManagerContract();\n        uint256 valueToBurn = msg.value;\n        if (feeManager != address(0)) {\n            uint256 fee = calculateFee(valueToTransfer, false, feeManager, HOME_FEE);\n            valueToTransfer = valueToTransfer.sub(fee);\n            valueToBurn = getAmountToBurn(valueToBurn);\n        }\n        setTotalBurntCoins(totalBurnt.add(valueToBurn));\n        address(0).transfer(valueToBurn);\n        emit UserRequestForSignature(msg.sender, valueToTransfer);\n    }\n\n    function initialize(\n        address _validatorContract,\n        uint256[] _dailyLimitMaxPerTxMinPerTxArray, // [ 0 = _dailyLimit, 1 = _maxPerTx, 2 = _minPerTx ]\n        uint256 _homeGasPrice,\n        uint256 _requiredBlockConfirmations,\n        address _blockReward,\n        uint256[] _foreignDailyLimitForeignMaxPerTxArray, // [ 0 = _foreignDailyLimit, 1 = _foreignMaxPerTx ]\n        address _owner,\n        uint256 _decimalShift\n    ) external returns (bool) {\n        _initialize(\n            _validatorContract,\n            _dailyLimitMaxPerTxMinPerTxArray,\n            _homeGasPrice,\n            _requiredBlockConfirmations,\n            _blockReward,\n            _foreignDailyLimitForeignMaxPerTxArray,\n            _owner,\n            _decimalShift\n        );\n        setInitialize();\n\n        return isInitialized();\n    }\n\n    function rewardableInitialize(\n        address _validatorContract,\n        uint256[] _dailyLimitMaxPerTxMinPerTxArray, // [ 0 = _dailyLimit, 1 = _maxPerTx, 2 = _minPerTx ]\n        uint256 _homeGasPrice,\n        uint256 _requiredBlockConfirmations,\n        address _blockReward,\n        uint256[] _foreignDailyLimitForeignMaxPerTxArray, // [ 0 = _foreignDailyLimit, 1 = _foreignMaxPerTx ]\n        address _owner,\n        address _feeManager,\n        uint256[] _homeFeeForeignFeeArray, // [ 0 = _homeFee, 1 = _foreignFee ]\n        uint256 _decimalShift\n    ) external returns (bool) {\n        _initialize(\n            _validatorContract,\n            _dailyLimitMaxPerTxMinPerTxArray,\n            _homeGasPrice,\n            _requiredBlockConfirmations,\n            _blockReward,\n            _foreignDailyLimitForeignMaxPerTxArray,\n            _owner,\n            _decimalShift\n        );\n        require(AddressUtils.isContract(_feeManager));\n        addressStorage[FEE_MANAGER_CONTRACT] = _feeManager;\n        _setFee(_feeManager, _homeFeeForeignFeeArray[0], HOME_FEE);\n        _setFee(_feeManager, _homeFeeForeignFeeArray[1], FOREIGN_FEE);\n        setInitialize();\n\n        return isInitialized();\n    }\n\n    function getBridgeMode() external pure returns (bytes4 _data) {\n        return bytes4(keccak256(abi.encodePacked(\"erc-to-native-core\")));\n    }\n\n    function blockRewardContract() public view returns (IBlockReward) {\n        return _blockRewardContract();\n    }\n\n    function totalBurntCoins() public view returns (uint256) {\n        return uintStorage[TOTAL_BURNT_COINS];\n    }\n\n    function setBlockRewardContract(address _blockReward) external onlyOwner {\n        _setBlockRewardContract(_blockReward);\n    }\n\n    function _initialize(\n        address _validatorContract,\n        uint256[] _dailyLimitMaxPerTxMinPerTxArray, // [ 0 = _dailyLimit, 1 = _maxPerTx, 2 = _minPerTx ]\n        uint256 _homeGasPrice,\n        uint256 _requiredBlockConfirmations,\n        address _blockReward,\n        uint256[] _foreignDailyLimitForeignMaxPerTxArray, // [ 0 = _foreignDailyLimit, 1 = _foreignMaxPerTx ]\n        address _owner,\n        uint256 _decimalShift\n    ) internal {\n        require(!isInitialized());\n        require(AddressUtils.isContract(_validatorContract));\n        require(_requiredBlockConfirmations > 0);\n        require(\n            _dailyLimitMaxPerTxMinPerTxArray[2] > 0 && // _minPerTx > 0\n                _dailyLimitMaxPerTxMinPerTxArray[1] > _dailyLimitMaxPerTxMinPerTxArray[2] && // _maxPerTx > _minPerTx\n                _dailyLimitMaxPerTxMinPerTxArray[0] > _dailyLimitMaxPerTxMinPerTxArray[1] // _dailyLimit > _maxPerTx\n        );\n        require(_blockReward == address(0) || AddressUtils.isContract(_blockReward));\n        require(_foreignDailyLimitForeignMaxPerTxArray[1] < _foreignDailyLimitForeignMaxPerTxArray[0]); // _foreignMaxPerTx < _foreignDailyLimit\n        require(_owner != address(0));\n\n        addressStorage[VALIDATOR_CONTRACT] = _validatorContract;\n        uintStorage[DEPLOYED_AT_BLOCK] = block.number;\n        uintStorage[DAILY_LIMIT] = _dailyLimitMaxPerTxMinPerTxArray[0];\n        uintStorage[MAX_PER_TX] = _dailyLimitMaxPerTxMinPerTxArray[1];\n        uintStorage[MIN_PER_TX] = _dailyLimitMaxPerTxMinPerTxArray[2];\n        uintStorage[GAS_PRICE] = _homeGasPrice;\n        uintStorage[REQUIRED_BLOCK_CONFIRMATIONS] = _requiredBlockConfirmations;\n        addressStorage[BLOCK_REWARD_CONTRACT] = _blockReward;\n        uintStorage[EXECUTION_DAILY_LIMIT] = _foreignDailyLimitForeignMaxPerTxArray[0];\n        uintStorage[EXECUTION_MAX_PER_TX] = _foreignDailyLimitForeignMaxPerTxArray[1];\n        uintStorage[DECIMAL_SHIFT] = _decimalShift;\n        setOwner(_owner);\n\n        emit RequiredBlockConfirmationChanged(_requiredBlockConfirmations);\n        emit GasPriceChanged(_homeGasPrice);\n        emit DailyLimitChanged(_dailyLimitMaxPerTxMinPerTxArray[0]);\n        emit ExecutionDailyLimitChanged(_foreignDailyLimitForeignMaxPerTxArray[0]);\n    }\n\n    function onExecuteAffirmation(address _recipient, uint256 _value, bytes32 txHash) internal returns (bool) {\n        setTotalExecutedPerDay(getCurrentDay(), totalExecutedPerDay(getCurrentDay()).add(_value));\n        IBlockReward blockReward = blockRewardContract();\n        require(blockReward != address(0));\n        uint256 valueToMint = _value.mul(10 ** decimalShift());\n        address feeManager = feeManagerContract();\n        if (feeManager != address(0)) {\n            uint256 fee = calculateFee(valueToMint, false, feeManager, FOREIGN_FEE);\n            distributeFeeFromAffirmation(fee, feeManager, txHash);\n            valueToMint = valueToMint.sub(fee);\n        }\n        blockReward.addExtraReceiver(valueToMint, _recipient);\n        return true;\n    }\n\n    function onSignaturesCollected(bytes _message) internal {\n        address feeManager = feeManagerContract();\n        if (feeManager != address(0)) {\n            address recipient;\n            uint256 amount;\n            bytes32 txHash;\n            address contractAddress;\n            (recipient, amount, txHash, contractAddress) = Message.parseMessage(_message);\n            uint256 fee = calculateFee(amount, true, feeManager, HOME_FEE);\n            distributeFeeFromSignatures(fee, feeManager, txHash);\n        }\n    }\n\n    function setTotalBurntCoins(uint256 _amount) internal {\n        uintStorage[TOTAL_BURNT_COINS] = _amount;\n    }\n\n    function onFailedAffirmation(address _recipient, uint256 _value, bytes32 _txHash) internal {\n        address recipient;\n        uint256 value;\n        (recipient, value) = txAboveLimits(_txHash);\n        require(recipient == address(0) && value == 0);\n        setOutOfLimitAmount(outOfLimitAmount().add(_value));\n        setTxAboveLimits(_recipient, _value, _txHash);\n        emit AmountLimitExceeded(_recipient, _value, _txHash);\n    }\n}\n",
  "sourcePath": "/contracts/contracts/upgradeable_contracts/erc20_to_native/HomeBridgeErcToNative.sol",
  "compiler": {
    "name": "solc",
    "version": "0.4.24+commit.e67f0147.Emscripten.clang"
  },
  "schemaVersion": "3.0.9",
  "updatedAt": "2019-09-30T13:18:39.329Z",
  "devdoc": {
    "methods": {
      "owner()": {
        "details": "Tells the address of the owner",
        "return": "the address of the owner"
      },
      "transferOwnership(address)": {
        "details": "Allows the current owner to transfer control of the contract to a newOwner.",
        "params": {
          "newOwner": "the address to transfer ownership to."
        }
      }
    }
  },
  "userdoc": {
    "methods": {}
  }
}