{
  "contractName": "MessageTest",
  "abi": [
    {
      "constant": true,
      "inputs": [
        {
          "name": "_data",
          "type": "bytes"
        }
      ],
      "name": "unpackData",
      "outputs": [
        {
          "name": "sender",
          "type": "address"
        },
        {
          "name": "executor",
          "type": "address"
        },
        {
          "name": "txHash",
          "type": "bytes32"
        },
        {
          "name": "gasLimit",
          "type": "uint256"
        },
        {
          "name": "dataType",
          "type": "bytes1"
        },
        {
          "name": "gasPrice",
          "type": "uint256"
        },
        {
          "name": "data",
          "type": "bytes"
        }
      ],
      "payable": false,
      "stateMutability": "pure",
      "type": "function"
    },
    {
      "constant": true,
      "inputs": [
        {
          "name": "_data",
          "type": "bytes"
        },
        {
          "name": "",
          "type": "bytes"
        }
      ],
      "name": "unpackDataWithExtraParams",
      "outputs": [
        {
          "name": "sender",
          "type": "address"
        },
        {
          "name": "executor",
          "type": "address"
        },
        {
          "name": "txHash",
          "type": "bytes32"
        },
        {
          "name": "gasLimit",
          "type": "uint256"
        },
        {
          "name": "dataType",
          "type": "bytes1"
        },
        {
          "name": "gasPrice",
          "type": "uint256"
        },
        {
          "name": "data",
          "type": "bytes"
        }
      ],
      "payable": false,
      "stateMutability": "pure",
      "type": "function"
    }
  ],
  "bytecode": "0x608060405234801561001057600080fd5b506103d6806100206000396000f30060806040526004361061004b5763ffffffff7c01000000000000000000000000000000000000000000000000000000006000350416633bc6606f8114610050578063765109971461018e575b600080fd5b34801561005c57600080fd5b506040805160206004803580820135601f81018490048402850184019095528484526100a99436949293602493928401919081908401838280828437509497506102259650505050505050565b6040805173ffffffffffffffffffffffffffffffffffffffff808a1682528816602080830191909152918101879052606081018690527fff000000000000000000000000000000000000000000000000000000000000008516608082015260a0810184905260e060c0820181815284519183019190915283519192909161010084019185019080838360005b8381101561014d578181015183820152602001610135565b50505050905090810190601f16801561017a5780820380516001836020036101000a031916815260200191505b509850505050505050505060405180910390f35b34801561019a57600080fd5b506040805160206004803580820135601f81018490048402850184019095528484526100a994369492936024939284019190819084018382808284375050604080516020601f89358b018035918201839004830284018301909452808352979a9998810197919650918201945092508291508401838280828437509497506102529650505050505050565b600080600080600080606061023b886000610280565b959e949d50929b5090995097509550909350915050565b6000806000806000806060610268896001610280565b959f949e50929c50909a509850965090945092505050565b60208201516034830151604884015160688501516088860151929391927fff00000000000000000000000000000000000000000000000000000000000000166000606081806069858015610321577f0100000000000000000000000000000000000000000000000000000000000000811461032a577f0200000000000000000000000000000000000000000000000000000000000000811461033c57610347565b60009550610347565b60898d01519550602082019150610347565b600095506001820191505b50808c51039150816040519080825280601f01601f19166020018201604052801561037c578160200160208202803883390190505b5093506020840160018c141561039157602093505b82848360440101823750505050929598919497509295505600a165627a7a723058202aadecd854db5cadae1b72e126688a53e34f2f469f3f92e14a54d355590816400029",
  "source": "pragma solidity 0.4.24;\n\nimport \"../libraries/ArbitraryMessage.sol\";\n\ncontract MessageTest {\n    function unpackData(bytes _data)\n        public\n        pure\n        returns (\n            address sender,\n            address executor,\n            bytes32 txHash,\n            uint256 gasLimit,\n            bytes1 dataType,\n            uint256 gasPrice,\n            bytes memory data\n        )\n    {\n        (sender, executor, txHash, gasLimit, dataType, gasPrice, data) = ArbitraryMessage.unpackData(_data, false);\n    }\n\n    function unpackDataWithExtraParams(\n        bytes _data,\n        bytes /*signatures*/\n    )\n        public\n        pure\n        returns (\n            address sender,\n            address executor,\n            bytes32 txHash,\n            uint256 gasLimit,\n            bytes1 dataType,\n            uint256 gasPrice,\n            bytes memory data\n        )\n    {\n        (sender, executor, txHash, gasLimit, dataType, gasPrice, data) = ArbitraryMessage.unpackData(_data, true);\n    }\n\n}\n",
  "sourcePath": "/contracts/contracts/mocks/MessageTest.sol",
  "compiler": {
    "name": "solc",
    "version": "0.4.24+commit.e67f0147.Emscripten.clang"
  },
  "schemaVersion": "3.0.9",
  "updatedAt": "2019-09-30T13:18:39.245Z",
  "devdoc": {
    "methods": {}
  },
  "userdoc": {
    "methods": {}
  }
}