{
  "contractName": "OverdrawManagement",
  "abi": [
    {
      "constant": true,
      "inputs": [
        {
          "name": "_day",
          "type": "uint256"
        }
      ],
      "name": "totalSpentPerDay",
      "outputs": [
        {
          "name": "",
          "type": "uint256"
        }
      ],
      "payable": false,
      "stateMutability": "view",
      "type": "function"
    },
    {
      "constant": true,
      "inputs": [],
      "name": "isInitialized",
      "outputs": [
        {
          "name": "",
          "type": "bool"
        }
      ],
      "payable": false,
      "stateMutability": "view",
      "type": "function"
    },
    {
      "constant": false,
      "inputs": [
        {
          "name": "_dailyLimit",
          "type": "uint256"
        }
      ],
      "name": "setExecutionDailyLimit",
      "outputs": [],
      "payable": false,
      "stateMutability": "nonpayable",
      "type": "function"
    },
    {
      "constant": true,
      "inputs": [],
      "name": "getCurrentDay",
      "outputs": [
        {
          "name": "",
          "type": "uint256"
        }
      ],
      "payable": false,
      "stateMutability": "view",
      "type": "function"
    },
    {
      "constant": true,
      "inputs": [],
      "name": "requiredBlockConfirmations",
      "outputs": [
        {
          "name": "",
          "type": "uint256"
        }
      ],
      "payable": false,
      "stateMutability": "view",
      "type": "function"
    },
    {
      "constant": true,
      "inputs": [],
      "name": "executionDailyLimit",
      "outputs": [
        {
          "name": "",
          "type": "uint256"
        }
      ],
      "payable": false,
      "stateMutability": "view",
      "type": "function"
    },
    {
      "constant": true,
      "inputs": [
        {
          "name": "_day",
          "type": "uint256"
        }
      ],
      "name": "totalExecutedPerDay",
      "outputs": [
        {
          "name": "",
          "type": "uint256"
        }
      ],
      "payable": false,
      "stateMutability": "view",
      "type": "function"
    },
    {
      "constant": false,
      "inputs": [
        {
          "name": "_feeManager",
          "type": "address"
        }
      ],
      "name": "setFeeManagerContract",
      "outputs": [],
      "payable": false,
      "stateMutability": "nonpayable",
      "type": "function"
    },
    {
      "constant": true,
      "inputs": [],
      "name": "dailyLimit",
      "outputs": [
        {
          "name": "",
          "type": "uint256"
        }
      ],
      "payable": false,
      "stateMutability": "view",
      "type": "function"
    },
    {
      "constant": false,
      "inputs": [
        {
          "name": "_token",
          "type": "address"
        },
        {
          "name": "_to",
          "type": "address"
        }
      ],
      "name": "claimTokens",
      "outputs": [],
      "payable": false,
      "stateMutability": "nonpayable",
      "type": "function"
    },
    {
      "constant": true,
      "inputs": [
        {
          "name": "_amount",
          "type": "uint256"
        }
      ],
      "name": "withinExecutionLimit",
      "outputs": [
        {
          "name": "",
          "type": "bool"
        }
      ],
      "payable": false,
      "stateMutability": "view",
      "type": "function"
    },
    {
      "constant": true,
      "inputs": [],
      "name": "executionMaxPerTx",
      "outputs": [
        {
          "name": "",
          "type": "uint256"
        }
      ],
      "payable": false,
      "stateMutability": "view",
      "type": "function"
    },
    {
      "constant": true,
      "inputs": [],
      "name": "requiredSignatures",
      "outputs": [
        {
          "name": "",
          "type": "uint256"
        }
      ],
      "payable": false,
      "stateMutability": "view",
      "type": "function"
    },
    {
      "constant": true,
      "inputs": [],
      "name": "owner",
      "outputs": [
        {
          "name": "",
          "type": "address"
        }
      ],
      "payable": false,
      "stateMutability": "view",
      "type": "function"
    },
    {
      "constant": true,
      "inputs": [],
      "name": "validatorContract",
      "outputs": [
        {
          "name": "",
          "type": "address"
        }
      ],
      "payable": false,
      "stateMutability": "view",
      "type": "function"
    },
    {
      "constant": true,
      "inputs": [],
      "name": "deployedAtBlock",
      "outputs": [
        {
          "name": "",
          "type": "uint256"
        }
      ],
      "payable": false,
      "stateMutability": "view",
      "type": "function"
    },
    {
      "constant": true,
      "inputs": [],
      "name": "getBridgeInterfacesVersion",
      "outputs": [
        {
          "name": "major",
          "type": "uint64"
        },
        {
          "name": "minor",
          "type": "uint64"
        },
        {
          "name": "patch",
          "type": "uint64"
        }
      ],
      "payable": false,
      "stateMutability": "pure",
      "type": "function"
    },
    {
      "constant": false,
      "inputs": [
        {
          "name": "_minPerTx",
          "type": "uint256"
        }
      ],
      "name": "setMinPerTx",
      "outputs": [],
      "payable": false,
      "stateMutability": "nonpayable",
      "type": "function"
    },
    {
      "constant": false,
      "inputs": [
        {
          "name": "_blockConfirmations",
          "type": "uint256"
        }
      ],
      "name": "setRequiredBlockConfirmations",
      "outputs": [],
      "payable": false,
      "stateMutability": "nonpayable",
      "type": "function"
    },
    {
      "constant": false,
      "inputs": [
        {
          "name": "_dailyLimit",
          "type": "uint256"
        }
      ],
      "name": "setDailyLimit",
      "outputs": [],
      "payable": false,
      "stateMutability": "nonpayable",
      "type": "function"
    },
    {
      "constant": false,
      "inputs": [
        {
          "name": "_gasPrice",
          "type": "uint256"
        }
      ],
      "name": "setGasPrice",
      "outputs": [],
      "payable": false,
      "stateMutability": "nonpayable",
      "type": "function"
    },
    {
      "constant": false,
      "inputs": [
        {
          "name": "_maxPerTx",
          "type": "uint256"
        }
      ],
      "name": "setMaxPerTx",
      "outputs": [],
      "payable": false,
      "stateMutability": "nonpayable",
      "type": "function"
    },
    {
      "constant": true,
      "inputs": [],
      "name": "decimalShift",
      "outputs": [
        {
          "name": "",
          "type": "uint256"
        }
      ],
      "payable": false,
      "stateMutability": "view",
      "type": "function"
    },
    {
      "constant": true,
      "inputs": [],
      "name": "feeManagerContract",
      "outputs": [
        {
          "name": "",
          "type": "address"
        }
      ],
      "payable": false,
      "stateMutability": "view",
      "type": "function"
    },
    {
      "constant": true,
      "inputs": [],
      "name": "minPerTx",
      "outputs": [
        {
          "name": "",
          "type": "uint256"
        }
      ],
      "payable": false,
      "stateMutability": "view",
      "type": "function"
    },
    {
      "constant": true,
      "inputs": [
        {
          "name": "_amount",
          "type": "uint256"
        }
      ],
      "name": "withinLimit",
      "outputs": [
        {
          "name": "",
          "type": "bool"
        }
      ],
      "payable": false,
      "stateMutability": "view",
      "type": "function"
    },
    {
      "constant": false,
      "inputs": [
        {
          "name": "_maxPerTx",
          "type": "uint256"
        }
      ],
      "name": "setExecutionMaxPerTx",
      "outputs": [],
      "payable": false,
      "stateMutability": "nonpayable",
      "type": "function"
    },
    {
      "constant": true,
      "inputs": [],
      "name": "getFeeManagerMode",
      "outputs": [
        {
          "name": "",
          "type": "bytes4"
        }
      ],
      "payable": false,
      "stateMutability": "view",
      "type": "function"
    },
    {
      "constant": false,
      "inputs": [
        {
          "name": "newOwner",
          "type": "address"
        }
      ],
      "name": "transferOwnership",
      "outputs": [],
      "payable": false,
      "stateMutability": "nonpayable",
      "type": "function"
    },
    {
      "constant": true,
      "inputs": [],
      "name": "maxPerTx",
      "outputs": [
        {
          "name": "",
          "type": "uint256"
        }
      ],
      "payable": false,
      "stateMutability": "view",
      "type": "function"
    },
    {
      "constant": true,
      "inputs": [],
      "name": "gasPrice",
      "outputs": [
        {
          "name": "",
          "type": "uint256"
        }
      ],
      "payable": false,
      "stateMutability": "view",
      "type": "function"
    },
    {
      "anonymous": false,
      "inputs": [
        {
          "indexed": false,
          "name": "recipient",
          "type": "address"
        },
        {
          "indexed": false,
          "name": "value",
          "type": "uint256"
        }
      ],
      "name": "UserRequestForSignature",
      "type": "event"
    },
    {
      "anonymous": false,
      "inputs": [
        {
          "indexed": true,
          "name": "transactionHash",
          "type": "bytes32"
        },
        {
          "indexed": false,
          "name": "value",
          "type": "uint256"
        },
        {
          "indexed": false,
          "name": "remaining",
          "type": "uint256"
        }
      ],
      "name": "AssetAboveLimitsFixed",
      "type": "event"
    },
    {
      "anonymous": false,
      "inputs": [
        {
          "indexed": false,
          "name": "newLimit",
          "type": "uint256"
        }
      ],
      "name": "DailyLimitChanged",
      "type": "event"
    },
    {
      "anonymous": false,
      "inputs": [
        {
          "indexed": false,
          "name": "newLimit",
          "type": "uint256"
        }
      ],
      "name": "ExecutionDailyLimitChanged",
      "type": "event"
    },
    {
      "anonymous": false,
      "inputs": [
        {
          "indexed": false,
          "name": "gasPrice",
          "type": "uint256"
        }
      ],
      "name": "GasPriceChanged",
      "type": "event"
    },
    {
      "anonymous": false,
      "inputs": [
        {
          "indexed": false,
          "name": "requiredBlockConfirmations",
          "type": "uint256"
        }
      ],
      "name": "RequiredBlockConfirmationChanged",
      "type": "event"
    },
    {
      "anonymous": false,
      "inputs": [
        {
          "indexed": false,
          "name": "feeAmount",
          "type": "uint256"
        },
        {
          "indexed": true,
          "name": "transactionHash",
          "type": "bytes32"
        }
      ],
      "name": "FeeDistributedFromAffirmation",
      "type": "event"
    },
    {
      "anonymous": false,
      "inputs": [
        {
          "indexed": false,
          "name": "feeAmount",
          "type": "uint256"
        },
        {
          "indexed": true,
          "name": "transactionHash",
          "type": "bytes32"
        }
      ],
      "name": "FeeDistributedFromSignatures",
      "type": "event"
    },
    {
      "anonymous": false,
      "inputs": [
        {
          "indexed": false,
          "name": "previousOwner",
          "type": "address"
        },
        {
          "indexed": false,
          "name": "newOwner",
          "type": "address"
        }
      ],
      "name": "OwnershipTransferred",
      "type": "event"
    },
    {
      "constant": false,
      "inputs": [
        {
          "name": "txHash",
          "type": "bytes32"
        },
        {
          "name": "unlockOnForeign",
          "type": "bool"
        },
        {
          "name": "valueToUnlock",
          "type": "uint256"
        }
      ],
      "name": "fixAssetsAboveLimits",
      "outputs": [],
      "payable": false,
      "stateMutability": "nonpayable",
      "type": "function"
    },
    {
      "constant": true,
      "inputs": [],
      "name": "outOfLimitAmount",
      "outputs": [
        {
          "name": "",
          "type": "uint256"
        }
      ],
      "payable": false,
      "stateMutability": "view",
      "type": "function"
    },
    {
      "constant": true,
      "inputs": [
        {
          "name": "_txHash",
          "type": "bytes32"
        }
      ],
      "name": "fixedAssets",
      "outputs": [
        {
          "name": "",
          "type": "bool"
        }
      ],
      "payable": false,
      "stateMutability": "view",
      "type": "function"
    }
  ],
  "bytecode": "0x608060405234801561001057600080fd5b506122cd806100206000396000f3006080604052600436106101925763ffffffff60e060020a6000350416632888bb9c81146101975780632bd0bb05146101c3578063392e53cd146101ed5780633dd95d1b146102025780633e6968b61461021c5780633f0a9f651461023157806343b37dd3146102465780634fb3fef71461025b57806360756f7c1461027357806367eeba0c1461029457806369ffa08a146102a9578063879ce676146102d05780638aa1949a146102e85780638d068043146102fd5780638da5cb5b1461031257806399439089146103435780639a454b99146103585780639cb7595a1461036d578063a0189345146103ae578063a2a6ca27146103c3578063a7444c0d146103db578063acf5c689146103fb578063b20d30a914610413578063bf1fe4201461042b578063c6f6f21614610443578063dae5f0fd1461045b578063dbe03a8b14610470578063df25f3f014610485578063ea9f49681461049a578063f20151e1146104b2578063f2ba9561146104ca578063f2fde38b14610514578063f968adbe14610535578063fe173b971461054a575b600080fd5b3480156101a357600080fd5b506101af60043561055f565b604080519115158252519081900360200190f35b3480156101cf57600080fd5b506101db600435610628565b60408051918252519081900360200190f35b3480156101f957600080fd5b506101af6106e5565b34801561020e57600080fd5b5061021a60043561079d565b005b34801561022857600080fd5b506101db6108bd565b34801561023d57600080fd5b506101db6108c6565b34801561025257600080fd5b506101db61097a565b34801561026757600080fd5b506101db6004356109ed565b34801561027f57600080fd5b5061021a600160a060020a0360043516610a68565b3480156102a057600080fd5b506101db610b86565b3480156102b557600080fd5b5061021a600160a060020a0360043581169060243516610bf9565b3480156102dc57600080fd5b506101af600435610c9c565b3480156102f457600080fd5b506101db610ce6565b34801561030957600080fd5b506101db610d59565b34801561031e57600080fd5b50610327610dd1565b60408051600160a060020a039092168252519081900360200190f35b34801561034f57600080fd5b50610327610e8f565b34801561036457600080fd5b506101db610f03565b34801561037957600080fd5b50610382610f76565b6040805167ffffffffffffffff9485168152928416602084015292168183015290519081900360600190f35b3480156103ba57600080fd5b506101db610f81565b3480156103cf57600080fd5b5061021a600435610ff4565b3480156103e757600080fd5b5061021a60043560243515156044356110eb565b34801561040757600080fd5b5061021a60043561138b565b34801561041f57600080fd5b5061021a60043561149a565b34801561043757600080fd5b5061021a6004356115ba565b34801561044f57600080fd5b5061021a6004356116c9565b34801561046757600080fd5b506101db61176a565b34801561047c57600080fd5b506103276117dd565b34801561049157600080fd5b506101db611851565b3480156104a657600080fd5b506101af6004356118c4565b3480156104be57600080fd5b5061021a600435611914565b3480156104d657600080fd5b506104df6119b5565b604080517fffffffff000000000000000000000000000000000000000000000000000000009092168252519081900360200190f35b34801561052057600080fd5b5061021a600160a060020a0360043516611a41565b34801561054157600080fd5b506101db611a7e565b34801561055657600080fd5b506101db611af1565b6000600460008360405160200180807f6669786564417373657473000000000000000000000000000000000000000000815250600b0182600019166000191681526020019150506040516020818303038152906040526040518082805190602001908083835b602083106105e45780518252601f1990920191602091820191016105c5565b51815160209384036101000a600019018019909216911617905260408051929094018290039091208652850195909552929092016000205460ff1695945050505050565b60008060008360405160200180807f746f74616c5370656e74506572446179000000000000000000000000000000008152506010018281526020019150506040516020818303038152906040526040518082805190602001908083835b602083106106a45780518252601f199092019160209182019101610685565b51815160209384036101000a600019018019909216911617905260408051929094018290039091208652850195909552929092016000205495945050505050565b60006004600060405160200180807f6973496e697469616c697a656400000000000000000000000000000000000000815250600d0190506040516020818303038152906040526040518082805190602001908083835b6020831061075a5780518252601f19909201916020918201910161073b565b51815160209384036101000a600019018019909216911617905260408051929094018290039091208652850195909552929092016000205460ff16949350505050565b6107a5610dd1565b600160a060020a031633146107b957600080fd5b6107c1610ce6565b8111806107cc575080155b15156107d757600080fd5b8060008060405160200180807f657865637574696f6e4461696c794c696d69740000000000000000000000000081525060130190506040516020818303038152906040526040518082805190602001908083835b6020831061084a5780518252601f19909201916020918201910161082b565b51815160001960209485036101000a019081169019919091161790526040805194909201849003909320865285830196909652509284016000209490945550815184815291517f9bebf928b90863f24cc31f726a3a7545efd409f1dcf552301b1ee3710da70d3b9350918290030190a150565b62015180420490565b600080600060405160200180807f7265717569726564426c6f636b436f6e6669726d6174696f6e73000000000000815250601a0190506040516020818303038152906040526040518082805190602001908083835b6020831061093a5780518252601f19909201916020918201910161091b565b51815160209384036101000a6000190180199092169116179052604080519290940182900390912086528501959095529290920160002054949350505050565b600080600060405160200180807f657865637574696f6e4461696c794c696d69740000000000000000000000000081525060130190506040516020818303038152906040526040518082805190602001908083836020831061093a5780518252601f19909201916020918201910161091b565b60008060008360405160200180807f746f74616c457865637574656450657244617900000000000000000000000000815250601301828152602001915050604051602081830303815290604052604051808280519060200190808383602083106106a45780518252601f199092019160209182019101610685565b610a70610dd1565b600160a060020a03163314610a8457600080fd5b600160a060020a0381161580610a9e5750610a9e81611b64565b1515610aa957600080fd5b806002600060405160200180807f6665654d616e61676572436f6e7472616374000000000000000000000000000081525060120190506040516020818303038152906040526040518082805190602001908083835b60208310610b1d5780518252601f199092019160209182019101610afe565b51815160209384036101000a60001901801990921691161790526040805192909401829003909120865285019590955292909201600020805473ffffffffffffffffffffffffffffffffffffffff1916600160a060020a03959095169490941790935550505050565b600080600060405160200180807f6461696c794c696d697400000000000000000000000000000000000000000000815250600a0190506040516020818303038152906040526040518082805190602001908083836020831061093a5780518252601f19909201916020918201910161091b565b30600160a060020a0316636fde82026040518163ffffffff1660e060020a028152600401602060405180830381600087803b158015610c3757600080fd5b505af1158015610c4b573d6000803e3d6000fd5b505050506040513d6020811015610c6157600080fd5b5051600160a060020a03163314610c7757600080fd5b80600160a060020a0381161515610c8d57600080fd5b610c978383611b6c565b505050565b600080610cbf83610cb3610cae6108bd565b6109ed565b9063ffffffff611b9816565b905080610cca61097a565b10158015610cdf5750610cdb610ce6565b8311155b9392505050565b600080600060405160200180807f657865637574696f6e4d6178506572547800000000000000000000000000000081525060110190506040516020818303038152906040526040518082805190602001908083836020831061093a5780518252601f19909201916020918201910161091b565b6000610d63610e8f565b600160a060020a0316638d0680436040518163ffffffff1660e060020a028152600401602060405180830381600087803b158015610da057600080fd5b505af1158015610db4573d6000803e3d6000fd5b505050506040513d6020811015610dca57600080fd5b5051905090565b60006002600060405160200180807f6f776e657200000000000000000000000000000000000000000000000000000081525060050190506040516020818303038152906040526040518082805190602001908083835b60208310610e465780518252601f199092019160209182019101610e27565b51815160209384036101000a6000190180199092169116179052604080519290940182900390912086528501959095529290920160002054600160a060020a0316949350505050565b60006002600060405160200180807f76616c696461746f72436f6e7472616374000000000000000000000000000000815250601101905060405160208183030381529060405260405180828051906020019080838360208310610e465780518252601f199092019160209182019101610e27565b600080600060405160200180807f6465706c6f7965644174426c6f636b0000000000000000000000000000000000815250600f0190506040516020818303038152906040526040518082805190602001908083836020831061093a5780518252601f19909201916020918201910161091b565b600260036000909192565b600080600060405160200180807f6f75744f664c696d6974416d6f756e740000000000000000000000000000000081525060100190506040516020818303038152906040526040518082805190602001908083836020831061093a5780518252601f19909201916020918201910161091b565b610ffc610dd1565b600160a060020a0316331461101057600080fd5b611018610b86565b8110801561102c5750611029611a7e565b81105b151561103757600080fd5b8060008060405160200180807f6d696e506572547800000000000000000000000000000000000000000000000081525060080190506040516020818303038152906040526040518082805190602001908083835b602083106110aa5780518252601f19909201916020918201910161108b565b51815160209384036101000a600019018019909216911617905260408051929094018290039091208652850195909552929092016000209390935550505050565b60008060008060008030600160a060020a0316636fde82026040518163ffffffff1660e060020a028152600401602060405180830381600087803b15801561113257600080fd5b505af1158015611146573d6000803e3d6000fd5b505050506040513d602081101561115c57600080fd5b5051600160a060020a0316331461117257600080fd5b61117b8961055f565b1561118557600080fd5b61118d611a7e565b87111561119957600080fd5b6111a289611bab565b9096509450600160a060020a038616158015906111bf5750600085115b80156111cb5750868510155b15156111d657600080fd5b6111f66111f1886111e5610f81565b9063ffffffff611d3216565b611d44565b611206858863ffffffff611d3216565b9350611212848a611db6565b604080518881526020810186905281518b927f5bcec6564fe8d2cbb4e4eb8237510ceb6b291a5c2ee2e429948d25e9c924c1fa928290030190a283151561125c5761125c89611e7b565b87156113805761126a6117dd565b9250869150600160a060020a0383161561133b576113268760008560405160200180807f686f6d652d66656500000000000000000000000000000000000000000000000081525060080190506040516020818303038152906040526040518082805190602001908083835b602083106112f45780518252601f1990920191602091820191016112d5565b6001836020036101000a0380198251168184511680821785525050505050509050019150506040518091039020611f4d565b9050611338878263ffffffff611d3216565b91505b60408051600160a060020a03881681526020810184905281517f127650bcfb0ba017401abe4931453a405140a8fd36fece67bae2db174d3fdd63929181900390910190a15b505050505050505050565b611393610dd1565b600160a060020a031633146113a757600080fd5b600081116113b457600080fd5b8060008060405160200180807f7265717569726564426c6f636b436f6e6669726d6174696f6e73000000000000815250601a0190506040516020818303038152906040526040518082805190602001908083835b602083106114275780518252601f199092019160209182019101611408565b51815160001960209485036101000a019081169019919091161790526040805194909201849003909320865285830196909652509284016000209490945550815184815291517f4fb76205cd57c896b21511d2114137d8e901b4ccd659e1a0f97d6306795264fb9350918290030190a150565b6114a2610dd1565b600160a060020a031633146114b657600080fd5b6114be611a7e565b8111806114c9575080155b15156114d457600080fd5b8060008060405160200180807f6461696c794c696d697400000000000000000000000000000000000000000000815250600a0190506040516020818303038152906040526040518082805190602001908083835b602083106115475780518252601f199092019160209182019101611528565b51815160001960209485036101000a019081169019919091161790526040805194909201849003909320865285830196909652509284016000209490945550815184815291517fad4123ae17c414d9c6d2fec478b402e6b01856cc250fd01fbfd252fda0089d3c9350918290030190a150565b6115c2610dd1565b600160a060020a031633146115d657600080fd5b600081116115e357600080fd5b8060008060405160200180807f676173507269636500000000000000000000000000000000000000000000000081525060080190506040516020818303038152906040526040518082805190602001908083835b602083106116565780518252601f199092019160209182019101611637565b51815160001960209485036101000a019081169019919091161790526040805194909201849003909320865285830196909652509284016000209490945550815184815291517f52264b89e0fceafb26e79fd49ef8a366eb6297483bf4035b027f0c99a7ad512e9350918290030190a150565b6116d1610dd1565b600160a060020a031633146116e557600080fd5b6116ed610b86565b81106116f857600080fd5b8060008060405160200180807f6d617850657254780000000000000000000000000000000000000000000000008152506008019050604051602081830303815290604052604051808280519060200190808383602083106110aa5780518252601f19909201916020918201910161108b565b600080600060405160200180807f646563696d616c53686966740000000000000000000000000000000000000000815250600c0190506040516020818303038152906040526040518082805190602001908083836020831061093a5780518252601f19909201916020918201910161091b565b60006002600060405160200180807f6665654d616e61676572436f6e74726163740000000000000000000000000000815250601201905060405160208183030381529060405260405180828051906020019080838360208310610e465780518252601f199092019160209182019101610e27565b600080600060405160200180807f6d696e506572547800000000000000000000000000000000000000000000000081525060080190506040516020818303038152906040526040518082805190602001908083836020831061093a5780518252601f19909201916020918201910161091b565b6000806118db83610cb36118d66108bd565b610628565b9050806118e6610b86565b101580156118fb57506118f7611a7e565b8311155b8015610cdf575061190a611851565b9092101592915050565b61191c610dd1565b600160a060020a0316331461193057600080fd5b61193861097a565b811061194357600080fd5b8060008060405160200180807f657865637574696f6e4d617850657254780000000000000000000000000000008152506011019050604051602081830303815290604052604051808280519060200190808383602083106110aa5780518252601f19909201916020918201910161108b565b6040805160048152602481019091526020810180517bffffffffffffffffffffffffffffffffffffffffffffffffffffffff167ff2ba956100000000000000000000000000000000000000000000000000000000179052600090819081611a1a6117dd565b9050600460008351602085016000855af26000519350808015610192575092949350505050565b611a49610dd1565b600160a060020a03163314611a5d57600080fd5b600160a060020a0381161515611a7257600080fd5b611a7b81611fed565b50565b600080600060405160200180807f6d6178506572547800000000000000000000000000000000000000000000000081525060080190506040516020818303038152906040526040518082805190602001908083836020831061093a5780518252601f19909201916020918201910161091b565b600080600060405160200180807f676173507269636500000000000000000000000000000000000000000000000081525060080190506040516020818303038152906040526040518082805190602001908083836020831061093a5780518252601f19909201916020918201910161091b565b6000903b1190565b600160a060020a0382161515611b8a57611b85816120ab565b611b94565b611b948282612116565b5050565b81810182811015611ba557fe5b92915050565b600080600260008460405160200180807f74784f75744f664c696d6974526563697069656e74000000000000000000000081525060150182600019166000191681526020019150506040516020818303038152906040526040518082805190602001908083835b60208310611c315780518252601f199092019160209182019101611c12565b51815160209384036101000a600019018019909216911617905260408051929094018290039091208652858101969096525092830160009081205484517f74784f75744f664c696d697456616c75650000000000000000000000000000008188015260318082018b9052865180830390910181526051909101958690528051600160a060020a0390921698509195869592945091925082918401908083835b60208310611cef5780518252601f199092019160209182019101611cd0565b51815160209384036101000a6000190180199092169116179052604080519290940182900390912086528501959095529290920160002054949694955050505050565b600082821115611d3e57fe5b50900390565b8060008060405160200180807f6f75744f664c696d6974416d6f756e74000000000000000000000000000000008152506010019050604051602081830303815290604052604051808280519060200190808383602083106110aa5780518252601f19909201916020918201910161108b565b816000808360405160200180807f74784f75744f664c696d697456616c756500000000000000000000000000000081525060110182600019166000191681526020019150506040516020818303038152906040526040518082805190602001908083835b60208310611e395780518252601f199092019160209182019101611e1a565b51815160209384036101000a60001901801990921691161790526040805192909401829003909120865285019590955292909201600020939093555050505050565b6001600460008360405160200180807f6669786564417373657473000000000000000000000000000000000000000000815250600b0182600019166000191681526020019150506040516020818303038152906040526040518082805190602001908083835b60208310611f005780518252601f199092019160209182019101611ee1565b51815160209384036101000a60001901801990921691161790526040805192909401829003909120865285019590955292909201600020805460ff19169415159490941790935550505050565b604080516024810186905284151560448201526064808201849052825180830390910181526084909101909152602081810180517bffffffffffffffffffffffffffffffffffffffffffffffffffffffff167f9862f26f000000000000000000000000000000000000000000000000000000001781528251600093849390929091849182895af26000519250808015610192575091979650505050505050565b7f8be0079c531659141344cd1fd0a4f28419497f9722a3daafe3b4186f6b6457e0612016610dd1565b60408051600160a060020a03928316815291841660208301528051918290030190a1806002600060405160200180807f6f776e6572000000000000000000000000000000000000000000000000000000815250600501905060405160208183030381529060405260405180828051906020019080838360208310610b1d5780518252601f199092019160209182019101610afe565b604051303190600160a060020a0383169082156108fc029083906000818181858888f193505050501515611b945780826120e3612271565b600160a060020a039091168152604051908190036020019082f08015801561210f573d6000803e3d6000fd5b5050505050565b604080517f70a0823100000000000000000000000000000000000000000000000000000000815230600482015290518391600091600160a060020a038416916370a0823191602480830192602092919082900301818787803b15801561217b57600080fd5b505af115801561218f573d6000803e3d6000fd5b505050506040513d60208110156121a557600080fd5b505190506121b48484836121ba565b50505050565b60408051600160a060020a03841660248201526044808201849052825180830390910181526064909101909152602081810180517bffffffffffffffffffffffffffffffffffffffffffffffffffffffff167fa9059cbb000000000000000000000000000000000000000000000000000000001781528251606093600093909290918491828a5af160005193508392508080156101925750506000835111156122695781151561226957600080fd5b505050505050565b604051602180612281833901905600608060405260405160208060218339810160405251600160a060020a038116ff00a165627a7a7230582037ed867bdb2295ccee8337adb468a657d7083f8218c04ebee85de73c5e803f260029",
  "source": "pragma solidity 0.4.24;\n\nimport \"../upgradeability/EternalStorage.sol\";\nimport \"openzeppelin-solidity/contracts/math/SafeMath.sol\";\nimport \"./Upgradeable.sol\";\nimport \"./RewardableBridge.sol\";\nimport \"./BasicTokenBridge.sol\";\n\ncontract OverdrawManagement is EternalStorage, RewardableBridge, Upgradeable, BasicTokenBridge {\n    using SafeMath for uint256;\n\n    event UserRequestForSignature(address recipient, uint256 value);\n    event AssetAboveLimitsFixed(bytes32 indexed transactionHash, uint256 value, uint256 remaining);\n\n    bytes32 internal constant OUT_OF_LIMIT_AMOUNT = keccak256(abi.encodePacked(\"outOfLimitAmount\"));\n\n    function fixAssetsAboveLimits(bytes32 txHash, bool unlockOnForeign, uint256 valueToUnlock)\n        external\n        onlyIfUpgradeabilityOwner\n    {\n        require(!fixedAssets(txHash));\n        require(valueToUnlock <= maxPerTx());\n        address recipient;\n        uint256 value;\n        (recipient, value) = txAboveLimits(txHash);\n        require(recipient != address(0) && value > 0 && value >= valueToUnlock);\n        setOutOfLimitAmount(outOfLimitAmount().sub(valueToUnlock));\n        uint256 pendingValue = value.sub(valueToUnlock);\n        setTxAboveLimitsValue(pendingValue, txHash);\n        emit AssetAboveLimitsFixed(txHash, valueToUnlock, pendingValue);\n        if (pendingValue == 0) {\n            setFixedAssets(txHash);\n        }\n        if (unlockOnForeign) {\n            address feeManager = feeManagerContract();\n            uint256 eventValue = valueToUnlock;\n            if (feeManager != address(0)) {\n                uint256 fee = calculateFee(valueToUnlock, false, feeManager, HOME_FEE);\n                eventValue = valueToUnlock.sub(fee);\n            }\n            emit UserRequestForSignature(recipient, eventValue);\n        }\n    }\n\n    function outOfLimitAmount() public view returns (uint256) {\n        return uintStorage[OUT_OF_LIMIT_AMOUNT];\n    }\n\n    function fixedAssets(bytes32 _txHash) public view returns (bool) {\n        return boolStorage[keccak256(abi.encodePacked(\"fixedAssets\", _txHash))];\n    }\n\n    function setOutOfLimitAmount(uint256 _value) internal {\n        uintStorage[OUT_OF_LIMIT_AMOUNT] = _value;\n    }\n\n    function txAboveLimits(bytes32 _txHash) internal view returns (address recipient, uint256 value) {\n        recipient = addressStorage[keccak256(abi.encodePacked(\"txOutOfLimitRecipient\", _txHash))];\n        value = uintStorage[keccak256(abi.encodePacked(\"txOutOfLimitValue\", _txHash))];\n    }\n\n    function setTxAboveLimits(address _recipient, uint256 _value, bytes32 _txHash) internal {\n        addressStorage[keccak256(abi.encodePacked(\"txOutOfLimitRecipient\", _txHash))] = _recipient;\n        setTxAboveLimitsValue(_value, _txHash);\n    }\n\n    function setTxAboveLimitsValue(uint256 _value, bytes32 _txHash) internal {\n        uintStorage[keccak256(abi.encodePacked(\"txOutOfLimitValue\", _txHash))] = _value;\n    }\n\n    function setFixedAssets(bytes32 _txHash) internal {\n        boolStorage[keccak256(abi.encodePacked(\"fixedAssets\", _txHash))] = true;\n    }\n}\n",
  "sourcePath": "/contracts/contracts/upgradeable_contracts/OverdrawManagement.sol",
  "compiler": {
    "name": "solc",
    "version": "0.4.24+commit.e67f0147.Emscripten.clang"
  },
  "schemaVersion": "3.0.9",
  "updatedAt": "2019-09-30T13:18:39.281Z",
  "devdoc": {
    "methods": {
      "owner()": {
        "details": "Tells the address of the owner",
        "return": "the address of the owner"
      },
      "transferOwnership(address)": {
        "details": "Allows the current owner to transfer control of the contract to a newOwner.",
        "params": {
          "newOwner": "the address to transfer ownership to."
        }
      }
    }
  },
  "userdoc": {
    "methods": {}
  }
}