{
  "contractName": "RevertFallback",
  "abi": [
    {
      "payable": true,
      "stateMutability": "payable",
      "type": "fallback"
    },
    {
      "constant": false,
      "inputs": [],
      "name": "receiveEth",
      "outputs": [],
      "payable": true,
      "stateMutability": "payable",
      "type": "function"
    }
  ],
  "bytecode": "0x6080604052348015600f57600080fd5b5060798061001e6000396000f300608060405260043610603e5763ffffffff7c01000000000000000000000000000000000000000000000000000000006000350416634185f8eb81146043575b600080fd5b6049604b565b005b5600a165627a7a723058200c15b9a8ef6df9d6ac02fb64bd8813db253cacf809f691df37174faf423d0b2b0029",
  "source": "pragma solidity 0.4.24;\n\ncontract RevertFallback {\n    function() public payable {\n        revert();\n    }\n\n    function receiveEth() public payable {\n        // solhint-disable-previous-line no-empty-blocks\n    }\n}\n",
  "sourcePath": "/contracts/contracts/mocks/RevertFallback.sol",
  "compiler": {
    "name": "solc",
    "version": "0.4.24+commit.e67f0147.Emscripten.clang"
  },
  "schemaVersion": "3.0.9",
  "updatedAt": "2019-09-30T13:18:39.247Z",
  "devdoc": {
    "methods": {}
  },
  "userdoc": {
    "methods": {}
  }
}