{
  "contractName": "RewardableBridge",
  "abi": [
    {
      "constant": true,
      "inputs": [],
      "name": "owner",
      "outputs": [
        {
          "name": "",
          "type": "address"
        }
      ],
      "payable": false,
      "stateMutability": "view",
      "type": "function"
    },
    {
      "constant": false,
      "inputs": [
        {
          "name": "newOwner",
          "type": "address"
        }
      ],
      "name": "transferOwnership",
      "outputs": [],
      "payable": false,
      "stateMutability": "nonpayable",
      "type": "function"
    },
    {
      "anonymous": false,
      "inputs": [
        {
          "indexed": false,
          "name": "feeAmount",
          "type": "uint256"
        },
        {
          "indexed": true,
          "name": "transactionHash",
          "type": "bytes32"
        }
      ],
      "name": "FeeDistributedFromAffirmation",
      "type": "event"
    },
    {
      "anonymous": false,
      "inputs": [
        {
          "indexed": false,
          "name": "feeAmount",
          "type": "uint256"
        },
        {
          "indexed": true,
          "name": "transactionHash",
          "type": "bytes32"
        }
      ],
      "name": "FeeDistributedFromSignatures",
      "type": "event"
    },
    {
      "anonymous": false,
      "inputs": [
        {
          "indexed": false,
          "name": "previousOwner",
          "type": "address"
        },
        {
          "indexed": false,
          "name": "newOwner",
          "type": "address"
        }
      ],
      "name": "OwnershipTransferred",
      "type": "event"
    },
    {
      "constant": true,
      "inputs": [],
      "name": "getFeeManagerMode",
      "outputs": [
        {
          "name": "",
          "type": "bytes4"
        }
      ],
      "payable": false,
      "stateMutability": "view",
      "type": "function"
    },
    {
      "constant": true,
      "inputs": [],
      "name": "feeManagerContract",
      "outputs": [
        {
          "name": "",
          "type": "address"
        }
      ],
      "payable": false,
      "stateMutability": "view",
      "type": "function"
    },
    {
      "constant": false,
      "inputs": [
        {
          "name": "_feeManager",
          "type": "address"
        }
      ],
      "name": "setFeeManagerContract",
      "outputs": [],
      "payable": false,
      "stateMutability": "nonpayable",
      "type": "function"
    }
  ],
  "bytecode": "0x608060405234801561001057600080fd5b50610550806100206000396000f30060806040526004361061006c5763ffffffff7c010000000000000000000000000000000000000000000000000000000060003504166360756f7c81146100715780638da5cb5b14610094578063dbe03a8b146100c5578063f2ba9561146100da578063f2fde38b14610124575b600080fd5b34801561007d57600080fd5b50610092600160a060020a0360043516610145565b005b3480156100a057600080fd5b506100a9610263565b60408051600160a060020a039092168252519081900360200190f35b3480156100d157600080fd5b506100a9610321565b3480156100e657600080fd5b506100ef610395565b604080517fffffffff000000000000000000000000000000000000000000000000000000009092168252519081900360200190f35b34801561013057600080fd5b50610092600160a060020a0360043516610421565b61014d610263565b600160a060020a0316331461016157600080fd5b600160a060020a038116158061017b575061017b8161045e565b151561018657600080fd5b806002600060405160200180807f6665654d616e61676572436f6e7472616374000000000000000000000000000081525060120190506040516020818303038152906040526040518082805190602001908083835b602083106101fa5780518252601f1990920191602091820191016101db565b51815160209384036101000a60001901801990921691161790526040805192909401829003909120865285019590955292909201600020805473ffffffffffffffffffffffffffffffffffffffff1916600160a060020a03959095169490941790935550505050565b60006002600060405160200180807f6f776e657200000000000000000000000000000000000000000000000000000081525060050190506040516020818303038152906040526040518082805190602001908083835b602083106102d85780518252601f1990920191602091820191016102b9565b51815160209384036101000a6000190180199092169116179052604080519290940182900390912086528501959095529290920160002054600160a060020a0316949350505050565b60006002600060405160200180807f6665654d616e61676572436f6e747261637400000000000000000000000000008152506012019050604051602081830303815290604052604051808280519060200190808383602083106102d85780518252601f1990920191602091820191016102b9565b6040805160048152602481019091526020810180517bffffffffffffffffffffffffffffffffffffffffffffffffffffffff167ff2ba9561000000000000000000000000000000000000000000000000000000001790526000908190816103fa610321565b9050600460008351602085016000855af2600051935080801561006c575092949350505050565b610429610263565b600160a060020a0316331461043d57600080fd5b600160a060020a038116151561045257600080fd5b61045b81610466565b50565b6000903b1190565b7f8be0079c531659141344cd1fd0a4f28419497f9722a3daafe3b4186f6b6457e061048f610263565b60408051600160a060020a03928316815291841660208301528051918290030190a1806002600060405160200180807f6f776e65720000000000000000000000000000000000000000000000000000008152506005019050604051602081830303815290604052604051808280519060200190808383602083106101fa5780518252601f1990920191602091820191016101db5600a165627a7a7230582033add1fd7c79b5ae7d2be7efb176e29ba9a4a7a1698b4d81e869b0b139ec18840029",
  "source": "pragma solidity 0.4.24;\n\nimport \"openzeppelin-solidity/contracts/AddressUtils.sol\";\nimport \"./Ownable.sol\";\nimport \"./FeeTypes.sol\";\n\ncontract RewardableBridge is Ownable, FeeTypes {\n    event FeeDistributedFromAffirmation(uint256 feeAmount, bytes32 indexed transactionHash);\n    event FeeDistributedFromSignatures(uint256 feeAmount, bytes32 indexed transactionHash);\n\n    bytes32 internal constant FEE_MANAGER_CONTRACT = keccak256(abi.encodePacked(\"feeManagerContract\"));\n    bytes4 internal constant GET_HOME_FEE = 0x94da17cd; // getHomeFee()\n    bytes4 internal constant GET_FOREIGN_FEE = 0xffd66196; // getForeignFee()\n    bytes4 internal constant GET_FEE_MANAGER_MODE = 0xf2ba9561; // getFeeManagerMode()\n    bytes4 internal constant SET_HOME_FEE = 0x34a9e148; // setHomeFee(uint256)\n    bytes4 internal constant SET_FOREIGN_FEE = 0x286c4066; // setForeignFee(uint256)\n    bytes4 internal constant CALCULATE_FEE = 0x9862f26f; // calculateFee(uint256,bool,bytes32)\n    bytes4 internal constant DISTRIBUTE_FEE_FROM_SIGNATURES = 0x59d78464; // distributeFeeFromSignatures(uint256)\n    bytes4 internal constant DISTRIBUTE_FEE_FROM_AFFIRMATION = 0x054d46ec; // distributeFeeFromAffirmation(uint256)\n\n    function _getFee(bytes32 _feeType) internal view returns (uint256) {\n        uint256 fee;\n        address feeManager = feeManagerContract();\n        bytes4 method = _feeType == HOME_FEE ? GET_HOME_FEE : GET_FOREIGN_FEE;\n        bytes memory callData = abi.encodeWithSelector(method);\n\n        assembly {\n            let result := callcode(gas, feeManager, 0x0, add(callData, 0x20), mload(callData), 0, 32)\n            fee := mload(0)\n\n            switch result\n                case 0 {\n                    revert(0, 0)\n                }\n        }\n        return fee;\n    }\n\n    function getFeeManagerMode() external view returns (bytes4) {\n        bytes4 mode;\n        bytes memory callData = abi.encodeWithSelector(GET_FEE_MANAGER_MODE);\n        address feeManager = feeManagerContract();\n        assembly {\n            let result := callcode(gas, feeManager, 0x0, add(callData, 0x20), mload(callData), 0, 4)\n            mode := mload(0)\n\n            switch result\n                case 0 {\n                    revert(0, 0)\n                }\n        }\n        return mode;\n    }\n\n    function feeManagerContract() public view returns (address) {\n        return addressStorage[FEE_MANAGER_CONTRACT];\n    }\n\n    function setFeeManagerContract(address _feeManager) external onlyOwner {\n        require(_feeManager == address(0) || AddressUtils.isContract(_feeManager));\n        addressStorage[FEE_MANAGER_CONTRACT] = _feeManager;\n    }\n\n    function _setFee(address _feeManager, uint256 _fee, bytes32 _feeType) internal {\n        bytes4 method = _feeType == HOME_FEE ? SET_HOME_FEE : SET_FOREIGN_FEE;\n        require(_feeManager.delegatecall(abi.encodeWithSelector(method, _fee)));\n    }\n\n    function calculateFee(uint256 _value, bool _recover, address _impl, bytes32 _feeType)\n        internal\n        view\n        returns (uint256)\n    {\n        uint256 fee;\n        bytes memory callData = abi.encodeWithSelector(CALCULATE_FEE, _value, _recover, _feeType);\n        assembly {\n            let result := callcode(gas, _impl, 0x0, add(callData, 0x20), mload(callData), 0, 32)\n            fee := mload(0)\n\n            switch result\n                case 0 {\n                    revert(0, 0)\n                }\n        }\n        return fee;\n    }\n\n    function distributeFeeFromSignatures(uint256 _fee, address _feeManager, bytes32 _txHash) internal {\n        require(_feeManager.delegatecall(abi.encodeWithSelector(DISTRIBUTE_FEE_FROM_SIGNATURES, _fee)));\n        emit FeeDistributedFromSignatures(_fee, _txHash);\n    }\n\n    function distributeFeeFromAffirmation(uint256 _fee, address _feeManager, bytes32 _txHash) internal {\n        require(_feeManager.delegatecall(abi.encodeWithSelector(DISTRIBUTE_FEE_FROM_AFFIRMATION, _fee)));\n        emit FeeDistributedFromAffirmation(_fee, _txHash);\n    }\n}\n",
  "sourcePath": "/contracts/contracts/upgradeable_contracts/RewardableBridge.sol",
  "compiler": {
    "name": "solc",
    "version": "0.4.24+commit.e67f0147.Emscripten.clang"
  },
  "schemaVersion": "3.0.9",
  "updatedAt": "2019-09-30T13:18:39.285Z",
  "devdoc": {
    "methods": {
      "owner()": {
        "details": "Tells the address of the owner",
        "return": "the address of the owner"
      },
      "transferOwnership(address)": {
        "details": "Allows the current owner to transfer control of the contract to a newOwner.",
        "params": {
          "newOwner": "the address to transfer ownership to."
        }
      }
    }
  },
  "userdoc": {
    "methods": {}
  }
}