{
  "contractName": "BaseBridgeValidators",
  "abi": [
    {
      "constant": true,
      "inputs": [],
      "name": "isInitialized",
      "outputs": [
        {
          "name": "",
          "type": "bool"
        }
      ],
      "payable": false,
      "stateMutability": "view",
      "type": "function"
    },
    {
      "constant": true,
      "inputs": [],
      "name": "owner",
      "outputs": [
        {
          "name": "",
          "type": "address"
        }
      ],
      "payable": false,
      "stateMutability": "view",
      "type": "function"
    },
    {
      "constant": true,
      "inputs": [],
      "name": "deployedAtBlock",
      "outputs": [
        {
          "name": "",
          "type": "uint256"
        }
      ],
      "payable": false,
      "stateMutability": "view",
      "type": "function"
    },
    {
      "constant": true,
      "inputs": [],
      "name": "F_ADDR",
      "outputs": [
        {
          "name": "",
          "type": "address"
        }
      ],
      "payable": false,
      "stateMutability": "view",
      "type": "function"
    },
    {
      "constant": false,
      "inputs": [
        {
          "name": "newOwner",
          "type": "address"
        }
      ],
      "name": "transferOwnership",
      "outputs": [],
      "payable": false,
      "stateMutability": "nonpayable",
      "type": "function"
    },
    {
      "anonymous": false,
      "inputs": [
        {
          "indexed": true,
          "name": "validator",
          "type": "address"
        }
      ],
      "name": "ValidatorAdded",
      "type": "event"
    },
    {
      "anonymous": false,
      "inputs": [
        {
          "indexed": true,
          "name": "validator",
          "type": "address"
        }
      ],
      "name": "ValidatorRemoved",
      "type": "event"
    },
    {
      "anonymous": false,
      "inputs": [
        {
          "indexed": false,
          "name": "requiredSignatures",
          "type": "uint256"
        }
      ],
      "name": "RequiredSignaturesChanged",
      "type": "event"
    },
    {
      "anonymous": false,
      "inputs": [
        {
          "indexed": false,
          "name": "previousOwner",
          "type": "address"
        },
        {
          "indexed": false,
          "name": "newOwner",
          "type": "address"
        }
      ],
      "name": "OwnershipTransferred",
      "type": "event"
    },
    {
      "constant": false,
      "inputs": [
        {
          "name": "_requiredSignatures",
          "type": "uint256"
        }
      ],
      "name": "setRequiredSignatures",
      "outputs": [],
      "payable": false,
      "stateMutability": "nonpayable",
      "type": "function"
    },
    {
      "constant": true,
      "inputs": [],
      "name": "getBridgeValidatorsInterfacesVersion",
      "outputs": [
        {
          "name": "major",
          "type": "uint64"
        },
        {
          "name": "minor",
          "type": "uint64"
        },
        {
          "name": "patch",
          "type": "uint64"
        }
      ],
      "payable": false,
      "stateMutability": "pure",
      "type": "function"
    },
    {
      "constant": true,
      "inputs": [],
      "name": "validatorList",
      "outputs": [
        {
          "name": "",
          "type": "address[]"
        }
      ],
      "payable": false,
      "stateMutability": "view",
      "type": "function"
    },
    {
      "constant": true,
      "inputs": [],
      "name": "requiredSignatures",
      "outputs": [
        {
          "name": "",
          "type": "uint256"
        }
      ],
      "payable": false,
      "stateMutability": "view",
      "type": "function"
    },
    {
      "constant": true,
      "inputs": [],
      "name": "validatorCount",
      "outputs": [
        {
          "name": "",
          "type": "uint256"
        }
      ],
      "payable": false,
      "stateMutability": "view",
      "type": "function"
    },
    {
      "constant": true,
      "inputs": [
        {
          "name": "_validator",
          "type": "address"
        }
      ],
      "name": "isValidator",
      "outputs": [
        {
          "name": "",
          "type": "bool"
        }
      ],
      "payable": false,
      "stateMutability": "view",
      "type": "function"
    },
    {
      "constant": true,
      "inputs": [
        {
          "name": "_address",
          "type": "address"
        }
      ],
      "name": "getNextValidator",
      "outputs": [
        {
          "name": "",
          "type": "address"
        }
      ],
      "payable": false,
      "stateMutability": "view",
      "type": "function"
    }
  ],
  "bytecode": "0x608060405234801561001057600080fd5b50610a62806100206000396000f3006080604052600436106100b95763ffffffff7c01000000000000000000000000000000000000000000000000000000006000350416630f43a67781146100be5780632bda4eee146100e5578063392e53cd146101265780635890ef791461014f5780637d2b9cc0146101b45780638d068043146101ce5780638d37052c146101e35780638da5cb5b146102205780639a454b9914610235578063c794c7691461024a578063f2fde38b1461025f578063facd743b14610280575b600080fd5b3480156100ca57600080fd5b506100d36102a1565b60408051918252519081900360200190f35b3480156100f157600080fd5b506100fa610355565b6040805167ffffffffffffffff9485168152928416602084015292168183015290519081900360600190f35b34801561013257600080fd5b5061013b61035f565b604080519115158252519081900360200190f35b34801561015b57600080fd5b50610164610417565b60408051602080825283518183015283519192839290830191858101910280838360005b838110156101a0578181015183820152602001610188565b505050509050019250505060405180910390f35b3480156101c057600080fd5b506101cc6004356104e5565b005b3480156101da57600080fd5b506100d3610607565b3480156101ef57600080fd5b50610204600160a060020a036004351661067a565b60408051600160a060020a039092168252519081900360200190f35b34801561022c57600080fd5b50610204610762565b34801561024157600080fd5b506100d3610820565b34801561025657600080fd5b50610204610893565b34801561026b57600080fd5b506101cc600160a060020a036004351661089e565b34801561028c57600080fd5b5061013b600160a060020a03600435166108db565b600080600060405160200180807f76616c696461746f72436f756e74000000000000000000000000000000000000815250600e0190506040516020818303038152906040526040518082805190602001908083835b602083106103155780518252601f1990920191602091820191016102f6565b51815160209384036101000a6000190180199092169116179052604080519290940182900390912086528501959095529290920160002054949350505050565b6002806000909192565b60006004600060405160200180807f6973496e697469616c697a656400000000000000000000000000000000000000815250600d0190506040516020818303038152906040526040518082805190602001908083835b602083106103d45780518252601f1990920191602091820191016103b5565b51815160209384036101000a600019018019909216911617905260408051929094018290039091208652850195909552929092016000205460ff16949350505050565b6060806000806104256102a1565b60405190808252806020026020018201604052801561044e578160200160208202803883390190505b50925060009150610465600160a060020a0361067a565b9050600160a060020a038116151561047c57600080fd5b600160a060020a03818116146104dd5780838381518110151561049b57fe5b600160a060020a039092166020928302909101909101526104bb8161067a565b6001909201919050600160a060020a03811615156104d857600080fd5b61047c565b509092915050565b6104ed610762565b600160a060020a0316331461050157600080fd5b8061050a6102a1565b101561051557600080fd5b80151561052157600080fd5b8060008060405160200180807f72657175697265645369676e617475726573000000000000000000000000000081525060120190506040516020818303038152906040526040518082805190602001908083835b602083106105945780518252601f199092019160209182019101610575565b51815160001960209485036101000a019081169019919091161790526040805194909201849003909320865285830196909652509284016000209490945550815184815291517f10dbc913050d3180c3b99f7da91fd514af7cbc9c1bb59a0da5d2bc38f0cf395a9350918290030190a150565b600080600060405160200180807f72657175697265645369676e61747572657300000000000000000000000000008152506012019050604051602081830303815290604052604051808280519060200190808383602083106103155780518252601f1990920191602091820191016102f6565b6000600260008360405160200180807f76616c696461746f72734c697374000000000000000000000000000000000000815250600e0182600160a060020a0316600160a060020a03166c010000000000000000000000000281526014019150506040516020818303038152906040526040518082805190602001908083835b602083106107185780518252601f1990920191602091820191016106f9565b51815160209384036101000a6000190180199092169116179052604080519290940182900390912086528501959095529290920160002054600160a060020a031695945050505050565b60006002600060405160200180807f6f776e657200000000000000000000000000000000000000000000000000000081525060050190506040516020818303038152906040526040518082805190602001908083835b602083106107d75780518252601f1990920191602091820191016107b8565b51815160209384036101000a6000190180199092169116179052604080519290940182900390912086528501959095529290920160002054600160a060020a0316949350505050565b600080600060405160200180807f6465706c6f7965644174426c6f636b0000000000000000000000000000000000815250600f019050604051602081830303815290604052604051808280519060200190808383602083106103155780518252601f1990920191602091820191016102f6565b600160a060020a0381565b6108a6610762565b600160a060020a031633146108ba57600080fd5b600160a060020a03811615156108cf57600080fd5b6108d88161090e565b50565b6000600160a060020a0382811614801590610908575060006108fc8361067a565b600160a060020a031614155b92915050565b7f8be0079c531659141344cd1fd0a4f28419497f9722a3daafe3b4186f6b6457e0610937610762565b60408051600160a060020a03928316815291841660208301528051918290030190a1806002600060405160200180807f6f776e657200000000000000000000000000000000000000000000000000000081525060050190506040516020818303038152906040526040518082805190602001908083835b602083106109cd5780518252601f1990920191602091820191016109ae565b51815160209384036101000a60001901801990921691161790526040805192909401829003909120865285019590955292909201600020805473ffffffffffffffffffffffffffffffffffffffff1916600160a060020a039590951694909417909355505050505600a165627a7a72305820a9c3eaff01692bb2c3c30bdd9c70bf5a3c51560f9585ff78ea065e6608a682240029",
  "source": "pragma solidity 0.4.24;\n\nimport \"./Ownable.sol\";\nimport \"openzeppelin-solidity/contracts/math/SafeMath.sol\";\nimport \"./Initializable.sol\";\n\ncontract BaseBridgeValidators is Initializable, Ownable {\n    using SafeMath for uint256;\n\n    address public constant F_ADDR = 0xFFfFfFffFFfffFFfFFfFFFFFffFFFffffFfFFFfF;\n    uint256 internal constant MAX_VALIDATORS = 100;\n    bytes32 internal constant REQUIRED_SIGNATURES = keccak256(abi.encodePacked(\"requiredSignatures\"));\n    bytes32 internal constant VALIDATOR_COUNT = keccak256(abi.encodePacked(\"validatorCount\"));\n\n    event ValidatorAdded(address indexed validator);\n    event ValidatorRemoved(address indexed validator);\n    event RequiredSignaturesChanged(uint256 requiredSignatures);\n\n    function setRequiredSignatures(uint256 _requiredSignatures) external onlyOwner {\n        require(validatorCount() >= _requiredSignatures);\n        require(_requiredSignatures != 0);\n        uintStorage[REQUIRED_SIGNATURES] = _requiredSignatures;\n        emit RequiredSignaturesChanged(_requiredSignatures);\n    }\n\n    function getBridgeValidatorsInterfacesVersion() external pure returns (uint64 major, uint64 minor, uint64 patch) {\n        return (2, 2, 0);\n    }\n\n    function validatorList() external view returns (address[]) {\n        address[] memory list = new address[](validatorCount());\n        uint256 counter = 0;\n        address nextValidator = getNextValidator(F_ADDR);\n        require(nextValidator != address(0));\n\n        while (nextValidator != F_ADDR) {\n            list[counter] = nextValidator;\n            nextValidator = getNextValidator(nextValidator);\n            counter++;\n\n            require(nextValidator != address(0));\n        }\n\n        return list;\n    }\n\n    function _addValidator(address _validator) internal {\n        require(_validator != address(0) && _validator != F_ADDR);\n        require(!isValidator(_validator));\n\n        address firstValidator = getNextValidator(F_ADDR);\n        require(firstValidator != address(0));\n        setNextValidator(_validator, firstValidator);\n        setNextValidator(F_ADDR, _validator);\n        setValidatorCount(validatorCount().add(1));\n    }\n\n    function _removeValidator(address _validator) internal {\n        require(validatorCount() > requiredSignatures());\n        require(isValidator(_validator));\n        address validatorsNext = getNextValidator(_validator);\n        address index = F_ADDR;\n        address next = getNextValidator(index);\n        require(next != address(0));\n\n        while (next != _validator) {\n            index = next;\n            next = getNextValidator(index);\n\n            require(next != F_ADDR && next != address(0));\n        }\n\n        setNextValidator(index, validatorsNext);\n        deleteItemFromAddressStorage(\"validatorsList\", _validator);\n        setValidatorCount(validatorCount().sub(1));\n    }\n\n    function requiredSignatures() public view returns (uint256) {\n        return uintStorage[REQUIRED_SIGNATURES];\n    }\n\n    function validatorCount() public view returns (uint256) {\n        return uintStorage[VALIDATOR_COUNT];\n    }\n\n    function isValidator(address _validator) public view returns (bool) {\n        return _validator != F_ADDR && getNextValidator(_validator) != address(0);\n    }\n\n    function getNextValidator(address _address) public view returns (address) {\n        return addressStorage[keccak256(abi.encodePacked(\"validatorsList\", _address))];\n    }\n\n    function deleteItemFromAddressStorage(string _mapName, address _address) internal {\n        delete addressStorage[keccak256(abi.encodePacked(_mapName, _address))];\n    }\n\n    function setValidatorCount(uint256 _validatorCount) internal {\n        uintStorage[VALIDATOR_COUNT] = _validatorCount;\n    }\n\n    function setNextValidator(address _prevValidator, address _validator) internal {\n        addressStorage[keccak256(abi.encodePacked(\"validatorsList\", _prevValidator))] = _validator;\n    }\n}\n",
  "sourcePath": "/contracts/contracts/upgradeable_contracts/BaseBridgeValidators.sol",
  "compiler": {
    "name": "solc",
    "version": "0.4.24+commit.e67f0147.Emscripten.clang"
  },
  "schemaVersion": "3.0.9",
  "updatedAt": "2019-09-30T13:18:39.252Z",
  "devdoc": {
    "methods": {
      "owner()": {
        "details": "Tells the address of the owner",
        "return": "the address of the owner"
      },
      "transferOwnership(address)": {
        "details": "Allows the current owner to transfer control of the contract to a newOwner.",
        "params": {
          "newOwner": "the address to transfer ownership to."
        }
      }
    }
  },
  "userdoc": {
    "methods": {}
  }
}