{
  "contractName": "BasicBridge",
  "abi": [
    {
      "constant": true,
      "inputs": [],
      "name": "isInitialized",
      "outputs": [
        {
          "name": "",
          "type": "bool"
        }
      ],
      "payable": false,
      "stateMutability": "view",
      "type": "function"
    },
    {
      "constant": true,
      "inputs": [],
      "name": "requiredSignatures",
      "outputs": [
        {
          "name": "",
          "type": "uint256"
        }
      ],
      "payable": false,
      "stateMutability": "view",
      "type": "function"
    },
    {
      "constant": true,
      "inputs": [],
      "name": "owner",
      "outputs": [
        {
          "name": "",
          "type": "address"
        }
      ],
      "payable": false,
      "stateMutability": "view",
      "type": "function"
    },
    {
      "constant": true,
      "inputs": [],
      "name": "validatorContract",
      "outputs": [
        {
          "name": "",
          "type": "address"
        }
      ],
      "payable": false,
      "stateMutability": "view",
      "type": "function"
    },
    {
      "constant": true,
      "inputs": [],
      "name": "deployedAtBlock",
      "outputs": [
        {
          "name": "",
          "type": "uint256"
        }
      ],
      "payable": false,
      "stateMutability": "view",
      "type": "function"
    },
    {
      "constant": false,
      "inputs": [
        {
          "name": "newOwner",
          "type": "address"
        }
      ],
      "name": "transferOwnership",
      "outputs": [],
      "payable": false,
      "stateMutability": "nonpayable",
      "type": "function"
    },
    {
      "anonymous": false,
      "inputs": [
        {
          "indexed": false,
          "name": "gasPrice",
          "type": "uint256"
        }
      ],
      "name": "GasPriceChanged",
      "type": "event"
    },
    {
      "anonymous": false,
      "inputs": [
        {
          "indexed": false,
          "name": "requiredBlockConfirmations",
          "type": "uint256"
        }
      ],
      "name": "RequiredBlockConfirmationChanged",
      "type": "event"
    },
    {
      "anonymous": false,
      "inputs": [
        {
          "indexed": false,
          "name": "previousOwner",
          "type": "address"
        },
        {
          "indexed": false,
          "name": "newOwner",
          "type": "address"
        }
      ],
      "name": "OwnershipTransferred",
      "type": "event"
    },
    {
      "constant": true,
      "inputs": [],
      "name": "getBridgeInterfacesVersion",
      "outputs": [
        {
          "name": "major",
          "type": "uint64"
        },
        {
          "name": "minor",
          "type": "uint64"
        },
        {
          "name": "patch",
          "type": "uint64"
        }
      ],
      "payable": false,
      "stateMutability": "pure",
      "type": "function"
    },
    {
      "constant": false,
      "inputs": [
        {
          "name": "_gasPrice",
          "type": "uint256"
        }
      ],
      "name": "setGasPrice",
      "outputs": [],
      "payable": false,
      "stateMutability": "nonpayable",
      "type": "function"
    },
    {
      "constant": true,
      "inputs": [],
      "name": "gasPrice",
      "outputs": [
        {
          "name": "",
          "type": "uint256"
        }
      ],
      "payable": false,
      "stateMutability": "view",
      "type": "function"
    },
    {
      "constant": false,
      "inputs": [
        {
          "name": "_blockConfirmations",
          "type": "uint256"
        }
      ],
      "name": "setRequiredBlockConfirmations",
      "outputs": [],
      "payable": false,
      "stateMutability": "nonpayable",
      "type": "function"
    },
    {
      "constant": true,
      "inputs": [],
      "name": "requiredBlockConfirmations",
      "outputs": [
        {
          "name": "",
          "type": "uint256"
        }
      ],
      "payable": false,
      "stateMutability": "view",
      "type": "function"
    },
    {
      "constant": false,
      "inputs": [
        {
          "name": "_token",
          "type": "address"
        },
        {
          "name": "_to",
          "type": "address"
        }
      ],
      "name": "claimTokens",
      "outputs": [],
      "payable": false,
      "stateMutability": "nonpayable",
      "type": "function"
    }
  ],
  "bytecode": "0x608060405234801561001057600080fd5b50610cb0806100206000396000f3006080604052600436106100a05763ffffffff60e060020a600035041663392e53cd81146100a55780633f0a9f65146100ce57806369ffa08a146100f55780638d0680431461011e5780638da5cb5b1461013357806399439089146101645780639a454b99146101795780639cb7595a1461018e578063acf5c689146101cf578063bf1fe420146101e7578063f2fde38b146101ff578063fe173b9714610220575b600080fd5b3480156100b157600080fd5b506100ba610235565b604080519115158252519081900360200190f35b3480156100da57600080fd5b506100e36102ed565b60408051918252519081900360200190f35b34801561010157600080fd5b5061011c600160a060020a03600435811690602435166103a1565b005b34801561012a57600080fd5b506100e3610444565b34801561013f57600080fd5b506101486104bc565b60408051600160a060020a039092168252519081900360200190f35b34801561017057600080fd5b5061014861057a565b34801561018557600080fd5b506100e36105ee565b34801561019a57600080fd5b506101a3610661565b6040805167ffffffffffffffff9485168152928416602084015292168183015290519081900360600190f35b3480156101db57600080fd5b5061011c60043561066c565b3480156101f357600080fd5b5061011c60043561077b565b34801561020b57600080fd5b5061011c600160a060020a036004351661088a565b34801561022c57600080fd5b506100e36108c7565b60006004600060405160200180807f6973496e697469616c697a656400000000000000000000000000000000000000815250600d0190506040516020818303038152906040526040518082805190602001908083835b602083106102aa5780518252601f19909201916020918201910161028b565b51815160209384036101000a600019018019909216911617905260408051929094018290039091208652850195909552929092016000205460ff16949350505050565b600080600060405160200180807f7265717569726564426c6f636b436f6e6669726d6174696f6e73000000000000815250601a0190506040516020818303038152906040526040518082805190602001908083835b602083106103615780518252601f199092019160209182019101610342565b51815160209384036101000a6000190180199092169116179052604080519290940182900390912086528501959095529290920160002054949350505050565b30600160a060020a0316636fde82026040518163ffffffff1660e060020a028152600401602060405180830381600087803b1580156103df57600080fd5b505af11580156103f3573d6000803e3d6000fd5b505050506040513d602081101561040957600080fd5b5051600160a060020a0316331461041f57600080fd5b80600160a060020a038116151561043557600080fd5b61043f838361093a565b505050565b600061044e61057a565b600160a060020a0316638d0680436040518163ffffffff1660e060020a028152600401602060405180830381600087803b15801561048b57600080fd5b505af115801561049f573d6000803e3d6000fd5b505050506040513d60208110156104b557600080fd5b5051905090565b60006002600060405160200180807f6f776e657200000000000000000000000000000000000000000000000000000081525060050190506040516020818303038152906040526040518082805190602001908083835b602083106105315780518252601f199092019160209182019101610512565b51815160209384036101000a6000190180199092169116179052604080519290940182900390912086528501959095529290920160002054600160a060020a0316949350505050565b60006002600060405160200180807f76616c696461746f72436f6e74726163740000000000000000000000000000008152506011019050604051602081830303815290604052604051808280519060200190808383602083106105315780518252601f199092019160209182019101610512565b600080600060405160200180807f6465706c6f7965644174426c6f636b0000000000000000000000000000000000815250600f019050604051602081830303815290604052604051808280519060200190808383602083106103615780518252601f199092019160209182019101610342565b600260036000909192565b6106746104bc565b600160a060020a0316331461068857600080fd5b6000811161069557600080fd5b8060008060405160200180807f7265717569726564426c6f636b436f6e6669726d6174696f6e73000000000000815250601a0190506040516020818303038152906040526040518082805190602001908083835b602083106107085780518252601f1990920191602091820191016106e9565b51815160001960209485036101000a019081169019919091161790526040805194909201849003909320865285830196909652509284016000209490945550815184815291517f4fb76205cd57c896b21511d2114137d8e901b4ccd659e1a0f97d6306795264fb9350918290030190a150565b6107836104bc565b600160a060020a0316331461079757600080fd5b600081116107a457600080fd5b8060008060405160200180807f676173507269636500000000000000000000000000000000000000000000000081525060080190506040516020818303038152906040526040518082805190602001908083835b602083106108175780518252601f1990920191602091820191016107f8565b51815160001960209485036101000a019081169019919091161790526040805194909201849003909320865285830196909652509284016000209490945550815184815291517f52264b89e0fceafb26e79fd49ef8a366eb6297483bf4035b027f0c99a7ad512e9350918290030190a150565b6108926104bc565b600160a060020a031633146108a657600080fd5b600160a060020a03811615156108bb57600080fd5b6108c481610966565b50565b600080600060405160200180807f67617350726963650000000000000000000000000000000000000000000000008152506008019050604051602081830303815290604052604051808280519060200190808383602083106103615780518252601f199092019160209182019101610342565b600160a060020a03821615156109585761095381610a8e565b610962565b6109628282610af9565b5050565b7f8be0079c531659141344cd1fd0a4f28419497f9722a3daafe3b4186f6b6457e061098f6104bc565b60408051600160a060020a03928316815291841660208301528051918290030190a1806002600060405160200180807f6f776e657200000000000000000000000000000000000000000000000000000081525060050190506040516020818303038152906040526040518082805190602001908083835b60208310610a255780518252601f199092019160209182019101610a06565b51815160209384036101000a60001901801990921691161790526040805192909401829003909120865285019590955292909201600020805473ffffffffffffffffffffffffffffffffffffffff1916600160a060020a03959095169490941790935550505050565b604051303190600160a060020a0383169082156108fc029083906000818181858888f193505050501515610962578082610ac6610c54565b600160a060020a039091168152604051908190036020019082f080158015610af2573d6000803e3d6000fd5b5050505050565b604080517f70a0823100000000000000000000000000000000000000000000000000000000815230600482015290518391600091600160a060020a038416916370a0823191602480830192602092919082900301818787803b158015610b5e57600080fd5b505af1158015610b72573d6000803e3d6000fd5b505050506040513d6020811015610b8857600080fd5b50519050610b97848483610b9d565b50505050565b60408051600160a060020a03841660248201526044808201849052825180830390910181526064909101909152602081810180517bffffffffffffffffffffffffffffffffffffffffffffffffffffffff167fa9059cbb000000000000000000000000000000000000000000000000000000001781528251606093600093909290918491828a5af160005193508392508080156100a0575050600083511115610c4c57811515610c4c57600080fd5b505050505050565b604051602180610c64833901905600608060405260405160208060218339810160405251600160a060020a038116ff00a165627a7a72305820d4e9a907c081507e7e6afe5dbdb38d776e2a9bcb1a9df47ba7ffd6b0ed3959260029",
  "source": "pragma solidity 0.4.24;\n\nimport \"./Upgradeable.sol\";\nimport \"./Initializable.sol\";\nimport \"openzeppelin-solidity/contracts/math/SafeMath.sol\";\nimport \"openzeppelin-solidity/contracts/AddressUtils.sol\";\nimport \"./Validatable.sol\";\nimport \"./Ownable.sol\";\nimport \"./Claimable.sol\";\n\ncontract BasicBridge is Initializable, Validatable, Ownable, Upgradeable, Claimable {\n    using SafeMath for uint256;\n\n    event GasPriceChanged(uint256 gasPrice);\n    event RequiredBlockConfirmationChanged(uint256 requiredBlockConfirmations);\n\n    bytes32 internal constant GAS_PRICE = keccak256(abi.encodePacked(\"gasPrice\"));\n    bytes32 internal constant REQUIRED_BLOCK_CONFIRMATIONS = keccak256(abi.encodePacked(\"requiredBlockConfirmations\"));\n\n    function getBridgeInterfacesVersion() external pure returns (uint64 major, uint64 minor, uint64 patch) {\n        return (2, 3, 0);\n    }\n\n    function setGasPrice(uint256 _gasPrice) external onlyOwner {\n        require(_gasPrice > 0);\n        uintStorage[GAS_PRICE] = _gasPrice;\n        emit GasPriceChanged(_gasPrice);\n    }\n\n    function gasPrice() external view returns (uint256) {\n        return uintStorage[GAS_PRICE];\n    }\n\n    function setRequiredBlockConfirmations(uint256 _blockConfirmations) external onlyOwner {\n        require(_blockConfirmations > 0);\n        uintStorage[REQUIRED_BLOCK_CONFIRMATIONS] = _blockConfirmations;\n        emit RequiredBlockConfirmationChanged(_blockConfirmations);\n    }\n\n    function requiredBlockConfirmations() external view returns (uint256) {\n        return uintStorage[REQUIRED_BLOCK_CONFIRMATIONS];\n    }\n\n    function claimTokens(address _token, address _to) public onlyIfUpgradeabilityOwner validAddress(_to) {\n        claimValues(_token, _to);\n    }\n}\n",
  "sourcePath": "/contracts/contracts/upgradeable_contracts/BasicBridge.sol",
  "compiler": {
    "name": "solc",
    "version": "0.4.24+commit.e67f0147.Emscripten.clang"
  },
  "schemaVersion": "3.0.9",
  "updatedAt": "2019-09-30T13:18:39.258Z",
  "devdoc": {
    "methods": {
      "owner()": {
        "details": "Tells the address of the owner",
        "return": "the address of the owner"
      },
      "transferOwnership(address)": {
        "details": "Allows the current owner to transfer control of the contract to a newOwner.",
        "params": {
          "newOwner": "the address to transfer ownership to."
        }
      }
    }
  },
  "userdoc": {
    "methods": {}
  }
}