{
  "contractName": "BasicAMB",
  "abi": [
    {
      "constant": true,
      "inputs": [],
      "name": "isInitialized",
      "outputs": [
        {
          "name": "",
          "type": "bool"
        }
      ],
      "payable": false,
      "stateMutability": "view",
      "type": "function"
    },
    {
      "constant": true,
      "inputs": [],
      "name": "requiredBlockConfirmations",
      "outputs": [
        {
          "name": "",
          "type": "uint256"
        }
      ],
      "payable": false,
      "stateMutability": "view",
      "type": "function"
    },
    {
      "constant": false,
      "inputs": [
        {
          "name": "_token",
          "type": "address"
        },
        {
          "name": "_to",
          "type": "address"
        }
      ],
      "name": "claimTokens",
      "outputs": [],
      "payable": false,
      "stateMutability": "nonpayable",
      "type": "function"
    },
    {
      "constant": true,
      "inputs": [],
      "name": "requiredSignatures",
      "outputs": [
        {
          "name": "",
          "type": "uint256"
        }
      ],
      "payable": false,
      "stateMutability": "view",
      "type": "function"
    },
    {
      "constant": true,
      "inputs": [],
      "name": "owner",
      "outputs": [
        {
          "name": "",
          "type": "address"
        }
      ],
      "payable": false,
      "stateMutability": "view",
      "type": "function"
    },
    {
      "constant": true,
      "inputs": [],
      "name": "validatorContract",
      "outputs": [
        {
          "name": "",
          "type": "address"
        }
      ],
      "payable": false,
      "stateMutability": "view",
      "type": "function"
    },
    {
      "constant": true,
      "inputs": [],
      "name": "deployedAtBlock",
      "outputs": [
        {
          "name": "",
          "type": "uint256"
        }
      ],
      "payable": false,
      "stateMutability": "view",
      "type": "function"
    },
    {
      "constant": true,
      "inputs": [],
      "name": "getBridgeInterfacesVersion",
      "outputs": [
        {
          "name": "major",
          "type": "uint64"
        },
        {
          "name": "minor",
          "type": "uint64"
        },
        {
          "name": "patch",
          "type": "uint64"
        }
      ],
      "payable": false,
      "stateMutability": "pure",
      "type": "function"
    },
    {
      "constant": false,
      "inputs": [
        {
          "name": "_blockConfirmations",
          "type": "uint256"
        }
      ],
      "name": "setRequiredBlockConfirmations",
      "outputs": [],
      "payable": false,
      "stateMutability": "nonpayable",
      "type": "function"
    },
    {
      "constant": false,
      "inputs": [
        {
          "name": "_gasPrice",
          "type": "uint256"
        }
      ],
      "name": "setGasPrice",
      "outputs": [],
      "payable": false,
      "stateMutability": "nonpayable",
      "type": "function"
    },
    {
      "constant": false,
      "inputs": [
        {
          "name": "newOwner",
          "type": "address"
        }
      ],
      "name": "transferOwnership",
      "outputs": [],
      "payable": false,
      "stateMutability": "nonpayable",
      "type": "function"
    },
    {
      "constant": true,
      "inputs": [],
      "name": "gasPrice",
      "outputs": [
        {
          "name": "",
          "type": "uint256"
        }
      ],
      "payable": false,
      "stateMutability": "view",
      "type": "function"
    },
    {
      "anonymous": false,
      "inputs": [
        {
          "indexed": false,
          "name": "gasPrice",
          "type": "uint256"
        }
      ],
      "name": "GasPriceChanged",
      "type": "event"
    },
    {
      "anonymous": false,
      "inputs": [
        {
          "indexed": false,
          "name": "requiredBlockConfirmations",
          "type": "uint256"
        }
      ],
      "name": "RequiredBlockConfirmationChanged",
      "type": "event"
    },
    {
      "anonymous": false,
      "inputs": [
        {
          "indexed": false,
          "name": "previousOwner",
          "type": "address"
        },
        {
          "indexed": false,
          "name": "newOwner",
          "type": "address"
        }
      ],
      "name": "OwnershipTransferred",
      "type": "event"
    },
    {
      "constant": false,
      "inputs": [
        {
          "name": "_validatorContract",
          "type": "address"
        },
        {
          "name": "_maxGasPerTx",
          "type": "uint256"
        },
        {
          "name": "_gasPrice",
          "type": "uint256"
        },
        {
          "name": "_requiredBlockConfirmations",
          "type": "uint256"
        },
        {
          "name": "_owner",
          "type": "address"
        }
      ],
      "name": "initialize",
      "outputs": [
        {
          "name": "",
          "type": "bool"
        }
      ],
      "payable": false,
      "stateMutability": "nonpayable",
      "type": "function"
    },
    {
      "constant": true,
      "inputs": [],
      "name": "getBridgeMode",
      "outputs": [
        {
          "name": "_data",
          "type": "bytes4"
        }
      ],
      "payable": false,
      "stateMutability": "pure",
      "type": "function"
    },
    {
      "constant": true,
      "inputs": [],
      "name": "maxGasPerTx",
      "outputs": [
        {
          "name": "",
          "type": "uint256"
        }
      ],
      "payable": false,
      "stateMutability": "view",
      "type": "function"
    },
    {
      "constant": false,
      "inputs": [
        {
          "name": "_maxGasPerTx",
          "type": "uint256"
        }
      ],
      "name": "setMaxGasPerTx",
      "outputs": [],
      "payable": false,
      "stateMutability": "nonpayable",
      "type": "function"
    }
  ],
  "bytecode": "0x608060405234801561001057600080fd5b50611497806100206000396000f3006080604052600436106100cc5763ffffffff60e060020a600035041663392e53cd81146100d15780633f0a9f65146100fa578063437764df1461012157806369ffa08a1461016b5780636c28e349146101945780637bac29c7146101c75780638d068043146101df5780638da5cb5b146101f457806399439089146102255780639a454b991461023a5780639cb7595a1461024f578063acf5c68914610290578063bf1fe420146102a8578063e5789d03146102c0578063f2fde38b146102d5578063fe173b97146102f6575b600080fd5b3480156100dd57600080fd5b506100e661030b565b604080519115158252519081900360200190f35b34801561010657600080fd5b5061010f6103c3565b60408051918252519081900360200190f35b34801561012d57600080fd5b50610136610477565b604080517fffffffff000000000000000000000000000000000000000000000000000000009092168252519081900360200190f35b34801561017757600080fd5b50610192600160a060020a036004358116906024351661051a565b005b3480156101a057600080fd5b506100e6600160a060020a03600435811690602435906044359060643590608435166105bd565b3480156101d357600080fd5b50610192600435610a1f565b3480156101eb57600080fd5b5061010f610aef565b34801561020057600080fd5b50610209610b67565b60408051600160a060020a039092168252519081900360200190f35b34801561023157600080fd5b50610209610c25565b34801561024657600080fd5b5061010f610c99565b34801561025b57600080fd5b50610264610d0c565b6040805167ffffffffffffffff9485168152928416602084015292168183015290519081900360600190f35b34801561029c57600080fd5b50610192600435610d17565b3480156102b457600080fd5b50610192600435610e26565b3480156102cc57600080fd5b5061010f610f35565b3480156102e157600080fd5b50610192600160a060020a0360043516610fa8565b34801561030257600080fd5b5061010f610fe5565b60006004600060405160200180807f6973496e697469616c697a656400000000000000000000000000000000000000815250600d0190506040516020818303038152906040526040518082805190602001908083835b602083106103805780518252601f199092019160209182019101610361565b51815160209384036101000a600019018019909216911617905260408051929094018290039091208652850195909552929092016000205460ff16949350505050565b600080600060405160200180807f7265717569726564426c6f636b436f6e6669726d6174696f6e73000000000000815250601a0190506040516020818303038152906040526040518082805190602001908083835b602083106104375780518252601f199092019160209182019101610418565b51815160209384036101000a6000190180199092169116179052604080519290940182900390912086528501959095529290920160002054949350505050565b600060405160200180807f6172626974726172792d6d6573736167652d6272696467652d636f7265000000815250601d0190506040516020818303038152906040526040518082805190602001908083835b602083106104e85780518252601f1990920191602091820191016104c9565b6001836020036101000a0380198251168184511680821785525050505050509050019150506040518091039020905090565b30600160a060020a0316636fde82026040518163ffffffff1660e060020a028152600401602060405180830381600087803b15801561055857600080fd5b505af115801561056c573d6000803e3d6000fd5b505050506040513d602081101561058257600080fd5b5051600160a060020a0316331461059857600080fd5b80600160a060020a03811615156105ae57600080fd5b6105b88383611058565b505050565b60006105c761030b565b156105d157600080fd5b600160a060020a038616158015906105ed57506105ed86611084565b15156105f857600080fd5b6000841161060557600080fd5b6000831161061257600080fd5b856002600060405160200180807f76616c696461746f72436f6e747261637400000000000000000000000000000081525060110190506040516020818303038152906040526040518082805190602001908083835b602083106106865780518252601f199092019160209182019101610667565b51815160209384036101000a60001901801990921691161790526040805192909401829003909120865285810196909652509283016000908120805473ffffffffffffffffffffffffffffffffffffffff1916600160a060020a039790971696909617909555505080517f6465706c6f7965644174426c6f636b0000000000000000000000000000000000818401528151600f818303018152602f90910191829052805143949384939182918401908083835b602083106107585780518252601f199092019160209182019101610739565b51815160209384036101000a6000190180199092169116179052604080519290940182900390912086528581019690965250928301600090812095909555505080517f6d61784761735065725478000000000000000000000000000000000000000000818401528151600b818303018152602b90910191829052805189949384939182918401908083835b602083106108025780518252601f1990920191602091820191016107e3565b51815160209384036101000a6000190180199092169116179052604080519290940182900390912086528581019690965250928301600090812095909555505080517f67617350726963650000000000000000000000000000000000000000000000008184015281516008818303018152602890910191829052805188949384939182918401908083835b602083106108ac5780518252601f19909201916020918201910161088d565b51815160209384036101000a6000190180199092169116179052604080519290940182900390912086528581019690965250928301600090812095909555505080517f7265717569726564426c6f636b436f6e6669726d6174696f6e73000000000000818401528151601a818303018152603a90910191829052805187949384939182918401908083835b602083106109565780518252601f199092019160209182019101610937565b51815160209384036101000a60001901801990921691161790526040805192909401829003909120865285019590955292909201600020939093555061099f915083905061108c565b6109a76111b4565b6040805184815290517f4fb76205cd57c896b21511d2114137d8e901b4ccd659e1a0f97d6306795264fb9181900360200190a16040805185815290517f52264b89e0fceafb26e79fd49ef8a366eb6297483bf4035b027f0c99a7ad512e9181900360200190a1610a1561030b565b9695505050505050565b610a27610b67565b600160a060020a03163314610a3b57600080fd5b8060008060405160200180807f6d61784761735065725478000000000000000000000000000000000000000000815250600b0190506040516020818303038152906040526040518082805190602001908083835b60208310610aae5780518252601f199092019160209182019101610a8f565b51815160209384036101000a600019018019909216911617905260408051929094018290039091208652850195909552929092016000209390935550505050565b6000610af9610c25565b600160a060020a0316638d0680436040518163ffffffff1660e060020a028152600401602060405180830381600087803b158015610b3657600080fd5b505af1158015610b4a573d6000803e3d6000fd5b505050506040513d6020811015610b6057600080fd5b5051905090565b60006002600060405160200180807f6f776e657200000000000000000000000000000000000000000000000000000081525060050190506040516020818303038152906040526040518082805190602001908083835b60208310610bdc5780518252601f199092019160209182019101610bbd565b51815160209384036101000a6000190180199092169116179052604080519290940182900390912086528501959095529290920160002054600160a060020a0316949350505050565b60006002600060405160200180807f76616c696461746f72436f6e7472616374000000000000000000000000000000815250601101905060405160208183030381529060405260405180828051906020019080838360208310610bdc5780518252601f199092019160209182019101610bbd565b600080600060405160200180807f6465706c6f7965644174426c6f636b0000000000000000000000000000000000815250600f019050604051602081830303815290604052604051808280519060200190808383602083106104375780518252601f199092019160209182019101610418565b600260036000909192565b610d1f610b67565b600160a060020a03163314610d3357600080fd5b60008111610d4057600080fd5b8060008060405160200180807f7265717569726564426c6f636b436f6e6669726d6174696f6e73000000000000815250601a0190506040516020818303038152906040526040518082805190602001908083835b60208310610db35780518252601f199092019160209182019101610d94565b51815160001960209485036101000a019081169019919091161790526040805194909201849003909320865285830196909652509284016000209490945550815184815291517f4fb76205cd57c896b21511d2114137d8e901b4ccd659e1a0f97d6306795264fb9350918290030190a150565b610e2e610b67565b600160a060020a03163314610e4257600080fd5b60008111610e4f57600080fd5b8060008060405160200180807f676173507269636500000000000000000000000000000000000000000000000081525060080190506040516020818303038152906040526040518082805190602001908083835b60208310610ec25780518252601f199092019160209182019101610ea3565b51815160001960209485036101000a019081169019919091161790526040805194909201849003909320865285830196909652509284016000209490945550815184815291517f52264b89e0fceafb26e79fd49ef8a366eb6297483bf4035b027f0c99a7ad512e9350918290030190a150565b600080600060405160200180807f6d61784761735065725478000000000000000000000000000000000000000000815250600b019050604051602081830303815290604052604051808280519060200190808383602083106104375780518252601f199092019160209182019101610418565b610fb0610b67565b600160a060020a03163314610fc457600080fd5b600160a060020a0381161515610fd957600080fd5b610fe28161108c565b50565b600080600060405160200180807f67617350726963650000000000000000000000000000000000000000000000008152506008019050604051602081830303815290604052604051808280519060200190808383602083106104375780518252601f199092019160209182019101610418565b600160a060020a03821615156110765761107181611275565b611080565b61108082826112e0565b5050565b6000903b1190565b7f8be0079c531659141344cd1fd0a4f28419497f9722a3daafe3b4186f6b6457e06110b5610b67565b60408051600160a060020a03928316815291841660208301528051918290030190a1806002600060405160200180807f6f776e657200000000000000000000000000000000000000000000000000000081525060050190506040516020818303038152906040526040518082805190602001908083835b6020831061114b5780518252601f19909201916020918201910161112c565b51815160209384036101000a60001901801990921691161790526040805192909401829003909120865285019590955292909201600020805473ffffffffffffffffffffffffffffffffffffffff1916600160a060020a03959095169490941790935550505050565b60016004600060405160200180807f6973496e697469616c697a656400000000000000000000000000000000000000815250600d0190506040516020818303038152906040526040518082805190602001908083835b602083106112295780518252601f19909201916020918201910161120a565b51815160209384036101000a60001901801990921691161790526040805192909401829003909120865285019590955292909201600020805460ff191694151594909417909355505050565b604051303190600160a060020a0383169082156108fc029083906000818181858888f1935050505015156110805780826112ad61143b565b600160a060020a039091168152604051908190036020019082f0801580156112d9573d6000803e3d6000fd5b5050505050565b604080517f70a0823100000000000000000000000000000000000000000000000000000000815230600482015290518391600091600160a060020a038416916370a0823191602480830192602092919082900301818787803b15801561134557600080fd5b505af1158015611359573d6000803e3d6000fd5b505050506040513d602081101561136f57600080fd5b5051905061137e848483611384565b50505050565b60408051600160a060020a03841660248201526044808201849052825180830390910181526064909101909152602081810180517bffffffffffffffffffffffffffffffffffffffffffffffffffffffff167fa9059cbb000000000000000000000000000000000000000000000000000000001781528251606093600093909290918491828a5af160005193508392508080156100cc5750506000835111156114335781151561143357600080fd5b505050505050565b60405160218061144b833901905600608060405260405160208060218339810160405251600160a060020a038116ff00a165627a7a72305820843144254285d7fd7ab09ff3d732d2c2bad05ed5549543bcfc97413137c1413c0029",
  "source": "pragma solidity 0.4.24;\n\nimport \"../BasicBridge.sol\";\n\ncontract BasicAMB is BasicBridge {\n    bytes32 internal constant MAX_GAS_PER_TX = keccak256(abi.encodePacked(\"maxGasPerTx\"));\n\n    function initialize(\n        address _validatorContract,\n        uint256 _maxGasPerTx,\n        uint256 _gasPrice,\n        uint256 _requiredBlockConfirmations,\n        address _owner\n    ) public returns (bool) {\n        require(!isInitialized());\n        require(_validatorContract != address(0) && AddressUtils.isContract(_validatorContract));\n        require(_gasPrice > 0);\n        require(_requiredBlockConfirmations > 0);\n\n        addressStorage[VALIDATOR_CONTRACT] = _validatorContract;\n        uintStorage[DEPLOYED_AT_BLOCK] = block.number;\n        uintStorage[MAX_GAS_PER_TX] = _maxGasPerTx;\n        uintStorage[GAS_PRICE] = _gasPrice;\n        uintStorage[REQUIRED_BLOCK_CONFIRMATIONS] = _requiredBlockConfirmations;\n        setOwner(_owner);\n        setInitialize();\n\n        emit RequiredBlockConfirmationChanged(_requiredBlockConfirmations);\n        emit GasPriceChanged(_gasPrice);\n\n        return isInitialized();\n    }\n\n    function getBridgeMode() external pure returns (bytes4 _data) {\n        return bytes4(keccak256(abi.encodePacked(\"arbitrary-message-bridge-core\")));\n    }\n\n    function maxGasPerTx() public view returns (uint256) {\n        return uintStorage[MAX_GAS_PER_TX];\n    }\n\n    function setMaxGasPerTx(uint256 _maxGasPerTx) external onlyOwner {\n        uintStorage[MAX_GAS_PER_TX] = _maxGasPerTx;\n    }\n}\n",
  "sourcePath": "/contracts/contracts/upgradeable_contracts/arbitrary_message/BasicAMB.sol",
  "compiler": {
    "name": "solc",
    "version": "0.4.24+commit.e67f0147.Emscripten.clang"
  },
  "schemaVersion": "3.0.9",
  "updatedAt": "2019-09-30T13:18:39.294Z",
  "devdoc": {
    "methods": {
      "owner()": {
        "details": "Tells the address of the owner",
        "return": "the address of the owner"
      },
      "transferOwnership(address)": {
        "details": "Allows the current owner to transfer control of the contract to a newOwner.",
        "params": {
          "newOwner": "the address to transfer ownership to."
        }
      }
    }
  },
  "userdoc": {
    "methods": {}
  }
}