{
  "contractName": "BridgeValidators",
  "abi": [
    {
      "constant": true,
      "inputs": [],
      "name": "validatorCount",
      "outputs": [
        {
          "name": "",
          "type": "uint256"
        }
      ],
      "payable": false,
      "stateMutability": "view",
      "type": "function"
    },
    {
      "constant": true,
      "inputs": [],
      "name": "getBridgeValidatorsInterfacesVersion",
      "outputs": [
        {
          "name": "major",
          "type": "uint64"
        },
        {
          "name": "minor",
          "type": "uint64"
        },
        {
          "name": "patch",
          "type": "uint64"
        }
      ],
      "payable": false,
      "stateMutability": "pure",
      "type": "function"
    },
    {
      "constant": true,
      "inputs": [],
      "name": "isInitialized",
      "outputs": [
        {
          "name": "",
          "type": "bool"
        }
      ],
      "payable": false,
      "stateMutability": "view",
      "type": "function"
    },
    {
      "constant": true,
      "inputs": [],
      "name": "validatorList",
      "outputs": [
        {
          "name": "",
          "type": "address[]"
        }
      ],
      "payable": false,
      "stateMutability": "view",
      "type": "function"
    },
    {
      "constant": false,
      "inputs": [
        {
          "name": "_requiredSignatures",
          "type": "uint256"
        }
      ],
      "name": "setRequiredSignatures",
      "outputs": [],
      "payable": false,
      "stateMutability": "nonpayable",
      "type": "function"
    },
    {
      "constant": true,
      "inputs": [],
      "name": "requiredSignatures",
      "outputs": [
        {
          "name": "",
          "type": "uint256"
        }
      ],
      "payable": false,
      "stateMutability": "view",
      "type": "function"
    },
    {
      "constant": true,
      "inputs": [
        {
          "name": "_address",
          "type": "address"
        }
      ],
      "name": "getNextValidator",
      "outputs": [
        {
          "name": "",
          "type": "address"
        }
      ],
      "payable": false,
      "stateMutability": "view",
      "type": "function"
    },
    {
      "constant": true,
      "inputs": [],
      "name": "owner",
      "outputs": [
        {
          "name": "",
          "type": "address"
        }
      ],
      "payable": false,
      "stateMutability": "view",
      "type": "function"
    },
    {
      "constant": true,
      "inputs": [],
      "name": "deployedAtBlock",
      "outputs": [
        {
          "name": "",
          "type": "uint256"
        }
      ],
      "payable": false,
      "stateMutability": "view",
      "type": "function"
    },
    {
      "constant": true,
      "inputs": [],
      "name": "F_ADDR",
      "outputs": [
        {
          "name": "",
          "type": "address"
        }
      ],
      "payable": false,
      "stateMutability": "view",
      "type": "function"
    },
    {
      "constant": false,
      "inputs": [
        {
          "name": "newOwner",
          "type": "address"
        }
      ],
      "name": "transferOwnership",
      "outputs": [],
      "payable": false,
      "stateMutability": "nonpayable",
      "type": "function"
    },
    {
      "constant": true,
      "inputs": [
        {
          "name": "_validator",
          "type": "address"
        }
      ],
      "name": "isValidator",
      "outputs": [
        {
          "name": "",
          "type": "bool"
        }
      ],
      "payable": false,
      "stateMutability": "view",
      "type": "function"
    },
    {
      "anonymous": false,
      "inputs": [
        {
          "indexed": true,
          "name": "validator",
          "type": "address"
        }
      ],
      "name": "ValidatorAdded",
      "type": "event"
    },
    {
      "anonymous": false,
      "inputs": [
        {
          "indexed": true,
          "name": "validator",
          "type": "address"
        }
      ],
      "name": "ValidatorRemoved",
      "type": "event"
    },
    {
      "anonymous": false,
      "inputs": [
        {
          "indexed": false,
          "name": "requiredSignatures",
          "type": "uint256"
        }
      ],
      "name": "RequiredSignaturesChanged",
      "type": "event"
    },
    {
      "anonymous": false,
      "inputs": [
        {
          "indexed": false,
          "name": "previousOwner",
          "type": "address"
        },
        {
          "indexed": false,
          "name": "newOwner",
          "type": "address"
        }
      ],
      "name": "OwnershipTransferred",
      "type": "event"
    },
    {
      "constant": false,
      "inputs": [
        {
          "name": "_requiredSignatures",
          "type": "uint256"
        },
        {
          "name": "_initialValidators",
          "type": "address[]"
        },
        {
          "name": "_owner",
          "type": "address"
        }
      ],
      "name": "initialize",
      "outputs": [
        {
          "name": "",
          "type": "bool"
        }
      ],
      "payable": false,
      "stateMutability": "nonpayable",
      "type": "function"
    },
    {
      "constant": false,
      "inputs": [
        {
          "name": "_validator",
          "type": "address"
        }
      ],
      "name": "addValidator",
      "outputs": [],
      "payable": false,
      "stateMutability": "nonpayable",
      "type": "function"
    },
    {
      "constant": false,
      "inputs": [
        {
          "name": "_validator",
          "type": "address"
        }
      ],
      "name": "removeValidator",
      "outputs": [],
      "payable": false,
      "stateMutability": "nonpayable",
      "type": "function"
    }
  ],
  "bytecode": "0x608060405234801561001057600080fd5b50611508806100206000396000f3006080604052600436106100da5763ffffffff7c01000000000000000000000000000000000000000000000000000000006000350416630f43a67781146100df5780632bda4eee14610106578063392e53cd1461014757806340a141ff146101705780634d238c8e1461019357806352af719f146101b45780635890ef79146101e45780637d2b9cc0146102495780638d068043146102615780638d37052c146102765780638da5cb5b146102b35780639a454b99146102c8578063c794c769146102dd578063f2fde38b146102f2578063facd743b14610313575b600080fd5b3480156100eb57600080fd5b506100f4610334565b60408051918252519081900360200190f35b34801561011257600080fd5b5061011b6103e8565b6040805167ffffffffffffffff9485168152928416602084015292168183015290519081900360600190f35b34801561015357600080fd5b5061015c6103f2565b604080519115158252519081900360200190f35b34801561017c57600080fd5b50610191600160a060020a03600435166104aa565b005b34801561019f57600080fd5b50610191600160a060020a0360043516610506565b3480156101c057600080fd5b5061015c600480359060248035908101910135600160a060020a0360443516610562565b3480156101f057600080fd5b506101f9610939565b60408051602080825283518183015283519192839290830191858101910280838360005b8381101561023557818101518382015260200161021d565b505050509050019250505060405180910390f35b34801561025557600080fd5b50610191600435610a07565b34801561026d57600080fd5b506100f4610b29565b34801561028257600080fd5b50610297600160a060020a0360043516610b9c565b60408051600160a060020a039092168252519081900360200190f35b3480156102bf57600080fd5b50610297610c84565b3480156102d457600080fd5b506100f4610d42565b3480156102e957600080fd5b50610297610db5565b3480156102fe57600080fd5b50610191600160a060020a0360043516610dc0565b34801561031f57600080fd5b5061015c600160a060020a0360043516610dfd565b600080600060405160200180807f76616c696461746f72436f756e74000000000000000000000000000000000000815250600e0190506040516020818303038152906040526040518082805190602001908083835b602083106103a85780518252601f199092019160209182019101610389565b51815160209384036101000a6000190180199092169116179052604080519290940182900390912086528501959095529290920160002054949350505050565b6002806000909192565b60006004600060405160200180807f6973496e697469616c697a656400000000000000000000000000000000000000815250600d0190506040516020818303038152906040526040518082805190602001908083835b602083106104675780518252601f199092019160209182019101610448565b51815160209384036101000a600019018019909216911617905260408051929094018290039091208652850195909552929092016000205460ff16949350505050565b6104b2610c84565b600160a060020a031633146104c657600080fd5b6104cf81610e30565b604051600160a060020a038216907fe1434e25d6611e0db941968fdc97811c982ac1602e951637d206f5fdda9dd8f190600090a250565b61050e610c84565b600160a060020a0316331461052257600080fd5b61052b81610f5a565b604051600160a060020a038216907fe366c1c0452ed8eec96861e9e54141ebff23c9ec89fe27b996b45f5ec388498790600090a250565b60008061056d6103f2565b1561057757600080fd5b600160a060020a038316151561058c57600080fd5b61059583610ffd565b8515156105a157600080fd5b858410156105ae57600080fd5b60648411156105bc57600080fd5b5060005b838110156107865760008585838181106105d657fe5b90506020020135600160a060020a0316600160a060020a0316141580156106285750600160a060020a0385858381811061060c57fe5b90506020020135600160a060020a0316600160a060020a031614155b151561063357600080fd5b61065785858381811061064257fe5b90506020020135600160a060020a0316610dfd565b1561066157600080fd5b8015156106ce57610694600160a060020a0386868481811061067f57fe5b90506020020135600160a060020a0316611125565b60018414156106c9576106c98585838181106106ac57fe5b90506020020135600160a060020a0316600160a060020a03611125565b61072d565b600019840181141561071a5761070b858560001984018181106106ed57fe5b90506020020135600160a060020a0316868684818110151561067f57fe5b6106c98585838181106106ac57fe5b61072d858560001984018181106106ed57fe5b84848281811061073957fe5b90506020020135600160a060020a0316600160a060020a03167fe366c1c0452ed8eec96861e9e54141ebff23c9ec89fe27b996b45f5ec388498760405160405180910390a26001016105c0565b61078f8461122c565b8560008060405160200180807f72657175697265645369676e617475726573000000000000000000000000000081525060120190506040516020818303038152906040526040518082805190602001908083835b602083106108025780518252601f1990920191602091820191016107e3565b51815160209384036101000a6000190180199092169116179052604080519290940182900390912086528581019690965250928301600090812095909555505080517f6465706c6f7965644174426c6f636b0000000000000000000000000000000000818401528151600f818303018152602f90910191829052805143949384939182918401908083835b602083106108ac5780518252601f19909201916020918201910161088d565b51815160209384036101000a6000190180199092169116179052604080519290940182900390912086528501959095529290920160002093909355506108f491506112e09050565b6040805187815290517f10dbc913050d3180c3b99f7da91fd514af7cbc9c1bb59a0da5d2bc38f0cf395a9181900360200190a161092f6103f2565b9695505050505050565b606080600080610947610334565b604051908082528060200260200182016040528015610970578160200160208202803883390190505b50925060009150610987600160a060020a03610b9c565b9050600160a060020a038116151561099e57600080fd5b600160a060020a03818116146109ff578083838151811015156109bd57fe5b600160a060020a039092166020928302909101909101526109dd81610b9c565b6001909201919050600160a060020a03811615156109fa57600080fd5b61099e565b509092915050565b610a0f610c84565b600160a060020a03163314610a2357600080fd5b80610a2c610334565b1015610a3757600080fd5b801515610a4357600080fd5b8060008060405160200180807f72657175697265645369676e617475726573000000000000000000000000000081525060120190506040516020818303038152906040526040518082805190602001908083835b60208310610ab65780518252601f199092019160209182019101610a97565b51815160001960209485036101000a019081169019919091161790526040805194909201849003909320865285830196909652509284016000209490945550815184815291517f10dbc913050d3180c3b99f7da91fd514af7cbc9c1bb59a0da5d2bc38f0cf395a9350918290030190a150565b600080600060405160200180807f72657175697265645369676e61747572657300000000000000000000000000008152506012019050604051602081830303815290604052604051808280519060200190808383602083106103a85780518252601f199092019160209182019101610389565b6000600260008360405160200180807f76616c696461746f72734c697374000000000000000000000000000000000000815250600e0182600160a060020a0316600160a060020a03166c010000000000000000000000000281526014019150506040516020818303038152906040526040518082805190602001908083835b60208310610c3a5780518252601f199092019160209182019101610c1b565b51815160209384036101000a6000190180199092169116179052604080519290940182900390912086528501959095529290920160002054600160a060020a031695945050505050565b60006002600060405160200180807f6f776e657200000000000000000000000000000000000000000000000000000081525060050190506040516020818303038152906040526040518082805190602001908083835b60208310610cf95780518252601f199092019160209182019101610cda565b51815160209384036101000a6000190180199092169116179052604080519290940182900390912086528501959095529290920160002054600160a060020a0316949350505050565b600080600060405160200180807f6465706c6f7965644174426c6f636b0000000000000000000000000000000000815250600f019050604051602081830303815290604052604051808280519060200190808383602083106103a85780518252601f199092019160209182019101610389565b600160a060020a0381565b610dc8610c84565b600160a060020a03163314610ddc57600080fd5b600160a060020a0381161515610df157600080fd5b610dfa81610ffd565b50565b6000600160a060020a0382811614801590610e2a57506000610e1e83610b9c565b600160a060020a031614155b92915050565b6000806000610e3d610b29565b610e45610334565b11610e4f57600080fd5b610e5884610dfd565b1515610e6357600080fd5b610e6c84610b9c565b9250600160a060020a039150610e8182610b9c565b9050600160a060020a0381161515610e9857600080fd5b600160a060020a0381811690851614610eea57809150610eb782610b9c565b9050600160a060020a0380821614801590610eda5750600160a060020a03811615155b1515610ee557600080fd5b610e98565b610ef48284611125565b610f336040805190810160405280600e81526020017f76616c696461746f72734c697374000000000000000000000000000000000000815250856113a1565b610f54610f4f6001610f43610334565b9063ffffffff6114bd16565b61122c565b50505050565b6000600160a060020a03821615801590610f7d5750600160a060020a0382811614155b1515610f8857600080fd5b610f9182610dfd565b15610f9b57600080fd5b610fab600160a060020a03610b9c565b9050600160a060020a0381161515610fc257600080fd5b610fcc8282611125565b610fdd600160a060020a0383611125565b610ff9610f4f6001610fed610334565b9063ffffffff6114cf16565b5050565b7f8be0079c531659141344cd1fd0a4f28419497f9722a3daafe3b4186f6b6457e0611026610c84565b60408051600160a060020a03928316815291841660208301528051918290030190a1806002600060405160200180807f6f776e657200000000000000000000000000000000000000000000000000000081525060050190506040516020818303038152906040526040518082805190602001908083835b602083106110bc5780518252601f19909201916020918201910161109d565b51815160209384036101000a60001901801990921691161790526040805192909401829003909120865285019590955292909201600020805473ffffffffffffffffffffffffffffffffffffffff1916600160a060020a03959095169490941790935550505050565b80600260008460405160200180807f76616c696461746f72734c697374000000000000000000000000000000000000815250600e0182600160a060020a0316600160a060020a03166c010000000000000000000000000281526014019150506040516020818303038152906040526040518082805190602001908083835b602083106111c25780518252601f1990920191602091820191016111a3565b51815160209384036101000a60001901801990921691161790526040805192909401829003909120865285019590955292909201600020805473ffffffffffffffffffffffffffffffffffffffff1916600160a060020a0395909516949094179093555050505050565b8060008060405160200180807f76616c696461746f72436f756e74000000000000000000000000000000000000815250600e0190506040516020818303038152906040526040518082805190602001908083835b6020831061129f5780518252601f199092019160209182019101611280565b51815160209384036101000a600019018019909216911617905260408051929094018290039091208652850195909552929092016000209390935550505050565b60016004600060405160200180807f6973496e697469616c697a656400000000000000000000000000000000000000815250600d0190506040516020818303038152906040526040518082805190602001908083835b602083106113555780518252601f199092019160209182019101611336565b51815160209384036101000a60001901801990921691161790526040805192909401829003909120865285019590955292909201600020805460ff191694151594909417909355505050565b6002600083836040516020018083805190602001908083835b602083106113d95780518252601f1990920191602091820191016113ba565b6001836020036101000a03801982511681845116808217855250505050505090500182600160a060020a0316600160a060020a03166c01000000000000000000000000028152601401925050506040516020818303038152906040526040518082805190602001908083835b602083106114645780518252601f199092019160209182019101611445565b51815160209384036101000a60001901801990921691161790526040805192909401829003909120865285019590955292909201600020805473ffffffffffffffffffffffffffffffffffffffff191690555050505050565b6000828211156114c957fe5b50900390565b81810182811015610e2a57fe00a165627a7a723058205fcabe9c90a90332835ef7deacf0880d0a41827c47596cf547fd10b1a0c11c760029",
  "source": "pragma solidity 0.4.24;\n\nimport \"./BaseBridgeValidators.sol\";\n\ncontract BridgeValidators is BaseBridgeValidators {\n    function initialize(uint256 _requiredSignatures, address[] _initialValidators, address _owner)\n        external\n        returns (bool)\n    {\n        require(!isInitialized());\n        require(_owner != address(0));\n        setOwner(_owner);\n        require(_requiredSignatures != 0);\n        require(_initialValidators.length >= _requiredSignatures);\n        require(_initialValidators.length <= MAX_VALIDATORS);\n\n        for (uint256 i = 0; i < _initialValidators.length; i++) {\n            require(_initialValidators[i] != address(0) && _initialValidators[i] != F_ADDR);\n            require(!isValidator(_initialValidators[i]));\n\n            if (i == 0) {\n                setNextValidator(F_ADDR, _initialValidators[i]);\n                if (_initialValidators.length == 1) {\n                    setNextValidator(_initialValidators[i], F_ADDR);\n                }\n            } else if (i == _initialValidators.length - 1) {\n                setNextValidator(_initialValidators[i - 1], _initialValidators[i]);\n                setNextValidator(_initialValidators[i], F_ADDR);\n            } else {\n                setNextValidator(_initialValidators[i - 1], _initialValidators[i]);\n            }\n\n            emit ValidatorAdded(_initialValidators[i]);\n        }\n\n        setValidatorCount(_initialValidators.length);\n        uintStorage[REQUIRED_SIGNATURES] = _requiredSignatures;\n        uintStorage[DEPLOYED_AT_BLOCK] = block.number;\n        setInitialize();\n        emit RequiredSignaturesChanged(_requiredSignatures);\n\n        return isInitialized();\n    }\n\n    function addValidator(address _validator) external onlyOwner {\n        _addValidator(_validator);\n        emit ValidatorAdded(_validator);\n    }\n\n    function removeValidator(address _validator) external onlyOwner {\n        _removeValidator(_validator);\n        emit ValidatorRemoved(_validator);\n    }\n}\n",
  "sourcePath": "/contracts/contracts/upgradeable_contracts/BridgeValidators.sol",
  "compiler": {
    "name": "solc",
    "version": "0.4.24+commit.e67f0147.Emscripten.clang"
  },
  "schemaVersion": "3.0.9",
  "updatedAt": "2019-09-30T13:18:39.274Z",
  "devdoc": {
    "methods": {
      "owner()": {
        "details": "Tells the address of the owner",
        "return": "the address of the owner"
      },
      "transferOwnership(address)": {
        "details": "Allows the current owner to transfer control of the contract to a newOwner.",
        "params": {
          "newOwner": "the address to transfer ownership to."
        }
      }
    }
  },
  "userdoc": {
    "methods": {}
  }
}