{
  "contractName": "ClassicHomeBridgeNativeToErc",
  "abi": [
    {
      "constant": true,
      "inputs": [
        {
          "name": "_message",
          "type": "bytes32"
        }
      ],
      "name": "numMessagesSigned",
      "outputs": [
        {
          "name": "",
          "type": "uint256"
        }
      ],
      "payable": false,
      "stateMutability": "view",
      "type": "function"
    },
    {
      "constant": true,
      "inputs": [
        {
          "name": "_hash",
          "type": "bytes32"
        },
        {
          "name": "_index",
          "type": "uint256"
        }
      ],
      "name": "signature",
      "outputs": [
        {
          "name": "",
          "type": "bytes"
        }
      ],
      "payable": false,
      "stateMutability": "view",
      "type": "function"
    },
    {
      "constant": false,
      "inputs": [
        {
          "name": "_fee",
          "type": "uint256"
        }
      ],
      "name": "setForeignFee",
      "outputs": [],
      "payable": false,
      "stateMutability": "nonpayable",
      "type": "function"
    },
    {
      "constant": true,
      "inputs": [
        {
          "name": "_day",
          "type": "uint256"
        }
      ],
      "name": "totalSpentPerDay",
      "outputs": [
        {
          "name": "",
          "type": "uint256"
        }
      ],
      "payable": false,
      "stateMutability": "view",
      "type": "function"
    },
    {
      "constant": false,
      "inputs": [
        {
          "name": "_fee",
          "type": "uint256"
        }
      ],
      "name": "setHomeFee",
      "outputs": [],
      "payable": false,
      "stateMutability": "nonpayable",
      "type": "function"
    },
    {
      "constant": true,
      "inputs": [],
      "name": "isInitialized",
      "outputs": [
        {
          "name": "",
          "type": "bool"
        }
      ],
      "payable": false,
      "stateMutability": "view",
      "type": "function"
    },
    {
      "constant": false,
      "inputs": [
        {
          "name": "_validatorContract",
          "type": "address"
        },
        {
          "name": "_dailyLimitMaxPerTxMinPerTxArray",
          "type": "uint256[]"
        },
        {
          "name": "_homeGasPrice",
          "type": "uint256"
        },
        {
          "name": "_requiredBlockConfirmations",
          "type": "uint256"
        },
        {
          "name": "_foreignDailyLimitForeignMaxPerTxArray",
          "type": "uint256[]"
        },
        {
          "name": "_owner",
          "type": "address"
        },
        {
          "name": "_feeManager",
          "type": "address"
        },
        {
          "name": "_homeFeeForeignFeeArray",
          "type": "uint256[]"
        },
        {
          "name": "_decimalShift",
          "type": "uint256"
        }
      ],
      "name": "rewardableInitialize",
      "outputs": [
        {
          "name": "",
          "type": "bool"
        }
      ],
      "payable": false,
      "stateMutability": "nonpayable",
      "type": "function"
    },
    {
      "constant": false,
      "inputs": [
        {
          "name": "_dailyLimit",
          "type": "uint256"
        }
      ],
      "name": "setExecutionDailyLimit",
      "outputs": [],
      "payable": false,
      "stateMutability": "nonpayable",
      "type": "function"
    },
    {
      "constant": true,
      "inputs": [],
      "name": "getCurrentDay",
      "outputs": [
        {
          "name": "",
          "type": "uint256"
        }
      ],
      "payable": false,
      "stateMutability": "view",
      "type": "function"
    },
    {
      "constant": true,
      "inputs": [],
      "name": "requiredBlockConfirmations",
      "outputs": [
        {
          "name": "",
          "type": "uint256"
        }
      ],
      "payable": false,
      "stateMutability": "view",
      "type": "function"
    },
    {
      "constant": true,
      "inputs": [],
      "name": "requiredMessageLength",
      "outputs": [
        {
          "name": "",
          "type": "uint256"
        }
      ],
      "payable": false,
      "stateMutability": "pure",
      "type": "function"
    },
    {
      "constant": true,
      "inputs": [],
      "name": "getBridgeMode",
      "outputs": [
        {
          "name": "_data",
          "type": "bytes4"
        }
      ],
      "payable": false,
      "stateMutability": "pure",
      "type": "function"
    },
    {
      "constant": true,
      "inputs": [],
      "name": "executionDailyLimit",
      "outputs": [
        {
          "name": "",
          "type": "uint256"
        }
      ],
      "payable": false,
      "stateMutability": "view",
      "type": "function"
    },
    {
      "constant": true,
      "inputs": [
        {
          "name": "_hash",
          "type": "bytes32"
        }
      ],
      "name": "message",
      "outputs": [
        {
          "name": "",
          "type": "bytes"
        }
      ],
      "payable": false,
      "stateMutability": "view",
      "type": "function"
    },
    {
      "constant": true,
      "inputs": [
        {
          "name": "_day",
          "type": "uint256"
        }
      ],
      "name": "totalExecutedPerDay",
      "outputs": [
        {
          "name": "",
          "type": "uint256"
        }
      ],
      "payable": false,
      "stateMutability": "view",
      "type": "function"
    },
    {
      "constant": false,
      "inputs": [
        {
          "name": "_feeManager",
          "type": "address"
        }
      ],
      "name": "setFeeManagerContract",
      "outputs": [],
      "payable": false,
      "stateMutability": "nonpayable",
      "type": "function"
    },
    {
      "constant": false,
      "inputs": [
        {
          "name": "signature",
          "type": "bytes"
        },
        {
          "name": "message",
          "type": "bytes"
        }
      ],
      "name": "submitSignature",
      "outputs": [],
      "payable": false,
      "stateMutability": "nonpayable",
      "type": "function"
    },
    {
      "constant": true,
      "inputs": [],
      "name": "dailyLimit",
      "outputs": [
        {
          "name": "",
          "type": "uint256"
        }
      ],
      "payable": false,
      "stateMutability": "view",
      "type": "function"
    },
    {
      "constant": false,
      "inputs": [
        {
          "name": "_token",
          "type": "address"
        },
        {
          "name": "_to",
          "type": "address"
        }
      ],
      "name": "claimTokens",
      "outputs": [],
      "payable": false,
      "stateMutability": "nonpayable",
      "type": "function"
    },
    {
      "constant": true,
      "inputs": [
        {
          "name": "_withdrawal",
          "type": "bytes32"
        }
      ],
      "name": "numAffirmationsSigned",
      "outputs": [
        {
          "name": "",
          "type": "uint256"
        }
      ],
      "payable": false,
      "stateMutability": "view",
      "type": "function"
    },
    {
      "constant": true,
      "inputs": [
        {
          "name": "_withdrawal",
          "type": "bytes32"
        }
      ],
      "name": "affirmationsSigned",
      "outputs": [
        {
          "name": "",
          "type": "bool"
        }
      ],
      "payable": false,
      "stateMutability": "view",
      "type": "function"
    },
    {
      "constant": true,
      "inputs": [
        {
          "name": "_amount",
          "type": "uint256"
        }
      ],
      "name": "withinExecutionLimit",
      "outputs": [
        {
          "name": "",
          "type": "bool"
        }
      ],
      "payable": false,
      "stateMutability": "view",
      "type": "function"
    },
    {
      "constant": true,
      "inputs": [],
      "name": "executionMaxPerTx",
      "outputs": [
        {
          "name": "",
          "type": "uint256"
        }
      ],
      "payable": false,
      "stateMutability": "view",
      "type": "function"
    },
    {
      "constant": true,
      "inputs": [],
      "name": "requiredSignatures",
      "outputs": [
        {
          "name": "",
          "type": "uint256"
        }
      ],
      "payable": false,
      "stateMutability": "view",
      "type": "function"
    },
    {
      "constant": false,
      "inputs": [
        {
          "name": "_validatorContract",
          "type": "address"
        },
        {
          "name": "_dailyLimitMaxPerTxMinPerTxArray",
          "type": "uint256[]"
        },
        {
          "name": "_homeGasPrice",
          "type": "uint256"
        },
        {
          "name": "_requiredBlockConfirmations",
          "type": "uint256"
        },
        {
          "name": "_foreignDailyLimitForeignMaxPerTxArray",
          "type": "uint256[]"
        },
        {
          "name": "_owner",
          "type": "address"
        },
        {
          "name": "_decimalShift",
          "type": "uint256"
        }
      ],
      "name": "initialize",
      "outputs": [
        {
          "name": "",
          "type": "bool"
        }
      ],
      "payable": false,
      "stateMutability": "nonpayable",
      "type": "function"
    },
    {
      "constant": true,
      "inputs": [],
      "name": "owner",
      "outputs": [
        {
          "name": "",
          "type": "address"
        }
      ],
      "payable": false,
      "stateMutability": "view",
      "type": "function"
    },
    {
      "constant": true,
      "inputs": [
        {
          "name": "_message",
          "type": "bytes32"
        }
      ],
      "name": "messagesSigned",
      "outputs": [
        {
          "name": "",
          "type": "bool"
        }
      ],
      "payable": false,
      "stateMutability": "view",
      "type": "function"
    },
    {
      "constant": true,
      "inputs": [],
      "name": "getHomeFee",
      "outputs": [
        {
          "name": "",
          "type": "uint256"
        }
      ],
      "payable": false,
      "stateMutability": "view",
      "type": "function"
    },
    {
      "constant": true,
      "inputs": [],
      "name": "validatorContract",
      "outputs": [
        {
          "name": "",
          "type": "address"
        }
      ],
      "payable": false,
      "stateMutability": "view",
      "type": "function"
    },
    {
      "constant": false,
      "inputs": [
        {
          "name": "recipient",
          "type": "address"
        },
        {
          "name": "value",
          "type": "uint256"
        },
        {
          "name": "transactionHash",
          "type": "bytes32"
        }
      ],
      "name": "executeAffirmation",
      "outputs": [],
      "payable": false,
      "stateMutability": "nonpayable",
      "type": "function"
    },
    {
      "constant": true,
      "inputs": [],
      "name": "deployedAtBlock",
      "outputs": [
        {
          "name": "",
          "type": "uint256"
        }
      ],
      "payable": false,
      "stateMutability": "view",
      "type": "function"
    },
    {
      "constant": true,
      "inputs": [],
      "name": "getBridgeInterfacesVersion",
      "outputs": [
        {
          "name": "major",
          "type": "uint64"
        },
        {
          "name": "minor",
          "type": "uint64"
        },
        {
          "name": "patch",
          "type": "uint64"
        }
      ],
      "payable": false,
      "stateMutability": "pure",
      "type": "function"
    },
    {
      "constant": false,
      "inputs": [
        {
          "name": "_minPerTx",
          "type": "uint256"
        }
      ],
      "name": "setMinPerTx",
      "outputs": [],
      "payable": false,
      "stateMutability": "nonpayable",
      "type": "function"
    },
    {
      "constant": false,
      "inputs": [
        {
          "name": "_blockConfirmations",
          "type": "uint256"
        }
      ],
      "name": "setRequiredBlockConfirmations",
      "outputs": [],
      "payable": false,
      "stateMutability": "nonpayable",
      "type": "function"
    },
    {
      "constant": false,
      "inputs": [
        {
          "name": "_dailyLimit",
          "type": "uint256"
        }
      ],
      "name": "setDailyLimit",
      "outputs": [],
      "payable": false,
      "stateMutability": "nonpayable",
      "type": "function"
    },
    {
      "constant": false,
      "inputs": [
        {
          "name": "_gasPrice",
          "type": "uint256"
        }
      ],
      "name": "setGasPrice",
      "outputs": [],
      "payable": false,
      "stateMutability": "nonpayable",
      "type": "function"
    },
    {
      "constant": false,
      "inputs": [
        {
          "name": "_maxPerTx",
          "type": "uint256"
        }
      ],
      "name": "setMaxPerTx",
      "outputs": [],
      "payable": false,
      "stateMutability": "nonpayable",
      "type": "function"
    },
    {
      "constant": true,
      "inputs": [],
      "name": "decimalShift",
      "outputs": [
        {
          "name": "",
          "type": "uint256"
        }
      ],
      "payable": false,
      "stateMutability": "view",
      "type": "function"
    },
    {
      "constant": true,
      "inputs": [],
      "name": "feeManagerContract",
      "outputs": [
        {
          "name": "",
          "type": "address"
        }
      ],
      "payable": false,
      "stateMutability": "view",
      "type": "function"
    },
    {
      "constant": true,
      "inputs": [],
      "name": "minPerTx",
      "outputs": [
        {
          "name": "",
          "type": "uint256"
        }
      ],
      "payable": false,
      "stateMutability": "view",
      "type": "function"
    },
    {
      "constant": true,
      "inputs": [
        {
          "name": "_amount",
          "type": "uint256"
        }
      ],
      "name": "withinLimit",
      "outputs": [
        {
          "name": "",
          "type": "bool"
        }
      ],
      "payable": false,
      "stateMutability": "view",
      "type": "function"
    },
    {
      "constant": false,
      "inputs": [
        {
          "name": "_maxPerTx",
          "type": "uint256"
        }
      ],
      "name": "setExecutionMaxPerTx",
      "outputs": [],
      "payable": false,
      "stateMutability": "nonpayable",
      "type": "function"
    },
    {
      "constant": true,
      "inputs": [],
      "name": "getFeeManagerMode",
      "outputs": [
        {
          "name": "",
          "type": "bytes4"
        }
      ],
      "payable": false,
      "stateMutability": "view",
      "type": "function"
    },
    {
      "constant": false,
      "inputs": [
        {
          "name": "newOwner",
          "type": "address"
        }
      ],
      "name": "transferOwnership",
      "outputs": [],
      "payable": false,
      "stateMutability": "nonpayable",
      "type": "function"
    },
    {
      "constant": true,
      "inputs": [],
      "name": "maxPerTx",
      "outputs": [
        {
          "name": "",
          "type": "uint256"
        }
      ],
      "payable": false,
      "stateMutability": "view",
      "type": "function"
    },
    {
      "constant": true,
      "inputs": [],
      "name": "gasPrice",
      "outputs": [
        {
          "name": "",
          "type": "uint256"
        }
      ],
      "payable": false,
      "stateMutability": "view",
      "type": "function"
    },
    {
      "constant": true,
      "inputs": [
        {
          "name": "_number",
          "type": "uint256"
        }
      ],
      "name": "isAlreadyProcessed",
      "outputs": [
        {
          "name": "",
          "type": "bool"
        }
      ],
      "payable": false,
      "stateMutability": "pure",
      "type": "function"
    },
    {
      "constant": true,
      "inputs": [],
      "name": "getForeignFee",
      "outputs": [
        {
          "name": "",
          "type": "uint256"
        }
      ],
      "payable": false,
      "stateMutability": "view",
      "type": "function"
    },
    {
      "payable": true,
      "stateMutability": "payable",
      "type": "fallback"
    },
    {
      "anonymous": false,
      "inputs": [
        {
          "indexed": false,
          "name": "feeAmount",
          "type": "uint256"
        },
        {
          "indexed": true,
          "name": "transactionHash",
          "type": "bytes32"
        }
      ],
      "name": "FeeDistributedFromAffirmation",
      "type": "event"
    },
    {
      "anonymous": false,
      "inputs": [
        {
          "indexed": false,
          "name": "feeAmount",
          "type": "uint256"
        },
        {
          "indexed": true,
          "name": "transactionHash",
          "type": "bytes32"
        }
      ],
      "name": "FeeDistributedFromSignatures",
      "type": "event"
    },
    {
      "anonymous": false,
      "inputs": [
        {
          "indexed": false,
          "name": "recipient",
          "type": "address"
        },
        {
          "indexed": false,
          "name": "value",
          "type": "uint256"
        }
      ],
      "name": "UserRequestForSignature",
      "type": "event"
    },
    {
      "anonymous": false,
      "inputs": [
        {
          "indexed": false,
          "name": "recipient",
          "type": "address"
        },
        {
          "indexed": false,
          "name": "value",
          "type": "uint256"
        },
        {
          "indexed": false,
          "name": "transactionHash",
          "type": "bytes32"
        }
      ],
      "name": "AffirmationCompleted",
      "type": "event"
    },
    {
      "anonymous": false,
      "inputs": [
        {
          "indexed": true,
          "name": "signer",
          "type": "address"
        },
        {
          "indexed": false,
          "name": "messageHash",
          "type": "bytes32"
        }
      ],
      "name": "SignedForUserRequest",
      "type": "event"
    },
    {
      "anonymous": false,
      "inputs": [
        {
          "indexed": true,
          "name": "signer",
          "type": "address"
        },
        {
          "indexed": false,
          "name": "transactionHash",
          "type": "bytes32"
        }
      ],
      "name": "SignedForAffirmation",
      "type": "event"
    },
    {
      "anonymous": false,
      "inputs": [
        {
          "indexed": false,
          "name": "authorityResponsibleForRelay",
          "type": "address"
        },
        {
          "indexed": false,
          "name": "messageHash",
          "type": "bytes32"
        },
        {
          "indexed": false,
          "name": "NumberOfCollectedSignatures",
          "type": "uint256"
        }
      ],
      "name": "CollectedSignatures",
      "type": "event"
    },
    {
      "anonymous": false,
      "inputs": [
        {
          "indexed": false,
          "name": "newLimit",
          "type": "uint256"
        }
      ],
      "name": "DailyLimitChanged",
      "type": "event"
    },
    {
      "anonymous": false,
      "inputs": [
        {
          "indexed": false,
          "name": "newLimit",
          "type": "uint256"
        }
      ],
      "name": "ExecutionDailyLimitChanged",
      "type": "event"
    },
    {
      "anonymous": false,
      "inputs": [
        {
          "indexed": false,
          "name": "gasPrice",
          "type": "uint256"
        }
      ],
      "name": "GasPriceChanged",
      "type": "event"
    },
    {
      "anonymous": false,
      "inputs": [
        {
          "indexed": false,
          "name": "requiredBlockConfirmations",
          "type": "uint256"
        }
      ],
      "name": "RequiredBlockConfirmationChanged",
      "type": "event"
    },
    {
      "anonymous": false,
      "inputs": [
        {
          "indexed": false,
          "name": "previousOwner",
          "type": "address"
        },
        {
          "indexed": false,
          "name": "newOwner",
          "type": "address"
        }
      ],
      "name": "OwnershipTransferred",
      "type": "event"
    }
  ],
  "bytecode": "0x608060405234801561001057600080fd5b50615032806100206000396000f30060806040526004361061022c5763ffffffff60e060020a6000350416630cbf060181146102365780631812d99614610260578063286c4066146102f05780632bd0bb051461030857806334a9e14814610320578063392e53cd146103385780633b459a45146103615780633dd95d1b146103bf5780633e6968b6146103d75780633f0a9f65146103ec578063408fef2e14610401578063437764df1461041657806343b37dd314610448578063490a32c61461045d5780634fb3fef71461047557806360756f7c1461048d578063630cea8e146104ae57806367eeba0c146104da57806369ffa08a146104ef5780636ae1a976146105165780637698da241461052e578063879ce676146105465780638aa1949a1461055e5780638d068043146105735780638d4116ce146105885780638da5cb5b146105d35780638f4b4b981461060457806394da17cd1461061c5780639943908914610631578063995b2cff146106465780639a454b991461066d5780639cb7595a14610682578063a2a6ca27146106c3578063acf5c689146106db578063b20d30a9146106f3578063bf1fe4201461070b578063c6f6f21614610723578063dae5f0fd1461073b578063dbe03a8b14610750578063df25f3f014610765578063ea9f49681461077a578063f20151e114610792578063f2ba9561146107aa578063f2fde38b146107bf578063f968adbe146107e0578063fe173b97146107f5578063ffd19e8c1461080a578063ffd6619614610822575b610234610837565b005b34801561024257600080fd5b5061024e60043561099d565b60408051918252519081900360200190f35b34801561026c57600080fd5b5061027b600435602435610a62565b6040805160208082528351818301528351919283929083019185019080838360005b838110156102b557818101518382015260200161029d565b50505050905090810190601f1680156102e25780820380516001836020036101000a031916815260200191505b509250505060405180910390f35b3480156102fc57600080fd5b50610234600435610c3f565b34801561031457600080fd5b5061024e600435610cf9565b34801561032c57600080fd5b50610234600435610d74565b34801561034457600080fd5b5061034d610df8565b604080519115158252519081900360200190f35b34801561036d57600080fd5b5061034d60048035600160a060020a039081169160248035808201939083013592604435926064359260843580830193908101359260a43583169260c435169160e43591820191013561010435610eb1565b3480156103cb57600080fd5b5061023460043561111b565b3480156103e357600080fd5b5061024e61123b565b3480156103f857600080fd5b5061024e611244565b34801561040d57600080fd5b5061024e6112f8565b34801561042257600080fd5b5061042b611307565b60408051600160e060020a03199092168252519081900360200190f35b34801561045457600080fd5b5061024e6113aa565b34801561046957600080fd5b5061027b60043561141d565b34801561048157600080fd5b5061024e600435611585565b34801561049957600080fd5b50610234600160a060020a0360043516611600565b3480156104ba57600080fd5b50610234602460048035828101929082013591813591820191013561171e565b3480156104e657600080fd5b5061024e611bb4565b3480156104fb57600080fd5b50610234600160a060020a0360043581169060243516611c27565b34801561052257600080fd5b5061024e600435611cca565b34801561053a57600080fd5b5061034d600435611d4d565b34801561055257600080fd5b5061034d600435611e16565b34801561056a57600080fd5b5061024e611e54565b34801561057f57600080fd5b5061024e611ec7565b34801561059457600080fd5b5061034d600160a060020a0360048035821691602480358082019390810135926044359260643592608435918201929101359060a4351660c435611f3f565b3480156105df57600080fd5b506105e8611fcc565b60408051600160a060020a039092168252519081900360200190f35b34801561061057600080fd5b5061034d60043561208a565b34801561062857600080fd5b5061024e61210e565b34801561063d57600080fd5b506105e86121a2565b34801561065257600080fd5b50610234600160a060020a0360043516602435604435612216565b34801561067957600080fd5b5061024e612510565b34801561068e57600080fd5b50610697612583565b6040805167ffffffffffffffff9485168152928416602084015292168183015290519081900360600190f35b3480156106cf57600080fd5b5061023460043561258e565b3480156106e757600080fd5b50610234600435612685565b3480156106ff57600080fd5b50610234600435612794565b34801561071757600080fd5b506102346004356128b4565b34801561072f57600080fd5b506102346004356129c3565b34801561074757600080fd5b5061024e612a64565b34801561075c57600080fd5b506105e8612ad7565b34801561077157600080fd5b5061024e612b4b565b34801561078657600080fd5b5061034d600435612bbe565b34801561079e57600080fd5b50610234600435612c09565b3480156107b657600080fd5b5061042b612caa565b3480156107cb57600080fd5b50610234600160a060020a0360043516612d2b565b3480156107ec57600080fd5b5061024e612d65565b34801561080157600080fd5b5061024e612dd8565b34801561081657600080fd5b5061034d600435612e4b565b34801561082e57600080fd5b5061024e612e73565b6000808034811061084757600080fd5b361561085257600080fd5b61085b34612bbe565b151561086657600080fd5b61089661087161123b565b6108913461088561088061123b565b610cf9565b9063ffffffff612ed416565b612ee7565b3492506108a1612ad7565b9150600160a060020a0382161561095d57610948836000846040516020018080600080516020614fe783398151915281525060080190506040516020818303038152906040526040518082805190602001908083835b602083106109165780518252601f1990920191602091820191016108f7565b6001836020036101000a0380198251168184511680821785525050505050509050019150506040518091039020612fa4565b905061095a838263ffffffff61302f16565b92505b604080513381526020810185905281517f127650bcfb0ba017401abe4931453a405140a8fd36fece67bae2db174d3fdd63929181900390910190a1505050565b60008060008360405160200180807f6e756d4d657373616765735369676e656400000000000000000000000000000081525060110182600019166000191681526020019150506040516020818303038152906040526040518082805190602001908083835b60208310610a215780518252601f199092019160209182019101610a02565b51815160209384036101000a600019018019909216911617905260408051929094018290039091208652850195909552929092016000205495945050505050565b604080516020808201859052818301849052825180830384018152606092830193849052805192936000939192909182918401908083835b60208310610ab95780518252601f199092019160209182019101610a9a565b51815160209384036101000a6000190180199092169116179052604080519290940182900382207f7369676e6174757265730000000000000000000000000000000000000000000083830152602a80840182905285518085039091018152604a9093019485905282519097506003965060009550919392508291908401908083835b60208310610b5a5780518252601f199092019160209182019101610b3b565b6001836020036101000a0380198251168184511680821785525050505050509050019150506040518091039020600019166000191681526020019081526020016000208054600181600116156101000203166002900480601f016020809104026020016040519081016040528092919081815260200182805460018160011615610100020316600290048015610c315780601f10610c0657610100808354040283529160200191610c31565b820191906000526020600020905b815481529060010190602001808311610c1457829003601f168201915b505050505091505092915050565b610c47611fcc565b600160a060020a03163314610c5b57600080fd5b610cf6610c66612ad7565b826040516020018080600080516020614fc7833981519152815250600b0190506040516020818303038152906040526040518082805190602001908083835b60208310610cc45780518252601f199092019160209182019101610ca5565b6001836020036101000a0380198251168184511680821785525050505050509050019150506040518091039020613041565b50565b60008060008360405160200180807f746f74616c5370656e745065724461790000000000000000000000000000000081525060100182815260200191505060405160208183030381529060405260405180828051906020019080838360208310610a215780518252601f199092019160209182019101610a02565b610d7c611fcc565b600160a060020a03163314610d9057600080fd5b610cf6610d9b612ad7565b826040516020018080600080516020614fe7833981519152815250600801905060405160208183030381529060405260405180828051906020019080838360208310610cc45780518252601f199092019160209182019101610ca5565b60006004600060405160200180807f6973496e697469616c697a656400000000000000000000000000000000000000815250600d0190506040516020818303038152906040526040518082805190602001908083835b60208310610e6d5780518252601f199092019160209182019101610e4e565b51815160209384036101000a600019018019909216911617905260408051929094018290039091208652850195909552929092016000205460ff1693505050505b90565b6000610f208d8d8d808060200260200160405190810160405280939291908181526020018383602002808284378201915050505050508c8c8c8c808060200260200160405190810160405280939291908181526020018383602002808284378201915050505050508b886131de565b610f29856133d3565b1515610f3457600080fd5b846002600060405160200180807f6665654d616e61676572436f6e7472616374000000000000000000000000000081525060120190506040516020818303038152906040526040518082805190602001908083835b60208310610fa85780518252601f199092019160209182019101610f89565b51815160209384036101000a600019018019909216911617905260408051929094018290039091208652850195909552929092016000908120805473ffffffffffffffffffffffffffffffffffffffff1916600160a060020a0396909616959095179094555061108692889250879150869081811061102357fe5b905060200201356040516020018080600080516020614fe7833981519152815250600801905060405160208183030381529060405260405180828051906020019080838360208310610cc45780518252601f199092019160209182019101610ca5565b6110fa858585600181811061109757fe5b905060200201356040516020018080600080516020614fc7833981519152815250600b01905060405160208183030381529060405260405180828051906020019080838360208310610cc45780518252601f199092019160209182019101610ca5565b6111026133db565b61110a610df8565b9d9c50505050505050505050505050565b611123611fcc565b600160a060020a0316331461113757600080fd5b61113f611e54565b81118061114a575080155b151561115557600080fd5b8060008060405160200180807f657865637574696f6e4461696c794c696d69740000000000000000000000000081525060130190506040516020818303038152906040526040518082805190602001908083835b602083106111c85780518252601f1990920191602091820191016111a9565b51815160001960209485036101000a019081169019919091161790526040805194909201849003909320865285830196909652509284016000209490945550815184815291517f9bebf928b90863f24cc31f726a3a7545efd409f1dcf552301b1ee3710da70d3b9350918290030190a150565b62015180420490565b600080600060405160200180807f7265717569726564426c6f636b436f6e6669726d6174696f6e73000000000000815250601a0190506040516020818303038152906040526040518082805190602001908083835b602083106112b85780518252601f199092019160209182019101611299565b51815160209384036101000a6000190180199092169116179052604080519290940182900390912086528501959095529290920160002054949350505050565b600061130261349c565b905090565b600060405160200180807f6e61746976652d746f2d6572632d636f7265000000000000000000000000000081525060120190506040516020818303038152906040526040518082805190602001908083835b602083106113785780518252601f199092019160209182019101611359565b6001836020036101000a0380198251168184511680821785525050505050509050019150506040518091039020905090565b600080600060405160200180807f657865637574696f6e4461696c794c696d6974000000000000000000000000008152506013019050604051602081830303815290604052604051808280519060200190808383602083106112b85780518252601f199092019160209182019101611299565b6060600360008360405160200180807f6d6573736167657300000000000000000000000000000000000000000000000081525060080182600019166000191681526020019150506040516020818303038152906040526040518082805190602001908083835b602083106114a25780518252601f199092019160209182019101611483565b6001836020036101000a0380198251168184511680821785525050505050509050019150506040518091039020600019166000191681526020019081526020016000208054600181600116156101000203166002900480601f0160208091040260200160405190810160405280929190818152602001828054600181600116156101000203166002900480156115795780601f1061154e57610100808354040283529160200191611579565b820191906000526020600020905b81548152906001019060200180831161155c57829003601f168201915b50505050509050919050565b60008060008360405160200180807f746f74616c45786563757465645065724461790000000000000000000000000081525060130182815260200191505060405160208183030381529060405260405180828051906020019080838360208310610a215780518252601f199092019160209182019101610a02565b611608611fcc565b600160a060020a0316331461161c57600080fd5b600160a060020a03811615806116365750611636816133d3565b151561164157600080fd5b806002600060405160200180807f6665654d616e61676572436f6e7472616374000000000000000000000000000081525060120190506040516020818303038152906040526040518082805190602001908083835b602083106116b55780518252601f199092019160209182019101611696565b51815160209384036101000a60001901801990921691161790526040805192909401829003909120865285019590955292909201600020805473ffffffffffffffffffffffffffffffffffffffff1916600160a060020a03959095169490941790935550505050565b600080600080600061172e6121a2565b600160a060020a031663facd743b336040518263ffffffff1660e060020a0281526004018082600160a060020a0316600160a060020a03168152602001915050602060405180830381600087803b15801561178857600080fd5b505af115801561179c573d6000803e3d6000fd5b505050506040513d60208110156117b257600080fd5b505115156117bf57600080fd5b6117f887878080601f016020809104026020016040519081016040528093929190818152602001838380828437506134a1945050505050565b151561180357600080fd5b61186d89898080601f0160208091040260200160405190810160405280939291908181526020018383808284375050604080516020601f8f018190048102820181019092528d815294508d93508c9250829150840183828082843750600094506134b59350505050565b600160a060020a0316331461188157600080fd5b8686604051602001808383808284378201915050925050506040516020818303038152906040526040518082805190602001908083835b602083106118d75780518252601f1990920191602091820191016118b8565b51815160209384036101000a600019018019909216911617905260408051929094018290038220336c0100000000000000000000000002838301526034808401829052855180850390910181526054909301948590528251909b509195509293508392850191508083835b602083106119615780518252601f199092019160209182019101611942565b6001836020036101000a038019825116818451168082178552505050505050905001915050604051809103902093506119998561099d565b92506119a483612e4b565b156119ae57600080fd5b6001928301928311156119d3576119c48461208a565b156119ce57600080fd5b611a0d565b611a0d8588888080601f01602080910402602001604051908101604052809392919081815260200183838082843750613577945050505050565b611a18846001613649565b604080516020808201889052600019860182840152825180830384018152606090920192839052815191929182918401908083835b60208310611a6c5780518252601f199092019160209182019101611a4d565b51815160209384036101000a600019018019909216911617905260408051929094018290038220601f8f018290048202830182019094528d8252929650611acd9450869350918d91508c90819084018382808284375061371b945050505050565b611ad7858461379e565b60408051868152905133917fbf06885f40778f5ccfb64497d3f92ce568ddaedb7e2fb4487f72690418cf8e4c919081900360200190a2611b15611ec7565b9050808310611ba957611b3085611b2b85613820565b61379e565b604080513381526020810187905280820183905290517f415557404d88a0c0b8e3b16967cafffc511213fd9c465c16832ee17ed57d72379181900360600190a1611ba987878080601f01602080910402602001604051908101604052809392919081815260200183838082843750613845945050505050565b505050505050505050565b600080600060405160200180807f6461696c794c696d697400000000000000000000000000000000000000000000815250600a019050604051602081830303815290604052604051808280519060200190808383602083106112b85780518252601f199092019160209182019101611299565b30600160a060020a0316636fde82026040518163ffffffff1660e060020a028152600401602060405180830381600087803b158015611c6557600080fd5b505af1158015611c79573d6000803e3d6000fd5b505050506040513d6020811015611c8f57600080fd5b5051600160a060020a03163314611ca557600080fd5b80600160a060020a0381161515611cbb57600080fd5b611cc583836138ff565b505050565b60008060008360405160200180807f6e756d41666669726d6174696f6e735369676e65640000000000000000000000815250601501826000191660001916815260200191505060405160208183030381529060405260405180828051906020019080838360208310610a215780518252601f199092019160209182019101610a02565b6000600460008360405160200180807f61666669726d6174696f6e735369676e6564000000000000000000000000000081525060120182600019166000191681526020019150506040516020818303038152906040526040518082805190602001908083835b60208310611dd25780518252601f199092019160209182019101611db3565b51815160209384036101000a600019018019909216911617905260408051929094018290039091208652850195909552929092016000205460ff1695945050505050565b600080611e2d83610885611e2861123b565b611585565b905080611e386113aa565b10158015611e4d5750611e49611e54565b8311155b9392505050565b600080600060405160200180807f657865637574696f6e4d617850657254780000000000000000000000000000008152506011019050604051602081830303815290604052604051808280519060200190808383602083106112b85780518252601f199092019160209182019101611299565b6000611ed16121a2565b600160a060020a0316638d0680436040518163ffffffff1660e060020a028152600401602060405180830381600087803b158015611f0e57600080fd5b505af1158015611f22573d6000803e3d6000fd5b505050506040513d6020811015611f3857600080fd5b5051905090565b6000611fae8a8a8a80806020026020016040519081016040528093929190818152602001838360200280828437820191505050505050898989898080602002602001604051908101604052809392919081815260200183836020028082843782019150505050505088886131de565b611fb66133db565b611fbe610df8565b9a9950505050505050505050565b60006002600060405160200180807f6f776e657200000000000000000000000000000000000000000000000000000081525060050190506040516020818303038152906040526040518082805190602001908083835b602083106120415780518252601f199092019160209182019101612022565b51815160209384036101000a6000190180199092169116179052604080519290940182900390912086528501959095529290920160002054600160a060020a0316949350505050565b6000600460008360405160200180807f6d657373616765735369676e6564000000000000000000000000000000000000815250600e01826000191660001916815260200191505060405160208183030381529060405260405180828051906020019080838360208310611dd25780518252601f199092019160209182019101611db3565b60006113026040516020018080600080516020614fe783398151915281525060080190506040516020818303038152906040526040518082805190602001908083835b602083106121705780518252601f199092019160209182019101612151565b6001836020036101000a038019825116818451168082178552505050505050905001915050604051809103902061392b565b60006002600060405160200180807f76616c696461746f72436f6e74726163740000000000000000000000000000008152506011019050604051602081830303815290604052604051808280519060200190808383602083106120415780518252601f199092019160209182019101612022565b60008060006122236121a2565b600160a060020a031663facd743b336040518263ffffffff1660e060020a0281526004018082600160a060020a0316600160a060020a03168152602001915050602060405180830381600087803b15801561227d57600080fd5b505af1158015612291573d6000803e3d6000fd5b505050506040513d60208110156122a757600080fd5b505115156122b457600080fd5b6122bd85611e16565b156124fd57604080516c01000000000000000000000000600160a060020a0389160260208083019190915260348201889052605480830188905283518084039091018152607490920192839052815191929182918401908083835b602083106123375780518252601f199092019160209182019101612318565b51815160209384036101000a600019018019909216911617905260408051929094018290038220336c01000000000000000000000000028383015260348084018290528551808503909101815260549093019485905282519099509195509293508392850191508083835b602083106123c15780518252601f1990920191602091820191016123a2565b6001836020036101000a038019825116818451168082178552505050505050905001915050604051809103902091506123f982611d4d565b1561240357600080fd5b61240e826001613a6e565b61241783611cca565b905061242281612e4b565b1561242c57600080fd5b6001016124398382613af1565b60408051858152905133917f5df9cc3eb93d8a9a481857a3b70a8ca966e6b80b25cf0ee2cce180ec5afa80a1919081900360200190a2612477611ec7565b81106124f85761248f8361248a83613820565b613af1565b60008511156124ae576124a3868686613b73565b15156124ae57600080fd5b60408051600160a060020a03881681526020810187905280820186905290517f6fc115a803b8703117d9a3956c5a15401cb42401f91630f015eb6b043fa762539181900360600190a15b612508565b612508868686612d1c565b505050505050565b600080600060405160200180807f6465706c6f7965644174426c6f636b0000000000000000000000000000000000815250600f019050604051602081830303815290604052604051808280519060200190808383602083106112b85780518252601f199092019160209182019101611299565b600260036000909192565b612596611fcc565b600160a060020a031633146125aa57600080fd5b6125b2611bb4565b811080156125c657506125c3612d65565b81105b15156125d157600080fd5b8060008060405160200180807f6d696e506572547800000000000000000000000000000000000000000000000081525060080190506040516020818303038152906040526040518082805190602001908083835b602083106126445780518252601f199092019160209182019101612625565b51815160209384036101000a600019018019909216911617905260408051929094018290039091208652850195909552929092016000209390935550505050565b61268d611fcc565b600160a060020a031633146126a157600080fd5b600081116126ae57600080fd5b8060008060405160200180807f7265717569726564426c6f636b436f6e6669726d6174696f6e73000000000000815250601a0190506040516020818303038152906040526040518082805190602001908083835b602083106127215780518252601f199092019160209182019101612702565b51815160001960209485036101000a019081169019919091161790526040805194909201849003909320865285830196909652509284016000209490945550815184815291517f4fb76205cd57c896b21511d2114137d8e901b4ccd659e1a0f97d6306795264fb9350918290030190a150565b61279c611fcc565b600160a060020a031633146127b057600080fd5b6127b8612d65565b8111806127c3575080155b15156127ce57600080fd5b8060008060405160200180807f6461696c794c696d697400000000000000000000000000000000000000000000815250600a0190506040516020818303038152906040526040518082805190602001908083835b602083106128415780518252601f199092019160209182019101612822565b51815160001960209485036101000a019081169019919091161790526040805194909201849003909320865285830196909652509284016000209490945550815184815291517fad4123ae17c414d9c6d2fec478b402e6b01856cc250fd01fbfd252fda0089d3c9350918290030190a150565b6128bc611fcc565b600160a060020a031633146128d057600080fd5b600081116128dd57600080fd5b8060008060405160200180807f676173507269636500000000000000000000000000000000000000000000000081525060080190506040516020818303038152906040526040518082805190602001908083835b602083106129505780518252601f199092019160209182019101612931565b51815160001960209485036101000a019081169019919091161790526040805194909201849003909320865285830196909652509284016000209490945550815184815291517f52264b89e0fceafb26e79fd49ef8a366eb6297483bf4035b027f0c99a7ad512e9350918290030190a150565b6129cb611fcc565b600160a060020a031633146129df57600080fd5b6129e7611bb4565b81106129f257600080fd5b8060008060405160200180807f6d617850657254780000000000000000000000000000000000000000000000008152506008019050604051602081830303815290604052604051808280519060200190808383602083106126445780518252601f199092019160209182019101612625565b600080600060405160200180807f646563696d616c53686966740000000000000000000000000000000000000000815250600c019050604051602081830303815290604052604051808280519060200190808383602083106112b85780518252601f199092019160209182019101611299565b60006002600060405160200180807f6665654d616e61676572436f6e747261637400000000000000000000000000008152506012019050604051602081830303815290604052604051808280519060200190808383602083106120415780518252601f199092019160209182019101612022565b600080600060405160200180807f6d696e50657254780000000000000000000000000000000000000000000000008152506008019050604051602081830303815290604052604051808280519060200190808383602083106112b85780518252601f199092019160209182019101611299565b600080612bd08361088561088061123b565b905080612bdb611bb4565b10158015612bf05750612bec612d65565b8311155b8015611e4d5750612bff612b4b565b9092101592915050565b612c11611fcc565b600160a060020a03163314612c2557600080fd5b612c2d6113aa565b8110612c3857600080fd5b8060008060405160200180807f657865637574696f6e4d617850657254780000000000000000000000000000008152506011019050604051602081830303815290604052604051808280519060200190808383602083106126445780518252601f199092019160209182019101612625565b604080516004815260248101909152602081018051600160e060020a03167ff2ba956100000000000000000000000000000000000000000000000000000000179052600090819081612cfa612ad7565b9050600460008351602085016000855af26000519350808015612d1c57612d21565b600080fd5b5092949350505050565b612d33611fcc565b600160a060020a03163314612d4757600080fd5b600160a060020a0381161515612d5c57600080fd5b610cf681613cc3565b600080600060405160200180807f6d617850657254780000000000000000000000000000000000000000000000008152506008019050604051602081830303815290604052604051808280519060200190808383602083106112b85780518252601f199092019160209182019101611299565b600080600060405160200180807f67617350726963650000000000000000000000000000000000000000000000008152506008019050604051602081830303815290604052604051808280519060200190808383602083106112b85780518252601f199092019160209182019101611299565b7f80000000000000000000000000000000000000000000000000000000000000009081161490565b60006113026040516020018080600080516020614fc7833981519152815250600b019050604051602081830303815290604052604051808280519060200190808383602083106121705780518252601f199092019160209182019101612151565b81810182811015612ee157fe5b92915050565b806000808460405160200180807f746f74616c5370656e74506572446179000000000000000000000000000000008152506010018281526020019150506040516020818303038152906040526040518082805190602001908083835b60208310612f625780518252601f199092019160209182019101612f43565b51815160209384036101000a60001901801990921691161790526040805192909401829003909120865285019590955292909201600020939093555050505050565b60408051602481018690528415156044820152606480820184905282518083039091018152608490910190915260208181018051600160e060020a03167f9862f26f000000000000000000000000000000000000000000000000000000001781528251600093849390929091849182895af26000519250808015612d1c575091979650505050505050565b60008282111561303b57fe5b50900390565b60006040516020018080600080516020614fe783398151915281525060080190506040516020818303038152906040526040518082805190602001908083835b602083106130a05780518252601f199092019160209182019101613081565b5181516020939093036101000a60001901801990911692169190911790526040519201829003909120851492506130fa915050577f286c40660000000000000000000000000000000000000000000000000000000061311c565b7f34a9e148000000000000000000000000000000000000000000000000000000005b6040805160248082018790528251808303909101815260449091018252602081018051600160e060020a0316600160e060020a0319851617815291518151939450600160a060020a038816939192909182919080838360005b8381101561318d578181015183820152602001613175565b50505050905090810190601f1680156131ba5780820380516001836020036101000a031916815260200191505b50915050600060405180830381855af491505015156131d857600080fd5b50505050565b6131ed87878787878787613d81565b604080517f7369676e617475726528627974657333322c75696e74323536290000000000008152815190819003601a0181207f6461746153697a65730000000000000000000000000000000000000000000000602080840191909152600160e060020a031990911660298301528251600d818403018152602d9092019283905281516084936000938493909282918401908083835b602083106132a15780518252601f199092019160209182019101613282565b51815160001960209485036101000a01908116901991909116179052604080519490920184900390932086528583019690965250928401600090812095909555505081517f6d65737361676528627974657333322900000000000000000000000000000000815282519081900360100181207f6461746153697a6573000000000000000000000000000000000000000000000082840152600160e060020a03191660298201528251600d818303018152602d90910192839052805160d294938493909182918401908083835b6020831061338c5780518252601f19909201916020918201910161336d565b51815160209384036101000a600019018019909216911617905260408051929094018290039091208652850195909552929092016000209390935550505050505050505050565b6000903b1190565b60016004600060405160200180807f6973496e697469616c697a656400000000000000000000000000000000000000815250600d0190506040516020818303038152906040526040518082805190602001908083835b602083106134505780518252601f199092019160209182019101613431565b51815160209384036101000a60001901801990921691161790526040805192909401829003909120865285019590955292909201600020805460ff191694151594909417909355505050565b606890565b60006134ab61349c565b8251149050919050565b600080600080865160411415156134cb57600080fd5b50505060208401516040850151606086015160016134e98787614736565b60408051600080825260208083018085529490945260ff7f0100000000000000000000000000000000000000000000000000000000000000870416828401526060820188905260808201879052915160a08083019493601f198301938390039091019190865af1158015613561573d6000803e3d6000fd5b5050604051601f19015198975050505050505050565b80600360008460405160200180807f6d6573736167657300000000000000000000000000000000000000000000000081525060080182600019166000191681526020019150506040516020818303038152906040526040518082805190602001908083835b602083106135fb5780518252601f1990920191602091820191016135dc565b51815160001960209485036101000a01908116901991909116179052604080519490920184900390932086528583019690965250929093016000208451611cc5959194509201919050614efe565b80600460008460405160200180807f6d657373616765735369676e6564000000000000000000000000000000000000815250600e0182600019166000191681526020019150506040516020818303038152906040526040518082805190602001908083835b602083106136cd5780518252601f1990920191602091820191016136ae565b51815160209384036101000a60001901801990921691161790526040805192909401829003909120865285019590955292909201600020805460ff1916941515949094179093555050505050565b80600360008460405160200180807f7369676e61747572657300000000000000000000000000000000000000000000815250600a018260001916600019168152602001915050604051602081830303815290604052604051808280519060200190808383602083106135fb5780518252601f1990920191602091820191016135dc565b806000808460405160200180807f6e756d4d657373616765735369676e6564000000000000000000000000000000815250601101826000191660001916815260200191505060405160208183030381529060405260405180828051906020019080838360208310612f625780518252601f199092019160209182019101612f43565b7f80000000000000000000000000000000000000000000000000000000000000001790565b600080600080600080613856612ad7565b9550600160a060020a038616156138f65761387087614950565b809550819650829750839850505050506138e3846001886040516020018080600080516020614fe78339815191528152506008019050604051602081830303815290604052604051808280519060200190808383602083106109165780518252601f1990920191602091820191016108f7565b905080156138f6576138f681878561498b565b50505050505050565b600160a060020a038216151561391d5761391881614a90565b613927565b6139278282614afb565b5050565b600080600080606061393b612ad7565b92506040516020018080600080516020614fe783398151915281525060080190506040516020818303038152906040526040518082805190602001908083835b6020831061399a5780518252601f19909201916020918201910161397b565b5181516020939093036101000a60001901801990911692169190911790526040519201829003909120891492506139f4915050577fffd6619600000000000000000000000000000000000000000000000000000000613a16565b7f94da17cd000000000000000000000000000000000000000000000000000000005b60408051600481526024810190915260208082018051600160e060020a0316600160e060020a0319851617815282519395509193509160009182875af26000519450808015612d1c5750508394505b50505050919050565b80600460008460405160200180807f61666669726d6174696f6e735369676e656400000000000000000000000000008152506012018260001916600019168152602001915050604051602081830303815290604052604051808280519060200190808383602083106136cd5780518252601f1990920191602091820191016136ae565b806000808460405160200180807f6e756d41666669726d6174696f6e735369676e65640000000000000000000000815250601501826000191660001916815260200191505060405160208183030381529060405260405180828051906020019080838360208310612f625780518252601f199092019160209182019101612f43565b600080600080613b98613b8461123b565b613b9388610885611e2861123b565b614b99565b613bb3613ba3612a64565b8790600a0a63ffffffff614c1316565b9250613bbd612ad7565b9150600160a060020a03821615613c5157613c31836000846040516020018080600080516020614fc7833981519152815250600b019050604051602081830303815290604052604051808280519060200190808383602083106109165780518252601f1990920191602091820191016108f7565b9050613c3e818387614c3c565b613c4e838263ffffffff61302f16565b92505b604051600160a060020a0388169084156108fc029085906000818181858888f193505050501515613cb6578287613c86614f7c565b600160a060020a039091168152604051908190036020019082f080158015613cb2573d6000803e3d6000fd5b5050505b5060019695505050505050565b7f8be0079c531659141344cd1fd0a4f28419497f9722a3daafe3b4186f6b6457e0613cec611fcc565b60408051600160a060020a03928316815291841660208301528051918290030190a1806002600060405160200180807f6f776e65720000000000000000000000000000000000000000000000000000008152506005019050604051602081830303815290604052604051808280519060200190808383602083106116b55780518252601f199092019160209182019101611696565b613d89610df8565b15613d9357600080fd5b613d9c876133d3565b1515613da757600080fd5b60008511613db457600080fd5b60008411613dc157600080fd5b6000866002815181101515613dd257fe5b90602001906020020151118015613e185750856002815181101515613df357fe5b90602001906020020151866001815181101515613e0c57fe5b90602001906020020151115b8015613e535750856001815181101515613e2e57fe5b90602001906020020151866000815181101515613e4757fe5b90602001906020020151115b1515613e5e57600080fd5b826000815181101515613e6d57fe5b90602001906020020151836001815181101515613e8657fe5b6020908102909101015110613e9a57600080fd5b600160a060020a0382161515613eaf57600080fd5b866002600060405160200180807f76616c696461746f72436f6e747261637400000000000000000000000000000081525060110190506040516020818303038152906040526040518082805190602001908083835b60208310613f235780518252601f199092019160209182019101613f04565b51815160209384036101000a60001901801990921691161790526040805192909401829003909120865285810196909652509283016000908120805473ffffffffffffffffffffffffffffffffffffffff1916600160a060020a039790971696909617909555505080517f6465706c6f7965644174426c6f636b0000000000000000000000000000000000818401528151600f818303018152602f90910191829052805143949384939182918401908083835b60208310613ff55780518252601f199092019160209182019101613fd6565b51815160209384036101000a600019018019909216911617905260408051929094018290039091208652850195909552929092016000908120949094555050875188929150811061404257fe5b9060200190602002015160008060405160200180807f6461696c794c696d697400000000000000000000000000000000000000000000815250600a0190506040516020818303038152906040526040518082805190602001908083835b602083106140be5780518252601f19909201916020918201910161409f565b51815160209384036101000a600019018019909216911617905260408051929094018290039091208652850195909552929092016000209390935550508651879150600190811061410b57fe5b9060200190602002015160008060405160200180807f6d6178506572547800000000000000000000000000000000000000000000000081525060080190506040516020818303038152906040526040518082805190602001908083835b602083106141875780518252601f199092019160209182019101614168565b51815160209384036101000a60001901801990921691161790526040805192909401829003909120865285019590955292909201600020939093555050865187915060029081106141d457fe5b9060200190602002015160008060405160200180807f6d696e506572547800000000000000000000000000000000000000000000000081525060080190506040516020818303038152906040526040518082805190602001908083835b602083106142505780518252601f199092019160209182019101614231565b51815160209384036101000a6000190180199092169116179052604080519290940182900390912086528581019690965250928301600090812095909555505080517f67617350726963650000000000000000000000000000000000000000000000008184015281516008818303018152602890910191829052805189949384939182918401908083835b602083106142fa5780518252601f1990920191602091820191016142db565b51815160209384036101000a6000190180199092169116179052604080519290940182900390912086528581019690965250928301600090812095909555505080517f7265717569726564426c6f636b436f6e6669726d6174696f6e73000000000000818401528151601a818303018152603a90910191829052805188949384939182918401908083835b602083106143a45780518252601f199092019160209182019101614385565b51815160209384036101000a60001901801990921691161790526040805192909401829003909120865285019590955292909201600090812094909455505084518592915081106143f157fe5b9060200190602002015160008060405160200180807f657865637574696f6e4461696c794c696d69740000000000000000000000000081525060130190506040516020818303038152906040526040518082805190602001908083835b6020831061446d5780518252601f19909201916020918201910161444e565b51815160209384036101000a60001901801990921691161790526040805192909401829003909120865285019590955292909201600020939093555050835184915060019081106144ba57fe5b9060200190602002015160008060405160200180807f657865637574696f6e4d6178506572547800000000000000000000000000000081525060110190506040516020818303038152906040526040518082805190602001908083835b602083106145365780518252601f199092019160209182019101614517565b51815160209384036101000a6000190180199092169116179052604080519290940182900390912086528581019690965250928301600090812095909555505080517f646563696d616c53686966740000000000000000000000000000000000000000818401528151600c818303018152602c90910191829052805185949384939182918401908083835b602083106145e05780518252601f1990920191602091820191016145c1565b51815160209384036101000a6000190180199092169116179052604080519290940182900390912086528501959095529290920160002093909355506146299150839050613cc3565b6040805185815290517f4fb76205cd57c896b21511d2114137d8e901b4ccd659e1a0f97d6306795264fb9181900360200190a16040805186815290517f52264b89e0fceafb26e79fd49ef8a366eb6297483bf4035b027f0c99a7ad512e9181900360200190a17fad4123ae17c414d9c6d2fec478b402e6b01856cc250fd01fbfd252fda0089d3c8660008151811015156146bf57fe5b906020019060200201516040518082815260200191505060405180910390a17f9bebf928b90863f24cc31f726a3a7545efd409f1dcf552301b1ee3710da70d3b83600081518110151561470e57fe5b906020019060200201516040518082815260200191505060405180910390a150505050505050565b60408051808201909152601a81527f19457468657265756d205369676e6564204d6573736167653a0a0000000000006020820152600090606083156148dc57816147808651614d41565b866040516020018084805190602001908083835b602083106147b35780518252601f199092019160209182019101614794565b51815160209384036101000a600019018019909216911617905286519190930192860191508083835b602083106147fb5780518252601f1990920191602091820191016147dc565b51815160209384036101000a600019018019909216911617905285519190930192850191508083835b602083106148435780518252601f199092019160209182019101614824565b6001836020036101000a03801982511681845116808217855250505050505090500193505050506040516020818303038152906040526040518082805190602001908083835b602083106148a85780518252601f199092019160209182019101614889565b6001836020036101000a03801982511681845116808217855250505050505090500191505060405180910390209250614948565b6040805190810160405280600381526020017f31303400000000000000000000000000000000000000000000000000000000008152509050818186604051602001808480519060200190808383602083106147b35780518252601f199092019160209182019101614794565b505092915050565b60008060008061495f856134a1565b151561496a57600080fd5b50505050601481015160348201516054830151606890930151919390929190565b6040805160248082018690528251808303909101815260449091018252602081018051600160e060020a03167f59d784640000000000000000000000000000000000000000000000000000000017815291518151600160a060020a03861693829180838360005b83811015614a0a5781810151838201526020016149f2565b50505050905090810190601f168015614a375780820380516001836020036101000a031916815260200191505b50915050600060405180830381855af49150501515614a5557600080fd5b60408051848152905182917f858abdcd5efcaebb936e8e8516f0cfe9a0ef5157ff99d16cdabb6db625be90d0919081900360200190a2505050565b604051303190600160a060020a0383169082156108fc029083906000818181858888f193505050501515613927578082614ac8614f7c565b600160a060020a039091168152604051908190036020019082f080158015614af4573d6000803e3d6000fd5b5050505050565b604080517f70a0823100000000000000000000000000000000000000000000000000000000815230600482015290518391600091600160a060020a038416916370a0823191602480830192602092919082900301818787803b158015614b6057600080fd5b505af1158015614b74573d6000803e3d6000fd5b505050506040513d6020811015614b8a57600080fd5b505190506131d8848483614e64565b806000808460405160200180807f746f74616c45786563757465645065724461790000000000000000000000000081525060130182815260200191505060405160208183030381529060405260405180828051906020019080838360208310612f625780518252601f199092019160209182019101612f43565b6000821515614c2457506000612ee1565b50818102818382811515614c3457fe5b0414612ee157fe5b6040805160248082018690528251808303909101815260449091018252602081018051600160e060020a03167f054d46ec0000000000000000000000000000000000000000000000000000000017815291518151600160a060020a03861693829180838360005b83811015614cbb578181015183820152602001614ca3565b50505050905090810190601f168015614ce85780820380516001836020036101000a031916815260200191505b50915050600060405180830381855af49150501515614d0657600080fd5b60408051848152905182917fa52d3c9cbc541772e4edd92e2e4e2a3865ab73630f25deed8a6c8de41ff0f65c919081900360200190a2505050565b60606000808281851515614d8a5760408051808201909152600181527f300000000000000000000000000000000000000000000000000000000000000060208201529450613a65565b8593505b8315614da557600190920191600a84049350614d8e565b826040519080825280601f01601f191660200182016040528015614dd3578160200160208202803883390190505b5091505060001982015b8515614e5b5781516000198201917f01000000000000000000000000000000000000000000000000000000000000006030600a8a060102918491908110614e2057fe5b9060200101907effffffffffffffffffffffffffffffffffffffffffffffffffffffffffffff1916908160001a905350600a86049550614ddd565b50949350505050565b60408051600160a060020a0384166024820152604480820184905282518083039091018152606490910190915260208181018051600160e060020a03167fa9059cbb000000000000000000000000000000000000000000000000000000001781528251606093600093909290918491828a5af16000519350839250808015612d1c5750506000835111156125085781151561250857600080fd5b828054600181600116156101000203166002900490600052602060002090601f016020900481019282601f10614f3f57805160ff1916838001178555614f6c565b82800160010185558215614f6c579182015b82811115614f6c578251825591602001919060010190614f51565b50614f78929150614f8b565b5090565b604051602180614fa683390190565b610eae91905b80821115614f785760008155600101614f915600608060405260405160208060218339810160405251600160a060020a038116ff00666f726569676e2d666565000000000000000000000000000000000000000000686f6d652d666565000000000000000000000000000000000000000000000000a165627a7a72305820dadc70a03263badcbe655133c349adcf498883c8e2488fa04ab93a5172457a880029",
  "source": "pragma solidity 0.4.24;\n\nimport \"./HomeBridgeNativeToErc.sol\";\n\ncontract ClassicHomeBridgeNativeToErc is HomeBridgeNativeToErc {\n    function _initialize(\n        address _validatorContract,\n        uint256[] _dailyLimitMaxPerTxMinPerTxArray, // [ 0 = _dailyLimit, 1 = _maxPerTx, 2 = _minPerTx ]\n        uint256 _homeGasPrice,\n        uint256 _requiredBlockConfirmations,\n        uint256[] _foreignDailyLimitForeignMaxPerTxArray, // [ 0 = _foreignDailyLimit, 1 = _foreignMaxPerTx ]\n        address _owner,\n        uint256 _decimalShift\n    ) internal {\n        super._initialize(\n            _validatorContract,\n            _dailyLimitMaxPerTxMinPerTxArray,\n            _homeGasPrice,\n            _requiredBlockConfirmations,\n            _foreignDailyLimitForeignMaxPerTxArray,\n            _owner,\n            _decimalShift\n        );\n        uintStorage[keccak256(abi.encodePacked(\"dataSizes\", bytes4(keccak256(\"signature(bytes32,uint256)\"))))] = 132;\n        uintStorage[keccak256(abi.encodePacked(\"dataSizes\", bytes4(keccak256(\"message(bytes32)\"))))] = 210;\n    }\n}\n",
  "sourcePath": "/contracts/contracts/upgradeable_contracts/native_to_erc20/ClassicHomeBridgeNativeToErc.sol",
  "compiler": {
    "name": "solc",
    "version": "0.4.24+commit.e67f0147.Emscripten.clang"
  },
  "schemaVersion": "3.0.9",
  "updatedAt": "2019-09-30T13:18:39.341Z",
  "devdoc": {
    "methods": {
      "owner()": {
        "details": "Tells the address of the owner",
        "return": "the address of the owner"
      },
      "transferOwnership(address)": {
        "details": "Allows the current owner to transfer control of the contract to a newOwner.",
        "params": {
          "newOwner": "the address to transfer ownership to."
        }
      }
    }
  },
  "userdoc": {
    "methods": {}
  }
}