{
  "contractName": "ClassicEternalStorageProxy",
  "abi": [
    {
      "constant": false,
      "inputs": [
        {
          "name": "version",
          "type": "uint256"
        },
        {
          "name": "implementation",
          "type": "address"
        }
      ],
      "name": "upgradeTo",
      "outputs": [],
      "payable": false,
      "stateMutability": "nonpayable",
      "type": "function"
    },
    {
      "constant": true,
      "inputs": [],
      "name": "version",
      "outputs": [
        {
          "name": "",
          "type": "uint256"
        }
      ],
      "payable": false,
      "stateMutability": "view",
      "type": "function"
    },
    {
      "constant": true,
      "inputs": [],
      "name": "implementation",
      "outputs": [
        {
          "name": "",
          "type": "address"
        }
      ],
      "payable": false,
      "stateMutability": "view",
      "type": "function"
    },
    {
      "constant": true,
      "inputs": [],
      "name": "upgradeabilityOwner",
      "outputs": [
        {
          "name": "",
          "type": "address"
        }
      ],
      "payable": false,
      "stateMutability": "view",
      "type": "function"
    },
    {
      "constant": false,
      "inputs": [
        {
          "name": "version",
          "type": "uint256"
        },
        {
          "name": "implementation",
          "type": "address"
        },
        {
          "name": "data",
          "type": "bytes"
        }
      ],
      "name": "upgradeToAndCall",
      "outputs": [],
      "payable": true,
      "stateMutability": "payable",
      "type": "function"
    },
    {
      "constant": false,
      "inputs": [
        {
          "name": "newOwner",
          "type": "address"
        }
      ],
      "name": "transferProxyOwnership",
      "outputs": [],
      "payable": false,
      "stateMutability": "nonpayable",
      "type": "function"
    },
    {
      "payable": true,
      "stateMutability": "payable",
      "type": "fallback"
    },
    {
      "anonymous": false,
      "inputs": [
        {
          "indexed": false,
          "name": "previousOwner",
          "type": "address"
        },
        {
          "indexed": false,
          "name": "newOwner",
          "type": "address"
        }
      ],
      "name": "ProxyOwnershipTransferred",
      "type": "event"
    },
    {
      "anonymous": false,
      "inputs": [
        {
          "indexed": false,
          "name": "version",
          "type": "uint256"
        },
        {
          "indexed": true,
          "name": "implementation",
          "type": "address"
        }
      ],
      "name": "Upgraded",
      "type": "event"
    },
    {
      "constant": true,
      "inputs": [
        {
          "name": "sig",
          "type": "bytes4"
        }
      ],
      "name": "getSize",
      "outputs": [
        {
          "name": "",
          "type": "uint256"
        }
      ],
      "payable": false,
      "stateMutability": "view",
      "type": "function"
    }
  ],
  "bytecode": "0x60806040526100163364010000000061001b810204565b61003d565b60068054600160a060020a031916600160a060020a0392909216919091179055565b6105508061004c6000396000f3006080604052600436106100825763ffffffff7c01000000000000000000000000000000000000000000000000000000006000350416633ad06d1681146100f157806349b4ca8d1461011757806354fd4d50146101605780635c60da1b146101755780636fde8202146101a6578063a9c45fcb146101bb578063f1739cae146101df575b60008061008d610200565b9150600160a060020a03821615156100a457600080fd5b6100ce6000357bffffffffffffffffffffffffffffffffffffffffffffffffffffffff191661020f565b905060405136600082378160003683865af48080156100ec57836000f35b836000fd5b3480156100fd57600080fd5b50610115600435600160a060020a0360243516610319565b005b34801561012357600080fd5b5061014e7bffffffffffffffffffffffffffffffffffffffffffffffffffffffff196004351661020f565b60408051918252519081900360200190f35b34801561016c57600080fd5b5061014e610343565b34801561018157600080fd5b5061018a610200565b60408051600160a060020a039092168252519081900360200190f35b3480156101b257600080fd5b5061018a610349565b610115600480359060248035600160a060020a031691604435918201910135610358565b3480156101eb57600080fd5b50610115600160a060020a03600435166103c0565b600854600160a060020a031690565b6000806000808460405160200180807f6461746153697a65730000000000000000000000000000000000000000000000815250600901827bffffffffffffffffffffffffffffffffffffffffffffffffffffffff19167bffffffffffffffffffffffffffffffffffffffffffffffffffffffff191681526004019150506040516020818303038152906040526040518082805190602001908083835b602083106102ca5780518252601f1990920191602091820191016102ab565b51815160209384036101000a6000190180199092169116179052604080519290940182900390912086528501959095529290920160002054935050508115159050610313575060205b92915050565b610321610349565b600160a060020a0316331461033557600080fd5b61033f8282610448565b5050565b60075490565b600654600160a060020a031690565b610360610349565b600160a060020a0316331461037457600080fd5b61037e8484610319565b30600160a060020a03163483836040518083838082843782019150509250505060006040518083038185875af19250505015156103ba57600080fd5b50505050565b6103c8610349565b600160a060020a031633146103dc57600080fd5b600160a060020a03811615156103f157600080fd5b7f5a3e66efaa1e445ebd894728a69d6959842ea1e97bd79b892797106e270efcd961041a610349565b60408051600160a060020a03928316815291841660208301528051918290030190a1610445816104ed565b50565b600854600160a060020a038281169116141561046357600080fd5b61046c8161051c565b151561047757600080fd5b600754821161048557600080fd5b600782905560088054600160a060020a03831673ffffffffffffffffffffffffffffffffffffffff1990911681179091556040805184815290517f4289d6195cf3c2d2174adf98d0e19d4d2d08887995b99cb7b100e7ffe795820e9181900360200190a25050565b6006805473ffffffffffffffffffffffffffffffffffffffff1916600160a060020a0392909216919091179055565b6000903b11905600a165627a7a7230582035216a84a01242efd4d132ac281f3a5f3b5f5c57a3a3cbf7417404c494ba00570029",
  "source": "pragma solidity 0.4.24;\n\nimport \"./EternalStorage.sol\";\nimport \"./OwnedUpgradeabilityProxy.sol\";\n\ncontract ClassicEternalStorageProxy is EternalStorage, OwnedUpgradeabilityProxy {\n    // solhint-disable-next-line no-complex-fallback\n    function() public payable {\n        address _impl = implementation();\n        require(_impl != address(0));\n        uint256 len = getSize(msg.sig);\n        assembly {\n            let ptr := mload(0x40)\n            calldatacopy(ptr, 0, calldatasize)\n            let result := delegatecall(gas, _impl, ptr, calldatasize, 0, len)\n\n            switch result\n                case 0 {\n                    revert(0, len)\n                }\n                default {\n                    return(0, len)\n                }\n        }\n    }\n\n    function getSize(bytes4 sig) public view returns (uint256) {\n        uint256 ret = uintStorage[keccak256(abi.encodePacked(\"dataSizes\", sig))];\n        if (ret == 0) {\n            ret = 32;\n        }\n        return ret;\n    }\n}\n",
  "sourcePath": "/contracts/contracts/upgradeability/ClassicEternalStorageProxy.sol",
  "compiler": {
    "name": "solc",
    "version": "0.4.24+commit.e67f0147.Emscripten.clang"
  },
  "schemaVersion": "3.0.9",
  "updatedAt": "2019-09-30T13:18:39.248Z",
  "devdoc": {
    "methods": {
      "implementation()": {
        "details": "Tells the address of the current implementation",
        "return": "address of the current implementation"
      },
      "transferProxyOwnership(address)": {
        "details": "Allows the current owner to transfer control of the contract to a newOwner.",
        "params": {
          "newOwner": "The address to transfer ownership to."
        }
      },
      "upgradeTo(uint256,address)": {
        "details": "Allows the upgradeability owner to upgrade the current version of the proxy.",
        "params": {
          "implementation": "representing the address of the new implementation to be set.",
          "version": "representing the version name of the new implementation to be set."
        }
      },
      "upgradeToAndCall(uint256,address,bytes)": {
        "details": "Allows the upgradeability owner to upgrade the current version of the proxy and call the new implementation to initialize whatever is needed through a low level call.",
        "params": {
          "data": "represents the msg.data to bet sent in the low level call. This parameter may include the function signature of the implementation to be called with the needed payload",
          "implementation": "representing the address of the new implementation to be set.",
          "version": "representing the version name of the new implementation to be set."
        }
      },
      "upgradeabilityOwner()": {
        "details": "Tells the address of the owner",
        "return": "the address of the owner"
      },
      "version()": {
        "details": "Tells the version name of the current implementation",
        "return": "uint256 representing the name of the current version"
      }
    }
  },
  "userdoc": {
    "methods": {}
  }
}