{
  "contractName": "ERC677BridgeTokenRewardable",
  "abi": [
    {
      "constant": true,
      "inputs": [],
      "name": "mintingFinished",
      "outputs": [
        {
          "name": "",
          "type": "bool"
        }
      ],
      "payable": false,
      "stateMutability": "view",
      "type": "function"
    },
    {
      "constant": true,
      "inputs": [],
      "name": "name",
      "outputs": [
        {
          "name": "",
          "type": "string"
        }
      ],
      "payable": false,
      "stateMutability": "view",
      "type": "function"
    },
    {
      "constant": false,
      "inputs": [
        {
          "name": "_spender",
          "type": "address"
        },
        {
          "name": "_value",
          "type": "uint256"
        }
      ],
      "name": "approve",
      "outputs": [
        {
          "name": "",
          "type": "bool"
        }
      ],
      "payable": false,
      "stateMutability": "nonpayable",
      "type": "function"
    },
    {
      "constant": false,
      "inputs": [
        {
          "name": "_bridgeContract",
          "type": "address"
        }
      ],
      "name": "setBridgeContract",
      "outputs": [],
      "payable": false,
      "stateMutability": "nonpayable",
      "type": "function"
    },
    {
      "constant": true,
      "inputs": [],
      "name": "totalSupply",
      "outputs": [
        {
          "name": "",
          "type": "uint256"
        }
      ],
      "payable": false,
      "stateMutability": "view",
      "type": "function"
    },
    {
      "constant": true,
      "inputs": [],
      "name": "decimals",
      "outputs": [
        {
          "name": "",
          "type": "uint8"
        }
      ],
      "payable": false,
      "stateMutability": "view",
      "type": "function"
    },
    {
      "constant": false,
      "inputs": [
        {
          "name": "_to",
          "type": "address"
        },
        {
          "name": "_value",
          "type": "uint256"
        },
        {
          "name": "_data",
          "type": "bytes"
        }
      ],
      "name": "transferAndCall",
      "outputs": [
        {
          "name": "",
          "type": "bool"
        }
      ],
      "payable": false,
      "stateMutability": "nonpayable",
      "type": "function"
    },
    {
      "constant": false,
      "inputs": [
        {
          "name": "_to",
          "type": "address"
        },
        {
          "name": "_amount",
          "type": "uint256"
        }
      ],
      "name": "mint",
      "outputs": [
        {
          "name": "",
          "type": "bool"
        }
      ],
      "payable": false,
      "stateMutability": "nonpayable",
      "type": "function"
    },
    {
      "constant": false,
      "inputs": [
        {
          "name": "_value",
          "type": "uint256"
        }
      ],
      "name": "burn",
      "outputs": [],
      "payable": false,
      "stateMutability": "nonpayable",
      "type": "function"
    },
    {
      "constant": true,
      "inputs": [],
      "name": "blockRewardContract",
      "outputs": [
        {
          "name": "",
          "type": "address"
        }
      ],
      "payable": false,
      "stateMutability": "view",
      "type": "function"
    },
    {
      "constant": false,
      "inputs": [
        {
          "name": "_spender",
          "type": "address"
        },
        {
          "name": "_subtractedValue",
          "type": "uint256"
        }
      ],
      "name": "decreaseApproval",
      "outputs": [
        {
          "name": "",
          "type": "bool"
        }
      ],
      "payable": false,
      "stateMutability": "nonpayable",
      "type": "function"
    },
    {
      "constant": false,
      "inputs": [
        {
          "name": "_token",
          "type": "address"
        },
        {
          "name": "_to",
          "type": "address"
        }
      ],
      "name": "claimTokens",
      "outputs": [],
      "payable": false,
      "stateMutability": "nonpayable",
      "type": "function"
    },
    {
      "constant": true,
      "inputs": [
        {
          "name": "_owner",
          "type": "address"
        }
      ],
      "name": "balanceOf",
      "outputs": [
        {
          "name": "",
          "type": "uint256"
        }
      ],
      "payable": false,
      "stateMutability": "view",
      "type": "function"
    },
    {
      "constant": false,
      "inputs": [],
      "name": "renounceOwnership",
      "outputs": [],
      "payable": false,
      "stateMutability": "nonpayable",
      "type": "function"
    },
    {
      "constant": false,
      "inputs": [],
      "name": "finishMinting",
      "outputs": [
        {
          "name": "",
          "type": "bool"
        }
      ],
      "payable": false,
      "stateMutability": "nonpayable",
      "type": "function"
    },
    {
      "constant": true,
      "inputs": [],
      "name": "getTokenInterfacesVersion",
      "outputs": [
        {
          "name": "major",
          "type": "uint64"
        },
        {
          "name": "minor",
          "type": "uint64"
        },
        {
          "name": "patch",
          "type": "uint64"
        }
      ],
      "payable": false,
      "stateMutability": "pure",
      "type": "function"
    },
    {
      "constant": true,
      "inputs": [],
      "name": "owner",
      "outputs": [
        {
          "name": "",
          "type": "address"
        }
      ],
      "payable": false,
      "stateMutability": "view",
      "type": "function"
    },
    {
      "constant": true,
      "inputs": [],
      "name": "symbol",
      "outputs": [
        {
          "name": "",
          "type": "string"
        }
      ],
      "payable": false,
      "stateMutability": "view",
      "type": "function"
    },
    {
      "constant": true,
      "inputs": [],
      "name": "bridgeContract",
      "outputs": [
        {
          "name": "",
          "type": "address"
        }
      ],
      "payable": false,
      "stateMutability": "view",
      "type": "function"
    },
    {
      "constant": false,
      "inputs": [
        {
          "name": "_spender",
          "type": "address"
        },
        {
          "name": "_addedValue",
          "type": "uint256"
        }
      ],
      "name": "increaseApproval",
      "outputs": [
        {
          "name": "",
          "type": "bool"
        }
      ],
      "payable": false,
      "stateMutability": "nonpayable",
      "type": "function"
    },
    {
      "constant": true,
      "inputs": [
        {
          "name": "_owner",
          "type": "address"
        },
        {
          "name": "_spender",
          "type": "address"
        }
      ],
      "name": "allowance",
      "outputs": [
        {
          "name": "",
          "type": "uint256"
        }
      ],
      "payable": false,
      "stateMutability": "view",
      "type": "function"
    },
    {
      "constant": true,
      "inputs": [],
      "name": "stakingContract",
      "outputs": [
        {
          "name": "",
          "type": "address"
        }
      ],
      "payable": false,
      "stateMutability": "view",
      "type": "function"
    },
    {
      "constant": false,
      "inputs": [
        {
          "name": "_newOwner",
          "type": "address"
        }
      ],
      "name": "transferOwnership",
      "outputs": [],
      "payable": false,
      "stateMutability": "nonpayable",
      "type": "function"
    },
    {
      "inputs": [
        {
          "name": "_name",
          "type": "string"
        },
        {
          "name": "_symbol",
          "type": "string"
        },
        {
          "name": "_decimals",
          "type": "uint8"
        }
      ],
      "payable": false,
      "stateMutability": "nonpayable",
      "type": "constructor"
    },
    {
      "anonymous": false,
      "inputs": [
        {
          "indexed": false,
          "name": "from",
          "type": "address"
        },
        {
          "indexed": false,
          "name": "to",
          "type": "address"
        },
        {
          "indexed": false,
          "name": "value",
          "type": "uint256"
        }
      ],
      "name": "ContractFallbackCallFailed",
      "type": "event"
    },
    {
      "anonymous": false,
      "inputs": [
        {
          "indexed": true,
          "name": "to",
          "type": "address"
        },
        {
          "indexed": false,
          "name": "amount",
          "type": "uint256"
        }
      ],
      "name": "Mint",
      "type": "event"
    },
    {
      "anonymous": false,
      "inputs": [],
      "name": "MintFinished",
      "type": "event"
    },
    {
      "anonymous": false,
      "inputs": [
        {
          "indexed": true,
          "name": "previousOwner",
          "type": "address"
        }
      ],
      "name": "OwnershipRenounced",
      "type": "event"
    },
    {
      "anonymous": false,
      "inputs": [
        {
          "indexed": true,
          "name": "previousOwner",
          "type": "address"
        },
        {
          "indexed": true,
          "name": "newOwner",
          "type": "address"
        }
      ],
      "name": "OwnershipTransferred",
      "type": "event"
    },
    {
      "anonymous": false,
      "inputs": [
        {
          "indexed": true,
          "name": "burner",
          "type": "address"
        },
        {
          "indexed": false,
          "name": "value",
          "type": "uint256"
        }
      ],
      "name": "Burn",
      "type": "event"
    },
    {
      "anonymous": false,
      "inputs": [
        {
          "indexed": true,
          "name": "from",
          "type": "address"
        },
        {
          "indexed": true,
          "name": "to",
          "type": "address"
        },
        {
          "indexed": false,
          "name": "value",
          "type": "uint256"
        },
        {
          "indexed": false,
          "name": "data",
          "type": "bytes"
        }
      ],
      "name": "Transfer",
      "type": "event"
    },
    {
      "anonymous": false,
      "inputs": [
        {
          "indexed": true,
          "name": "owner",
          "type": "address"
        },
        {
          "indexed": true,
          "name": "spender",
          "type": "address"
        },
        {
          "indexed": false,
          "name": "value",
          "type": "uint256"
        }
      ],
      "name": "Approval",
      "type": "event"
    },
    {
      "anonymous": false,
      "inputs": [
        {
          "indexed": true,
          "name": "from",
          "type": "address"
        },
        {
          "indexed": true,
          "name": "to",
          "type": "address"
        },
        {
          "indexed": false,
          "name": "value",
          "type": "uint256"
        }
      ],
      "name": "Transfer",
      "type": "event"
    },
    {
      "constant": false,
      "inputs": [
        {
          "name": "_blockRewardContract",
          "type": "address"
        }
      ],
      "name": "setBlockRewardContract",
      "outputs": [],
      "payable": false,
      "stateMutability": "nonpayable",
      "type": "function"
    },
    {
      "constant": false,
      "inputs": [
        {
          "name": "_stakingContract",
          "type": "address"
        }
      ],
      "name": "setStakingContract",
      "outputs": [],
      "payable": false,
      "stateMutability": "nonpayable",
      "type": "function"
    },
    {
      "constant": false,
      "inputs": [
        {
          "name": "_receivers",
          "type": "address[]"
        },
        {
          "name": "_rewards",
          "type": "uint256[]"
        }
      ],
      "name": "mintReward",
      "outputs": [],
      "payable": false,
      "stateMutability": "nonpayable",
      "type": "function"
    },
    {
      "constant": false,
      "inputs": [
        {
          "name": "_staker",
          "type": "address"
        },
        {
          "name": "_amount",
          "type": "uint256"
        }
      ],
      "name": "stake",
      "outputs": [],
      "payable": false,
      "stateMutability": "nonpayable",
      "type": "function"
    },
    {
      "constant": false,
      "inputs": [
        {
          "name": "_to",
          "type": "address"
        },
        {
          "name": "_value",
          "type": "uint256"
        }
      ],
      "name": "transfer",
      "outputs": [
        {
          "name": "",
          "type": "bool"
        }
      ],
      "payable": false,
      "stateMutability": "nonpayable",
      "type": "function"
    },
    {
      "constant": false,
      "inputs": [
        {
          "name": "_from",
          "type": "address"
        },
        {
          "name": "_to",
          "type": "address"
        },
        {
          "name": "_value",
          "type": "uint256"
        }
      ],
      "name": "transferFrom",
      "outputs": [
        {
          "name": "",
          "type": "bool"
        }
      ],
      "payable": false,
      "stateMutability": "nonpayable",
      "type": "function"
    }
  ],
  "bytecode": "0x60806040526006805460a060020a60ff02191690553480156200002157600080fd5b50604051620019be380380620019be8339810160409081528151602080840151928401519184018051909493909301928491849184918491849184916200006f9160009190860190620000bc565b50815162000085906001906020850190620000bc565b506002805460ff90921660ff19909216919091179055505060068054600160a060020a031916331790555062000161945050505050565b828054600181600116156101000203166002900490600052602060002090601f016020900481019282601f10620000ff57805160ff19168380011785556200012f565b828001600101855582156200012f579182015b828111156200012f57825182559160200191906001019062000112565b506200013d92915062000141565b5090565b6200015e91905b808211156200013d576000815560010162000148565b90565b61184d80620001716000396000f3006080604052600436106101745763ffffffff7c010000000000000000000000000000000000000000000000000000000060003504166305d2035b811461017957806306fdde03146101a2578063095ea7b31461022c5780630b26cf661461025057806318160ddd1461027357806323b872dd1461029a57806327a3e16b146102c4578063313ce567146102e55780634000aea01461031057806340c10f191461034157806342966c681461036557806356b54bae1461037d57806366188463146103ae57806369ffa08a146103d257806370a08231146103f9578063715018a61461041a5780637d64bcb41461042f578063859ba28c146104445780638da5cb5b1461048557806395d89b411461049a5780639dd373b9146104af578063a9059cbb146104d0578063adc9772e146104f4578063cd59658314610518578063d73dd6231461052d578063dd62ed3e14610551578063e2f764a314610578578063ee99205c146105a4578063f2fde38b146105b9575b600080fd5b34801561018557600080fd5b5061018e6105da565b604080519115158252519081900360200190f35b3480156101ae57600080fd5b506101b76105fb565b6040805160208082528351818301528351919283929083019185019080838360005b838110156101f15781810151838201526020016101d9565b50505050905090810190601f16801561021e5780820380516001836020036101000a031916815260200191505b509250505060405180910390f35b34801561023857600080fd5b5061018e600160a060020a0360043516602435610689565b34801561025c57600080fd5b50610271600160a060020a03600435166106ef565b005b34801561027f57600080fd5b50610288610749565b60408051918252519081900360200190f35b3480156102a657600080fd5b5061018e600160a060020a036004358116906024351660443561074f565b3480156102d057600080fd5b50610271600160a060020a0360043516610780565b3480156102f157600080fd5b506102fa6107da565b6040805160ff9092168252519081900360200190f35b34801561031c57600080fd5b5061018e60048035600160a060020a03169060248035916044359182019101356107e3565b34801561034d57600080fd5b5061018e600160a060020a03600435166024356108f4565b34801561037157600080fd5b506102716004356109ff565b34801561038957600080fd5b50610392610a0c565b60408051600160a060020a039092168252519081900360200190f35b3480156103ba57600080fd5b5061018e600160a060020a0360043516602435610a1b565b3480156103de57600080fd5b50610271600160a060020a0360043581169060243516610b0a565b34801561040557600080fd5b50610288600160a060020a0360043516610b46565b34801561042657600080fd5b50610271610b61565b34801561043b57600080fd5b5061018e610b78565b34801561045057600080fd5b50610459610b7f565b6040805167ffffffffffffffff9485168152928416602084015292168183015290519081900360600190f35b34801561049157600080fd5b50610392610b8a565b3480156104a657600080fd5b506101b7610b99565b3480156104bb57600080fd5b50610271600160a060020a0360043516610bf3565b3480156104dc57600080fd5b5061018e600160a060020a0360043516602435610c60565b34801561050057600080fd5b50610271600160a060020a0360043516602435610c8f565b34801561052457600080fd5b50610392610d58565b34801561053957600080fd5b5061018e600160a060020a0360043516602435610d67565b34801561055d57600080fd5b50610288600160a060020a0360043581169060243516610e00565b34801561058457600080fd5b506102716024600480358281019290820135918135918201910135610e2b565b3480156105b057600080fd5b50610392610f74565b3480156105c557600080fd5b50610271600160a060020a0360043516610f83565b60065474010000000000000000000000000000000000000000900460ff1681565b6000805460408051602060026001851615610100026000190190941693909304601f810184900484028201840190925281815292918301828280156106815780601f1061065657610100808354040283529160200191610681565b820191906000526020600020905b81548152906001019060200180831161066457829003601f168201915b505050505081565b336000818152600560209081526040808320600160a060020a038716808552908352818420869055815186815291519394909390927f8c5be1e5ebec7d5bd14f71427d1e84f3dd0314c0f7b2291e5b200ac8c7c3b925928290030190a350600192915050565b600654600160a060020a0316331461070657600080fd5b61070f81610fa3565b151561071a57600080fd5b6007805473ffffffffffffffffffffffffffffffffffffffff1916600160a060020a0392909216919091179055565b60045490565b600954600090600160a060020a038481169116141561076d57600080fd5b610778848484610fab565b949350505050565b600654600160a060020a0316331461079757600080fd5b6107a081610fa3565b15156107ab57600080fd5b6008805473ffffffffffffffffffffffffffffffffffffffff1916600160a060020a0392909216919091179055565b60025460ff1681565b600084600160a060020a038116158015906108075750600160a060020a0381163014155b151561081257600080fd5b61081c8686610fd8565b151561082757600080fd5b85600160a060020a031633600160a060020a03167fe19260aff97b920c7df27010903aeb9c8d2be5d310a2c67824cf3f15396e4c16878787604051808481526020018060200182810382528484828181526020019250808284376040519201829003965090945050505050a361089c86610fa3565b156108e8576108dd33878787878080601f01602080910402602001604051908101604052809392919081815260200183838082843750610fe4945050505050565b15156108e857600080fd5b50600195945050505050565b600654600090600160a060020a0316331461090e57600080fd5b60065474010000000000000000000000000000000000000000900460ff161561093657600080fd5b600454610949908363ffffffff61114f16565b600455600160a060020a038316600090815260036020526040902054610975908363ffffffff61114f16565b600160a060020a038416600081815260036020908152604091829020939093558051858152905191927f0f6798a560793a54c3bcfe86a93cde1e73087d944c0ea20544137d412139688592918290030190a2604080518381529051600160a060020a038516916000916000805160206118028339815191529181900360200190a350600192915050565b610a093382611162565b50565b600854600160a060020a031681565b336000908152600560209081526040808320600160a060020a0386168452909152812054808310610a6f57336000908152600560209081526040808320600160a060020a0388168452909152812055610aa4565b610a7f818463ffffffff61125116565b336000908152600560209081526040808320600160a060020a03891684529091529020555b336000818152600560209081526040808320600160a060020a0389168085529083529281902054815190815290519293927f8c5be1e5ebec7d5bd14f71427d1e84f3dd0314c0f7b2291e5b200ac8c7c3b925929181900390910190a35060019392505050565b600654600160a060020a03163314610b2157600080fd5b80600160a060020a0381161515610b3757600080fd5b610b418383611263565b505050565b600160a060020a031660009081526003602052604090205490565b600654600160a060020a0316331461017457600080fd5b6000806000fd5b600260016000909192565b600654600160a060020a031681565b60018054604080516020600284861615610100026000190190941693909304601f810184900484028201840190925281815292918301828280156106815780601f1061065657610100808354040283529160200191610681565b600654600160a060020a03163314610c0a57600080fd5b610c1381610fa3565b1515610c1e57600080fd5b610c2781610b46565b15610c3157600080fd5b6009805473ffffffffffffffffffffffffffffffffffffffff1916600160a060020a0392909216919091179055565b600954600090600160a060020a0384811691161415610c7e57600080fd5b610c88838361128f565b9392505050565b600954600160a060020a03163314610ca657600080fd5b600160a060020a038216600090815260036020526040902054610ccf908263ffffffff61125116565b600160a060020a038084166000908152600360205260408082209390935560095490911681522054610d07908263ffffffff61114f16565b60098054600160a060020a0390811660009081526003602090815260409182902094909455915482518581529251908216939186169260008051602061180283398151915292908290030190a35050565b600754600160a060020a031681565b336000908152600560209081526040808320600160a060020a0386168452909152812054610d9b908363ffffffff61114f16565b336000818152600560209081526040808320600160a060020a0389168085529083529281902085905580519485525191937f8c5be1e5ebec7d5bd14f71427d1e84f3dd0314c0f7b2291e5b200ac8c7c3b925929081900390910190a350600192915050565b600160a060020a03918216600090815260056020908152604080832093909416825291909152205490565b600854600090819081908190600160a060020a03163314610e4b57600080fd5b869350600092505b83831015610f6a57858584818110610e6757fe5b9050602002013591508160001415610e7e57610f5f565b878784818110610e8a57fe5b90506020020135600160a060020a03169050610eb18260045461114f90919063ffffffff16565b600455600160a060020a038116600090815260036020526040902054610edd908363ffffffff61114f16565b600160a060020a038216600081815260036020908152604091829020939093558051858152905191927f0f6798a560793a54c3bcfe86a93cde1e73087d944c0ea20544137d412139688592918290030190a2604080518381529051600160a060020a038316916000916000805160206118028339815191529181900360200190a35b600190920191610e53565b5050505050505050565b600954600160a060020a031681565b600654600160a060020a03163314610f9a57600080fd5b610a09816112ba565b6000903b1190565b6000610fb8848484611338565b1515610fc357600080fd5b610fce84848461149d565b5060019392505050565b6000610c88838361153c565b600083600160a060020a03168584846040516024018084600160a060020a0316600160a060020a0316815260200183815260200180602001828103825283818151815260200191508051906020019080838360005b83811015611051578181015183820152602001611039565b50505050905090810190601f16801561107e5780820380516001836020036101000a031916815260200191505b5060408051601f198184030181529181526020820180517bffffffffffffffffffffffffffffffffffffffffffffffffffffffff167fa4c0ed36000000000000000000000000000000000000000000000000000000001781529051825192975095508594509250905080838360005b838110156111055781810151838201526020016110ed565b50505050905090810190601f1680156111325780820380516001836020036101000a031916815260200191505b509150506000604051808303816000865af1979650505050505050565b8181018281101561115c57fe5b92915050565b600160a060020a03821660009081526003602052604090205481111561118757600080fd5b600160a060020a0382166000908152600360205260409020546111b0908263ffffffff61125116565b600160a060020a0383166000908152600360205260409020556004546111dc908263ffffffff61125116565b600455604080518281529051600160a060020a038416917fcc16f5dbb4873280815c1ee09dbd06736cffcc184412cf7a71a0fdb75d397ca5919081900360200190a2604080518281529051600091600160a060020a038516916000805160206118028339815191529181900360200190a35050565b60008282111561125d57fe5b50900390565b600160a060020a03821615156112815761127c8161160b565b61128b565b61128b8282611676565b5050565b600061129b8383610fd8565b15156112a657600080fd5b6112b133848461149d565b50600192915050565b600160a060020a03811615156112cf57600080fd5b600654604051600160a060020a038084169216907f8be0079c531659141344cd1fd0a4f28419497f9722a3daafe3b4186f6b6457e090600090a36006805473ffffffffffffffffffffffffffffffffffffffff1916600160a060020a0392909216919091179055565b600160a060020a03831660009081526003602052604081205482111561135d57600080fd5b600160a060020a038416600090815260056020908152604080832033845290915290205482111561138d57600080fd5b600160a060020a03831615156113a257600080fd5b600160a060020a0384166000908152600360205260409020546113cb908363ffffffff61125116565b600160a060020a038086166000908152600360205260408082209390935590851681522054611400908363ffffffff61114f16565b600160a060020a038085166000908152600360209081526040808320949094559187168152600582528281203382529091522054611444908363ffffffff61125116565b600160a060020a0380861660008181526005602090815260408083203384528252918290209490945580518681529051928716939192600080516020611802833981519152929181900390910190a35060019392505050565b6114a682610fa3565b80156114cd57506040805160008152602081019091526114cb90849084908490610fe4565b155b15610b4157600754600160a060020a03838116911614156114ed57600080fd5b60408051600160a060020a0380861682528416602082015280820183905290517f11249f0fc79fc134a15a10d1da8291b79515bf987e036ced05b9ec119614070b9181900360600190a1505050565b3360009081526003602052604081205482111561155857600080fd5b600160a060020a038316151561156d57600080fd5b3360009081526003602052604090205461158d908363ffffffff61125116565b3360009081526003602052604080822092909255600160a060020a038516815220546115bf908363ffffffff61114f16565b600160a060020a0384166000818152600360209081526040918290209390935580518581529051919233926000805160206118028339815191529281900390910190a350600192915050565b604051303190600160a060020a0383169082156108fc029083906000818181858888f19350505050151561128b5780826116436117d1565b600160a060020a039091168152604051908190036020019082f08015801561166f573d6000803e3d6000fd5b5050505050565b604080517f70a0823100000000000000000000000000000000000000000000000000000000815230600482015290518391600091600160a060020a038416916370a0823191602480830192602092919082900301818787803b1580156116db57600080fd5b505af11580156116ef573d6000803e3d6000fd5b505050506040513d602081101561170557600080fd5b5051905061171484848361171a565b50505050565b60408051600160a060020a03841660248201526044808201849052825180830390910181526064909101909152602081810180517bffffffffffffffffffffffffffffffffffffffffffffffffffffffff167fa9059cbb000000000000000000000000000000000000000000000000000000001781528251606093600093909290918491828a5af160005193508392508080156101745750506000835111156117c9578115156117c957600080fd5b505050505050565b6040516021806117e1833901905600608060405260405160208060218339810160405251600160a060020a038116ff00ddf252ad1be2c89b69c2b068fc378daa952ba7f163c4a11628f55a4df523b3efa165627a7a72305820f792de2dabd1994125e28bc4ab6e3ef427c65f0a95413258d6f291a46e12e2620029",
  "source": "pragma solidity 0.4.24;\n\nimport \"./ERC677BridgeToken.sol\";\n\ncontract ERC677BridgeTokenRewardable is ERC677BridgeToken {\n    address public blockRewardContract;\n    address public stakingContract;\n\n    constructor(string _name, string _symbol, uint8 _decimals) public ERC677BridgeToken(_name, _symbol, _decimals) {\n        // solhint-disable-previous-line no-empty-blocks\n    }\n\n    function setBlockRewardContract(address _blockRewardContract) external onlyOwner {\n        require(AddressUtils.isContract(_blockRewardContract));\n        blockRewardContract = _blockRewardContract;\n    }\n\n    function setStakingContract(address _stakingContract) external onlyOwner {\n        require(AddressUtils.isContract(_stakingContract));\n        require(balanceOf(_stakingContract) == 0);\n        stakingContract = _stakingContract;\n    }\n\n    modifier onlyBlockRewardContract() {\n        require(msg.sender == blockRewardContract);\n        /* solcov ignore next */\n        _;\n    }\n\n    modifier onlyStakingContract() {\n        require(msg.sender == stakingContract);\n        /* solcov ignore next */\n        _;\n    }\n\n    function mintReward(address[] _receivers, uint256[] _rewards) external onlyBlockRewardContract {\n        uint256 receiversLength = _receivers.length;\n        for (uint256 i = 0; i < receiversLength; i++) {\n            uint256 amount = _rewards[i];\n\n            if (amount == 0) continue;\n\n            address to = _receivers[i];\n\n            // Mint `amount` for `to`\n            totalSupply_ = totalSupply_.add(amount);\n            balances[to] = balances[to].add(amount);\n            emit Mint(to, amount);\n            emit Transfer(address(0), to, amount);\n        }\n    }\n\n    function stake(address _staker, uint256 _amount) external onlyStakingContract {\n        // Transfer `_amount` from `_staker` to `stakingContract`\n        balances[_staker] = balances[_staker].sub(_amount);\n        balances[stakingContract] = balances[stakingContract].add(_amount);\n        emit Transfer(_staker, stakingContract, _amount);\n    }\n\n    function transfer(address _to, uint256 _value) public returns (bool) {\n        require(_to != stakingContract);\n        return super.transfer(_to, _value);\n    }\n\n    function transferFrom(address _from, address _to, uint256 _value) public returns (bool) {\n        require(_to != stakingContract);\n        return super.transferFrom(_from, _to, _value);\n    }\n\n}\n",
  "sourcePath": "/contracts/contracts/ERC677BridgeTokenRewardable.sol",
  "compiler": {
    "name": "solc",
    "version": "0.4.24+commit.e67f0147.Emscripten.clang"
  },
  "schemaVersion": "3.0.9",
  "updatedAt": "2019-09-30T13:18:39.223Z",
  "devdoc": {
    "methods": {
      "allowance(address,address)": {
        "details": "Function to check the amount of tokens that an owner allowed to a spender.",
        "params": {
          "_owner": "address The address which owns the funds.",
          "_spender": "address The address which will spend the funds."
        },
        "return": "A uint256 specifying the amount of tokens still available for the spender."
      },
      "approve(address,uint256)": {
        "details": "Approve the passed address to spend the specified amount of tokens on behalf of msg.sender. Beware that changing an allowance with this method brings the risk that someone may use both the old and the new allowance by unfortunate transaction ordering. One possible solution to mitigate this race condition is to first reduce the spender's allowance to 0 and set the desired value afterwards: https://github.com/ethereum/EIPs/issues/20#issuecomment-263524729",
        "params": {
          "_spender": "The address which will spend the funds.",
          "_value": "The amount of tokens to be spent."
        }
      },
      "balanceOf(address)": {
        "details": "Gets the balance of the specified address.",
        "params": {
          "_owner": "The address to query the the balance of."
        },
        "return": "An uint256 representing the amount owned by the passed address."
      },
      "burn(uint256)": {
        "details": "Burns a specific amount of tokens.",
        "params": {
          "_value": "The amount of token to be burned."
        }
      },
      "decreaseApproval(address,uint256)": {
        "details": "Decrease the amount of tokens that an owner allowed to a spender. approve should be called when allowed[_spender] == 0. To decrement allowed value is better to use this function to avoid 2 calls (and wait until the first transaction is mined) From MonolithDAO Token.sol",
        "params": {
          "_spender": "The address which will spend the funds.",
          "_subtractedValue": "The amount of tokens to decrease the allowance by."
        }
      },
      "increaseApproval(address,uint256)": {
        "details": "Increase the amount of tokens that an owner allowed to a spender. approve should be called when allowed[_spender] == 0. To increment allowed value is better to use this function to avoid 2 calls (and wait until the first transaction is mined) From MonolithDAO Token.sol",
        "params": {
          "_addedValue": "The amount of tokens to increase the allowance by.",
          "_spender": "The address which will spend the funds."
        }
      },
      "mint(address,uint256)": {
        "details": "Function to mint tokens",
        "params": {
          "_amount": "The amount of tokens to mint.",
          "_to": "The address that will receive the minted tokens."
        },
        "return": "A boolean that indicates if the operation was successful."
      },
      "totalSupply()": {
        "details": "Total number of tokens in existence"
      },
      "transferOwnership(address)": {
        "details": "Allows the current owner to transfer control of the contract to a newOwner.",
        "params": {
          "_newOwner": "The address to transfer ownership to."
        }
      }
    }
  },
  "userdoc": {
    "methods": {}
  }
}