{
  "contractName": "ERC677BridgeTokenRewardableMock",
  "abi": [
    {
      "constant": true,
      "inputs": [],
      "name": "mintingFinished",
      "outputs": [
        {
          "name": "",
          "type": "bool"
        }
      ],
      "payable": false,
      "stateMutability": "view",
      "type": "function"
    },
    {
      "constant": true,
      "inputs": [],
      "name": "name",
      "outputs": [
        {
          "name": "",
          "type": "string"
        }
      ],
      "payable": false,
      "stateMutability": "view",
      "type": "function"
    },
    {
      "constant": false,
      "inputs": [
        {
          "name": "_spender",
          "type": "address"
        },
        {
          "name": "_value",
          "type": "uint256"
        }
      ],
      "name": "approve",
      "outputs": [
        {
          "name": "",
          "type": "bool"
        }
      ],
      "payable": false,
      "stateMutability": "nonpayable",
      "type": "function"
    },
    {
      "constant": false,
      "inputs": [
        {
          "name": "_bridgeContract",
          "type": "address"
        }
      ],
      "name": "setBridgeContract",
      "outputs": [],
      "payable": false,
      "stateMutability": "nonpayable",
      "type": "function"
    },
    {
      "constant": true,
      "inputs": [],
      "name": "totalSupply",
      "outputs": [
        {
          "name": "",
          "type": "uint256"
        }
      ],
      "payable": false,
      "stateMutability": "view",
      "type": "function"
    },
    {
      "constant": false,
      "inputs": [
        {
          "name": "_from",
          "type": "address"
        },
        {
          "name": "_to",
          "type": "address"
        },
        {
          "name": "_value",
          "type": "uint256"
        }
      ],
      "name": "transferFrom",
      "outputs": [
        {
          "name": "",
          "type": "bool"
        }
      ],
      "payable": false,
      "stateMutability": "nonpayable",
      "type": "function"
    },
    {
      "constant": false,
      "inputs": [
        {
          "name": "_blockRewardContract",
          "type": "address"
        }
      ],
      "name": "setBlockRewardContract",
      "outputs": [],
      "payable": false,
      "stateMutability": "nonpayable",
      "type": "function"
    },
    {
      "constant": true,
      "inputs": [],
      "name": "decimals",
      "outputs": [
        {
          "name": "",
          "type": "uint8"
        }
      ],
      "payable": false,
      "stateMutability": "view",
      "type": "function"
    },
    {
      "constant": false,
      "inputs": [
        {
          "name": "_to",
          "type": "address"
        },
        {
          "name": "_value",
          "type": "uint256"
        },
        {
          "name": "_data",
          "type": "bytes"
        }
      ],
      "name": "transferAndCall",
      "outputs": [
        {
          "name": "",
          "type": "bool"
        }
      ],
      "payable": false,
      "stateMutability": "nonpayable",
      "type": "function"
    },
    {
      "constant": false,
      "inputs": [
        {
          "name": "_to",
          "type": "address"
        },
        {
          "name": "_amount",
          "type": "uint256"
        }
      ],
      "name": "mint",
      "outputs": [
        {
          "name": "",
          "type": "bool"
        }
      ],
      "payable": false,
      "stateMutability": "nonpayable",
      "type": "function"
    },
    {
      "constant": false,
      "inputs": [
        {
          "name": "_value",
          "type": "uint256"
        }
      ],
      "name": "burn",
      "outputs": [],
      "payable": false,
      "stateMutability": "nonpayable",
      "type": "function"
    },
    {
      "constant": true,
      "inputs": [],
      "name": "blockRewardContract",
      "outputs": [
        {
          "name": "",
          "type": "address"
        }
      ],
      "payable": false,
      "stateMutability": "view",
      "type": "function"
    },
    {
      "constant": false,
      "inputs": [
        {
          "name": "_spender",
          "type": "address"
        },
        {
          "name": "_subtractedValue",
          "type": "uint256"
        }
      ],
      "name": "decreaseApproval",
      "outputs": [
        {
          "name": "",
          "type": "bool"
        }
      ],
      "payable": false,
      "stateMutability": "nonpayable",
      "type": "function"
    },
    {
      "constant": false,
      "inputs": [
        {
          "name": "_token",
          "type": "address"
        },
        {
          "name": "_to",
          "type": "address"
        }
      ],
      "name": "claimTokens",
      "outputs": [],
      "payable": false,
      "stateMutability": "nonpayable",
      "type": "function"
    },
    {
      "constant": true,
      "inputs": [
        {
          "name": "_owner",
          "type": "address"
        }
      ],
      "name": "balanceOf",
      "outputs": [
        {
          "name": "",
          "type": "uint256"
        }
      ],
      "payable": false,
      "stateMutability": "view",
      "type": "function"
    },
    {
      "constant": false,
      "inputs": [],
      "name": "renounceOwnership",
      "outputs": [],
      "payable": false,
      "stateMutability": "nonpayable",
      "type": "function"
    },
    {
      "constant": false,
      "inputs": [],
      "name": "finishMinting",
      "outputs": [
        {
          "name": "",
          "type": "bool"
        }
      ],
      "payable": false,
      "stateMutability": "nonpayable",
      "type": "function"
    },
    {
      "constant": true,
      "inputs": [],
      "name": "getTokenInterfacesVersion",
      "outputs": [
        {
          "name": "major",
          "type": "uint64"
        },
        {
          "name": "minor",
          "type": "uint64"
        },
        {
          "name": "patch",
          "type": "uint64"
        }
      ],
      "payable": false,
      "stateMutability": "pure",
      "type": "function"
    },
    {
      "constant": true,
      "inputs": [],
      "name": "owner",
      "outputs": [
        {
          "name": "",
          "type": "address"
        }
      ],
      "payable": false,
      "stateMutability": "view",
      "type": "function"
    },
    {
      "constant": true,
      "inputs": [],
      "name": "symbol",
      "outputs": [
        {
          "name": "",
          "type": "string"
        }
      ],
      "payable": false,
      "stateMutability": "view",
      "type": "function"
    },
    {
      "constant": false,
      "inputs": [
        {
          "name": "_stakingContract",
          "type": "address"
        }
      ],
      "name": "setStakingContract",
      "outputs": [],
      "payable": false,
      "stateMutability": "nonpayable",
      "type": "function"
    },
    {
      "constant": false,
      "inputs": [
        {
          "name": "_to",
          "type": "address"
        },
        {
          "name": "_value",
          "type": "uint256"
        }
      ],
      "name": "transfer",
      "outputs": [
        {
          "name": "",
          "type": "bool"
        }
      ],
      "payable": false,
      "stateMutability": "nonpayable",
      "type": "function"
    },
    {
      "constant": false,
      "inputs": [
        {
          "name": "_staker",
          "type": "address"
        },
        {
          "name": "_amount",
          "type": "uint256"
        }
      ],
      "name": "stake",
      "outputs": [],
      "payable": false,
      "stateMutability": "nonpayable",
      "type": "function"
    },
    {
      "constant": true,
      "inputs": [],
      "name": "bridgeContract",
      "outputs": [
        {
          "name": "",
          "type": "address"
        }
      ],
      "payable": false,
      "stateMutability": "view",
      "type": "function"
    },
    {
      "constant": false,
      "inputs": [
        {
          "name": "_spender",
          "type": "address"
        },
        {
          "name": "_addedValue",
          "type": "uint256"
        }
      ],
      "name": "increaseApproval",
      "outputs": [
        {
          "name": "",
          "type": "bool"
        }
      ],
      "payable": false,
      "stateMutability": "nonpayable",
      "type": "function"
    },
    {
      "constant": true,
      "inputs": [
        {
          "name": "_owner",
          "type": "address"
        },
        {
          "name": "_spender",
          "type": "address"
        }
      ],
      "name": "allowance",
      "outputs": [
        {
          "name": "",
          "type": "uint256"
        }
      ],
      "payable": false,
      "stateMutability": "view",
      "type": "function"
    },
    {
      "constant": false,
      "inputs": [
        {
          "name": "_receivers",
          "type": "address[]"
        },
        {
          "name": "_rewards",
          "type": "uint256[]"
        }
      ],
      "name": "mintReward",
      "outputs": [],
      "payable": false,
      "stateMutability": "nonpayable",
      "type": "function"
    },
    {
      "constant": true,
      "inputs": [],
      "name": "stakingContract",
      "outputs": [
        {
          "name": "",
          "type": "address"
        }
      ],
      "payable": false,
      "stateMutability": "view",
      "type": "function"
    },
    {
      "constant": false,
      "inputs": [
        {
          "name": "_newOwner",
          "type": "address"
        }
      ],
      "name": "transferOwnership",
      "outputs": [],
      "payable": false,
      "stateMutability": "nonpayable",
      "type": "function"
    },
    {
      "inputs": [
        {
          "name": "_name",
          "type": "string"
        },
        {
          "name": "_symbol",
          "type": "string"
        },
        {
          "name": "_decimals",
          "type": "uint8"
        }
      ],
      "payable": false,
      "stateMutability": "nonpayable",
      "type": "constructor"
    },
    {
      "anonymous": false,
      "inputs": [
        {
          "indexed": false,
          "name": "from",
          "type": "address"
        },
        {
          "indexed": false,
          "name": "to",
          "type": "address"
        },
        {
          "indexed": false,
          "name": "value",
          "type": "uint256"
        }
      ],
      "name": "ContractFallbackCallFailed",
      "type": "event"
    },
    {
      "anonymous": false,
      "inputs": [
        {
          "indexed": true,
          "name": "to",
          "type": "address"
        },
        {
          "indexed": false,
          "name": "amount",
          "type": "uint256"
        }
      ],
      "name": "Mint",
      "type": "event"
    },
    {
      "anonymous": false,
      "inputs": [],
      "name": "MintFinished",
      "type": "event"
    },
    {
      "anonymous": false,
      "inputs": [
        {
          "indexed": true,
          "name": "previousOwner",
          "type": "address"
        }
      ],
      "name": "OwnershipRenounced",
      "type": "event"
    },
    {
      "anonymous": false,
      "inputs": [
        {
          "indexed": true,
          "name": "previousOwner",
          "type": "address"
        },
        {
          "indexed": true,
          "name": "newOwner",
          "type": "address"
        }
      ],
      "name": "OwnershipTransferred",
      "type": "event"
    },
    {
      "anonymous": false,
      "inputs": [
        {
          "indexed": true,
          "name": "burner",
          "type": "address"
        },
        {
          "indexed": false,
          "name": "value",
          "type": "uint256"
        }
      ],
      "name": "Burn",
      "type": "event"
    },
    {
      "anonymous": false,
      "inputs": [
        {
          "indexed": true,
          "name": "from",
          "type": "address"
        },
        {
          "indexed": true,
          "name": "to",
          "type": "address"
        },
        {
          "indexed": false,
          "name": "value",
          "type": "uint256"
        },
        {
          "indexed": false,
          "name": "data",
          "type": "bytes"
        }
      ],
      "name": "Transfer",
      "type": "event"
    },
    {
      "anonymous": false,
      "inputs": [
        {
          "indexed": true,
          "name": "owner",
          "type": "address"
        },
        {
          "indexed": true,
          "name": "spender",
          "type": "address"
        },
        {
          "indexed": false,
          "name": "value",
          "type": "uint256"
        }
      ],
      "name": "Approval",
      "type": "event"
    },
    {
      "anonymous": false,
      "inputs": [
        {
          "indexed": true,
          "name": "from",
          "type": "address"
        },
        {
          "indexed": true,
          "name": "to",
          "type": "address"
        },
        {
          "indexed": false,
          "name": "value",
          "type": "uint256"
        }
      ],
      "name": "Transfer",
      "type": "event"
    },
    {
      "constant": false,
      "inputs": [
        {
          "name": "_blockRewardContract",
          "type": "address"
        }
      ],
      "name": "setBlockRewardContractMock",
      "outputs": [],
      "payable": false,
      "stateMutability": "nonpayable",
      "type": "function"
    },
    {
      "constant": false,
      "inputs": [
        {
          "name": "_stakingContract",
          "type": "address"
        }
      ],
      "name": "setStakingContractMock",
      "outputs": [],
      "payable": false,
      "stateMutability": "nonpayable",
      "type": "function"
    }
  ],
  "bytecode": "0x60806040526006805460a060020a60ff02191690553480156200002157600080fd5b5060405162001a1e38038062001a1e8339810160409081528151602080840151928401519184018051909493909301928491849184918491849184918491849184916200007491600091860190620000c4565b5081516200008a906001906020850190620000c4565b506002805460ff90921660ff19909216919091179055505060068054600160a060020a031916331790555062000169975050505050505050565b828054600181600116156101000203166002900490600052602060002090601f016020900481019282601f106200010757805160ff191683800117855562000137565b8280016001018555821562000137579182015b82811115620001375782518255916020019190600101906200011a565b506200014592915062000149565b5090565b6200016691905b8082111562000145576000815560010162000150565b90565b6118a580620001796000396000f30060806040526004361061018a5763ffffffff7c010000000000000000000000000000000000000000000000000000000060003504166305d2035b811461018f57806306fdde03146101b8578063095ea7b3146102425780630b26cf661461026657806318160ddd1461028957806323b872dd146102b057806327a3e16b146102da578063313ce567146102fb5780634000aea01461032657806340c10f191461035757806342966c681461037b57806356b54bae1461039357806366188463146103c457806369ffa08a146103e857806370a082311461040f578063715018a6146104305780637d64bcb414610445578063859ba28c1461045a5780638da5cb5b1461049b57806395d89b41146104b05780639c55af4c146104c55780639dd373b9146104e6578063a608512814610507578063a9059cbb14610528578063adc9772e1461054c578063cd59658314610570578063d73dd62314610585578063dd62ed3e146105a9578063e2f764a3146105d0578063ee99205c146105fc578063f2fde38b14610611575b600080fd5b34801561019b57600080fd5b506101a4610632565b604080519115158252519081900360200190f35b3480156101c457600080fd5b506101cd610653565b6040805160208082528351818301528351919283929083019185019080838360005b838110156102075781810151838201526020016101ef565b50505050905090810190601f1680156102345780820380516001836020036101000a031916815260200191505b509250505060405180910390f35b34801561024e57600080fd5b506101a4600160a060020a03600435166024356106e1565b34801561027257600080fd5b50610287600160a060020a0360043516610747565b005b34801561029557600080fd5b5061029e6107a1565b60408051918252519081900360200190f35b3480156102bc57600080fd5b506101a4600160a060020a03600435811690602435166044356107a7565b3480156102e657600080fd5b50610287600160a060020a03600435166107d8565b34801561030757600080fd5b50610310610832565b6040805160ff9092168252519081900360200190f35b34801561033257600080fd5b506101a460048035600160a060020a031690602480359160443591820191013561083b565b34801561036357600080fd5b506101a4600160a060020a036004351660243561094c565b34801561038757600080fd5b50610287600435610a57565b34801561039f57600080fd5b506103a8610a64565b60408051600160a060020a039092168252519081900360200190f35b3480156103d057600080fd5b506101a4600160a060020a0360043516602435610a73565b3480156103f457600080fd5b50610287600160a060020a0360043581169060243516610b62565b34801561041b57600080fd5b5061029e600160a060020a0360043516610b9e565b34801561043c57600080fd5b50610287610bb9565b34801561045157600080fd5b506101a4610bd0565b34801561046657600080fd5b5061046f610bd7565b6040805167ffffffffffffffff9485168152928416602084015292168183015290519081900360600190f35b3480156104a757600080fd5b506103a8610be2565b3480156104bc57600080fd5b506101cd610bf1565b3480156104d157600080fd5b50610287600160a060020a0360043516610803565b3480156104f257600080fd5b50610287600160a060020a0360043516610c4b565b34801561051357600080fd5b50610287600160a060020a0360043516610c89565b34801561053457600080fd5b506101a4600160a060020a0360043516602435610cb8565b34801561055857600080fd5b50610287600160a060020a0360043516602435610ce7565b34801561057c57600080fd5b506103a8610db0565b34801561059157600080fd5b506101a4600160a060020a0360043516602435610dbf565b3480156105b557600080fd5b5061029e600160a060020a0360043581169060243516610e58565b3480156105dc57600080fd5b506102876024600480358281019290820135918135918201910135610e83565b34801561060857600080fd5b506103a8610fcc565b34801561061d57600080fd5b50610287600160a060020a0360043516610fdb565b60065474010000000000000000000000000000000000000000900460ff1681565b6000805460408051602060026001851615610100026000190190941693909304601f810184900484028201840190925281815292918301828280156106d95780601f106106ae576101008083540402835291602001916106d9565b820191906000526020600020905b8154815290600101906020018083116106bc57829003601f168201915b505050505081565b336000818152600560209081526040808320600160a060020a038716808552908352818420869055815186815291519394909390927f8c5be1e5ebec7d5bd14f71427d1e84f3dd0314c0f7b2291e5b200ac8c7c3b925928290030190a350600192915050565b600654600160a060020a0316331461075e57600080fd5b61076781610ffb565b151561077257600080fd5b6007805473ffffffffffffffffffffffffffffffffffffffff1916600160a060020a0392909216919091179055565b60045490565b600954600090600160a060020a03848116911614156107c557600080fd5b6107d0848484611003565b949350505050565b600654600160a060020a031633146107ef57600080fd5b6107f881610ffb565b151561080357600080fd5b6008805473ffffffffffffffffffffffffffffffffffffffff1916600160a060020a0392909216919091179055565b60025460ff1681565b600084600160a060020a0381161580159061085f5750600160a060020a0381163014155b151561086a57600080fd5b6108748686611030565b151561087f57600080fd5b85600160a060020a031633600160a060020a03167fe19260aff97b920c7df27010903aeb9c8d2be5d310a2c67824cf3f15396e4c16878787604051808481526020018060200182810382528484828181526020019250808284376040519201829003965090945050505050a36108f486610ffb565b156109405761093533878787878080601f0160208091040260200160405190810160405280939291908181526020018383808284375061103c945050505050565b151561094057600080fd5b50600195945050505050565b600654600090600160a060020a0316331461096657600080fd5b60065474010000000000000000000000000000000000000000900460ff161561098e57600080fd5b6004546109a1908363ffffffff6111a716565b600455600160a060020a0383166000908152600360205260409020546109cd908363ffffffff6111a716565b600160a060020a038416600081815260036020908152604091829020939093558051858152905191927f0f6798a560793a54c3bcfe86a93cde1e73087d944c0ea20544137d412139688592918290030190a2604080518381529051600160a060020a0385169160009160008051602061185a8339815191529181900360200190a350600192915050565b610a6133826111ba565b50565b600854600160a060020a031681565b336000908152600560209081526040808320600160a060020a0386168452909152812054808310610ac757336000908152600560209081526040808320600160a060020a0388168452909152812055610afc565b610ad7818463ffffffff6112a916565b336000908152600560209081526040808320600160a060020a03891684529091529020555b336000818152600560209081526040808320600160a060020a0389168085529083529281902054815190815290519293927f8c5be1e5ebec7d5bd14f71427d1e84f3dd0314c0f7b2291e5b200ac8c7c3b925929181900390910190a35060019392505050565b600654600160a060020a03163314610b7957600080fd5b80600160a060020a0381161515610b8f57600080fd5b610b9983836112bb565b505050565b600160a060020a031660009081526003602052604090205490565b600654600160a060020a0316331461018a57600080fd5b6000806000fd5b600260016000909192565b600654600160a060020a031681565b60018054604080516020600284861615610100026000190190941693909304601f810184900484028201840190925281815292918301828280156106d95780601f106106ae576101008083540402835291602001916106d9565b600654600160a060020a03163314610c6257600080fd5b610c6b81610ffb565b1515610c7657600080fd5b610c7f81610b9e565b15610c8957600080fd5b6009805473ffffffffffffffffffffffffffffffffffffffff1916600160a060020a0392909216919091179055565b600954600090600160a060020a0384811691161415610cd657600080fd5b610ce083836112e7565b9392505050565b600954600160a060020a03163314610cfe57600080fd5b600160a060020a038216600090815260036020526040902054610d27908263ffffffff6112a916565b600160a060020a038084166000908152600360205260408082209390935560095490911681522054610d5f908263ffffffff6111a716565b60098054600160a060020a0390811660009081526003602090815260409182902094909455915482518581529251908216939186169260008051602061185a83398151915292908290030190a35050565b600754600160a060020a031681565b336000908152600560209081526040808320600160a060020a0386168452909152812054610df3908363ffffffff6111a716565b336000818152600560209081526040808320600160a060020a0389168085529083529281902085905580519485525191937f8c5be1e5ebec7d5bd14f71427d1e84f3dd0314c0f7b2291e5b200ac8c7c3b925929081900390910190a350600192915050565b600160a060020a03918216600090815260056020908152604080832093909416825291909152205490565b600854600090819081908190600160a060020a03163314610ea357600080fd5b869350600092505b83831015610fc257858584818110610ebf57fe5b9050602002013591508160001415610ed657610fb7565b878784818110610ee257fe5b90506020020135600160a060020a03169050610f09826004546111a790919063ffffffff16565b600455600160a060020a038116600090815260036020526040902054610f35908363ffffffff6111a716565b600160a060020a038216600081815260036020908152604091829020939093558051858152905191927f0f6798a560793a54c3bcfe86a93cde1e73087d944c0ea20544137d412139688592918290030190a2604080518381529051600160a060020a0383169160009160008051602061185a8339815191529181900360200190a35b600190920191610eab565b5050505050505050565b600954600160a060020a031681565b600654600160a060020a03163314610ff257600080fd5b610a6181611312565b6000903b1190565b6000611010848484611390565b151561101b57600080fd5b6110268484846114f5565b5060019392505050565b6000610ce08383611594565b600083600160a060020a03168584846040516024018084600160a060020a0316600160a060020a0316815260200183815260200180602001828103825283818151815260200191508051906020019080838360005b838110156110a9578181015183820152602001611091565b50505050905090810190601f1680156110d65780820380516001836020036101000a031916815260200191505b5060408051601f198184030181529181526020820180517bffffffffffffffffffffffffffffffffffffffffffffffffffffffff167fa4c0ed36000000000000000000000000000000000000000000000000000000001781529051825192975095508594509250905080838360005b8381101561115d578181015183820152602001611145565b50505050905090810190601f16801561118a5780820380516001836020036101000a031916815260200191505b509150506000604051808303816000865af1979650505050505050565b818101828110156111b457fe5b92915050565b600160a060020a0382166000908152600360205260409020548111156111df57600080fd5b600160a060020a038216600090815260036020526040902054611208908263ffffffff6112a916565b600160a060020a038316600090815260036020526040902055600454611234908263ffffffff6112a916565b600455604080518281529051600160a060020a038416917fcc16f5dbb4873280815c1ee09dbd06736cffcc184412cf7a71a0fdb75d397ca5919081900360200190a2604080518281529051600091600160a060020a0385169160008051602061185a8339815191529181900360200190a35050565b6000828211156112b557fe5b50900390565b600160a060020a03821615156112d9576112d481611663565b6112e3565b6112e382826116ce565b5050565b60006112f38383611030565b15156112fe57600080fd5b6113093384846114f5565b50600192915050565b600160a060020a038116151561132757600080fd5b600654604051600160a060020a038084169216907f8be0079c531659141344cd1fd0a4f28419497f9722a3daafe3b4186f6b6457e090600090a36006805473ffffffffffffffffffffffffffffffffffffffff1916600160a060020a0392909216919091179055565b600160a060020a0383166000908152600360205260408120548211156113b557600080fd5b600160a060020a03841660009081526005602090815260408083203384529091529020548211156113e557600080fd5b600160a060020a03831615156113fa57600080fd5b600160a060020a038416600090815260036020526040902054611423908363ffffffff6112a916565b600160a060020a038086166000908152600360205260408082209390935590851681522054611458908363ffffffff6111a716565b600160a060020a03808516600090815260036020908152604080832094909455918716815260058252828120338252909152205461149c908363ffffffff6112a916565b600160a060020a038086166000818152600560209081526040808320338452825291829020949094558051868152905192871693919260008051602061185a833981519152929181900390910190a35060019392505050565b6114fe82610ffb565b801561152557506040805160008152602081019091526115239084908490849061103c565b155b15610b9957600754600160a060020a038381169116141561154557600080fd5b60408051600160a060020a0380861682528416602082015280820183905290517f11249f0fc79fc134a15a10d1da8291b79515bf987e036ced05b9ec119614070b9181900360600190a1505050565b336000908152600360205260408120548211156115b057600080fd5b600160a060020a03831615156115c557600080fd5b336000908152600360205260409020546115e5908363ffffffff6112a916565b3360009081526003602052604080822092909255600160a060020a03851681522054611617908363ffffffff6111a716565b600160a060020a03841660008181526003602090815260409182902093909355805185815290519192339260008051602061185a8339815191529281900390910190a350600192915050565b604051303190600160a060020a0383169082156108fc029083906000818181858888f1935050505015156112e357808261169b611829565b600160a060020a039091168152604051908190036020019082f0801580156116c7573d6000803e3d6000fd5b5050505050565b604080517f70a0823100000000000000000000000000000000000000000000000000000000815230600482015290518391600091600160a060020a038416916370a0823191602480830192602092919082900301818787803b15801561173357600080fd5b505af1158015611747573d6000803e3d6000fd5b505050506040513d602081101561175d57600080fd5b5051905061176c848483611772565b50505050565b60408051600160a060020a03841660248201526044808201849052825180830390910181526064909101909152602081810180517bffffffffffffffffffffffffffffffffffffffffffffffffffffffff167fa9059cbb000000000000000000000000000000000000000000000000000000001781528251606093600093909290918491828a5af1600051935083925080801561018a5750506000835111156118215781151561182157600080fd5b505050505050565b604051602180611839833901905600608060405260405160208060218339810160405251600160a060020a038116ff00ddf252ad1be2c89b69c2b068fc378daa952ba7f163c4a11628f55a4df523b3efa165627a7a7230582074249a93d6a6d2f04c7e8315489221e1e5992b934d9e7b8af048aaad5d45e19c0029",
  "source": "pragma solidity 0.4.24;\n\nimport \"../ERC677BridgeTokenRewardable.sol\";\n\ncontract ERC677BridgeTokenRewardableMock is ERC677BridgeTokenRewardable {\n    constructor(string _name, string _symbol, uint8 _decimals)\n        public\n        ERC677BridgeTokenRewardable(_name, _symbol, _decimals)\n    {\n        // solhint-disable-previous-line no-empty-blocks\n    }\n\n    function setBlockRewardContractMock(address _blockRewardContract) public {\n        blockRewardContract = _blockRewardContract;\n    }\n\n    function setStakingContractMock(address _stakingContract) public {\n        stakingContract = _stakingContract;\n    }\n\n}\n",
  "sourcePath": "/contracts/contracts/mocks/ERC677BridgeTokenRewardableMock.sol",
  "compiler": {
    "name": "solc",
    "version": "0.4.24+commit.e67f0147.Emscripten.clang"
  },
  "schemaVersion": "3.0.9",
  "updatedAt": "2019-09-30T13:18:39.241Z",
  "devdoc": {
    "methods": {
      "allowance(address,address)": {
        "details": "Function to check the amount of tokens that an owner allowed to a spender.",
        "params": {
          "_owner": "address The address which owns the funds.",
          "_spender": "address The address which will spend the funds."
        },
        "return": "A uint256 specifying the amount of tokens still available for the spender."
      },
      "approve(address,uint256)": {
        "details": "Approve the passed address to spend the specified amount of tokens on behalf of msg.sender. Beware that changing an allowance with this method brings the risk that someone may use both the old and the new allowance by unfortunate transaction ordering. One possible solution to mitigate this race condition is to first reduce the spender's allowance to 0 and set the desired value afterwards: https://github.com/ethereum/EIPs/issues/20#issuecomment-263524729",
        "params": {
          "_spender": "The address which will spend the funds.",
          "_value": "The amount of tokens to be spent."
        }
      },
      "balanceOf(address)": {
        "details": "Gets the balance of the specified address.",
        "params": {
          "_owner": "The address to query the the balance of."
        },
        "return": "An uint256 representing the amount owned by the passed address."
      },
      "burn(uint256)": {
        "details": "Burns a specific amount of tokens.",
        "params": {
          "_value": "The amount of token to be burned."
        }
      },
      "decreaseApproval(address,uint256)": {
        "details": "Decrease the amount of tokens that an owner allowed to a spender. approve should be called when allowed[_spender] == 0. To decrement allowed value is better to use this function to avoid 2 calls (and wait until the first transaction is mined) From MonolithDAO Token.sol",
        "params": {
          "_spender": "The address which will spend the funds.",
          "_subtractedValue": "The amount of tokens to decrease the allowance by."
        }
      },
      "increaseApproval(address,uint256)": {
        "details": "Increase the amount of tokens that an owner allowed to a spender. approve should be called when allowed[_spender] == 0. To increment allowed value is better to use this function to avoid 2 calls (and wait until the first transaction is mined) From MonolithDAO Token.sol",
        "params": {
          "_addedValue": "The amount of tokens to increase the allowance by.",
          "_spender": "The address which will spend the funds."
        }
      },
      "mint(address,uint256)": {
        "details": "Function to mint tokens",
        "params": {
          "_amount": "The amount of tokens to mint.",
          "_to": "The address that will receive the minted tokens."
        },
        "return": "A boolean that indicates if the operation was successful."
      },
      "totalSupply()": {
        "details": "Total number of tokens in existence"
      },
      "transferOwnership(address)": {
        "details": "Allows the current owner to transfer control of the contract to a newOwner.",
        "params": {
          "_newOwner": "The address to transfer ownership to."
        }
      }
    }
  },
  "userdoc": {
    "methods": {}
  }
}