{
  "contractName": "FeeManagerErcToNativePOSDAO",
  "abi": [
    {
      "constant": false,
      "inputs": [
        {
          "name": "_fee",
          "type": "uint256"
        }
      ],
      "name": "distributeFeeFromAffirmation",
      "outputs": [],
      "payable": false,
      "stateMutability": "nonpayable",
      "type": "function"
    },
    {
      "constant": false,
      "inputs": [
        {
          "name": "_fee",
          "type": "uint256"
        }
      ],
      "name": "setForeignFee",
      "outputs": [],
      "payable": false,
      "stateMutability": "nonpayable",
      "type": "function"
    },
    {
      "constant": false,
      "inputs": [
        {
          "name": "_fee",
          "type": "uint256"
        }
      ],
      "name": "setHomeFee",
      "outputs": [],
      "payable": false,
      "stateMutability": "nonpayable",
      "type": "function"
    },
    {
      "constant": false,
      "inputs": [
        {
          "name": "_fee",
          "type": "uint256"
        }
      ],
      "name": "distributeFeeFromSignatures",
      "outputs": [],
      "payable": false,
      "stateMutability": "nonpayable",
      "type": "function"
    },
    {
      "constant": true,
      "inputs": [],
      "name": "getHomeFee",
      "outputs": [
        {
          "name": "",
          "type": "uint256"
        }
      ],
      "payable": false,
      "stateMutability": "view",
      "type": "function"
    },
    {
      "constant": true,
      "inputs": [
        {
          "name": "_value",
          "type": "uint256"
        },
        {
          "name": "_recover",
          "type": "bool"
        },
        {
          "name": "_feeType",
          "type": "bytes32"
        }
      ],
      "name": "calculateFee",
      "outputs": [
        {
          "name": "",
          "type": "uint256"
        }
      ],
      "payable": false,
      "stateMutability": "view",
      "type": "function"
    },
    {
      "constant": true,
      "inputs": [],
      "name": "getForeignFee",
      "outputs": [
        {
          "name": "",
          "type": "uint256"
        }
      ],
      "payable": false,
      "stateMutability": "view",
      "type": "function"
    },
    {
      "anonymous": false,
      "inputs": [
        {
          "indexed": false,
          "name": "fee",
          "type": "uint256"
        }
      ],
      "name": "HomeFeeUpdated",
      "type": "event"
    },
    {
      "anonymous": false,
      "inputs": [
        {
          "indexed": false,
          "name": "fee",
          "type": "uint256"
        }
      ],
      "name": "ForeignFeeUpdated",
      "type": "event"
    },
    {
      "constant": true,
      "inputs": [],
      "name": "getFeeManagerMode",
      "outputs": [
        {
          "name": "",
          "type": "bytes4"
        }
      ],
      "payable": false,
      "stateMutability": "pure",
      "type": "function"
    },
    {
      "constant": true,
      "inputs": [
        {
          "name": "_value",
          "type": "uint256"
        }
      ],
      "name": "getAmountToBurn",
      "outputs": [
        {
          "name": "",
          "type": "uint256"
        }
      ],
      "payable": false,
      "stateMutability": "view",
      "type": "function"
    }
  ],
  "bytecode": "0x608060405234801561001057600080fd5b50610883806100206000396000f3006080604052600436106100985763ffffffff7c0100000000000000000000000000000000000000000000000000000000600035041663054d46ec811461009d578063286c4066146100b757806334a9e148146100cf57806359d784641461009d578063916850e9146100e757806394da17cd146101115780639862f26f14610126578063f2ba956114610146578063ffd6619614610190575b600080fd5b3480156100a957600080fd5b506100b56004356101a5565b005b3480156100c357600080fd5b506100b56004356101b1565b3480156100db57600080fd5b506100b56004356102ad565b3480156100f357600080fd5b506100ff6004356103a9565b60408051918252519081900360200190f35b34801561011d57600080fd5b506100ff6103ac565b34801561013257600080fd5b506100ff6004356024351515604435610460565b34801561015257600080fd5b5061015b610589565b604080517fffffffff000000000000000000000000000000000000000000000000000000009092168252519081900360200190f35b34801561019c57600080fd5b506100ff61062c565b6101ae8161069f565b50565b80670de0b6b3a764000081106101c657600080fd5b8160008060405160200180807f666f726569676e46656500000000000000000000000000000000000000000000815250600a0190506040516020818303038152906040526040518082805190602001908083835b602083106102395780518252601f19909201916020918201910161021a565b51815160001960209485036101000a019081169019919091161790526040805194909201849003909320865285830196909652509284016000209490945550815185815291517fa1bb1f345e2d0374ec182de8bb6e574798f6b4b3e89046d75c479d7d5620c2169350918290030190a15050565b80670de0b6b3a764000081106102c257600080fd5b8160008060405160200180807f686f6d654665650000000000000000000000000000000000000000000000000081525060070190506040516020818303038152906040526040518082805190602001908083835b602083106103355780518252601f199092019160209182019101610316565b51815160001960209485036101000a019081169019919091161790526040805194909201849003909320865285830196909652509284016000209490945550815185815291517f64afb51b44460415972849f8c01723cf624c005cbadf1024a2d8568694b73ac19350918290030190a15050565b90565b600080600060405160200180807f686f6d654665650000000000000000000000000000000000000000000000000081525060070190506040516020818303038152906040526040518082805190602001908083835b602083106104205780518252601f199092019160209182019101610401565b51815160209384036101000a6000190180199092169116179052604080519290940182900390912086528501959095529290920160002054949350505050565b60008060405160200180807f686f6d652d66656500000000000000000000000000000000000000000000000081525060080190506040516020818303038152906040526040518082805190602001908083835b602083106104d25780518252601f1990920191602091820191016104b3565b5181516020939093036101000a60001901801990911692169190911790526040519201829003909120861492506105139150505761050e61062c565b61051b565b61051b6103ac565b90508315156105535761054c670de0b6b3a7640000610540878463ffffffff61073616565b9063ffffffff61076516565b9150610581565b61057e61056e670de0b6b3a76400008363ffffffff61077a16565b610540878463ffffffff61073616565b91505b509392505050565b600060405160200180807f6d616e616765732d626f74682d646972656374696f6e7300000000000000000081525060170190506040516020818303038152906040526040518082805190602001908083835b602083106105fa5780518252601f1990920191602091820191016105db565b6001836020036101000a0380198251168184511680821785525050505050509050019150506040518091039020905090565b600080600060405160200180807f666f726569676e46656500000000000000000000000000000000000000000000815250600a019050604051602081830303815290604052604051808280519060200190808383602083106104205780518252601f199092019160209182019101610401565b60006106a961078c565b90508073ffffffffffffffffffffffffffffffffffffffff166353251389836040518263ffffffff167c010000000000000000000000000000000000000000000000000000000002815260040180828152602001915050600060405180830381600087803b15801561071a57600080fd5b505af115801561072e573d6000803e3d6000fd5b505050505050565b60008215156107475750600061075f565b5081810281838281151561075757fe5b041461075f57fe5b92915050565b6000818381151561077257fe5b049392505050565b60008282111561078657fe5b50900390565b60006002600060405160200180807f626c6f636b526577617264436f6e74726163740000000000000000000000000081525060130190506040516020818303038152906040526040518082805190602001908083835b602083106108015780518252601f1990920191602091820191016107e2565b51815160209384036101000a600019018019909216911617905260408051929094018290039091208652850195909552929092016000205473ffffffffffffffffffffffffffffffffffffffff169493505050505600a165627a7a7230582056b2aa66268883f0c40e229bb5b69888aea8550cbc48703f8fb73617c0571ab20029",
  "source": "pragma solidity 0.4.24;\n\nimport \"../../interfaces/IBlockReward.sol\";\nimport \"../BlockRewardFeeManager.sol\";\n\ncontract FeeManagerErcToNativePOSDAO is BlockRewardFeeManager {\n    function getFeeManagerMode() external pure returns (bytes4) {\n        return bytes4(keccak256(abi.encodePacked(\"manages-both-directions\")));\n    }\n\n    function distributeFeeFromBlockReward(uint256 _fee) internal {\n        IBlockReward blockReward = _blockRewardContract();\n        blockReward.addBridgeNativeFeeReceivers(_fee);\n    }\n\n    function getAmountToBurn(uint256 _value) public view returns (uint256) {\n        return _value;\n    }\n}\n",
  "sourcePath": "/contracts/contracts/upgradeable_contracts/erc20_to_native/FeeManagerErcToNativePOSDAO.sol",
  "compiler": {
    "name": "solc",
    "version": "0.4.24+commit.e67f0147.Emscripten.clang"
  },
  "schemaVersion": "3.0.9",
  "updatedAt": "2019-09-30T13:18:39.325Z",
  "devdoc": {
    "methods": {}
  },
  "userdoc": {
    "methods": {}
  }
}