{
  "contractName": "FeeManagerErcToErcPOSDAO",
  "abi": [
    {
      "constant": false,
      "inputs": [
        {
          "name": "_fee",
          "type": "uint256"
        }
      ],
      "name": "distributeFeeFromAffirmation",
      "outputs": [],
      "payable": false,
      "stateMutability": "nonpayable",
      "type": "function"
    },
    {
      "constant": false,
      "inputs": [
        {
          "name": "_fee",
          "type": "uint256"
        }
      ],
      "name": "setForeignFee",
      "outputs": [],
      "payable": false,
      "stateMutability": "nonpayable",
      "type": "function"
    },
    {
      "constant": false,
      "inputs": [
        {
          "name": "_fee",
          "type": "uint256"
        }
      ],
      "name": "setHomeFee",
      "outputs": [],
      "payable": false,
      "stateMutability": "nonpayable",
      "type": "function"
    },
    {
      "constant": false,
      "inputs": [
        {
          "name": "_fee",
          "type": "uint256"
        }
      ],
      "name": "distributeFeeFromSignatures",
      "outputs": [],
      "payable": false,
      "stateMutability": "nonpayable",
      "type": "function"
    },
    {
      "constant": true,
      "inputs": [],
      "name": "getHomeFee",
      "outputs": [
        {
          "name": "",
          "type": "uint256"
        }
      ],
      "payable": false,
      "stateMutability": "view",
      "type": "function"
    },
    {
      "constant": true,
      "inputs": [
        {
          "name": "_value",
          "type": "uint256"
        },
        {
          "name": "_recover",
          "type": "bool"
        },
        {
          "name": "_feeType",
          "type": "bytes32"
        }
      ],
      "name": "calculateFee",
      "outputs": [
        {
          "name": "",
          "type": "uint256"
        }
      ],
      "payable": false,
      "stateMutability": "view",
      "type": "function"
    },
    {
      "constant": true,
      "inputs": [],
      "name": "getForeignFee",
      "outputs": [
        {
          "name": "",
          "type": "uint256"
        }
      ],
      "payable": false,
      "stateMutability": "view",
      "type": "function"
    },
    {
      "anonymous": false,
      "inputs": [
        {
          "indexed": false,
          "name": "fee",
          "type": "uint256"
        }
      ],
      "name": "HomeFeeUpdated",
      "type": "event"
    },
    {
      "anonymous": false,
      "inputs": [
        {
          "indexed": false,
          "name": "fee",
          "type": "uint256"
        }
      ],
      "name": "ForeignFeeUpdated",
      "type": "event"
    },
    {
      "constant": true,
      "inputs": [],
      "name": "getFeeManagerMode",
      "outputs": [
        {
          "name": "",
          "type": "bytes4"
        }
      ],
      "payable": false,
      "stateMutability": "pure",
      "type": "function"
    },
    {
      "constant": true,
      "inputs": [],
      "name": "blockRewardContract",
      "outputs": [
        {
          "name": "",
          "type": "address"
        }
      ],
      "payable": false,
      "stateMutability": "view",
      "type": "function"
    },
    {
      "constant": false,
      "inputs": [
        {
          "name": "_blockReward",
          "type": "address"
        }
      ],
      "name": "setBlockRewardContract",
      "outputs": [],
      "payable": false,
      "stateMutability": "nonpayable",
      "type": "function"
    }
  ],
  "bytecode": "0x608060405234801561001057600080fd5b50610b7f806100206000396000f30060806040526004361061008a5763ffffffff60e060020a600035041663054d46ec811461008f57806327a3e16b146100a9578063286c4066146100ca57806334a9e148146100e257806356b54bae146100fa57806359d784641461008f57806394da17cd1461012b5780639862f26f14610152578063f2ba956114610172578063ffd66196146101b9575b600080fd5b34801561009b57600080fd5b506100a76004356101ce565b005b3480156100b557600080fd5b506100a7600160a060020a03600435166101da565b3480156100d657600080fd5b506100a76004356101e3565b3480156100ee57600080fd5b506100a76004356102df565b34801561010657600080fd5b5061010f6103db565b60408051600160a060020a039092168252519081900360200190f35b34801561013757600080fd5b506101406103ea565b60408051918252519081900360200190f35b34801561015e57600080fd5b50610140600435602435151560443561049e565b34801561017e57600080fd5b506101876105c7565b604080517bffffffffffffffffffffffffffffffffffffffffffffffffffffffff199092168252519081900360200190f35b3480156101c557600080fd5b5061014061066a565b6101d7816106dd565b50565b6101d78161074e565b80670de0b6b3a764000081106101f857600080fd5b8160008060405160200180807f666f726569676e46656500000000000000000000000000000000000000000000815250600a0190506040516020818303038152906040526040518082805190602001908083835b6020831061026b5780518252601f19909201916020918201910161024c565b51815160001960209485036101000a019081169019919091161790526040805194909201849003909320865285830196909652509284016000209490945550815185815291517fa1bb1f345e2d0374ec182de8bb6e574798f6b4b3e89046d75c479d7d5620c2169350918290030190a15050565b80670de0b6b3a764000081106102f457600080fd5b8160008060405160200180807f686f6d654665650000000000000000000000000000000000000000000000000081525060070190506040516020818303038152906040526040518082805190602001908083835b602083106103675780518252601f199092019160209182019101610348565b51815160001960209485036101000a019081169019919091161790526040805194909201849003909320865285830196909652509284016000209490945550815185815291517f64afb51b44460415972849f8c01723cf624c005cbadf1024a2d8568694b73ac19350918290030190a15050565b60006103e5610a37565b905090565b600080600060405160200180807f686f6d654665650000000000000000000000000000000000000000000000000081525060070190506040516020818303038152906040526040518082805190602001908083835b6020831061045e5780518252601f19909201916020918201910161043f565b51815160209384036101000a6000190180199092169116179052604080519290940182900390912086528501959095529290920160002054949350505050565b60008060405160200180807f686f6d652d66656500000000000000000000000000000000000000000000000081525060080190506040516020818303038152906040526040518082805190602001908083835b602083106105105780518252601f1990920191602091820191016104f1565b5181516020939093036101000a60001901801990911692169190911790526040519201829003909120861492506105519150505761054c61066a565b610559565b6105596103ea565b90508315156105915761058a670de0b6b3a764000061057e878463ffffffff610af516565b9063ffffffff610b2416565b91506105bf565b6105bc6105ac670de0b6b3a76400008363ffffffff610b3916565b61057e878463ffffffff610af516565b91505b509392505050565b600060405160200180807f6d616e616765732d626f74682d646972656374696f6e7300000000000000000081525060170190506040516020818303038152906040526040518082805190602001908083835b602083106106385780518252601f199092019160209182019101610619565b6001836020036101000a0380198251168184511680821785525050505050509050019150506040518091039020905090565b600080600060405160200180807f666f726569676e46656500000000000000000000000000000000000000000000815250600a0190506040516020818303038152906040526040518082805190602001908083836020831061045e5780518252601f19909201916020918201910161043f565b60006106e7610a37565b905080600160a060020a031663128b265f836040518263ffffffff1660e060020a02815260040180828152602001915050600060405180830381600087803b15801561073257600080fd5b505af1158015610746573d6000803e3d6000fd5b505050505050565b600061075982610b4b565b151561076457600080fd5b6000905081600160a060020a0316632ee57f8d60e060020a0260e060020a90046040518163ffffffff1660e060020a0281526004016000604051808303816000875af192505050156108965760405180807f626c6f636b526577617264000000000000000000000000000000000000000000815250600b01905060405180910390207bffffffffffffffffffffffffffffffffffffffffffffffffffffffff191682600160a060020a0316632ee57f8d6040518163ffffffff1660e060020a028152600401602060405180830381600087803b15801561084357600080fd5b505af1158015610857573d6000803e3d6000fd5b505050506040513d602081101561086d57600080fd5b50517bffffffffffffffffffffffffffffffffffffffffffffffffffffffff191614905061094d565b81600160a060020a03166310f2ee7c60e060020a0260e060020a90046040518163ffffffff1660e060020a0281526004016000604051808303816000875af1925050501561094d5781600160a060020a03166310f2ee7c6040518163ffffffff1660e060020a028152600401602060405180830381600087803b15801561091c57600080fd5b505af1158015610930573d6000803e3d6000fd5b505050506040513d602081101561094657600080fd5b5051151590505b80151561095957600080fd5b816002600060405160200180807f626c6f636b526577617264436f6e74726163740000000000000000000000000081525060130190506040516020818303038152906040526040518082805190602001908083835b602083106109cd5780518252601f1990920191602091820191016109ae565b51815160209384036101000a60001901801990921691161790526040805192909401829003909120865285019590955292909201600020805473ffffffffffffffffffffffffffffffffffffffff1916600160a060020a0395909516949094179093555050505050565b60006002600060405160200180807f626c6f636b526577617264436f6e74726163740000000000000000000000000081525060130190506040516020818303038152906040526040518082805190602001908083835b60208310610aac5780518252601f199092019160209182019101610a8d565b51815160209384036101000a6000190180199092169116179052604080519290940182900390912086528501959095529290920160002054600160a060020a0316949350505050565b6000821515610b0657506000610b1e565b50818102818382811515610b1657fe5b0414610b1e57fe5b92915050565b60008183811515610b3157fe5b049392505050565b600082821115610b4557fe5b50900390565b6000903b11905600a165627a7a7230582001a5d07abbf01eb1b303014517dffe4b60f918634093a5cb76b413a0591066f20029",
  "source": "pragma solidity 0.4.24;\n\nimport \"../BlockRewardFeeManager.sol\";\n\ncontract FeeManagerErcToErcPOSDAO is BlockRewardFeeManager {\n    function getFeeManagerMode() external pure returns (bytes4) {\n        return bytes4(keccak256(abi.encodePacked(\"manages-both-directions\")));\n    }\n\n    function blockRewardContract() external view returns (address) {\n        return _blockRewardContract();\n    }\n\n    function setBlockRewardContract(address _blockReward) external {\n        _setBlockRewardContract(_blockReward);\n    }\n\n    function distributeFeeFromBlockReward(uint256 _fee) internal {\n        IBlockReward blockReward = _blockRewardContract();\n        blockReward.addBridgeTokenFeeReceivers(_fee);\n    }\n}\n",
  "sourcePath": "/contracts/contracts/upgradeable_contracts/erc20_to_erc20/FeeManagerErcToErcPOSDAO.sol",
  "compiler": {
    "name": "solc",
    "version": "0.4.24+commit.e67f0147.Emscripten.clang"
  },
  "schemaVersion": "3.0.9",
  "updatedAt": "2019-09-30T13:18:39.310Z",
  "devdoc": {
    "methods": {}
  },
  "userdoc": {
    "methods": {}
  }
}