{
  "contractName": "ForeignBridgeErcToErc",
  "abi": [
    {
      "constant": true,
      "inputs": [],
      "name": "erc20token",
      "outputs": [
        {
          "name": "",
          "type": "address"
        }
      ],
      "payable": false,
      "stateMutability": "view",
      "type": "function"
    },
    {
      "constant": true,
      "inputs": [
        {
          "name": "_txHash",
          "type": "bytes32"
        }
      ],
      "name": "relayedMessages",
      "outputs": [
        {
          "name": "",
          "type": "bool"
        }
      ],
      "payable": false,
      "stateMutability": "view",
      "type": "function"
    },
    {
      "constant": false,
      "inputs": [
        {
          "name": "vs",
          "type": "uint8[]"
        },
        {
          "name": "rs",
          "type": "bytes32[]"
        },
        {
          "name": "ss",
          "type": "bytes32[]"
        },
        {
          "name": "message",
          "type": "bytes"
        }
      ],
      "name": "executeSignatures",
      "outputs": [],
      "payable": false,
      "stateMutability": "nonpayable",
      "type": "function"
    },
    {
      "constant": true,
      "inputs": [
        {
          "name": "_day",
          "type": "uint256"
        }
      ],
      "name": "totalSpentPerDay",
      "outputs": [
        {
          "name": "",
          "type": "uint256"
        }
      ],
      "payable": false,
      "stateMutability": "view",
      "type": "function"
    },
    {
      "constant": true,
      "inputs": [],
      "name": "isInitialized",
      "outputs": [
        {
          "name": "",
          "type": "bool"
        }
      ],
      "payable": false,
      "stateMutability": "view",
      "type": "function"
    },
    {
      "constant": false,
      "inputs": [
        {
          "name": "_dailyLimit",
          "type": "uint256"
        }
      ],
      "name": "setExecutionDailyLimit",
      "outputs": [],
      "payable": false,
      "stateMutability": "nonpayable",
      "type": "function"
    },
    {
      "constant": true,
      "inputs": [],
      "name": "getCurrentDay",
      "outputs": [
        {
          "name": "",
          "type": "uint256"
        }
      ],
      "payable": false,
      "stateMutability": "view",
      "type": "function"
    },
    {
      "constant": true,
      "inputs": [],
      "name": "requiredBlockConfirmations",
      "outputs": [
        {
          "name": "",
          "type": "uint256"
        }
      ],
      "payable": false,
      "stateMutability": "view",
      "type": "function"
    },
    {
      "constant": true,
      "inputs": [],
      "name": "getBridgeMode",
      "outputs": [
        {
          "name": "_data",
          "type": "bytes4"
        }
      ],
      "payable": false,
      "stateMutability": "pure",
      "type": "function"
    },
    {
      "constant": true,
      "inputs": [],
      "name": "executionDailyLimit",
      "outputs": [
        {
          "name": "",
          "type": "uint256"
        }
      ],
      "payable": false,
      "stateMutability": "view",
      "type": "function"
    },
    {
      "constant": true,
      "inputs": [
        {
          "name": "_day",
          "type": "uint256"
        }
      ],
      "name": "totalExecutedPerDay",
      "outputs": [
        {
          "name": "",
          "type": "uint256"
        }
      ],
      "payable": false,
      "stateMutability": "view",
      "type": "function"
    },
    {
      "constant": true,
      "inputs": [],
      "name": "dailyLimit",
      "outputs": [
        {
          "name": "",
          "type": "uint256"
        }
      ],
      "payable": false,
      "stateMutability": "view",
      "type": "function"
    },
    {
      "constant": false,
      "inputs": [
        {
          "name": "_token",
          "type": "address"
        },
        {
          "name": "_to",
          "type": "address"
        }
      ],
      "name": "claimTokens",
      "outputs": [],
      "payable": false,
      "stateMutability": "nonpayable",
      "type": "function"
    },
    {
      "constant": true,
      "inputs": [
        {
          "name": "_amount",
          "type": "uint256"
        }
      ],
      "name": "withinExecutionLimit",
      "outputs": [
        {
          "name": "",
          "type": "bool"
        }
      ],
      "payable": false,
      "stateMutability": "view",
      "type": "function"
    },
    {
      "constant": true,
      "inputs": [],
      "name": "executionMaxPerTx",
      "outputs": [
        {
          "name": "",
          "type": "uint256"
        }
      ],
      "payable": false,
      "stateMutability": "view",
      "type": "function"
    },
    {
      "constant": true,
      "inputs": [],
      "name": "requiredSignatures",
      "outputs": [
        {
          "name": "",
          "type": "uint256"
        }
      ],
      "payable": false,
      "stateMutability": "view",
      "type": "function"
    },
    {
      "constant": true,
      "inputs": [],
      "name": "owner",
      "outputs": [
        {
          "name": "",
          "type": "address"
        }
      ],
      "payable": false,
      "stateMutability": "view",
      "type": "function"
    },
    {
      "constant": true,
      "inputs": [],
      "name": "validatorContract",
      "outputs": [
        {
          "name": "",
          "type": "address"
        }
      ],
      "payable": false,
      "stateMutability": "view",
      "type": "function"
    },
    {
      "constant": true,
      "inputs": [],
      "name": "deployedAtBlock",
      "outputs": [
        {
          "name": "",
          "type": "uint256"
        }
      ],
      "payable": false,
      "stateMutability": "view",
      "type": "function"
    },
    {
      "constant": true,
      "inputs": [],
      "name": "getBridgeInterfacesVersion",
      "outputs": [
        {
          "name": "major",
          "type": "uint64"
        },
        {
          "name": "minor",
          "type": "uint64"
        },
        {
          "name": "patch",
          "type": "uint64"
        }
      ],
      "payable": false,
      "stateMutability": "pure",
      "type": "function"
    },
    {
      "constant": false,
      "inputs": [
        {
          "name": "_minPerTx",
          "type": "uint256"
        }
      ],
      "name": "setMinPerTx",
      "outputs": [],
      "payable": false,
      "stateMutability": "nonpayable",
      "type": "function"
    },
    {
      "constant": false,
      "inputs": [
        {
          "name": "_blockConfirmations",
          "type": "uint256"
        }
      ],
      "name": "setRequiredBlockConfirmations",
      "outputs": [],
      "payable": false,
      "stateMutability": "nonpayable",
      "type": "function"
    },
    {
      "constant": false,
      "inputs": [
        {
          "name": "_dailyLimit",
          "type": "uint256"
        }
      ],
      "name": "setDailyLimit",
      "outputs": [],
      "payable": false,
      "stateMutability": "nonpayable",
      "type": "function"
    },
    {
      "constant": false,
      "inputs": [
        {
          "name": "_gasPrice",
          "type": "uint256"
        }
      ],
      "name": "setGasPrice",
      "outputs": [],
      "payable": false,
      "stateMutability": "nonpayable",
      "type": "function"
    },
    {
      "constant": false,
      "inputs": [
        {
          "name": "_maxPerTx",
          "type": "uint256"
        }
      ],
      "name": "setMaxPerTx",
      "outputs": [],
      "payable": false,
      "stateMutability": "nonpayable",
      "type": "function"
    },
    {
      "constant": true,
      "inputs": [],
      "name": "decimalShift",
      "outputs": [
        {
          "name": "",
          "type": "uint256"
        }
      ],
      "payable": false,
      "stateMutability": "view",
      "type": "function"
    },
    {
      "constant": true,
      "inputs": [],
      "name": "minPerTx",
      "outputs": [
        {
          "name": "",
          "type": "uint256"
        }
      ],
      "payable": false,
      "stateMutability": "view",
      "type": "function"
    },
    {
      "constant": true,
      "inputs": [
        {
          "name": "_amount",
          "type": "uint256"
        }
      ],
      "name": "withinLimit",
      "outputs": [
        {
          "name": "",
          "type": "bool"
        }
      ],
      "payable": false,
      "stateMutability": "view",
      "type": "function"
    },
    {
      "constant": false,
      "inputs": [
        {
          "name": "_maxPerTx",
          "type": "uint256"
        }
      ],
      "name": "setExecutionMaxPerTx",
      "outputs": [],
      "payable": false,
      "stateMutability": "nonpayable",
      "type": "function"
    },
    {
      "constant": false,
      "inputs": [
        {
          "name": "newOwner",
          "type": "address"
        }
      ],
      "name": "transferOwnership",
      "outputs": [],
      "payable": false,
      "stateMutability": "nonpayable",
      "type": "function"
    },
    {
      "constant": true,
      "inputs": [],
      "name": "maxPerTx",
      "outputs": [
        {
          "name": "",
          "type": "uint256"
        }
      ],
      "payable": false,
      "stateMutability": "view",
      "type": "function"
    },
    {
      "constant": true,
      "inputs": [],
      "name": "gasPrice",
      "outputs": [
        {
          "name": "",
          "type": "uint256"
        }
      ],
      "payable": false,
      "stateMutability": "view",
      "type": "function"
    },
    {
      "anonymous": false,
      "inputs": [
        {
          "indexed": false,
          "name": "recipient",
          "type": "address"
        },
        {
          "indexed": false,
          "name": "value",
          "type": "uint256"
        },
        {
          "indexed": false,
          "name": "transactionHash",
          "type": "bytes32"
        }
      ],
      "name": "RelayedMessage",
      "type": "event"
    },
    {
      "anonymous": false,
      "inputs": [
        {
          "indexed": false,
          "name": "newLimit",
          "type": "uint256"
        }
      ],
      "name": "DailyLimitChanged",
      "type": "event"
    },
    {
      "anonymous": false,
      "inputs": [
        {
          "indexed": false,
          "name": "newLimit",
          "type": "uint256"
        }
      ],
      "name": "ExecutionDailyLimitChanged",
      "type": "event"
    },
    {
      "anonymous": false,
      "inputs": [
        {
          "indexed": false,
          "name": "gasPrice",
          "type": "uint256"
        }
      ],
      "name": "GasPriceChanged",
      "type": "event"
    },
    {
      "anonymous": false,
      "inputs": [
        {
          "indexed": false,
          "name": "requiredBlockConfirmations",
          "type": "uint256"
        }
      ],
      "name": "RequiredBlockConfirmationChanged",
      "type": "event"
    },
    {
      "anonymous": false,
      "inputs": [
        {
          "indexed": false,
          "name": "previousOwner",
          "type": "address"
        },
        {
          "indexed": false,
          "name": "newOwner",
          "type": "address"
        }
      ],
      "name": "OwnershipTransferred",
      "type": "event"
    },
    {
      "constant": false,
      "inputs": [
        {
          "name": "_validatorContract",
          "type": "address"
        },
        {
          "name": "_erc20token",
          "type": "address"
        },
        {
          "name": "_requiredBlockConfirmations",
          "type": "uint256"
        },
        {
          "name": "_gasPrice",
          "type": "uint256"
        },
        {
          "name": "_maxPerTxHomeDailyLimitHomeMaxPerTxArray",
          "type": "uint256[]"
        },
        {
          "name": "_owner",
          "type": "address"
        },
        {
          "name": "_decimalShift",
          "type": "uint256"
        }
      ],
      "name": "initialize",
      "outputs": [
        {
          "name": "",
          "type": "bool"
        }
      ],
      "payable": false,
      "stateMutability": "nonpayable",
      "type": "function"
    }
  ],
  "bytecode": "0x608060405234801561001057600080fd5b50612ee5806100206000396000f3006080604052600436106101875763ffffffff60e060020a6000350416631dcea427811461018c57806321d800ec146101bd578063232a2c1d146101e95780632bd0bb051461022f578063392e53cd146102595780633dd95d1b1461026e5780633e6968b6146102865780633f0a9f651461029b578063437764df146102b057806343b37dd3146102fa5780634fb3fef71461030f57806367eeba0c1461032757806369ffa08a1461033c578063847e440814610363578063879ce676146103a75780638aa1949a146103bf5780638d068043146103d45780638da5cb5b146103e957806399439089146103fe5780639a454b99146104135780639cb7595a14610428578063a2a6ca2714610469578063acf5c68914610481578063b20d30a914610499578063bf1fe420146104b1578063c6f6f216146104c9578063dae5f0fd146104e1578063df25f3f0146104f6578063ea9f49681461050b578063f20151e114610523578063f2fde38b1461053b578063f968adbe1461055c578063fe173b9714610571575b600080fd5b34801561019857600080fd5b506101a1610586565b60408051600160a060020a039092168252519081900360200190f35b3480156101c957600080fd5b506101d5600435610644565b604080519115158252519081900360200190f35b3480156101f557600080fd5b5061022d602460048035828101929082013591813580830192908201359160443580830192908201359160643591820191013561070d565b005b34801561023b57600080fd5b506102476004356108e8565b60408051918252519081900360200190f35b34801561026557600080fd5b506101d56109a5565b34801561027a57600080fd5b5061022d600435610a5d565b34801561029257600080fd5b50610247610b7d565b3480156102a757600080fd5b50610247610b86565b3480156102bc57600080fd5b506102c5610c3a565b604080517fffffffff000000000000000000000000000000000000000000000000000000009092168252519081900360200190f35b34801561030657600080fd5b50610247610cdd565b34801561031b57600080fd5b50610247600435610d50565b34801561033357600080fd5b50610247610dcb565b34801561034857600080fd5b5061022d600160a060020a0360043581169060243516610e3e565b34801561036f57600080fd5b506101d5600160a060020a03600480358216916024803582169260443592606435926084359081019201359060a4351660c435610e6c565b3480156103b357600080fd5b506101d5600435610ec1565b3480156103cb57600080fd5b50610247610f0b565b3480156103e057600080fd5b50610247610f7e565b3480156103f557600080fd5b506101a1610ff6565b34801561040a57600080fd5b506101a161106a565b34801561041f57600080fd5b506102476110de565b34801561043457600080fd5b5061043d611151565b6040805167ffffffffffffffff9485168152928416602084015292168183015290519081900360600190f35b34801561047557600080fd5b5061022d60043561115c565b34801561048d57600080fd5b5061022d600435611253565b3480156104a557600080fd5b5061022d600435611362565b3480156104bd57600080fd5b5061022d600435611482565b3480156104d557600080fd5b5061022d600435611591565b3480156104ed57600080fd5b50610247611632565b34801561050257600080fd5b506102476116a5565b34801561051757600080fd5b506101d5600435611718565b34801561052f57600080fd5b5061022d600435611768565b34801561054757600080fd5b5061022d600160a060020a0360043516611809565b34801561056857600080fd5b50610247611846565b34801561057d57600080fd5b506102476118b9565b60006002600060405160200180807f6572633230746f6b656e00000000000000000000000000000000000000000000815250600a0190506040516020818303038152906040526040518082805190602001908083835b602083106105fb5780518252601f1990920191602091820191016105dc565b51815160209384036101000a6000190180199092169116179052604080519290940182900390912086528501959095529290920160002054600160a060020a0316949350505050565b6000600460008360405160200180807f72656c617965644d657373616765730000000000000000000000000000000000815250600f0182600019166000191681526020019150506040516020818303038152906040526040518082805190602001908083835b602083106106c95780518252601f1990920191602091820191016106aa565b51815160209384036101000a600019018019909216911617905260408051929094018290039091208652850195909552929092016000205460ff1695945050505050565b6000806000806107e786868080601f0160208091040260200160405190810160405280939291908181526020018383808284378201915050505050508d8d808060200260200160405190810160405280939291908181526020018383602002808284378201915050505050508c8c808060200260200160405190810160405280939291908181526020018383602002808284378201915050505050508b8b80806020026020016040519081016040528093929190818152602001838360200280828437506107e0945061106a9350505050565b600061192c565b61082086868080601f01602080910402602001604051908101604052809392919081815260200183838082843750611bab945050505050565b9296509094509250905061083383610ec1565b156108cf57600160a060020a038116301461084d57600080fd5b61085682610644565b1561086057600080fd5b61086b826001611be6565b610876848484611cb8565b151561088157600080fd5b60408051600160a060020a03861681526020810185905280820184905290517f4ab7d581336d92edbea22636a613e8e76c99ac7f91137c1523db38dbfb3bf3299181900360600190a16108da565b6108da848484610187565b505050505050505050505050565b60008060008360405160200180807f746f74616c5370656e74506572446179000000000000000000000000000000008152506010018281526020019150506040516020818303038152906040526040518082805190602001908083835b602083106109645780518252601f199092019160209182019101610945565b51815160209384036101000a600019018019909216911617905260408051929094018290039091208652850195909552929092016000205495945050505050565b60006004600060405160200180807f6973496e697469616c697a656400000000000000000000000000000000000000815250600d0190506040516020818303038152906040526040518082805190602001908083835b60208310610a1a5780518252601f1990920191602091820191016109fb565b51815160209384036101000a600019018019909216911617905260408051929094018290039091208652850195909552929092016000205460ff16949350505050565b610a65610ff6565b600160a060020a03163314610a7957600080fd5b610a81610f0b565b811180610a8c575080155b1515610a9757600080fd5b8060008060405160200180807f657865637574696f6e4461696c794c696d69740000000000000000000000000081525060130190506040516020818303038152906040526040518082805190602001908083835b60208310610b0a5780518252601f199092019160209182019101610aeb565b51815160001960209485036101000a019081169019919091161790526040805194909201849003909320865285830196909652509284016000209490945550815184815291517f9bebf928b90863f24cc31f726a3a7545efd409f1dcf552301b1ee3710da70d3b9350918290030190a150565b62015180420490565b600080600060405160200180807f7265717569726564426c6f636b436f6e6669726d6174696f6e73000000000000815250601a0190506040516020818303038152906040526040518082805190602001908083835b60208310610bfa5780518252601f199092019160209182019101610bdb565b51815160209384036101000a6000190180199092169116179052604080519290940182900390912086528501959095529290920160002054949350505050565b600060405160200180807f6572632d746f2d6572632d636f72650000000000000000000000000000000000815250600f0190506040516020818303038152906040526040518082805190602001908083835b60208310610cab5780518252601f199092019160209182019101610c8c565b6001836020036101000a0380198251168184511680821785525050505050509050019150506040518091039020905090565b600080600060405160200180807f657865637574696f6e4461696c794c696d697400000000000000000000000000815250601301905060405160208183030381529060405260405180828051906020019080838360208310610bfa5780518252601f199092019160209182019101610bdb565b60008060008360405160200180807f746f74616c457865637574656450657244617900000000000000000000000000815250601301828152602001915050604051602081830303815290604052604051808280519060200190808383602083106109645780518252601f199092019160209182019101610945565b600080600060405160200180807f6461696c794c696d697400000000000000000000000000000000000000000000815250600a01905060405160208183030381529060405260405180828051906020019080838360208310610bfa5780518252601f199092019160209182019101610bdb565b610e46610586565b600160a060020a0383811691161415610e5e57600080fd5b610e688282611d96565b5050565b6000610eac898989898989808060200260200160405190810160405280939291908181526020018383602002808284378201915050505050508888611e39565b610eb46109a5565b9998505050505050505050565b600080610ee483610ed8610ed3610b7d565b610d50565b9063ffffffff61258916565b905080610eef610cdd565b10158015610f045750610f00610f0b565b8311155b9392505050565b600080600060405160200180807f657865637574696f6e4d61785065725478000000000000000000000000000000815250601101905060405160208183030381529060405260405180828051906020019080838360208310610bfa5780518252601f199092019160209182019101610bdb565b6000610f8861106a565b600160a060020a0316638d0680436040518163ffffffff1660e060020a028152600401602060405180830381600087803b158015610fc557600080fd5b505af1158015610fd9573d6000803e3d6000fd5b505050506040513d6020811015610fef57600080fd5b5051905090565b60006002600060405160200180807f6f776e65720000000000000000000000000000000000000000000000000000008152506005019050604051602081830303815290604052604051808280519060200190808383602083106105fb5780518252601f1990920191602091820191016105dc565b60006002600060405160200180807f76616c696461746f72436f6e74726163740000000000000000000000000000008152506011019050604051602081830303815290604052604051808280519060200190808383602083106105fb5780518252601f1990920191602091820191016105dc565b600080600060405160200180807f6465706c6f7965644174426c6f636b0000000000000000000000000000000000815250600f01905060405160208183030381529060405260405180828051906020019080838360208310610bfa5780518252601f199092019160209182019101610bdb565b600260036000909192565b611164610ff6565b600160a060020a0316331461117857600080fd5b611180610dcb565b811080156111945750611191611846565b81105b151561119f57600080fd5b8060008060405160200180807f6d696e506572547800000000000000000000000000000000000000000000000081525060080190506040516020818303038152906040526040518082805190602001908083835b602083106112125780518252601f1990920191602091820191016111f3565b51815160209384036101000a600019018019909216911617905260408051929094018290039091208652850195909552929092016000209390935550505050565b61125b610ff6565b600160a060020a0316331461126f57600080fd5b6000811161127c57600080fd5b8060008060405160200180807f7265717569726564426c6f636b436f6e6669726d6174696f6e73000000000000815250601a0190506040516020818303038152906040526040518082805190602001908083835b602083106112ef5780518252601f1990920191602091820191016112d0565b51815160001960209485036101000a019081169019919091161790526040805194909201849003909320865285830196909652509284016000209490945550815184815291517f4fb76205cd57c896b21511d2114137d8e901b4ccd659e1a0f97d6306795264fb9350918290030190a150565b61136a610ff6565b600160a060020a0316331461137e57600080fd5b611386611846565b811180611391575080155b151561139c57600080fd5b8060008060405160200180807f6461696c794c696d697400000000000000000000000000000000000000000000815250600a0190506040516020818303038152906040526040518082805190602001908083835b6020831061140f5780518252601f1990920191602091820191016113f0565b51815160001960209485036101000a019081169019919091161790526040805194909201849003909320865285830196909652509284016000209490945550815184815291517fad4123ae17c414d9c6d2fec478b402e6b01856cc250fd01fbfd252fda0089d3c9350918290030190a150565b61148a610ff6565b600160a060020a0316331461149e57600080fd5b600081116114ab57600080fd5b8060008060405160200180807f676173507269636500000000000000000000000000000000000000000000000081525060080190506040516020818303038152906040526040518082805190602001908083835b6020831061151e5780518252601f1990920191602091820191016114ff565b51815160001960209485036101000a019081169019919091161790526040805194909201849003909320865285830196909652509284016000209490945550815184815291517f52264b89e0fceafb26e79fd49ef8a366eb6297483bf4035b027f0c99a7ad512e9350918290030190a150565b611599610ff6565b600160a060020a031633146115ad57600080fd5b6115b5610dcb565b81106115c057600080fd5b8060008060405160200180807f6d617850657254780000000000000000000000000000000000000000000000008152506008019050604051602081830303815290604052604051808280519060200190808383602083106112125780518252601f1990920191602091820191016111f3565b600080600060405160200180807f646563696d616c53686966740000000000000000000000000000000000000000815250600c01905060405160208183030381529060405260405180828051906020019080838360208310610bfa5780518252601f199092019160209182019101610bdb565b600080600060405160200180807f6d696e5065725478000000000000000000000000000000000000000000000000815250600801905060405160208183030381529060405260405180828051906020019080838360208310610bfa5780518252601f199092019160209182019101610bdb565b60008061172f83610ed861172a610b7d565b6108e8565b90508061173a610dcb565b1015801561174f575061174b611846565b8311155b8015610f04575061175e6116a5565b9092101592915050565b611770610ff6565b600160a060020a0316331461178457600080fd5b61178c610cdd565b811061179757600080fd5b8060008060405160200180807f657865637574696f6e4d617850657254780000000000000000000000000000008152506011019050604051602081830303815290604052604051808280519060200190808383602083106112125780518252601f1990920191602091820191016111f3565b611811610ff6565b600160a060020a0316331461182557600080fd5b600160a060020a038116151561183a57600080fd5b6118438161259c565b50565b600080600060405160200180807f6d61785065725478000000000000000000000000000000000000000000000000815250600801905060405160208183030381529060405260405180828051906020019080838360208310610bfa5780518252601f199092019160209182019101610bdb565b600080600060405160200180807f6761735072696365000000000000000000000000000000000000000000000000815250600801905060405160208183030381529060405260405180828051906020019080838360208310610bfa5780518252601f199092019160209182019101610bdb565b6000806060600080858061194d57508515801561194d575061194d8b6126c4565b151561195857600080fd5b86600160a060020a0316638d0680436040518163ffffffff1660e060020a028152600401602060405180830381600087803b15801561199657600080fd5b505af11580156119aa573d6000803e3d6000fd5b505050506040513d60208110156119c057600080fd5b50518a519095508511156119d357600080fd5b6119dd8b876126d8565b935084604051908082528060200260200182016040528015611a09578160200160208202803883390190505b509250600091505b84821015611b9e576001848b84815181101515611a2a57fe5b906020019060200201518b85815181101515611a4257fe5b906020019060200201518b86815181101515611a5a57fe5b60209081029091018101516040805160008082528185018084529790975260ff9095168582015260608501939093526080840152905160a0808401949293601f19830193908390039091019190865af1158015611abb573d6000803e3d6000fd5b50505060206040510351905086600160a060020a031663facd743b826040518263ffffffff1660e060020a0281526004018082600160a060020a0316600160a060020a03168152602001915050602060405180830381600087803b158015611b2257600080fd5b505af1158015611b36573d6000803e3d6000fd5b505050506040513d6020811015611b4c57600080fd5b50511515611b5957600080fd5b611b6383826128f2565b15611b6d57600080fd5b808383815181101515611b7c57fe5b600160a060020a03909216602092830290910190910152600190910190611a11565b5050505050505050505050565b600080600080611bba856126c4565b1515611bc557600080fd5b50505050601481015160348201516054830151606890930151919390929190565b80600460008460405160200180807f72656c617965644d657373616765730000000000000000000000000000000000815250600f0182600019166000191681526020019150506040516020818303038152906040526040518082805190602001908083835b60208310611c6a5780518252601f199092019160209182019101611c4b565b51815160209384036101000a60001901801990921691161790526040805192909401829003909120865285019590955292909201600020805460ff1916941515949094179093555050505050565b600080611cda611cc6610b7d565b611cd586610ed8610ed3610b7d565b61294d565b611cf5611ce5611632565b8590600a0a63ffffffff612a0a16565b9050611cff610586565b600160a060020a031663a9059cbb86836040518363ffffffff1660e060020a0281526004018083600160a060020a0316600160a060020a0316815260200182815260200192505050602060405180830381600087803b158015611d6157600080fd5b505af1158015611d75573d6000803e3d6000fd5b505050506040513d6020811015611d8b57600080fd5b505195945050505050565b30600160a060020a0316636fde82026040518163ffffffff1660e060020a028152600401602060405180830381600087803b158015611dd457600080fd5b505af1158015611de8573d6000803e3d6000fd5b505050506040513d6020811015611dfe57600080fd5b5051600160a060020a03163314611e1457600080fd5b80600160a060020a0381161515611e2a57600080fd5b611e348383612a1f565b505050565b611e416109a5565b15611e4b57600080fd5b611e5487612a47565b1515611e5f57600080fd5b841515611e6b57600080fd5b60008411611e7857600080fd5b826001815181101515611e8757fe5b90602001906020020151836002815181101515611ea057fe5b6020908102909101015110611eb457600080fd5b600160a060020a0382161515611ec957600080fd5b866002600060405160200180807f76616c696461746f72436f6e747261637400000000000000000000000000000081525060110190506040516020818303038152906040526040518082805190602001908083835b60208310611f3d5780518252601f199092019160209182019101611f1e565b51815160209384036101000a60001901801990921691161790526040805192909401829003909120865285019590955292909201600020805473ffffffffffffffffffffffffffffffffffffffff1916600160a060020a03959095169490941790935550611fae9150879050612a4f565b4360008060405160200180807f6465706c6f7965644174426c6f636b0000000000000000000000000000000000815250600f0190506040516020818303038152906040526040518082805190602001908083835b602083106120215780518252601f199092019160209182019101612002565b51815160209384036101000a6000190180199092169116179052604080519290940182900390912086528581019690965250928301600090812095909555505080517f7265717569726564426c6f636b436f6e6669726d6174696f6e73000000000000818401528151601a818303018152603a90910191829052805189949384939182918401908083835b602083106120cb5780518252601f1990920191602091820191016120ac565b51815160209384036101000a6000190180199092169116179052604080519290940182900390912086528581019690965250928301600090812095909555505080517f67617350726963650000000000000000000000000000000000000000000000008184015281516008818303018152602890910191829052805188949384939182918401908083835b602083106121755780518252601f199092019160209182019101612156565b51815160209384036101000a60001901801990921691161790526040805192909401829003909120865285019590955292909201600090812094909455505084518592915081106121c257fe5b9060200190602002015160008060405160200180807f6d6178506572547800000000000000000000000000000000000000000000000081525060080190506040516020818303038152906040526040518082805190602001908083835b6020831061223e5780518252601f19909201916020918201910161221f565b51815160209384036101000a600019018019909216911617905260408051929094018290039091208652850195909552929092016000209390935550508351849150600190811061228b57fe5b9060200190602002015160008060405160200180807f657865637574696f6e4461696c794c696d69740000000000000000000000000081525060130190506040516020818303038152906040526040518082805190602001908083835b602083106123075780518252601f1990920191602091820191016122e8565b51815160209384036101000a600019018019909216911617905260408051929094018290039091208652850195909552929092016000209390935550508351849150600290811061235457fe5b9060200190602002015160008060405160200180807f657865637574696f6e4d6178506572547800000000000000000000000000000081525060110190506040516020818303038152906040526040518082805190602001908083835b602083106123d05780518252601f1990920191602091820191016123b1565b51815160209384036101000a6000190180199092169116179052604080519290940182900390912086528581019690965250928301600090812095909555505080517f646563696d616c53686966740000000000000000000000000000000000000000818401528151600c818303018152602c90910191829052805185949384939182918401908083835b6020831061247a5780518252601f19909201916020918201910161245b565b51815160209384036101000a6000190180199092169116179052604080519290940182900390912086528501959095529290920160002093909355506124c3915083905061259c565b6124cb612ad6565b6040805186815290517f4fb76205cd57c896b21511d2114137d8e901b4ccd659e1a0f97d6306795264fb9181900360200190a16040805185815290517f52264b89e0fceafb26e79fd49ef8a366eb6297483bf4035b027f0c99a7ad512e9181900360200190a17f9bebf928b90863f24cc31f726a3a7545efd409f1dcf552301b1ee3710da70d3b83600181518110151561256157fe5b906020019060200201516040518082815260200191505060405180910390a150505050505050565b8181018281101561259657fe5b92915050565b7f8be0079c531659141344cd1fd0a4f28419497f9722a3daafe3b4186f6b6457e06125c5610ff6565b60408051600160a060020a03928316815291841660208301528051918290030190a1806002600060405160200180807f6f776e657200000000000000000000000000000000000000000000000000000081525060050190506040516020818303038152906040526040518082805190602001908083835b6020831061265b5780518252601f19909201916020918201910161263c565b51815160209384036101000a60001901801990921691161790526040805192909401829003909120865285019590955292909201600020805473ffffffffffffffffffffffffffffffffffffffff1916600160a060020a03959095169490941790935550505050565b60006126ce612b97565b8251149050919050565b60408051808201909152601a81527f19457468657265756d205369676e6564204d6573736167653a0a00000000000060208201526000906060831561287e57816127228651612b9c565b866040516020018084805190602001908083835b602083106127555780518252601f199092019160209182019101612736565b51815160209384036101000a600019018019909216911617905286519190930192860191508083835b6020831061279d5780518252601f19909201916020918201910161277e565b51815160209384036101000a600019018019909216911617905285519190930192850191508083835b602083106127e55780518252601f1990920191602091820191016127c6565b6001836020036101000a03801982511681845116808217855250505050505090500193505050506040516020818303038152906040526040518082805190602001908083835b6020831061284a5780518252601f19909201916020918201910161282b565b6001836020036101000a038019825116818451168082178552505050505050905001915050604051809103902092506128ea565b6040805190810160405280600381526020017f31303400000000000000000000000000000000000000000000000000000000008152509050818186604051602001808480519060200190808383602083106127555780518252601f199092019160209182019101612736565b505092915050565b6000805b83518110156129415782600160a060020a0316848281518110151561291757fe5b90602001906020020151600160a060020a031614156129395760019150612946565b6001016128f6565b600091505b5092915050565b806000808460405160200180807f746f74616c4578656375746564506572446179000000000000000000000000008152506013018281526020019150506040516020818303038152906040526040518082805190602001908083835b602083106129c85780518252601f1990920191602091820191016129a9565b51815160209384036101000a60001901801990921691161790526040805192909401829003909120865285019590955292909201600020939093555050505050565b60008183811515612a1757fe5b049392505050565b600160a060020a0382161515612a3d57612a3881612cc3565b610e68565b610e688282612d2e565b6000903b1190565b612a5881612a47565b1515612a6357600080fd5b806002600060405160200180807f6572633230746f6b656e00000000000000000000000000000000000000000000815250600a0190506040516020818303038152906040526040518082805190602001908083836020831061265b5780518252601f19909201916020918201910161263c565b60016004600060405160200180807f6973496e697469616c697a656400000000000000000000000000000000000000815250600d0190506040516020818303038152906040526040518082805190602001908083835b60208310612b4b5780518252601f199092019160209182019101612b2c565b51815160209384036101000a60001901801990921691161790526040805192909401829003909120865285019590955292909201600020805460ff191694151594909417909355505050565b606890565b60606000808281851515612be55760408051808201909152600181527f300000000000000000000000000000000000000000000000000000000000000060208201529450612cba565b8593505b8315612c0057600190920191600a84049350612be9565b826040519080825280601f01601f191660200182016040528015612c2e578160200160208202803883390190505b5091505060001982015b8515612cb65781516000198201917f01000000000000000000000000000000000000000000000000000000000000006030600a8a060102918491908110612c7b57fe5b9060200101907effffffffffffffffffffffffffffffffffffffffffffffffffffffffffffff1916908160001a905350600a86049550612c38565b8194505b50505050919050565b604051303190600160a060020a0383169082156108fc029083906000818181858888f193505050501515610e68578082612cfb612e89565b600160a060020a039091168152604051908190036020019082f080158015612d27573d6000803e3d6000fd5b5050505050565b604080517f70a0823100000000000000000000000000000000000000000000000000000000815230600482015290518391600091600160a060020a038416916370a0823191602480830192602092919082900301818787803b158015612d9357600080fd5b505af1158015612da7573d6000803e3d6000fd5b505050506040513d6020811015612dbd57600080fd5b50519050612dcc848483612dd2565b50505050565b60408051600160a060020a03841660248201526044808201849052825180830390910181526064909101909152602081810180517bffffffffffffffffffffffffffffffffffffffffffffffffffffffff167fa9059cbb000000000000000000000000000000000000000000000000000000001781528251606093600093909290918491828a5af16000519350839250808015610187575050600083511115612e8157811515612e8157600080fd5b505050505050565b604051602180612e99833901905600608060405260405160208060218339810160405251600160a060020a038116ff00a165627a7a723058206822329d0ff62908b3d7031300e1e5717c2d3f45277d871cd9c7e73c80f8ad530029",
  "source": "pragma solidity 0.4.24;\n\nimport \"./BasicForeignBridgeErcToErc.sol\";\nimport \"../ERC20Bridge.sol\";\n\ncontract ForeignBridgeErcToErc is BasicForeignBridgeErcToErc, ERC20Bridge {\n    function initialize(\n        address _validatorContract,\n        address _erc20token,\n        uint256 _requiredBlockConfirmations,\n        uint256 _gasPrice,\n        uint256[] _maxPerTxHomeDailyLimitHomeMaxPerTxArray, // [ 0 = _maxPerTx, 1 = _homeDailyLimit, 2 = _homeMaxPerTx ]\n        address _owner,\n        uint256 _decimalShift\n    ) external returns (bool) {\n        _initialize(\n            _validatorContract,\n            _erc20token,\n            _requiredBlockConfirmations,\n            _gasPrice,\n            _maxPerTxHomeDailyLimitHomeMaxPerTxArray,\n            _owner,\n            _decimalShift\n        );\n        return isInitialized();\n    }\n}\n",
  "sourcePath": "/contracts/contracts/upgradeable_contracts/erc20_to_erc20/ForeignBridgeErcToErc.sol",
  "compiler": {
    "name": "solc",
    "version": "0.4.24+commit.e67f0147.Emscripten.clang"
  },
  "schemaVersion": "3.0.9",
  "updatedAt": "2019-09-30T13:18:39.313Z",
  "devdoc": {
    "methods": {
      "owner()": {
        "details": "Tells the address of the owner",
        "return": "the address of the owner"
      },
      "transferOwnership(address)": {
        "details": "Allows the current owner to transfer control of the contract to a newOwner.",
        "params": {
          "newOwner": "the address to transfer ownership to."
        }
      }
    }
  },
  "userdoc": {
    "methods": {}
  }
}