{
  "contractName": "ForeignBridgeErcToNative",
  "abi": [
    {
      "constant": true,
      "inputs": [],
      "name": "erc20token",
      "outputs": [
        {
          "name": "",
          "type": "address"
        }
      ],
      "payable": false,
      "stateMutability": "view",
      "type": "function"
    },
    {
      "constant": true,
      "inputs": [
        {
          "name": "_txHash",
          "type": "bytes32"
        }
      ],
      "name": "relayedMessages",
      "outputs": [
        {
          "name": "",
          "type": "bool"
        }
      ],
      "payable": false,
      "stateMutability": "view",
      "type": "function"
    },
    {
      "constant": false,
      "inputs": [
        {
          "name": "vs",
          "type": "uint8[]"
        },
        {
          "name": "rs",
          "type": "bytes32[]"
        },
        {
          "name": "ss",
          "type": "bytes32[]"
        },
        {
          "name": "message",
          "type": "bytes"
        }
      ],
      "name": "executeSignatures",
      "outputs": [],
      "payable": false,
      "stateMutability": "nonpayable",
      "type": "function"
    },
    {
      "constant": true,
      "inputs": [
        {
          "name": "_day",
          "type": "uint256"
        }
      ],
      "name": "totalSpentPerDay",
      "outputs": [
        {
          "name": "",
          "type": "uint256"
        }
      ],
      "payable": false,
      "stateMutability": "view",
      "type": "function"
    },
    {
      "constant": true,
      "inputs": [],
      "name": "isInitialized",
      "outputs": [
        {
          "name": "",
          "type": "bool"
        }
      ],
      "payable": false,
      "stateMutability": "view",
      "type": "function"
    },
    {
      "constant": false,
      "inputs": [
        {
          "name": "_dailyLimit",
          "type": "uint256"
        }
      ],
      "name": "setExecutionDailyLimit",
      "outputs": [],
      "payable": false,
      "stateMutability": "nonpayable",
      "type": "function"
    },
    {
      "constant": true,
      "inputs": [],
      "name": "getCurrentDay",
      "outputs": [
        {
          "name": "",
          "type": "uint256"
        }
      ],
      "payable": false,
      "stateMutability": "view",
      "type": "function"
    },
    {
      "constant": true,
      "inputs": [],
      "name": "requiredBlockConfirmations",
      "outputs": [
        {
          "name": "",
          "type": "uint256"
        }
      ],
      "payable": false,
      "stateMutability": "view",
      "type": "function"
    },
    {
      "constant": true,
      "inputs": [],
      "name": "executionDailyLimit",
      "outputs": [
        {
          "name": "",
          "type": "uint256"
        }
      ],
      "payable": false,
      "stateMutability": "view",
      "type": "function"
    },
    {
      "constant": true,
      "inputs": [
        {
          "name": "_day",
          "type": "uint256"
        }
      ],
      "name": "totalExecutedPerDay",
      "outputs": [
        {
          "name": "",
          "type": "uint256"
        }
      ],
      "payable": false,
      "stateMutability": "view",
      "type": "function"
    },
    {
      "constant": true,
      "inputs": [],
      "name": "dailyLimit",
      "outputs": [
        {
          "name": "",
          "type": "uint256"
        }
      ],
      "payable": false,
      "stateMutability": "view",
      "type": "function"
    },
    {
      "constant": true,
      "inputs": [
        {
          "name": "_amount",
          "type": "uint256"
        }
      ],
      "name": "withinExecutionLimit",
      "outputs": [
        {
          "name": "",
          "type": "bool"
        }
      ],
      "payable": false,
      "stateMutability": "view",
      "type": "function"
    },
    {
      "constant": true,
      "inputs": [],
      "name": "executionMaxPerTx",
      "outputs": [
        {
          "name": "",
          "type": "uint256"
        }
      ],
      "payable": false,
      "stateMutability": "view",
      "type": "function"
    },
    {
      "constant": true,
      "inputs": [],
      "name": "requiredSignatures",
      "outputs": [
        {
          "name": "",
          "type": "uint256"
        }
      ],
      "payable": false,
      "stateMutability": "view",
      "type": "function"
    },
    {
      "constant": true,
      "inputs": [],
      "name": "owner",
      "outputs": [
        {
          "name": "",
          "type": "address"
        }
      ],
      "payable": false,
      "stateMutability": "view",
      "type": "function"
    },
    {
      "constant": true,
      "inputs": [],
      "name": "validatorContract",
      "outputs": [
        {
          "name": "",
          "type": "address"
        }
      ],
      "payable": false,
      "stateMutability": "view",
      "type": "function"
    },
    {
      "constant": true,
      "inputs": [],
      "name": "deployedAtBlock",
      "outputs": [
        {
          "name": "",
          "type": "uint256"
        }
      ],
      "payable": false,
      "stateMutability": "view",
      "type": "function"
    },
    {
      "constant": true,
      "inputs": [],
      "name": "getBridgeInterfacesVersion",
      "outputs": [
        {
          "name": "major",
          "type": "uint64"
        },
        {
          "name": "minor",
          "type": "uint64"
        },
        {
          "name": "patch",
          "type": "uint64"
        }
      ],
      "payable": false,
      "stateMutability": "pure",
      "type": "function"
    },
    {
      "constant": false,
      "inputs": [
        {
          "name": "_minPerTx",
          "type": "uint256"
        }
      ],
      "name": "setMinPerTx",
      "outputs": [],
      "payable": false,
      "stateMutability": "nonpayable",
      "type": "function"
    },
    {
      "constant": false,
      "inputs": [
        {
          "name": "_blockConfirmations",
          "type": "uint256"
        }
      ],
      "name": "setRequiredBlockConfirmations",
      "outputs": [],
      "payable": false,
      "stateMutability": "nonpayable",
      "type": "function"
    },
    {
      "constant": false,
      "inputs": [
        {
          "name": "_dailyLimit",
          "type": "uint256"
        }
      ],
      "name": "setDailyLimit",
      "outputs": [],
      "payable": false,
      "stateMutability": "nonpayable",
      "type": "function"
    },
    {
      "constant": false,
      "inputs": [
        {
          "name": "_gasPrice",
          "type": "uint256"
        }
      ],
      "name": "setGasPrice",
      "outputs": [],
      "payable": false,
      "stateMutability": "nonpayable",
      "type": "function"
    },
    {
      "constant": false,
      "inputs": [
        {
          "name": "_maxPerTx",
          "type": "uint256"
        }
      ],
      "name": "setMaxPerTx",
      "outputs": [],
      "payable": false,
      "stateMutability": "nonpayable",
      "type": "function"
    },
    {
      "constant": true,
      "inputs": [],
      "name": "decimalShift",
      "outputs": [
        {
          "name": "",
          "type": "uint256"
        }
      ],
      "payable": false,
      "stateMutability": "view",
      "type": "function"
    },
    {
      "constant": true,
      "inputs": [],
      "name": "minPerTx",
      "outputs": [
        {
          "name": "",
          "type": "uint256"
        }
      ],
      "payable": false,
      "stateMutability": "view",
      "type": "function"
    },
    {
      "constant": true,
      "inputs": [
        {
          "name": "_amount",
          "type": "uint256"
        }
      ],
      "name": "withinLimit",
      "outputs": [
        {
          "name": "",
          "type": "bool"
        }
      ],
      "payable": false,
      "stateMutability": "view",
      "type": "function"
    },
    {
      "constant": false,
      "inputs": [
        {
          "name": "_maxPerTx",
          "type": "uint256"
        }
      ],
      "name": "setExecutionMaxPerTx",
      "outputs": [],
      "payable": false,
      "stateMutability": "nonpayable",
      "type": "function"
    },
    {
      "constant": false,
      "inputs": [
        {
          "name": "newOwner",
          "type": "address"
        }
      ],
      "name": "transferOwnership",
      "outputs": [],
      "payable": false,
      "stateMutability": "nonpayable",
      "type": "function"
    },
    {
      "constant": true,
      "inputs": [],
      "name": "maxPerTx",
      "outputs": [
        {
          "name": "",
          "type": "uint256"
        }
      ],
      "payable": false,
      "stateMutability": "view",
      "type": "function"
    },
    {
      "constant": true,
      "inputs": [],
      "name": "gasPrice",
      "outputs": [
        {
          "name": "",
          "type": "uint256"
        }
      ],
      "payable": false,
      "stateMutability": "view",
      "type": "function"
    },
    {
      "anonymous": false,
      "inputs": [
        {
          "indexed": false,
          "name": "recipient",
          "type": "address"
        },
        {
          "indexed": false,
          "name": "value",
          "type": "uint256"
        },
        {
          "indexed": false,
          "name": "transactionHash",
          "type": "bytes32"
        }
      ],
      "name": "RelayedMessage",
      "type": "event"
    },
    {
      "anonymous": false,
      "inputs": [
        {
          "indexed": false,
          "name": "newLimit",
          "type": "uint256"
        }
      ],
      "name": "DailyLimitChanged",
      "type": "event"
    },
    {
      "anonymous": false,
      "inputs": [
        {
          "indexed": false,
          "name": "newLimit",
          "type": "uint256"
        }
      ],
      "name": "ExecutionDailyLimitChanged",
      "type": "event"
    },
    {
      "anonymous": false,
      "inputs": [
        {
          "indexed": false,
          "name": "gasPrice",
          "type": "uint256"
        }
      ],
      "name": "GasPriceChanged",
      "type": "event"
    },
    {
      "anonymous": false,
      "inputs": [
        {
          "indexed": false,
          "name": "requiredBlockConfirmations",
          "type": "uint256"
        }
      ],
      "name": "RequiredBlockConfirmationChanged",
      "type": "event"
    },
    {
      "anonymous": false,
      "inputs": [
        {
          "indexed": false,
          "name": "previousOwner",
          "type": "address"
        },
        {
          "indexed": false,
          "name": "newOwner",
          "type": "address"
        }
      ],
      "name": "OwnershipTransferred",
      "type": "event"
    },
    {
      "constant": false,
      "inputs": [
        {
          "name": "_validatorContract",
          "type": "address"
        },
        {
          "name": "_erc20token",
          "type": "address"
        },
        {
          "name": "_requiredBlockConfirmations",
          "type": "uint256"
        },
        {
          "name": "_gasPrice",
          "type": "uint256"
        },
        {
          "name": "_maxPerTxHomeDailyLimitHomeMaxPerTxArray",
          "type": "uint256[]"
        },
        {
          "name": "_owner",
          "type": "address"
        },
        {
          "name": "_decimalShift",
          "type": "uint256"
        }
      ],
      "name": "initialize",
      "outputs": [
        {
          "name": "",
          "type": "bool"
        }
      ],
      "payable": false,
      "stateMutability": "nonpayable",
      "type": "function"
    },
    {
      "constant": true,
      "inputs": [],
      "name": "getBridgeMode",
      "outputs": [
        {
          "name": "_data",
          "type": "bytes4"
        }
      ],
      "payable": false,
      "stateMutability": "pure",
      "type": "function"
    },
    {
      "constant": false,
      "inputs": [
        {
          "name": "_token",
          "type": "address"
        },
        {
          "name": "_to",
          "type": "address"
        }
      ],
      "name": "claimTokens",
      "outputs": [],
      "payable": false,
      "stateMutability": "nonpayable",
      "type": "function"
    }
  ],
  "bytecode": "0x608060405234801561001057600080fd5b50612e8b806100206000396000f3006080604052600436106101875763ffffffff60e060020a6000350416631dcea427811461018c57806321d800ec146101bd578063232a2c1d146101e95780632bd0bb051461022f578063392e53cd146102595780633dd95d1b1461026e5780633e6968b6146102865780633f0a9f651461029b578063437764df146102b057806343b37dd3146102fa5780634fb3fef71461030f57806367eeba0c1461032757806369ffa08a1461033c578063847e440814610363578063879ce676146103a75780638aa1949a146103bf5780638d068043146103d45780638da5cb5b146103e957806399439089146103fe5780639a454b99146104135780639cb7595a14610428578063a2a6ca2714610469578063acf5c68914610481578063b20d30a914610499578063bf1fe420146104b1578063c6f6f216146104c9578063dae5f0fd146104e1578063df25f3f0146104f6578063ea9f49681461050b578063f20151e114610523578063f2fde38b1461053b578063f968adbe1461055c578063fe173b9714610571575b600080fd5b34801561019857600080fd5b506101a1610586565b60408051600160a060020a039092168252519081900360200190f35b3480156101c957600080fd5b506101d5600435610644565b604080519115158252519081900360200190f35b3480156101f557600080fd5b5061022d602460048035828101929082013591813580830192908201359160443580830192908201359160643591820191013561070d565b005b34801561023b57600080fd5b506102476004356108e8565b60408051918252519081900360200190f35b34801561026557600080fd5b506101d56109a5565b34801561027a57600080fd5b5061022d600435610a5d565b34801561029257600080fd5b50610247610b7d565b3480156102a757600080fd5b50610247610b86565b3480156102bc57600080fd5b506102c5610c3a565b604080517fffffffff000000000000000000000000000000000000000000000000000000009092168252519081900360200190f35b34801561030657600080fd5b50610247610cdd565b34801561031b57600080fd5b50610247600435610d50565b34801561033357600080fd5b50610247610dcb565b34801561034857600080fd5b5061022d600160a060020a0360043581169060243516610e3e565b34801561036f57600080fd5b506101d5600160a060020a03600480358216916024803582169260443592606435926084359081019201359060a4351660c435610e6c565b3480156103b357600080fd5b506101d56004356115b7565b3480156103cb57600080fd5b50610247611601565b3480156103e057600080fd5b50610247611674565b3480156103f557600080fd5b506101a16116ec565b34801561040a57600080fd5b506101a1611760565b34801561041f57600080fd5b506102476117d4565b34801561043457600080fd5b5061043d611847565b6040805167ffffffffffffffff9485168152928416602084015292168183015290519081900360600190f35b34801561047557600080fd5b5061022d600435611852565b34801561048d57600080fd5b5061022d600435611949565b3480156104a557600080fd5b5061022d600435611a58565b3480156104bd57600080fd5b5061022d600435611b78565b3480156104d557600080fd5b5061022d600435611c87565b3480156104ed57600080fd5b50610247611d28565b34801561050257600080fd5b50610247611d9b565b34801561051757600080fd5b506101d5600435611e0e565b34801561052f57600080fd5b5061022d600435611e5e565b34801561054757600080fd5b5061022d600160a060020a0360043516611eff565b34801561056857600080fd5b50610247611f3c565b34801561057d57600080fd5b50610247611faf565b60006002600060405160200180807f6572633230746f6b656e00000000000000000000000000000000000000000000815250600a0190506040516020818303038152906040526040518082805190602001908083835b602083106105fb5780518252601f1990920191602091820191016105dc565b51815160209384036101000a6000190180199092169116179052604080519290940182900390912086528501959095529290920160002054600160a060020a0316949350505050565b6000600460008360405160200180807f72656c617965644d657373616765730000000000000000000000000000000000815250600f0182600019166000191681526020019150506040516020818303038152906040526040518082805190602001908083835b602083106106c95780518252601f1990920191602091820191016106aa565b51815160209384036101000a600019018019909216911617905260408051929094018290039091208652850195909552929092016000205460ff1695945050505050565b6000806000806107e786868080601f0160208091040260200160405190810160405280939291908181526020018383808284378201915050505050508d8d808060200260200160405190810160405280939291908181526020018383602002808284378201915050505050508c8c808060200260200160405190810160405280939291908181526020018383602002808284378201915050505050508b8b80806020026020016040519081016040528093929190818152602001838360200280828437506107e094506117609350505050565b6000612022565b61082086868080601f016020809104026020016040519081016040528093929190818152602001838380828437506122a1945050505050565b92965090945092509050610833836115b7565b156108cf57600160a060020a038116301461084d57600080fd5b61085682610644565b1561086057600080fd5b61086b8260016122dc565b6108768484846123ae565b151561088157600080fd5b60408051600160a060020a03861681526020810185905280820184905290517f4ab7d581336d92edbea22636a613e8e76c99ac7f91137c1523db38dbfb3bf3299181900360600190a16108da565b6108da848484610187565b505050505050505050505050565b60008060008360405160200180807f746f74616c5370656e74506572446179000000000000000000000000000000008152506010018281526020019150506040516020818303038152906040526040518082805190602001908083835b602083106109645780518252601f199092019160209182019101610945565b51815160209384036101000a600019018019909216911617905260408051929094018290039091208652850195909552929092016000205495945050505050565b60006004600060405160200180807f6973496e697469616c697a656400000000000000000000000000000000000000815250600d0190506040516020818303038152906040526040518082805190602001908083835b60208310610a1a5780518252601f1990920191602091820191016109fb565b51815160209384036101000a600019018019909216911617905260408051929094018290039091208652850195909552929092016000205460ff16949350505050565b610a656116ec565b600160a060020a03163314610a7957600080fd5b610a81611601565b811180610a8c575080155b1515610a9757600080fd5b8060008060405160200180807f657865637574696f6e4461696c794c696d69740000000000000000000000000081525060130190506040516020818303038152906040526040518082805190602001908083835b60208310610b0a5780518252601f199092019160209182019101610aeb565b51815160001960209485036101000a019081169019919091161790526040805194909201849003909320865285830196909652509284016000209490945550815184815291517f9bebf928b90863f24cc31f726a3a7545efd409f1dcf552301b1ee3710da70d3b9350918290030190a150565b62015180420490565b600080600060405160200180807f7265717569726564426c6f636b436f6e6669726d6174696f6e73000000000000815250601a0190506040516020818303038152906040526040518082805190602001908083835b60208310610bfa5780518252601f199092019160209182019101610bdb565b51815160209384036101000a6000190180199092169116179052604080519290940182900390912086528501959095529290920160002054949350505050565b600060405160200180807f6572632d746f2d6e61746976652d636f7265000000000000000000000000000081525060120190506040516020818303038152906040526040518082805190602001908083835b60208310610cab5780518252601f199092019160209182019101610c8c565b6001836020036101000a0380198251168184511680821785525050505050509050019150506040518091039020905090565b600080600060405160200180807f657865637574696f6e4461696c794c696d697400000000000000000000000000815250601301905060405160208183030381529060405260405180828051906020019080838360208310610bfa5780518252601f199092019160209182019101610bdb565b60008060008360405160200180807f746f74616c457865637574656450657244617900000000000000000000000000815250601301828152602001915050604051602081830303815290604052604051808280519060200190808383602083106109645780518252601f199092019160209182019101610945565b600080600060405160200180807f6461696c794c696d697400000000000000000000000000000000000000000000815250600a01905060405160208183030381529060405260405180828051906020019080838360208310610bfa5780518252601f199092019160209182019101610bdb565b610e46610586565b600160a060020a0383811691161415610e5e57600080fd5b610e68828261248c565b5050565b6000610e766109a5565b15610e8057600080fd5b610e898961252f565b1515610e9457600080fd5b861515610ea057600080fd5b60008611610ead57600080fd5b84846001818110610eba57fe5b90506020020135858560028181101515610ed057fe5b90506020020135101515610ee357600080fd5b600160a060020a0383161515610ef857600080fd5b886002600060405160200180807f76616c696461746f72436f6e747261637400000000000000000000000000000081525060110190506040516020818303038152906040526040518082805190602001908083835b60208310610f6c5780518252601f199092019160209182019101610f4d565b51815160209384036101000a60001901801990921691161790526040805192909401829003909120865285019590955292909201600020805473ffffffffffffffffffffffffffffffffffffffff1916600160a060020a03959095169490941790935550610fdd9150899050612537565b4360008060405160200180807f6465706c6f7965644174426c6f636b0000000000000000000000000000000000815250600f0190506040516020818303038152906040526040518082805190602001908083835b602083106110505780518252601f199092019160209182019101611031565b51815160209384036101000a6000190180199092169116179052604080519290940182900390912086528581019690965250928301600090812095909555505080517f7265717569726564426c6f636b436f6e6669726d6174696f6e73000000000000818401528151601a818303018152603a9091019182905280518b949384939182918401908083835b602083106110fa5780518252601f1990920191602091820191016110db565b51815160209384036101000a6000190180199092169116179052604080519290940182900390912086528581019690965250928301600090812095909555505080517f6761735072696365000000000000000000000000000000000000000000000000818401528151600881830301815260289091019182905280518a949384939182918401908083835b602083106111a45780518252601f199092019160209182019101611185565b51815160209384036101000a6000190180199092169116179052604080519290940182900390912086528501959095529290920160009081209490945550879287925090508181106111f257fe5b9050602002013560008060405160200180807f6d6178506572547800000000000000000000000000000000000000000000000081525060080190506040516020818303038152906040526040518082805190602001908083835b6020831061126b5780518252601f19909201916020918201910161124c565b51815160209384036101000a60001901801990921691161790526040805192909401829003909120865285019590955292909201600020939093555086915085905060018181106112b857fe5b9050602002013560008060405160200180807f657865637574696f6e4461696c794c696d69740000000000000000000000000081525060130190506040516020818303038152906040526040518082805190602001908083835b602083106113315780518252601f199092019160209182019101611312565b51815160209384036101000a600019018019909216911617905260408051929094018290039091208652850195909552929092016000209390935550869150859050600281811061137e57fe5b9050602002013560008060405160200180807f657865637574696f6e4d6178506572547800000000000000000000000000000081525060110190506040516020818303038152906040526040518082805190602001908083835b602083106113f75780518252601f1990920191602091820191016113d8565b51815160209384036101000a6000190180199092169116179052604080519290940182900390912086528581019690965250928301600090812095909555505080517f646563696d616c53686966740000000000000000000000000000000000000000818401528151600c818303018152602c90910191829052805186949384939182918401908083835b602083106114a15780518252601f199092019160209182019101611482565b51815160209384036101000a6000190180199092169116179052604080519290940182900390912086528501959095529290920160002093909355506114ea9150849050612628565b6114f26126e6565b6040805188815290517f4fb76205cd57c896b21511d2114137d8e901b4ccd659e1a0f97d6306795264fb9181900360200190a16040805187815290517f52264b89e0fceafb26e79fd49ef8a366eb6297483bf4035b027f0c99a7ad512e9181900360200190a17f9bebf928b90863f24cc31f726a3a7545efd409f1dcf552301b1ee3710da70d3b8585600181811061158657fe5b905060200201356040518082815260200191505060405180910390a16115aa6109a5565b9998505050505050505050565b6000806115da836115ce6115c9610b7d565b610d50565b9063ffffffff6127a716565b9050806115e5610cdd565b101580156115fa57506115f6611601565b8311155b9392505050565b600080600060405160200180807f657865637574696f6e4d61785065725478000000000000000000000000000000815250601101905060405160208183030381529060405260405180828051906020019080838360208310610bfa5780518252601f199092019160209182019101610bdb565b600061167e611760565b600160a060020a0316638d0680436040518163ffffffff1660e060020a028152600401602060405180830381600087803b1580156116bb57600080fd5b505af11580156116cf573d6000803e3d6000fd5b505050506040513d60208110156116e557600080fd5b5051905090565b60006002600060405160200180807f6f776e65720000000000000000000000000000000000000000000000000000008152506005019050604051602081830303815290604052604051808280519060200190808383602083106105fb5780518252601f1990920191602091820191016105dc565b60006002600060405160200180807f76616c696461746f72436f6e74726163740000000000000000000000000000008152506011019050604051602081830303815290604052604051808280519060200190808383602083106105fb5780518252601f1990920191602091820191016105dc565b600080600060405160200180807f6465706c6f7965644174426c6f636b0000000000000000000000000000000000815250600f01905060405160208183030381529060405260405180828051906020019080838360208310610bfa5780518252601f199092019160209182019101610bdb565b600260036000909192565b61185a6116ec565b600160a060020a0316331461186e57600080fd5b611876610dcb565b8110801561188a5750611887611f3c565b81105b151561189557600080fd5b8060008060405160200180807f6d696e506572547800000000000000000000000000000000000000000000000081525060080190506040516020818303038152906040526040518082805190602001908083835b602083106119085780518252601f1990920191602091820191016118e9565b51815160209384036101000a600019018019909216911617905260408051929094018290039091208652850195909552929092016000209390935550505050565b6119516116ec565b600160a060020a0316331461196557600080fd5b6000811161197257600080fd5b8060008060405160200180807f7265717569726564426c6f636b436f6e6669726d6174696f6e73000000000000815250601a0190506040516020818303038152906040526040518082805190602001908083835b602083106119e55780518252601f1990920191602091820191016119c6565b51815160001960209485036101000a019081169019919091161790526040805194909201849003909320865285830196909652509284016000209490945550815184815291517f4fb76205cd57c896b21511d2114137d8e901b4ccd659e1a0f97d6306795264fb9350918290030190a150565b611a606116ec565b600160a060020a03163314611a7457600080fd5b611a7c611f3c565b811180611a87575080155b1515611a9257600080fd5b8060008060405160200180807f6461696c794c696d697400000000000000000000000000000000000000000000815250600a0190506040516020818303038152906040526040518082805190602001908083835b60208310611b055780518252601f199092019160209182019101611ae6565b51815160001960209485036101000a019081169019919091161790526040805194909201849003909320865285830196909652509284016000209490945550815184815291517fad4123ae17c414d9c6d2fec478b402e6b01856cc250fd01fbfd252fda0089d3c9350918290030190a150565b611b806116ec565b600160a060020a03163314611b9457600080fd5b60008111611ba157600080fd5b8060008060405160200180807f676173507269636500000000000000000000000000000000000000000000000081525060080190506040516020818303038152906040526040518082805190602001908083835b60208310611c145780518252601f199092019160209182019101611bf5565b51815160001960209485036101000a019081169019919091161790526040805194909201849003909320865285830196909652509284016000209490945550815184815291517f52264b89e0fceafb26e79fd49ef8a366eb6297483bf4035b027f0c99a7ad512e9350918290030190a150565b611c8f6116ec565b600160a060020a03163314611ca357600080fd5b611cab610dcb565b8110611cb657600080fd5b8060008060405160200180807f6d617850657254780000000000000000000000000000000000000000000000008152506008019050604051602081830303815290604052604051808280519060200190808383602083106119085780518252601f1990920191602091820191016118e9565b600080600060405160200180807f646563696d616c53686966740000000000000000000000000000000000000000815250600c01905060405160208183030381529060405260405180828051906020019080838360208310610bfa5780518252601f199092019160209182019101610bdb565b600080600060405160200180807f6d696e5065725478000000000000000000000000000000000000000000000000815250600801905060405160208183030381529060405260405180828051906020019080838360208310610bfa5780518252601f199092019160209182019101610bdb565b600080611e25836115ce611e20610b7d565b6108e8565b905080611e30610dcb565b10158015611e455750611e41611f3c565b8311155b80156115fa5750611e54611d9b565b9092101592915050565b611e666116ec565b600160a060020a03163314611e7a57600080fd5b611e82610cdd565b8110611e8d57600080fd5b8060008060405160200180807f657865637574696f6e4d617850657254780000000000000000000000000000008152506011019050604051602081830303815290604052604051808280519060200190808383602083106119085780518252601f1990920191602091820191016118e9565b611f076116ec565b600160a060020a03163314611f1b57600080fd5b600160a060020a0381161515611f3057600080fd5b611f3981612628565b50565b600080600060405160200180807f6d61785065725478000000000000000000000000000000000000000000000000815250600801905060405160208183030381529060405260405180828051906020019080838360208310610bfa5780518252601f199092019160209182019101610bdb565b600080600060405160200180807f6761735072696365000000000000000000000000000000000000000000000000815250600801905060405160208183030381529060405260405180828051906020019080838360208310610bfa5780518252601f199092019160209182019101610bdb565b6000806060600080858061204357508515801561204357506120438b6127ba565b151561204e57600080fd5b86600160a060020a0316638d0680436040518163ffffffff1660e060020a028152600401602060405180830381600087803b15801561208c57600080fd5b505af11580156120a0573d6000803e3d6000fd5b505050506040513d60208110156120b657600080fd5b50518a519095508511156120c957600080fd5b6120d38b876127ce565b9350846040519080825280602002602001820160405280156120ff578160200160208202803883390190505b509250600091505b84821015612294576001848b8481518110151561212057fe5b906020019060200201518b8581518110151561213857fe5b906020019060200201518b8681518110151561215057fe5b60209081029091018101516040805160008082528185018084529790975260ff9095168582015260608501939093526080840152905160a0808401949293601f19830193908390039091019190865af11580156121b1573d6000803e3d6000fd5b50505060206040510351905086600160a060020a031663facd743b826040518263ffffffff1660e060020a0281526004018082600160a060020a0316600160a060020a03168152602001915050602060405180830381600087803b15801561221857600080fd5b505af115801561222c573d6000803e3d6000fd5b505050506040513d602081101561224257600080fd5b5051151561224f57600080fd5b61225983826129e8565b1561226357600080fd5b80838381518110151561227257fe5b600160a060020a03909216602092830290910190910152600190910190612107565b5050505050505050505050565b6000806000806122b0856127ba565b15156122bb57600080fd5b50505050601481015160348201516054830151606890930151919390929190565b80600460008460405160200180807f72656c617965644d657373616765730000000000000000000000000000000000815250600f0182600019166000191681526020019150506040516020818303038152906040526040518082805190602001908083835b602083106123605780518252601f199092019160209182019101612341565b51815160209384036101000a60001901801990921691161790526040805192909401829003909120865285019590955292909201600020805460ff1916941515949094179093555050505050565b6000806123d06123bc610b7d565b6123cb866115ce6115c9610b7d565b612a43565b6123eb6123db611d28565b8590600a0a63ffffffff612b0016565b90506123f5610586565b600160a060020a031663a9059cbb86836040518363ffffffff1660e060020a0281526004018083600160a060020a0316600160a060020a0316815260200182815260200192505050602060405180830381600087803b15801561245757600080fd5b505af115801561246b573d6000803e3d6000fd5b505050506040513d602081101561248157600080fd5b505195945050505050565b30600160a060020a0316636fde82026040518163ffffffff1660e060020a028152600401602060405180830381600087803b1580156124ca57600080fd5b505af11580156124de573d6000803e3d6000fd5b505050506040513d60208110156124f457600080fd5b5051600160a060020a0316331461250a57600080fd5b80600160a060020a038116151561252057600080fd5b61252a8383612b15565b505050565b6000903b1190565b6125408161252f565b151561254b57600080fd5b806002600060405160200180807f6572633230746f6b656e00000000000000000000000000000000000000000000815250600a0190506040516020818303038152906040526040518082805190602001908083835b602083106125bf5780518252601f1990920191602091820191016125a0565b51815160209384036101000a60001901801990921691161790526040805192909401829003909120865285019590955292909201600020805473ffffffffffffffffffffffffffffffffffffffff1916600160a060020a03959095169490941790935550505050565b7f8be0079c531659141344cd1fd0a4f28419497f9722a3daafe3b4186f6b6457e06126516116ec565b60408051600160a060020a03928316815291841660208301528051918290030190a1806002600060405160200180807f6f776e65720000000000000000000000000000000000000000000000000000008152506005019050604051602081830303815290604052604051808280519060200190808383602083106125bf5780518252601f1990920191602091820191016125a0565b60016004600060405160200180807f6973496e697469616c697a656400000000000000000000000000000000000000815250600d0190506040516020818303038152906040526040518082805190602001908083835b6020831061275b5780518252601f19909201916020918201910161273c565b51815160209384036101000a60001901801990921691161790526040805192909401829003909120865285019590955292909201600020805460ff191694151594909417909355505050565b818101828110156127b457fe5b92915050565b60006127c4612b3d565b8251149050919050565b60408051808201909152601a81527f19457468657265756d205369676e6564204d6573736167653a0a00000000000060208201526000906060831561297457816128188651612b42565b866040516020018084805190602001908083835b6020831061284b5780518252601f19909201916020918201910161282c565b51815160209384036101000a600019018019909216911617905286519190930192860191508083835b602083106128935780518252601f199092019160209182019101612874565b51815160209384036101000a600019018019909216911617905285519190930192850191508083835b602083106128db5780518252601f1990920191602091820191016128bc565b6001836020036101000a03801982511681845116808217855250505050505090500193505050506040516020818303038152906040526040518082805190602001908083835b602083106129405780518252601f199092019160209182019101612921565b6001836020036101000a038019825116818451168082178552505050505050905001915050604051809103902092506129e0565b6040805190810160405280600381526020017f313034000000000000000000000000000000000000000000000000000000000081525090508181866040516020018084805190602001908083836020831061284b5780518252601f19909201916020918201910161282c565b505092915050565b6000805b8351811015612a375782600160a060020a03168482815181101515612a0d57fe5b90602001906020020151600160a060020a03161415612a2f5760019150612a3c565b6001016129ec565b600091505b5092915050565b806000808460405160200180807f746f74616c4578656375746564506572446179000000000000000000000000008152506013018281526020019150506040516020818303038152906040526040518082805190602001908083835b60208310612abe5780518252601f199092019160209182019101612a9f565b51815160209384036101000a60001901801990921691161790526040805192909401829003909120865285019590955292909201600020939093555050505050565b60008183811515612b0d57fe5b049392505050565b600160a060020a0382161515612b3357612b2e81612c69565b610e68565b610e688282612cd4565b606890565b60606000808281851515612b8b5760408051808201909152600181527f300000000000000000000000000000000000000000000000000000000000000060208201529450612c60565b8593505b8315612ba657600190920191600a84049350612b8f565b826040519080825280601f01601f191660200182016040528015612bd4578160200160208202803883390190505b5091505060001982015b8515612c5c5781516000198201917f01000000000000000000000000000000000000000000000000000000000000006030600a8a060102918491908110612c2157fe5b9060200101907effffffffffffffffffffffffffffffffffffffffffffffffffffffffffffff1916908160001a905350600a86049550612bde565b8194505b50505050919050565b604051303190600160a060020a0383169082156108fc029083906000818181858888f193505050501515610e68578082612ca1612e2f565b600160a060020a039091168152604051908190036020019082f080158015612ccd573d6000803e3d6000fd5b5050505050565b604080517f70a0823100000000000000000000000000000000000000000000000000000000815230600482015290518391600091600160a060020a038416916370a0823191602480830192602092919082900301818787803b158015612d3957600080fd5b505af1158015612d4d573d6000803e3d6000fd5b505050506040513d6020811015612d6357600080fd5b50519050612d72848483612d78565b50505050565b60408051600160a060020a03841660248201526044808201849052825180830390910181526064909101909152602081810180517bffffffffffffffffffffffffffffffffffffffffffffffffffffffff167fa9059cbb000000000000000000000000000000000000000000000000000000001781528251606093600093909290918491828a5af16000519350839250808015610187575050600083511115612e2757811515612e2757600080fd5b505050505050565b604051602180612e3f833901905600608060405260405160208060218339810160405251600160a060020a038116ff00a165627a7a72305820b88fc8ac8a05f1c3bd94e0b0f5ea31bf94fd0990c86e2eede82af532da530b320029",
  "source": "pragma solidity 0.4.24;\n\nimport \"../BasicForeignBridge.sol\";\nimport \"../ERC20Bridge.sol\";\n\ncontract ForeignBridgeErcToNative is BasicForeignBridge, ERC20Bridge {\n    event RelayedMessage(address recipient, uint256 value, bytes32 transactionHash);\n\n    function initialize(\n        address _validatorContract,\n        address _erc20token,\n        uint256 _requiredBlockConfirmations,\n        uint256 _gasPrice,\n        uint256[] _maxPerTxHomeDailyLimitHomeMaxPerTxArray, //[ 0 = _maxPerTx, 1 = _homeDailyLimit, 2 = _homeMaxPerTx ]\n        address _owner,\n        uint256 _decimalShift\n    ) external returns (bool) {\n        require(!isInitialized());\n        require(AddressUtils.isContract(_validatorContract));\n        require(_requiredBlockConfirmations != 0);\n        require(_gasPrice > 0);\n        require(_maxPerTxHomeDailyLimitHomeMaxPerTxArray[2] < _maxPerTxHomeDailyLimitHomeMaxPerTxArray[1]); // _homeMaxPerTx < _homeDailyLimit\n        require(_owner != address(0));\n\n        addressStorage[VALIDATOR_CONTRACT] = _validatorContract;\n        setErc20token(_erc20token);\n        uintStorage[DEPLOYED_AT_BLOCK] = block.number;\n        uintStorage[REQUIRED_BLOCK_CONFIRMATIONS] = _requiredBlockConfirmations;\n        uintStorage[GAS_PRICE] = _gasPrice;\n        uintStorage[MAX_PER_TX] = _maxPerTxHomeDailyLimitHomeMaxPerTxArray[0];\n        uintStorage[EXECUTION_DAILY_LIMIT] = _maxPerTxHomeDailyLimitHomeMaxPerTxArray[1];\n        uintStorage[EXECUTION_MAX_PER_TX] = _maxPerTxHomeDailyLimitHomeMaxPerTxArray[2];\n        uintStorage[DECIMAL_SHIFT] = _decimalShift;\n        setOwner(_owner);\n        setInitialize();\n\n        emit RequiredBlockConfirmationChanged(_requiredBlockConfirmations);\n        emit GasPriceChanged(_gasPrice);\n        emit ExecutionDailyLimitChanged(_maxPerTxHomeDailyLimitHomeMaxPerTxArray[1]);\n\n        return isInitialized();\n    }\n\n    function getBridgeMode() external pure returns (bytes4 _data) {\n        return bytes4(keccak256(abi.encodePacked(\"erc-to-native-core\")));\n    }\n\n    function claimTokens(address _token, address _to) public {\n        require(_token != address(erc20token()));\n        super.claimTokens(_token, _to);\n    }\n\n    function onExecuteMessage(\n        address _recipient,\n        uint256 _amount,\n        bytes32 /*_txHash*/\n    ) internal returns (bool) {\n        setTotalExecutedPerDay(getCurrentDay(), totalExecutedPerDay(getCurrentDay()).add(_amount));\n        uint256 amount = _amount.div(10 ** decimalShift());\n        return erc20token().transfer(_recipient, amount);\n    }\n\n    function onFailedMessage(address, uint256, bytes32) internal {\n        revert();\n    }\n}\n",
  "sourcePath": "/contracts/contracts/upgradeable_contracts/erc20_to_native/ForeignBridgeErcToNative.sol",
  "compiler": {
    "name": "solc",
    "version": "0.4.24+commit.e67f0147.Emscripten.clang"
  },
  "schemaVersion": "3.0.9",
  "updatedAt": "2019-09-30T13:18:39.326Z",
  "devdoc": {
    "methods": {
      "owner()": {
        "details": "Tells the address of the owner",
        "return": "the address of the owner"
      },
      "transferOwnership(address)": {
        "details": "Allows the current owner to transfer control of the contract to a newOwner.",
        "params": {
          "newOwner": "the address to transfer ownership to."
        }
      }
    }
  },
  "userdoc": {
    "methods": {}
  }
}