{
  "contractName": "HomeBridgeErcToErcPOSDAO",
  "abi": [
    {
      "constant": true,
      "inputs": [
        {
          "name": "_message",
          "type": "bytes32"
        }
      ],
      "name": "numMessagesSigned",
      "outputs": [
        {
          "name": "",
          "type": "uint256"
        }
      ],
      "payable": false,
      "stateMutability": "view",
      "type": "function"
    },
    {
      "constant": true,
      "inputs": [
        {
          "name": "_hash",
          "type": "bytes32"
        },
        {
          "name": "_index",
          "type": "uint256"
        }
      ],
      "name": "signature",
      "outputs": [
        {
          "name": "",
          "type": "bytes"
        }
      ],
      "payable": false,
      "stateMutability": "view",
      "type": "function"
    },
    {
      "constant": true,
      "inputs": [],
      "name": "erc677token",
      "outputs": [
        {
          "name": "",
          "type": "address"
        }
      ],
      "payable": false,
      "stateMutability": "view",
      "type": "function"
    },
    {
      "constant": false,
      "inputs": [
        {
          "name": "_fee",
          "type": "uint256"
        }
      ],
      "name": "setForeignFee",
      "outputs": [],
      "payable": false,
      "stateMutability": "nonpayable",
      "type": "function"
    },
    {
      "constant": true,
      "inputs": [
        {
          "name": "_txHash",
          "type": "bytes32"
        }
      ],
      "name": "fixedAssets",
      "outputs": [
        {
          "name": "",
          "type": "bool"
        }
      ],
      "payable": false,
      "stateMutability": "view",
      "type": "function"
    },
    {
      "constant": true,
      "inputs": [
        {
          "name": "_day",
          "type": "uint256"
        }
      ],
      "name": "totalSpentPerDay",
      "outputs": [
        {
          "name": "",
          "type": "uint256"
        }
      ],
      "payable": false,
      "stateMutability": "view",
      "type": "function"
    },
    {
      "constant": false,
      "inputs": [
        {
          "name": "_fee",
          "type": "uint256"
        }
      ],
      "name": "setHomeFee",
      "outputs": [],
      "payable": false,
      "stateMutability": "nonpayable",
      "type": "function"
    },
    {
      "constant": true,
      "inputs": [],
      "name": "isInitialized",
      "outputs": [
        {
          "name": "",
          "type": "bool"
        }
      ],
      "payable": false,
      "stateMutability": "view",
      "type": "function"
    },
    {
      "constant": false,
      "inputs": [
        {
          "name": "_dailyLimit",
          "type": "uint256"
        }
      ],
      "name": "setExecutionDailyLimit",
      "outputs": [],
      "payable": false,
      "stateMutability": "nonpayable",
      "type": "function"
    },
    {
      "constant": true,
      "inputs": [],
      "name": "getCurrentDay",
      "outputs": [
        {
          "name": "",
          "type": "uint256"
        }
      ],
      "payable": false,
      "stateMutability": "view",
      "type": "function"
    },
    {
      "constant": true,
      "inputs": [],
      "name": "requiredBlockConfirmations",
      "outputs": [
        {
          "name": "",
          "type": "uint256"
        }
      ],
      "payable": false,
      "stateMutability": "view",
      "type": "function"
    },
    {
      "constant": true,
      "inputs": [],
      "name": "requiredMessageLength",
      "outputs": [
        {
          "name": "",
          "type": "uint256"
        }
      ],
      "payable": false,
      "stateMutability": "pure",
      "type": "function"
    },
    {
      "constant": true,
      "inputs": [],
      "name": "getBridgeMode",
      "outputs": [
        {
          "name": "_data",
          "type": "bytes4"
        }
      ],
      "payable": false,
      "stateMutability": "pure",
      "type": "function"
    },
    {
      "constant": true,
      "inputs": [],
      "name": "executionDailyLimit",
      "outputs": [
        {
          "name": "",
          "type": "uint256"
        }
      ],
      "payable": false,
      "stateMutability": "view",
      "type": "function"
    },
    {
      "constant": true,
      "inputs": [
        {
          "name": "_hash",
          "type": "bytes32"
        }
      ],
      "name": "message",
      "outputs": [
        {
          "name": "",
          "type": "bytes"
        }
      ],
      "payable": false,
      "stateMutability": "view",
      "type": "function"
    },
    {
      "constant": true,
      "inputs": [
        {
          "name": "_day",
          "type": "uint256"
        }
      ],
      "name": "totalExecutedPerDay",
      "outputs": [
        {
          "name": "",
          "type": "uint256"
        }
      ],
      "payable": false,
      "stateMutability": "view",
      "type": "function"
    },
    {
      "constant": false,
      "inputs": [
        {
          "name": "_feeManager",
          "type": "address"
        }
      ],
      "name": "setFeeManagerContract",
      "outputs": [],
      "payable": false,
      "stateMutability": "nonpayable",
      "type": "function"
    },
    {
      "constant": false,
      "inputs": [
        {
          "name": "signature",
          "type": "bytes"
        },
        {
          "name": "message",
          "type": "bytes"
        }
      ],
      "name": "submitSignature",
      "outputs": [],
      "payable": false,
      "stateMutability": "nonpayable",
      "type": "function"
    },
    {
      "constant": false,
      "inputs": [
        {
          "name": "_validatorContract",
          "type": "address"
        },
        {
          "name": "_dailyLimitMaxPerTxMinPerTxArray",
          "type": "uint256[]"
        },
        {
          "name": "_homeGasPrice",
          "type": "uint256"
        },
        {
          "name": "_requiredBlockConfirmations",
          "type": "uint256"
        },
        {
          "name": "_erc677token",
          "type": "address"
        },
        {
          "name": "_foreignDailyLimitForeignMaxPerTxArray",
          "type": "uint256[]"
        },
        {
          "name": "_owner",
          "type": "address"
        },
        {
          "name": "_decimalShift",
          "type": "uint256"
        }
      ],
      "name": "initialize",
      "outputs": [
        {
          "name": "",
          "type": "bool"
        }
      ],
      "payable": false,
      "stateMutability": "nonpayable",
      "type": "function"
    },
    {
      "constant": true,
      "inputs": [],
      "name": "dailyLimit",
      "outputs": [
        {
          "name": "",
          "type": "uint256"
        }
      ],
      "payable": false,
      "stateMutability": "view",
      "type": "function"
    },
    {
      "constant": false,
      "inputs": [
        {
          "name": "_token",
          "type": "address"
        },
        {
          "name": "_to",
          "type": "address"
        }
      ],
      "name": "claimTokens",
      "outputs": [],
      "payable": false,
      "stateMutability": "nonpayable",
      "type": "function"
    },
    {
      "constant": true,
      "inputs": [
        {
          "name": "_withdrawal",
          "type": "bytes32"
        }
      ],
      "name": "numAffirmationsSigned",
      "outputs": [
        {
          "name": "",
          "type": "uint256"
        }
      ],
      "payable": false,
      "stateMutability": "view",
      "type": "function"
    },
    {
      "constant": true,
      "inputs": [
        {
          "name": "_withdrawal",
          "type": "bytes32"
        }
      ],
      "name": "affirmationsSigned",
      "outputs": [
        {
          "name": "",
          "type": "bool"
        }
      ],
      "payable": false,
      "stateMutability": "view",
      "type": "function"
    },
    {
      "constant": true,
      "inputs": [
        {
          "name": "_amount",
          "type": "uint256"
        }
      ],
      "name": "withinExecutionLimit",
      "outputs": [
        {
          "name": "",
          "type": "bool"
        }
      ],
      "payable": false,
      "stateMutability": "view",
      "type": "function"
    },
    {
      "constant": true,
      "inputs": [],
      "name": "executionMaxPerTx",
      "outputs": [
        {
          "name": "",
          "type": "uint256"
        }
      ],
      "payable": false,
      "stateMutability": "view",
      "type": "function"
    },
    {
      "constant": true,
      "inputs": [],
      "name": "requiredSignatures",
      "outputs": [
        {
          "name": "",
          "type": "uint256"
        }
      ],
      "payable": false,
      "stateMutability": "view",
      "type": "function"
    },
    {
      "constant": true,
      "inputs": [],
      "name": "owner",
      "outputs": [
        {
          "name": "",
          "type": "address"
        }
      ],
      "payable": false,
      "stateMutability": "view",
      "type": "function"
    },
    {
      "constant": true,
      "inputs": [
        {
          "name": "_message",
          "type": "bytes32"
        }
      ],
      "name": "messagesSigned",
      "outputs": [
        {
          "name": "",
          "type": "bool"
        }
      ],
      "payable": false,
      "stateMutability": "view",
      "type": "function"
    },
    {
      "constant": false,
      "inputs": [
        {
          "name": "_token",
          "type": "address"
        },
        {
          "name": "_to",
          "type": "address"
        }
      ],
      "name": "claimTokensFromErc677",
      "outputs": [],
      "payable": false,
      "stateMutability": "nonpayable",
      "type": "function"
    },
    {
      "constant": true,
      "inputs": [],
      "name": "getHomeFee",
      "outputs": [
        {
          "name": "",
          "type": "uint256"
        }
      ],
      "payable": false,
      "stateMutability": "view",
      "type": "function"
    },
    {
      "constant": true,
      "inputs": [],
      "name": "validatorContract",
      "outputs": [
        {
          "name": "",
          "type": "address"
        }
      ],
      "payable": false,
      "stateMutability": "view",
      "type": "function"
    },
    {
      "constant": false,
      "inputs": [
        {
          "name": "recipient",
          "type": "address"
        },
        {
          "name": "value",
          "type": "uint256"
        },
        {
          "name": "transactionHash",
          "type": "bytes32"
        }
      ],
      "name": "executeAffirmation",
      "outputs": [],
      "payable": false,
      "stateMutability": "nonpayable",
      "type": "function"
    },
    {
      "constant": true,
      "inputs": [],
      "name": "deployedAtBlock",
      "outputs": [
        {
          "name": "",
          "type": "uint256"
        }
      ],
      "payable": false,
      "stateMutability": "view",
      "type": "function"
    },
    {
      "constant": true,
      "inputs": [],
      "name": "getBridgeInterfacesVersion",
      "outputs": [
        {
          "name": "major",
          "type": "uint64"
        },
        {
          "name": "minor",
          "type": "uint64"
        },
        {
          "name": "patch",
          "type": "uint64"
        }
      ],
      "payable": false,
      "stateMutability": "pure",
      "type": "function"
    },
    {
      "constant": true,
      "inputs": [],
      "name": "outOfLimitAmount",
      "outputs": [
        {
          "name": "",
          "type": "uint256"
        }
      ],
      "payable": false,
      "stateMutability": "view",
      "type": "function"
    },
    {
      "constant": false,
      "inputs": [
        {
          "name": "_minPerTx",
          "type": "uint256"
        }
      ],
      "name": "setMinPerTx",
      "outputs": [],
      "payable": false,
      "stateMutability": "nonpayable",
      "type": "function"
    },
    {
      "constant": false,
      "inputs": [
        {
          "name": "_from",
          "type": "address"
        },
        {
          "name": "_value",
          "type": "uint256"
        },
        {
          "name": "",
          "type": "bytes"
        }
      ],
      "name": "onTokenTransfer",
      "outputs": [
        {
          "name": "",
          "type": "bool"
        }
      ],
      "payable": false,
      "stateMutability": "nonpayable",
      "type": "function"
    },
    {
      "constant": false,
      "inputs": [
        {
          "name": "txHash",
          "type": "bytes32"
        },
        {
          "name": "unlockOnForeign",
          "type": "bool"
        },
        {
          "name": "valueToUnlock",
          "type": "uint256"
        }
      ],
      "name": "fixAssetsAboveLimits",
      "outputs": [],
      "payable": false,
      "stateMutability": "nonpayable",
      "type": "function"
    },
    {
      "constant": false,
      "inputs": [
        {
          "name": "_blockConfirmations",
          "type": "uint256"
        }
      ],
      "name": "setRequiredBlockConfirmations",
      "outputs": [],
      "payable": false,
      "stateMutability": "nonpayable",
      "type": "function"
    },
    {
      "constant": false,
      "inputs": [
        {
          "name": "_dailyLimit",
          "type": "uint256"
        }
      ],
      "name": "setDailyLimit",
      "outputs": [],
      "payable": false,
      "stateMutability": "nonpayable",
      "type": "function"
    },
    {
      "constant": false,
      "inputs": [
        {
          "name": "_gasPrice",
          "type": "uint256"
        }
      ],
      "name": "setGasPrice",
      "outputs": [],
      "payable": false,
      "stateMutability": "nonpayable",
      "type": "function"
    },
    {
      "constant": false,
      "inputs": [
        {
          "name": "_maxPerTx",
          "type": "uint256"
        }
      ],
      "name": "setMaxPerTx",
      "outputs": [],
      "payable": false,
      "stateMutability": "nonpayable",
      "type": "function"
    },
    {
      "constant": true,
      "inputs": [],
      "name": "decimalShift",
      "outputs": [
        {
          "name": "",
          "type": "uint256"
        }
      ],
      "payable": false,
      "stateMutability": "view",
      "type": "function"
    },
    {
      "constant": true,
      "inputs": [],
      "name": "feeManagerContract",
      "outputs": [
        {
          "name": "",
          "type": "address"
        }
      ],
      "payable": false,
      "stateMutability": "view",
      "type": "function"
    },
    {
      "constant": true,
      "inputs": [],
      "name": "minPerTx",
      "outputs": [
        {
          "name": "",
          "type": "uint256"
        }
      ],
      "payable": false,
      "stateMutability": "view",
      "type": "function"
    },
    {
      "constant": true,
      "inputs": [
        {
          "name": "_amount",
          "type": "uint256"
        }
      ],
      "name": "withinLimit",
      "outputs": [
        {
          "name": "",
          "type": "bool"
        }
      ],
      "payable": false,
      "stateMutability": "view",
      "type": "function"
    },
    {
      "constant": false,
      "inputs": [
        {
          "name": "_maxPerTx",
          "type": "uint256"
        }
      ],
      "name": "setExecutionMaxPerTx",
      "outputs": [],
      "payable": false,
      "stateMutability": "nonpayable",
      "type": "function"
    },
    {
      "constant": true,
      "inputs": [],
      "name": "getFeeManagerMode",
      "outputs": [
        {
          "name": "",
          "type": "bytes4"
        }
      ],
      "payable": false,
      "stateMutability": "view",
      "type": "function"
    },
    {
      "constant": false,
      "inputs": [
        {
          "name": "newOwner",
          "type": "address"
        }
      ],
      "name": "transferOwnership",
      "outputs": [],
      "payable": false,
      "stateMutability": "nonpayable",
      "type": "function"
    },
    {
      "constant": true,
      "inputs": [],
      "name": "maxPerTx",
      "outputs": [
        {
          "name": "",
          "type": "uint256"
        }
      ],
      "payable": false,
      "stateMutability": "view",
      "type": "function"
    },
    {
      "constant": true,
      "inputs": [],
      "name": "gasPrice",
      "outputs": [
        {
          "name": "",
          "type": "uint256"
        }
      ],
      "payable": false,
      "stateMutability": "view",
      "type": "function"
    },
    {
      "constant": true,
      "inputs": [
        {
          "name": "_number",
          "type": "uint256"
        }
      ],
      "name": "isAlreadyProcessed",
      "outputs": [
        {
          "name": "",
          "type": "bool"
        }
      ],
      "payable": false,
      "stateMutability": "pure",
      "type": "function"
    },
    {
      "constant": true,
      "inputs": [],
      "name": "getForeignFee",
      "outputs": [
        {
          "name": "",
          "type": "uint256"
        }
      ],
      "payable": false,
      "stateMutability": "view",
      "type": "function"
    },
    {
      "anonymous": false,
      "inputs": [
        {
          "indexed": false,
          "name": "recipient",
          "type": "address"
        },
        {
          "indexed": false,
          "name": "value",
          "type": "uint256"
        },
        {
          "indexed": false,
          "name": "transactionHash",
          "type": "bytes32"
        }
      ],
      "name": "AmountLimitExceeded",
      "type": "event"
    },
    {
      "anonymous": false,
      "inputs": [
        {
          "indexed": false,
          "name": "recipient",
          "type": "address"
        },
        {
          "indexed": false,
          "name": "value",
          "type": "uint256"
        }
      ],
      "name": "UserRequestForSignature",
      "type": "event"
    },
    {
      "anonymous": false,
      "inputs": [
        {
          "indexed": true,
          "name": "transactionHash",
          "type": "bytes32"
        },
        {
          "indexed": false,
          "name": "value",
          "type": "uint256"
        },
        {
          "indexed": false,
          "name": "remaining",
          "type": "uint256"
        }
      ],
      "name": "AssetAboveLimitsFixed",
      "type": "event"
    },
    {
      "anonymous": false,
      "inputs": [
        {
          "indexed": false,
          "name": "recipient",
          "type": "address"
        },
        {
          "indexed": false,
          "name": "value",
          "type": "uint256"
        },
        {
          "indexed": false,
          "name": "transactionHash",
          "type": "bytes32"
        }
      ],
      "name": "AffirmationCompleted",
      "type": "event"
    },
    {
      "anonymous": false,
      "inputs": [
        {
          "indexed": true,
          "name": "signer",
          "type": "address"
        },
        {
          "indexed": false,
          "name": "messageHash",
          "type": "bytes32"
        }
      ],
      "name": "SignedForUserRequest",
      "type": "event"
    },
    {
      "anonymous": false,
      "inputs": [
        {
          "indexed": true,
          "name": "signer",
          "type": "address"
        },
        {
          "indexed": false,
          "name": "transactionHash",
          "type": "bytes32"
        }
      ],
      "name": "SignedForAffirmation",
      "type": "event"
    },
    {
      "anonymous": false,
      "inputs": [
        {
          "indexed": false,
          "name": "authorityResponsibleForRelay",
          "type": "address"
        },
        {
          "indexed": false,
          "name": "messageHash",
          "type": "bytes32"
        },
        {
          "indexed": false,
          "name": "NumberOfCollectedSignatures",
          "type": "uint256"
        }
      ],
      "name": "CollectedSignatures",
      "type": "event"
    },
    {
      "anonymous": false,
      "inputs": [
        {
          "indexed": false,
          "name": "newLimit",
          "type": "uint256"
        }
      ],
      "name": "DailyLimitChanged",
      "type": "event"
    },
    {
      "anonymous": false,
      "inputs": [
        {
          "indexed": false,
          "name": "newLimit",
          "type": "uint256"
        }
      ],
      "name": "ExecutionDailyLimitChanged",
      "type": "event"
    },
    {
      "anonymous": false,
      "inputs": [
        {
          "indexed": false,
          "name": "gasPrice",
          "type": "uint256"
        }
      ],
      "name": "GasPriceChanged",
      "type": "event"
    },
    {
      "anonymous": false,
      "inputs": [
        {
          "indexed": false,
          "name": "requiredBlockConfirmations",
          "type": "uint256"
        }
      ],
      "name": "RequiredBlockConfirmationChanged",
      "type": "event"
    },
    {
      "anonymous": false,
      "inputs": [
        {
          "indexed": false,
          "name": "feeAmount",
          "type": "uint256"
        },
        {
          "indexed": true,
          "name": "transactionHash",
          "type": "bytes32"
        }
      ],
      "name": "FeeDistributedFromAffirmation",
      "type": "event"
    },
    {
      "anonymous": false,
      "inputs": [
        {
          "indexed": false,
          "name": "feeAmount",
          "type": "uint256"
        },
        {
          "indexed": true,
          "name": "transactionHash",
          "type": "bytes32"
        }
      ],
      "name": "FeeDistributedFromSignatures",
      "type": "event"
    },
    {
      "anonymous": false,
      "inputs": [
        {
          "indexed": false,
          "name": "previousOwner",
          "type": "address"
        },
        {
          "indexed": false,
          "name": "newOwner",
          "type": "address"
        }
      ],
      "name": "OwnershipTransferred",
      "type": "event"
    },
    {
      "constant": false,
      "inputs": [
        {
          "name": "_validatorContract",
          "type": "address"
        },
        {
          "name": "_dailyLimitMaxPerTxMinPerTxArray",
          "type": "uint256[]"
        },
        {
          "name": "_homeGasPrice",
          "type": "uint256"
        },
        {
          "name": "_requiredBlockConfirmations",
          "type": "uint256"
        },
        {
          "name": "_erc677token",
          "type": "address"
        },
        {
          "name": "_foreignDailyLimitForeignMaxPerTxArray",
          "type": "uint256[]"
        },
        {
          "name": "_owner",
          "type": "address"
        },
        {
          "name": "_feeManager",
          "type": "address"
        },
        {
          "name": "_homeFeeForeignFeeArray",
          "type": "uint256[]"
        },
        {
          "name": "_blockReward",
          "type": "address"
        },
        {
          "name": "_decimalShift",
          "type": "uint256"
        }
      ],
      "name": "rewardableInitialize",
      "outputs": [
        {
          "name": "",
          "type": "bool"
        }
      ],
      "payable": false,
      "stateMutability": "nonpayable",
      "type": "function"
    },
    {
      "constant": false,
      "inputs": [
        {
          "name": "_validatorContract",
          "type": "address"
        },
        {
          "name": "_dailyLimitMaxPerTxMinPerTxArray",
          "type": "uint256[]"
        },
        {
          "name": "_homeGasPrice",
          "type": "uint256"
        },
        {
          "name": "_requiredBlockConfirmations",
          "type": "uint256"
        },
        {
          "name": "_erc677token",
          "type": "address"
        },
        {
          "name": "_foreignDailyLimitForeignMaxPerTxArray",
          "type": "uint256[]"
        },
        {
          "name": "_owner",
          "type": "address"
        },
        {
          "name": "_feeManager",
          "type": "address"
        },
        {
          "name": "_homeFeeForeignFeeArray",
          "type": "uint256[]"
        },
        {
          "name": "_decimalShift",
          "type": "uint256"
        }
      ],
      "name": "rewardableInitialize",
      "outputs": [
        {
          "name": "",
          "type": "bool"
        }
      ],
      "payable": false,
      "stateMutability": "nonpayable",
      "type": "function"
    },
    {
      "constant": true,
      "inputs": [],
      "name": "blockRewardContract",
      "outputs": [
        {
          "name": "",
          "type": "address"
        }
      ],
      "payable": false,
      "stateMutability": "view",
      "type": "function"
    },
    {
      "constant": false,
      "inputs": [
        {
          "name": "_blockReward",
          "type": "address"
        }
      ],
      "name": "setBlockRewardContract",
      "outputs": [],
      "payable": false,
      "stateMutability": "nonpayable",
      "type": "function"
    }
  ],
  "bytecode": "0x608060405234801561001057600080fd5b50615dc380620000216000396000f30060806040526004361061028f5763ffffffff60e060020a6000350416630cbf060181146102945780631812d996146102be57806318d8f9c91461034e57806327a3e16b1461037f578063286c4066146103a25780632888bb9c146103ba5780632bd0bb05146103e657806334a9e148146103fe578063392e53cd146104165780633dd95d1b1461042b5780633e0ce3eb146104435780633e6968b6146104ae5780633f0a9f65146104c3578063408fef2e146104d8578063437764df146104ed57806343b37dd314610534578063490a32c6146105495780634fb3fef71461056157806356b54bae1461057957806360756f7c1461058e578063630cea8e146105af57806366124e41146105db57806367eeba0c1461062c57806369ffa08a146106415780636ae1a976146106685780637698da2414610680578063879ce676146106985780638aa1949a146106b05780638d068043146106c55780638da5cb5b146106da5780638f4b4b98146106ef5780639313dc431461070757806394da17cd1461072e5780639943908914610743578063995b2cff146107585780639a454b991461077f5780639cb7595a14610794578063a0189345146107d5578063a2a6ca27146107ea578063a4c0ed3614610802578063a7444c0d14610833578063acf5c68914610853578063b20d30a91461086b578063bf1fe42014610883578063c6f6f2161461089b578063dae5f0fd146108b3578063dbe03a8b146108c8578063df25f3f0146108dd578063e46c0df0146108f2578063ea9f496814610956578063f20151e11461096e578063f2ba956114610986578063f2fde38b1461099b578063f968adbe146109bc578063fe173b97146109d1578063ffd19e8c146109e6578063ffd66196146109fe575b600080fd5b3480156102a057600080fd5b506102ac600435610a13565b60408051918252519081900360200190f35b3480156102ca57600080fd5b506102d9600435602435610ad8565b6040805160208082528351818301528351919283929083019185019080838360005b838110156103135781810151838201526020016102fb565b50505050905090810190601f1680156103405780820380516001836020036101000a031916815260200191505b509250505060405180910390f35b34801561035a57600080fd5b50610363610cb5565b60408051600160a060020a039092168252519081900360200190f35b34801561038b57600080fd5b506103a0600160a060020a0360043516610d74565b005b3480156103ae57600080fd5b506103a0600435610daa565b3480156103c657600080fd5b506103d2600435610e64565b604080519115158252519081900360200190f35b3480156103f257600080fd5b506102ac600435610f2d565b34801561040a57600080fd5b506103a0600435610fa8565b34801561042257600080fd5b506103d261102c565b34801561043757600080fd5b506103a06004356110e4565b34801561044f57600080fd5b506103d2600160a060020a036004803582169160248035808201939081013592604435926064359260843583169260a43580840193908301359260c43583169260e4358116926101043590810192013590610124351661014435611204565b3480156104ba57600080fd5b506102ac6112d2565b3480156104cf57600080fd5b506102ac6112db565b3480156104e457600080fd5b506102ac61138f565b3480156104f957600080fd5b5061050261139e565b604080517bffffffffffffffffffffffffffffffffffffffffffffffffffffffff199092168252519081900360200190f35b34801561054057600080fd5b506102ac611441565b34801561055557600080fd5b506102d96004356114b4565b34801561056d57600080fd5b506102ac60043561161c565b34801561058557600080fd5b50610363611697565b34801561059a57600080fd5b506103a0600160a060020a0360043516611710565b3480156105bb57600080fd5b506103a0602460048035828101929082013591813591820191013561182e565b3480156105e757600080fd5b506103d260048035600160a060020a039081169160248035808201939083013592604435926064359260843581169260a4359283019201359060c4351660e435611cc4565b34801561063857600080fd5b506102ac611d53565b34801561064d57600080fd5b506103a0600160a060020a0360043581169060243516611dc6565b34801561067457600080fd5b506102ac600435611e69565b34801561068c57600080fd5b506103d2600435611eec565b3480156106a457600080fd5b506103d2600435611f70565b3480156106bc57600080fd5b506102ac611fba565b3480156106d157600080fd5b506102ac61202d565b3480156106e657600080fd5b506103636120a5565b3480156106fb57600080fd5b506103d2600435612119565b34801561071357600080fd5b506103a0600160a060020a036004358116906024351661219d565b34801561073a57600080fd5b506102ac6122ac565b34801561074f57600080fd5b50610363612340565b34801561076457600080fd5b506103a0600160a060020a03600435166024356044356123b4565b34801561078b57600080fd5b506102ac6126a6565b3480156107a057600080fd5b506107a9612719565b6040805167ffffffffffffffff9485168152928416602084015292168183015290519081900360600190f35b3480156107e157600080fd5b506102ac612724565b3480156107f657600080fd5b506103a0600435612797565b34801561080e57600080fd5b506103d260048035600160a060020a031690602480359160443591820191013561288e565b34801561083f57600080fd5b506103a060043560243515156044356128ff565b34801561085f57600080fd5b506103a0600435612b8c565b34801561087757600080fd5b506103a0600435612c9b565b34801561088f57600080fd5b506103a0600435612dbb565b3480156108a757600080fd5b506103a0600435612eca565b3480156108bf57600080fd5b506102ac612f6b565b3480156108d457600080fd5b50610363612fde565b3480156108e957600080fd5b506102ac613052565b3480156108fe57600080fd5b506103d2600160a060020a036004803582169160248035808201939081013592604435926064359260843583169260a43580840193908301359260c43583169260e435169161010435908101910135610124356130c5565b34801561096257600080fd5b506103d2600435613188565b34801561097a57600080fd5b506103a06004356131d3565b34801561099257600080fd5b50610502613274565b3480156109a757600080fd5b506103a0600160a060020a03600435166132e6565b3480156109c857600080fd5b506102ac613320565b3480156109dd57600080fd5b506102ac613393565b3480156109f257600080fd5b506103d2600435613406565b348015610a0a57600080fd5b506102ac61342e565b60008060008360405160200180807f6e756d4d657373616765735369676e656400000000000000000000000000000081525060110182600019166000191681526020019150506040516020818303038152906040526040518082805190602001908083835b60208310610a975780518252601f199092019160209182019101610a78565b51815160209384036101000a600019018019909216911617905260408051929094018290039091208652850195909552929092016000205495945050505050565b604080516020808201859052818301849052825180830384018152606092830193849052805192936000939192909182918401908083835b60208310610b2f5780518252601f199092019160209182019101610b10565b51815160209384036101000a6000190180199092169116179052604080519290940182900382207f7369676e6174757265730000000000000000000000000000000000000000000083830152602a80840182905285518085039091018152604a9093019485905282519097506003965060009550919392508291908401908083835b60208310610bd05780518252601f199092019160209182019101610bb1565b6001836020036101000a0380198251168184511680821785525050505050509050019150506040518091039020600019166000191681526020019081526020016000208054600181600116156101000203166002900480601f016020809104026020016040519081016040528092919081815260200182805460018160011615610100020316600290048015610ca75780601f10610c7c57610100808354040283529160200191610ca7565b820191906000526020600020905b815481529060010190602001808311610c8a57829003601f168201915b505050505091505092915050565b60006002600060405160200180807f657263363737746f6b656e000000000000000000000000000000000000000000815250600b0190506040516020818303038152906040526040518082805190602001908083835b60208310610d2a5780518252601f199092019160209182019101610d0b565b51815160209384036101000a6000190180199092169116179052604080519290940182900390912086528501959095529290920160002054600160a060020a031693505050505b90565b6000610d7e6120a5565b600160a060020a03163314610d9257600080fd5b610d9a612fde565b9050610da6818361348f565b5050565b610db26120a5565b600160a060020a03163314610dc657600080fd5b610e61610dd1612fde565b826040516020018080600080516020615d58833981519152815250600b0190506040516020818303038152906040526040518082805190602001908083835b60208310610e2f5780518252601f199092019160209182019101610e10565b6001836020036101000a0380198251168184511680821785525050505050509050019150506040518091039020613561565b50565b6000600460008360405160200180807f6669786564417373657473000000000000000000000000000000000000000000815250600b0182600019166000191681526020019150506040516020818303038152906040526040518082805190602001908083835b60208310610ee95780518252601f199092019160209182019101610eca565b51815160209384036101000a600019018019909216911617905260408051929094018290039091208652850195909552929092016000205460ff1695945050505050565b60008060008360405160200180807f746f74616c5370656e745065724461790000000000000000000000000000000081525060100182815260200191505060405160208183030381529060405260405180828051906020019080838360208310610a975780518252601f199092019160209182019101610a78565b610fb06120a5565b600160a060020a03163314610fc457600080fd5b610e61610fcf612fde565b826040516020018080600080516020615d78833981519152815250600801905060405160208183030381529060405260405180828051906020019080838360208310610e2f5780518252601f199092019160209182019101610e10565b60006004600060405160200180807f6973496e697469616c697a656400000000000000000000000000000000000000815250600d0190506040516020818303038152906040526040518082805190602001908083835b602083106110a15780518252601f199092019160209182019101611082565b51815160209384036101000a600019018019909216911617905260408051929094018290039091208652850195909552929092016000205460ff16949350505050565b6110ec6120a5565b600160a060020a0316331461110057600080fd5b611108611fba565b811180611113575080155b151561111e57600080fd5b8060008060405160200180807f657865637574696f6e4461696c794c696d69740000000000000000000000000081525060130190506040516020818303038152906040526040518082805190602001908083835b602083106111915780518252601f199092019160209182019101611172565b51815160001960209485036101000a019081169019919091161790526040805194909201849003909320865285830196909652509284016000209490945550815184815291517f9bebf928b90863f24cc31f726a3a7545efd409f1dcf552301b1ee3710da70d3b9350918290030190a150565b60006112a58f8f8f808060200260200160405190810160405280939291908181526020018383602002808284378201915050505050508e8e8e8e8e808060200260200160405190810160405280939291908181526020018383602002808284378201915050505050508d8d8d8d808060200260200160405190810160405280939291908181526020018383602002808284378201915050505050508b613713565b6112af868461348f565b6112b7613910565b6112bf61102c565b9f9e505050505050505050505050505050565b62015180420490565b600080600060405160200180807f7265717569726564426c6f636b436f6e6669726d6174696f6e73000000000000815250601a0190506040516020818303038152906040526040518082805190602001908083835b6020831061134f5780518252601f199092019160209182019101611330565b51815160209384036101000a6000190180199092169116179052604080519290940182900390912086528501959095529290920160002054949350505050565b60006113996139d1565b905090565b600060405160200180807f6572632d746f2d6572632d636f72650000000000000000000000000000000000815250600f0190506040516020818303038152906040526040518082805190602001908083835b6020831061140f5780518252601f1990920191602091820191016113f0565b6001836020036101000a0380198251168184511680821785525050505050509050019150506040518091039020905090565b600080600060405160200180807f657865637574696f6e4461696c794c696d69740000000000000000000000000081525060130190506040516020818303038152906040526040518082805190602001908083836020831061134f5780518252601f199092019160209182019101611330565b6060600360008360405160200180807f6d6573736167657300000000000000000000000000000000000000000000000081525060080182600019166000191681526020019150506040516020818303038152906040526040518082805190602001908083835b602083106115395780518252601f19909201916020918201910161151a565b6001836020036101000a0380198251168184511680821785525050505050509050019150506040518091039020600019166000191681526020019081526020016000208054600181600116156101000203166002900480601f0160208091040260200160405190810160405280929190818152602001828054600181600116156101000203166002900480156116105780601f106115e557610100808354040283529160200191611610565b820191906000526020600020905b8154815290600101906020018083116115f357829003601f168201915b50505050509050919050565b60008060008360405160200180807f746f74616c45786563757465645065724461790000000000000000000000000081525060130182815260200191505060405160208183030381529060405260405180828051906020019080838360208310610a975780518252601f199092019160209182019101610a78565b600080600060606116a6612fde565b60408051600481526024810190915260208082018051600160e060020a03167f56b54bae0000000000000000000000000000000000000000000000000000000017815282519395509193509160009182865af2600051935080801561028f575b5092949350505050565b6117186120a5565b600160a060020a0316331461172c57600080fd5b600160a060020a03811615806117465750611746816139d6565b151561175157600080fd5b806002600060405160200180807f6665654d616e61676572436f6e7472616374000000000000000000000000000081525060120190506040516020818303038152906040526040518082805190602001908083835b602083106117c55780518252601f1990920191602091820191016117a6565b51815160209384036101000a60001901801990921691161790526040805192909401829003909120865285019590955292909201600020805473ffffffffffffffffffffffffffffffffffffffff1916600160a060020a03959095169490941790935550505050565b600080600080600061183e612340565b600160a060020a031663facd743b336040518263ffffffff1660e060020a0281526004018082600160a060020a0316600160a060020a03168152602001915050602060405180830381600087803b15801561189857600080fd5b505af11580156118ac573d6000803e3d6000fd5b505050506040513d60208110156118c257600080fd5b505115156118cf57600080fd5b61190887878080601f016020809104026020016040519081016040528093929190818152602001838380828437506139de945050505050565b151561191357600080fd5b61197d89898080601f0160208091040260200160405190810160405280939291908181526020018383808284375050604080516020601f8f018190048102820181019092528d815294508d93508c9250829150840183828082843750600094506139f29350505050565b600160a060020a0316331461199157600080fd5b8686604051602001808383808284378201915050925050506040516020818303038152906040526040518082805190602001908083835b602083106119e75780518252601f1990920191602091820191016119c8565b51815160209384036101000a600019018019909216911617905260408051929094018290038220336c0100000000000000000000000002838301526034808401829052855180850390910181526054909301948590528251909b509195509293508392850191508083835b60208310611a715780518252601f199092019160209182019101611a52565b6001836020036101000a03801982511681845116808217855250505050505090500191505060405180910390209350611aa985610a13565b9250611ab483613406565b15611abe57600080fd5b600192830192831115611ae357611ad484612119565b15611ade57600080fd5b611b1d565b611b1d8588888080601f01602080910402602001604051908101604052809392919081815260200183838082843750613ab4945050505050565b611b28846001613b86565b604080516020808201889052600019860182840152825180830384018152606090920192839052815191929182918401908083835b60208310611b7c5780518252601f199092019160209182019101611b5d565b51815160209384036101000a600019018019909216911617905260408051929094018290038220601f8f018290048202830182019094528d8252929650611bdd9450869350918d91508c908190840183828082843750613c58945050505050565b611be78584613cdb565b60408051868152905133917fbf06885f40778f5ccfb64497d3f92ce568ddaedb7e2fb4487f72690418cf8e4c919081900360200190a2611c2561202d565b9050808310611cb957611c4085611c3b85613da0565b613cdb565b604080513381526020810187905280820183905290517f415557404d88a0c0b8e3b16967cafffc511213fd9c465c16832ee17ed57d72379181900360600190a1611cb987878080601f01602080910402602001604051908101604052809392919081815260200183838082843750613dc5945050505050565b505050505050505050565b6000611d348b8b8b808060200260200160405190810160405280939291908181526020018383602002808284378201915050505050508a8a8a8a8a808060200260200160405190810160405280939291908181526020018383602002808284378201915050505050508989613e79565b611d3c613910565b611d4461102c565b9b9a5050505050505050505050565b600080600060405160200180807f6461696c794c696d697400000000000000000000000000000000000000000000815250600a0190506040516020818303038152906040526040518082805190602001908083836020831061134f5780518252601f199092019160209182019101611330565b30600160a060020a0316636fde82026040518163ffffffff1660e060020a028152600401602060405180830381600087803b158015611e0457600080fd5b505af1158015611e18573d6000803e3d6000fd5b505050506040513d6020811015611e2e57600080fd5b5051600160a060020a03163314611e4457600080fd5b80600160a060020a0381161515611e5a57600080fd5b611e64838361482b565b505050565b60008060008360405160200180807f6e756d41666669726d6174696f6e735369676e65640000000000000000000000815250601501826000191660001916815260200191505060405160208183030381529060405260405180828051906020019080838360208310610a975780518252601f199092019160209182019101610a78565b6000600460008360405160200180807f61666669726d6174696f6e735369676e65640000000000000000000000000000815250601201826000191660001916815260200191505060405160208183030381529060405260405180828051906020019080838360208310610ee95780518252601f199092019160209182019101610eca565b600080611f9383611f87611f826112d2565b61161c565b9063ffffffff61485316565b905080611f9e611441565b10158015611fb35750611faf611fba565b8311155b9392505050565b600080600060405160200180807f657865637574696f6e4d6178506572547800000000000000000000000000000081525060110190506040516020818303038152906040526040518082805190602001908083836020831061134f5780518252601f199092019160209182019101611330565b6000612037612340565b600160a060020a0316638d0680436040518163ffffffff1660e060020a028152600401602060405180830381600087803b15801561207457600080fd5b505af1158015612088573d6000803e3d6000fd5b505050506040513d602081101561209e57600080fd5b5051905090565b60006002600060405160200180807f6f776e6572000000000000000000000000000000000000000000000000000000815250600501905060405160208183030381529060405260405180828051906020019080838360208310610d2a5780518252601f199092019160209182019101610d0b565b6000600460008360405160200180807f6d657373616765735369676e6564000000000000000000000000000000000000815250600e01826000191660001916815260200191505060405160208183030381529060405260405180828051906020019080838360208310610ee95780518252601f199092019160209182019101610eca565b30600160a060020a0316636fde82026040518163ffffffff1660e060020a028152600401602060405180830381600087803b1580156121db57600080fd5b505af11580156121ef573d6000803e3d6000fd5b505050506040513d602081101561220557600080fd5b5051600160a060020a0316331461221b57600080fd5b612223610cb5565b604080517f69ffa08a000000000000000000000000000000000000000000000000000000008152600160a060020a0385811660048301528481166024830152915192909116916369ffa08a9160448082019260009290919082900301818387803b15801561229057600080fd5b505af11580156122a4573d6000803e3d6000fd5b505050505050565b60006113996040516020018080600080516020615d7883398151915281525060080190506040516020818303038152906040526040518082805190602001908083835b6020831061230e5780518252601f1990920191602091820191016122ef565b6001836020036101000a0380198251168184511680821785525050505050509050019150506040518091039020614866565b60006002600060405160200180807f76616c696461746f72436f6e7472616374000000000000000000000000000000815250601101905060405160208183030381529060405260405180828051906020019080838360208310610d2a5780518252601f199092019160209182019101610d0b565b60008060006123c1612340565b600160a060020a031663facd743b336040518263ffffffff1660e060020a0281526004018082600160a060020a0316600160a060020a03168152602001915050602060405180830381600087803b15801561241b57600080fd5b505af115801561242f573d6000803e3d6000fd5b505050506040513d602081101561244557600080fd5b5051151561245257600080fd5b61245b85611f70565b1561269b57604080516c01000000000000000000000000600160a060020a0389160260208083019190915260348201889052605480830188905283518084039091018152607490920192839052815191929182918401908083835b602083106124d55780518252601f1990920191602091820191016124b6565b51815160209384036101000a600019018019909216911617905260408051929094018290038220336c01000000000000000000000000028383015260348084018290528551808503909101815260549093019485905282519099509195509293508392850191508083835b6020831061255f5780518252601f199092019160209182019101612540565b6001836020036101000a0380198251168184511680821785525050505050509050019150506040518091039020915061259782611eec565b156125a157600080fd5b6125ac8260016149be565b6125b583611e69565b90506125c081613406565b156125ca57600080fd5b6001016125d78382614a41565b60408051858152905133917f5df9cc3eb93d8a9a481857a3b70a8ca966e6b80b25cf0ee2cce180ec5afa80a1919081900360200190a261261561202d565b81106126965761262d8361262883613da0565b614a41565b600085111561264c57612641868686614ac3565b151561264c57600080fd5b60408051600160a060020a03881681526020810187905280820186905290517f6fc115a803b8703117d9a3956c5a15401cb42401f91630f015eb6b043fa762539181900360600190a15b6122a4565b6122a4868686614c42565b600080600060405160200180807f6465706c6f7965644174426c6f636b0000000000000000000000000000000000815250600f0190506040516020818303038152906040526040518082805190602001908083836020831061134f5780518252601f199092019160209182019101611330565b600260036000909192565b600080600060405160200180807f6f75744f664c696d6974416d6f756e740000000000000000000000000000000081525060100190506040516020818303038152906040526040518082805190602001908083836020831061134f5780518252601f199092019160209182019101611330565b61279f6120a5565b600160a060020a031633146127b357600080fd5b6127bb611d53565b811080156127cf57506127cc613320565b81105b15156127da57600080fd5b8060008060405160200180807f6d696e506572547800000000000000000000000000000000000000000000000081525060080190506040516020818303038152906040526040518082805190602001908083835b6020831061284d5780518252601f19909201916020918201910161282e565b51815160209384036101000a600019018019909216911617905260408051929094018290039091208652850195909552929092016000209390935550505050565b600080612899610cb5565b905033600160a060020a038216146128b057600080fd5b6128b985613188565b15156128c457600080fd5b6128e86128cf6112d2565b6128e387611f876128de6112d2565b610f2d565b614cdd565b6128f3818787614d57565b50600195945050505050565b60008060008060008030600160a060020a0316636fde82026040518163ffffffff1660e060020a028152600401602060405180830381600087803b15801561294657600080fd5b505af115801561295a573d6000803e3d6000fd5b505050506040513d602081101561297057600080fd5b5051600160a060020a0316331461298657600080fd5b61298f89610e64565b1561299957600080fd5b6129a1613320565b8711156129ad57600080fd5b6129b689614dc2565b9096509450600160a060020a038616158015906129d35750600085115b80156129df5750868510155b15156129ea57600080fd5b612a0a612a05886129f9612724565b9063ffffffff614f4916565b614f5b565b612a1a858863ffffffff614f4916565b9350612a26848a614fcd565b604080518881526020810186905281518b927f5bcec6564fe8d2cbb4e4eb8237510ceb6b291a5c2ee2e429948d25e9c924c1fa928290030190a2831515612a7057612a708961504f565b8715611cb957612a7e612fde565b9250869150600160a060020a03831615612b3d57612b28876000856040516020018080600080516020615d7883398151915281525060080190506040516020818303038152906040526040518082805190602001908083835b60208310612af65780518252601f199092019160209182019101612ad7565b6001836020036101000a0380198251168184511680821785525050505050509050019150506040518091039020615121565b9050612b3a878263ffffffff614f4916565b91505b60408051600160a060020a03881681526020810184905281517f127650bcfb0ba017401abe4931453a405140a8fd36fece67bae2db174d3fdd63929181900390910190a1505050505050505050565b612b946120a5565b600160a060020a03163314612ba857600080fd5b60008111612bb557600080fd5b8060008060405160200180807f7265717569726564426c6f636b436f6e6669726d6174696f6e73000000000000815250601a0190506040516020818303038152906040526040518082805190602001908083835b60208310612c285780518252601f199092019160209182019101612c09565b51815160001960209485036101000a019081169019919091161790526040805194909201849003909320865285830196909652509284016000209490945550815184815291517f4fb76205cd57c896b21511d2114137d8e901b4ccd659e1a0f97d6306795264fb9350918290030190a150565b612ca36120a5565b600160a060020a03163314612cb757600080fd5b612cbf613320565b811180612cca575080155b1515612cd557600080fd5b8060008060405160200180807f6461696c794c696d697400000000000000000000000000000000000000000000815250600a0190506040516020818303038152906040526040518082805190602001908083835b60208310612d485780518252601f199092019160209182019101612d29565b51815160001960209485036101000a019081169019919091161790526040805194909201849003909320865285830196909652509284016000209490945550815184815291517fad4123ae17c414d9c6d2fec478b402e6b01856cc250fd01fbfd252fda0089d3c9350918290030190a150565b612dc36120a5565b600160a060020a03163314612dd757600080fd5b60008111612de457600080fd5b8060008060405160200180807f676173507269636500000000000000000000000000000000000000000000000081525060080190506040516020818303038152906040526040518082805190602001908083835b60208310612e575780518252601f199092019160209182019101612e38565b51815160001960209485036101000a019081169019919091161790526040805194909201849003909320865285830196909652509284016000209490945550815184815291517f52264b89e0fceafb26e79fd49ef8a366eb6297483bf4035b027f0c99a7ad512e9350918290030190a150565b612ed26120a5565b600160a060020a03163314612ee657600080fd5b612eee611d53565b8110612ef957600080fd5b8060008060405160200180807f6d6178506572547800000000000000000000000000000000000000000000000081525060080190506040516020818303038152906040526040518082805190602001908083836020831061284d5780518252601f19909201916020918201910161282e565b600080600060405160200180807f646563696d616c53686966740000000000000000000000000000000000000000815250600c0190506040516020818303038152906040526040518082805190602001908083836020831061134f5780518252601f199092019160209182019101611330565b60006002600060405160200180807f6665654d616e61676572436f6e74726163740000000000000000000000000000815250601201905060405160208183030381529060405260405180828051906020019080838360208310610d2a5780518252601f199092019160209182019101610d0b565b600080600060405160200180807f6d696e506572547800000000000000000000000000000000000000000000000081525060080190506040516020818303038152906040526040518082805190602001908083836020831061134f5780518252601f199092019160209182019101611330565b60006131668e8e8e808060200260200160405190810160405280939291908181526020018383602002808284378201915050505050508d8d8d8d8d808060200260200160405190810160405280939291908181526020018383602002808284378201915050505050508c8c8c8c808060200260200160405190810160405280939291908181526020018383602002808284378201915050505050508b613713565b61316e613910565b61317661102c565b9e9d5050505050505050505050505050565b60008061319a83611f876128de6112d2565b9050806131a5611d53565b101580156131ba57506131b6613320565b8311155b8015611fb357506131c9613052565b9092101592915050565b6131db6120a5565b600160a060020a031633146131ef57600080fd5b6131f7611441565b811061320257600080fd5b8060008060405160200180807f657865637574696f6e4d6178506572547800000000000000000000000000000081525060110190506040516020818303038152906040526040518082805190602001908083836020831061284d5780518252601f19909201916020918201910161282e565b604080516004815260248101909152602081018051600160e060020a03167ff2ba9561000000000000000000000000000000000000000000000000000000001790526000908190816132c4612fde565b9050600460008351602085016000855af2600051935080801561028f57611706565b6132ee6120a5565b600160a060020a0316331461330257600080fd5b600160a060020a038116151561331757600080fd5b610e61816151ac565b600080600060405160200180807f6d6178506572547800000000000000000000000000000000000000000000000081525060080190506040516020818303038152906040526040518082805190602001908083836020831061134f5780518252601f199092019160209182019101611330565b600080600060405160200180807f676173507269636500000000000000000000000000000000000000000000000081525060080190506040516020818303038152906040526040518082805190602001908083836020831061134f5780518252601f199092019160209182019101611330565b7f80000000000000000000000000000000000000000000000000000000000000009081161490565b60006113996040516020018080600080516020615d58833981519152815250600b0190506040516020818303038152906040526040518082805190602001908083836020831061230e5780518252601f1990920191602091820191016122ef565b60408051600160a060020a038381166024808401919091528351808403909101815260449092018352602082018051600160e060020a03167f27a3e16b000000000000000000000000000000000000000000000000000000001781529251825191861693909182919080838360005b838110156135165781810151838201526020016134fe565b50505050905090810190601f1680156135435780820380516001836020036101000a031916815260200191505b50915050600060405180830381855af49150501515610da657600080fd5b60006040516020018080600080516020615d7883398151915281525060080190506040516020818303038152906040526040518082805190602001908083835b602083106135c05780518252601f1990920191602091820191016135a1565b5181516020939093036101000a600019018019909116921691909117905260405192018290039091208514925061361a915050577f286c40660000000000000000000000000000000000000000000000000000000061363c565b7f34a9e148000000000000000000000000000000000000000000000000000000005b6040805160248082018790528251808303909101815260449091018252602081018051600160e060020a03167bffffffffffffffffffffffffffffffffffffffffffffffffffffffff19851617815291518151939450600160a060020a038816939192909182919080838360005b838110156136c25781810151838201526020016136aa565b50505050905090810190601f1680156136ef5780820380516001836020036101000a031916815260200191505b50915050600060405180830381855af4915050151561370d57600080fd5b50505050565b6137238a8a8a8a8a8a8a88613e79565b61372c836139d6565b151561373757600080fd5b826002600060405160200180807f6665654d616e61676572436f6e7472616374000000000000000000000000000081525060120190506040516020818303038152906040526040518082805190602001908083835b602083106137ab5780518252601f19909201916020918201910161378c565b51815160209384036101000a600019018019909216911617905260408051929094018290039091208652850195909552929092016000908120805473ffffffffffffffffffffffffffffffffffffffff1916600160a060020a0396909616959095179094555050835161388b928692508591811061382557fe5b906020019060200201516040516020018080600080516020615d78833981519152815250600801905060405160208183030381529060405260405180828051906020019080838360208310610e2f5780518252601f199092019160209182019101610e10565b6139048383600181518110151561389e57fe5b906020019060200201516040516020018080600080516020615d58833981519152815250600b01905060405160208183030381529060405260405180828051906020019080838360208310610e2f5780518252601f199092019160209182019101610e10565b50505050505050505050565b60016004600060405160200180807f6973496e697469616c697a656400000000000000000000000000000000000000815250600d0190506040516020818303038152906040526040518082805190602001908083835b602083106139855780518252601f199092019160209182019101613966565b51815160209384036101000a60001901801990921691161790526040805192909401829003909120865285019590955292909201600020805460ff191694151594909417909355505050565b606890565b6000903b1190565b60006139e86139d1565b8251149050919050565b60008060008086516041141515613a0857600080fd5b5050506020840151604085015160608601516001613a26878761526a565b60408051600080825260208083018085529490945260ff7f0100000000000000000000000000000000000000000000000000000000000000870416828401526060820188905260808201879052915160a08083019493601f198301938390039091019190865af1158015613a9e573d6000803e3d6000fd5b5050604051601f19015198975050505050505050565b80600360008460405160200180807f6d6573736167657300000000000000000000000000000000000000000000000081525060080182600019166000191681526020019150506040516020818303038152906040526040518082805190602001908083835b60208310613b385780518252601f199092019160209182019101613b19565b51815160001960209485036101000a01908116901991909116179052604080519490920184900390932086528583019690965250929093016000208451611e64959194509201919050615c8f565b80600460008460405160200180807f6d657373616765735369676e6564000000000000000000000000000000000000815250600e0182600019166000191681526020019150506040516020818303038152906040526040518082805190602001908083835b60208310613c0a5780518252601f199092019160209182019101613beb565b51815160209384036101000a60001901801990921691161790526040805192909401829003909120865285019590955292909201600020805460ff1916941515949094179093555050505050565b80600360008460405160200180807f7369676e61747572657300000000000000000000000000000000000000000000815250600a01826000191660001916815260200191505060405160208183030381529060405260405180828051906020019080838360208310613b385780518252601f199092019160209182019101613b19565b806000808460405160200180807f6e756d4d657373616765735369676e656400000000000000000000000000000081525060110182600019166000191681526020019150506040516020818303038152906040526040518082805190602001908083835b60208310613d5e5780518252601f199092019160209182019101613d3f565b51815160209384036101000a60001901801990921691161790526040805192909401829003909120865285019590955292909201600020939093555050505050565b7f80000000000000000000000000000000000000000000000000000000000000001790565b600080600080600080613dd6612fde565b9550600160a060020a03861615613e7057613df087615484565b80955081965082975083985050505050613e63846001886040516020018080600080516020615d78833981519152815250600801905060405160208183030381529060405260405180828051906020019080838360208310612af65780518252601f199092019160209182019101612ad7565b9050613e708187856154bf565b50505050505050565b613e8161102c565b15613e8b57600080fd5b613e94886139d6565b1515613e9f57600080fd5b60008511613eac57600080fd5b6000876002815181101515613ebd57fe5b90602001906020020151118015613f035750866002815181101515613ede57fe5b90602001906020020151876001815181101515613ef757fe5b90602001906020020151115b8015613f3e5750866001815181101515613f1957fe5b90602001906020020151876000815181101515613f3257fe5b90602001906020020151115b1515613f4957600080fd5b826000815181101515613f5857fe5b90602001906020020151836001815181101515613f7157fe5b6020908102909101015110613f8557600080fd5b600160a060020a0382161515613f9a57600080fd5b876002600060405160200180807f76616c696461746f72436f6e747261637400000000000000000000000000000081525060110190506040516020818303038152906040526040518082805190602001908083835b6020831061400e5780518252601f199092019160209182019101613fef565b51815160209384036101000a60001901801990921691161790526040805192909401829003909120865285810196909652509283016000908120805473ffffffffffffffffffffffffffffffffffffffff1916600160a060020a039790971696909617909555505080517f6465706c6f7965644174426c6f636b0000000000000000000000000000000000818401528151600f818303018152602f90910191829052805143949384939182918401908083835b602083106140e05780518252601f1990920191602091820191016140c1565b51815160209384036101000a600019018019909216911617905260408051929094018290039091208652850195909552929092016000908120949094555050885189929150811061412d57fe5b9060200190602002015160008060405160200180807f6461696c794c696d697400000000000000000000000000000000000000000000815250600a0190506040516020818303038152906040526040518082805190602001908083835b602083106141a95780518252601f19909201916020918201910161418a565b51815160209384036101000a60001901801990921691161790526040805192909401829003909120865285019590955292909201600020939093555050875188915060019081106141f657fe5b9060200190602002015160008060405160200180807f6d6178506572547800000000000000000000000000000000000000000000000081525060080190506040516020818303038152906040526040518082805190602001908083835b602083106142725780518252601f199092019160209182019101614253565b51815160209384036101000a60001901801990921691161790526040805192909401829003909120865285019590955292909201600020939093555050875188915060029081106142bf57fe5b9060200190602002015160008060405160200180807f6d696e506572547800000000000000000000000000000000000000000000000081525060080190506040516020818303038152906040526040518082805190602001908083835b6020831061433b5780518252601f19909201916020918201910161431c565b51815160209384036101000a6000190180199092169116179052604080519290940182900390912086528581019690965250928301600090812095909555505080517f6761735072696365000000000000000000000000000000000000000000000000818401528151600881830301815260289091019182905280518a949384939182918401908083835b602083106143e55780518252601f1990920191602091820191016143c6565b51815160209384036101000a6000190180199092169116179052604080519290940182900390912086528581019690965250928301600090812095909555505080517f7265717569726564426c6f636b436f6e6669726d6174696f6e73000000000000818401528151601a818303018152603a90910191829052805189949384939182918401908083835b6020831061448f5780518252601f199092019160209182019101614470565b51815160209384036101000a60001901801990921691161790526040805192909401829003909120865285019590955292909201600090812094909455505084518592915081106144dc57fe5b9060200190602002015160008060405160200180807f657865637574696f6e4461696c794c696d69740000000000000000000000000081525060130190506040516020818303038152906040526040518082805190602001908083835b602083106145585780518252601f199092019160209182019101614539565b51815160209384036101000a60001901801990921691161790526040805192909401829003909120865285019590955292909201600020939093555050835184915060019081106145a557fe5b9060200190602002015160008060405160200180807f657865637574696f6e4d6178506572547800000000000000000000000000000081525060110190506040516020818303038152906040526040518082805190602001908083835b602083106146215780518252601f199092019160209182019101614602565b51815160209384036101000a6000190180199092169116179052604080519290940182900390912086528581019690965250928301600090812095909555505080517f646563696d616c53686966740000000000000000000000000000000000000000818401528151600c818303018152602c90910191829052805185949384939182918401908083835b602083106146cb5780518252601f1990920191602091820191016146ac565b51815160209384036101000a60001901801990921691161790526040805192909401829003909120865285019590955292909201600020939093555061471491508390506151ac565b61471d846155c4565b6040805186815290517f4fb76205cd57c896b21511d2114137d8e901b4ccd659e1a0f97d6306795264fb9181900360200190a16040805187815290517f52264b89e0fceafb26e79fd49ef8a366eb6297483bf4035b027f0c99a7ad512e9181900360200190a17fad4123ae17c414d9c6d2fec478b402e6b01856cc250fd01fbfd252fda0089d3c8760008151811015156147b357fe5b906020019060200201516040518082815260200191505060405180910390a17f9bebf928b90863f24cc31f726a3a7545efd409f1dcf552301b1ee3710da70d3b83600081518110151561480257fe5b906020019060200201516040518082815260200191505060405180910390a15050505050505050565b600160a060020a0382161515614849576148448161564b565b610da6565b610da682826156b6565b8181018281101561486057fe5b92915050565b6000806000806060614876612fde565b92506040516020018080600080516020615d7883398151915281525060080190506040516020818303038152906040526040518082805190602001908083835b602083106148d55780518252601f1990920191602091820191016148b6565b5181516020939093036101000a600019018019909116921691909117905260405192018290039091208914925061492f915050577fffd6619600000000000000000000000000000000000000000000000000000000614951565b7f94da17cd000000000000000000000000000000000000000000000000000000005b60408051600481526024810190915260208082018051600160e060020a03167bffffffffffffffffffffffffffffffffffffffffffffffffffffffff19851617815282519395509193509160009182875af2600051945080801561028f5750508394505b50505050919050565b80600460008460405160200180807f61666669726d6174696f6e735369676e65640000000000000000000000000000815250601201826000191660001916815260200191505060405160208183030381529060405260405180828051906020019080838360208310613c0a5780518252601f199092019160209182019101613beb565b806000808460405160200180807f6e756d41666669726d6174696f6e735369676e65640000000000000000000000815250601501826000191660001916815260200191505060405160208183030381529060405260405180828051906020019080838360208310613d5e5780518252601f199092019160209182019101613d3f565b600080600080614ae8614ad46112d2565b614ae388611f87611f826112d2565b615754565b614b03614af3612f6b565b8790600a0a63ffffffff6157ce16565b9250614b0d612fde565b9150600160a060020a03821615614ba157614b81836000846040516020018080600080516020615d58833981519152815250600b01905060405160208183030381529060405260405180828051906020019080838360208310612af65780518252601f199092019160209182019101612ad7565b9050614b8e8183876157f7565b614b9e838263ffffffff614f4916565b92505b614ba9610cb5565b600160a060020a03166340c10f1988856040518363ffffffff1660e060020a0281526004018083600160a060020a0316600160a060020a0316815260200182815260200192505050602060405180830381600087803b158015614c0b57600080fd5b505af1158015614c1f573d6000803e3d6000fd5b505050506040513d6020811015614c3557600080fd5b5051979650505050505050565b600080614c4e83614dc2565b9092509050600160a060020a038216158015614c68575080155b1515614c7357600080fd5b614c82612a0585611f87612724565b614c8d8585856158fc565b60408051600160a060020a03871681526020810186905280820185905290517f159c0773f543f1e17d5e78327702770947055eb4e871b529bbc78bc9fde456929181900360600190a15050505050565b806000808460405160200180807f746f74616c5370656e745065724461790000000000000000000000000000000081525060100182815260200191505060405160208183030381529060405260405180828051906020019080838360208310613d5e5780518252601f199092019160209182019101613d3f565b82600160a060020a03166342966c68826040518263ffffffff1660e060020a02815260040180828152602001915050600060405180830381600087803b158015614da057600080fd5b505af1158015614db4573d6000803e3d6000fd5b50505050611e6482826159f2565b600080600260008460405160200180807f74784f75744f664c696d6974526563697069656e74000000000000000000000081525060150182600019166000191681526020019150506040516020818303038152906040526040518082805190602001908083835b60208310614e485780518252601f199092019160209182019101614e29565b51815160209384036101000a600019018019909216911617905260408051929094018290039091208652858101969096525092830160009081205484517f74784f75744f664c696d697456616c75650000000000000000000000000000008188015260318082018b9052865180830390910181526051909101958690528051600160a060020a0390921698509195869592945091925082918401908083835b60208310614f065780518252601f199092019160209182019101614ee7565b51815160209384036101000a6000190180199092169116179052604080519290940182900390912086528501959095529290920160002054949694955050505050565b600082821115614f5557fe5b50900390565b8060008060405160200180807f6f75744f664c696d6974416d6f756e740000000000000000000000000000000081525060100190506040516020818303038152906040526040518082805190602001908083836020831061284d5780518252601f19909201916020918201910161282e565b816000808360405160200180807f74784f75744f664c696d697456616c7565000000000000000000000000000000815250601101826000191660001916815260200191505060405160208183030381529060405260405180828051906020019080838360208310613d5e5780518252601f199092019160209182019101613d3f565b6001600460008360405160200180807f6669786564417373657473000000000000000000000000000000000000000000815250600b0182600019166000191681526020019150506040516020818303038152906040526040518082805190602001908083835b602083106150d45780518252601f1990920191602091820191016150b5565b51815160209384036101000a60001901801990921691161790526040805192909401829003909120865285019590955292909201600020805460ff19169415159490941790935550505050565b60408051602481018690528415156044820152606480820184905282518083039091018152608490910190915260208181018051600160e060020a03167f9862f26f000000000000000000000000000000000000000000000000000000001781528251600093849390929091849182895af2600051925080801561028f575091979650505050505050565b7f8be0079c531659141344cd1fd0a4f28419497f9722a3daafe3b4186f6b6457e06151d56120a5565b60408051600160a060020a03928316815291841660208301528051918290030190a1806002600060405160200180807f6f776e65720000000000000000000000000000000000000000000000000000008152506005019050604051602081830303815290604052604051808280519060200190808383602083106117c55780518252601f1990920191602091820191016117a6565b60408051808201909152601a81527f19457468657265756d205369676e6564204d6573736167653a0a00000000000060208201526000906060831561541057816152b48651615ad2565b866040516020018084805190602001908083835b602083106152e75780518252601f1990920191602091820191016152c8565b51815160209384036101000a600019018019909216911617905286519190930192860191508083835b6020831061532f5780518252601f199092019160209182019101615310565b51815160209384036101000a600019018019909216911617905285519190930192850191508083835b602083106153775780518252601f199092019160209182019101615358565b6001836020036101000a03801982511681845116808217855250505050505090500193505050506040516020818303038152906040526040518082805190602001908083835b602083106153dc5780518252601f1990920191602091820191016153bd565b6001836020036101000a0380198251168184511680821785525050505050509050019150506040518091039020925061547c565b6040805190810160405280600381526020017f31303400000000000000000000000000000000000000000000000000000000008152509050818186604051602001808480519060200190808383602083106152e75780518252601f1990920191602091820191016152c8565b505092915050565b600080600080615493856139de565b151561549e57600080fd5b50505050601481015160348201516054830151606890930151919390929190565b6040805160248082018690528251808303909101815260449091018252602081018051600160e060020a03167f59d784640000000000000000000000000000000000000000000000000000000017815291518151600160a060020a03861693829180838360005b8381101561553e578181015183820152602001615526565b50505050905090810190601f16801561556b5780820380516001836020036101000a031916815260200191505b50915050600060405180830381855af4915050151561558957600080fd5b60408051848152905182917f858abdcd5efcaebb936e8e8516f0cfe9a0ef5157ff99d16cdabb6db625be90d0919081900360200190a2505050565b6155cd816139d6565b15156155d857600080fd5b806002600060405160200180807f657263363737746f6b656e000000000000000000000000000000000000000000815250600b019050604051602081830303815290604052604051808280519060200190808383602083106117c55780518252601f1990920191602091820191016117a6565b604051303190600160a060020a0383169082156108fc029083906000818181858888f193505050501515610da6578082615683615d0d565b600160a060020a039091168152604051908190036020019082f0801580156156af573d6000803e3d6000fd5b5050505050565b604080517f70a0823100000000000000000000000000000000000000000000000000000000815230600482015290518391600091600160a060020a038416916370a0823191602480830192602092919082900301818787803b15801561571b57600080fd5b505af115801561572f573d6000803e3d6000fd5b505050506040513d602081101561574557600080fd5b5051905061370d848483615bf5565b806000808460405160200180807f746f74616c45786563757465645065724461790000000000000000000000000081525060130182815260200191505060405160208183030381529060405260405180828051906020019080838360208310613d5e5780518252601f199092019160209182019101613d3f565b60008215156157df57506000614860565b508181028183828115156157ef57fe5b041461486057fe5b6040805160248082018690528251808303909101815260449091018252602081018051600160e060020a03167f054d46ec0000000000000000000000000000000000000000000000000000000017815291518151600160a060020a03861693829180838360005b8381101561587657818101518382015260200161585e565b50505050905090810190601f1680156158a35780820380516001836020036101000a031916815260200191505b50915050600060405180830381855af491505015156158c157600080fd5b60408051848152905182917fa52d3c9cbc541772e4edd92e2e4e2a3865ab73630f25deed8a6c8de41ff0f65c919081900360200190a2505050565b82600260008360405160200180807f74784f75744f664c696d6974526563697069656e74000000000000000000000081525060150182600019166000191681526020019150506040516020818303038152906040526040518082805190602001908083835b602083106159805780518252601f199092019160209182019101615961565b51815160209384036101000a60001901801990921691161790526040805192909401829003909120865285019590955292909201600020805473ffffffffffffffffffffffffffffffffffffffff1916600160a060020a03959095169490941790935550611e64915083905082614fcd565b806000806159fe612fde565b9150600160a060020a03821615615a8757615a72836000846040516020018080600080516020615d78833981519152815250600801905060405160208183030381529060405260405180828051906020019080838360208310612af65780518252601f199092019160209182019101612ad7565b9050615a84838263ffffffff614f4916565b92505b60408051600160a060020a03871681526020810185905281517f127650bcfb0ba017401abe4931453a405140a8fd36fece67bae2db174d3fdd63929181900390910190a15050505050565b60606000808281851515615b1b5760408051808201909152600181527f3000000000000000000000000000000000000000000000000000000000000000602082015294506149b5565b8593505b8315615b3657600190920191600a84049350615b1f565b826040519080825280601f01601f191660200182016040528015615b64578160200160208202803883390190505b5091505060001982015b8515615bec5781516000198201917f01000000000000000000000000000000000000000000000000000000000000006030600a8a060102918491908110615bb157fe5b9060200101907effffffffffffffffffffffffffffffffffffffffffffffffffffffffffffff1916908160001a905350600a86049550615b6e565b50949350505050565b60408051600160a060020a0384166024820152604480820184905282518083039091018152606490910190915260208181018051600160e060020a03167fa9059cbb000000000000000000000000000000000000000000000000000000001781528251606093600093909290918491828a5af1600051935083925080801561028f5750506000835111156122a4578115156122a457600080fd5b828054600181600116156101000203166002900490600052602060002090601f016020900481019282601f10615cd057805160ff1916838001178555615cfd565b82800160010185558215615cfd579182015b82811115615cfd578251825591602001919060010190615ce2565b50615d09929150615d1c565b5090565b604051602180615d3783390190565b610d7191905b80821115615d095760008155600101615d225600608060405260405160208060218339810160405251600160a060020a038116ff00666f726569676e2d666565000000000000000000000000000000000000000000686f6d652d666565000000000000000000000000000000000000000000000000a165627a7a72305820930c8025ac66b7a25883b85de6ad54ee7d06898b65bb9d929b528f4aa24d77d90029",
  "source": "pragma solidity 0.4.24;\n\nimport \"./HomeBridgeErcToErc.sol\";\n\ncontract HomeBridgeErcToErcPOSDAO is HomeBridgeErcToErc {\n    bytes4 internal constant BLOCK_REWARD_CONTRACT_SELECTOR = 0x56b54bae; // blockRewardContract()\n    bytes4 internal constant SET_BLOCK_REWARD_CONTRACT = 0x27a3e16b; // setBlockRewardContract(address)\n\n    function rewardableInitialize(\n        address _validatorContract,\n        uint256[] _dailyLimitMaxPerTxMinPerTxArray, // [ 0 = _dailyLimit, 1 = _maxPerTx, 2 = _minPerTx ]\n        uint256 _homeGasPrice,\n        uint256 _requiredBlockConfirmations,\n        address _erc677token,\n        uint256[] _foreignDailyLimitForeignMaxPerTxArray, // [ 0 = _foreignDailyLimit, 1 = _foreignMaxPerTx ]\n        address _owner,\n        address _feeManager,\n        uint256[] _homeFeeForeignFeeArray, // [ 0 = _homeFee, 1 = _foreignFee ]\n        address _blockReward,\n        uint256 _decimalShift\n    ) external returns (bool) {\n        _rewardableInitialize(\n            _validatorContract,\n            _dailyLimitMaxPerTxMinPerTxArray,\n            _homeGasPrice,\n            _requiredBlockConfirmations,\n            _erc677token,\n            _foreignDailyLimitForeignMaxPerTxArray,\n            _owner,\n            _feeManager,\n            _homeFeeForeignFeeArray,\n            _decimalShift\n        );\n        _setBlockRewardContract(_feeManager, _blockReward);\n        setInitialize();\n\n        return isInitialized();\n    }\n\n    function blockRewardContract() public view returns (address) {\n        address blockReward;\n        address feeManager = feeManagerContract();\n        bytes memory callData = abi.encodeWithSelector(BLOCK_REWARD_CONTRACT_SELECTOR);\n\n        assembly {\n            let result := callcode(gas, feeManager, 0x0, add(callData, 0x20), mload(callData), 0, 32)\n            blockReward := mload(0)\n\n            switch result\n                case 0 {\n                    revert(0, 0)\n                }\n        }\n\n        return blockReward;\n    }\n\n    function setBlockRewardContract(address _blockReward) external onlyOwner {\n        address feeManager = feeManagerContract();\n        _setBlockRewardContract(feeManager, _blockReward);\n    }\n\n    function _setBlockRewardContract(address _feeManager, address _blockReward) internal {\n        require(_feeManager.delegatecall(abi.encodeWithSelector(SET_BLOCK_REWARD_CONTRACT, _blockReward)));\n    }\n}\n",
  "sourcePath": "/contracts/contracts/upgradeable_contracts/erc20_to_erc20/HomeBridgeErcToErcPOSDAO.sol",
  "compiler": {
    "name": "solc",
    "version": "0.4.24+commit.e67f0147.Emscripten.clang"
  },
  "schemaVersion": "3.0.9",
  "updatedAt": "2019-09-30T13:18:39.321Z",
  "devdoc": {
    "methods": {
      "owner()": {
        "details": "Tells the address of the owner",
        "return": "the address of the owner"
      },
      "transferOwnership(address)": {
        "details": "Allows the current owner to transfer control of the contract to a newOwner.",
        "params": {
          "newOwner": "the address to transfer ownership to."
        }
      }
    }
  },
  "userdoc": {
    "methods": {}
  }
}