{
  "contractName": "HomeAMB",
  "abi": [
    {
      "constant": true,
      "inputs": [],
      "name": "transactionHash",
      "outputs": [
        {
          "name": "",
          "type": "bytes32"
        }
      ],
      "payable": false,
      "stateMutability": "view",
      "type": "function"
    },
    {
      "constant": true,
      "inputs": [
        {
          "name": "_message",
          "type": "bytes32"
        }
      ],
      "name": "numMessagesSigned",
      "outputs": [
        {
          "name": "",
          "type": "uint256"
        }
      ],
      "payable": false,
      "stateMutability": "view",
      "type": "function"
    },
    {
      "constant": true,
      "inputs": [
        {
          "name": "_hash",
          "type": "bytes32"
        },
        {
          "name": "_index",
          "type": "uint256"
        }
      ],
      "name": "signature",
      "outputs": [
        {
          "name": "",
          "type": "bytes"
        }
      ],
      "payable": false,
      "stateMutability": "view",
      "type": "function"
    },
    {
      "constant": true,
      "inputs": [],
      "name": "isInitialized",
      "outputs": [
        {
          "name": "",
          "type": "bool"
        }
      ],
      "payable": false,
      "stateMutability": "view",
      "type": "function"
    },
    {
      "constant": true,
      "inputs": [],
      "name": "requiredBlockConfirmations",
      "outputs": [
        {
          "name": "",
          "type": "uint256"
        }
      ],
      "payable": false,
      "stateMutability": "view",
      "type": "function"
    },
    {
      "constant": true,
      "inputs": [
        {
          "name": "_data",
          "type": "bytes"
        }
      ],
      "name": "getMinimumGasUsage",
      "outputs": [
        {
          "name": "gas",
          "type": "uint256"
        }
      ],
      "payable": false,
      "stateMutability": "pure",
      "type": "function"
    },
    {
      "constant": true,
      "inputs": [],
      "name": "getBridgeMode",
      "outputs": [
        {
          "name": "_data",
          "type": "bytes4"
        }
      ],
      "payable": false,
      "stateMutability": "pure",
      "type": "function"
    },
    {
      "constant": true,
      "inputs": [
        {
          "name": "_hash",
          "type": "bytes32"
        }
      ],
      "name": "message",
      "outputs": [
        {
          "name": "",
          "type": "bytes"
        }
      ],
      "payable": false,
      "stateMutability": "view",
      "type": "function"
    },
    {
      "constant": false,
      "inputs": [
        {
          "name": "signature",
          "type": "bytes"
        },
        {
          "name": "message",
          "type": "bytes"
        }
      ],
      "name": "submitSignature",
      "outputs": [],
      "payable": false,
      "stateMutability": "nonpayable",
      "type": "function"
    },
    {
      "constant": false,
      "inputs": [
        {
          "name": "_token",
          "type": "address"
        },
        {
          "name": "_to",
          "type": "address"
        }
      ],
      "name": "claimTokens",
      "outputs": [],
      "payable": false,
      "stateMutability": "nonpayable",
      "type": "function"
    },
    {
      "constant": true,
      "inputs": [
        {
          "name": "_hash",
          "type": "bytes32"
        }
      ],
      "name": "numAffirmationsSigned",
      "outputs": [
        {
          "name": "",
          "type": "uint256"
        }
      ],
      "payable": false,
      "stateMutability": "view",
      "type": "function"
    },
    {
      "constant": false,
      "inputs": [
        {
          "name": "_validatorContract",
          "type": "address"
        },
        {
          "name": "_maxGasPerTx",
          "type": "uint256"
        },
        {
          "name": "_gasPrice",
          "type": "uint256"
        },
        {
          "name": "_requiredBlockConfirmations",
          "type": "uint256"
        },
        {
          "name": "_owner",
          "type": "address"
        }
      ],
      "name": "initialize",
      "outputs": [
        {
          "name": "",
          "type": "bool"
        }
      ],
      "payable": false,
      "stateMutability": "nonpayable",
      "type": "function"
    },
    {
      "constant": true,
      "inputs": [
        {
          "name": "_hash",
          "type": "bytes32"
        }
      ],
      "name": "affirmationsSigned",
      "outputs": [
        {
          "name": "",
          "type": "bool"
        }
      ],
      "payable": false,
      "stateMutability": "view",
      "type": "function"
    },
    {
      "constant": false,
      "inputs": [
        {
          "name": "_maxGasPerTx",
          "type": "uint256"
        }
      ],
      "name": "setMaxGasPerTx",
      "outputs": [],
      "payable": false,
      "stateMutability": "nonpayable",
      "type": "function"
    },
    {
      "constant": true,
      "inputs": [],
      "name": "requiredSignatures",
      "outputs": [
        {
          "name": "",
          "type": "uint256"
        }
      ],
      "payable": false,
      "stateMutability": "view",
      "type": "function"
    },
    {
      "constant": true,
      "inputs": [],
      "name": "owner",
      "outputs": [
        {
          "name": "",
          "type": "address"
        }
      ],
      "payable": false,
      "stateMutability": "view",
      "type": "function"
    },
    {
      "constant": true,
      "inputs": [
        {
          "name": "_message",
          "type": "bytes32"
        }
      ],
      "name": "messagesSigned",
      "outputs": [
        {
          "name": "",
          "type": "bool"
        }
      ],
      "payable": false,
      "stateMutability": "view",
      "type": "function"
    },
    {
      "constant": true,
      "inputs": [],
      "name": "validatorContract",
      "outputs": [
        {
          "name": "",
          "type": "address"
        }
      ],
      "payable": false,
      "stateMutability": "view",
      "type": "function"
    },
    {
      "constant": true,
      "inputs": [],
      "name": "deployedAtBlock",
      "outputs": [
        {
          "name": "",
          "type": "uint256"
        }
      ],
      "payable": false,
      "stateMutability": "view",
      "type": "function"
    },
    {
      "constant": true,
      "inputs": [],
      "name": "getBridgeInterfacesVersion",
      "outputs": [
        {
          "name": "major",
          "type": "uint64"
        },
        {
          "name": "minor",
          "type": "uint64"
        },
        {
          "name": "patch",
          "type": "uint64"
        }
      ],
      "payable": false,
      "stateMutability": "pure",
      "type": "function"
    },
    {
      "constant": false,
      "inputs": [
        {
          "name": "_blockConfirmations",
          "type": "uint256"
        }
      ],
      "name": "setRequiredBlockConfirmations",
      "outputs": [],
      "payable": false,
      "stateMutability": "nonpayable",
      "type": "function"
    },
    {
      "constant": false,
      "inputs": [
        {
          "name": "_gasPrice",
          "type": "uint256"
        }
      ],
      "name": "setGasPrice",
      "outputs": [],
      "payable": false,
      "stateMutability": "nonpayable",
      "type": "function"
    },
    {
      "constant": true,
      "inputs": [],
      "name": "messageSender",
      "outputs": [
        {
          "name": "",
          "type": "address"
        }
      ],
      "payable": false,
      "stateMutability": "view",
      "type": "function"
    },
    {
      "constant": false,
      "inputs": [
        {
          "name": "_contract",
          "type": "address"
        },
        {
          "name": "_data",
          "type": "bytes"
        },
        {
          "name": "_gas",
          "type": "uint256"
        }
      ],
      "name": "requireToPassMessage",
      "outputs": [],
      "payable": false,
      "stateMutability": "nonpayable",
      "type": "function"
    },
    {
      "constant": true,
      "inputs": [],
      "name": "maxGasPerTx",
      "outputs": [
        {
          "name": "",
          "type": "uint256"
        }
      ],
      "payable": false,
      "stateMutability": "view",
      "type": "function"
    },
    {
      "constant": false,
      "inputs": [
        {
          "name": "message",
          "type": "bytes"
        }
      ],
      "name": "executeAffirmation",
      "outputs": [],
      "payable": false,
      "stateMutability": "nonpayable",
      "type": "function"
    },
    {
      "constant": false,
      "inputs": [
        {
          "name": "newOwner",
          "type": "address"
        }
      ],
      "name": "transferOwnership",
      "outputs": [],
      "payable": false,
      "stateMutability": "nonpayable",
      "type": "function"
    },
    {
      "constant": true,
      "inputs": [],
      "name": "gasPrice",
      "outputs": [
        {
          "name": "",
          "type": "uint256"
        }
      ],
      "payable": false,
      "stateMutability": "view",
      "type": "function"
    },
    {
      "constant": true,
      "inputs": [
        {
          "name": "_number",
          "type": "uint256"
        }
      ],
      "name": "isAlreadyProcessed",
      "outputs": [
        {
          "name": "",
          "type": "bool"
        }
      ],
      "payable": false,
      "stateMutability": "pure",
      "type": "function"
    },
    {
      "anonymous": false,
      "inputs": [
        {
          "indexed": false,
          "name": "encodedData",
          "type": "bytes"
        }
      ],
      "name": "UserRequestForSignature",
      "type": "event"
    },
    {
      "anonymous": false,
      "inputs": [
        {
          "indexed": false,
          "name": "sender",
          "type": "address"
        },
        {
          "indexed": false,
          "name": "executor",
          "type": "address"
        },
        {
          "indexed": false,
          "name": "transactionHash",
          "type": "bytes32"
        },
        {
          "indexed": false,
          "name": "status",
          "type": "bool"
        }
      ],
      "name": "AffirmationCompleted",
      "type": "event"
    },
    {
      "anonymous": false,
      "inputs": [
        {
          "indexed": true,
          "name": "signer",
          "type": "address"
        },
        {
          "indexed": false,
          "name": "messageHash",
          "type": "bytes32"
        }
      ],
      "name": "SignedForUserRequest",
      "type": "event"
    },
    {
      "anonymous": false,
      "inputs": [
        {
          "indexed": true,
          "name": "signer",
          "type": "address"
        },
        {
          "indexed": false,
          "name": "messageHash",
          "type": "bytes32"
        }
      ],
      "name": "SignedForAffirmation",
      "type": "event"
    },
    {
      "anonymous": false,
      "inputs": [
        {
          "indexed": false,
          "name": "authorityResponsibleForRelay",
          "type": "address"
        },
        {
          "indexed": false,
          "name": "messageHash",
          "type": "bytes32"
        },
        {
          "indexed": false,
          "name": "NumberOfCollectedSignatures",
          "type": "uint256"
        }
      ],
      "name": "CollectedSignatures",
      "type": "event"
    },
    {
      "anonymous": false,
      "inputs": [
        {
          "indexed": false,
          "name": "gasPrice",
          "type": "uint256"
        }
      ],
      "name": "GasPriceChanged",
      "type": "event"
    },
    {
      "anonymous": false,
      "inputs": [
        {
          "indexed": false,
          "name": "requiredBlockConfirmations",
          "type": "uint256"
        }
      ],
      "name": "RequiredBlockConfirmationChanged",
      "type": "event"
    },
    {
      "anonymous": false,
      "inputs": [
        {
          "indexed": false,
          "name": "previousOwner",
          "type": "address"
        },
        {
          "indexed": false,
          "name": "newOwner",
          "type": "address"
        }
      ],
      "name": "OwnershipTransferred",
      "type": "event"
    }
  ],
  "bytecode": "0x608060405234801561001057600080fd5b50613435806100206000396000f30060806040526004361061015b5763ffffffff60e060020a6000350416630ac1c31381146101605780630cbf0601146101875780631812d9961461019f578063392e53cd1461022f5780633f0a9f65146102585780633f768c061461026d578063437764df146102c6578063490a32c614610310578063630cea8e1461032857806369ffa08a146103565780636ae1a9761461037d5780636c28e349146103955780637698da24146103c85780637bac29c7146103e05780638d068043146103f85780638da5cb5b1461040d5780638f4b4b981461043e57806399439089146104565780639a454b991461046b5780639cb7595a14610480578063acf5c689146104c1578063bf1fe420146104d9578063d67bdd25146104f1578063dc8601b314610506578063e5789d031461056f578063e7a2c01f14610584578063f2fde38b146105a4578063fe173b97146105c5578063ffd19e8c146105da575b600080fd5b34801561016c57600080fd5b506101756105f2565b60408051918252519081900360200190f35b34801561019357600080fd5b50610175600435610751565b3480156101ab57600080fd5b506101ba600435602435610816565b6040805160208082528351818301528351919283929083019185019080838360005b838110156101f45781810151838201526020016101dc565b50505050905090810190601f1680156102215780820380516001836020036101000a031916815260200191505b509250505060405180910390f35b34801561023b57600080fd5b506102446109f3565b604080519115158252519081900360200190f35b34801561026457600080fd5b50610175610aab565b34801561027957600080fd5b506040805160206004803580820135601f8101849004840285018401909552848452610175943694929360249392840191908190840183828082843750949750610b5f9650505050505050565b3480156102d257600080fd5b506102db610b7b565b604080517fffffffff000000000000000000000000000000000000000000000000000000009092168252519081900360200190f35b34801561031c57600080fd5b506101ba600435610c1e565b34801561033457600080fd5b506103546024600480358281019290820135918135918201910135610c29565b005b34801561036257600080fd5b50610354600160a060020a0360043581169060243516611055565b34801561038957600080fd5b506101756004356110f8565b3480156103a157600080fd5b50610244600160a060020a036004358116906024359060443590606435906084351661117b565b3480156103d457600080fd5b506102446004356115dd565b3480156103ec57600080fd5b506103546004356116a6565b34801561040457600080fd5b50610175611776565b34801561041957600080fd5b506104226117ee565b60408051600160a060020a039092168252519081900360200190f35b34801561044a57600080fd5b506102446004356118ac565b34801561046257600080fd5b50610422611930565b34801561047757600080fd5b506101756119a4565b34801561048c57600080fd5b50610495611a17565b6040805167ffffffffffffffff9485168152928416602084015292168183015290519081900360600190f35b3480156104cd57600080fd5b50610354600435611a22565b3480156104e557600080fd5b50610354600435611b31565b3480156104fd57600080fd5b50610422611c40565b34801561051257600080fd5b5060408051602060046024803582810135601f8101859004850286018501909652858552610354958335600160a060020a03169536956044949193909101919081908401838280828437509497505093359450611cb49350505050565b34801561057b57600080fd5b50610175611dbc565b34801561059057600080fd5b506103546004803560248101910135611e2f565b3480156105b057600080fd5b50610354600160a060020a03600435166120bb565b3480156105d157600080fd5b506101756120f8565b3480156105e657600080fd5b5061024460043561216b565b600061074b6003600060405160200180807f7472616e73616374696f6e486173680000000000000000000000000000000000815250600f0190506040516020818303038152906040526040518082805190602001908083835b6020831061066a5780518252601f19909201916020918201910161064b565b6001836020036101000a0380198251168184511680821785525050505050509050019150506040518091039020600019166000191681526020019081526020016000208054600181600116156101000203166002900480601f0160208091040260200160405190810160405280929190818152602001828054600181600116156101000203166002900480156107415780601f1061071657610100808354040283529160200191610741565b820191906000526020600020905b81548152906001019060200180831161072457829003601f168201915b5050505050612193565b90505b90565b60008060008360405160200180807f6e756d4d657373616765735369676e656400000000000000000000000000000081525060110182600019166000191681526020019150506040516020818303038152906040526040518082805190602001908083835b602083106107d55780518252601f1990920191602091820191016107b6565b51815160209384036101000a600019018019909216911617905260408051929094018290039091208652850195909552929092016000205495945050505050565b604080516020808201859052818301849052825180830384018152606092830193849052805192936000939192909182918401908083835b6020831061086d5780518252601f19909201916020918201910161084e565b51815160209384036101000a6000190180199092169116179052604080519290940182900382207f7369676e6174757265730000000000000000000000000000000000000000000083830152602a80840182905285518085039091018152604a9093019485905282519097506003965060009550919392508291908401908083835b6020831061090e5780518252601f1990920191602091820191016108ef565b6001836020036101000a0380198251168184511680821785525050505050509050019150506040518091039020600019166000191681526020019081526020016000208054600181600116156101000203166002900480601f0160208091040260200160405190810160405280929190818152602001828054600181600116156101000203166002900480156109e55780601f106109ba576101008083540402835291602001916109e5565b820191906000526020600020905b8154815290600101906020018083116109c857829003601f168201915b505050505091505092915050565b60006004600060405160200180807f6973496e697469616c697a656400000000000000000000000000000000000000815250600d0190506040516020818303038152906040526040518082805190602001908083835b60208310610a685780518252601f199092019160209182019101610a49565b51815160209384036101000a600019018019909216911617905260408051929094018290039091208652850195909552929092016000205460ff16949350505050565b600080600060405160200180807f7265717569726564426c6f636b436f6e6669726d6174696f6e73000000000000815250601a0190506040516020818303038152906040526040518082805190602001908083835b60208310610b1f5780518252601f199092019160209182019101610b00565b51815160209384036101000a6000190180199092169116179052604080519290940182900390912086528501959095529290920160002054949350505050565b8051600090610b7590604463ffffffff61219a16565b92915050565b600060405160200180807f6172626974726172792d6d6573736167652d6272696467652d636f7265000000815250601d0190506040516020818303038152906040526040518082805190602001908083835b60208310610bec5780518252601f199092019160209182019101610bcd565b6001836020036101000a0380198251168184511680821785525050505050509050019150506040518091039020905090565b6060610b75826121c3565b6000806000806000610c39611930565b600160a060020a031663facd743b336040518263ffffffff1660e060020a0281526004018082600160a060020a0316600160a060020a03168152602001915050602060405180830381600087803b158015610c9357600080fd5b505af1158015610ca7573d6000803e3d6000fd5b505050506040513d6020811015610cbd57600080fd5b50511515610cca57600080fd5b610d3489898080601f0160208091040260200160405190810160405280939291908181526020018383808284375050604080516020601f8f018190048102820181019092528d815294508d93508c92508291508401838280828437506001945061232b9350505050565b600160a060020a03163314610d4857600080fd5b8686604051602001808383808284378201915050925050506040516020818303038152906040526040518082805190602001908083835b60208310610d9e5780518252601f199092019160209182019101610d7f565b51815160209384036101000a600019018019909216911617905260408051929094018290038220336c0100000000000000000000000002838301526034808401829052855180850390910181526054909301948590528251909b509195509293508392850191508083835b60208310610e285780518252601f199092019160209182019101610e09565b6001836020036101000a03801982511681845116808217855250505050505090500191505060405180910390209350610e6085610751565b9250610e6b8361216b565b15610e7557600080fd5b600192830192831115610e9a57610e8b846118ac565b15610e9557600080fd5b610ed4565b610ed48588888080601f016020809104026020016040519081016040528093929190818152602001838380828437506123d1945050505050565b610edf8460016124a3565b84610ef184600163ffffffff61257516565b604080516020808201949094528082019290925280518083038201815260609092019081905281519192909182918401908083835b60208310610f455780518252601f199092019160209182019101610f26565b51815160209384036101000a600019018019909216911617905260408051929094018290038220601f8f018290048202830182019094528d8252929650610fa69450869350918d91508c908190840183828082843750612587945050505050565b610fb0858461260a565b60408051868152905133917fbf06885f40778f5ccfb64497d3f92ce568ddaedb7e2fb4487f72690418cf8e4c919081900360200190a2610fee611776565b905080831061104a5761100985611004856126cf565b61260a565b604080513381526020810187905280820183905290517f415557404d88a0c0b8e3b16967cafffc511213fd9c465c16832ee17ed57d72379181900360600190a15b505050505050505050565b30600160a060020a0316636fde82026040518163ffffffff1660e060020a028152600401602060405180830381600087803b15801561109357600080fd5b505af11580156110a7573d6000803e3d6000fd5b505050506040513d60208110156110bd57600080fd5b5051600160a060020a031633146110d357600080fd5b80600160a060020a03811615156110e957600080fd5b6110f383836126f4565b505050565b60008060008360405160200180807f6e756d41666669726d6174696f6e735369676e656400000000000000000000008152506015018260001916600019168152602001915050604051602081830303815290604052604051808280519060200190808383602083106107d55780518252601f1990920191602091820191016107b6565b60006111856109f3565b1561118f57600080fd5b600160a060020a038616158015906111ab57506111ab86612720565b15156111b657600080fd5b600084116111c357600080fd5b600083116111d057600080fd5b856002600060405160200180807f76616c696461746f72436f6e747261637400000000000000000000000000000081525060110190506040516020818303038152906040526040518082805190602001908083835b602083106112445780518252601f199092019160209182019101611225565b51815160209384036101000a60001901801990921691161790526040805192909401829003909120865285810196909652509283016000908120805473ffffffffffffffffffffffffffffffffffffffff1916600160a060020a039790971696909617909555505080517f6465706c6f7965644174426c6f636b0000000000000000000000000000000000818401528151600f818303018152602f90910191829052805143949384939182918401908083835b602083106113165780518252601f1990920191602091820191016112f7565b51815160209384036101000a6000190180199092169116179052604080519290940182900390912086528581019690965250928301600090812095909555505080517f6d61784761735065725478000000000000000000000000000000000000000000818401528151600b818303018152602b90910191829052805189949384939182918401908083835b602083106113c05780518252601f1990920191602091820191016113a1565b51815160209384036101000a6000190180199092169116179052604080519290940182900390912086528581019690965250928301600090812095909555505080517f67617350726963650000000000000000000000000000000000000000000000008184015281516008818303018152602890910191829052805188949384939182918401908083835b6020831061146a5780518252601f19909201916020918201910161144b565b51815160209384036101000a6000190180199092169116179052604080519290940182900390912086528581019690965250928301600090812095909555505080517f7265717569726564426c6f636b436f6e6669726d6174696f6e73000000000000818401528151601a818303018152603a90910191829052805187949384939182918401908083835b602083106115145780518252601f1990920191602091820191016114f5565b51815160209384036101000a60001901801990921691161790526040805192909401829003909120865285019590955292909201600020939093555061155d9150839050612728565b611565612850565b6040805184815290517f4fb76205cd57c896b21511d2114137d8e901b4ccd659e1a0f97d6306795264fb9181900360200190a16040805185815290517f52264b89e0fceafb26e79fd49ef8a366eb6297483bf4035b027f0c99a7ad512e9181900360200190a16115d36109f3565b9695505050505050565b6000600460008360405160200180807f61666669726d6174696f6e735369676e6564000000000000000000000000000081525060120182600019166000191681526020019150506040516020818303038152906040526040518082805190602001908083835b602083106116625780518252601f199092019160209182019101611643565b51815160209384036101000a600019018019909216911617905260408051929094018290039091208652850195909552929092016000205460ff1695945050505050565b6116ae6117ee565b600160a060020a031633146116c257600080fd5b8060008060405160200180807f6d61784761735065725478000000000000000000000000000000000000000000815250600b0190506040516020818303038152906040526040518082805190602001908083835b602083106117355780518252601f199092019160209182019101611716565b51815160209384036101000a600019018019909216911617905260408051929094018290039091208652850195909552929092016000209390935550505050565b6000611780611930565b600160a060020a0316638d0680436040518163ffffffff1660e060020a028152600401602060405180830381600087803b1580156117bd57600080fd5b505af11580156117d1573d6000803e3d6000fd5b505050506040513d60208110156117e757600080fd5b5051905090565b60006002600060405160200180807f6f776e657200000000000000000000000000000000000000000000000000000081525060050190506040516020818303038152906040526040518082805190602001908083835b602083106118635780518252601f199092019160209182019101611844565b51815160209384036101000a6000190180199092169116179052604080519290940182900390912086528501959095529290920160002054600160a060020a0316949350505050565b6000600460008360405160200180807f6d657373616765735369676e6564000000000000000000000000000000000000815250600e018260001916600019168152602001915050604051602081830303815290604052604051808280519060200190808383602083106116625780518252601f199092019160209182019101611643565b60006002600060405160200180807f76616c696461746f72436f6e74726163740000000000000000000000000000008152506011019050604051602081830303815290604052604051808280519060200190808383602083106118635780518252601f199092019160209182019101611844565b600080600060405160200180807f6465706c6f7965644174426c6f636b0000000000000000000000000000000000815250600f01905060405160208183030381529060405260405180828051906020019080838360208310610b1f5780518252601f199092019160209182019101610b00565b600260036000909192565b611a2a6117ee565b600160a060020a03163314611a3e57600080fd5b60008111611a4b57600080fd5b8060008060405160200180807f7265717569726564426c6f636b436f6e6669726d6174696f6e73000000000000815250601a0190506040516020818303038152906040526040518082805190602001908083835b60208310611abe5780518252601f199092019160209182019101611a9f565b51815160001960209485036101000a019081169019919091161790526040805194909201849003909320865285830196909652509284016000209490945550815184815291517f4fb76205cd57c896b21511d2114137d8e901b4ccd659e1a0f97d6306795264fb9350918290030190a150565b611b396117ee565b600160a060020a03163314611b4d57600080fd5b60008111611b5a57600080fd5b8060008060405160200180807f676173507269636500000000000000000000000000000000000000000000000081525060080190506040516020818303038152906040526040518082805190602001908083835b60208310611bcd5780518252601f199092019160209182019101611bae565b51815160001960209485036101000a019081169019919091161790526040805194909201849003909320865285830196909652509284016000209490945550815184815291517f52264b89e0fceafb26e79fd49ef8a366eb6297483bf4035b027f0c99a7ad512e9350918290030190a150565b60006002600060405160200180807f6d65737361676553656e64657200000000000000000000000000000000000000815250600d019050604051602081830303815290604052604051808280519060200190808383602083106118635780518252601f199092019160209182019101611844565b611cbd82610b5f565b8110158015611cd35750611ccf611dbc565b8111155b1515611cde57600080fd5b6110f33384836000866040516020018086600160a060020a0316600160a060020a03166c0100000000000000000000000002815260140185600160a060020a0316600160a060020a03166c010000000000000000000000000281526014018481526020018360ff1660ff1660f860020a02815260010182805190602001908083835b60208310611d7f5780518252601f199092019160209182019101611d60565b6001836020036101000a03801982511681845116808217855250505050505090500195505050505050604051602081830303815290604052612911565b600080600060405160200180807f6d61784761735065725478000000000000000000000000000000000000000000815250600b01905060405160208183030381529060405260405180828051906020019080838360208310610b1f5780518252601f199092019160209182019101610b00565b6000806000611e3c611930565b600160a060020a031663facd743b336040518263ffffffff1660e060020a0281526004018082600160a060020a0316600160a060020a03168152602001915050602060405180830381600087803b158015611e9657600080fd5b505af1158015611eaa573d6000803e3d6000fd5b505050506040513d6020811015611ec057600080fd5b50511515611ecd57600080fd5b8484604051602001808383808284378201915050925050506040516020818303038152906040526040518082805190602001908083835b60208310611f235780518252601f199092019160209182019101611f04565b51815160209384036101000a600019018019909216911617905260408051929094018290038220336c01000000000000000000000000028383015260348084018290528551808503909101815260549093019485905282519099509195509293508392850191508083835b60208310611fad5780518252601f199092019160209182019101611f8e565b6001836020036101000a03801982511681845116808217855250505050505090500191505060405180910390209150611fe5826115dd565b15611fef57600080fd5b611ffa8260016129ad565b612003836110f8565b905061200e8161216b565b1561201857600080fd5b6001016120258382612a30565b60408051848152905133917f5df9cc3eb93d8a9a481857a3b70a8ca966e6b80b25cf0ee2cce180ec5afa80a1919081900360200190a2612063611776565b81106120b45761207b83612076836126cf565b612a30565b6120b485858080601f01602080910402602001604051908101604052809392919081815260200183838082843750612ab2945050505050565b5050505050565b6120c36117ee565b600160a060020a031633146120d757600080fd5b600160a060020a03811615156120ec57600080fd5b6120f581612728565b50565b600080600060405160200180807f6761735072696365000000000000000000000000000000000000000000000000815250600801905060405160208183030381529060405260405180828051906020019080838360208310610b1f5780518252601f199092019160209182019101610b00565b7f80000000000000000000000000000000000000000000000000000000000000009081161490565b6020015190565b60008215156121ab57506000610b75565b508181028183828115156121bb57fe5b0414610b7557fe5b6060600360008360405160200180807f6d6573736167657300000000000000000000000000000000000000000000000081525060080182600019166000191681526020019150506040516020818303038152906040526040518082805190602001908083835b602083106122485780518252601f199092019160209182019101612229565b6001836020036101000a0380198251168184511680821785525050505050509050019150506040518091039020600019166000191681526020019081526020016000208054600181600116156101000203166002900480601f01602080910402602001604051908101604052809291908181526020018280546001816001161561010002031660029004801561231f5780601f106122f45761010080835404028352916020019161231f565b820191906000526020600020905b81548152906001019060200180831161230257829003601f168201915b50505050509050919050565b6000806000808651604114151561234157600080fd5b505050602084015160408501516060860151600161235f8787612af2565b60408051600080825260208083018085529490945260ff60f860020a870416828401526060820188905260808201879052915160a08083019493601f198301938390039091019190865af11580156123bb573d6000803e3d6000fd5b5050604051601f19015198975050505050505050565b80600360008460405160200180807f6d6573736167657300000000000000000000000000000000000000000000000081525060080182600019166000191681526020019150506040516020818303038152906040526040518082805190602001908083835b602083106124555780518252601f199092019160209182019101612436565b51815160001960209485036101000a019081169019919091161790526040805194909201849003909320865285830196909652509290930160002084516110f3959194509201919050613341565b80600460008460405160200180807f6d657373616765735369676e6564000000000000000000000000000000000000815250600e0182600019166000191681526020019150506040516020818303038152906040526040518082805190602001908083835b602083106125275780518252601f199092019160209182019101612508565b51815160209384036101000a60001901801990921691161790526040805192909401829003909120865285019590955292909201600020805460ff1916941515949094179093555050505050565b60008282111561258157fe5b50900390565b80600360008460405160200180807f7369676e61747572657300000000000000000000000000000000000000000000815250600a018260001916600019168152602001915050604051602081830303815290604052604051808280519060200190808383602083106124555780518252601f199092019160209182019101612436565b806000808460405160200180807f6e756d4d657373616765735369676e656400000000000000000000000000000081525060110182600019166000191681526020019150506040516020818303038152906040526040518082805190602001908083835b6020831061268d5780518252601f19909201916020918201910161266e565b51815160209384036101000a60001901801990921691161790526040805192909401829003909120865285019590955292909201600020939093555050505050565b7f80000000000000000000000000000000000000000000000000000000000000001790565b600160a060020a03821615156127125761270d81612d0c565b61271c565b61271c8282612d70565b5050565b6000903b1190565b7f8be0079c531659141344cd1fd0a4f28419497f9722a3daafe3b4186f6b6457e06127516117ee565b60408051600160a060020a03928316815291841660208301528051918290030190a1806002600060405160200180807f6f776e657200000000000000000000000000000000000000000000000000000081525060050190506040516020818303038152906040526040518082805190602001908083835b602083106127e75780518252601f1990920191602091820191016127c8565b51815160209384036101000a60001901801990921691161790526040805192909401829003909120865285019590955292909201600020805473ffffffffffffffffffffffffffffffffffffffff1916600160a060020a03959095169490941790935550505050565b60016004600060405160200180807f6973496e697469616c697a656400000000000000000000000000000000000000815250600d0190506040516020818303038152906040526040518082805190602001908083835b602083106128c55780518252601f1990920191602091820191016128a6565b51815160209384036101000a60001901801990921691161790526040805192909401829003909120865285019590955292909201600020805460ff191694151594909417909355505050565b7f9df71e9d2175354c68d0e882702c9eb5d63e036345c53639b8c63be4e8764741816040518080602001828103825283818151815260200191508051906020019080838360005b83811015612970578181015183820152602001612958565b50505050905090810190601f16801561299d5780820380516001836020036101000a031916815260200191505b509250505060405180910390a150565b80600460008460405160200180807f61666669726d6174696f6e735369676e656400000000000000000000000000008152506012018260001916600019168152602001915050604051602081830303815290604052604051808280519060200190808383602083106125275780518252601f199092019160209182019101612508565b806000808460405160200180807f6e756d41666669726d6174696f6e735369676e6564000000000000000000000081525060150182600019166000191681526020019150506040516020818303038152906040526040518082805190602001908083836020831061268d5780518252601f19909201916020918201910161266e565b6000806000806000806060612ac8886000612e14565b959c50939a509198509650945092509050612ae887878787878787612f22565b5050505050505050565b60408051808201909152601a81527f19457468657265756d205369676e6564204d6573736167653a0a000000000000602082015260009060608315612c985781612b3c8651612f3f565b866040516020018084805190602001908083835b60208310612b6f5780518252601f199092019160209182019101612b50565b51815160209384036101000a600019018019909216911617905286519190930192860191508083835b60208310612bb75780518252601f199092019160209182019101612b98565b51815160209384036101000a600019018019909216911617905285519190930192850191508083835b60208310612bff5780518252601f199092019160209182019101612be0565b6001836020036101000a03801982511681845116808217855250505050505090500193505050506040516020818303038152906040526040518082805190602001908083835b60208310612c645780518252601f199092019160209182019101612c45565b6001836020036101000a03801982511681845116808217855250505050505090500191505060405180910390209250612d04565b6040805190810160405280600381526020017f3130340000000000000000000000000000000000000000000000000000000000815250905081818660405160200180848051906020019080838360208310612b6f5780518252601f199092019160209182019101612b50565b505092915050565b604051303190600160a060020a0383169082156108fc029083906000818181858888f19350505050151561271c578082612d446133bf565b600160a060020a039091168152604051908190036020019082f0801580156120b4573d6000803e3d6000fd5b604080517f70a0823100000000000000000000000000000000000000000000000000000000815230600482015290518391600091600160a060020a038416916370a0823191602480830192602092919082900301818787803b158015612dd557600080fd5b505af1158015612de9573d6000803e3d6000fd5b505050506040513d6020811015612dff57600080fd5b50519050612e0e84848361304a565b50505050565b60208201516034830151604884015160688501516088860151929391927fff00000000000000000000000000000000000000000000000000000000000000166000606081806069858015612e995760f860020a8114612ea2577f02000000000000000000000000000000000000000000000000000000000000008114612eb457612ebf565b60009550612ebf565b60898d01519550602082019150612ebf565b600095506001820191505b50808c51039150816040519080825280601f01601f191660200182016040528015612ef4578160200160208202803883390190505b5093506020840160018c1415612f0957602093505b8284836044010182375050505092959891949750929550565b6000612f31888884888a613101565b9050612ae8888888846131a5565b60606000808281851515612f885760408051808201909152600181527f300000000000000000000000000000000000000000000000000000000000000060208201529450613041565b8593505b8315612fa357600190920191600a84049350612f8c565b826040519080825280601f01601f191660200182016040528015612fd1578160200160208202803883390190505b5091505060001982015b851561303d57815160001982019160f860020a6030600a8a06010291849190811061300257fe5b9060200101907effffffffffffffffffffffffffffffffffffffffffffffffffffffffffffff1916908160001a905350600a86049550612fdb565b8194505b50505050919050565b60408051600160a060020a03841660248201526044808201849052825180830390910181526064909101909152602081810180517bffffffffffffffffffffffffffffffffffffffffffffffffffffffff167fa9059cbb000000000000000000000000000000000000000000000000000000001781528251606093600093909290918491828a5af1600051935083925080801561015b5750506000835111156130f9578115156130f957600080fd5b505050505050565b60008061310d876131fd565b61311683613270565b85600160a060020a0316848660405180828051906020019080838360005b8381101561314c578181015183820152602001613134565b50505050905090810190601f1680156131795780820380516001836020036101000a031916815260200191505b5091505060006040518083038160008787f192505050905061319b60006131fd565b6115d36000613270565b60408051600160a060020a03808716825285166020820152808201849052821515606082015290517fe194ef610f9150a2db4110b3db5116fd623175dca3528d7ae7046a1042f84fe79181900360800190a150505050565b806002600060405160200180807f6d65737361676553656e64657200000000000000000000000000000000000000815250600d019050604051602081830303815290604052604051808280519060200190808383602083106127e75780518252601f1990920191602091820191016127c8565b60408051602080820184905282518083038201815282840184527f7472616e73616374696f6e48617368000000000000000000000000000000000060608401528351604f818503018152606f9093019384905282519093600393600093909282918401908083835b602083106132f75780518252601f1990920191602091820191016132d8565b51815160001960209485036101000a0190811690199190911617905260408051949092018490039093208652858301969096525092909301600020845161271c9591945092019190505b828054600181600116156101000203166002900490600052602060002090601f016020900481019282601f1061338257805160ff19168380011785556133af565b828001600101855582156133af579182015b828111156133af578251825591602001919060010190613394565b506133bb9291506133ce565b5090565b6040516021806133e983390190565b61074e91905b808211156133bb57600081556001016133d45600608060405260405160208060218339810160405251600160a060020a038116ff00a165627a7a723058201c1c547ab452cc73fc317681b4d332b9006b5f5e2756e0453ad3e2f8f64cc3780029",
  "source": "pragma solidity 0.4.24;\n\nimport \"./BasicHomeAMB.sol\";\n\ncontract HomeAMB is BasicHomeAMB {\n    event UserRequestForSignature(bytes encodedData);\n    event AffirmationCompleted(address sender, address executor, bytes32 transactionHash, bool status);\n\n    function emitEventOnMessageRequest(bytes encodedData) internal {\n        emit UserRequestForSignature(encodedData);\n    }\n\n    function emitEventOnMessageProcessed(address sender, address executor, bytes32 txHash, bool status) internal {\n        emit AffirmationCompleted(sender, executor, txHash, status);\n    }\n}\n",
  "sourcePath": "/contracts/contracts/upgradeable_contracts/arbitrary_message/HomeAMB.sol",
  "compiler": {
    "name": "solc",
    "version": "0.4.24+commit.e67f0147.Emscripten.clang"
  },
  "schemaVersion": "3.0.9",
  "updatedAt": "2019-09-30T13:18:39.303Z",
  "devdoc": {
    "methods": {
      "owner()": {
        "details": "Tells the address of the owner",
        "return": "the address of the owner"
      },
      "transferOwnership(address)": {
        "details": "Allows the current owner to transfer control of the contract to a newOwner.",
        "params": {
          "newOwner": "the address to transfer ownership to."
        }
      }
    }
  },
  "userdoc": {
    "methods": {}
  }
}