{
  "contractName": "HomeBridgeErcToErc",
  "abi": [
    {
      "constant": true,
      "inputs": [
        {
          "name": "_message",
          "type": "bytes32"
        }
      ],
      "name": "numMessagesSigned",
      "outputs": [
        {
          "name": "",
          "type": "uint256"
        }
      ],
      "payable": false,
      "stateMutability": "view",
      "type": "function"
    },
    {
      "constant": true,
      "inputs": [
        {
          "name": "_hash",
          "type": "bytes32"
        },
        {
          "name": "_index",
          "type": "uint256"
        }
      ],
      "name": "signature",
      "outputs": [
        {
          "name": "",
          "type": "bytes"
        }
      ],
      "payable": false,
      "stateMutability": "view",
      "type": "function"
    },
    {
      "constant": true,
      "inputs": [],
      "name": "erc677token",
      "outputs": [
        {
          "name": "",
          "type": "address"
        }
      ],
      "payable": false,
      "stateMutability": "view",
      "type": "function"
    },
    {
      "constant": false,
      "inputs": [
        {
          "name": "_fee",
          "type": "uint256"
        }
      ],
      "name": "setForeignFee",
      "outputs": [],
      "payable": false,
      "stateMutability": "nonpayable",
      "type": "function"
    },
    {
      "constant": true,
      "inputs": [
        {
          "name": "_txHash",
          "type": "bytes32"
        }
      ],
      "name": "fixedAssets",
      "outputs": [
        {
          "name": "",
          "type": "bool"
        }
      ],
      "payable": false,
      "stateMutability": "view",
      "type": "function"
    },
    {
      "constant": true,
      "inputs": [
        {
          "name": "_day",
          "type": "uint256"
        }
      ],
      "name": "totalSpentPerDay",
      "outputs": [
        {
          "name": "",
          "type": "uint256"
        }
      ],
      "payable": false,
      "stateMutability": "view",
      "type": "function"
    },
    {
      "constant": false,
      "inputs": [
        {
          "name": "_fee",
          "type": "uint256"
        }
      ],
      "name": "setHomeFee",
      "outputs": [],
      "payable": false,
      "stateMutability": "nonpayable",
      "type": "function"
    },
    {
      "constant": true,
      "inputs": [],
      "name": "isInitialized",
      "outputs": [
        {
          "name": "",
          "type": "bool"
        }
      ],
      "payable": false,
      "stateMutability": "view",
      "type": "function"
    },
    {
      "constant": false,
      "inputs": [
        {
          "name": "_dailyLimit",
          "type": "uint256"
        }
      ],
      "name": "setExecutionDailyLimit",
      "outputs": [],
      "payable": false,
      "stateMutability": "nonpayable",
      "type": "function"
    },
    {
      "constant": true,
      "inputs": [],
      "name": "getCurrentDay",
      "outputs": [
        {
          "name": "",
          "type": "uint256"
        }
      ],
      "payable": false,
      "stateMutability": "view",
      "type": "function"
    },
    {
      "constant": true,
      "inputs": [],
      "name": "requiredBlockConfirmations",
      "outputs": [
        {
          "name": "",
          "type": "uint256"
        }
      ],
      "payable": false,
      "stateMutability": "view",
      "type": "function"
    },
    {
      "constant": true,
      "inputs": [],
      "name": "requiredMessageLength",
      "outputs": [
        {
          "name": "",
          "type": "uint256"
        }
      ],
      "payable": false,
      "stateMutability": "pure",
      "type": "function"
    },
    {
      "constant": true,
      "inputs": [],
      "name": "executionDailyLimit",
      "outputs": [
        {
          "name": "",
          "type": "uint256"
        }
      ],
      "payable": false,
      "stateMutability": "view",
      "type": "function"
    },
    {
      "constant": true,
      "inputs": [
        {
          "name": "_hash",
          "type": "bytes32"
        }
      ],
      "name": "message",
      "outputs": [
        {
          "name": "",
          "type": "bytes"
        }
      ],
      "payable": false,
      "stateMutability": "view",
      "type": "function"
    },
    {
      "constant": true,
      "inputs": [
        {
          "name": "_day",
          "type": "uint256"
        }
      ],
      "name": "totalExecutedPerDay",
      "outputs": [
        {
          "name": "",
          "type": "uint256"
        }
      ],
      "payable": false,
      "stateMutability": "view",
      "type": "function"
    },
    {
      "constant": false,
      "inputs": [
        {
          "name": "_feeManager",
          "type": "address"
        }
      ],
      "name": "setFeeManagerContract",
      "outputs": [],
      "payable": false,
      "stateMutability": "nonpayable",
      "type": "function"
    },
    {
      "constant": false,
      "inputs": [
        {
          "name": "signature",
          "type": "bytes"
        },
        {
          "name": "message",
          "type": "bytes"
        }
      ],
      "name": "submitSignature",
      "outputs": [],
      "payable": false,
      "stateMutability": "nonpayable",
      "type": "function"
    },
    {
      "constant": true,
      "inputs": [],
      "name": "dailyLimit",
      "outputs": [
        {
          "name": "",
          "type": "uint256"
        }
      ],
      "payable": false,
      "stateMutability": "view",
      "type": "function"
    },
    {
      "constant": false,
      "inputs": [
        {
          "name": "_token",
          "type": "address"
        },
        {
          "name": "_to",
          "type": "address"
        }
      ],
      "name": "claimTokens",
      "outputs": [],
      "payable": false,
      "stateMutability": "nonpayable",
      "type": "function"
    },
    {
      "constant": true,
      "inputs": [
        {
          "name": "_withdrawal",
          "type": "bytes32"
        }
      ],
      "name": "numAffirmationsSigned",
      "outputs": [
        {
          "name": "",
          "type": "uint256"
        }
      ],
      "payable": false,
      "stateMutability": "view",
      "type": "function"
    },
    {
      "constant": true,
      "inputs": [
        {
          "name": "_withdrawal",
          "type": "bytes32"
        }
      ],
      "name": "affirmationsSigned",
      "outputs": [
        {
          "name": "",
          "type": "bool"
        }
      ],
      "payable": false,
      "stateMutability": "view",
      "type": "function"
    },
    {
      "constant": true,
      "inputs": [
        {
          "name": "_amount",
          "type": "uint256"
        }
      ],
      "name": "withinExecutionLimit",
      "outputs": [
        {
          "name": "",
          "type": "bool"
        }
      ],
      "payable": false,
      "stateMutability": "view",
      "type": "function"
    },
    {
      "constant": true,
      "inputs": [],
      "name": "executionMaxPerTx",
      "outputs": [
        {
          "name": "",
          "type": "uint256"
        }
      ],
      "payable": false,
      "stateMutability": "view",
      "type": "function"
    },
    {
      "constant": true,
      "inputs": [],
      "name": "requiredSignatures",
      "outputs": [
        {
          "name": "",
          "type": "uint256"
        }
      ],
      "payable": false,
      "stateMutability": "view",
      "type": "function"
    },
    {
      "constant": true,
      "inputs": [],
      "name": "owner",
      "outputs": [
        {
          "name": "",
          "type": "address"
        }
      ],
      "payable": false,
      "stateMutability": "view",
      "type": "function"
    },
    {
      "constant": true,
      "inputs": [
        {
          "name": "_message",
          "type": "bytes32"
        }
      ],
      "name": "messagesSigned",
      "outputs": [
        {
          "name": "",
          "type": "bool"
        }
      ],
      "payable": false,
      "stateMutability": "view",
      "type": "function"
    },
    {
      "constant": true,
      "inputs": [],
      "name": "getHomeFee",
      "outputs": [
        {
          "name": "",
          "type": "uint256"
        }
      ],
      "payable": false,
      "stateMutability": "view",
      "type": "function"
    },
    {
      "constant": true,
      "inputs": [],
      "name": "validatorContract",
      "outputs": [
        {
          "name": "",
          "type": "address"
        }
      ],
      "payable": false,
      "stateMutability": "view",
      "type": "function"
    },
    {
      "constant": false,
      "inputs": [
        {
          "name": "recipient",
          "type": "address"
        },
        {
          "name": "value",
          "type": "uint256"
        },
        {
          "name": "transactionHash",
          "type": "bytes32"
        }
      ],
      "name": "executeAffirmation",
      "outputs": [],
      "payable": false,
      "stateMutability": "nonpayable",
      "type": "function"
    },
    {
      "constant": true,
      "inputs": [],
      "name": "deployedAtBlock",
      "outputs": [
        {
          "name": "",
          "type": "uint256"
        }
      ],
      "payable": false,
      "stateMutability": "view",
      "type": "function"
    },
    {
      "constant": true,
      "inputs": [],
      "name": "getBridgeInterfacesVersion",
      "outputs": [
        {
          "name": "major",
          "type": "uint64"
        },
        {
          "name": "minor",
          "type": "uint64"
        },
        {
          "name": "patch",
          "type": "uint64"
        }
      ],
      "payable": false,
      "stateMutability": "pure",
      "type": "function"
    },
    {
      "constant": true,
      "inputs": [],
      "name": "outOfLimitAmount",
      "outputs": [
        {
          "name": "",
          "type": "uint256"
        }
      ],
      "payable": false,
      "stateMutability": "view",
      "type": "function"
    },
    {
      "constant": false,
      "inputs": [
        {
          "name": "_minPerTx",
          "type": "uint256"
        }
      ],
      "name": "setMinPerTx",
      "outputs": [],
      "payable": false,
      "stateMutability": "nonpayable",
      "type": "function"
    },
    {
      "constant": false,
      "inputs": [
        {
          "name": "_from",
          "type": "address"
        },
        {
          "name": "_value",
          "type": "uint256"
        },
        {
          "name": "",
          "type": "bytes"
        }
      ],
      "name": "onTokenTransfer",
      "outputs": [
        {
          "name": "",
          "type": "bool"
        }
      ],
      "payable": false,
      "stateMutability": "nonpayable",
      "type": "function"
    },
    {
      "constant": false,
      "inputs": [
        {
          "name": "txHash",
          "type": "bytes32"
        },
        {
          "name": "unlockOnForeign",
          "type": "bool"
        },
        {
          "name": "valueToUnlock",
          "type": "uint256"
        }
      ],
      "name": "fixAssetsAboveLimits",
      "outputs": [],
      "payable": false,
      "stateMutability": "nonpayable",
      "type": "function"
    },
    {
      "constant": false,
      "inputs": [
        {
          "name": "_blockConfirmations",
          "type": "uint256"
        }
      ],
      "name": "setRequiredBlockConfirmations",
      "outputs": [],
      "payable": false,
      "stateMutability": "nonpayable",
      "type": "function"
    },
    {
      "constant": false,
      "inputs": [
        {
          "name": "_dailyLimit",
          "type": "uint256"
        }
      ],
      "name": "setDailyLimit",
      "outputs": [],
      "payable": false,
      "stateMutability": "nonpayable",
      "type": "function"
    },
    {
      "constant": false,
      "inputs": [
        {
          "name": "_gasPrice",
          "type": "uint256"
        }
      ],
      "name": "setGasPrice",
      "outputs": [],
      "payable": false,
      "stateMutability": "nonpayable",
      "type": "function"
    },
    {
      "constant": false,
      "inputs": [
        {
          "name": "_maxPerTx",
          "type": "uint256"
        }
      ],
      "name": "setMaxPerTx",
      "outputs": [],
      "payable": false,
      "stateMutability": "nonpayable",
      "type": "function"
    },
    {
      "constant": true,
      "inputs": [],
      "name": "decimalShift",
      "outputs": [
        {
          "name": "",
          "type": "uint256"
        }
      ],
      "payable": false,
      "stateMutability": "view",
      "type": "function"
    },
    {
      "constant": true,
      "inputs": [],
      "name": "feeManagerContract",
      "outputs": [
        {
          "name": "",
          "type": "address"
        }
      ],
      "payable": false,
      "stateMutability": "view",
      "type": "function"
    },
    {
      "constant": true,
      "inputs": [],
      "name": "minPerTx",
      "outputs": [
        {
          "name": "",
          "type": "uint256"
        }
      ],
      "payable": false,
      "stateMutability": "view",
      "type": "function"
    },
    {
      "constant": true,
      "inputs": [
        {
          "name": "_amount",
          "type": "uint256"
        }
      ],
      "name": "withinLimit",
      "outputs": [
        {
          "name": "",
          "type": "bool"
        }
      ],
      "payable": false,
      "stateMutability": "view",
      "type": "function"
    },
    {
      "constant": false,
      "inputs": [
        {
          "name": "_maxPerTx",
          "type": "uint256"
        }
      ],
      "name": "setExecutionMaxPerTx",
      "outputs": [],
      "payable": false,
      "stateMutability": "nonpayable",
      "type": "function"
    },
    {
      "constant": true,
      "inputs": [],
      "name": "getFeeManagerMode",
      "outputs": [
        {
          "name": "",
          "type": "bytes4"
        }
      ],
      "payable": false,
      "stateMutability": "view",
      "type": "function"
    },
    {
      "constant": false,
      "inputs": [
        {
          "name": "newOwner",
          "type": "address"
        }
      ],
      "name": "transferOwnership",
      "outputs": [],
      "payable": false,
      "stateMutability": "nonpayable",
      "type": "function"
    },
    {
      "constant": true,
      "inputs": [],
      "name": "maxPerTx",
      "outputs": [
        {
          "name": "",
          "type": "uint256"
        }
      ],
      "payable": false,
      "stateMutability": "view",
      "type": "function"
    },
    {
      "constant": true,
      "inputs": [],
      "name": "gasPrice",
      "outputs": [
        {
          "name": "",
          "type": "uint256"
        }
      ],
      "payable": false,
      "stateMutability": "view",
      "type": "function"
    },
    {
      "constant": true,
      "inputs": [
        {
          "name": "_number",
          "type": "uint256"
        }
      ],
      "name": "isAlreadyProcessed",
      "outputs": [
        {
          "name": "",
          "type": "bool"
        }
      ],
      "payable": false,
      "stateMutability": "pure",
      "type": "function"
    },
    {
      "constant": true,
      "inputs": [],
      "name": "getForeignFee",
      "outputs": [
        {
          "name": "",
          "type": "uint256"
        }
      ],
      "payable": false,
      "stateMutability": "view",
      "type": "function"
    },
    {
      "anonymous": false,
      "inputs": [
        {
          "indexed": false,
          "name": "recipient",
          "type": "address"
        },
        {
          "indexed": false,
          "name": "value",
          "type": "uint256"
        },
        {
          "indexed": false,
          "name": "transactionHash",
          "type": "bytes32"
        }
      ],
      "name": "AmountLimitExceeded",
      "type": "event"
    },
    {
      "anonymous": false,
      "inputs": [
        {
          "indexed": false,
          "name": "recipient",
          "type": "address"
        },
        {
          "indexed": false,
          "name": "value",
          "type": "uint256"
        }
      ],
      "name": "UserRequestForSignature",
      "type": "event"
    },
    {
      "anonymous": false,
      "inputs": [
        {
          "indexed": true,
          "name": "transactionHash",
          "type": "bytes32"
        },
        {
          "indexed": false,
          "name": "value",
          "type": "uint256"
        },
        {
          "indexed": false,
          "name": "remaining",
          "type": "uint256"
        }
      ],
      "name": "AssetAboveLimitsFixed",
      "type": "event"
    },
    {
      "anonymous": false,
      "inputs": [
        {
          "indexed": false,
          "name": "recipient",
          "type": "address"
        },
        {
          "indexed": false,
          "name": "value",
          "type": "uint256"
        },
        {
          "indexed": false,
          "name": "transactionHash",
          "type": "bytes32"
        }
      ],
      "name": "AffirmationCompleted",
      "type": "event"
    },
    {
      "anonymous": false,
      "inputs": [
        {
          "indexed": true,
          "name": "signer",
          "type": "address"
        },
        {
          "indexed": false,
          "name": "messageHash",
          "type": "bytes32"
        }
      ],
      "name": "SignedForUserRequest",
      "type": "event"
    },
    {
      "anonymous": false,
      "inputs": [
        {
          "indexed": true,
          "name": "signer",
          "type": "address"
        },
        {
          "indexed": false,
          "name": "transactionHash",
          "type": "bytes32"
        }
      ],
      "name": "SignedForAffirmation",
      "type": "event"
    },
    {
      "anonymous": false,
      "inputs": [
        {
          "indexed": false,
          "name": "authorityResponsibleForRelay",
          "type": "address"
        },
        {
          "indexed": false,
          "name": "messageHash",
          "type": "bytes32"
        },
        {
          "indexed": false,
          "name": "NumberOfCollectedSignatures",
          "type": "uint256"
        }
      ],
      "name": "CollectedSignatures",
      "type": "event"
    },
    {
      "anonymous": false,
      "inputs": [
        {
          "indexed": false,
          "name": "newLimit",
          "type": "uint256"
        }
      ],
      "name": "DailyLimitChanged",
      "type": "event"
    },
    {
      "anonymous": false,
      "inputs": [
        {
          "indexed": false,
          "name": "newLimit",
          "type": "uint256"
        }
      ],
      "name": "ExecutionDailyLimitChanged",
      "type": "event"
    },
    {
      "anonymous": false,
      "inputs": [
        {
          "indexed": false,
          "name": "gasPrice",
          "type": "uint256"
        }
      ],
      "name": "GasPriceChanged",
      "type": "event"
    },
    {
      "anonymous": false,
      "inputs": [
        {
          "indexed": false,
          "name": "requiredBlockConfirmations",
          "type": "uint256"
        }
      ],
      "name": "RequiredBlockConfirmationChanged",
      "type": "event"
    },
    {
      "anonymous": false,
      "inputs": [
        {
          "indexed": false,
          "name": "feeAmount",
          "type": "uint256"
        },
        {
          "indexed": true,
          "name": "transactionHash",
          "type": "bytes32"
        }
      ],
      "name": "FeeDistributedFromAffirmation",
      "type": "event"
    },
    {
      "anonymous": false,
      "inputs": [
        {
          "indexed": false,
          "name": "feeAmount",
          "type": "uint256"
        },
        {
          "indexed": true,
          "name": "transactionHash",
          "type": "bytes32"
        }
      ],
      "name": "FeeDistributedFromSignatures",
      "type": "event"
    },
    {
      "anonymous": false,
      "inputs": [
        {
          "indexed": false,
          "name": "previousOwner",
          "type": "address"
        },
        {
          "indexed": false,
          "name": "newOwner",
          "type": "address"
        }
      ],
      "name": "OwnershipTransferred",
      "type": "event"
    },
    {
      "constant": false,
      "inputs": [
        {
          "name": "_validatorContract",
          "type": "address"
        },
        {
          "name": "_dailyLimitMaxPerTxMinPerTxArray",
          "type": "uint256[]"
        },
        {
          "name": "_homeGasPrice",
          "type": "uint256"
        },
        {
          "name": "_requiredBlockConfirmations",
          "type": "uint256"
        },
        {
          "name": "_erc677token",
          "type": "address"
        },
        {
          "name": "_foreignDailyLimitForeignMaxPerTxArray",
          "type": "uint256[]"
        },
        {
          "name": "_owner",
          "type": "address"
        },
        {
          "name": "_decimalShift",
          "type": "uint256"
        }
      ],
      "name": "initialize",
      "outputs": [
        {
          "name": "",
          "type": "bool"
        }
      ],
      "payable": false,
      "stateMutability": "nonpayable",
      "type": "function"
    },
    {
      "constant": false,
      "inputs": [
        {
          "name": "_validatorContract",
          "type": "address"
        },
        {
          "name": "_dailyLimitMaxPerTxMinPerTxArray",
          "type": "uint256[]"
        },
        {
          "name": "_homeGasPrice",
          "type": "uint256"
        },
        {
          "name": "_requiredBlockConfirmations",
          "type": "uint256"
        },
        {
          "name": "_erc677token",
          "type": "address"
        },
        {
          "name": "_foreignDailyLimitForeignMaxPerTxArray",
          "type": "uint256[]"
        },
        {
          "name": "_owner",
          "type": "address"
        },
        {
          "name": "_feeManager",
          "type": "address"
        },
        {
          "name": "_homeFeeForeignFeeArray",
          "type": "uint256[]"
        },
        {
          "name": "_decimalShift",
          "type": "uint256"
        }
      ],
      "name": "rewardableInitialize",
      "outputs": [
        {
          "name": "",
          "type": "bool"
        }
      ],
      "payable": false,
      "stateMutability": "nonpayable",
      "type": "function"
    },
    {
      "constant": false,
      "inputs": [
        {
          "name": "_token",
          "type": "address"
        },
        {
          "name": "_to",
          "type": "address"
        }
      ],
      "name": "claimTokensFromErc677",
      "outputs": [],
      "payable": false,
      "stateMutability": "nonpayable",
      "type": "function"
    },
    {
      "constant": true,
      "inputs": [],
      "name": "getBridgeMode",
      "outputs": [
        {
          "name": "_data",
          "type": "bytes4"
        }
      ],
      "payable": false,
      "stateMutability": "pure",
      "type": "function"
    }
  ],
  "bytecode": "0x608060405234801561001057600080fd5b50615abb80620000216000396000f30060806040526004361061026e5763ffffffff60e060020a6000350416630cbf060181146102735780631812d9961461029d57806318d8f9c91461032d578063286c40661461035e5780632888bb9c146103785780632bd0bb05146103a457806334a9e148146103bc578063392e53cd146103d45780633dd95d1b146103e95780633e6968b6146104015780633f0a9f6514610416578063408fef2e1461042b578063437764df1461044057806343b37dd314610487578063490a32c61461049c5780634fb3fef7146104b457806360756f7c146104cc578063630cea8e146104ed57806366124e411461051957806367eeba0c1461056a57806369ffa08a1461057f5780636ae1a976146105a65780637698da24146105be578063879ce676146105d65780638aa1949a146105ee5780638d068043146106035780638da5cb5b146106185780638f4b4b981461062d5780639313dc431461064557806394da17cd1461066c5780639943908914610681578063995b2cff146106965780639a454b99146106bd5780639cb7595a146106d2578063a018934514610713578063a2a6ca2714610728578063a4c0ed3614610740578063a7444c0d14610771578063acf5c68914610791578063b20d30a9146107a9578063bf1fe420146107c1578063c6f6f216146107d9578063dae5f0fd146107f1578063dbe03a8b14610806578063df25f3f01461081b578063e46c0df014610830578063ea9f496814610894578063f20151e1146108ac578063f2ba9561146108c4578063f2fde38b146108d9578063f968adbe146108fa578063fe173b971461090f578063ffd19e8c14610924578063ffd661961461093c575b600080fd5b34801561027f57600080fd5b5061028b600435610951565b60408051918252519081900360200190f35b3480156102a957600080fd5b506102b8600435602435610a16565b6040805160208082528351818301528351919283929083019185019080838360005b838110156102f25781810151838201526020016102da565b50505050905090810190601f16801561031f5780820380516001836020036101000a031916815260200191505b509250505060405180910390f35b34801561033957600080fd5b50610342610bf3565b60408051600160a060020a039092168252519081900360200190f35b34801561036a57600080fd5b50610376600435610cb2565b005b34801561038457600080fd5b50610390600435610d6c565b604080519115158252519081900360200190f35b3480156103b057600080fd5b5061028b600435610e35565b3480156103c857600080fd5b50610376600435610eb0565b3480156103e057600080fd5b50610390610f34565b3480156103f557600080fd5b50610376600435610fec565b34801561040d57600080fd5b5061028b61110c565b34801561042257600080fd5b5061028b611115565b34801561043757600080fd5b5061028b6111c9565b34801561044c57600080fd5b506104556111d8565b604080517bffffffffffffffffffffffffffffffffffffffffffffffffffffffff199092168252519081900360200190f35b34801561049357600080fd5b5061028b61127b565b3480156104a857600080fd5b506102b86004356112ee565b3480156104c057600080fd5b5061028b600435611456565b3480156104d857600080fd5b50610376600160a060020a03600435166114d1565b3480156104f957600080fd5b5061037660246004803582810192908201359181359182019101356115ef565b34801561052557600080fd5b5061039060048035600160a060020a039081169160248035808201939083013592604435926064359260843581169260a4359283019201359060c4351660e435611a85565b34801561057657600080fd5b5061028b611b14565b34801561058b57600080fd5b50610376600160a060020a0360043581169060243516611b87565b3480156105b257600080fd5b5061028b600435611c2a565b3480156105ca57600080fd5b50610390600435611cad565b3480156105e257600080fd5b50610390600435611d31565b3480156105fa57600080fd5b5061028b611d7b565b34801561060f57600080fd5b5061028b611dee565b34801561062457600080fd5b50610342611e66565b34801561063957600080fd5b50610390600435611eda565b34801561065157600080fd5b50610376600160a060020a0360043581169060243516611f5e565b34801561067857600080fd5b5061028b61206d565b34801561068d57600080fd5b50610342612101565b3480156106a257600080fd5b50610376600160a060020a0360043516602435604435612175565b3480156106c957600080fd5b5061028b612467565b3480156106de57600080fd5b506106e76124da565b6040805167ffffffffffffffff9485168152928416602084015292168183015290519081900360600190f35b34801561071f57600080fd5b5061028b6124e5565b34801561073457600080fd5b50610376600435612558565b34801561074c57600080fd5b5061039060048035600160a060020a031690602480359160443591820191013561264f565b34801561077d57600080fd5b5061037660043560243515156044356126c0565b34801561079d57600080fd5b5061037660043561294d565b3480156107b557600080fd5b50610376600435612a5c565b3480156107cd57600080fd5b50610376600435612b7c565b3480156107e557600080fd5b50610376600435612c8b565b3480156107fd57600080fd5b5061028b612d2c565b34801561081257600080fd5b50610342612d9f565b34801561082757600080fd5b5061028b612e13565b34801561083c57600080fd5b50610390600160a060020a036004803582169160248035808201939081013592604435926064359260843583169260a43580840193908301359260c43583169260e43516916101043590810191013561012435612e86565b3480156108a057600080fd5b50610390600435612f49565b3480156108b857600080fd5b50610376600435612f94565b3480156108d057600080fd5b50610455613035565b3480156108e557600080fd5b50610376600160a060020a03600435166130ac565b34801561090657600080fd5b5061028b6130e6565b34801561091b57600080fd5b5061028b613159565b34801561093057600080fd5b506103906004356131cc565b34801561094857600080fd5b5061028b6131f4565b60008060008360405160200180807f6e756d4d657373616765735369676e656400000000000000000000000000000081525060110182600019166000191681526020019150506040516020818303038152906040526040518082805190602001908083835b602083106109d55780518252601f1990920191602091820191016109b6565b51815160209384036101000a600019018019909216911617905260408051929094018290039091208652850195909552929092016000205495945050505050565b604080516020808201859052818301849052825180830384018152606092830193849052805192936000939192909182918401908083835b60208310610a6d5780518252601f199092019160209182019101610a4e565b51815160209384036101000a6000190180199092169116179052604080519290940182900382207f7369676e6174757265730000000000000000000000000000000000000000000083830152602a80840182905285518085039091018152604a9093019485905282519097506003965060009550919392508291908401908083835b60208310610b0e5780518252601f199092019160209182019101610aef565b6001836020036101000a0380198251168184511680821785525050505050509050019150506040518091039020600019166000191681526020019081526020016000208054600181600116156101000203166002900480601f016020809104026020016040519081016040528092919081815260200182805460018160011615610100020316600290048015610be55780601f10610bba57610100808354040283529160200191610be5565b820191906000526020600020905b815481529060010190602001808311610bc857829003601f168201915b505050505091505092915050565b60006002600060405160200180807f657263363737746f6b656e000000000000000000000000000000000000000000815250600b0190506040516020818303038152906040526040518082805190602001908083835b60208310610c685780518252601f199092019160209182019101610c49565b51815160209384036101000a6000190180199092169116179052604080519290940182900390912086528501959095529290920160002054600160a060020a031693505050505b90565b610cba611e66565b600160a060020a03163314610cce57600080fd5b610d69610cd9612d9f565b826040516020018080600080516020615a50833981519152815250600b0190506040516020818303038152906040526040518082805190602001908083835b60208310610d375780518252601f199092019160209182019101610d18565b6001836020036101000a0380198251168184511680821785525050505050509050019150506040518091039020613255565b50565b6000600460008360405160200180807f6669786564417373657473000000000000000000000000000000000000000000815250600b0182600019166000191681526020019150506040516020818303038152906040526040518082805190602001908083835b60208310610df15780518252601f199092019160209182019101610dd2565b51815160209384036101000a600019018019909216911617905260408051929094018290039091208652850195909552929092016000205460ff1695945050505050565b60008060008360405160200180807f746f74616c5370656e7450657244617900000000000000000000000000000000815250601001828152602001915050604051602081830303815290604052604051808280519060200190808383602083106109d55780518252601f1990920191602091820191016109b6565b610eb8611e66565b600160a060020a03163314610ecc57600080fd5b610d69610ed7612d9f565b826040516020018080600080516020615a70833981519152815250600801905060405160208183030381529060405260405180828051906020019080838360208310610d375780518252601f199092019160209182019101610d18565b60006004600060405160200180807f6973496e697469616c697a656400000000000000000000000000000000000000815250600d0190506040516020818303038152906040526040518082805190602001908083835b60208310610fa95780518252601f199092019160209182019101610f8a565b51815160209384036101000a600019018019909216911617905260408051929094018290039091208652850195909552929092016000205460ff16949350505050565b610ff4611e66565b600160a060020a0316331461100857600080fd5b611010611d7b565b81118061101b575080155b151561102657600080fd5b8060008060405160200180807f657865637574696f6e4461696c794c696d69740000000000000000000000000081525060130190506040516020818303038152906040526040518082805190602001908083835b602083106110995780518252601f19909201916020918201910161107a565b51815160001960209485036101000a019081169019919091161790526040805194909201849003909320865285830196909652509284016000209490945550815184815291517f9bebf928b90863f24cc31f726a3a7545efd409f1dcf552301b1ee3710da70d3b9350918290030190a150565b62015180420490565b600080600060405160200180807f7265717569726564426c6f636b436f6e6669726d6174696f6e73000000000000815250601a0190506040516020818303038152906040526040518082805190602001908083835b602083106111895780518252601f19909201916020918201910161116a565b51815160209384036101000a6000190180199092169116179052604080519290940182900390912086528501959095529290920160002054949350505050565b60006111d3613407565b905090565b600060405160200180807f6572632d746f2d6572632d636f72650000000000000000000000000000000000815250600f0190506040516020818303038152906040526040518082805190602001908083835b602083106112495780518252601f19909201916020918201910161122a565b6001836020036101000a0380198251168184511680821785525050505050509050019150506040518091039020905090565b600080600060405160200180807f657865637574696f6e4461696c794c696d6974000000000000000000000000008152506013019050604051602081830303815290604052604051808280519060200190808383602083106111895780518252601f19909201916020918201910161116a565b6060600360008360405160200180807f6d6573736167657300000000000000000000000000000000000000000000000081525060080182600019166000191681526020019150506040516020818303038152906040526040518082805190602001908083835b602083106113735780518252601f199092019160209182019101611354565b6001836020036101000a0380198251168184511680821785525050505050509050019150506040518091039020600019166000191681526020019081526020016000208054600181600116156101000203166002900480601f01602080910402602001604051908101604052809291908181526020018280546001816001161561010002031660029004801561144a5780601f1061141f5761010080835404028352916020019161144a565b820191906000526020600020905b81548152906001019060200180831161142d57829003601f168201915b50505050509050919050565b60008060008360405160200180807f746f74616c457865637574656450657244617900000000000000000000000000815250601301828152602001915050604051602081830303815290604052604051808280519060200190808383602083106109d55780518252601f1990920191602091820191016109b6565b6114d9611e66565b600160a060020a031633146114ed57600080fd5b600160a060020a038116158061150757506115078161340c565b151561151257600080fd5b806002600060405160200180807f6665654d616e61676572436f6e7472616374000000000000000000000000000081525060120190506040516020818303038152906040526040518082805190602001908083835b602083106115865780518252601f199092019160209182019101611567565b51815160209384036101000a60001901801990921691161790526040805192909401829003909120865285019590955292909201600020805473ffffffffffffffffffffffffffffffffffffffff1916600160a060020a03959095169490941790935550505050565b60008060008060006115ff612101565b600160a060020a031663facd743b336040518263ffffffff1660e060020a0281526004018082600160a060020a0316600160a060020a03168152602001915050602060405180830381600087803b15801561165957600080fd5b505af115801561166d573d6000803e3d6000fd5b505050506040513d602081101561168357600080fd5b5051151561169057600080fd5b6116c987878080601f01602080910402602001604051908101604052809392919081815260200183838082843750613414945050505050565b15156116d457600080fd5b61173e89898080601f0160208091040260200160405190810160405280939291908181526020018383808284375050604080516020601f8f018190048102820181019092528d815294508d93508c9250829150840183828082843750600094506134289350505050565b600160a060020a0316331461175257600080fd5b8686604051602001808383808284378201915050925050506040516020818303038152906040526040518082805190602001908083835b602083106117a85780518252601f199092019160209182019101611789565b51815160209384036101000a600019018019909216911617905260408051929094018290038220336c0100000000000000000000000002838301526034808401829052855180850390910181526054909301948590528251909b509195509293508392850191508083835b602083106118325780518252601f199092019160209182019101611813565b6001836020036101000a0380198251168184511680821785525050505050509050019150506040518091039020935061186a85610951565b9250611875836131cc565b1561187f57600080fd5b6001928301928311156118a45761189584611eda565b1561189f57600080fd5b6118de565b6118de8588888080601f016020809104026020016040519081016040528093929190818152602001838380828437506134ea945050505050565b6118e98460016135bc565b604080516020808201889052600019860182840152825180830384018152606090920192839052815191929182918401908083835b6020831061193d5780518252601f19909201916020918201910161191e565b51815160209384036101000a600019018019909216911617905260408051929094018290038220601f8f018290048202830182019094528d825292965061199e9450869350918d91508c90819084018382808284375061368e945050505050565b6119a88584613711565b60408051868152905133917fbf06885f40778f5ccfb64497d3f92ce568ddaedb7e2fb4487f72690418cf8e4c919081900360200190a26119e6611dee565b9050808310611a7a57611a01856119fc856137d6565b613711565b604080513381526020810187905280820183905290517f415557404d88a0c0b8e3b16967cafffc511213fd9c465c16832ee17ed57d72379181900360600190a1611a7a87878080601f016020809104026020016040519081016040528093929190818152602001838380828437506137fb945050505050565b505050505050505050565b6000611af58b8b8b808060200260200160405190810160405280939291908181526020018383602002808284378201915050505050508a8a8a8a8a8080602002602001604051908101604052809392919081815260200183836020028082843782019150505050505089896138af565b611afd614261565b611b05610f34565b9b9a5050505050505050505050565b600080600060405160200180807f6461696c794c696d697400000000000000000000000000000000000000000000815250600a019050604051602081830303815290604052604051808280519060200190808383602083106111895780518252601f19909201916020918201910161116a565b30600160a060020a0316636fde82026040518163ffffffff1660e060020a028152600401602060405180830381600087803b158015611bc557600080fd5b505af1158015611bd9573d6000803e3d6000fd5b505050506040513d6020811015611bef57600080fd5b5051600160a060020a03163314611c0557600080fd5b80600160a060020a0381161515611c1b57600080fd5b611c258383614322565b505050565b60008060008360405160200180807f6e756d41666669726d6174696f6e735369676e656400000000000000000000008152506015018260001916600019168152602001915050604051602081830303815290604052604051808280519060200190808383602083106109d55780518252601f1990920191602091820191016109b6565b6000600460008360405160200180807f61666669726d6174696f6e735369676e65640000000000000000000000000000815250601201826000191660001916815260200191505060405160208183030381529060405260405180828051906020019080838360208310610df15780518252601f199092019160209182019101610dd2565b600080611d5483611d48611d4361110c565b611456565b9063ffffffff61434e16565b905080611d5f61127b565b10158015611d745750611d70611d7b565b8311155b9392505050565b600080600060405160200180807f657865637574696f6e4d617850657254780000000000000000000000000000008152506011019050604051602081830303815290604052604051808280519060200190808383602083106111895780518252601f19909201916020918201910161116a565b6000611df8612101565b600160a060020a0316638d0680436040518163ffffffff1660e060020a028152600401602060405180830381600087803b158015611e3557600080fd5b505af1158015611e49573d6000803e3d6000fd5b505050506040513d6020811015611e5f57600080fd5b5051905090565b60006002600060405160200180807f6f776e6572000000000000000000000000000000000000000000000000000000815250600501905060405160208183030381529060405260405180828051906020019080838360208310610c685780518252601f199092019160209182019101610c49565b6000600460008360405160200180807f6d657373616765735369676e6564000000000000000000000000000000000000815250600e01826000191660001916815260200191505060405160208183030381529060405260405180828051906020019080838360208310610df15780518252601f199092019160209182019101610dd2565b30600160a060020a0316636fde82026040518163ffffffff1660e060020a028152600401602060405180830381600087803b158015611f9c57600080fd5b505af1158015611fb0573d6000803e3d6000fd5b505050506040513d6020811015611fc657600080fd5b5051600160a060020a03163314611fdc57600080fd5b611fe4610bf3565b604080517f69ffa08a000000000000000000000000000000000000000000000000000000008152600160a060020a0385811660048301528481166024830152915192909116916369ffa08a9160448082019260009290919082900301818387803b15801561205157600080fd5b505af1158015612065573d6000803e3d6000fd5b505050505050565b60006111d36040516020018080600080516020615a7083398151915281525060080190506040516020818303038152906040526040518082805190602001908083835b602083106120cf5780518252601f1990920191602091820191016120b0565b6001836020036101000a0380198251168184511680821785525050505050509050019150506040518091039020614361565b60006002600060405160200180807f76616c696461746f72436f6e7472616374000000000000000000000000000000815250601101905060405160208183030381529060405260405180828051906020019080838360208310610c685780518252601f199092019160209182019101610c49565b6000806000612182612101565b600160a060020a031663facd743b336040518263ffffffff1660e060020a0281526004018082600160a060020a0316600160a060020a03168152602001915050602060405180830381600087803b1580156121dc57600080fd5b505af11580156121f0573d6000803e3d6000fd5b505050506040513d602081101561220657600080fd5b5051151561221357600080fd5b61221c85611d31565b1561245c57604080516c01000000000000000000000000600160a060020a0389160260208083019190915260348201889052605480830188905283518084039091018152607490920192839052815191929182918401908083835b602083106122965780518252601f199092019160209182019101612277565b51815160209384036101000a600019018019909216911617905260408051929094018290038220336c01000000000000000000000000028383015260348084018290528551808503909101815260549093019485905282519099509195509293508392850191508083835b602083106123205780518252601f199092019160209182019101612301565b6001836020036101000a0380198251168184511680821785525050505050509050019150506040518091039020915061235882611cad565b1561236257600080fd5b61236d8260016144b9565b61237683611c2a565b9050612381816131cc565b1561238b57600080fd5b600101612398838261453c565b60408051858152905133917f5df9cc3eb93d8a9a481857a3b70a8ca966e6b80b25cf0ee2cce180ec5afa80a1919081900360200190a26123d6611dee565b8110612457576123ee836123e9836137d6565b61453c565b600085111561240d576124028686866145be565b151561240d57600080fd5b60408051600160a060020a03881681526020810187905280820186905290517f6fc115a803b8703117d9a3956c5a15401cb42401f91630f015eb6b043fa762539181900360600190a15b612065565b61206586868661473d565b600080600060405160200180807f6465706c6f7965644174426c6f636b0000000000000000000000000000000000815250600f019050604051602081830303815290604052604051808280519060200190808383602083106111895780518252601f19909201916020918201910161116a565b600260036000909192565b600080600060405160200180807f6f75744f664c696d6974416d6f756e74000000000000000000000000000000008152506010019050604051602081830303815290604052604051808280519060200190808383602083106111895780518252601f19909201916020918201910161116a565b612560611e66565b600160a060020a0316331461257457600080fd5b61257c611b14565b81108015612590575061258d6130e6565b81105b151561259b57600080fd5b8060008060405160200180807f6d696e506572547800000000000000000000000000000000000000000000000081525060080190506040516020818303038152906040526040518082805190602001908083835b6020831061260e5780518252601f1990920191602091820191016125ef565b51815160209384036101000a600019018019909216911617905260408051929094018290039091208652850195909552929092016000209390935550505050565b60008061265a610bf3565b905033600160a060020a0382161461267157600080fd5b61267a85612f49565b151561268557600080fd5b6126a961269061110c565b6126a487611d4861269f61110c565b610e35565b6147d8565b6126b4818787614852565b50600195945050505050565b60008060008060008030600160a060020a0316636fde82026040518163ffffffff1660e060020a028152600401602060405180830381600087803b15801561270757600080fd5b505af115801561271b573d6000803e3d6000fd5b505050506040513d602081101561273157600080fd5b5051600160a060020a0316331461274757600080fd5b61275089610d6c565b1561275a57600080fd5b6127626130e6565b87111561276e57600080fd5b612777896148bd565b9096509450600160a060020a038616158015906127945750600085115b80156127a05750868510155b15156127ab57600080fd5b6127cb6127c6886127ba6124e5565b9063ffffffff614a4416565b614a56565b6127db858863ffffffff614a4416565b93506127e7848a614ac8565b604080518881526020810186905281518b927f5bcec6564fe8d2cbb4e4eb8237510ceb6b291a5c2ee2e429948d25e9c924c1fa928290030190a28315156128315761283189614b4a565b8715611a7a5761283f612d9f565b9250869150600160a060020a038316156128fe576128e9876000856040516020018080600080516020615a7083398151915281525060080190506040516020818303038152906040526040518082805190602001908083835b602083106128b75780518252601f199092019160209182019101612898565b6001836020036101000a0380198251168184511680821785525050505050509050019150506040518091039020614c1c565b90506128fb878263ffffffff614a4416565b91505b60408051600160a060020a03881681526020810184905281517f127650bcfb0ba017401abe4931453a405140a8fd36fece67bae2db174d3fdd63929181900390910190a1505050505050505050565b612955611e66565b600160a060020a0316331461296957600080fd5b6000811161297657600080fd5b8060008060405160200180807f7265717569726564426c6f636b436f6e6669726d6174696f6e73000000000000815250601a0190506040516020818303038152906040526040518082805190602001908083835b602083106129e95780518252601f1990920191602091820191016129ca565b51815160001960209485036101000a019081169019919091161790526040805194909201849003909320865285830196909652509284016000209490945550815184815291517f4fb76205cd57c896b21511d2114137d8e901b4ccd659e1a0f97d6306795264fb9350918290030190a150565b612a64611e66565b600160a060020a03163314612a7857600080fd5b612a806130e6565b811180612a8b575080155b1515612a9657600080fd5b8060008060405160200180807f6461696c794c696d697400000000000000000000000000000000000000000000815250600a0190506040516020818303038152906040526040518082805190602001908083835b60208310612b095780518252601f199092019160209182019101612aea565b51815160001960209485036101000a019081169019919091161790526040805194909201849003909320865285830196909652509284016000209490945550815184815291517fad4123ae17c414d9c6d2fec478b402e6b01856cc250fd01fbfd252fda0089d3c9350918290030190a150565b612b84611e66565b600160a060020a03163314612b9857600080fd5b60008111612ba557600080fd5b8060008060405160200180807f676173507269636500000000000000000000000000000000000000000000000081525060080190506040516020818303038152906040526040518082805190602001908083835b60208310612c185780518252601f199092019160209182019101612bf9565b51815160001960209485036101000a019081169019919091161790526040805194909201849003909320865285830196909652509284016000209490945550815184815291517f52264b89e0fceafb26e79fd49ef8a366eb6297483bf4035b027f0c99a7ad512e9350918290030190a150565b612c93611e66565b600160a060020a03163314612ca757600080fd5b612caf611b14565b8110612cba57600080fd5b8060008060405160200180807f6d6178506572547800000000000000000000000000000000000000000000000081525060080190506040516020818303038152906040526040518082805190602001908083836020831061260e5780518252601f1990920191602091820191016125ef565b600080600060405160200180807f646563696d616c53686966740000000000000000000000000000000000000000815250600c019050604051602081830303815290604052604051808280519060200190808383602083106111895780518252601f19909201916020918201910161116a565b60006002600060405160200180807f6665654d616e61676572436f6e74726163740000000000000000000000000000815250601201905060405160208183030381529060405260405180828051906020019080838360208310610c685780518252601f199092019160209182019101610c49565b600080600060405160200180807f6d696e50657254780000000000000000000000000000000000000000000000008152506008019050604051602081830303815290604052604051808280519060200190808383602083106111895780518252601f19909201916020918201910161116a565b6000612f278e8e8e808060200260200160405190810160405280939291908181526020018383602002808284378201915050505050508d8d8d8d8d808060200260200160405190810160405280939291908181526020018383602002808284378201915050505050508c8c8c8c808060200260200160405190810160405280939291908181526020018383602002808284378201915050505050508b614ca7565b612f2f614261565b612f37610f34565b9e9d5050505050505050505050505050565b600080612f5b83611d4861269f61110c565b905080612f66611b14565b10158015612f7b5750612f776130e6565b8311155b8015611d745750612f8a612e13565b9092101592915050565b612f9c611e66565b600160a060020a03163314612fb057600080fd5b612fb861127b565b8110612fc357600080fd5b8060008060405160200180807f657865637574696f6e4d6178506572547800000000000000000000000000000081525060110190506040516020818303038152906040526040518082805190602001908083836020831061260e5780518252601f1990920191602091820191016125ef565b604080516004815260248101909152602081018051600160e060020a03167ff2ba956100000000000000000000000000000000000000000000000000000000179052600090819081613085612d9f565b9050600460008351602085016000855af2600051935080801561026e575092949350505050565b6130b4611e66565b600160a060020a031633146130c857600080fd5b600160a060020a03811615156130dd57600080fd5b610d6981614ea4565b600080600060405160200180807f6d617850657254780000000000000000000000000000000000000000000000008152506008019050604051602081830303815290604052604051808280519060200190808383602083106111895780518252601f19909201916020918201910161116a565b600080600060405160200180807f67617350726963650000000000000000000000000000000000000000000000008152506008019050604051602081830303815290604052604051808280519060200190808383602083106111895780518252601f19909201916020918201910161116a565b7f80000000000000000000000000000000000000000000000000000000000000009081161490565b60006111d36040516020018080600080516020615a50833981519152815250600b019050604051602081830303815290604052604051808280519060200190808383602083106120cf5780518252601f1990920191602091820191016120b0565b60006040516020018080600080516020615a7083398151915281525060080190506040516020818303038152906040526040518082805190602001908083835b602083106132b45780518252601f199092019160209182019101613295565b5181516020939093036101000a600019018019909116921691909117905260405192018290039091208514925061330e915050577f286c406600000000000000000000000000000000000000000000000000000000613330565b7f34a9e148000000000000000000000000000000000000000000000000000000005b6040805160248082018790528251808303909101815260449091018252602081018051600160e060020a03167bffffffffffffffffffffffffffffffffffffffffffffffffffffffff19851617815291518151939450600160a060020a038816939192909182919080838360005b838110156133b657818101518382015260200161339e565b50505050905090810190601f1680156133e35780820380516001836020036101000a031916815260200191505b50915050600060405180830381855af4915050151561340157600080fd5b50505050565b606890565b6000903b1190565b600061341e613407565b8251149050919050565b6000806000808651604114151561343e57600080fd5b505050602084015160408501516060860151600161345c8787614f62565b60408051600080825260208083018085529490945260ff7f0100000000000000000000000000000000000000000000000000000000000000870416828401526060820188905260808201879052915160a08083019493601f198301938390039091019190865af11580156134d4573d6000803e3d6000fd5b5050604051601f19015198975050505050505050565b80600360008460405160200180807f6d6573736167657300000000000000000000000000000000000000000000000081525060080182600019166000191681526020019150506040516020818303038152906040526040518082805190602001908083835b6020831061356e5780518252601f19909201916020918201910161354f565b51815160001960209485036101000a01908116901991909116179052604080519490920184900390932086528583019690965250929093016000208451611c25959194509201919050615987565b80600460008460405160200180807f6d657373616765735369676e6564000000000000000000000000000000000000815250600e0182600019166000191681526020019150506040516020818303038152906040526040518082805190602001908083835b602083106136405780518252601f199092019160209182019101613621565b51815160209384036101000a60001901801990921691161790526040805192909401829003909120865285019590955292909201600020805460ff1916941515949094179093555050505050565b80600360008460405160200180807f7369676e61747572657300000000000000000000000000000000000000000000815250600a0182600019166000191681526020019150506040516020818303038152906040526040518082805190602001908083836020831061356e5780518252601f19909201916020918201910161354f565b806000808460405160200180807f6e756d4d657373616765735369676e656400000000000000000000000000000081525060110182600019166000191681526020019150506040516020818303038152906040526040518082805190602001908083835b602083106137945780518252601f199092019160209182019101613775565b51815160209384036101000a60001901801990921691161790526040805192909401829003909120865285019590955292909201600020939093555050505050565b7f80000000000000000000000000000000000000000000000000000000000000001790565b60008060008060008061380c612d9f565b9550600160a060020a038616156138a6576138268761517c565b80955081965082975083985050505050613899846001886040516020018080600080516020615a708339815191528152506008019050604051602081830303815290604052604051808280519060200190808383602083106128b75780518252601f199092019160209182019101612898565b90506138a68187856151b7565b50505050505050565b6138b7610f34565b156138c157600080fd5b6138ca8861340c565b15156138d557600080fd5b600085116138e257600080fd5b60008760028151811015156138f357fe5b90602001906020020151118015613939575086600281518110151561391457fe5b9060200190602002015187600181518110151561392d57fe5b90602001906020020151115b8015613974575086600181518110151561394f57fe5b9060200190602002015187600081518110151561396857fe5b90602001906020020151115b151561397f57600080fd5b82600081518110151561398e57fe5b906020019060200201518360018151811015156139a757fe5b60209081029091010151106139bb57600080fd5b600160a060020a03821615156139d057600080fd5b876002600060405160200180807f76616c696461746f72436f6e747261637400000000000000000000000000000081525060110190506040516020818303038152906040526040518082805190602001908083835b60208310613a445780518252601f199092019160209182019101613a25565b51815160209384036101000a60001901801990921691161790526040805192909401829003909120865285810196909652509283016000908120805473ffffffffffffffffffffffffffffffffffffffff1916600160a060020a039790971696909617909555505080517f6465706c6f7965644174426c6f636b0000000000000000000000000000000000818401528151600f818303018152602f90910191829052805143949384939182918401908083835b60208310613b165780518252601f199092019160209182019101613af7565b51815160209384036101000a6000190180199092169116179052604080519290940182900390912086528501959095529290920160009081209490945550508851899291508110613b6357fe5b9060200190602002015160008060405160200180807f6461696c794c696d697400000000000000000000000000000000000000000000815250600a0190506040516020818303038152906040526040518082805190602001908083835b60208310613bdf5780518252601f199092019160209182019101613bc0565b51815160209384036101000a6000190180199092169116179052604080519290940182900390912086528501959095529290920160002093909355505087518891506001908110613c2c57fe5b9060200190602002015160008060405160200180807f6d6178506572547800000000000000000000000000000000000000000000000081525060080190506040516020818303038152906040526040518082805190602001908083835b60208310613ca85780518252601f199092019160209182019101613c89565b51815160209384036101000a6000190180199092169116179052604080519290940182900390912086528501959095529290920160002093909355505087518891506002908110613cf557fe5b9060200190602002015160008060405160200180807f6d696e506572547800000000000000000000000000000000000000000000000081525060080190506040516020818303038152906040526040518082805190602001908083835b60208310613d715780518252601f199092019160209182019101613d52565b51815160209384036101000a6000190180199092169116179052604080519290940182900390912086528581019690965250928301600090812095909555505080517f6761735072696365000000000000000000000000000000000000000000000000818401528151600881830301815260289091019182905280518a949384939182918401908083835b60208310613e1b5780518252601f199092019160209182019101613dfc565b51815160209384036101000a6000190180199092169116179052604080519290940182900390912086528581019690965250928301600090812095909555505080517f7265717569726564426c6f636b436f6e6669726d6174696f6e73000000000000818401528151601a818303018152603a90910191829052805189949384939182918401908083835b60208310613ec55780518252601f199092019160209182019101613ea6565b51815160209384036101000a6000190180199092169116179052604080519290940182900390912086528501959095529290920160009081209490945550508451859291508110613f1257fe5b9060200190602002015160008060405160200180807f657865637574696f6e4461696c794c696d69740000000000000000000000000081525060130190506040516020818303038152906040526040518082805190602001908083835b60208310613f8e5780518252601f199092019160209182019101613f6f565b51815160209384036101000a6000190180199092169116179052604080519290940182900390912086528501959095529290920160002093909355505083518491506001908110613fdb57fe5b9060200190602002015160008060405160200180807f657865637574696f6e4d6178506572547800000000000000000000000000000081525060110190506040516020818303038152906040526040518082805190602001908083835b602083106140575780518252601f199092019160209182019101614038565b51815160209384036101000a6000190180199092169116179052604080519290940182900390912086528581019690965250928301600090812095909555505080517f646563696d616c53686966740000000000000000000000000000000000000000818401528151600c818303018152602c90910191829052805185949384939182918401908083835b602083106141015780518252601f1990920191602091820191016140e2565b51815160209384036101000a60001901801990921691161790526040805192909401829003909120865285019590955292909201600020939093555061414a9150839050614ea4565b614153846152bc565b6040805186815290517f4fb76205cd57c896b21511d2114137d8e901b4ccd659e1a0f97d6306795264fb9181900360200190a16040805187815290517f52264b89e0fceafb26e79fd49ef8a366eb6297483bf4035b027f0c99a7ad512e9181900360200190a17fad4123ae17c414d9c6d2fec478b402e6b01856cc250fd01fbfd252fda0089d3c8760008151811015156141e957fe5b906020019060200201516040518082815260200191505060405180910390a17f9bebf928b90863f24cc31f726a3a7545efd409f1dcf552301b1ee3710da70d3b83600081518110151561423857fe5b906020019060200201516040518082815260200191505060405180910390a15050505050505050565b60016004600060405160200180807f6973496e697469616c697a656400000000000000000000000000000000000000815250600d0190506040516020818303038152906040526040518082805190602001908083835b602083106142d65780518252601f1990920191602091820191016142b7565b51815160209384036101000a60001901801990921691161790526040805192909401829003909120865285019590955292909201600020805460ff191694151594909417909355505050565b600160a060020a03821615156143405761433b81615343565b61434a565b61434a82826153ae565b5050565b8181018281101561435b57fe5b92915050565b6000806000806060614371612d9f565b92506040516020018080600080516020615a7083398151915281525060080190506040516020818303038152906040526040518082805190602001908083835b602083106143d05780518252601f1990920191602091820191016143b1565b5181516020939093036101000a600019018019909116921691909117905260405192018290039091208914925061442a915050577fffd661960000000000000000000000000000000000000000000000000000000061444c565b7f94da17cd000000000000000000000000000000000000000000000000000000005b60408051600481526024810190915260208082018051600160e060020a03167bffffffffffffffffffffffffffffffffffffffffffffffffffffffff19851617815282519395509193509160009182875af2600051945080801561026e5750508394505b50505050919050565b80600460008460405160200180807f61666669726d6174696f6e735369676e656400000000000000000000000000008152506012018260001916600019168152602001915050604051602081830303815290604052604051808280519060200190808383602083106136405780518252601f199092019160209182019101613621565b806000808460405160200180807f6e756d41666669726d6174696f6e735369676e656400000000000000000000008152506015018260001916600019168152602001915050604051602081830303815290604052604051808280519060200190808383602083106137945780518252601f199092019160209182019101613775565b6000806000806145e36145cf61110c565b6145de88611d48611d4361110c565b61544c565b6145fe6145ee612d2c565b8790600a0a63ffffffff6154c616565b9250614608612d9f565b9150600160a060020a0382161561469c5761467c836000846040516020018080600080516020615a50833981519152815250600b019050604051602081830303815290604052604051808280519060200190808383602083106128b75780518252601f199092019160209182019101612898565b90506146898183876154ef565b614699838263ffffffff614a4416565b92505b6146a4610bf3565b600160a060020a03166340c10f1988856040518363ffffffff1660e060020a0281526004018083600160a060020a0316600160a060020a0316815260200182815260200192505050602060405180830381600087803b15801561470657600080fd5b505af115801561471a573d6000803e3d6000fd5b505050506040513d602081101561473057600080fd5b5051979650505050505050565b600080614749836148bd565b9092509050600160a060020a038216158015614763575080155b151561476e57600080fd5b61477d6127c685611d486124e5565b6147888585856155f4565b60408051600160a060020a03871681526020810186905280820185905290517f159c0773f543f1e17d5e78327702770947055eb4e871b529bbc78bc9fde456929181900360600190a15050505050565b806000808460405160200180807f746f74616c5370656e7450657244617900000000000000000000000000000000815250601001828152602001915050604051602081830303815290604052604051808280519060200190808383602083106137945780518252601f199092019160209182019101613775565b82600160a060020a03166342966c68826040518263ffffffff1660e060020a02815260040180828152602001915050600060405180830381600087803b15801561489b57600080fd5b505af11580156148af573d6000803e3d6000fd5b50505050611c2582826156ea565b600080600260008460405160200180807f74784f75744f664c696d6974526563697069656e74000000000000000000000081525060150182600019166000191681526020019150506040516020818303038152906040526040518082805190602001908083835b602083106149435780518252601f199092019160209182019101614924565b51815160209384036101000a600019018019909216911617905260408051929094018290039091208652858101969096525092830160009081205484517f74784f75744f664c696d697456616c75650000000000000000000000000000008188015260318082018b9052865180830390910181526051909101958690528051600160a060020a0390921698509195869592945091925082918401908083835b60208310614a015780518252601f1990920191602091820191016149e2565b51815160209384036101000a6000190180199092169116179052604080519290940182900390912086528501959095529290920160002054949694955050505050565b600082821115614a5057fe5b50900390565b8060008060405160200180807f6f75744f664c696d6974416d6f756e740000000000000000000000000000000081525060100190506040516020818303038152906040526040518082805190602001908083836020831061260e5780518252601f1990920191602091820191016125ef565b816000808360405160200180807f74784f75744f664c696d697456616c75650000000000000000000000000000008152506011018260001916600019168152602001915050604051602081830303815290604052604051808280519060200190808383602083106137945780518252601f199092019160209182019101613775565b6001600460008360405160200180807f6669786564417373657473000000000000000000000000000000000000000000815250600b0182600019166000191681526020019150506040516020818303038152906040526040518082805190602001908083835b60208310614bcf5780518252601f199092019160209182019101614bb0565b51815160209384036101000a60001901801990921691161790526040805192909401829003909120865285019590955292909201600020805460ff19169415159490941790935550505050565b60408051602481018690528415156044820152606480820184905282518083039091018152608490910190915260208181018051600160e060020a03167f9862f26f000000000000000000000000000000000000000000000000000000001781528251600093849390929091849182895af2600051925080801561026e575091979650505050505050565b614cb78a8a8a8a8a8a8a886138af565b614cc08361340c565b1515614ccb57600080fd5b826002600060405160200180807f6665654d616e61676572436f6e7472616374000000000000000000000000000081525060120190506040516020818303038152906040526040518082805190602001908083835b60208310614d3f5780518252601f199092019160209182019101614d20565b51815160209384036101000a600019018019909216911617905260408051929094018290039091208652850195909552929092016000908120805473ffffffffffffffffffffffffffffffffffffffff1916600160a060020a03969096169590951790945550508351614e1f9286925085918110614db957fe5b906020019060200201516040516020018080600080516020615a70833981519152815250600801905060405160208183030381529060405260405180828051906020019080838360208310610d375780518252601f199092019160209182019101610d18565b614e9883836001815181101515614e3257fe5b906020019060200201516040516020018080600080516020615a50833981519152815250600b01905060405160208183030381529060405260405180828051906020019080838360208310610d375780518252601f199092019160209182019101610d18565b50505050505050505050565b7f8be0079c531659141344cd1fd0a4f28419497f9722a3daafe3b4186f6b6457e0614ecd611e66565b60408051600160a060020a03928316815291841660208301528051918290030190a1806002600060405160200180807f6f776e65720000000000000000000000000000000000000000000000000000008152506005019050604051602081830303815290604052604051808280519060200190808383602083106115865780518252601f199092019160209182019101611567565b60408051808201909152601a81527f19457468657265756d205369676e6564204d6573736167653a0a0000000000006020820152600090606083156151085781614fac86516157ca565b866040516020018084805190602001908083835b60208310614fdf5780518252601f199092019160209182019101614fc0565b51815160209384036101000a600019018019909216911617905286519190930192860191508083835b602083106150275780518252601f199092019160209182019101615008565b51815160209384036101000a600019018019909216911617905285519190930192850191508083835b6020831061506f5780518252601f199092019160209182019101615050565b6001836020036101000a03801982511681845116808217855250505050505090500193505050506040516020818303038152906040526040518082805190602001908083835b602083106150d45780518252601f1990920191602091820191016150b5565b6001836020036101000a03801982511681845116808217855250505050505090500191505060405180910390209250615174565b6040805190810160405280600381526020017f3130340000000000000000000000000000000000000000000000000000000000815250905081818660405160200180848051906020019080838360208310614fdf5780518252601f199092019160209182019101614fc0565b505092915050565b60008060008061518b85613414565b151561519657600080fd5b50505050601481015160348201516054830151606890930151919390929190565b6040805160248082018690528251808303909101815260449091018252602081018051600160e060020a03167f59d784640000000000000000000000000000000000000000000000000000000017815291518151600160a060020a03861693829180838360005b8381101561523657818101518382015260200161521e565b50505050905090810190601f1680156152635780820380516001836020036101000a031916815260200191505b50915050600060405180830381855af4915050151561528157600080fd5b60408051848152905182917f858abdcd5efcaebb936e8e8516f0cfe9a0ef5157ff99d16cdabb6db625be90d0919081900360200190a2505050565b6152c58161340c565b15156152d057600080fd5b806002600060405160200180807f657263363737746f6b656e000000000000000000000000000000000000000000815250600b019050604051602081830303815290604052604051808280519060200190808383602083106115865780518252601f199092019160209182019101611567565b604051303190600160a060020a0383169082156108fc029083906000818181858888f19350505050151561434a57808261537b615a05565b600160a060020a039091168152604051908190036020019082f0801580156153a7573d6000803e3d6000fd5b5050505050565b604080517f70a0823100000000000000000000000000000000000000000000000000000000815230600482015290518391600091600160a060020a038416916370a0823191602480830192602092919082900301818787803b15801561541357600080fd5b505af1158015615427573d6000803e3d6000fd5b505050506040513d602081101561543d57600080fd5b505190506134018484836158ed565b806000808460405160200180807f746f74616c457865637574656450657244617900000000000000000000000000815250601301828152602001915050604051602081830303815290604052604051808280519060200190808383602083106137945780518252601f199092019160209182019101613775565b60008215156154d75750600061435b565b508181028183828115156154e757fe5b041461435b57fe5b6040805160248082018690528251808303909101815260449091018252602081018051600160e060020a03167f054d46ec0000000000000000000000000000000000000000000000000000000017815291518151600160a060020a03861693829180838360005b8381101561556e578181015183820152602001615556565b50505050905090810190601f16801561559b5780820380516001836020036101000a031916815260200191505b50915050600060405180830381855af491505015156155b957600080fd5b60408051848152905182917fa52d3c9cbc541772e4edd92e2e4e2a3865ab73630f25deed8a6c8de41ff0f65c919081900360200190a2505050565b82600260008360405160200180807f74784f75744f664c696d6974526563697069656e74000000000000000000000081525060150182600019166000191681526020019150506040516020818303038152906040526040518082805190602001908083835b602083106156785780518252601f199092019160209182019101615659565b51815160209384036101000a60001901801990921691161790526040805192909401829003909120865285019590955292909201600020805473ffffffffffffffffffffffffffffffffffffffff1916600160a060020a03959095169490941790935550611c25915083905082614ac8565b806000806156f6612d9f565b9150600160a060020a0382161561577f5761576a836000846040516020018080600080516020615a708339815191528152506008019050604051602081830303815290604052604051808280519060200190808383602083106128b75780518252601f199092019160209182019101612898565b905061577c838263ffffffff614a4416565b92505b60408051600160a060020a03871681526020810185905281517f127650bcfb0ba017401abe4931453a405140a8fd36fece67bae2db174d3fdd63929181900390910190a15050505050565b606060008082818515156158135760408051808201909152600181527f3000000000000000000000000000000000000000000000000000000000000000602082015294506144b0565b8593505b831561582e57600190920191600a84049350615817565b826040519080825280601f01601f19166020018201604052801561585c578160200160208202803883390190505b5091505060001982015b85156158e45781516000198201917f01000000000000000000000000000000000000000000000000000000000000006030600a8a0601029184919081106158a957fe5b9060200101907effffffffffffffffffffffffffffffffffffffffffffffffffffffffffffff1916908160001a905350600a86049550615866565b50949350505050565b60408051600160a060020a0384166024820152604480820184905282518083039091018152606490910190915260208181018051600160e060020a03167fa9059cbb000000000000000000000000000000000000000000000000000000001781528251606093600093909290918491828a5af1600051935083925080801561026e5750506000835111156120655781151561206557600080fd5b828054600181600116156101000203166002900490600052602060002090601f016020900481019282601f106159c857805160ff19168380011785556159f5565b828001600101855582156159f5579182015b828111156159f55782518255916020019190600101906159da565b50615a01929150615a14565b5090565b604051602180615a2f83390190565b610caf91905b80821115615a015760008155600101615a1a5600608060405260405160208060218339810160405251600160a060020a038116ff00666f726569676e2d666565000000000000000000000000000000000000000000686f6d652d666565000000000000000000000000000000000000000000000000a165627a7a723058205b122b51e0414edf6b818a1a75862c556dba5db98cd94281f7d6ba59e441c3990029",
  "source": "pragma solidity 0.4.24;\n\nimport \"../../libraries/Message.sol\";\nimport \"../../upgradeability/EternalStorage.sol\";\nimport \"../../interfaces/IBurnableMintableERC677Token.sol\";\nimport \"../BasicHomeBridge.sol\";\nimport \"../OverdrawManagement.sol\";\nimport \"./RewardableHomeBridgeErcToErc.sol\";\nimport \"../ERC677BridgeForBurnableMintableToken.sol\";\n\ncontract HomeBridgeErcToErc is\n    EternalStorage,\n    BasicHomeBridge,\n    ERC677BridgeForBurnableMintableToken,\n    OverdrawManagement,\n    RewardableHomeBridgeErcToErc\n{\n    event AmountLimitExceeded(address recipient, uint256 value, bytes32 transactionHash);\n\n    function initialize(\n        address _validatorContract,\n        uint256[] _dailyLimitMaxPerTxMinPerTxArray, // [ 0 = _dailyLimit, 1 = _maxPerTx, 2 = _minPerTx ]\n        uint256 _homeGasPrice,\n        uint256 _requiredBlockConfirmations,\n        address _erc677token,\n        uint256[] _foreignDailyLimitForeignMaxPerTxArray, // [ 0 = _foreignDailyLimit, 1 = _foreignMaxPerTx ]\n        address _owner,\n        uint256 _decimalShift\n    ) external returns (bool) {\n        _initialize(\n            _validatorContract,\n            _dailyLimitMaxPerTxMinPerTxArray,\n            _homeGasPrice,\n            _requiredBlockConfirmations,\n            _erc677token,\n            _foreignDailyLimitForeignMaxPerTxArray,\n            _owner,\n            _decimalShift\n        );\n        setInitialize();\n\n        return isInitialized();\n    }\n\n    function rewardableInitialize(\n        address _validatorContract,\n        uint256[] _dailyLimitMaxPerTxMinPerTxArray, // [ 0 = _dailyLimit, 1 = _maxPerTx, 2 = _minPerTx ]\n        uint256 _homeGasPrice,\n        uint256 _requiredBlockConfirmations,\n        address _erc677token,\n        uint256[] _foreignDailyLimitForeignMaxPerTxArray, // [ 0 = _foreignDailyLimit, 1 = _foreignMaxPerTx ]\n        address _owner,\n        address _feeManager,\n        uint256[] _homeFeeForeignFeeArray, // [ 0 = _homeFee, 1 = _foreignFee ]\n        uint256 _decimalShift\n    ) external returns (bool) {\n        _rewardableInitialize(\n            _validatorContract,\n            _dailyLimitMaxPerTxMinPerTxArray,\n            _homeGasPrice,\n            _requiredBlockConfirmations,\n            _erc677token,\n            _foreignDailyLimitForeignMaxPerTxArray,\n            _owner,\n            _feeManager,\n            _homeFeeForeignFeeArray,\n            _decimalShift\n        );\n        setInitialize();\n\n        return isInitialized();\n    }\n\n    function _rewardableInitialize(\n        address _validatorContract,\n        uint256[] _dailyLimitMaxPerTxMinPerTxArray, // [ 0 = _dailyLimit, 1 = _maxPerTx, 2 = _minPerTx ]\n        uint256 _homeGasPrice,\n        uint256 _requiredBlockConfirmations,\n        address _erc677token,\n        uint256[] _foreignDailyLimitForeignMaxPerTxArray, // [ 0 = _foreignDailyLimit, 1 = _foreignMaxPerTx ]\n        address _owner,\n        address _feeManager,\n        uint256[] _homeFeeForeignFeeArray, // [ 0 = _homeFee, 1 = _foreignFee ]\n        uint256 _decimalShift\n    ) internal {\n        _initialize(\n            _validatorContract,\n            _dailyLimitMaxPerTxMinPerTxArray,\n            _homeGasPrice,\n            _requiredBlockConfirmations,\n            _erc677token,\n            _foreignDailyLimitForeignMaxPerTxArray,\n            _owner,\n            _decimalShift\n        );\n        require(AddressUtils.isContract(_feeManager));\n        addressStorage[FEE_MANAGER_CONTRACT] = _feeManager;\n        _setFee(_feeManager, _homeFeeForeignFeeArray[0], HOME_FEE);\n        _setFee(_feeManager, _homeFeeForeignFeeArray[1], FOREIGN_FEE);\n    }\n\n    function _initialize(\n        address _validatorContract,\n        uint256[] _dailyLimitMaxPerTxMinPerTxArray, // [ 0 = _dailyLimit, 1 = _maxPerTx, 2 = _minPerTx ]\n        uint256 _homeGasPrice,\n        uint256 _requiredBlockConfirmations,\n        address _erc677token,\n        uint256[] _foreignDailyLimitForeignMaxPerTxArray, // [ 0 = _foreignDailyLimit, 1 = _foreignMaxPerTx ]\n        address _owner,\n        uint256 _decimalShift\n    ) internal {\n        require(!isInitialized());\n        require(AddressUtils.isContract(_validatorContract));\n        require(_requiredBlockConfirmations > 0);\n        require(\n            _dailyLimitMaxPerTxMinPerTxArray[2] > 0 && // _minPerTx > 0\n                _dailyLimitMaxPerTxMinPerTxArray[1] > _dailyLimitMaxPerTxMinPerTxArray[2] && // _maxPerTx > _minPerTx\n                _dailyLimitMaxPerTxMinPerTxArray[0] > _dailyLimitMaxPerTxMinPerTxArray[1] // _dailyLimit > _maxPerTx\n        );\n        require(_foreignDailyLimitForeignMaxPerTxArray[1] < _foreignDailyLimitForeignMaxPerTxArray[0]); // _foreignMaxPerTx < _foreignDailyLimit\n        require(_owner != address(0));\n        addressStorage[VALIDATOR_CONTRACT] = _validatorContract;\n        uintStorage[DEPLOYED_AT_BLOCK] = block.number;\n        uintStorage[DAILY_LIMIT] = _dailyLimitMaxPerTxMinPerTxArray[0];\n        uintStorage[MAX_PER_TX] = _dailyLimitMaxPerTxMinPerTxArray[1];\n        uintStorage[MIN_PER_TX] = _dailyLimitMaxPerTxMinPerTxArray[2];\n        uintStorage[GAS_PRICE] = _homeGasPrice;\n        uintStorage[REQUIRED_BLOCK_CONFIRMATIONS] = _requiredBlockConfirmations;\n        uintStorage[EXECUTION_DAILY_LIMIT] = _foreignDailyLimitForeignMaxPerTxArray[0];\n        uintStorage[EXECUTION_MAX_PER_TX] = _foreignDailyLimitForeignMaxPerTxArray[1];\n        uintStorage[DECIMAL_SHIFT] = _decimalShift;\n        setOwner(_owner);\n        setErc677token(_erc677token);\n\n        emit RequiredBlockConfirmationChanged(_requiredBlockConfirmations);\n        emit GasPriceChanged(_homeGasPrice);\n        emit DailyLimitChanged(_dailyLimitMaxPerTxMinPerTxArray[0]);\n        emit ExecutionDailyLimitChanged(_foreignDailyLimitForeignMaxPerTxArray[0]);\n    }\n\n    function claimTokensFromErc677(address _token, address _to) external onlyIfUpgradeabilityOwner {\n        IBurnableMintableERC677Token(erc677token()).claimTokens(_token, _to);\n    }\n\n    function getBridgeMode() external pure returns (bytes4 _data) {\n        return bytes4(keccak256(abi.encodePacked(\"erc-to-erc-core\")));\n    }\n\n    function onExecuteAffirmation(address _recipient, uint256 _value, bytes32 txHash) internal returns (bool) {\n        setTotalExecutedPerDay(getCurrentDay(), totalExecutedPerDay(getCurrentDay()).add(_value));\n        uint256 valueToMint = _value.mul(10 ** decimalShift());\n        address feeManager = feeManagerContract();\n        if (feeManager != address(0)) {\n            uint256 fee = calculateFee(valueToMint, false, feeManager, FOREIGN_FEE);\n            distributeFeeFromAffirmation(fee, feeManager, txHash);\n            valueToMint = valueToMint.sub(fee);\n        }\n        return IBurnableMintableERC677Token(erc677token()).mint(_recipient, valueToMint);\n    }\n\n    function fireEventOnTokenTransfer(address _from, uint256 _value) internal {\n        uint256 valueToTransfer = _value;\n        address feeManager = feeManagerContract();\n        if (feeManager != address(0)) {\n            uint256 fee = calculateFee(valueToTransfer, false, feeManager, HOME_FEE);\n            valueToTransfer = valueToTransfer.sub(fee);\n        }\n        emit UserRequestForSignature(_from, valueToTransfer);\n    }\n\n    function onSignaturesCollected(bytes _message) internal {\n        address feeManager = feeManagerContract();\n        if (feeManager != address(0)) {\n            address recipient;\n            uint256 amount;\n            bytes32 txHash;\n            address contractAddress;\n            (recipient, amount, txHash, contractAddress) = Message.parseMessage(_message);\n            uint256 fee = calculateFee(amount, true, feeManager, HOME_FEE);\n            distributeFeeFromSignatures(fee, feeManager, txHash);\n        }\n    }\n\n    function onFailedAffirmation(address _recipient, uint256 _value, bytes32 _txHash) internal {\n        address recipient;\n        uint256 value;\n        (recipient, value) = txAboveLimits(_txHash);\n        require(recipient == address(0) && value == 0);\n        setOutOfLimitAmount(outOfLimitAmount().add(_value));\n        setTxAboveLimits(_recipient, _value, _txHash);\n        emit AmountLimitExceeded(_recipient, _value, _txHash);\n    }\n}\n",
  "sourcePath": "/contracts/contracts/upgradeable_contracts/erc20_to_erc20/HomeBridgeErcToErc.sol",
  "compiler": {
    "name": "solc",
    "version": "0.4.24+commit.e67f0147.Emscripten.clang"
  },
  "schemaVersion": "3.0.9",
  "updatedAt": "2019-09-30T13:18:39.314Z",
  "devdoc": {
    "methods": {
      "owner()": {
        "details": "Tells the address of the owner",
        "return": "the address of the owner"
      },
      "transferOwnership(address)": {
        "details": "Allows the current owner to transfer control of the contract to a newOwner.",
        "params": {
          "newOwner": "the address to transfer ownership to."
        }
      }
    }
  },
  "userdoc": {
    "methods": {}
  }
}