{
  "contractName": "BellecourRegistry",
  "abi": [
    {
      "constant": false,
      "inputs": [
        {
          "name": "_new",
          "type": "address"
        }
      ],
      "name": "setOwner",
      "outputs": [],
      "payable": false,
      "stateMutability": "nonpayable",
      "type": "function"
    },
    {
      "constant": true,
      "inputs": [],
      "name": "owner",
      "outputs": [
        {
          "name": "",
          "type": "address"
        }
      ],
      "payable": false,
      "stateMutability": "view",
      "type": "function"
    },
    {
      "constant": true,
      "inputs": [],
      "name": "locked",
      "outputs": [
        {
          "name": "",
          "type": "bool"
        }
      ],
      "payable": false,
      "stateMutability": "view",
      "type": "function"
    },
    {
      "constant": true,
      "inputs": [],
      "name": "fee",
      "outputs": [
        {
          "name": "",
          "type": "uint256"
        }
      ],
      "payable": false,
      "stateMutability": "view",
      "type": "function"
    },
    {
      "anonymous": false,
      "inputs": [
        {
          "indexed": false,
          "name": "amount",
          "type": "uint256"
        }
      ],
      "name": "Drained",
      "type": "event"
    },
    {
      "anonymous": false,
      "inputs": [
        {
          "indexed": false,
          "name": "amount",
          "type": "uint256"
        }
      ],
      "name": "FeeChanged",
      "type": "event"
    },
    {
      "anonymous": false,
      "inputs": [
        {
          "indexed": false,
          "name": "name",
          "type": "string"
        },
        {
          "indexed": true,
          "name": "reverse",
          "type": "address"
        }
      ],
      "name": "ReverseProposed",
      "type": "event"
    },
    {
      "anonymous": false,
      "inputs": [],
      "name": "LockRegistry",
      "type": "event"
    },
    {
      "anonymous": false,
      "inputs": [],
      "name": "UnlockRegistry",
      "type": "event"
    },
    {
      "anonymous": false,
      "inputs": [
        {
          "indexed": false,
          "name": "name",
          "type": "string"
        },
        {
          "indexed": true,
          "name": "reverse",
          "type": "address"
        }
      ],
      "name": "ReverseConfirmed",
      "type": "event"
    },
    {
      "anonymous": false,
      "inputs": [
        {
          "indexed": false,
          "name": "name",
          "type": "string"
        },
        {
          "indexed": true,
          "name": "reverse",
          "type": "address"
        }
      ],
      "name": "ReverseRemoved",
      "type": "event"
    },
    {
      "anonymous": false,
      "inputs": [
        {
          "indexed": true,
          "name": "name",
          "type": "bytes32"
        },
        {
          "indexed": true,
          "name": "owner",
          "type": "address"
        }
      ],
      "name": "Reserved",
      "type": "event"
    },
    {
      "anonymous": false,
      "inputs": [
        {
          "indexed": true,
          "name": "name",
          "type": "bytes32"
        },
        {
          "indexed": true,
          "name": "oldOwner",
          "type": "address"
        },
        {
          "indexed": true,
          "name": "newOwner",
          "type": "address"
        }
      ],
      "name": "Transferred",
      "type": "event"
    },
    {
      "anonymous": false,
      "inputs": [
        {
          "indexed": true,
          "name": "name",
          "type": "bytes32"
        },
        {
          "indexed": true,
          "name": "owner",
          "type": "address"
        }
      ],
      "name": "Dropped",
      "type": "event"
    },
    {
      "anonymous": false,
      "inputs": [
        {
          "indexed": true,
          "name": "name",
          "type": "bytes32"
        },
        {
          "indexed": false,
          "name": "key",
          "type": "string"
        },
        {
          "indexed": false,
          "name": "plainKey",
          "type": "string"
        }
      ],
      "name": "DataChanged",
      "type": "event"
    },
    {
      "anonymous": false,
      "inputs": [
        {
          "indexed": true,
          "name": "old",
          "type": "address"
        },
        {
          "indexed": true,
          "name": "current",
          "type": "address"
        }
      ],
      "name": "NewOwner",
      "type": "event"
    },
    {
      "constant": false,
      "inputs": [
        {
          "name": "_name",
          "type": "bytes32"
        }
      ],
      "name": "reserve",
      "outputs": [
        {
          "name": "success",
          "type": "bool"
        }
      ],
      "payable": true,
      "stateMutability": "payable",
      "type": "function"
    },
    {
      "constant": false,
      "inputs": [
        {
          "name": "_name",
          "type": "bytes32"
        },
        {
          "name": "_to",
          "type": "address"
        }
      ],
      "name": "transfer",
      "outputs": [
        {
          "name": "success",
          "type": "bool"
        }
      ],
      "payable": false,
      "stateMutability": "nonpayable",
      "type": "function"
    },
    {
      "constant": false,
      "inputs": [
        {
          "name": "_name",
          "type": "bytes32"
        }
      ],
      "name": "drop",
      "outputs": [
        {
          "name": "success",
          "type": "bool"
        }
      ],
      "payable": false,
      "stateMutability": "nonpayable",
      "type": "function"
    },
    {
      "constant": false,
      "inputs": [
        {
          "name": "_name",
          "type": "bytes32"
        },
        {
          "name": "_key",
          "type": "string"
        },
        {
          "name": "_value",
          "type": "bytes32"
        }
      ],
      "name": "setData",
      "outputs": [
        {
          "name": "success",
          "type": "bool"
        }
      ],
      "payable": false,
      "stateMutability": "nonpayable",
      "type": "function"
    },
    {
      "constant": false,
      "inputs": [
        {
          "name": "_name",
          "type": "bytes32"
        },
        {
          "name": "_key",
          "type": "string"
        },
        {
          "name": "_value",
          "type": "address"
        }
      ],
      "name": "setAddress",
      "outputs": [
        {
          "name": "success",
          "type": "bool"
        }
      ],
      "payable": false,
      "stateMutability": "nonpayable",
      "type": "function"
    },
    {
      "constant": false,
      "inputs": [
        {
          "name": "_name",
          "type": "bytes32"
        },
        {
          "name": "_key",
          "type": "string"
        },
        {
          "name": "_value",
          "type": "uint256"
        }
      ],
      "name": "setUint",
      "outputs": [
        {
          "name": "success",
          "type": "bool"
        }
      ],
      "payable": false,
      "stateMutability": "nonpayable",
      "type": "function"
    },
    {
      "constant": false,
      "inputs": [
        {
          "name": "_name",
          "type": "string"
        },
        {
          "name": "_who",
          "type": "address"
        }
      ],
      "name": "proposeReverse",
      "outputs": [
        {
          "name": "success",
          "type": "bool"
        }
      ],
      "payable": false,
      "stateMutability": "nonpayable",
      "type": "function"
    },
    {
      "constant": false,
      "inputs": [
        {
          "name": "_name",
          "type": "string"
        }
      ],
      "name": "confirmReverse",
      "outputs": [
        {
          "name": "success",
          "type": "bool"
        }
      ],
      "payable": false,
      "stateMutability": "nonpayable",
      "type": "function"
    },
    {
      "constant": false,
      "inputs": [
        {
          "name": "_name",
          "type": "string"
        },
        {
          "name": "_who",
          "type": "address"
        }
      ],
      "name": "confirmReverseAs",
      "outputs": [
        {
          "name": "success",
          "type": "bool"
        }
      ],
      "payable": false,
      "stateMutability": "nonpayable",
      "type": "function"
    },
    {
      "constant": false,
      "inputs": [],
      "name": "removeReverse",
      "outputs": [],
      "payable": false,
      "stateMutability": "nonpayable",
      "type": "function"
    },
    {
      "constant": false,
      "inputs": [
        {
          "name": "_amount",
          "type": "uint256"
        }
      ],
      "name": "setFee",
      "outputs": [
        {
          "name": "",
          "type": "bool"
        }
      ],
      "payable": false,
      "stateMutability": "nonpayable",
      "type": "function"
    },
    {
      "constant": false,
      "inputs": [],
      "name": "lockRegistry",
      "outputs": [
        {
          "name": "",
          "type": "bool"
        }
      ],
      "payable": false,
      "stateMutability": "nonpayable",
      "type": "function"
    },
    {
      "constant": false,
      "inputs": [],
      "name": "unlockRegistry",
      "outputs": [
        {
          "name": "",
          "type": "bool"
        }
      ],
      "payable": false,
      "stateMutability": "nonpayable",
      "type": "function"
    },
    {
      "constant": false,
      "inputs": [],
      "name": "drain",
      "outputs": [
        {
          "name": "",
          "type": "bool"
        }
      ],
      "payable": false,
      "stateMutability": "nonpayable",
      "type": "function"
    },
    {
      "constant": true,
      "inputs": [
        {
          "name": "_name",
          "type": "bytes32"
        },
        {
          "name": "_key",
          "type": "string"
        }
      ],
      "name": "getData",
      "outputs": [
        {
          "name": "",
          "type": "bytes32"
        }
      ],
      "payable": false,
      "stateMutability": "view",
      "type": "function"
    },
    {
      "constant": true,
      "inputs": [
        {
          "name": "_name",
          "type": "bytes32"
        },
        {
          "name": "_key",
          "type": "string"
        }
      ],
      "name": "getAddress",
      "outputs": [
        {
          "name": "",
          "type": "address"
        }
      ],
      "payable": false,
      "stateMutability": "view",
      "type": "function"
    },
    {
      "constant": true,
      "inputs": [
        {
          "name": "_name",
          "type": "bytes32"
        },
        {
          "name": "_key",
          "type": "string"
        }
      ],
      "name": "getUint",
      "outputs": [
        {
          "name": "",
          "type": "uint256"
        }
      ],
      "payable": false,
      "stateMutability": "view",
      "type": "function"
    },
    {
      "constant": true,
      "inputs": [
        {
          "name": "_name",
          "type": "bytes32"
        }
      ],
      "name": "getOwner",
      "outputs": [
        {
          "name": "",
          "type": "address"
        }
      ],
      "payable": false,
      "stateMutability": "view",
      "type": "function"
    },
    {
      "constant": true,
      "inputs": [
        {
          "name": "_name",
          "type": "bytes32"
        }
      ],
      "name": "hasReverse",
      "outputs": [
        {
          "name": "",
          "type": "bool"
        }
      ],
      "payable": false,
      "stateMutability": "view",
      "type": "function"
    },
    {
      "constant": true,
      "inputs": [
        {
          "name": "_name",
          "type": "bytes32"
        }
      ],
      "name": "getReverse",
      "outputs": [
        {
          "name": "",
          "type": "address"
        }
      ],
      "payable": false,
      "stateMutability": "view",
      "type": "function"
    },
    {
      "constant": true,
      "inputs": [
        {
          "name": "_data",
          "type": "address"
        }
      ],
      "name": "canReverse",
      "outputs": [
        {
          "name": "",
          "type": "bool"
        }
      ],
      "payable": false,
      "stateMutability": "view",
      "type": "function"
    },
    {
      "constant": true,
      "inputs": [
        {
          "name": "_data",
          "type": "address"
        }
      ],
      "name": "reverse",
      "outputs": [
        {
          "name": "",
          "type": "string"
        }
      ],
      "payable": false,
      "stateMutability": "view",
      "type": "function"
    },
    {
      "constant": true,
      "inputs": [
        {
          "name": "_name",
          "type": "bytes32"
        }
      ],
      "name": "reserved",
      "outputs": [
        {
          "name": "",
          "type": "bool"
        }
      ],
      "payable": false,
      "stateMutability": "view",
      "type": "function"
    }
  ],
  "bytecode": "0x6080604052336000806101000a81548173ffffffffffffffffffffffffffffffffffffffff021916908373ffffffffffffffffffffffffffffffffffffffff160217905550670de0b6b3a76400006003556001600460006101000a81548160ff02191690831515021790555034801561007757600080fd5b50613895806100876000396000f30060806040526004361061015f576000357c0100000000000000000000000000000000000000000000000000000000900463ffffffff16806306b2ff471461016457806313af4035146101bf57806319362a28146102025780632b596f6d146102715780633f3935d1146102a0578063432ced04146102f35780634f39ca591461032f5780636795dbcd1461037857806369fe0e2d1461040157806379ce9fac146104465780637ec0846d146104af5780638da5cb5b146104de57806390b97fc114610535578063926988141461059a5780639890220b146105e3578063ac4e73f914610612578063ac72c12014610685578063c3a35825146106ce578063cf3090121461072b578063ddca3f431461075a578063deb931a214610785578063df57b742146107f6578063e30bd74014610867578063eadf976014610923578063ef5454d61461098e578063f25eb5c114610a01578063f6d339e414610a18575b600080fd5b34801561017057600080fd5b506101a5600480360381019080803573ffffffffffffffffffffffffffffffffffffffff169060200190929190505050610a99565b604051808215151515815260200191505060405180910390f35b3480156101cb57600080fd5b50610200600480360381019080803573ffffffffffffffffffffffffffffffffffffffff169060200190929190505050610af9565b005b34801561020e57600080fd5b5061025760048036038101908080356000191690602001909291908035906020019082018035906020019190919293919293908035600019169060200190929190505050610c12565b604051808215151515815260200191505060405180910390f35b34801561027d57600080fd5b50610286610e2e565b604051808215151515815260200191505060405180910390f35b3480156102ac57600080fd5b506102d9600480360381019080803590602001908201803590602001919091929391929390505050610efa565b604051808215151515815260200191505060405180910390f35b6103156004803603810190808035600019169060200190929190505050611293565b604051808215151515815260200191505060405180910390f35b34801561033b57600080fd5b5061035e600480360381019080803560001916906020019092919050505061140f565b604051808215151515815260200191505060405180910390f35b34801561038457600080fd5b506103bf60048036038101908080356000191690602001909291908035906020019082018035906020019190919293919293905050506118ec565b604051808273ffffffffffffffffffffffffffffffffffffffff1673ffffffffffffffffffffffffffffffffffffffff16815260200191505060405180910390f35b34801561040d57600080fd5b5061042c600480360381019080803590602001909291905050506119ee565b604051808215151515815260200191505060405180910390f35b34801561045257600080fd5b506104956004803603810190808035600019169060200190929190803573ffffffffffffffffffffffffffffffffffffffff169060200190929190505050611a92565b604051808215151515815260200191505060405180910390f35b3480156104bb57600080fd5b506104c4611ca6565b604051808215151515815260200191505060405180910390f35b3480156104ea57600080fd5b506104f3611d73565b604051808273ffffffffffffffffffffffffffffffffffffffff1673ffffffffffffffffffffffffffffffffffffffff16815260200191505060405180910390f35b34801561054157600080fd5b5061057c6004803603810190808035600019169060200190929190803590602001908201803590602001919091929391929390505050611d98565b60405180826000191660001916815260200191505060405180910390f35b3480156105a657600080fd5b506105c96004803603810190808035600019169060200190929190505050611e96565b604051808215151515815260200191505060405180910390f35b3480156105ef57600080fd5b506105f8611fa9565b604051808215151515815260200191505060405180910390f35b34801561061e57600080fd5b5061066b600480360381019080803590602001908201803590602001919091929391929390803573ffffffffffffffffffffffffffffffffffffffff1690602001909291905050506120b9565b604051808215151515815260200191505060405180910390f35b34801561069157600080fd5b506106b46004803603810190808035600019169060200190929190505050612690565b604051808215151515815260200191505060405180910390f35b3480156106da57600080fd5b5061071560048036038101908080356000191690602001909291908035906020019082018035906020019190919293919293905050506127a3565b6040518082815260200191505060405180910390f35b34801561073757600080fd5b506107406128a5565b604051808215151515815260200191505060405180910390f35b34801561076657600080fd5b5061076f6128b8565b6040518082815260200191505060405180910390f35b34801561079157600080fd5b506107b460048036038101908080356000191690602001909291905050506128be565b604051808273ffffffffffffffffffffffffffffffffffffffff1673ffffffffffffffffffffffffffffffffffffffff16815260200191505060405180910390f35b34801561080257600080fd5b5061082560048036038101908080356000191690602001909291905050506129b7565b604051808273ffffffffffffffffffffffffffffffffffffffff1673ffffffffffffffffffffffffffffffffffffffff16815260200191505060405180910390f35b34801561087357600080fd5b506108a8600480360381019080803573ffffffffffffffffffffffffffffffffffffffff169060200190929190505050612ab0565b6040518080602001828103825283818151815260200191508051906020019080838360005b838110156108e85780820151818401526020810190506108cd565b50505050905090810190601f1680156109155780820380516001836020036101000a031916815260200191505b509250505060405180910390f35b34801561092f57600080fd5b50610974600480360381019080803560001916906020019092919080359060200190820180359060200191909192939192939080359060200190929190505050612b91565b604051808215151515815260200191505060405180910390f35b34801561099a57600080fd5b506109e7600480360381019080803590602001908201803590602001919091929391929390803573ffffffffffffffffffffffffffffffffffffffff169060200190929190505050612db0565b604051808215151515815260200191505060405180910390f35b348015610a0d57600080fd5b50610a16613097565b005b348015610a2457600080fd5b50610a7f6004803603810190808035600019169060200190929190803590602001908201803590602001919091929391929390803573ffffffffffffffffffffffffffffffffffffffff169060200190929190505050613547565b604051808215151515815260200191505060405180910390f35b600080600260008473ffffffffffffffffffffffffffffffffffffffff1673ffffffffffffffffffffffffffffffffffffffff16815260200190815260200160002080546001816001161561010002031660029004905014159050919050565b6000809054906101000a900473ffffffffffffffffffffffffffffffffffffffff1673ffffffffffffffffffffffffffffffffffffffff163373ffffffffffffffffffffffffffffffffffffffff16141515610b5457600080fd5b8073ffffffffffffffffffffffffffffffffffffffff166000809054906101000a900473ffffffffffffffffffffffffffffffffffffffff1673ffffffffffffffffffffffffffffffffffffffff167f70aea8d848e8a90fb7661b227dc522eb6395c3dac71b63cb59edd5c9899b236460405160405180910390a3806000806101000a81548173ffffffffffffffffffffffffffffffffffffffff021916908373ffffffffffffffffffffffffffffffffffffffff16021790555050565b6000801515600460009054906101000a900460ff161515141515610c3557600080fd5b8460016000826000191660001916815260200190815260200160002060010160149054906101000a900460ff16158015610cda5750600073ffffffffffffffffffffffffffffffffffffffff1660016000836000191660001916815260200190815260200160002060000160009054906101000a900473ffffffffffffffffffffffffffffffffffffffff1673ffffffffffffffffffffffffffffffffffffffff1614155b1515610ce557600080fd5b853373ffffffffffffffffffffffffffffffffffffffff1660016000836000191660001916815260200190815260200160002060000160009054906101000a900473ffffffffffffffffffffffffffffffffffffffff1673ffffffffffffffffffffffffffffffffffffffff16141515610d5e57600080fd5b836001600089600019166000191681526020019081526020016000206002018787604051808383808284378201915050925050509081526020016040518091039020816000191690555086600019167fb829c3e412537bbe794c048ccb9e4605bb4aaaa8e4d4c15c1a6e0c2adc1716ea878789896040518080602001806020018381038352878782818152602001925080828437820191505083810382528585828181526020019250808284378201915050965050505050505060405180910390a2600192505050949350505050565b6000801515600460009054906101000a900460ff161515141515610e5157600080fd5b6000809054906101000a900473ffffffffffffffffffffffffffffffffffffffff1673ffffffffffffffffffffffffffffffffffffffff163373ffffffffffffffffffffffffffffffffffffffff16141515610eac57600080fd5b6001600460006101000a81548160ff0219169083151502179055507f4f615285403aa71c72ea2d0e49d96b85fa5ad4b17983f12e39ec5964548f746d60405160405180910390a16001905090565b6000801515600460009054906101000a900460ff161515141515610f1d57600080fd5b82828080601f01602080910402602001604051908101604052809392919081815260200183838082843782019150505050505060016000826040518082805190602001908083835b602083101515610f8a5780518252602082019150602081019050602083039250610f65565b6001836020036101000a03801982511681845116808217855250505050505090500191505060405180910390206000191660001916815260200190815260200160002060010160149054906101000a900460ff161580156110b85750600073ffffffffffffffffffffffffffffffffffffffff1660016000836040518082805190602001908083835b6020831015156110385780518252602082019150602081019050602083039250611013565b6001836020036101000a03801982511681845116808217855250505050505090500191505060405180910390206000191660001916815260200190815260200160002060000160009054906101000a900473ffffffffffffffffffffffffffffffffffffffff1673ffffffffffffffffffffffffffffffffffffffff1614155b15156110c357600080fd5b83838080601f0160208091040260200160405190810160405280939291908181526020018383808284378201915050505050503373ffffffffffffffffffffffffffffffffffffffff1660016000836040518082805190602001908083835b6020831015156111475780518252602082019150602081019050602083039250611122565b6001836020036101000a03801982511681845116808217855250505050505090500191505060405180910390206000191660001916815260200190815260200160002060010160009054906101000a900473ffffffffffffffffffffffffffffffffffffffff1673ffffffffffffffffffffffffffffffffffffffff161415156111d057600080fd5b8484600260003373ffffffffffffffffffffffffffffffffffffffff1673ffffffffffffffffffffffffffffffffffffffff168152602001908152602001600020919061121e92919061377c565b503373ffffffffffffffffffffffffffffffffffffffff167f098ae8581bb8bd9af1beaf7f2e9f51f31a8e5a8bfada4e303a645d71d9c919208686604051808060200182810382528484828181526020019250808284378201915050935050505060405180910390a260019250505092915050565b6000801515600460009054906101000a900460ff1615151415156112b657600080fd5b8160016000826000191660001916815260200190815260200160002060010160149054906101000a900460ff161580156113445750600060016000836000191660001916815260200190815260200160002060000160009054906101000a900473ffffffffffffffffffffffffffffffffffffffff1673ffffffffffffffffffffffffffffffffffffffff16145b151561134f57600080fd5b600354341015151561136057600080fd5b3360016000856000191660001916815260200190815260200160002060000160006101000a81548173ffffffffffffffffffffffffffffffffffffffff021916908373ffffffffffffffffffffffffffffffffffffffff1602179055503373ffffffffffffffffffffffffffffffffffffffff1683600019167f4963513eca575aba66fdcd25f267aae85958fe6fb97e75fa25d783f1a091a22160405160405180910390a36001915050919050565b6000801515600460009054906101000a900460ff16151514151561143257600080fd5b8160016000826000191660001916815260200190815260200160002060010160149054906101000a900460ff161580156114d75750600073ffffffffffffffffffffffffffffffffffffffff1660016000836000191660001916815260200190815260200160002060000160009054906101000a900473ffffffffffffffffffffffffffffffffffffffff1673ffffffffffffffffffffffffffffffffffffffff1614155b15156114e257600080fd5b823373ffffffffffffffffffffffffffffffffffffffff1660016000836000191660001916815260200190815260200160002060000160009054906101000a900473ffffffffffffffffffffffffffffffffffffffff1673ffffffffffffffffffffffffffffffffffffffff1614151561155b57600080fd5b83600019166002600060016000886000191660001916815260200190815260200160002060010160009054906101000a900473ffffffffffffffffffffffffffffffffffffffff1673ffffffffffffffffffffffffffffffffffffffff1673ffffffffffffffffffffffffffffffffffffffff16815260200190815260200160002060405180828054600181600116156101000203166002900480156116385780601f10611616576101008083540402835291820191611638565b820191906000526020600020905b815481529060010190602001808311611624575b505091505060405180910390206000191614156118635760016000856000191660001916815260200190815260200160002060010160009054906101000a900473ffffffffffffffffffffffffffffffffffffffff1673ffffffffffffffffffffffffffffffffffffffff167f12491ad95fd945e444d88a894ffad3c21959880a4dcd8af99d4ae4ffc71d4abd6002600060016000896000191660001916815260200190815260200160002060010160009054906101000a900473ffffffffffffffffffffffffffffffffffffffff1673ffffffffffffffffffffffffffffffffffffffff1673ffffffffffffffffffffffffffffffffffffffff16815260200190815260200160002060405180806020018281038252838181546001816001161561010002031660029004815260200191508054600181600116156101000203166002900480156117cb5780601f106117a0576101008083540402835291602001916117cb565b820191906000526020600020905b8154815290600101906020018083116117ae57829003601f168201915b50509250505060405180910390a26002600060016000876000191660001916815260200190815260200160002060010160009054906101000a900473ffffffffffffffffffffffffffffffffffffffff1673ffffffffffffffffffffffffffffffffffffffff1673ffffffffffffffffffffffffffffffffffffffff168152602001908152602001600020600061186291906137fc565b5b6001806000866000191660001916815260200190815260200160002060010160146101000a81548160ff0219169083151502179055503373ffffffffffffffffffffffffffffffffffffffff1684600019167fef1961b4d2909dc23643b309bfe5c3e5646842d98c3a58517037ef3871185af360405160405180910390a3600192505050919050565b60008360016000826000191660001916815260200190815260200160002060010160149054906101000a900460ff161580156119935750600073ffffffffffffffffffffffffffffffffffffffff1660016000836000191660001916815260200190815260200160002060000160009054906101000a900473ffffffffffffffffffffffffffffffffffffffff1673ffffffffffffffffffffffffffffffffffffffff1614155b151561199e57600080fd5b600160008660001916600019168152602001908152602001600020600201848460405180838380828437820191505092505050908152602001604051809103902054600190049150509392505050565b60008060009054906101000a900473ffffffffffffffffffffffffffffffffffffffff1673ffffffffffffffffffffffffffffffffffffffff163373ffffffffffffffffffffffffffffffffffffffff16141515611a4b57600080fd5b816003819055507f6bbc57480a46553fa4d156ce702beef5f3ad66303b0ed1a5d4cb44966c6584c3826040518082815260200191505060405180910390a160019050919050565b6000801515600460009054906101000a900460ff161515141515611ab557600080fd5b8260016000826000191660001916815260200190815260200160002060010160149054906101000a900460ff16158015611b5a5750600073ffffffffffffffffffffffffffffffffffffffff1660016000836000191660001916815260200190815260200160002060000160009054906101000a900473ffffffffffffffffffffffffffffffffffffffff1673ffffffffffffffffffffffffffffffffffffffff1614155b1515611b6557600080fd5b833373ffffffffffffffffffffffffffffffffffffffff1660016000836000191660001916815260200190815260200160002060000160009054906101000a900473ffffffffffffffffffffffffffffffffffffffff1673ffffffffffffffffffffffffffffffffffffffff16141515611bde57600080fd5b8360016000876000191660001916815260200190815260200160002060000160006101000a81548173ffffffffffffffffffffffffffffffffffffffff021916908373ffffffffffffffffffffffffffffffffffffffff1602179055508373ffffffffffffffffffffffffffffffffffffffff163373ffffffffffffffffffffffffffffffffffffffff1686600019167f7b97c62130aa09acbbcbf7482630e756592496f1759eaf702f469cf64dfb779460405160405180910390a460019250505092915050565b600060011515600460009054906101000a900460ff161515141515611cca57600080fd5b6000809054906101000a900473ffffffffffffffffffffffffffffffffffffffff1673ffffffffffffffffffffffffffffffffffffffff163373ffffffffffffffffffffffffffffffffffffffff16141515611d2557600080fd5b6000600460006101000a81548160ff0219169083151502179055507f338b37ab0b8b26877470a0b22f4112cd7d7cc61e7d0f6de9fd1131e5bbf7ef0460405160405180910390a16001905090565b6000809054906101000a900473ffffffffffffffffffffffffffffffffffffffff1681565b60008360016000826000191660001916815260200190815260200160002060010160149054906101000a900460ff16158015611e3f5750600073ffffffffffffffffffffffffffffffffffffffff1660016000836000191660001916815260200190815260200160002060000160009054906101000a900473ffffffffffffffffffffffffffffffffffffffff1673ffffffffffffffffffffffffffffffffffffffff1614155b1515611e4a57600080fd5b6001600086600019166000191681526020019081526020016000206002018484604051808383808284378201915050925050509081526020016040518091039020549150509392505050565b60008160016000826000191660001916815260200190815260200160002060010160149054906101000a900460ff16158015611f3d5750600073ffffffffffffffffffffffffffffffffffffffff1660016000836000191660001916815260200190815260200160002060000160009054906101000a900473ffffffffffffffffffffffffffffffffffffffff1673ffffffffffffffffffffffffffffffffffffffff1614155b1515611f4857600080fd5b600060016000856000191660001916815260200190815260200160002060000160009054906101000a900473ffffffffffffffffffffffffffffffffffffffff1673ffffffffffffffffffffffffffffffffffffffff161415915050919050565b60008060009054906101000a900473ffffffffffffffffffffffffffffffffffffffff1673ffffffffffffffffffffffffffffffffffffffff163373ffffffffffffffffffffffffffffffffffffffff1614151561200657600080fd5b7fdef931299fe61d176f949118058530c1f3f539dcb6950b4e372c9b835c33ca073073ffffffffffffffffffffffffffffffffffffffff16316040518082815260200191505060405180910390a13373ffffffffffffffffffffffffffffffffffffffff166108fc3073ffffffffffffffffffffffffffffffffffffffff16319081150290604051600060405180830381858888f193505050501580156120b1573d6000803e3d6000fd5b506001905090565b60008060001515600460009054906101000a900460ff1615151415156120de57600080fd5b84848080601f01602080910402602001604051908101604052809392919081815260200183838082843782019150505050505060016000826040518082805190602001908083835b60208310151561214b5780518252602082019150602081019050602083039250612126565b6001836020036101000a03801982511681845116808217855250505050505090500191505060405180910390206000191660001916815260200190815260200160002060010160149054906101000a900460ff161580156122795750600073ffffffffffffffffffffffffffffffffffffffff1660016000836040518082805190602001908083835b6020831015156121f957805182526020820191506020810190506020830392506121d4565b6001836020036101000a03801982511681845116808217855250505050505090500191505060405180910390206000191660001916815260200190815260200160002060000160009054906101000a900473ffffffffffffffffffffffffffffffffffffffff1673ffffffffffffffffffffffffffffffffffffffff1614155b151561228457600080fd5b85856040518083838082843782019150509250505060405180910390203373ffffffffffffffffffffffffffffffffffffffff1660016000836000191660001916815260200190815260200160002060000160009054906101000a900473ffffffffffffffffffffffffffffffffffffffff1673ffffffffffffffffffffffffffffffffffffffff1614151561231957600080fd5b86866040518083838082843782019150509250505060405180910390209250600060016000856000191660001916815260200190815260200160002060010160009054906101000a900473ffffffffffffffffffffffffffffffffffffffff1673ffffffffffffffffffffffffffffffffffffffff1614158015612488575082600019166002600060016000876000191660001916815260200190815260200160002060010160009054906101000a900473ffffffffffffffffffffffffffffffffffffffff1673ffffffffffffffffffffffffffffffffffffffff1673ffffffffffffffffffffffffffffffffffffffff16815260200190815260200160002060405180828054600181600116156101000203166002900480156124755780601f10612453576101008083540402835291820191612475565b820191906000526020600020905b815481529060010190602001808311612461575b5050915050604051809103902060001916145b156125bd576002600060016000866000191660001916815260200190815260200160002060010160009054906101000a900473ffffffffffffffffffffffffffffffffffffffff1673ffffffffffffffffffffffffffffffffffffffff1673ffffffffffffffffffffffffffffffffffffffff168152602001908152602001600020600061251691906137fc565b60016000846000191660001916815260200190815260200160002060010160009054906101000a900473ffffffffffffffffffffffffffffffffffffffff1673ffffffffffffffffffffffffffffffffffffffff167f12491ad95fd945e444d88a894ffad3c21959880a4dcd8af99d4ae4ffc71d4abd8888604051808060200182810382528484828181526020019250808284378201915050935050505060405180910390a25b8460016000856000191660001916815260200190815260200160002060010160006101000a81548173ffffffffffffffffffffffffffffffffffffffff021916908373ffffffffffffffffffffffffffffffffffffffff1602179055508473ffffffffffffffffffffffffffffffffffffffff167f728435a0031f6a04538fcdd24922a7e06bc7bc945db03e83d22122d1bc5f28df8888604051808060200182810382528484828181526020019250808284378201915050935050505060405180910390a2600193505050509392505050565b60008160016000826000191660001916815260200190815260200160002060010160149054906101000a900460ff161580156127375750600073ffffffffffffffffffffffffffffffffffffffff1660016000836000191660001916815260200190815260200160002060000160009054906101000a900473ffffffffffffffffffffffffffffffffffffffff1673ffffffffffffffffffffffffffffffffffffffff1614155b151561274257600080fd5b600060016000856000191660001916815260200190815260200160002060010160009054906101000a900473ffffffffffffffffffffffffffffffffffffffff1673ffffffffffffffffffffffffffffffffffffffff161415915050919050565b60008360016000826000191660001916815260200190815260200160002060010160149054906101000a900460ff1615801561284a5750600073ffffffffffffffffffffffffffffffffffffffff1660016000836000191660001916815260200190815260200160002060000160009054906101000a900473ffffffffffffffffffffffffffffffffffffffff1673ffffffffffffffffffffffffffffffffffffffff1614155b151561285557600080fd5b600160008660001916600019168152602001908152602001600020600201848460405180838380828437820191505092505050908152602001604051809103902054600190049150509392505050565b600460009054906101000a900460ff1681565b60035481565b60008160016000826000191660001916815260200190815260200160002060010160149054906101000a900460ff161580156129655750600073ffffffffffffffffffffffffffffffffffffffff1660016000836000191660001916815260200190815260200160002060000160009054906101000a900473ffffffffffffffffffffffffffffffffffffffff1673ffffffffffffffffffffffffffffffffffffffff1614155b151561297057600080fd5b60016000846000191660001916815260200190815260200160002060000160009054906101000a900473ffffffffffffffffffffffffffffffffffffffff16915050919050565b60008160016000826000191660001916815260200190815260200160002060010160149054906101000a900460ff16158015612a5e5750600073ffffffffffffffffffffffffffffffffffffffff1660016000836000191660001916815260200190815260200160002060000160009054906101000a900473ffffffffffffffffffffffffffffffffffffffff1673ffffffffffffffffffffffffffffffffffffffff1614155b1515612a6957600080fd5b60016000846000191660001916815260200190815260200160002060010160009054906101000a900473ffffffffffffffffffffffffffffffffffffffff16915050919050565b6060600260008373ffffffffffffffffffffffffffffffffffffffff1673ffffffffffffffffffffffffffffffffffffffff1681526020019081526020016000208054600181600116156101000203166002900480601f016020809104026020016040519081016040528092919081815260200182805460018160011615610100020316600290048015612b855780601f10612b5a57610100808354040283529160200191612b85565b820191906000526020600020905b815481529060010190602001808311612b6857829003601f168201915b50505050509050919050565b6000801515600460009054906101000a900460ff161515141515612bb457600080fd5b8460016000826000191660001916815260200190815260200160002060010160149054906101000a900460ff16158015612c595750600073ffffffffffffffffffffffffffffffffffffffff1660016000836000191660001916815260200190815260200160002060000160009054906101000a900473ffffffffffffffffffffffffffffffffffffffff1673ffffffffffffffffffffffffffffffffffffffff1614155b1515612c6457600080fd5b853373ffffffffffffffffffffffffffffffffffffffff1660016000836000191660001916815260200190815260200160002060000160009054906101000a900473ffffffffffffffffffffffffffffffffffffffff1673ffffffffffffffffffffffffffffffffffffffff16141515612cdd57600080fd5b836001026001600089600019166000191681526020019081526020016000206002018787604051808383808284378201915050925050509081526020016040518091039020816000191690555086600019167fb829c3e412537bbe794c048ccb9e4605bb4aaaa8e4d4c15c1a6e0c2adc1716ea878789896040518080602001806020018381038352878782818152602001925080828437820191505083810382528585828181526020019250808284378201915050965050505050505060405180910390a2600192505050949350505050565b6000801515600460009054906101000a900460ff161515141515612dd357600080fd5b83838080601f01602080910402602001604051908101604052809392919081815260200183838082843782019150505050505060016000826040518082805190602001908083835b602083101515612e405780518252602082019150602081019050602083039250612e1b565b6001836020036101000a03801982511681845116808217855250505050505090500191505060405180910390206000191660001916815260200190815260200160002060010160149054906101000a900460ff16158015612f6e5750600073ffffffffffffffffffffffffffffffffffffffff1660016000836040518082805190602001908083835b602083101515612eee5780518252602082019150602081019050602083039250612ec9565b6001836020036101000a03801982511681845116808217855250505050505090500191505060405180910390206000191660001916815260200190815260200160002060000160009054906101000a900473ffffffffffffffffffffffffffffffffffffffff1673ffffffffffffffffffffffffffffffffffffffff1614155b1515612f7957600080fd5b6000809054906101000a900473ffffffffffffffffffffffffffffffffffffffff1673ffffffffffffffffffffffffffffffffffffffff163373ffffffffffffffffffffffffffffffffffffffff16141515612fd457600080fd5b8484600260008673ffffffffffffffffffffffffffffffffffffffff1673ffffffffffffffffffffffffffffffffffffffff168152602001908152602001600020919061302292919061377c565b508273ffffffffffffffffffffffffffffffffffffffff167f098ae8581bb8bd9af1beaf7f2e9f51f31a8e5a8bfada4e303a645d71d9c919208686604051808060200182810382528484828181526020019250808284378201915050935050505060405180910390a260019150509392505050565b60001515600460009054906101000a900460ff1615151415156130b957600080fd5b600260003373ffffffffffffffffffffffffffffffffffffffff1673ffffffffffffffffffffffffffffffffffffffff1681526020019081526020016000208054600181600116156101000203166002900480601f01602080910402602001604051908101604052809291908181526020018280546001816001161561010002031660029004801561318c5780601f106131615761010080835404028352916020019161318c565b820191906000526020600020905b81548152906001019060200180831161316f57829003601f168201915b505050505060016000826040518082805190602001908083835b6020831015156131cb57805182526020820191506020810190506020830392506131a6565b6001836020036101000a03801982511681845116808217855250505050505090500191505060405180910390206000191660001916815260200190815260200160002060010160149054906101000a900460ff161580156132f95750600073ffffffffffffffffffffffffffffffffffffffff1660016000836040518082805190602001908083835b6020831015156132795780518252602082019150602081019050602083039250613254565b6001836020036101000a03801982511681845116808217855250505050505090500191505060405180910390206000191660001916815260200190815260200160002060000160009054906101000a900473ffffffffffffffffffffffffffffffffffffffff1673ffffffffffffffffffffffffffffffffffffffff1614155b151561330457600080fd5b3373ffffffffffffffffffffffffffffffffffffffff167f12491ad95fd945e444d88a894ffad3c21959880a4dcd8af99d4ae4ffc71d4abd600260003373ffffffffffffffffffffffffffffffffffffffff1673ffffffffffffffffffffffffffffffffffffffff16815260200190815260200160002060405180806020018281038252838181546001816001161561010002031660029004815260200191508054600181600116156101000203166002900480156134045780601f106133d957610100808354040283529160200191613404565b820191906000526020600020905b8154815290600101906020018083116133e757829003601f168201915b50509250505060405180910390a260016000600260003373ffffffffffffffffffffffffffffffffffffffff1673ffffffffffffffffffffffffffffffffffffffff16815260200190815260200160002060405180828054600181600116156101000203166002900480156134b05780601f1061348e5761010080835404028352918201916134b0565b820191906000526020600020905b81548152906001019060200180831161349c575b505091505060405180910390206000191660001916815260200190815260200160002060010160006101000a81549073ffffffffffffffffffffffffffffffffffffffff0219169055600260003373ffffffffffffffffffffffffffffffffffffffff1673ffffffffffffffffffffffffffffffffffffffff168152602001908152602001600020600061354491906137fc565b50565b6000801515600460009054906101000a900460ff16151514151561356a57600080fd5b8460016000826000191660001916815260200190815260200160002060010160149054906101000a900460ff1615801561360f5750600073ffffffffffffffffffffffffffffffffffffffff1660016000836000191660001916815260200190815260200160002060000160009054906101000a900473ffffffffffffffffffffffffffffffffffffffff1673ffffffffffffffffffffffffffffffffffffffff1614155b151561361a57600080fd5b853373ffffffffffffffffffffffffffffffffffffffff1660016000836000191660001916815260200190815260200160002060000160009054906101000a900473ffffffffffffffffffffffffffffffffffffffff1673ffffffffffffffffffffffffffffffffffffffff1614151561369357600080fd5b8373ffffffffffffffffffffffffffffffffffffffff166001026001600089600019166000191681526020019081526020016000206002018787604051808383808284378201915050925050509081526020016040518091039020816000191690555086600019167fb829c3e412537bbe794c048ccb9e4605bb4aaaa8e4d4c15c1a6e0c2adc1716ea878789896040518080602001806020018381038352878782818152602001925080828437820191505083810382528585828181526020019250808284378201915050965050505050505060405180910390a2600192505050949350505050565b828054600181600116156101000203166002900490600052602060002090601f016020900481019282601f106137bd57803560ff19168380011785556137eb565b828001600101855582156137eb579182015b828111156137ea5782358255916020019190600101906137cf565b5b5090506137f89190613844565b5090565b50805460018160011615610100020316600290046000825580601f106138225750613841565b601f0160209004906000526020600020908101906138409190613844565b5b50565b61386691905b8082111561386257600081600090555060010161384a565b5090565b905600a165627a7a7230582015de12db797f9dcbcbd804de43e686a2198ae474f42284f8cbe69aeb9d2a70f00029",
  "source": "//! The simple registry contract.\n//!\n//! Copyright 2016 Gavin Wood, Parity Technologies Ltd.\n//!\n//! Licensed under the Apache License, Version 2.0 (the \"License\");\n//! you may not use this file except in compliance with the License.\n//! You may obtain a copy of the License at\n//!\n//!     http://www.apache.org/licenses/LICENSE-2.0\n//!\n//! Unless required by applicable law or agreed to in writing, software\n//! distributed under the License is distributed on an \"AS IS\" BASIS,\n//! WITHOUT WARRANTIES OR CONDITIONS OF ANY KIND, either express or implied.\n//! See the License for the specific language governing permissions and\n//! limitations under the License.\n\npragma solidity ^0.4.24;\n\nimport \"./Owned.sol\";\nimport \"./Registry.sol\";\n\n\ncontract BellecourRegistry is Owned, MetadataRegistry, OwnerRegistry, ReverseRegistry {\n\tstruct Entry {\n\t\taddress owner;\n\t\taddress reverse;\n\t\tbool deleted;\n\t\tmapping (string => bytes32) data;\n\t}\n\n\tevent Drained(uint amount);\n\tevent FeeChanged(uint amount);\n\tevent ReverseProposed(string name, address indexed reverse);\n\n\tevent LockRegistry();\n\tevent UnlockRegistry();\n\n\tmapping (bytes32 => Entry) entries;\n\tmapping (address => string) reverses;\n\n\tuint public fee = 1 ether;\n\n\tbool public locked = true;\n\n\tmodifier whenUnreserved(bytes32 _name) {\n\t\trequire(!entries[_name].deleted && entries[_name].owner == 0);\n\t\t_;\n\t}\n\n\tmodifier onlyOwnerOf(bytes32 _name) {\n\t\trequire(entries[_name].owner == msg.sender);\n\t\t_;\n\t}\n\n\tmodifier onlyUnlocked() {\n\t\trequire(locked == false);\n\t\t_;\n\t}\n\n\tmodifier onlyLocked() {\n\t\trequire(locked == true);\n\t\t_;\n\t}\n\n\tmodifier whenProposed(string _name) {\n\t\trequire(entries[keccak256(bytes(_name))].reverse == msg.sender);\n\t\t_;\n\t}\n\n\tmodifier whenEntry(string _name) {\n\t\trequire(\n\t\t\t!entries[keccak256(bytes(_name))].deleted &&\n\t\t\tentries[keccak256(bytes(_name))].owner != address(0)\n\t\t);\n\t\t_;\n\t}\n\n\tmodifier whenEntryRaw(bytes32 _name) {\n\t\trequire(\n\t\t\t!entries[_name].deleted &&\n\t\t\tentries[_name].owner != address(0)\n\t\t);\n\t\t_;\n\t}\n\n\tmodifier whenFeePaid {\n\t\trequire(msg.value >= fee);\n\t\t_;\n\t}\n\n\t// Reservation functions\n\tfunction reserve(bytes32 _name)\n\t\texternal\n\t\tpayable\n\t\tonlyUnlocked\n\t\twhenUnreserved(_name)\n\t\twhenFeePaid\n\t\treturns (bool success)\n\t{\n\t\tentries[_name].owner = msg.sender;\n\t\temit Reserved(_name, msg.sender);\n\t\treturn true;\n\t}\n\n\tfunction transfer(bytes32 _name, address _to)\n\t\texternal\n\t\tonlyUnlocked\n\t\twhenEntryRaw(_name)\n\t\tonlyOwnerOf(_name)\n\t\treturns (bool success)\n\t{\n\t\tentries[_name].owner = _to;\n\t\temit Transferred(_name, msg.sender, _to);\n\t\treturn true;\n\t}\n\n\tfunction drop(bytes32 _name)\n\t\texternal\n\t\tonlyUnlocked\n\t\twhenEntryRaw(_name)\n\t\tonlyOwnerOf(_name)\n\t\treturns (bool success)\n\t{\n\t\tif (keccak256(bytes(reverses[entries[_name].reverse])) == _name) {\n\t\t\temit ReverseRemoved(reverses[entries[_name].reverse], entries[_name].reverse);\n\t\t\tdelete reverses[entries[_name].reverse];\n\t\t}\n\t\tentries[_name].deleted = true;\n\t\temit Dropped(_name, msg.sender);\n\t\treturn true;\n\t}\n\n\t// Data admin functions\n\tfunction setData(bytes32 _name, string _key, bytes32 _value)\n\t\texternal\n\t\tonlyUnlocked\n\t\twhenEntryRaw(_name)\n\t\tonlyOwnerOf(_name)\n\t\treturns (bool success)\n\t{\n\t\tentries[_name].data[_key] = _value;\n\t\temit DataChanged(_name, _key, _key);\n\t\treturn true;\n\t}\n\n\tfunction setAddress(bytes32 _name, string _key, address _value)\n\t\texternal\n\t\tonlyUnlocked\n\t\twhenEntryRaw(_name)\n\t\tonlyOwnerOf(_name)\n\t\treturns (bool success)\n\t{\n\t\tentries[_name].data[_key] = bytes32(_value);\n\t\temit DataChanged(_name, _key, _key);\n\t\treturn true;\n\t}\n\n\tfunction setUint(bytes32 _name, string _key, uint _value)\n\t\texternal\n\t\tonlyUnlocked\n\t\twhenEntryRaw(_name)\n\t\tonlyOwnerOf(_name)\n\t\treturns (bool success)\n\t{\n\t\tentries[_name].data[_key] = bytes32(_value);\n\t\temit DataChanged(_name, _key, _key);\n\t\treturn true;\n\t}\n\n\t// Reverse registration functions\n\tfunction proposeReverse(string _name, address _who)\n\t\texternal\n\t\tonlyUnlocked\n\t\twhenEntry(_name)\n\t\tonlyOwnerOf(keccak256(bytes(_name)))\n\t\treturns (bool success)\n\t{\n\t\tbytes32 sha3Name = keccak256(bytes(_name));\n\t\tif (entries[sha3Name].reverse != 0 && keccak256(bytes(reverses[entries[sha3Name].reverse])) == sha3Name) {\n\t\t\tdelete reverses[entries[sha3Name].reverse];\n\t\t\temit ReverseRemoved(_name, entries[sha3Name].reverse);\n\t\t}\n\t\tentries[sha3Name].reverse = _who;\n\t\temit ReverseProposed(_name, _who);\n\t\treturn true;\n\t}\n\n\tfunction confirmReverse(string _name)\n\t\texternal\n\t\tonlyUnlocked\n\t\twhenEntry(_name)\n\t\twhenProposed(_name)\n\t\treturns (bool success)\n\t{\n\t\treverses[msg.sender] = _name;\n\t\temit ReverseConfirmed(_name, msg.sender);\n\t\treturn true;\n\t}\n\n\tfunction confirmReverseAs(string _name, address _who)\n\t\texternal\n\t\tonlyUnlocked\n\t\twhenEntry(_name)\n\t\tonlyOwner\n\t\treturns (bool success)\n\t{\n\t\treverses[_who] = _name;\n\t\temit ReverseConfirmed(_name, _who);\n\t\treturn true;\n\t}\n\n\tfunction removeReverse()\n\t\texternal\n\t\tonlyUnlocked\n\t\twhenEntry(reverses[msg.sender])\n\t{\n\t\temit ReverseRemoved(reverses[msg.sender], msg.sender);\n\t\tdelete entries[keccak256(bytes(reverses[msg.sender]))].reverse;\n\t\tdelete reverses[msg.sender];\n\t}\n\n\t// Admin functions for the owner\n\tfunction setFee(uint _amount)\n\t\texternal\n\t\tonlyOwner\n\t\treturns (bool)\n\t{\n\t\tfee = _amount;\n\t\temit FeeChanged(_amount);\n\t\treturn true;\n\t}\n\n\tfunction lockRegistry()\n\t\texternal\n\t\tonlyUnlocked\n\t\tonlyOwner\n\t\treturns (bool)\n\t{\n\t\tlocked = true;\n\t\temit LockRegistry();\n\t\treturn true;\n\t}\n\n\tfunction unlockRegistry()\n\t\texternal\n\t\tonlyLocked\n\t\tonlyOwner\n\t\treturns (bool)\n\t{\n\t\tlocked = false;\n\t\temit UnlockRegistry();\n\t\treturn true;\n\t}\n\t\n\tfunction drain()\n\t\texternal\n\t\tonlyOwner\n\t\treturns (bool)\n\t{\n\t\temit Drained(address(this).balance);\n\t\tmsg.sender.transfer(address(this).balance);\n\t\treturn true;\n\t}\n\n\t// MetadataRegistry views\n\tfunction getData(bytes32 _name, string _key)\n\t\texternal\n\t\tview\n\t\twhenEntryRaw(_name)\n\t\treturns (bytes32)\n\t{\n\t\treturn entries[_name].data[_key];\n\t}\n\n\tfunction getAddress(bytes32 _name, string _key)\n\t\texternal\n\t\tview\n\t\twhenEntryRaw(_name)\n\t\treturns (address)\n\t{\n\t\treturn address(entries[_name].data[_key]);\n\t}\n\n\tfunction getUint(bytes32 _name, string _key)\n\t\texternal\n\t\tview\n\t\twhenEntryRaw(_name)\n\t\treturns (uint)\n\t{\n\t\treturn uint(entries[_name].data[_key]);\n\t}\n\n\t// OwnerRegistry views\n\tfunction getOwner(bytes32 _name)\n\t\texternal\n\t\tview\n\t\twhenEntryRaw(_name)\n\t\treturns (address)\n\t{\n\t\treturn entries[_name].owner;\n\t}\n\n\t// ReversibleRegistry views\n\tfunction hasReverse(bytes32 _name)\n\t\texternal\n\t\tview\n\t\twhenEntryRaw(_name)\n\t\treturns (bool)\n\t{\n\t\treturn entries[_name].reverse != 0;\n\t}\n\n\tfunction getReverse(bytes32 _name)\n\t\texternal\n\t\tview\n\t\twhenEntryRaw(_name)\n\t\treturns (address)\n\t{\n\t\treturn entries[_name].reverse;\n\t}\n\n\tfunction canReverse(address _data)\n\t\texternal\n\t\tview\n\t\treturns (bool)\n\t{\n\t\treturn bytes(reverses[_data]).length != 0;\n\t}\n\n\tfunction reverse(address _data)\n\t\texternal\n\t\tview\n\t\treturns (string)\n\t{\n\t\treturn reverses[_data];\n\t}\n\n\tfunction reserved(bytes32 _name)\n\t\texternal\n\t\tview\n\t\twhenEntryRaw(_name)\n\t\treturns (bool)\n\t{\n\t\treturn entries[_name].owner != 0;\n\t}\n}\n",
  "sourcePath": "/home/ubuntu/name-registry/contracts/BellecourRegistry.sol",
  "compiler": {
    "name": "solc",
    "version": "0.4.26+commit.4563c3fc.Emscripten.clang"
  },
  "schemaVersion": "2.0.3",
  "updatedAt": "2019-09-26T14:48:56.455Z"
}