{
  "contractName": "SimpleRegistry",
  "abi": [
    {
      "constant": false,
      "inputs": [
        {
          "name": "_new",
          "type": "address"
        }
      ],
      "name": "setOwner",
      "outputs": [],
      "payable": false,
      "stateMutability": "nonpayable",
      "type": "function"
    },
    {
      "constant": true,
      "inputs": [],
      "name": "owner",
      "outputs": [
        {
          "name": "",
          "type": "address"
        }
      ],
      "payable": false,
      "stateMutability": "view",
      "type": "function"
    },
    {
      "constant": true,
      "inputs": [],
      "name": "fee",
      "outputs": [
        {
          "name": "",
          "type": "uint256"
        }
      ],
      "payable": false,
      "stateMutability": "view",
      "type": "function"
    },
    {
      "anonymous": false,
      "inputs": [
        {
          "indexed": false,
          "name": "amount",
          "type": "uint256"
        }
      ],
      "name": "Drained",
      "type": "event"
    },
    {
      "anonymous": false,
      "inputs": [
        {
          "indexed": false,
          "name": "amount",
          "type": "uint256"
        }
      ],
      "name": "FeeChanged",
      "type": "event"
    },
    {
      "anonymous": false,
      "inputs": [
        {
          "indexed": false,
          "name": "name",
          "type": "string"
        },
        {
          "indexed": true,
          "name": "reverse",
          "type": "address"
        }
      ],
      "name": "ReverseProposed",
      "type": "event"
    },
    {
      "anonymous": false,
      "inputs": [
        {
          "indexed": false,
          "name": "name",
          "type": "string"
        },
        {
          "indexed": true,
          "name": "reverse",
          "type": "address"
        }
      ],
      "name": "ReverseConfirmed",
      "type": "event"
    },
    {
      "anonymous": false,
      "inputs": [
        {
          "indexed": false,
          "name": "name",
          "type": "string"
        },
        {
          "indexed": true,
          "name": "reverse",
          "type": "address"
        }
      ],
      "name": "ReverseRemoved",
      "type": "event"
    },
    {
      "anonymous": false,
      "inputs": [
        {
          "indexed": true,
          "name": "name",
          "type": "bytes32"
        },
        {
          "indexed": true,
          "name": "owner",
          "type": "address"
        }
      ],
      "name": "Reserved",
      "type": "event"
    },
    {
      "anonymous": false,
      "inputs": [
        {
          "indexed": true,
          "name": "name",
          "type": "bytes32"
        },
        {
          "indexed": true,
          "name": "oldOwner",
          "type": "address"
        },
        {
          "indexed": true,
          "name": "newOwner",
          "type": "address"
        }
      ],
      "name": "Transferred",
      "type": "event"
    },
    {
      "anonymous": false,
      "inputs": [
        {
          "indexed": true,
          "name": "name",
          "type": "bytes32"
        },
        {
          "indexed": true,
          "name": "owner",
          "type": "address"
        }
      ],
      "name": "Dropped",
      "type": "event"
    },
    {
      "anonymous": false,
      "inputs": [
        {
          "indexed": true,
          "name": "name",
          "type": "bytes32"
        },
        {
          "indexed": false,
          "name": "key",
          "type": "string"
        },
        {
          "indexed": false,
          "name": "plainKey",
          "type": "string"
        }
      ],
      "name": "DataChanged",
      "type": "event"
    },
    {
      "anonymous": false,
      "inputs": [
        {
          "indexed": true,
          "name": "old",
          "type": "address"
        },
        {
          "indexed": true,
          "name": "current",
          "type": "address"
        }
      ],
      "name": "NewOwner",
      "type": "event"
    },
    {
      "constant": false,
      "inputs": [
        {
          "name": "_name",
          "type": "bytes32"
        }
      ],
      "name": "reserve",
      "outputs": [
        {
          "name": "success",
          "type": "bool"
        }
      ],
      "payable": true,
      "stateMutability": "payable",
      "type": "function"
    },
    {
      "constant": false,
      "inputs": [
        {
          "name": "_name",
          "type": "bytes32"
        },
        {
          "name": "_to",
          "type": "address"
        }
      ],
      "name": "transfer",
      "outputs": [
        {
          "name": "success",
          "type": "bool"
        }
      ],
      "payable": false,
      "stateMutability": "nonpayable",
      "type": "function"
    },
    {
      "constant": false,
      "inputs": [
        {
          "name": "_name",
          "type": "bytes32"
        }
      ],
      "name": "drop",
      "outputs": [
        {
          "name": "success",
          "type": "bool"
        }
      ],
      "payable": false,
      "stateMutability": "nonpayable",
      "type": "function"
    },
    {
      "constant": false,
      "inputs": [
        {
          "name": "_name",
          "type": "bytes32"
        },
        {
          "name": "_key",
          "type": "string"
        },
        {
          "name": "_value",
          "type": "bytes32"
        }
      ],
      "name": "setData",
      "outputs": [
        {
          "name": "success",
          "type": "bool"
        }
      ],
      "payable": false,
      "stateMutability": "nonpayable",
      "type": "function"
    },
    {
      "constant": false,
      "inputs": [
        {
          "name": "_name",
          "type": "bytes32"
        },
        {
          "name": "_key",
          "type": "string"
        },
        {
          "name": "_value",
          "type": "address"
        }
      ],
      "name": "setAddress",
      "outputs": [
        {
          "name": "success",
          "type": "bool"
        }
      ],
      "payable": false,
      "stateMutability": "nonpayable",
      "type": "function"
    },
    {
      "constant": false,
      "inputs": [
        {
          "name": "_name",
          "type": "bytes32"
        },
        {
          "name": "_key",
          "type": "string"
        },
        {
          "name": "_value",
          "type": "uint256"
        }
      ],
      "name": "setUint",
      "outputs": [
        {
          "name": "success",
          "type": "bool"
        }
      ],
      "payable": false,
      "stateMutability": "nonpayable",
      "type": "function"
    },
    {
      "constant": false,
      "inputs": [
        {
          "name": "_name",
          "type": "string"
        },
        {
          "name": "_who",
          "type": "address"
        }
      ],
      "name": "proposeReverse",
      "outputs": [
        {
          "name": "success",
          "type": "bool"
        }
      ],
      "payable": false,
      "stateMutability": "nonpayable",
      "type": "function"
    },
    {
      "constant": false,
      "inputs": [
        {
          "name": "_name",
          "type": "string"
        }
      ],
      "name": "confirmReverse",
      "outputs": [
        {
          "name": "success",
          "type": "bool"
        }
      ],
      "payable": false,
      "stateMutability": "nonpayable",
      "type": "function"
    },
    {
      "constant": false,
      "inputs": [
        {
          "name": "_name",
          "type": "string"
        },
        {
          "name": "_who",
          "type": "address"
        }
      ],
      "name": "confirmReverseAs",
      "outputs": [
        {
          "name": "success",
          "type": "bool"
        }
      ],
      "payable": false,
      "stateMutability": "nonpayable",
      "type": "function"
    },
    {
      "constant": false,
      "inputs": [],
      "name": "removeReverse",
      "outputs": [],
      "payable": false,
      "stateMutability": "nonpayable",
      "type": "function"
    },
    {
      "constant": false,
      "inputs": [
        {
          "name": "_amount",
          "type": "uint256"
        }
      ],
      "name": "setFee",
      "outputs": [
        {
          "name": "",
          "type": "bool"
        }
      ],
      "payable": false,
      "stateMutability": "nonpayable",
      "type": "function"
    },
    {
      "constant": false,
      "inputs": [],
      "name": "drain",
      "outputs": [
        {
          "name": "",
          "type": "bool"
        }
      ],
      "payable": false,
      "stateMutability": "nonpayable",
      "type": "function"
    },
    {
      "constant": true,
      "inputs": [
        {
          "name": "_name",
          "type": "bytes32"
        },
        {
          "name": "_key",
          "type": "string"
        }
      ],
      "name": "getData",
      "outputs": [
        {
          "name": "",
          "type": "bytes32"
        }
      ],
      "payable": false,
      "stateMutability": "view",
      "type": "function"
    },
    {
      "constant": true,
      "inputs": [
        {
          "name": "_name",
          "type": "bytes32"
        },
        {
          "name": "_key",
          "type": "string"
        }
      ],
      "name": "getAddress",
      "outputs": [
        {
          "name": "",
          "type": "address"
        }
      ],
      "payable": false,
      "stateMutability": "view",
      "type": "function"
    },
    {
      "constant": true,
      "inputs": [
        {
          "name": "_name",
          "type": "bytes32"
        },
        {
          "name": "_key",
          "type": "string"
        }
      ],
      "name": "getUint",
      "outputs": [
        {
          "name": "",
          "type": "uint256"
        }
      ],
      "payable": false,
      "stateMutability": "view",
      "type": "function"
    },
    {
      "constant": true,
      "inputs": [
        {
          "name": "_name",
          "type": "bytes32"
        }
      ],
      "name": "getOwner",
      "outputs": [
        {
          "name": "",
          "type": "address"
        }
      ],
      "payable": false,
      "stateMutability": "view",
      "type": "function"
    },
    {
      "constant": true,
      "inputs": [
        {
          "name": "_name",
          "type": "bytes32"
        }
      ],
      "name": "hasReverse",
      "outputs": [
        {
          "name": "",
          "type": "bool"
        }
      ],
      "payable": false,
      "stateMutability": "view",
      "type": "function"
    },
    {
      "constant": true,
      "inputs": [
        {
          "name": "_name",
          "type": "bytes32"
        }
      ],
      "name": "getReverse",
      "outputs": [
        {
          "name": "",
          "type": "address"
        }
      ],
      "payable": false,
      "stateMutability": "view",
      "type": "function"
    },
    {
      "constant": true,
      "inputs": [
        {
          "name": "_data",
          "type": "address"
        }
      ],
      "name": "canReverse",
      "outputs": [
        {
          "name": "",
          "type": "bool"
        }
      ],
      "payable": false,
      "stateMutability": "view",
      "type": "function"
    },
    {
      "constant": true,
      "inputs": [
        {
          "name": "_data",
          "type": "address"
        }
      ],
      "name": "reverse",
      "outputs": [
        {
          "name": "",
          "type": "string"
        }
      ],
      "payable": false,
      "stateMutability": "view",
      "type": "function"
    },
    {
      "constant": true,
      "inputs": [
        {
          "name": "_name",
          "type": "bytes32"
        }
      ],
      "name": "reserved",
      "outputs": [
        {
          "name": "",
          "type": "bool"
        }
      ],
      "payable": false,
      "stateMutability": "view",
      "type": "function"
    }
  ],
  "bytecode": "0x6080604052336000806101000a81548173ffffffffffffffffffffffffffffffffffffffff021916908373ffffffffffffffffffffffffffffffffffffffff160217905550670de0b6b3a764000060035534801561005c57600080fd5b506134ef8061006c6000396000f30060806040526004361061013e576000357c0100000000000000000000000000000000000000000000000000000000900463ffffffff16806306b2ff471461014357806313af40351461019e57806319362a28146101e15780633f3935d114610250578063432ced04146102a35780634f39ca59146102df5780636795dbcd1461032857806369fe0e2d146103b157806379ce9fac146103f65780638da5cb5b1461045f57806390b97fc1146104b6578063926988141461051b5780639890220b14610564578063ac4e73f914610593578063ac72c12014610606578063c3a358251461064f578063ddca3f43146106ac578063deb931a2146106d7578063df57b74214610748578063e30bd740146107b9578063eadf976014610875578063ef5454d6146108e0578063f25eb5c114610953578063f6d339e41461096a575b600080fd5b34801561014f57600080fd5b50610184600480360381019080803573ffffffffffffffffffffffffffffffffffffffff1690602001909291905050506109eb565b604051808215151515815260200191505060405180910390f35b3480156101aa57600080fd5b506101df600480360381019080803573ffffffffffffffffffffffffffffffffffffffff169060200190929190505050610a4b565b005b3480156101ed57600080fd5b5061023660048036038101908080356000191690602001909291908035906020019082018035906020019190919293919293908035600019169060200190929190505050610b64565b604051808215151515815260200191505060405180910390f35b34801561025c57600080fd5b50610289600480360381019080803590602001908201803590602001919091929391929390505050610d5f565b604051808215151515815260200191505060405180910390f35b6102c560048036038101908080356000191690602001909291905050506110d7565b604051808215151515815260200191505060405180910390f35b3480156102eb57600080fd5b5061030e6004803603810190808035600019169060200190929190505050611232565b604051808215151515815260200191505060405180910390f35b34801561033457600080fd5b5061036f60048036038101908080356000191690602001909291908035906020019082018035906020019190919293919293905050506116ee565b604051808273ffffffffffffffffffffffffffffffffffffffff1673ffffffffffffffffffffffffffffffffffffffff16815260200191505060405180910390f35b3480156103bd57600080fd5b506103dc600480360381019080803590602001909291905050506117f0565b604051808215151515815260200191505060405180910390f35b34801561040257600080fd5b506104456004803603810190808035600019169060200190929190803573ffffffffffffffffffffffffffffffffffffffff169060200190929190505050611894565b604051808215151515815260200191505060405180910390f35b34801561046b57600080fd5b50610474611a87565b604051808273ffffffffffffffffffffffffffffffffffffffff1673ffffffffffffffffffffffffffffffffffffffff16815260200191505060405180910390f35b3480156104c257600080fd5b506104fd6004803603810190808035600019169060200190929190803590602001908201803590602001919091929391929390505050611aac565b60405180826000191660001916815260200191505060405180910390f35b34801561052757600080fd5b5061054a6004803603810190808035600019169060200190929190505050611baa565b604051808215151515815260200191505060405180910390f35b34801561057057600080fd5b50610579611cbd565b604051808215151515815260200191505060405180910390f35b34801561059f57600080fd5b506105ec600480360381019080803590602001908201803590602001919091929391929390803573ffffffffffffffffffffffffffffffffffffffff169060200190929190505050611dcd565b604051808215151515815260200191505060405180910390f35b34801561061257600080fd5b506106356004803603810190808035600019169060200190929190505050612382565b604051808215151515815260200191505060405180910390f35b34801561065b57600080fd5b506106966004803603810190808035600019169060200190929190803590602001908201803590602001919091929391929390505050612495565b6040518082815260200191505060405180910390f35b3480156106b857600080fd5b506106c1612597565b6040518082815260200191505060405180910390f35b3480156106e357600080fd5b50610706600480360381019080803560001916906020019092919050505061259d565b604051808273ffffffffffffffffffffffffffffffffffffffff1673ffffffffffffffffffffffffffffffffffffffff16815260200191505060405180910390f35b34801561075457600080fd5b506107776004803603810190808035600019169060200190929190505050612696565b604051808273ffffffffffffffffffffffffffffffffffffffff1673ffffffffffffffffffffffffffffffffffffffff16815260200191505060405180910390f35b3480156107c557600080fd5b506107fa600480360381019080803573ffffffffffffffffffffffffffffffffffffffff16906020019092919050505061278f565b6040518080602001828103825283818151815260200191508051906020019080838360005b8381101561083a57808201518184015260208101905061081f565b50505050905090810190601f1680156108675780820380516001836020036101000a031916815260200191505b509250505060405180910390f35b34801561088157600080fd5b506108c6600480360381019080803560001916906020019092919080359060200190820180359060200191909192939192939080359060200190929190505050612870565b604051808215151515815260200191505060405180910390f35b3480156108ec57600080fd5b50610939600480360381019080803590602001908201803590602001919091929391929390803573ffffffffffffffffffffffffffffffffffffffff169060200190929190505050612a6e565b604051808215151515815260200191505060405180910390f35b34801561095f57600080fd5b50610968612d34565b005b34801561097657600080fd5b506109d16004803603810190808035600019169060200190929190803590602001908201803590602001919091929391929390803573ffffffffffffffffffffffffffffffffffffffff1690602001909291905050506131c2565b604051808215151515815260200191505060405180910390f35b600080600260008473ffffffffffffffffffffffffffffffffffffffff1673ffffffffffffffffffffffffffffffffffffffff16815260200190815260200160002080546001816001161561010002031660029004905014159050919050565b6000809054906101000a900473ffffffffffffffffffffffffffffffffffffffff1673ffffffffffffffffffffffffffffffffffffffff163373ffffffffffffffffffffffffffffffffffffffff16141515610aa657600080fd5b8073ffffffffffffffffffffffffffffffffffffffff166000809054906101000a900473ffffffffffffffffffffffffffffffffffffffff1673ffffffffffffffffffffffffffffffffffffffff167f70aea8d848e8a90fb7661b227dc522eb6395c3dac71b63cb59edd5c9899b236460405160405180910390a3806000806101000a81548173ffffffffffffffffffffffffffffffffffffffff021916908373ffffffffffffffffffffffffffffffffffffffff16021790555050565b60008460016000826000191660001916815260200190815260200160002060010160149054906101000a900460ff16158015610c0b5750600073ffffffffffffffffffffffffffffffffffffffff1660016000836000191660001916815260200190815260200160002060000160009054906101000a900473ffffffffffffffffffffffffffffffffffffffff1673ffffffffffffffffffffffffffffffffffffffff1614155b1515610c1657600080fd5b853373ffffffffffffffffffffffffffffffffffffffff1660016000836000191660001916815260200190815260200160002060000160009054906101000a900473ffffffffffffffffffffffffffffffffffffffff1673ffffffffffffffffffffffffffffffffffffffff16141515610c8f57600080fd5b836001600089600019166000191681526020019081526020016000206002018787604051808383808284378201915050925050509081526020016040518091039020816000191690555086600019167fb829c3e412537bbe794c048ccb9e4605bb4aaaa8e4d4c15c1a6e0c2adc1716ea878789896040518080602001806020018381038352878782818152602001925080828437820191505083810382528585828181526020019250808284378201915050965050505050505060405180910390a2600192505050949350505050565b600082828080601f01602080910402602001604051908101604052809392919081815260200183838082843782019150505050505060016000826040518082805190602001908083835b602083101515610dce5780518252602082019150602081019050602083039250610da9565b6001836020036101000a03801982511681845116808217855250505050505090500191505060405180910390206000191660001916815260200190815260200160002060010160149054906101000a900460ff16158015610efc5750600073ffffffffffffffffffffffffffffffffffffffff1660016000836040518082805190602001908083835b602083101515610e7c5780518252602082019150602081019050602083039250610e57565b6001836020036101000a03801982511681845116808217855250505050505090500191505060405180910390206000191660001916815260200190815260200160002060000160009054906101000a900473ffffffffffffffffffffffffffffffffffffffff1673ffffffffffffffffffffffffffffffffffffffff1614155b1515610f0757600080fd5b83838080601f0160208091040260200160405190810160405280939291908181526020018383808284378201915050505050503373ffffffffffffffffffffffffffffffffffffffff1660016000836040518082805190602001908083835b602083101515610f8b5780518252602082019150602081019050602083039250610f66565b6001836020036101000a03801982511681845116808217855250505050505090500191505060405180910390206000191660001916815260200190815260200160002060010160009054906101000a900473ffffffffffffffffffffffffffffffffffffffff1673ffffffffffffffffffffffffffffffffffffffff1614151561101457600080fd5b8484600260003373ffffffffffffffffffffffffffffffffffffffff1673ffffffffffffffffffffffffffffffffffffffff16815260200190815260200160002091906110629291906133d6565b503373ffffffffffffffffffffffffffffffffffffffff167f098ae8581bb8bd9af1beaf7f2e9f51f31a8e5a8bfada4e303a645d71d9c919208686604051808060200182810382528484828181526020019250808284378201915050935050505060405180910390a260019250505092915050565b60008160016000826000191660001916815260200190815260200160002060010160149054906101000a900460ff161580156111675750600060016000836000191660001916815260200190815260200160002060000160009054906101000a900473ffffffffffffffffffffffffffffffffffffffff1673ffffffffffffffffffffffffffffffffffffffff16145b151561117257600080fd5b600354341015151561118357600080fd5b3360016000856000191660001916815260200190815260200160002060000160006101000a81548173ffffffffffffffffffffffffffffffffffffffff021916908373ffffffffffffffffffffffffffffffffffffffff1602179055503373ffffffffffffffffffffffffffffffffffffffff1683600019167f4963513eca575aba66fdcd25f267aae85958fe6fb97e75fa25d783f1a091a22160405160405180910390a36001915050919050565b60008160016000826000191660001916815260200190815260200160002060010160149054906101000a900460ff161580156112d95750600073ffffffffffffffffffffffffffffffffffffffff1660016000836000191660001916815260200190815260200160002060000160009054906101000a900473ffffffffffffffffffffffffffffffffffffffff1673ffffffffffffffffffffffffffffffffffffffff1614155b15156112e457600080fd5b823373ffffffffffffffffffffffffffffffffffffffff1660016000836000191660001916815260200190815260200160002060000160009054906101000a900473ffffffffffffffffffffffffffffffffffffffff1673ffffffffffffffffffffffffffffffffffffffff1614151561135d57600080fd5b83600019166002600060016000886000191660001916815260200190815260200160002060010160009054906101000a900473ffffffffffffffffffffffffffffffffffffffff1673ffffffffffffffffffffffffffffffffffffffff1673ffffffffffffffffffffffffffffffffffffffff168152602001908152602001600020604051808280546001816001161561010002031660029004801561143a5780601f1061141857610100808354040283529182019161143a565b820191906000526020600020905b815481529060010190602001808311611426575b505091505060405180910390206000191614156116655760016000856000191660001916815260200190815260200160002060010160009054906101000a900473ffffffffffffffffffffffffffffffffffffffff1673ffffffffffffffffffffffffffffffffffffffff167f12491ad95fd945e444d88a894ffad3c21959880a4dcd8af99d4ae4ffc71d4abd6002600060016000896000191660001916815260200190815260200160002060010160009054906101000a900473ffffffffffffffffffffffffffffffffffffffff1673ffffffffffffffffffffffffffffffffffffffff1673ffffffffffffffffffffffffffffffffffffffff16815260200190815260200160002060405180806020018281038252838181546001816001161561010002031660029004815260200191508054600181600116156101000203166002900480156115cd5780601f106115a2576101008083540402835291602001916115cd565b820191906000526020600020905b8154815290600101906020018083116115b057829003601f168201915b50509250505060405180910390a26002600060016000876000191660001916815260200190815260200160002060010160009054906101000a900473ffffffffffffffffffffffffffffffffffffffff1673ffffffffffffffffffffffffffffffffffffffff1673ffffffffffffffffffffffffffffffffffffffff16815260200190815260200160002060006116649190613456565b5b6001806000866000191660001916815260200190815260200160002060010160146101000a81548160ff0219169083151502179055503373ffffffffffffffffffffffffffffffffffffffff1684600019167fef1961b4d2909dc23643b309bfe5c3e5646842d98c3a58517037ef3871185af360405160405180910390a3600192505050919050565b60008360016000826000191660001916815260200190815260200160002060010160149054906101000a900460ff161580156117955750600073ffffffffffffffffffffffffffffffffffffffff1660016000836000191660001916815260200190815260200160002060000160009054906101000a900473ffffffffffffffffffffffffffffffffffffffff1673ffffffffffffffffffffffffffffffffffffffff1614155b15156117a057600080fd5b600160008660001916600019168152602001908152602001600020600201848460405180838380828437820191505092505050908152602001604051809103902054600190049150509392505050565b60008060009054906101000a900473ffffffffffffffffffffffffffffffffffffffff1673ffffffffffffffffffffffffffffffffffffffff163373ffffffffffffffffffffffffffffffffffffffff1614151561184d57600080fd5b816003819055507f6bbc57480a46553fa4d156ce702beef5f3ad66303b0ed1a5d4cb44966c6584c3826040518082815260200191505060405180910390a160019050919050565b60008260016000826000191660001916815260200190815260200160002060010160149054906101000a900460ff1615801561193b5750600073ffffffffffffffffffffffffffffffffffffffff1660016000836000191660001916815260200190815260200160002060000160009054906101000a900473ffffffffffffffffffffffffffffffffffffffff1673ffffffffffffffffffffffffffffffffffffffff1614155b151561194657600080fd5b833373ffffffffffffffffffffffffffffffffffffffff1660016000836000191660001916815260200190815260200160002060000160009054906101000a900473ffffffffffffffffffffffffffffffffffffffff1673ffffffffffffffffffffffffffffffffffffffff161415156119bf57600080fd5b8360016000876000191660001916815260200190815260200160002060000160006101000a81548173ffffffffffffffffffffffffffffffffffffffff021916908373ffffffffffffffffffffffffffffffffffffffff1602179055508373ffffffffffffffffffffffffffffffffffffffff163373ffffffffffffffffffffffffffffffffffffffff1686600019167f7b97c62130aa09acbbcbf7482630e756592496f1759eaf702f469cf64dfb779460405160405180910390a460019250505092915050565b6000809054906101000a900473ffffffffffffffffffffffffffffffffffffffff1681565b60008360016000826000191660001916815260200190815260200160002060010160149054906101000a900460ff16158015611b535750600073ffffffffffffffffffffffffffffffffffffffff1660016000836000191660001916815260200190815260200160002060000160009054906101000a900473ffffffffffffffffffffffffffffffffffffffff1673ffffffffffffffffffffffffffffffffffffffff1614155b1515611b5e57600080fd5b6001600086600019166000191681526020019081526020016000206002018484604051808383808284378201915050925050509081526020016040518091039020549150509392505050565b60008160016000826000191660001916815260200190815260200160002060010160149054906101000a900460ff16158015611c515750600073ffffffffffffffffffffffffffffffffffffffff1660016000836000191660001916815260200190815260200160002060000160009054906101000a900473ffffffffffffffffffffffffffffffffffffffff1673ffffffffffffffffffffffffffffffffffffffff1614155b1515611c5c57600080fd5b600060016000856000191660001916815260200190815260200160002060000160009054906101000a900473ffffffffffffffffffffffffffffffffffffffff1673ffffffffffffffffffffffffffffffffffffffff161415915050919050565b60008060009054906101000a900473ffffffffffffffffffffffffffffffffffffffff1673ffffffffffffffffffffffffffffffffffffffff163373ffffffffffffffffffffffffffffffffffffffff16141515611d1a57600080fd5b7fdef931299fe61d176f949118058530c1f3f539dcb6950b4e372c9b835c33ca073073ffffffffffffffffffffffffffffffffffffffff16316040518082815260200191505060405180910390a13373ffffffffffffffffffffffffffffffffffffffff166108fc3073ffffffffffffffffffffffffffffffffffffffff16319081150290604051600060405180830381858888f19350505050158015611dc5573d6000803e3d6000fd5b506001905090565b60008084848080601f01602080910402602001604051908101604052809392919081815260200183838082843782019150505050505060016000826040518082805190602001908083835b602083101515611e3d5780518252602082019150602081019050602083039250611e18565b6001836020036101000a03801982511681845116808217855250505050505090500191505060405180910390206000191660001916815260200190815260200160002060010160149054906101000a900460ff16158015611f6b5750600073ffffffffffffffffffffffffffffffffffffffff1660016000836040518082805190602001908083835b602083101515611eeb5780518252602082019150602081019050602083039250611ec6565b6001836020036101000a03801982511681845116808217855250505050505090500191505060405180910390206000191660001916815260200190815260200160002060000160009054906101000a900473ffffffffffffffffffffffffffffffffffffffff1673ffffffffffffffffffffffffffffffffffffffff1614155b1515611f7657600080fd5b85856040518083838082843782019150509250505060405180910390203373ffffffffffffffffffffffffffffffffffffffff1660016000836000191660001916815260200190815260200160002060000160009054906101000a900473ffffffffffffffffffffffffffffffffffffffff1673ffffffffffffffffffffffffffffffffffffffff1614151561200b57600080fd5b86866040518083838082843782019150509250505060405180910390209250600060016000856000191660001916815260200190815260200160002060010160009054906101000a900473ffffffffffffffffffffffffffffffffffffffff1673ffffffffffffffffffffffffffffffffffffffff161415801561217a575082600019166002600060016000876000191660001916815260200190815260200160002060010160009054906101000a900473ffffffffffffffffffffffffffffffffffffffff1673ffffffffffffffffffffffffffffffffffffffff1673ffffffffffffffffffffffffffffffffffffffff16815260200190815260200160002060405180828054600181600116156101000203166002900480156121675780601f10612145576101008083540402835291820191612167565b820191906000526020600020905b815481529060010190602001808311612153575b5050915050604051809103902060001916145b156122af576002600060016000866000191660001916815260200190815260200160002060010160009054906101000a900473ffffffffffffffffffffffffffffffffffffffff1673ffffffffffffffffffffffffffffffffffffffff1673ffffffffffffffffffffffffffffffffffffffff16815260200190815260200160002060006122089190613456565b60016000846000191660001916815260200190815260200160002060010160009054906101000a900473ffffffffffffffffffffffffffffffffffffffff1673ffffffffffffffffffffffffffffffffffffffff167f12491ad95fd945e444d88a894ffad3c21959880a4dcd8af99d4ae4ffc71d4abd8888604051808060200182810382528484828181526020019250808284378201915050935050505060405180910390a25b8460016000856000191660001916815260200190815260200160002060010160006101000a81548173ffffffffffffffffffffffffffffffffffffffff021916908373ffffffffffffffffffffffffffffffffffffffff1602179055508473ffffffffffffffffffffffffffffffffffffffff167f728435a0031f6a04538fcdd24922a7e06bc7bc945db03e83d22122d1bc5f28df8888604051808060200182810382528484828181526020019250808284378201915050935050505060405180910390a2600193505050509392505050565b60008160016000826000191660001916815260200190815260200160002060010160149054906101000a900460ff161580156124295750600073ffffffffffffffffffffffffffffffffffffffff1660016000836000191660001916815260200190815260200160002060000160009054906101000a900473ffffffffffffffffffffffffffffffffffffffff1673ffffffffffffffffffffffffffffffffffffffff1614155b151561243457600080fd5b600060016000856000191660001916815260200190815260200160002060010160009054906101000a900473ffffffffffffffffffffffffffffffffffffffff1673ffffffffffffffffffffffffffffffffffffffff161415915050919050565b60008360016000826000191660001916815260200190815260200160002060010160149054906101000a900460ff1615801561253c5750600073ffffffffffffffffffffffffffffffffffffffff1660016000836000191660001916815260200190815260200160002060000160009054906101000a900473ffffffffffffffffffffffffffffffffffffffff1673ffffffffffffffffffffffffffffffffffffffff1614155b151561254757600080fd5b600160008660001916600019168152602001908152602001600020600201848460405180838380828437820191505092505050908152602001604051809103902054600190049150509392505050565b60035481565b60008160016000826000191660001916815260200190815260200160002060010160149054906101000a900460ff161580156126445750600073ffffffffffffffffffffffffffffffffffffffff1660016000836000191660001916815260200190815260200160002060000160009054906101000a900473ffffffffffffffffffffffffffffffffffffffff1673ffffffffffffffffffffffffffffffffffffffff1614155b151561264f57600080fd5b60016000846000191660001916815260200190815260200160002060000160009054906101000a900473ffffffffffffffffffffffffffffffffffffffff16915050919050565b60008160016000826000191660001916815260200190815260200160002060010160149054906101000a900460ff1615801561273d5750600073ffffffffffffffffffffffffffffffffffffffff1660016000836000191660001916815260200190815260200160002060000160009054906101000a900473ffffffffffffffffffffffffffffffffffffffff1673ffffffffffffffffffffffffffffffffffffffff1614155b151561274857600080fd5b60016000846000191660001916815260200190815260200160002060010160009054906101000a900473ffffffffffffffffffffffffffffffffffffffff16915050919050565b6060600260008373ffffffffffffffffffffffffffffffffffffffff1673ffffffffffffffffffffffffffffffffffffffff1681526020019081526020016000208054600181600116156101000203166002900480601f0160208091040260200160405190810160405280929190818152602001828054600181600116156101000203166002900480156128645780601f1061283957610100808354040283529160200191612864565b820191906000526020600020905b81548152906001019060200180831161284757829003601f168201915b50505050509050919050565b60008460016000826000191660001916815260200190815260200160002060010160149054906101000a900460ff161580156129175750600073ffffffffffffffffffffffffffffffffffffffff1660016000836000191660001916815260200190815260200160002060000160009054906101000a900473ffffffffffffffffffffffffffffffffffffffff1673ffffffffffffffffffffffffffffffffffffffff1614155b151561292257600080fd5b853373ffffffffffffffffffffffffffffffffffffffff1660016000836000191660001916815260200190815260200160002060000160009054906101000a900473ffffffffffffffffffffffffffffffffffffffff1673ffffffffffffffffffffffffffffffffffffffff1614151561299b57600080fd5b836001026001600089600019166000191681526020019081526020016000206002018787604051808383808284378201915050925050509081526020016040518091039020816000191690555086600019167fb829c3e412537bbe794c048ccb9e4605bb4aaaa8e4d4c15c1a6e0c2adc1716ea878789896040518080602001806020018381038352878782818152602001925080828437820191505083810382528585828181526020019250808284378201915050965050505050505060405180910390a2600192505050949350505050565b600083838080601f01602080910402602001604051908101604052809392919081815260200183838082843782019150505050505060016000826040518082805190602001908083835b602083101515612add5780518252602082019150602081019050602083039250612ab8565b6001836020036101000a03801982511681845116808217855250505050505090500191505060405180910390206000191660001916815260200190815260200160002060010160149054906101000a900460ff16158015612c0b5750600073ffffffffffffffffffffffffffffffffffffffff1660016000836040518082805190602001908083835b602083101515612b8b5780518252602082019150602081019050602083039250612b66565b6001836020036101000a03801982511681845116808217855250505050505090500191505060405180910390206000191660001916815260200190815260200160002060000160009054906101000a900473ffffffffffffffffffffffffffffffffffffffff1673ffffffffffffffffffffffffffffffffffffffff1614155b1515612c1657600080fd5b6000809054906101000a900473ffffffffffffffffffffffffffffffffffffffff1673ffffffffffffffffffffffffffffffffffffffff163373ffffffffffffffffffffffffffffffffffffffff16141515612c7157600080fd5b8484600260008673ffffffffffffffffffffffffffffffffffffffff1673ffffffffffffffffffffffffffffffffffffffff1681526020019081526020016000209190612cbf9291906133d6565b508273ffffffffffffffffffffffffffffffffffffffff167f098ae8581bb8bd9af1beaf7f2e9f51f31a8e5a8bfada4e303a645d71d9c919208686604051808060200182810382528484828181526020019250808284378201915050935050505060405180910390a260019150509392505050565b600260003373ffffffffffffffffffffffffffffffffffffffff1673ffffffffffffffffffffffffffffffffffffffff1681526020019081526020016000208054600181600116156101000203166002900480601f016020809104026020016040519081016040528092919081815260200182805460018160011615610100020316600290048015612e075780601f10612ddc57610100808354040283529160200191612e07565b820191906000526020600020905b815481529060010190602001808311612dea57829003601f168201915b505050505060016000826040518082805190602001908083835b602083101515612e465780518252602082019150602081019050602083039250612e21565b6001836020036101000a03801982511681845116808217855250505050505090500191505060405180910390206000191660001916815260200190815260200160002060010160149054906101000a900460ff16158015612f745750600073ffffffffffffffffffffffffffffffffffffffff1660016000836040518082805190602001908083835b602083101515612ef45780518252602082019150602081019050602083039250612ecf565b6001836020036101000a03801982511681845116808217855250505050505090500191505060405180910390206000191660001916815260200190815260200160002060000160009054906101000a900473ffffffffffffffffffffffffffffffffffffffff1673ffffffffffffffffffffffffffffffffffffffff1614155b1515612f7f57600080fd5b3373ffffffffffffffffffffffffffffffffffffffff167f12491ad95fd945e444d88a894ffad3c21959880a4dcd8af99d4ae4ffc71d4abd600260003373ffffffffffffffffffffffffffffffffffffffff1673ffffffffffffffffffffffffffffffffffffffff168152602001908152602001600020604051808060200182810382528381815460018160011615610100020316600290048152602001915080546001816001161561010002031660029004801561307f5780601f106130545761010080835404028352916020019161307f565b820191906000526020600020905b81548152906001019060200180831161306257829003601f168201915b50509250505060405180910390a260016000600260003373ffffffffffffffffffffffffffffffffffffffff1673ffffffffffffffffffffffffffffffffffffffff168152602001908152602001600020604051808280546001816001161561010002031660029004801561312b5780601f1061310957610100808354040283529182019161312b565b820191906000526020600020905b815481529060010190602001808311613117575b505091505060405180910390206000191660001916815260200190815260200160002060010160006101000a81549073ffffffffffffffffffffffffffffffffffffffff0219169055600260003373ffffffffffffffffffffffffffffffffffffffff1673ffffffffffffffffffffffffffffffffffffffff16815260200190815260200160002060006131bf9190613456565b50565b60008460016000826000191660001916815260200190815260200160002060010160149054906101000a900460ff161580156132695750600073ffffffffffffffffffffffffffffffffffffffff1660016000836000191660001916815260200190815260200160002060000160009054906101000a900473ffffffffffffffffffffffffffffffffffffffff1673ffffffffffffffffffffffffffffffffffffffff1614155b151561327457600080fd5b853373ffffffffffffffffffffffffffffffffffffffff1660016000836000191660001916815260200190815260200160002060000160009054906101000a900473ffffffffffffffffffffffffffffffffffffffff1673ffffffffffffffffffffffffffffffffffffffff161415156132ed57600080fd5b8373ffffffffffffffffffffffffffffffffffffffff166001026001600089600019166000191681526020019081526020016000206002018787604051808383808284378201915050925050509081526020016040518091039020816000191690555086600019167fb829c3e412537bbe794c048ccb9e4605bb4aaaa8e4d4c15c1a6e0c2adc1716ea878789896040518080602001806020018381038352878782818152602001925080828437820191505083810382528585828181526020019250808284378201915050965050505050505060405180910390a2600192505050949350505050565b828054600181600116156101000203166002900490600052602060002090601f016020900481019282601f1061341757803560ff1916838001178555613445565b82800160010185558215613445579182015b82811115613444578235825591602001919060010190613429565b5b509050613452919061349e565b5090565b50805460018160011615610100020316600290046000825580601f1061347c575061349b565b601f01602090049060005260206000209081019061349a919061349e565b5b50565b6134c091905b808211156134bc5760008160009055506001016134a4565b5090565b905600a165627a7a7230582067be32ace8ba05693836bc4436bc3ad7313e4625cf7d7364d72b2a370154a4d50029",
  "source": "//! The simple registry contract.\n//!\n//! Copyright 2016 Gavin Wood, Parity Technologies Ltd.\n//!\n//! Licensed under the Apache License, Version 2.0 (the \"License\");\n//! you may not use this file except in compliance with the License.\n//! You may obtain a copy of the License at\n//!\n//!     http://www.apache.org/licenses/LICENSE-2.0\n//!\n//! Unless required by applicable law or agreed to in writing, software\n//! distributed under the License is distributed on an \"AS IS\" BASIS,\n//! WITHOUT WARRANTIES OR CONDITIONS OF ANY KIND, either express or implied.\n//! See the License for the specific language governing permissions and\n//! limitations under the License.\n\npragma solidity ^0.4.24;\n\nimport \"./Owned.sol\";\nimport \"./Registry.sol\";\n\n\ncontract SimpleRegistry is Owned, MetadataRegistry, OwnerRegistry, ReverseRegistry {\n\tstruct Entry {\n\t\taddress owner;\n\t\taddress reverse;\n\t\tbool deleted;\n\t\tmapping (string => bytes32) data;\n\t}\n\n\tevent Drained(uint amount);\n\tevent FeeChanged(uint amount);\n\tevent ReverseProposed(string name, address indexed reverse);\n\n\tmapping (bytes32 => Entry) entries;\n\tmapping (address => string) reverses;\n\n\tuint public fee = 1 ether;\n\n\tmodifier whenUnreserved(bytes32 _name) {\n\t\trequire(!entries[_name].deleted && entries[_name].owner == 0);\n\t\t_;\n\t}\n\n\tmodifier onlyOwnerOf(bytes32 _name) {\n\t\trequire(entries[_name].owner == msg.sender);\n\t\t_;\n\t}\n\n\tmodifier whenProposed(string _name) {\n\t\trequire(entries[keccak256(bytes(_name))].reverse == msg.sender);\n\t\t_;\n\t}\n\n\tmodifier whenEntry(string _name) {\n\t\trequire(\n\t\t\t!entries[keccak256(bytes(_name))].deleted &&\n\t\t\tentries[keccak256(bytes(_name))].owner != address(0)\n\t\t);\n\t\t_;\n\t}\n\n\tmodifier whenEntryRaw(bytes32 _name) {\n\t\trequire(\n\t\t\t!entries[_name].deleted &&\n\t\t\tentries[_name].owner != address(0)\n\t\t);\n\t\t_;\n\t}\n\n\tmodifier whenFeePaid {\n\t\trequire(msg.value >= fee);\n\t\t_;\n\t}\n\n\t// Reservation functions\n\tfunction reserve(bytes32 _name)\n\t\texternal\n\t\tpayable\n\t\twhenUnreserved(_name)\n\t\twhenFeePaid\n\t\treturns (bool success)\n\t{\n\t\tentries[_name].owner = msg.sender;\n\t\temit Reserved(_name, msg.sender);\n\t\treturn true;\n\t}\n\n\tfunction transfer(bytes32 _name, address _to)\n\t\texternal\n\t\twhenEntryRaw(_name)\n\t\tonlyOwnerOf(_name)\n\t\treturns (bool success)\n\t{\n\t\tentries[_name].owner = _to;\n\t\temit Transferred(_name, msg.sender, _to);\n\t\treturn true;\n\t}\n\n\tfunction drop(bytes32 _name)\n\t\texternal\n\t\twhenEntryRaw(_name)\n\t\tonlyOwnerOf(_name)\n\t\treturns (bool success)\n\t{\n\t\tif (keccak256(bytes(reverses[entries[_name].reverse])) == _name) {\n\t\t\temit ReverseRemoved(reverses[entries[_name].reverse], entries[_name].reverse);\n\t\t\tdelete reverses[entries[_name].reverse];\n\t\t}\n\t\tentries[_name].deleted = true;\n\t\temit Dropped(_name, msg.sender);\n\t\treturn true;\n\t}\n\n\t// Data admin functions\n\tfunction setData(bytes32 _name, string _key, bytes32 _value)\n\t\texternal\n\t\twhenEntryRaw(_name)\n\t\tonlyOwnerOf(_name)\n\t\treturns (bool success)\n\t{\n\t\tentries[_name].data[_key] = _value;\n\t\temit DataChanged(_name, _key, _key);\n\t\treturn true;\n\t}\n\n\tfunction setAddress(bytes32 _name, string _key, address _value)\n\t\texternal\n\t\twhenEntryRaw(_name)\n\t\tonlyOwnerOf(_name)\n\t\treturns (bool success)\n\t{\n\t\tentries[_name].data[_key] = bytes32(_value);\n\t\temit DataChanged(_name, _key, _key);\n\t\treturn true;\n\t}\n\n\tfunction setUint(bytes32 _name, string _key, uint _value)\n\t\texternal\n\t\twhenEntryRaw(_name)\n\t\tonlyOwnerOf(_name)\n\t\treturns (bool success)\n\t{\n\t\tentries[_name].data[_key] = bytes32(_value);\n\t\temit DataChanged(_name, _key, _key);\n\t\treturn true;\n\t}\n\n\t// Reverse registration functions\n\tfunction proposeReverse(string _name, address _who)\n\t\texternal\n\t\twhenEntry(_name)\n\t\tonlyOwnerOf(keccak256(bytes(_name)))\n\t\treturns (bool success)\n\t{\n\t\tbytes32 sha3Name = keccak256(bytes(_name));\n\t\tif (entries[sha3Name].reverse != 0 && keccak256(bytes(reverses[entries[sha3Name].reverse])) == sha3Name) {\n\t\t\tdelete reverses[entries[sha3Name].reverse];\n\t\t\temit ReverseRemoved(_name, entries[sha3Name].reverse);\n\t\t}\n\t\tentries[sha3Name].reverse = _who;\n\t\temit ReverseProposed(_name, _who);\n\t\treturn true;\n\t}\n\n\tfunction confirmReverse(string _name)\n\t\texternal\n\t\twhenEntry(_name)\n\t\twhenProposed(_name)\n\t\treturns (bool success)\n\t{\n\t\treverses[msg.sender] = _name;\n\t\temit ReverseConfirmed(_name, msg.sender);\n\t\treturn true;\n\t}\n\n\tfunction confirmReverseAs(string _name, address _who)\n\t\texternal\n\t\twhenEntry(_name)\n\t\tonlyOwner\n\t\treturns (bool success)\n\t{\n\t\treverses[_who] = _name;\n\t\temit ReverseConfirmed(_name, _who);\n\t\treturn true;\n\t}\n\n\tfunction removeReverse()\n\t\texternal\n\t\twhenEntry(reverses[msg.sender])\n\t{\n\t\temit ReverseRemoved(reverses[msg.sender], msg.sender);\n\t\tdelete entries[keccak256(bytes(reverses[msg.sender]))].reverse;\n\t\tdelete reverses[msg.sender];\n\t}\n\n\t// Admin functions for the owner\n\tfunction setFee(uint _amount)\n\t\texternal\n\t\tonlyOwner\n\t\treturns (bool)\n\t{\n\t\tfee = _amount;\n\t\temit FeeChanged(_amount);\n\t\treturn true;\n\t}\n\n\tfunction drain()\n\t\texternal\n\t\tonlyOwner\n\t\treturns (bool)\n\t{\n\t\temit Drained(address(this).balance);\n\t\tmsg.sender.transfer(address(this).balance);\n\t\treturn true;\n\t}\n\n\t// MetadataRegistry views\n\tfunction getData(bytes32 _name, string _key)\n\t\texternal\n\t\tview\n\t\twhenEntryRaw(_name)\n\t\treturns (bytes32)\n\t{\n\t\treturn entries[_name].data[_key];\n\t}\n\n\tfunction getAddress(bytes32 _name, string _key)\n\t\texternal\n\t\tview\n\t\twhenEntryRaw(_name)\n\t\treturns (address)\n\t{\n\t\treturn address(entries[_name].data[_key]);\n\t}\n\n\tfunction getUint(bytes32 _name, string _key)\n\t\texternal\n\t\tview\n\t\twhenEntryRaw(_name)\n\t\treturns (uint)\n\t{\n\t\treturn uint(entries[_name].data[_key]);\n\t}\n\n\t// OwnerRegistry views\n\tfunction getOwner(bytes32 _name)\n\t\texternal\n\t\tview\n\t\twhenEntryRaw(_name)\n\t\treturns (address)\n\t{\n\t\treturn entries[_name].owner;\n\t}\n\n\t// ReversibleRegistry views\n\tfunction hasReverse(bytes32 _name)\n\t\texternal\n\t\tview\n\t\twhenEntryRaw(_name)\n\t\treturns (bool)\n\t{\n\t\treturn entries[_name].reverse != 0;\n\t}\n\n\tfunction getReverse(bytes32 _name)\n\t\texternal\n\t\tview\n\t\twhenEntryRaw(_name)\n\t\treturns (address)\n\t{\n\t\treturn entries[_name].reverse;\n\t}\n\n\tfunction canReverse(address _data)\n\t\texternal\n\t\tview\n\t\treturns (bool)\n\t{\n\t\treturn bytes(reverses[_data]).length != 0;\n\t}\n\n\tfunction reverse(address _data)\n\t\texternal\n\t\tview\n\t\treturns (string)\n\t{\n\t\treturn reverses[_data];\n\t}\n\n\tfunction reserved(bytes32 _name)\n\t\texternal\n\t\tview\n\t\twhenEntryRaw(_name)\n\t\treturns (bool)\n\t{\n\t\treturn entries[_name].owner != 0;\n\t}\n}\n",
  "sourcePath": "/home/ubuntu/name-registry/contracts/SimpleRegistry.sol",
  "compiler": {
    "name": "solc",
    "version": "0.4.26+commit.4563c3fc.Emscripten.clang"
  },
  "schemaVersion": "2.0.3",
  "updatedAt": "2019-09-26T14:48:56.440Z"
}